{
	"contracts/15-7 part 2 studentGrade.sol": {
		"StudentMarksChecker": {
			"abi": [
				{
					"inputs": [
						{
							"internalType": "uint256",
							"name": "score",
							"type": "uint256"
						}
					],
					"name": "CheckGradesByternary",
					"outputs": [
						{
							"internalType": "bool",
							"name": "",
							"type": "bool"
						},
						{
							"internalType": "string",
							"name": "",
							"type": "string"
						}
					],
					"stateMutability": "pure",
					"type": "function"
				},
				{
					"inputs": [
						{
							"internalType": "uint256",
							"name": "score",
							"type": "uint256"
						}
					],
					"name": "marksCheck",
					"outputs": [
						{
							"internalType": "bool",
							"name": "",
							"type": "bool"
						},
						{
							"internalType": "string",
							"name": "",
							"type": "string"
						}
					],
					"stateMutability": "pure",
					"type": "function"
				}
			],
			"devdoc": {
				"kind": "dev",
				"methods": {},
				"version": 1
			},
			"evm": {
				"assembly": "    /* \"contracts/15-7 part 2 studentGrade.sol\":58:789  contract StudentMarksChecker{... */\n  mstore(0x40, 0x80)\n    /* \"contracts/15-7 part 2 studentGrade.sol\":108:112  true */\n  0x01\n    /* \"contracts/15-7 part 2 studentGrade.sol\":93:112  bool condition=true */\n  0x00\n  dup1\n  0x0100\n  exp\n  dup2\n  sload\n  dup2\n  0xff\n  mul\n  not\n  and\n  swap1\n  dup4\n  iszero\n  iszero\n  mul\n  or\n  swap1\n  sstore\n  pop\n    /* \"contracts/15-7 part 2 studentGrade.sol\":58:789  contract StudentMarksChecker{... */\n  callvalue\n  dup1\n  iszero\n  tag_1\n  jumpi\n  0x00\n  dup1\n  revert\ntag_1:\n  pop\n  dataSize(sub_0)\n  dup1\n  dataOffset(sub_0)\n  0x00\n  codecopy\n  0x00\n  return\nstop\n\nsub_0: assembly {\n        /* \"contracts/15-7 part 2 studentGrade.sol\":58:789  contract StudentMarksChecker{... */\n      mstore(0x40, 0x80)\n      callvalue\n      dup1\n      iszero\n      tag_1\n      jumpi\n      0x00\n      dup1\n      revert\n    tag_1:\n      pop\n      jumpi(tag_2, lt(calldatasize, 0x04))\n      shr(0xe0, calldataload(0x00))\n      dup1\n      0x169623de\n      eq\n      tag_3\n      jumpi\n      dup1\n      0xfdb4013e\n      eq\n      tag_4\n      jumpi\n    tag_2:\n      0x00\n      dup1\n      revert\n        /* \"contracts/15-7 part 2 studentGrade.sol\":524:786  function CheckGradesByternary(uint score)public pure returns(bool,string memory){... */\n    tag_3:\n      tag_5\n      0x04\n      dup1\n      calldatasize\n      sub\n      dup2\n      add\n      swap1\n      tag_6\n      swap2\n      swap1\n      tag_7\n      jump\t// in\n    tag_6:\n      tag_8\n      jump\t// in\n    tag_5:\n      mload(0x40)\n      tag_9\n      swap3\n      swap2\n      swap1\n      tag_10\n      jump\t// in\n    tag_9:\n      mload(0x40)\n      dup1\n      swap2\n      sub\n      swap1\n      return\n        /* \"contracts/15-7 part 2 studentGrade.sol\":119:522  function marksCheck(uint score)public pure returns(bool,string memory){... */\n    tag_4:\n      tag_11\n      0x04\n      dup1\n      calldatasize\n      sub\n      dup2\n      add\n      swap1\n      tag_12\n      swap2\n      swap1\n      tag_7\n      jump\t// in\n    tag_12:\n      tag_13\n      jump\t// in\n    tag_11:\n      mload(0x40)\n      tag_14\n      swap3\n      swap2\n      swap1\n      tag_10\n      jump\t// in\n    tag_14:\n      mload(0x40)\n      dup1\n      swap2\n      sub\n      swap1\n      return\n        /* \"contracts/15-7 part 2 studentGrade.sol\":524:786  function CheckGradesByternary(uint score)public pure returns(bool,string memory){... */\n    tag_8:\n        /* \"contracts/15-7 part 2 studentGrade.sol\":585:589  bool */\n      0x00\n        /* \"contracts/15-7 part 2 studentGrade.sol\":590:603  string memory */\n      0x60\n        /* \"contracts/15-7 part 2 studentGrade.sol\":623:625  60 */\n      0x3c\n        /* \"contracts/15-7 part 2 studentGrade.sol\":616:621  score */\n      dup4\n        /* \"contracts/15-7 part 2 studentGrade.sol\":616:625  score>=60 */\n      lt\n      iszero\n        /* \"contracts/15-7 part 2 studentGrade.sol\":616:782  score>=60?score>=80&&score<=100?(true,\"Achieved Gade : A\"):(true,\"Achieved Gade : B\"):score>=40&&score<=59?(false,\"Achieved Gade : C\"):(false,\"Better Luck Next Time\") */\n      tag_16\n      jumpi\n        /* \"contracts/15-7 part 2 studentGrade.sol\":709:711  40 */\n      0x28\n        /* \"contracts/15-7 part 2 studentGrade.sol\":702:707  score */\n      dup4\n        /* \"contracts/15-7 part 2 studentGrade.sol\":702:711  score>=40 */\n      lt\n      iszero\n        /* \"contracts/15-7 part 2 studentGrade.sol\":702:722  score>=40&&score<=59 */\n      dup1\n      iszero\n      tag_17\n      jumpi\n      pop\n        /* \"contracts/15-7 part 2 studentGrade.sol\":720:722  59 */\n      0x3b\n        /* \"contracts/15-7 part 2 studentGrade.sol\":713:718  score */\n      dup4\n        /* \"contracts/15-7 part 2 studentGrade.sol\":713:722  score<=59 */\n      gt\n      iszero\n        /* \"contracts/15-7 part 2 studentGrade.sol\":702:722  score>=40&&score<=59 */\n    tag_17:\n        /* \"contracts/15-7 part 2 studentGrade.sol\":702:782  score>=40&&score<=59?(false,\"Achieved Gade : C\"):(false,\"Better Luck Next Time\") */\n      tag_18\n      jumpi\n        /* \"contracts/15-7 part 2 studentGrade.sol\":752:757  false */\n      0x00\n        /* \"contracts/15-7 part 2 studentGrade.sol\":702:782  score>=40&&score<=59?(false,\"Achieved Gade : C\"):(false,\"Better Luck Next Time\") */\n      mload(0x40)\n      dup1\n      0x40\n      add\n      0x40\n      mstore\n      dup1\n      0x15\n      dup2\n      mstore\n      0x20\n      add\n      0x426574746572204c75636b204e6578742054696d650000000000000000000000\n      dup2\n      mstore\n      pop\n      jump(tag_19)\n    tag_18:\n        /* \"contracts/15-7 part 2 studentGrade.sol\":724:729  false */\n      0x00\n        /* \"contracts/15-7 part 2 studentGrade.sol\":702:782  score>=40&&score<=59?(false,\"Achieved Gade : C\"):(false,\"Better Luck Next Time\") */\n      mload(0x40)\n      dup1\n      0x40\n      add\n      0x40\n      mstore\n      dup1\n      0x11\n      dup2\n      mstore\n      0x20\n      add\n      0x41636869657665642047616465203a2043000000000000000000000000000000\n      dup2\n      mstore\n      pop\n    tag_19:\n        /* \"contracts/15-7 part 2 studentGrade.sol\":616:782  score>=60?score>=80&&score<=100?(true,\"Achieved Gade : A\"):(true,\"Achieved Gade : B\"):score>=40&&score<=59?(false,\"Achieved Gade : C\"):(false,\"Better Luck Next Time\") */\n      jump(tag_20)\n    tag_16:\n        /* \"contracts/15-7 part 2 studentGrade.sol\":633:635  80 */\n      0x50\n        /* \"contracts/15-7 part 2 studentGrade.sol\":626:631  score */\n      dup4\n        /* \"contracts/15-7 part 2 studentGrade.sol\":626:635  score>=80 */\n      lt\n      iszero\n        /* \"contracts/15-7 part 2 studentGrade.sol\":626:647  score>=80&&score<=100 */\n      dup1\n      iszero\n      tag_21\n      jumpi\n      pop\n        /* \"contracts/15-7 part 2 studentGrade.sol\":644:647  100 */\n      0x64\n        /* \"contracts/15-7 part 2 studentGrade.sol\":637:642  score */\n      dup4\n        /* \"contracts/15-7 part 2 studentGrade.sol\":637:647  score<=100 */\n      gt\n      iszero\n        /* \"contracts/15-7 part 2 studentGrade.sol\":626:647  score>=80&&score<=100 */\n    tag_21:\n        /* \"contracts/15-7 part 2 studentGrade.sol\":626:701  score>=80&&score<=100?(true,\"Achieved Gade : A\"):(true,\"Achieved Gade : B\") */\n      tag_22\n      jumpi\n        /* \"contracts/15-7 part 2 studentGrade.sol\":676:680  true */\n      0x01\n        /* \"contracts/15-7 part 2 studentGrade.sol\":626:701  score>=80&&score<=100?(true,\"Achieved Gade : A\"):(true,\"Achieved Gade : B\") */\n      mload(0x40)\n      dup1\n      0x40\n      add\n      0x40\n      mstore\n      dup1\n      0x11\n      dup2\n      mstore\n      0x20\n      add\n      0x41636869657665642047616465203a2042000000000000000000000000000000\n      dup2\n      mstore\n      pop\n      jump(tag_23)\n    tag_22:\n        /* \"contracts/15-7 part 2 studentGrade.sol\":649:653  true */\n      0x01\n        /* \"contracts/15-7 part 2 studentGrade.sol\":626:701  score>=80&&score<=100?(true,\"Achieved Gade : A\"):(true,\"Achieved Gade : B\") */\n      mload(0x40)\n      dup1\n      0x40\n      add\n      0x40\n      mstore\n      dup1\n      0x11\n      dup2\n      mstore\n      0x20\n      add\n      0x41636869657665642047616465203a2041000000000000000000000000000000\n      dup2\n      mstore\n      pop\n    tag_23:\n        /* \"contracts/15-7 part 2 studentGrade.sol\":616:782  score>=60?score>=80&&score<=100?(true,\"Achieved Gade : A\"):(true,\"Achieved Gade : B\"):score>=40&&score<=59?(false,\"Achieved Gade : C\"):(false,\"Better Luck Next Time\") */\n    tag_20:\n        /* \"contracts/15-7 part 2 studentGrade.sol\":609:782  return score>=60?score>=80&&score<=100?(true,\"Achieved Gade : A\"):(true,\"Achieved Gade : B\"):score>=40&&score<=59?(false,\"Achieved Gade : C\"):(false,\"Better Luck Next Time\") */\n      swap2\n      pop\n      swap2\n      pop\n        /* \"contracts/15-7 part 2 studentGrade.sol\":524:786  function CheckGradesByternary(uint score)public pure returns(bool,string memory){... */\n      swap2\n      pop\n      swap2\n      jump\t// out\n        /* \"contracts/15-7 part 2 studentGrade.sol\":119:522  function marksCheck(uint score)public pure returns(bool,string memory){... */\n    tag_13:\n        /* \"contracts/15-7 part 2 studentGrade.sol\":170:174  bool */\n      0x00\n        /* \"contracts/15-7 part 2 studentGrade.sol\":175:188  string memory */\n      0x60\n        /* \"contracts/15-7 part 2 studentGrade.sol\":202:204  60 */\n      0x3c\n        /* \"contracts/15-7 part 2 studentGrade.sol\":195:200  score */\n      dup4\n        /* \"contracts/15-7 part 2 studentGrade.sol\":195:204  score>=60 */\n      lt\n        /* \"contracts/15-7 part 2 studentGrade.sol\":192:515  if(score>=60){... */\n      tag_25\n      jumpi\n        /* \"contracts/15-7 part 2 studentGrade.sol\":222:224  80 */\n      0x50\n        /* \"contracts/15-7 part 2 studentGrade.sol\":215:220  score */\n      dup4\n        /* \"contracts/15-7 part 2 studentGrade.sol\":215:224  score>=80 */\n      lt\n      iszero\n        /* \"contracts/15-7 part 2 studentGrade.sol\":215:236  score>=80&&score<=100 */\n      dup1\n      iszero\n      tag_26\n      jumpi\n      pop\n        /* \"contracts/15-7 part 2 studentGrade.sol\":233:236  100 */\n      0x64\n        /* \"contracts/15-7 part 2 studentGrade.sol\":226:231  score */\n      dup4\n        /* \"contracts/15-7 part 2 studentGrade.sol\":226:236  score<=100 */\n      gt\n      iszero\n        /* \"contracts/15-7 part 2 studentGrade.sol\":215:236  score>=80&&score<=100 */\n    tag_26:\n        /* \"contracts/15-7 part 2 studentGrade.sol\":212:351  if(score>=80&&score<=100){... */\n      iszero\n      tag_27\n      jumpi\n        /* \"contracts/15-7 part 2 studentGrade.sol\":256:260  true */\n      0x01\n        /* \"contracts/15-7 part 2 studentGrade.sol\":248:281  return (true,\"Achieved Gade : A\") */\n      mload(0x40)\n      dup1\n      0x40\n      add\n      0x40\n      mstore\n      dup1\n      0x11\n      dup2\n      mstore\n      0x20\n      add\n      0x41636869657665642047616465203a2041000000000000000000000000000000\n      dup2\n      mstore\n      pop\n      swap2\n      pop\n      swap2\n      pop\n      jump(tag_24)\n        /* \"contracts/15-7 part 2 studentGrade.sol\":212:351  if(score>=80&&score<=100){... */\n    tag_27:\n        /* \"contracts/15-7 part 2 studentGrade.sol\":318:322  true */\n      0x01\n        /* \"contracts/15-7 part 2 studentGrade.sol\":310:343  return (true,\"Achieved Gade : B\") */\n      mload(0x40)\n      dup1\n      0x40\n      add\n      0x40\n      mstore\n      dup1\n      0x11\n      dup2\n      mstore\n      0x20\n      add\n      0x41636869657665642047616465203a2042000000000000000000000000000000\n      dup2\n      mstore\n      pop\n      swap2\n      pop\n      swap2\n      pop\n      jump(tag_24)\n        /* \"contracts/15-7 part 2 studentGrade.sol\":192:515  if(score>=60){... */\n    tag_25:\n        /* \"contracts/15-7 part 2 studentGrade.sol\":378:380  40 */\n      0x28\n        /* \"contracts/15-7 part 2 studentGrade.sol\":371:376  score */\n      dup4\n        /* \"contracts/15-7 part 2 studentGrade.sol\":371:380  score>=40 */\n      lt\n      iszero\n        /* \"contracts/15-7 part 2 studentGrade.sol\":371:391  score>=40&&score<=59 */\n      dup1\n      iszero\n      tag_30\n      jumpi\n      pop\n        /* \"contracts/15-7 part 2 studentGrade.sol\":389:391  59 */\n      0x3b\n        /* \"contracts/15-7 part 2 studentGrade.sol\":382:387  score */\n      dup4\n        /* \"contracts/15-7 part 2 studentGrade.sol\":382:391  score<=59 */\n      gt\n      iszero\n        /* \"contracts/15-7 part 2 studentGrade.sol\":371:391  score>=40&&score<=59 */\n    tag_30:\n        /* \"contracts/15-7 part 2 studentGrade.sol\":368:512  if(score>=40&&score<=59){... */\n      iszero\n      tag_31\n      jumpi\n        /* \"contracts/15-7 part 2 studentGrade.sol\":411:416  false */\n      0x00\n        /* \"contracts/15-7 part 2 studentGrade.sol\":403:437  return (false,\"Achieved Gade : C\") */\n      mload(0x40)\n      dup1\n      0x40\n      add\n      0x40\n      mstore\n      dup1\n      0x11\n      dup2\n      mstore\n      0x20\n      add\n      0x41636869657665642047616465203a2043000000000000000000000000000000\n      dup2\n      mstore\n      pop\n      swap2\n      pop\n      swap2\n      pop\n      jump(tag_24)\n        /* \"contracts/15-7 part 2 studentGrade.sol\":368:512  if(score>=40&&score<=59){... */\n    tag_31:\n        /* \"contracts/15-7 part 2 studentGrade.sol\":474:479  false */\n      0x00\n        /* \"contracts/15-7 part 2 studentGrade.sol\":466:504  return (false,\"Better Luck Next Time\") */\n      mload(0x40)\n      dup1\n      0x40\n      add\n      0x40\n      mstore\n      dup1\n      0x15\n      dup2\n      mstore\n      0x20\n      add\n      0x426574746572204c75636b204e6578742054696d650000000000000000000000\n      dup2\n      mstore\n      pop\n      swap2\n      pop\n      swap2\n      pop\n        /* \"contracts/15-7 part 2 studentGrade.sol\":119:522  function marksCheck(uint score)public pure returns(bool,string memory){... */\n    tag_24:\n      swap2\n      pop\n      swap2\n      jump\t// out\n        /* \"#utility.yul\":88:205   */\n    tag_34:\n        /* \"#utility.yul\":197:198   */\n      0x00\n        /* \"#utility.yul\":194:195   */\n      dup1\n        /* \"#utility.yul\":187:199   */\n      revert\n        /* \"#utility.yul\":334:411   */\n    tag_36:\n        /* \"#utility.yul\":371:378   */\n      0x00\n        /* \"#utility.yul\":400:405   */\n      dup2\n        /* \"#utility.yul\":389:405   */\n      swap1\n      pop\n        /* \"#utility.yul\":334:411   */\n      swap2\n      swap1\n      pop\n      jump\t// out\n        /* \"#utility.yul\":417:539   */\n    tag_37:\n        /* \"#utility.yul\":490:514   */\n      tag_52\n        /* \"#utility.yul\":508:513   */\n      dup2\n        /* \"#utility.yul\":490:514   */\n      tag_36\n      jump\t// in\n    tag_52:\n        /* \"#utility.yul\":483:488   */\n      dup2\n        /* \"#utility.yul\":480:515   */\n      eq\n        /* \"#utility.yul\":470:533   */\n      tag_53\n      jumpi\n        /* \"#utility.yul\":529:530   */\n      0x00\n        /* \"#utility.yul\":526:527   */\n      dup1\n        /* \"#utility.yul\":519:531   */\n      revert\n        /* \"#utility.yul\":470:533   */\n    tag_53:\n        /* \"#utility.yul\":417:539   */\n      pop\n      jump\t// out\n        /* \"#utility.yul\":545:684   */\n    tag_38:\n        /* \"#utility.yul\":591:596   */\n      0x00\n        /* \"#utility.yul\":629:635   */\n      dup2\n        /* \"#utility.yul\":616:636   */\n      calldataload\n        /* \"#utility.yul\":607:636   */\n      swap1\n      pop\n        /* \"#utility.yul\":645:678   */\n      tag_55\n        /* \"#utility.yul\":672:677   */\n      dup2\n        /* \"#utility.yul\":645:678   */\n      tag_37\n      jump\t// in\n    tag_55:\n        /* \"#utility.yul\":545:684   */\n      swap3\n      swap2\n      pop\n      pop\n      jump\t// out\n        /* \"#utility.yul\":690:1019   */\n    tag_7:\n        /* \"#utility.yul\":749:755   */\n      0x00\n        /* \"#utility.yul\":798:800   */\n      0x20\n        /* \"#utility.yul\":786:795   */\n      dup3\n        /* \"#utility.yul\":777:784   */\n      dup5\n        /* \"#utility.yul\":773:796   */\n      sub\n        /* \"#utility.yul\":769:801   */\n      slt\n        /* \"#utility.yul\":766:885   */\n      iszero\n      tag_57\n      jumpi\n        /* \"#utility.yul\":804:883   */\n      tag_58\n      tag_34\n      jump\t// in\n    tag_58:\n        /* \"#utility.yul\":766:885   */\n    tag_57:\n        /* \"#utility.yul\":924:925   */\n      0x00\n        /* \"#utility.yul\":949:1002   */\n      tag_59\n        /* \"#utility.yul\":994:1001   */\n      dup5\n        /* \"#utility.yul\":985:991   */\n      dup3\n        /* \"#utility.yul\":974:983   */\n      dup6\n        /* \"#utility.yul\":970:992   */\n      add\n        /* \"#utility.yul\":949:1002   */\n      tag_38\n      jump\t// in\n    tag_59:\n        /* \"#utility.yul\":939:1002   */\n      swap2\n      pop\n        /* \"#utility.yul\":895:1012   */\n      pop\n        /* \"#utility.yul\":690:1019   */\n      swap3\n      swap2\n      pop\n      pop\n      jump\t// out\n        /* \"#utility.yul\":1025:1115   */\n    tag_39:\n        /* \"#utility.yul\":1059:1066   */\n      0x00\n        /* \"#utility.yul\":1102:1107   */\n      dup2\n        /* \"#utility.yul\":1095:1108   */\n      iszero\n        /* \"#utility.yul\":1088:1109   */\n      iszero\n        /* \"#utility.yul\":1077:1109   */\n      swap1\n      pop\n        /* \"#utility.yul\":1025:1115   */\n      swap2\n      swap1\n      pop\n      jump\t// out\n        /* \"#utility.yul\":1121:1230   */\n    tag_40:\n        /* \"#utility.yul\":1202:1223   */\n      tag_62\n        /* \"#utility.yul\":1217:1222   */\n      dup2\n        /* \"#utility.yul\":1202:1223   */\n      tag_39\n      jump\t// in\n    tag_62:\n        /* \"#utility.yul\":1197:1200   */\n      dup3\n        /* \"#utility.yul\":1190:1224   */\n      mstore\n        /* \"#utility.yul\":1121:1230   */\n      pop\n      pop\n      jump\t// out\n        /* \"#utility.yul\":1236:1335   */\n    tag_41:\n        /* \"#utility.yul\":1288:1294   */\n      0x00\n        /* \"#utility.yul\":1322:1327   */\n      dup2\n        /* \"#utility.yul\":1316:1328   */\n      mload\n        /* \"#utility.yul\":1306:1328   */\n      swap1\n      pop\n        /* \"#utility.yul\":1236:1335   */\n      swap2\n      swap1\n      pop\n      jump\t// out\n        /* \"#utility.yul\":1341:1510   */\n    tag_42:\n        /* \"#utility.yul\":1425:1436   */\n      0x00\n        /* \"#utility.yul\":1459:1465   */\n      dup3\n        /* \"#utility.yul\":1454:1457   */\n      dup3\n        /* \"#utility.yul\":1447:1466   */\n      mstore\n        /* \"#utility.yul\":1499:1503   */\n      0x20\n        /* \"#utility.yul\":1494:1497   */\n      dup3\n        /* \"#utility.yul\":1490:1504   */\n      add\n        /* \"#utility.yul\":1475:1504   */\n      swap1\n      pop\n        /* \"#utility.yul\":1341:1510   */\n      swap3\n      swap2\n      pop\n      pop\n      jump\t// out\n        /* \"#utility.yul\":1516:1762   */\n    tag_43:\n        /* \"#utility.yul\":1597:1598   */\n      0x00\n        /* \"#utility.yul\":1607:1720   */\n    tag_66:\n        /* \"#utility.yul\":1621:1627   */\n      dup4\n        /* \"#utility.yul\":1618:1619   */\n      dup2\n        /* \"#utility.yul\":1615:1628   */\n      lt\n        /* \"#utility.yul\":1607:1720   */\n      iszero\n      tag_68\n      jumpi\n        /* \"#utility.yul\":1706:1707   */\n      dup1\n        /* \"#utility.yul\":1701:1704   */\n      dup3\n        /* \"#utility.yul\":1697:1708   */\n      add\n        /* \"#utility.yul\":1691:1709   */\n      mload\n        /* \"#utility.yul\":1687:1688   */\n      dup2\n        /* \"#utility.yul\":1682:1685   */\n      dup5\n        /* \"#utility.yul\":1678:1689   */\n      add\n        /* \"#utility.yul\":1671:1710   */\n      mstore\n        /* \"#utility.yul\":1643:1645   */\n      0x20\n        /* \"#utility.yul\":1640:1641   */\n      dup2\n        /* \"#utility.yul\":1636:1646   */\n      add\n        /* \"#utility.yul\":1631:1646   */\n      swap1\n      pop\n        /* \"#utility.yul\":1607:1720   */\n      jump(tag_66)\n    tag_68:\n        /* \"#utility.yul\":1754:1755   */\n      0x00\n        /* \"#utility.yul\":1745:1751   */\n      dup5\n        /* \"#utility.yul\":1740:1743   */\n      dup5\n        /* \"#utility.yul\":1736:1752   */\n      add\n        /* \"#utility.yul\":1729:1756   */\n      mstore\n        /* \"#utility.yul\":1578:1762   */\n      pop\n        /* \"#utility.yul\":1516:1762   */\n      pop\n      pop\n      pop\n      jump\t// out\n        /* \"#utility.yul\":1768:1870   */\n    tag_44:\n        /* \"#utility.yul\":1809:1815   */\n      0x00\n        /* \"#utility.yul\":1860:1862   */\n      0x1f\n        /* \"#utility.yul\":1856:1863   */\n      not\n        /* \"#utility.yul\":1851:1853   */\n      0x1f\n        /* \"#utility.yul\":1844:1849   */\n      dup4\n        /* \"#utility.yul\":1840:1854   */\n      add\n        /* \"#utility.yul\":1836:1864   */\n      and\n        /* \"#utility.yul\":1826:1864   */\n      swap1\n      pop\n        /* \"#utility.yul\":1768:1870   */\n      swap2\n      swap1\n      pop\n      jump\t// out\n        /* \"#utility.yul\":1876:2253   */\n    tag_45:\n        /* \"#utility.yul\":1964:1967   */\n      0x00\n        /* \"#utility.yul\":1992:2031   */\n      tag_71\n        /* \"#utility.yul\":2025:2030   */\n      dup3\n        /* \"#utility.yul\":1992:2031   */\n      tag_41\n      jump\t// in\n    tag_71:\n        /* \"#utility.yul\":2047:2118   */\n      tag_72\n        /* \"#utility.yul\":2111:2117   */\n      dup2\n        /* \"#utility.yul\":2106:2109   */\n      dup6\n        /* \"#utility.yul\":2047:2118   */\n      tag_42\n      jump\t// in\n    tag_72:\n        /* \"#utility.yul\":2040:2118   */\n      swap4\n      pop\n        /* \"#utility.yul\":2127:2192   */\n      tag_73\n        /* \"#utility.yul\":2185:2191   */\n      dup2\n        /* \"#utility.yul\":2180:2183   */\n      dup6\n        /* \"#utility.yul\":2173:2177   */\n      0x20\n        /* \"#utility.yul\":2166:2171   */\n      dup7\n        /* \"#utility.yul\":2162:2178   */\n      add\n        /* \"#utility.yul\":2127:2192   */\n      tag_43\n      jump\t// in\n    tag_73:\n        /* \"#utility.yul\":2217:2246   */\n      tag_74\n        /* \"#utility.yul\":2239:2245   */\n      dup2\n        /* \"#utility.yul\":2217:2246   */\n      tag_44\n      jump\t// in\n    tag_74:\n        /* \"#utility.yul\":2212:2215   */\n      dup5\n        /* \"#utility.yul\":2208:2247   */\n      add\n        /* \"#utility.yul\":2201:2247   */\n      swap2\n      pop\n        /* \"#utility.yul\":1968:2253   */\n      pop\n        /* \"#utility.yul\":1876:2253   */\n      swap3\n      swap2\n      pop\n      pop\n      jump\t// out\n        /* \"#utility.yul\":2259:2670   */\n    tag_10:\n        /* \"#utility.yul\":2394:2398   */\n      0x00\n        /* \"#utility.yul\":2432:2434   */\n      0x40\n        /* \"#utility.yul\":2421:2430   */\n      dup3\n        /* \"#utility.yul\":2417:2435   */\n      add\n        /* \"#utility.yul\":2409:2435   */\n      swap1\n      pop\n        /* \"#utility.yul\":2445:2510   */\n      tag_76\n        /* \"#utility.yul\":2507:2508   */\n      0x00\n        /* \"#utility.yul\":2496:2505   */\n      dup4\n        /* \"#utility.yul\":2492:2509   */\n      add\n        /* \"#utility.yul\":2483:2489   */\n      dup6\n        /* \"#utility.yul\":2445:2510   */\n      tag_40\n      jump\t// in\n    tag_76:\n        /* \"#utility.yul\":2557:2566   */\n      dup2\n        /* \"#utility.yul\":2551:2555   */\n      dup2\n        /* \"#utility.yul\":2547:2567   */\n      sub\n        /* \"#utility.yul\":2542:2544   */\n      0x20\n        /* \"#utility.yul\":2531:2540   */\n      dup4\n        /* \"#utility.yul\":2527:2545   */\n      add\n        /* \"#utility.yul\":2520:2568   */\n      mstore\n        /* \"#utility.yul\":2585:2663   */\n      tag_77\n        /* \"#utility.yul\":2658:2662   */\n      dup2\n        /* \"#utility.yul\":2649:2655   */\n      dup5\n        /* \"#utility.yul\":2585:2663   */\n      tag_45\n      jump\t// in\n    tag_77:\n        /* \"#utility.yul\":2577:2663   */\n      swap1\n      pop\n        /* \"#utility.yul\":2259:2670   */\n      swap4\n      swap3\n      pop\n      pop\n      pop\n      jump\t// out\n\n    auxdata: 0xa26469706673582212209946fdf7e49a1464857673838e5e32c378a25e00fd5f6eb98e6785a22b76651264736f6c63430008110033\n}\n",
				"bytecode": {
					"linkReferences": {},
					"object": "608060405260016000806101000a81548160ff02191690831515021790555034801561002a57600080fd5b506104898061003a6000396000f3fe608060405234801561001057600080fd5b50600436106100365760003560e01c8063169623de1461003b578063fdb4013e1461006c575b600080fd5b6100556004803603810190610050919061034b565b61009d565b604051610063929190610423565b60405180910390f35b6100866004803603810190610081919061034b565b6101d1565b604051610094929190610423565b60405180910390f35b60006060603c83101561013b57602883101580156100bc5750603b8311155b6100fd5760006040518060400160405280601581526020017f426574746572204c75636b204e6578742054696d650000000000000000000000815250610136565b60006040518060400160405280601181526020017f41636869657665642047616465203a20430000000000000000000000000000008152505b6101c8565b6050831015801561014d575060648311155b61018e5760016040518060400160405280601181526020017f41636869657665642047616465203a20420000000000000000000000000000008152506101c7565b60016040518060400160405280601181526020017f41636869657665642047616465203a20410000000000000000000000000000008152505b5b91509150915091565b60006060603c831061027657605083101580156101ef575060648311155b156102355760016040518060400160405280601181526020017f41636869657665642047616465203a20410000000000000000000000000000008152509150915061030b565b60016040518060400160405280601181526020017f41636869657665642047616465203a20420000000000000000000000000000008152509150915061030b565b602883101580156102885750603b8311155b156102ce5760006040518060400160405280601181526020017f41636869657665642047616465203a20430000000000000000000000000000008152509150915061030b565b60006040518060400160405280601581526020017f426574746572204c75636b204e6578742054696d650000000000000000000000815250915091505b915091565b600080fd5b6000819050919050565b61032881610315565b811461033357600080fd5b50565b6000813590506103458161031f565b92915050565b60006020828403121561036157610360610310565b5b600061036f84828501610336565b91505092915050565b60008115159050919050565b61038d81610378565b82525050565b600081519050919050565b600082825260208201905092915050565b60005b838110156103cd5780820151818401526020810190506103b2565b60008484015250505050565b6000601f19601f8301169050919050565b60006103f582610393565b6103ff818561039e565b935061040f8185602086016103af565b610418816103d9565b840191505092915050565b60006040820190506104386000830185610384565b818103602083015261044a81846103ea565b9050939250505056fea26469706673582212209946fdf7e49a1464857673838e5e32c378a25e00fd5f6eb98e6785a22b76651264736f6c63430008110033",
					"opcodes": "PUSH1 0x80 PUSH1 0x40 MSTORE PUSH1 0x1 PUSH1 0x0 DUP1 PUSH2 0x100 EXP DUP2 SLOAD DUP2 PUSH1 0xFF MUL NOT AND SWAP1 DUP4 ISZERO ISZERO MUL OR SWAP1 SSTORE POP CALLVALUE DUP1 ISZERO PUSH2 0x2A JUMPI PUSH1 0x0 DUP1 REVERT JUMPDEST POP PUSH2 0x489 DUP1 PUSH2 0x3A PUSH1 0x0 CODECOPY PUSH1 0x0 RETURN INVALID PUSH1 0x80 PUSH1 0x40 MSTORE CALLVALUE DUP1 ISZERO PUSH2 0x10 JUMPI PUSH1 0x0 DUP1 REVERT JUMPDEST POP PUSH1 0x4 CALLDATASIZE LT PUSH2 0x36 JUMPI PUSH1 0x0 CALLDATALOAD PUSH1 0xE0 SHR DUP1 PUSH4 0x169623DE EQ PUSH2 0x3B JUMPI DUP1 PUSH4 0xFDB4013E EQ PUSH2 0x6C JUMPI JUMPDEST PUSH1 0x0 DUP1 REVERT JUMPDEST PUSH2 0x55 PUSH1 0x4 DUP1 CALLDATASIZE SUB DUP2 ADD SWAP1 PUSH2 0x50 SWAP2 SWAP1 PUSH2 0x34B JUMP JUMPDEST PUSH2 0x9D JUMP JUMPDEST PUSH1 0x40 MLOAD PUSH2 0x63 SWAP3 SWAP2 SWAP1 PUSH2 0x423 JUMP JUMPDEST PUSH1 0x40 MLOAD DUP1 SWAP2 SUB SWAP1 RETURN JUMPDEST PUSH2 0x86 PUSH1 0x4 DUP1 CALLDATASIZE SUB DUP2 ADD SWAP1 PUSH2 0x81 SWAP2 SWAP1 PUSH2 0x34B JUMP JUMPDEST PUSH2 0x1D1 JUMP JUMPDEST PUSH1 0x40 MLOAD PUSH2 0x94 SWAP3 SWAP2 SWAP1 PUSH2 0x423 JUMP JUMPDEST PUSH1 0x40 MLOAD DUP1 SWAP2 SUB SWAP1 RETURN JUMPDEST PUSH1 0x0 PUSH1 0x60 PUSH1 0x3C DUP4 LT ISZERO PUSH2 0x13B JUMPI PUSH1 0x28 DUP4 LT ISZERO DUP1 ISZERO PUSH2 0xBC JUMPI POP PUSH1 0x3B DUP4 GT ISZERO JUMPDEST PUSH2 0xFD JUMPI PUSH1 0x0 PUSH1 0x40 MLOAD DUP1 PUSH1 0x40 ADD PUSH1 0x40 MSTORE DUP1 PUSH1 0x15 DUP2 MSTORE PUSH1 0x20 ADD PUSH32 0x426574746572204C75636B204E6578742054696D650000000000000000000000 DUP2 MSTORE POP PUSH2 0x136 JUMP JUMPDEST PUSH1 0x0 PUSH1 0x40 MLOAD DUP1 PUSH1 0x40 ADD PUSH1 0x40 MSTORE DUP1 PUSH1 0x11 DUP2 MSTORE PUSH1 0x20 ADD PUSH32 0x41636869657665642047616465203A2043000000000000000000000000000000 DUP2 MSTORE POP JUMPDEST PUSH2 0x1C8 JUMP JUMPDEST PUSH1 0x50 DUP4 LT ISZERO DUP1 ISZERO PUSH2 0x14D JUMPI POP PUSH1 0x64 DUP4 GT ISZERO JUMPDEST PUSH2 0x18E JUMPI PUSH1 0x1 PUSH1 0x40 MLOAD DUP1 PUSH1 0x40 ADD PUSH1 0x40 MSTORE DUP1 PUSH1 0x11 DUP2 MSTORE PUSH1 0x20 ADD PUSH32 0x41636869657665642047616465203A2042000000000000000000000000000000 DUP2 MSTORE POP PUSH2 0x1C7 JUMP JUMPDEST PUSH1 0x1 PUSH1 0x40 MLOAD DUP1 PUSH1 0x40 ADD PUSH1 0x40 MSTORE DUP1 PUSH1 0x11 DUP2 MSTORE PUSH1 0x20 ADD PUSH32 0x41636869657665642047616465203A2041000000000000000000000000000000 DUP2 MSTORE POP JUMPDEST JUMPDEST SWAP2 POP SWAP2 POP SWAP2 POP SWAP2 JUMP JUMPDEST PUSH1 0x0 PUSH1 0x60 PUSH1 0x3C DUP4 LT PUSH2 0x276 JUMPI PUSH1 0x50 DUP4 LT ISZERO DUP1 ISZERO PUSH2 0x1EF JUMPI POP PUSH1 0x64 DUP4 GT ISZERO JUMPDEST ISZERO PUSH2 0x235 JUMPI PUSH1 0x1 PUSH1 0x40 MLOAD DUP1 PUSH1 0x40 ADD PUSH1 0x40 MSTORE DUP1 PUSH1 0x11 DUP2 MSTORE PUSH1 0x20 ADD PUSH32 0x41636869657665642047616465203A2041000000000000000000000000000000 DUP2 MSTORE POP SWAP2 POP SWAP2 POP PUSH2 0x30B JUMP JUMPDEST PUSH1 0x1 PUSH1 0x40 MLOAD DUP1 PUSH1 0x40 ADD PUSH1 0x40 MSTORE DUP1 PUSH1 0x11 DUP2 MSTORE PUSH1 0x20 ADD PUSH32 0x41636869657665642047616465203A2042000000000000000000000000000000 DUP2 MSTORE POP SWAP2 POP SWAP2 POP PUSH2 0x30B JUMP JUMPDEST PUSH1 0x28 DUP4 LT ISZERO DUP1 ISZERO PUSH2 0x288 JUMPI POP PUSH1 0x3B DUP4 GT ISZERO JUMPDEST ISZERO PUSH2 0x2CE JUMPI PUSH1 0x0 PUSH1 0x40 MLOAD DUP1 PUSH1 0x40 ADD PUSH1 0x40 MSTORE DUP1 PUSH1 0x11 DUP2 MSTORE PUSH1 0x20 ADD PUSH32 0x41636869657665642047616465203A2043000000000000000000000000000000 DUP2 MSTORE POP SWAP2 POP SWAP2 POP PUSH2 0x30B JUMP JUMPDEST PUSH1 0x0 PUSH1 0x40 MLOAD DUP1 PUSH1 0x40 ADD PUSH1 0x40 MSTORE DUP1 PUSH1 0x15 DUP2 MSTORE PUSH1 0x20 ADD PUSH32 0x426574746572204C75636B204E6578742054696D650000000000000000000000 DUP2 MSTORE POP SWAP2 POP SWAP2 POP JUMPDEST SWAP2 POP SWAP2 JUMP JUMPDEST PUSH1 0x0 DUP1 REVERT JUMPDEST PUSH1 0x0 DUP2 SWAP1 POP SWAP2 SWAP1 POP JUMP JUMPDEST PUSH2 0x328 DUP2 PUSH2 0x315 JUMP JUMPDEST DUP2 EQ PUSH2 0x333 JUMPI PUSH1 0x0 DUP1 REVERT JUMPDEST POP JUMP JUMPDEST PUSH1 0x0 DUP2 CALLDATALOAD SWAP1 POP PUSH2 0x345 DUP2 PUSH2 0x31F JUMP JUMPDEST SWAP3 SWAP2 POP POP JUMP JUMPDEST PUSH1 0x0 PUSH1 0x20 DUP3 DUP5 SUB SLT ISZERO PUSH2 0x361 JUMPI PUSH2 0x360 PUSH2 0x310 JUMP JUMPDEST JUMPDEST PUSH1 0x0 PUSH2 0x36F DUP5 DUP3 DUP6 ADD PUSH2 0x336 JUMP JUMPDEST SWAP2 POP POP SWAP3 SWAP2 POP POP JUMP JUMPDEST PUSH1 0x0 DUP2 ISZERO ISZERO SWAP1 POP SWAP2 SWAP1 POP JUMP JUMPDEST PUSH2 0x38D DUP2 PUSH2 0x378 JUMP JUMPDEST DUP3 MSTORE POP POP JUMP JUMPDEST PUSH1 0x0 DUP2 MLOAD SWAP1 POP SWAP2 SWAP1 POP JUMP JUMPDEST PUSH1 0x0 DUP3 DUP3 MSTORE PUSH1 0x20 DUP3 ADD SWAP1 POP SWAP3 SWAP2 POP POP JUMP JUMPDEST PUSH1 0x0 JUMPDEST DUP4 DUP2 LT ISZERO PUSH2 0x3CD JUMPI DUP1 DUP3 ADD MLOAD DUP2 DUP5 ADD MSTORE PUSH1 0x20 DUP2 ADD SWAP1 POP PUSH2 0x3B2 JUMP JUMPDEST PUSH1 0x0 DUP5 DUP5 ADD MSTORE POP POP POP POP JUMP JUMPDEST PUSH1 0x0 PUSH1 0x1F NOT PUSH1 0x1F DUP4 ADD AND SWAP1 POP SWAP2 SWAP1 POP JUMP JUMPDEST PUSH1 0x0 PUSH2 0x3F5 DUP3 PUSH2 0x393 JUMP JUMPDEST PUSH2 0x3FF DUP2 DUP6 PUSH2 0x39E JUMP JUMPDEST SWAP4 POP PUSH2 0x40F DUP2 DUP6 PUSH1 0x20 DUP7 ADD PUSH2 0x3AF JUMP JUMPDEST PUSH2 0x418 DUP2 PUSH2 0x3D9 JUMP JUMPDEST DUP5 ADD SWAP2 POP POP SWAP3 SWAP2 POP POP JUMP JUMPDEST PUSH1 0x0 PUSH1 0x40 DUP3 ADD SWAP1 POP PUSH2 0x438 PUSH1 0x0 DUP4 ADD DUP6 PUSH2 0x384 JUMP JUMPDEST DUP2 DUP2 SUB PUSH1 0x20 DUP4 ADD MSTORE PUSH2 0x44A DUP2 DUP5 PUSH2 0x3EA JUMP JUMPDEST SWAP1 POP SWAP4 SWAP3 POP POP POP JUMP INVALID LOG2 PUSH5 0x6970667358 0x22 SLT KECCAK256 SWAP10 CHAINID REVERT 0xF7 0xE4 SWAP11 EQ PUSH5 0x857673838E 0x5E ORIGIN 0xC3 PUSH25 0xA25E00FD5F6EB98E6785A22B76651264736F6C634300081100 CALLER "
				},
				"gasEstimates": {
					"creation": {
						"codeDepositCost": "232200",
						"executionCost": "24542",
						"totalCost": "256742"
					},
					"external": {
						"CheckGradesByternary(uint256)": "infinite",
						"marksCheck(uint256)": "infinite"
					}
				},
				"methodIdentifiers": {
					"CheckGradesByternary(uint256)": "169623de",
					"marksCheck(uint256)": "fdb4013e"
				}
			},
			"storageLayout": {
				"storage": [
					{
						"astId": 4,
						"contract": "contracts/15-7 part 2 studentGrade.sol:StudentMarksChecker",
						"label": "condition",
						"offset": 0,
						"slot": "0",
						"type": "t_bool"
					}
				],
				"types": {
					"t_bool": {
						"encoding": "inplace",
						"label": "bool",
						"numberOfBytes": "1"
					}
				}
			},
			"userdoc": {
				"kind": "user",
				"methods": {},
				"version": 1
			}
		}
	}
}