{
	"contracts/08-8 StudentRegistrationSystem.sol": {
		"StudentManagement": {
			"abi": [
				{
					"inputs": [
						{
							"internalType": "enum Department",
							"name": "",
							"type": "uint8"
						}
					],
					"name": "departmentCounts",
					"outputs": [
						{
							"internalType": "uint256",
							"name": "",
							"type": "uint256"
						}
					],
					"stateMutability": "view",
					"type": "function"
				},
				{
					"inputs": [],
					"name": "getDepartmentStudentCount",
					"outputs": [
						{
							"internalType": "uint256",
							"name": "Ai",
							"type": "uint256"
						},
						{
							"internalType": "uint256",
							"name": "blockchain",
							"type": "uint256"
						},
						{
							"internalType": "uint256",
							"name": "ecommerce",
							"type": "uint256"
						},
						{
							"internalType": "uint256",
							"name": "arts",
							"type": "uint256"
						}
					],
					"stateMutability": "view",
					"type": "function"
				},
				{
					"inputs": [],
					"name": "getTopThreeStudents",
					"outputs": [
						{
							"components": [
								{
									"internalType": "string",
									"name": "studentName",
									"type": "string"
								},
								{
									"internalType": "uint256",
									"name": "studentAge",
									"type": "uint256"
								},
								{
									"internalType": "uint256",
									"name": "registrationDate",
									"type": "uint256"
								},
								{
									"internalType": "enum Department",
									"name": "studentDepartment",
									"type": "uint8"
								},
								{
									"internalType": "enum Status",
									"name": "studentStatus",
									"type": "uint8"
								},
								{
									"internalType": "uint256",
									"name": "obtainedMarks",
									"type": "uint256"
								}
							],
							"internalType": "struct Student",
							"name": "",
							"type": "tuple"
						},
						{
							"components": [
								{
									"internalType": "string",
									"name": "studentName",
									"type": "string"
								},
								{
									"internalType": "uint256",
									"name": "studentAge",
									"type": "uint256"
								},
								{
									"internalType": "uint256",
									"name": "registrationDate",
									"type": "uint256"
								},
								{
									"internalType": "enum Department",
									"name": "studentDepartment",
									"type": "uint8"
								},
								{
									"internalType": "enum Status",
									"name": "studentStatus",
									"type": "uint8"
								},
								{
									"internalType": "uint256",
									"name": "obtainedMarks",
									"type": "uint256"
								}
							],
							"internalType": "struct Student",
							"name": "",
							"type": "tuple"
						},
						{
							"components": [
								{
									"internalType": "string",
									"name": "studentName",
									"type": "string"
								},
								{
									"internalType": "uint256",
									"name": "studentAge",
									"type": "uint256"
								},
								{
									"internalType": "uint256",
									"name": "registrationDate",
									"type": "uint256"
								},
								{
									"internalType": "enum Department",
									"name": "studentDepartment",
									"type": "uint8"
								},
								{
									"internalType": "enum Status",
									"name": "studentStatus",
									"type": "uint8"
								},
								{
									"internalType": "uint256",
									"name": "obtainedMarks",
									"type": "uint256"
								}
							],
							"internalType": "struct Student",
							"name": "",
							"type": "tuple"
						}
					],
					"stateMutability": "view",
					"type": "function"
				},
				{
					"inputs": [
						{
							"internalType": "uint256",
							"name": "rollNo",
							"type": "uint256"
						},
						{
							"internalType": "string",
							"name": "_name",
							"type": "string"
						},
						{
							"internalType": "uint256",
							"name": "_age",
							"type": "uint256"
						},
						{
							"internalType": "uint256",
							"name": "_regDate",
							"type": "uint256"
						},
						{
							"internalType": "enum Department",
							"name": "_department",
							"type": "uint8"
						},
						{
							"internalType": "enum Status",
							"name": "_status",
							"type": "uint8"
						},
						{
							"internalType": "uint256",
							"name": "_marks",
							"type": "uint256"
						}
					],
					"name": "registerStudent",
					"outputs": [],
					"stateMutability": "nonpayable",
					"type": "function"
				},
				{
					"inputs": [
						{
							"internalType": "uint256",
							"name": "rollNo",
							"type": "uint256"
						}
					],
					"name": "retrieveDetail",
					"outputs": [
						{
							"components": [
								{
									"internalType": "string",
									"name": "studentName",
									"type": "string"
								},
								{
									"internalType": "uint256",
									"name": "studentAge",
									"type": "uint256"
								},
								{
									"internalType": "uint256",
									"name": "registrationDate",
									"type": "uint256"
								},
								{
									"internalType": "enum Department",
									"name": "studentDepartment",
									"type": "uint8"
								},
								{
									"internalType": "enum Status",
									"name": "studentStatus",
									"type": "uint8"
								},
								{
									"internalType": "uint256",
									"name": "obtainedMarks",
									"type": "uint256"
								}
							],
							"internalType": "struct Student",
							"name": "",
							"type": "tuple"
						}
					],
					"stateMutability": "view",
					"type": "function"
				},
				{
					"inputs": [
						{
							"internalType": "uint256",
							"name": "",
							"type": "uint256"
						}
					],
					"name": "studentMap",
					"outputs": [
						{
							"internalType": "string",
							"name": "studentName",
							"type": "string"
						},
						{
							"internalType": "uint256",
							"name": "studentAge",
							"type": "uint256"
						},
						{
							"internalType": "uint256",
							"name": "registrationDate",
							"type": "uint256"
						},
						{
							"internalType": "enum Department",
							"name": "studentDepartment",
							"type": "uint8"
						},
						{
							"internalType": "enum Status",
							"name": "studentStatus",
							"type": "uint8"
						},
						{
							"internalType": "uint256",
							"name": "obtainedMarks",
							"type": "uint256"
						}
					],
					"stateMutability": "view",
					"type": "function"
				},
				{
					"inputs": [],
					"name": "totalStudents",
					"outputs": [
						{
							"internalType": "uint256",
							"name": "",
							"type": "uint256"
						}
					],
					"stateMutability": "view",
					"type": "function"
				},
				{
					"inputs": [
						{
							"internalType": "uint256",
							"name": "rollNo",
							"type": "uint256"
						},
						{
							"internalType": "string",
							"name": "_name",
							"type": "string"
						},
						{
							"internalType": "uint256",
							"name": "_age",
							"type": "uint256"
						},
						{
							"internalType": "enum Department",
							"name": "_department",
							"type": "uint8"
						},
						{
							"internalType": "enum Status",
							"name": "_status",
							"type": "uint8"
						},
						{
							"internalType": "uint256",
							"name": "_marks",
							"type": "uint256"
						}
					],
					"name": "updateStudentDetails",
					"outputs": [],
					"stateMutability": "nonpayable",
					"type": "function"
				}
			],
			"devdoc": {
				"kind": "dev",
				"methods": {},
				"version": 1
			},
			"evm": {
				"assembly": "    /* \"contracts/08-8 StudentRegistrationSystem.sol\":381:2641  contract StudentManagement {... */\n  mstore(0x40, 0x80)\n    /* \"contracts/08-8 StudentRegistrationSystem.sol\":554:555  0 */\n  0x00\n    /* \"contracts/08-8 StudentRegistrationSystem.sol\":526:555  uint public totalStudents = 0 */\n  0x02\n  sstore\n    /* \"contracts/08-8 StudentRegistrationSystem.sol\":381:2641  contract StudentManagement {... */\n  callvalue\n  dup1\n  iszero\n  tag_1\n  jumpi\n  0x00\n  dup1\n  revert\ntag_1:\n  pop\n  dataSize(sub_0)\n  dup1\n  dataOffset(sub_0)\n  0x00\n  codecopy\n  0x00\n  return\nstop\n\nsub_0: assembly {\n        /* \"contracts/08-8 StudentRegistrationSystem.sol\":381:2641  contract StudentManagement {... */\n      mstore(0x40, 0x80)\n      callvalue\n      dup1\n      iszero\n      tag_1\n      jumpi\n      0x00\n      dup1\n      revert\n    tag_1:\n      pop\n      jumpi(tag_2, lt(calldatasize, 0x04))\n      shr(0xe0, calldataload(0x00))\n      dup1\n      0x7e99b5a6\n      gt\n      tag_11\n      jumpi\n      dup1\n      0x7e99b5a6\n      eq\n      tag_7\n      jumpi\n      dup1\n      0x9852bf8e\n      eq\n      tag_8\n      jumpi\n      dup1\n      0xc9f7aae9\n      eq\n      tag_9\n      jumpi\n      dup1\n      0xceea3c78\n      eq\n      tag_10\n      jumpi\n      jump(tag_2)\n    tag_11:\n      dup1\n      0x1641f090\n      eq\n      tag_3\n      jumpi\n      dup1\n      0x1ea7b510\n      eq\n      tag_4\n      jumpi\n      dup1\n      0x39aabbbb\n      eq\n      tag_5\n      jumpi\n      dup1\n      0x611f9995\n      eq\n      tag_6\n      jumpi\n    tag_2:\n      0x00\n      dup1\n      revert\n        /* \"contracts/08-8 StudentRegistrationSystem.sol\":1402:1520  function retrieveDetail(uint rollNo) public view returns (Student memory) {... */\n    tag_3:\n      tag_12\n      0x04\n      dup1\n      calldatasize\n      sub\n      dup2\n      add\n      swap1\n      tag_13\n      swap2\n      swap1\n      tag_14\n      jump\t// in\n    tag_13:\n      tag_15\n      jump\t// in\n    tag_12:\n      mload(0x40)\n      tag_16\n      swap2\n      swap1\n      tag_17\n      jump\t// in\n    tag_16:\n      mload(0x40)\n      dup1\n      swap2\n      sub\n      swap1\n      return\n        /* \"contracts/08-8 StudentRegistrationSystem.sol\":564:981  function registerStudent(uint rollNo, string memory _name, uint _age, uint _regDate, Department _department, Status _status, uint _marks) public {... */\n    tag_4:\n      tag_18\n      0x04\n      dup1\n      calldatasize\n      sub\n      dup2\n      add\n      swap1\n      tag_19\n      swap2\n      swap1\n      tag_20\n      jump\t// in\n    tag_19:\n      tag_21\n      jump\t// in\n    tag_18:\n      stop\n        /* \"contracts/08-8 StudentRegistrationSystem.sol\":466:517  mapping(Department => uint) public departmentCounts */\n    tag_5:\n      tag_22\n      0x04\n      dup1\n      calldatasize\n      sub\n      dup2\n      add\n      swap1\n      tag_23\n      swap2\n      swap1\n      tag_24\n      jump\t// in\n    tag_23:\n      tag_25\n      jump\t// in\n    tag_22:\n      mload(0x40)\n      tag_26\n      swap2\n      swap1\n      tag_27\n      jump\t// in\n    tag_26:\n      mload(0x40)\n      dup1\n      swap2\n      sub\n      swap1\n      return\n        /* \"contracts/08-8 StudentRegistrationSystem.sol\":1874:2636  function getTopThreeStudents() public view returns (Student memory, Student memory, Student memory) {... */\n    tag_6:\n      tag_28\n      tag_29\n      jump\t// in\n    tag_28:\n      mload(0x40)\n      tag_30\n      swap4\n      swap3\n      swap2\n      swap1\n      tag_31\n      jump\t// in\n    tag_30:\n      mload(0x40)\n      dup1\n      swap2\n      sub\n      swap1\n      return\n        /* \"contracts/08-8 StudentRegistrationSystem.sol\":989:1394  function updateStudentDetails(uint rollNo, string memory _name, uint _age, Department _department, Status _status, uint _marks) public {... */\n    tag_7:\n      tag_32\n      0x04\n      dup1\n      calldatasize\n      sub\n      dup2\n      add\n      swap1\n      tag_33\n      swap2\n      swap1\n      tag_34\n      jump\t// in\n    tag_33:\n      tag_35\n      jump\t// in\n    tag_32:\n      stop\n        /* \"contracts/08-8 StudentRegistrationSystem.sol\":526:555  uint public totalStudents = 0 */\n    tag_8:\n      tag_36\n      tag_37\n      jump\t// in\n    tag_36:\n      mload(0x40)\n      tag_38\n      swap2\n      swap1\n      tag_27\n      jump\t// in\n    tag_38:\n      mload(0x40)\n      dup1\n      swap2\n      sub\n      swap1\n      return\n        /* \"contracts/08-8 StudentRegistrationSystem.sol\":1528:1868  function getDepartmentStudentCount() public view returns (uint Ai,uint blockchain,uint ecommerce,uint arts) {... */\n    tag_9:\n      tag_39\n      tag_40\n      jump\t// in\n    tag_39:\n      mload(0x40)\n      tag_41\n      swap5\n      swap4\n      swap3\n      swap2\n      swap1\n      tag_42\n      jump\t// in\n    tag_41:\n      mload(0x40)\n      dup1\n      swap2\n      sub\n      swap1\n      return\n        /* \"contracts/08-8 StudentRegistrationSystem.sol\":417:459  mapping(uint => Student) public studentMap */\n    tag_10:\n      tag_43\n      0x04\n      dup1\n      calldatasize\n      sub\n      dup2\n      add\n      swap1\n      tag_44\n      swap2\n      swap1\n      tag_14\n      jump\t// in\n    tag_44:\n      tag_45\n      jump\t// in\n    tag_43:\n      mload(0x40)\n      tag_46\n      swap7\n      swap6\n      swap5\n      swap4\n      swap3\n      swap2\n      swap1\n      tag_47\n      jump\t// in\n    tag_46:\n      mload(0x40)\n      dup1\n      swap2\n      sub\n      swap1\n      return\n        /* \"contracts/08-8 StudentRegistrationSystem.sol\":1402:1520  function retrieveDetail(uint rollNo) public view returns (Student memory) {... */\n    tag_15:\n        /* \"contracts/08-8 StudentRegistrationSystem.sol\":1460:1474  Student memory */\n      tag_48\n      tag_49\n      jump\t// in\n    tag_48:\n        /* \"contracts/08-8 StudentRegistrationSystem.sol\":1494:1504  studentMap */\n      0x00\n        /* \"contracts/08-8 StudentRegistrationSystem.sol\":1494:1512  studentMap[rollNo] */\n      dup1\n        /* \"contracts/08-8 StudentRegistrationSystem.sol\":1505:1511  rollNo */\n      dup4\n        /* \"contracts/08-8 StudentRegistrationSystem.sol\":1494:1512  studentMap[rollNo] */\n      dup2\n      mstore\n      0x20\n      add\n      swap1\n      dup2\n      mstore\n      0x20\n      add\n      0x00\n      keccak256\n        /* \"contracts/08-8 StudentRegistrationSystem.sol\":1487:1512  return studentMap[rollNo] */\n      mload(0x40)\n      dup1\n      0xc0\n      add\n      0x40\n      mstore\n      swap1\n      dup2\n      0x00\n      dup3\n      add\n      dup1\n      sload\n      tag_51\n      swap1\n      tag_52\n      jump\t// in\n    tag_51:\n      dup1\n      0x1f\n      add\n      0x20\n      dup1\n      swap2\n      div\n      mul\n      0x20\n      add\n      mload(0x40)\n      swap1\n      dup2\n      add\n      0x40\n      mstore\n      dup1\n      swap3\n      swap2\n      swap1\n      dup2\n      dup2\n      mstore\n      0x20\n      add\n      dup3\n      dup1\n      sload\n      tag_53\n      swap1\n      tag_52\n      jump\t// in\n    tag_53:\n      dup1\n      iszero\n      tag_54\n      jumpi\n      dup1\n      0x1f\n      lt\n      tag_55\n      jumpi\n      0x0100\n      dup1\n      dup4\n      sload\n      div\n      mul\n      dup4\n      mstore\n      swap2\n      0x20\n      add\n      swap2\n      jump(tag_54)\n    tag_55:\n      dup3\n      add\n      swap2\n      swap1\n      0x00\n      mstore\n      keccak256(0x00, 0x20)\n      swap1\n    tag_56:\n      dup2\n      sload\n      dup2\n      mstore\n      swap1\n      0x01\n      add\n      swap1\n      0x20\n      add\n      dup1\n      dup4\n      gt\n      tag_56\n      jumpi\n      dup3\n      swap1\n      sub\n      0x1f\n      and\n      dup3\n      add\n      swap2\n    tag_54:\n      pop\n      pop\n      pop\n      pop\n      pop\n      dup2\n      mstore\n      0x20\n      add\n      0x01\n      dup3\n      add\n      sload\n      dup2\n      mstore\n      0x20\n      add\n      0x02\n      dup3\n      add\n      sload\n      dup2\n      mstore\n      0x20\n      add\n      0x03\n      dup3\n      add\n      0x00\n      swap1\n      sload\n      swap1\n      0x0100\n      exp\n      swap1\n      div\n      0xff\n      and\n      0x03\n      dup2\n      gt\n      iszero\n      tag_57\n      jumpi\n      tag_58\n      tag_59\n      jump\t// in\n    tag_58:\n    tag_57:\n      0x03\n      dup2\n      gt\n      iszero\n      tag_60\n      jumpi\n      tag_61\n      tag_59\n      jump\t// in\n    tag_61:\n    tag_60:\n      dup2\n      mstore\n      0x20\n      add\n      0x03\n      dup3\n      add\n      0x01\n      swap1\n      sload\n      swap1\n      0x0100\n      exp\n      swap1\n      div\n      0xff\n      and\n      0x03\n      dup2\n      gt\n      iszero\n      tag_62\n      jumpi\n      tag_63\n      tag_59\n      jump\t// in\n    tag_63:\n    tag_62:\n      0x03\n      dup2\n      gt\n      iszero\n      tag_64\n      jumpi\n      tag_65\n      tag_59\n      jump\t// in\n    tag_65:\n    tag_64:\n      dup2\n      mstore\n      0x20\n      add\n      0x04\n      dup3\n      add\n      sload\n      dup2\n      mstore\n      pop\n      pop\n      swap1\n      pop\n        /* \"contracts/08-8 StudentRegistrationSystem.sol\":1402:1520  function retrieveDetail(uint rollNo) public view returns (Student memory) {... */\n      swap2\n      swap1\n      pop\n      jump\t// out\n        /* \"contracts/08-8 StudentRegistrationSystem.sol\":564:981  function registerStudent(uint rollNo, string memory _name, uint _age, uint _regDate, Department _department, Status _status, uint _marks) public {... */\n    tag_21:\n        /* \"contracts/08-8 StudentRegistrationSystem.sol\":735:753  Status.NotEnrolled */\n      0x01\n        /* \"contracts/08-8 StudentRegistrationSystem.sol\":724:753  _status == Status.NotEnrolled */\n      0x03\n      dup2\n      gt\n      iszero\n      tag_67\n      jumpi\n      tag_68\n      tag_59\n      jump\t// in\n    tag_68:\n    tag_67:\n        /* \"contracts/08-8 StudentRegistrationSystem.sol\":724:731  _status */\n      dup3\n        /* \"contracts/08-8 StudentRegistrationSystem.sol\":724:753  _status == Status.NotEnrolled */\n      0x03\n      dup2\n      gt\n      iszero\n      tag_69\n      jumpi\n      tag_70\n      tag_59\n      jump\t// in\n    tag_70:\n    tag_69:\n      eq\n        /* \"contracts/08-8 StudentRegistrationSystem.sol\":724:783  _status == Status.NotEnrolled || _status == Status.Expelled */\n      dup1\n      tag_71\n      jumpi\n      pop\n        /* \"contracts/08-8 StudentRegistrationSystem.sol\":768:783  Status.Expelled */\n      0x03\n        /* \"contracts/08-8 StudentRegistrationSystem.sol\":757:783  _status == Status.Expelled */\n      dup1\n      dup2\n      gt\n      iszero\n      tag_72\n      jumpi\n      tag_73\n      tag_59\n      jump\t// in\n    tag_73:\n    tag_72:\n        /* \"contracts/08-8 StudentRegistrationSystem.sol\":757:764  _status */\n      dup3\n        /* \"contracts/08-8 StudentRegistrationSystem.sol\":757:783  _status == Status.Expelled */\n      0x03\n      dup2\n      gt\n      iszero\n      tag_74\n      jumpi\n      tag_75\n      tag_59\n      jump\t// in\n    tag_75:\n    tag_74:\n      eq\n        /* \"contracts/08-8 StudentRegistrationSystem.sol\":724:783  _status == Status.NotEnrolled || _status == Status.Expelled */\n    tag_71:\n        /* \"contracts/08-8 StudentRegistrationSystem.sol\":720:814  if (_status == Status.NotEnrolled || _status == Status.Expelled) {... */\n      iszero\n      tag_76\n      jumpi\n        /* \"contracts/08-8 StudentRegistrationSystem.sol\":805:806  0 */\n      0x00\n        /* \"contracts/08-8 StudentRegistrationSystem.sol\":796:806  _marks = 0 */\n      swap1\n      pop\n        /* \"contracts/08-8 StudentRegistrationSystem.sol\":720:814  if (_status == Status.NotEnrolled || _status == Status.Expelled) {... */\n    tag_76:\n        /* \"contracts/08-8 StudentRegistrationSystem.sol\":845:905  Student(_name, _age, _regDate, _department, _status, _marks) */\n      mload(0x40)\n      dup1\n      0xc0\n      add\n      0x40\n      mstore\n      dup1\n        /* \"contracts/08-8 StudentRegistrationSystem.sol\":853:858  _name */\n      dup8\n        /* \"contracts/08-8 StudentRegistrationSystem.sol\":845:905  Student(_name, _age, _regDate, _department, _status, _marks) */\n      dup2\n      mstore\n      0x20\n      add\n        /* \"contracts/08-8 StudentRegistrationSystem.sol\":860:864  _age */\n      dup7\n        /* \"contracts/08-8 StudentRegistrationSystem.sol\":845:905  Student(_name, _age, _regDate, _department, _status, _marks) */\n      dup2\n      mstore\n      0x20\n      add\n        /* \"contracts/08-8 StudentRegistrationSystem.sol\":866:874  _regDate */\n      dup6\n        /* \"contracts/08-8 StudentRegistrationSystem.sol\":845:905  Student(_name, _age, _regDate, _department, _status, _marks) */\n      dup2\n      mstore\n      0x20\n      add\n        /* \"contracts/08-8 StudentRegistrationSystem.sol\":876:887  _department */\n      dup5\n        /* \"contracts/08-8 StudentRegistrationSystem.sol\":845:905  Student(_name, _age, _regDate, _department, _status, _marks) */\n      0x03\n      dup2\n      gt\n      iszero\n      tag_77\n      jumpi\n      tag_78\n      tag_59\n      jump\t// in\n    tag_78:\n    tag_77:\n      dup2\n      mstore\n      0x20\n      add\n        /* \"contracts/08-8 StudentRegistrationSystem.sol\":889:896  _status */\n      dup4\n        /* \"contracts/08-8 StudentRegistrationSystem.sol\":845:905  Student(_name, _age, _regDate, _department, _status, _marks) */\n      0x03\n      dup2\n      gt\n      iszero\n      tag_79\n      jumpi\n      tag_80\n      tag_59\n      jump\t// in\n    tag_80:\n    tag_79:\n      dup2\n      mstore\n      0x20\n      add\n        /* \"contracts/08-8 StudentRegistrationSystem.sol\":898:904  _marks */\n      dup3\n        /* \"contracts/08-8 StudentRegistrationSystem.sol\":845:905  Student(_name, _age, _regDate, _department, _status, _marks) */\n      dup2\n      mstore\n      pop\n        /* \"contracts/08-8 StudentRegistrationSystem.sol\":824:834  studentMap */\n      0x00\n        /* \"contracts/08-8 StudentRegistrationSystem.sol\":824:842  studentMap[rollNo] */\n      dup1\n        /* \"contracts/08-8 StudentRegistrationSystem.sol\":835:841  rollNo */\n      dup10\n        /* \"contracts/08-8 StudentRegistrationSystem.sol\":824:842  studentMap[rollNo] */\n      dup2\n      mstore\n      0x20\n      add\n      swap1\n      dup2\n      mstore\n      0x20\n      add\n      0x00\n      keccak256\n        /* \"contracts/08-8 StudentRegistrationSystem.sol\":824:905  studentMap[rollNo] = Student(_name, _age, _regDate, _department, _status, _marks) */\n      0x00\n      dup3\n      add\n      mload\n      dup2\n      0x00\n      add\n      swap1\n      dup2\n      tag_81\n      swap2\n      swap1\n      tag_82\n      jump\t// in\n    tag_81:\n      pop\n      0x20\n      dup3\n      add\n      mload\n      dup2\n      0x01\n      add\n      sstore\n      0x40\n      dup3\n      add\n      mload\n      dup2\n      0x02\n      add\n      sstore\n      0x60\n      dup3\n      add\n      mload\n      dup2\n      0x03\n      add\n      exp(0x0100, 0x00)\n      dup2\n      sload\n      dup2\n      0xff\n      mul\n      not\n      and\n      swap1\n      dup4\n      0x03\n      dup2\n      gt\n      iszero\n      tag_83\n      jumpi\n      tag_84\n      tag_59\n      jump\t// in\n    tag_84:\n    tag_83:\n      mul\n      or\n      swap1\n      sstore\n      pop\n      0x80\n      dup3\n      add\n      mload\n      dup2\n      0x03\n      add\n      exp(0x0100, 0x01)\n      dup2\n      sload\n      dup2\n      0xff\n      mul\n      not\n      and\n      swap1\n      dup4\n      0x03\n      dup2\n      gt\n      iszero\n      tag_85\n      jumpi\n      tag_86\n      tag_59\n      jump\t// in\n    tag_86:\n    tag_85:\n      mul\n      or\n      swap1\n      sstore\n      pop\n      0xa0\n      dup3\n      add\n      mload\n      dup2\n      0x04\n      add\n      sstore\n      swap1\n      pop\n      pop\n        /* \"contracts/08-8 StudentRegistrationSystem.sol\":916:932  departmentCounts */\n      0x01\n        /* \"contracts/08-8 StudentRegistrationSystem.sol\":916:945  departmentCounts[_department] */\n      0x00\n        /* \"contracts/08-8 StudentRegistrationSystem.sol\":933:944  _department */\n      dup5\n        /* \"contracts/08-8 StudentRegistrationSystem.sol\":916:945  departmentCounts[_department] */\n      0x03\n      dup2\n      gt\n      iszero\n      tag_87\n      jumpi\n      tag_88\n      tag_59\n      jump\t// in\n    tag_88:\n    tag_87:\n      0x03\n      dup2\n      gt\n      iszero\n      tag_89\n      jumpi\n      tag_90\n      tag_59\n      jump\t// in\n    tag_90:\n    tag_89:\n      dup2\n      mstore\n      0x20\n      add\n      swap1\n      dup2\n      mstore\n      0x20\n      add\n      0x00\n      keccak256\n      0x00\n        /* \"contracts/08-8 StudentRegistrationSystem.sol\":916:947  departmentCounts[_department]++ */\n      dup2\n      sload\n      dup1\n      swap3\n      swap2\n      swap1\n      tag_91\n      swap1\n      tag_92\n      jump\t// in\n    tag_91:\n      swap2\n      swap1\n      pop\n      sstore\n      pop\n        /* \"contracts/08-8 StudentRegistrationSystem.sol\":958:971  totalStudents */\n      0x02\n      0x00\n        /* \"contracts/08-8 StudentRegistrationSystem.sol\":958:973  totalStudents++ */\n      dup2\n      sload\n      dup1\n      swap3\n      swap2\n      swap1\n      tag_93\n      swap1\n      tag_92\n      jump\t// in\n    tag_93:\n      swap2\n      swap1\n      pop\n      sstore\n      pop\n        /* \"contracts/08-8 StudentRegistrationSystem.sol\":564:981  function registerStudent(uint rollNo, string memory _name, uint _age, uint _regDate, Department _department, Status _status, uint _marks) public {... */\n      pop\n      pop\n      pop\n      pop\n      pop\n      pop\n      pop\n      jump\t// out\n        /* \"contracts/08-8 StudentRegistrationSystem.sol\":466:517  mapping(Department => uint) public departmentCounts */\n    tag_25:\n      mstore(0x20, 0x01)\n      dup1\n      0x00\n      mstore\n      keccak256(0x00, 0x40)\n      0x00\n      swap2\n      pop\n      swap1\n      pop\n      sload\n      dup2\n      jump\t// out\n        /* \"contracts/08-8 StudentRegistrationSystem.sol\":1874:2636  function getTopThreeStudents() public view returns (Student memory, Student memory, Student memory) {... */\n    tag_29:\n        /* \"contracts/08-8 StudentRegistrationSystem.sol\":1926:1940  Student memory */\n      tag_94\n      tag_49\n      jump\t// in\n    tag_94:\n        /* \"contracts/08-8 StudentRegistrationSystem.sol\":1942:1956  Student memory */\n      tag_95\n      tag_49\n      jump\t// in\n    tag_95:\n        /* \"contracts/08-8 StudentRegistrationSystem.sol\":1958:1972  Student memory */\n      tag_96\n      tag_49\n      jump\t// in\n    tag_96:\n        /* \"contracts/08-8 StudentRegistrationSystem.sol\":1981:1998  uint[] memory arr */\n      0x00\n        /* \"contracts/08-8 StudentRegistrationSystem.sol\":2012:2025  totalStudents */\n      sload(0x02)\n        /* \"contracts/08-8 StudentRegistrationSystem.sol\":2001:2026  new uint[](totalStudents) */\n      0xffffffffffffffff\n      dup2\n      gt\n      iszero\n      tag_98\n      jumpi\n      tag_99\n      tag_100\n      jump\t// in\n    tag_99:\n    tag_98:\n      mload(0x40)\n      swap1\n      dup1\n      dup3\n      mstore\n      dup1\n      0x20\n      mul\n      0x20\n      add\n      dup3\n      add\n      0x40\n      mstore\n      dup1\n      iszero\n      tag_101\n      jumpi\n      dup2\n      0x20\n      add\n      0x20\n      dup3\n      mul\n      dup1\n      calldatasize\n      dup4\n      calldatacopy\n      dup1\n      dup3\n      add\n      swap2\n      pop\n      pop\n      swap1\n      pop\n    tag_101:\n      pop\n        /* \"contracts/08-8 StudentRegistrationSystem.sol\":1981:2026  uint[] memory arr = new uint[](totalStudents) */\n      swap1\n      pop\n        /* \"contracts/08-8 StudentRegistrationSystem.sol\":2038:2044  uint i */\n      0x00\n        /* \"contracts/08-8 StudentRegistrationSystem.sol\":2033:2215  for (uint i = 0; i < totalStudents; i++) {... */\n    tag_102:\n        /* \"contracts/08-8 StudentRegistrationSystem.sol\":2054:2067  totalStudents */\n      sload(0x02)\n        /* \"contracts/08-8 StudentRegistrationSystem.sol\":2050:2051  i */\n      dup2\n        /* \"contracts/08-8 StudentRegistrationSystem.sol\":2050:2067  i < totalStudents */\n      lt\n        /* \"contracts/08-8 StudentRegistrationSystem.sol\":2033:2215  for (uint i = 0; i < totalStudents; i++) {... */\n      iszero\n      tag_103\n      jumpi\n        /* \"contracts/08-8 StudentRegistrationSystem.sol\":2126:2147  Department.Blockchain */\n      0x01\n        /* \"contracts/08-8 StudentRegistrationSystem.sol\":2091:2147  studentMap[i].studentDepartment == Department.Blockchain */\n      0x03\n      dup2\n      gt\n      iszero\n      tag_105\n      jumpi\n      tag_106\n      tag_59\n      jump\t// in\n    tag_106:\n    tag_105:\n        /* \"contracts/08-8 StudentRegistrationSystem.sol\":2091:2101  studentMap */\n      0x00\n        /* \"contracts/08-8 StudentRegistrationSystem.sol\":2091:2104  studentMap[i] */\n      dup1\n        /* \"contracts/08-8 StudentRegistrationSystem.sol\":2102:2103  i */\n      dup4\n        /* \"contracts/08-8 StudentRegistrationSystem.sol\":2091:2104  studentMap[i] */\n      dup2\n      mstore\n      0x20\n      add\n      swap1\n      dup2\n      mstore\n      0x20\n      add\n      0x00\n      keccak256\n        /* \"contracts/08-8 StudentRegistrationSystem.sol\":2091:2122  studentMap[i].studentDepartment */\n      0x03\n      add\n      0x00\n      swap1\n      sload\n      swap1\n      0x0100\n      exp\n      swap1\n      div\n      0xff\n      and\n        /* \"contracts/08-8 StudentRegistrationSystem.sol\":2091:2147  studentMap[i].studentDepartment == Department.Blockchain */\n      0x03\n      dup2\n      gt\n      iszero\n      tag_107\n      jumpi\n      tag_108\n      tag_59\n      jump\t// in\n    tag_108:\n    tag_107:\n      eq\n        /* \"contracts/08-8 StudentRegistrationSystem.sol\":2091:2183  studentMap[i].studentDepartment == Department.Blockchain && studentMap[i].obtainedMarks != 0 */\n      dup1\n      iszero\n      tag_109\n      jumpi\n      pop\n        /* \"contracts/08-8 StudentRegistrationSystem.sol\":2182:2183  0 */\n      0x00\n        /* \"contracts/08-8 StudentRegistrationSystem.sol\":2151:2161  studentMap */\n      dup1\n        /* \"contracts/08-8 StudentRegistrationSystem.sol\":2151:2164  studentMap[i] */\n      0x00\n        /* \"contracts/08-8 StudentRegistrationSystem.sol\":2162:2163  i */\n      dup4\n        /* \"contracts/08-8 StudentRegistrationSystem.sol\":2151:2164  studentMap[i] */\n      dup2\n      mstore\n      0x20\n      add\n      swap1\n      dup2\n      mstore\n      0x20\n      add\n      0x00\n      keccak256\n        /* \"contracts/08-8 StudentRegistrationSystem.sol\":2151:2178  studentMap[i].obtainedMarks */\n      0x04\n      add\n      sload\n        /* \"contracts/08-8 StudentRegistrationSystem.sol\":2151:2183  studentMap[i].obtainedMarks != 0 */\n      eq\n      iszero\n        /* \"contracts/08-8 StudentRegistrationSystem.sol\":2091:2183  studentMap[i].studentDepartment == Department.Blockchain && studentMap[i].obtainedMarks != 0 */\n    tag_109:\n        /* \"contracts/08-8 StudentRegistrationSystem.sol\":2087:2214  if (studentMap[i].studentDepartment == Department.Blockchain && studentMap[i].obtainedMarks != 0) {... */\n      iszero\n      tag_110\n      jumpi\n        /* \"contracts/08-8 StudentRegistrationSystem.sol\":2205:2206  i */\n      dup1\n        /* \"contracts/08-8 StudentRegistrationSystem.sol\":2196:2199  arr */\n      dup3\n        /* \"contracts/08-8 StudentRegistrationSystem.sol\":2200:2201  i */\n      dup3\n        /* \"contracts/08-8 StudentRegistrationSystem.sol\":2196:2202  arr[i] */\n      dup2\n      mload\n      dup2\n      lt\n      tag_111\n      jumpi\n      tag_112\n      tag_113\n      jump\t// in\n    tag_112:\n    tag_111:\n      0x20\n      mul\n      0x20\n      add\n      add\n        /* \"contracts/08-8 StudentRegistrationSystem.sol\":2196:2206  arr[i] = i */\n      dup2\n      dup2\n      mstore\n      pop\n      pop\n        /* \"contracts/08-8 StudentRegistrationSystem.sol\":2087:2214  if (studentMap[i].studentDepartment == Department.Blockchain && studentMap[i].obtainedMarks != 0) {... */\n    tag_110:\n        /* \"contracts/08-8 StudentRegistrationSystem.sol\":2069:2072  i++ */\n      dup1\n      dup1\n      tag_114\n      swap1\n      tag_92\n      jump\t// in\n    tag_114:\n      swap2\n      pop\n      pop\n        /* \"contracts/08-8 StudentRegistrationSystem.sol\":2033:2215  for (uint i = 0; i < totalStudents; i++) {... */\n      jump(tag_102)\n    tag_103:\n      pop\n        /* \"contracts/08-8 StudentRegistrationSystem.sol\":2228:2234  uint i */\n      0x00\n        /* \"contracts/08-8 StudentRegistrationSystem.sol\":2223:2557  for (uint i = 0; i < totalStudents; i++) {... */\n    tag_115:\n        /* \"contracts/08-8 StudentRegistrationSystem.sol\":2244:2257  totalStudents */\n      sload(0x02)\n        /* \"contracts/08-8 StudentRegistrationSystem.sol\":2240:2241  i */\n      dup2\n        /* \"contracts/08-8 StudentRegistrationSystem.sol\":2240:2257  i < totalStudents */\n      lt\n        /* \"contracts/08-8 StudentRegistrationSystem.sol\":2223:2557  for (uint i = 0; i < totalStudents; i++) {... */\n      iszero\n      tag_116\n      jumpi\n        /* \"contracts/08-8 StudentRegistrationSystem.sol\":2280:2286  uint j */\n      0x00\n        /* \"contracts/08-8 StudentRegistrationSystem.sol\":2275:2550  for (uint j = 0; j < totalStudents - 1; j++) {... */\n    tag_118:\n        /* \"contracts/08-8 StudentRegistrationSystem.sol\":2312:2313  1 */\n      0x01\n        /* \"contracts/08-8 StudentRegistrationSystem.sol\":2296:2309  totalStudents */\n      sload(0x02)\n        /* \"contracts/08-8 StudentRegistrationSystem.sol\":2296:2313  totalStudents - 1 */\n      tag_121\n      swap2\n      swap1\n      tag_122\n      jump\t// in\n    tag_121:\n        /* \"contracts/08-8 StudentRegistrationSystem.sol\":2292:2293  j */\n      dup2\n        /* \"contracts/08-8 StudentRegistrationSystem.sol\":2292:2313  j < totalStudents - 1 */\n      lt\n        /* \"contracts/08-8 StudentRegistrationSystem.sol\":2275:2550  for (uint j = 0; j < totalStudents - 1; j++) {... */\n      iszero\n      tag_119\n      jumpi\n        /* \"contracts/08-8 StudentRegistrationSystem.sol\":2374:2384  studentMap */\n      0x00\n        /* \"contracts/08-8 StudentRegistrationSystem.sol\":2374:2396  studentMap[arr[j + 1]] */\n      dup1\n        /* \"contracts/08-8 StudentRegistrationSystem.sol\":2385:2388  arr */\n      dup5\n        /* \"contracts/08-8 StudentRegistrationSystem.sol\":2393:2394  1 */\n      0x01\n        /* \"contracts/08-8 StudentRegistrationSystem.sol\":2389:2390  j */\n      dup5\n        /* \"contracts/08-8 StudentRegistrationSystem.sol\":2389:2394  j + 1 */\n      tag_123\n      swap2\n      swap1\n      tag_124\n      jump\t// in\n    tag_123:\n        /* \"contracts/08-8 StudentRegistrationSystem.sol\":2385:2395  arr[j + 1] */\n      dup2\n      mload\n      dup2\n      lt\n      tag_125\n      jumpi\n      tag_126\n      tag_113\n      jump\t// in\n    tag_126:\n    tag_125:\n      0x20\n      mul\n      0x20\n      add\n      add\n      mload\n        /* \"contracts/08-8 StudentRegistrationSystem.sol\":2374:2396  studentMap[arr[j + 1]] */\n      dup2\n      mstore\n      0x20\n      add\n      swap1\n      dup2\n      mstore\n      0x20\n      add\n      0x00\n      keccak256\n        /* \"contracts/08-8 StudentRegistrationSystem.sol\":2374:2410  studentMap[arr[j + 1]].obtainedMarks */\n      0x04\n      add\n      sload\n        /* \"contracts/08-8 StudentRegistrationSystem.sol\":2339:2349  studentMap */\n      0x00\n        /* \"contracts/08-8 StudentRegistrationSystem.sol\":2339:2357  studentMap[arr[j]] */\n      dup1\n        /* \"contracts/08-8 StudentRegistrationSystem.sol\":2350:2353  arr */\n      dup6\n        /* \"contracts/08-8 StudentRegistrationSystem.sol\":2354:2355  j */\n      dup5\n        /* \"contracts/08-8 StudentRegistrationSystem.sol\":2350:2356  arr[j] */\n      dup2\n      mload\n      dup2\n      lt\n      tag_127\n      jumpi\n      tag_128\n      tag_113\n      jump\t// in\n    tag_128:\n    tag_127:\n      0x20\n      mul\n      0x20\n      add\n      add\n      mload\n        /* \"contracts/08-8 StudentRegistrationSystem.sol\":2339:2357  studentMap[arr[j]] */\n      dup2\n      mstore\n      0x20\n      add\n      swap1\n      dup2\n      mstore\n      0x20\n      add\n      0x00\n      keccak256\n        /* \"contracts/08-8 StudentRegistrationSystem.sol\":2339:2371  studentMap[arr[j]].obtainedMarks */\n      0x04\n      add\n      sload\n        /* \"contracts/08-8 StudentRegistrationSystem.sol\":2339:2410  studentMap[arr[j]].obtainedMarks < studentMap[arr[j + 1]].obtainedMarks */\n      lt\n        /* \"contracts/08-8 StudentRegistrationSystem.sol\":2335:2539  if (studentMap[arr[j]].obtainedMarks < studentMap[arr[j + 1]].obtainedMarks) {... */\n      iszero\n      tag_129\n      jumpi\n        /* \"contracts/08-8 StudentRegistrationSystem.sol\":2431:2440  uint temp */\n      0x00\n        /* \"contracts/08-8 StudentRegistrationSystem.sol\":2443:2446  arr */\n      dup4\n        /* \"contracts/08-8 StudentRegistrationSystem.sol\":2447:2448  j */\n      dup3\n        /* \"contracts/08-8 StudentRegistrationSystem.sol\":2443:2449  arr[j] */\n      dup2\n      mload\n      dup2\n      lt\n      tag_130\n      jumpi\n      tag_131\n      tag_113\n      jump\t// in\n    tag_131:\n    tag_130:\n      0x20\n      mul\n      0x20\n      add\n      add\n      mload\n        /* \"contracts/08-8 StudentRegistrationSystem.sol\":2431:2449  uint temp = arr[j] */\n      swap1\n      pop\n        /* \"contracts/08-8 StudentRegistrationSystem.sol\":2477:2480  arr */\n      dup4\n        /* \"contracts/08-8 StudentRegistrationSystem.sol\":2485:2486  1 */\n      0x01\n        /* \"contracts/08-8 StudentRegistrationSystem.sol\":2481:2482  j */\n      dup4\n        /* \"contracts/08-8 StudentRegistrationSystem.sol\":2481:2486  j + 1 */\n      tag_132\n      swap2\n      swap1\n      tag_124\n      jump\t// in\n    tag_132:\n        /* \"contracts/08-8 StudentRegistrationSystem.sol\":2477:2487  arr[j + 1] */\n      dup2\n      mload\n      dup2\n      lt\n      tag_133\n      jumpi\n      tag_134\n      tag_113\n      jump\t// in\n    tag_134:\n    tag_133:\n      0x20\n      mul\n      0x20\n      add\n      add\n      mload\n        /* \"contracts/08-8 StudentRegistrationSystem.sol\":2468:2471  arr */\n      dup5\n        /* \"contracts/08-8 StudentRegistrationSystem.sol\":2472:2473  j */\n      dup4\n        /* \"contracts/08-8 StudentRegistrationSystem.sol\":2468:2474  arr[j] */\n      dup2\n      mload\n      dup2\n      lt\n      tag_135\n      jumpi\n      tag_136\n      tag_113\n      jump\t// in\n    tag_136:\n    tag_135:\n      0x20\n      mul\n      0x20\n      add\n      add\n        /* \"contracts/08-8 StudentRegistrationSystem.sol\":2468:2487  arr[j] = arr[j + 1] */\n      dup2\n      dup2\n      mstore\n      pop\n      pop\n        /* \"contracts/08-8 StudentRegistrationSystem.sol\":2519:2523  temp */\n      dup1\n        /* \"contracts/08-8 StudentRegistrationSystem.sol\":2506:2509  arr */\n      dup5\n        /* \"contracts/08-8 StudentRegistrationSystem.sol\":2514:2515  1 */\n      0x01\n        /* \"contracts/08-8 StudentRegistrationSystem.sol\":2510:2511  j */\n      dup5\n        /* \"contracts/08-8 StudentRegistrationSystem.sol\":2510:2515  j + 1 */\n      tag_137\n      swap2\n      swap1\n      tag_124\n      jump\t// in\n    tag_137:\n        /* \"contracts/08-8 StudentRegistrationSystem.sol\":2506:2516  arr[j + 1] */\n      dup2\n      mload\n      dup2\n      lt\n      tag_138\n      jumpi\n      tag_139\n      tag_113\n      jump\t// in\n    tag_139:\n    tag_138:\n      0x20\n      mul\n      0x20\n      add\n      add\n        /* \"contracts/08-8 StudentRegistrationSystem.sol\":2506:2523  arr[j + 1] = temp */\n      dup2\n      dup2\n      mstore\n      pop\n      pop\n        /* \"contracts/08-8 StudentRegistrationSystem.sol\":2412:2539  {... */\n      pop\n        /* \"contracts/08-8 StudentRegistrationSystem.sol\":2335:2539  if (studentMap[arr[j]].obtainedMarks < studentMap[arr[j + 1]].obtainedMarks) {... */\n    tag_129:\n        /* \"contracts/08-8 StudentRegistrationSystem.sol\":2315:2318  j++ */\n      dup1\n      dup1\n      tag_140\n      swap1\n      tag_92\n      jump\t// in\n    tag_140:\n      swap2\n      pop\n      pop\n        /* \"contracts/08-8 StudentRegistrationSystem.sol\":2275:2550  for (uint j = 0; j < totalStudents - 1; j++) {... */\n      jump(tag_118)\n    tag_119:\n      pop\n        /* \"contracts/08-8 StudentRegistrationSystem.sol\":2259:2262  i++ */\n      dup1\n      dup1\n      tag_141\n      swap1\n      tag_92\n      jump\t// in\n    tag_141:\n      swap2\n      pop\n      pop\n        /* \"contracts/08-8 StudentRegistrationSystem.sol\":2223:2557  for (uint i = 0; i < totalStudents; i++) {... */\n      jump(tag_115)\n    tag_116:\n      pop\n        /* \"contracts/08-8 StudentRegistrationSystem.sol\":2573:2583  studentMap */\n      0x00\n        /* \"contracts/08-8 StudentRegistrationSystem.sol\":2573:2591  studentMap[arr[0]] */\n      dup1\n        /* \"contracts/08-8 StudentRegistrationSystem.sol\":2584:2587  arr */\n      dup3\n        /* \"contracts/08-8 StudentRegistrationSystem.sol\":2588:2589  0 */\n      0x00\n        /* \"contracts/08-8 StudentRegistrationSystem.sol\":2584:2590  arr[0] */\n      dup2\n      mload\n      dup2\n      lt\n      tag_142\n      jumpi\n      tag_143\n      tag_113\n      jump\t// in\n    tag_143:\n    tag_142:\n      0x20\n      mul\n      0x20\n      add\n      add\n      mload\n        /* \"contracts/08-8 StudentRegistrationSystem.sol\":2573:2591  studentMap[arr[0]] */\n      dup2\n      mstore\n      0x20\n      add\n      swap1\n      dup2\n      mstore\n      0x20\n      add\n      0x00\n      keccak256\n        /* \"contracts/08-8 StudentRegistrationSystem.sol\":2593:2603  studentMap */\n      0x00\n        /* \"contracts/08-8 StudentRegistrationSystem.sol\":2593:2611  studentMap[arr[1]] */\n      dup1\n        /* \"contracts/08-8 StudentRegistrationSystem.sol\":2604:2607  arr */\n      dup4\n        /* \"contracts/08-8 StudentRegistrationSystem.sol\":2608:2609  1 */\n      0x01\n        /* \"contracts/08-8 StudentRegistrationSystem.sol\":2604:2610  arr[1] */\n      dup2\n      mload\n      dup2\n      lt\n      tag_144\n      jumpi\n      tag_145\n      tag_113\n      jump\t// in\n    tag_145:\n    tag_144:\n      0x20\n      mul\n      0x20\n      add\n      add\n      mload\n        /* \"contracts/08-8 StudentRegistrationSystem.sol\":2593:2611  studentMap[arr[1]] */\n      dup2\n      mstore\n      0x20\n      add\n      swap1\n      dup2\n      mstore\n      0x20\n      add\n      0x00\n      keccak256\n        /* \"contracts/08-8 StudentRegistrationSystem.sol\":2613:2623  studentMap */\n      0x00\n        /* \"contracts/08-8 StudentRegistrationSystem.sol\":2613:2631  studentMap[arr[2]] */\n      dup1\n        /* \"contracts/08-8 StudentRegistrationSystem.sol\":2624:2627  arr */\n      dup5\n        /* \"contracts/08-8 StudentRegistrationSystem.sol\":2628:2629  2 */\n      0x02\n        /* \"contracts/08-8 StudentRegistrationSystem.sol\":2624:2630  arr[2] */\n      dup2\n      mload\n      dup2\n      lt\n      tag_146\n      jumpi\n      tag_147\n      tag_113\n      jump\t// in\n    tag_147:\n    tag_146:\n      0x20\n      mul\n      0x20\n      add\n      add\n      mload\n        /* \"contracts/08-8 StudentRegistrationSystem.sol\":2613:2631  studentMap[arr[2]] */\n      dup2\n      mstore\n      0x20\n      add\n      swap1\n      dup2\n      mstore\n      0x20\n      add\n      0x00\n      keccak256\n        /* \"contracts/08-8 StudentRegistrationSystem.sol\":2565:2632  return (studentMap[arr[0]], studentMap[arr[1]], studentMap[arr[2]]) */\n      dup3\n      mload(0x40)\n      dup1\n      0xc0\n      add\n      0x40\n      mstore\n      swap1\n      dup2\n      0x00\n      dup3\n      add\n      dup1\n      sload\n      tag_148\n      swap1\n      tag_52\n      jump\t// in\n    tag_148:\n      dup1\n      0x1f\n      add\n      0x20\n      dup1\n      swap2\n      div\n      mul\n      0x20\n      add\n      mload(0x40)\n      swap1\n      dup2\n      add\n      0x40\n      mstore\n      dup1\n      swap3\n      swap2\n      swap1\n      dup2\n      dup2\n      mstore\n      0x20\n      add\n      dup3\n      dup1\n      sload\n      tag_149\n      swap1\n      tag_52\n      jump\t// in\n    tag_149:\n      dup1\n      iszero\n      tag_150\n      jumpi\n      dup1\n      0x1f\n      lt\n      tag_151\n      jumpi\n      0x0100\n      dup1\n      dup4\n      sload\n      div\n      mul\n      dup4\n      mstore\n      swap2\n      0x20\n      add\n      swap2\n      jump(tag_150)\n    tag_151:\n      dup3\n      add\n      swap2\n      swap1\n      0x00\n      mstore\n      keccak256(0x00, 0x20)\n      swap1\n    tag_152:\n      dup2\n      sload\n      dup2\n      mstore\n      swap1\n      0x01\n      add\n      swap1\n      0x20\n      add\n      dup1\n      dup4\n      gt\n      tag_152\n      jumpi\n      dup3\n      swap1\n      sub\n      0x1f\n      and\n      dup3\n      add\n      swap2\n    tag_150:\n      pop\n      pop\n      pop\n      pop\n      pop\n      dup2\n      mstore\n      0x20\n      add\n      0x01\n      dup3\n      add\n      sload\n      dup2\n      mstore\n      0x20\n      add\n      0x02\n      dup3\n      add\n      sload\n      dup2\n      mstore\n      0x20\n      add\n      0x03\n      dup3\n      add\n      0x00\n      swap1\n      sload\n      swap1\n      0x0100\n      exp\n      swap1\n      div\n      0xff\n      and\n      0x03\n      dup2\n      gt\n      iszero\n      tag_153\n      jumpi\n      tag_154\n      tag_59\n      jump\t// in\n    tag_154:\n    tag_153:\n      0x03\n      dup2\n      gt\n      iszero\n      tag_155\n      jumpi\n      tag_156\n      tag_59\n      jump\t// in\n    tag_156:\n    tag_155:\n      dup2\n      mstore\n      0x20\n      add\n      0x03\n      dup3\n      add\n      0x01\n      swap1\n      sload\n      swap1\n      0x0100\n      exp\n      swap1\n      div\n      0xff\n      and\n      0x03\n      dup2\n      gt\n      iszero\n      tag_157\n      jumpi\n      tag_158\n      tag_59\n      jump\t// in\n    tag_158:\n    tag_157:\n      0x03\n      dup2\n      gt\n      iszero\n      tag_159\n      jumpi\n      tag_160\n      tag_59\n      jump\t// in\n    tag_160:\n    tag_159:\n      dup2\n      mstore\n      0x20\n      add\n      0x04\n      dup3\n      add\n      sload\n      dup2\n      mstore\n      pop\n      pop\n      swap3\n      pop\n      dup2\n      mload(0x40)\n      dup1\n      0xc0\n      add\n      0x40\n      mstore\n      swap1\n      dup2\n      0x00\n      dup3\n      add\n      dup1\n      sload\n      tag_161\n      swap1\n      tag_52\n      jump\t// in\n    tag_161:\n      dup1\n      0x1f\n      add\n      0x20\n      dup1\n      swap2\n      div\n      mul\n      0x20\n      add\n      mload(0x40)\n      swap1\n      dup2\n      add\n      0x40\n      mstore\n      dup1\n      swap3\n      swap2\n      swap1\n      dup2\n      dup2\n      mstore\n      0x20\n      add\n      dup3\n      dup1\n      sload\n      tag_162\n      swap1\n      tag_52\n      jump\t// in\n    tag_162:\n      dup1\n      iszero\n      tag_163\n      jumpi\n      dup1\n      0x1f\n      lt\n      tag_164\n      jumpi\n      0x0100\n      dup1\n      dup4\n      sload\n      div\n      mul\n      dup4\n      mstore\n      swap2\n      0x20\n      add\n      swap2\n      jump(tag_163)\n    tag_164:\n      dup3\n      add\n      swap2\n      swap1\n      0x00\n      mstore\n      keccak256(0x00, 0x20)\n      swap1\n    tag_165:\n      dup2\n      sload\n      dup2\n      mstore\n      swap1\n      0x01\n      add\n      swap1\n      0x20\n      add\n      dup1\n      dup4\n      gt\n      tag_165\n      jumpi\n      dup3\n      swap1\n      sub\n      0x1f\n      and\n      dup3\n      add\n      swap2\n    tag_163:\n      pop\n      pop\n      pop\n      pop\n      pop\n      dup2\n      mstore\n      0x20\n      add\n      0x01\n      dup3\n      add\n      sload\n      dup2\n      mstore\n      0x20\n      add\n      0x02\n      dup3\n      add\n      sload\n      dup2\n      mstore\n      0x20\n      add\n      0x03\n      dup3\n      add\n      0x00\n      swap1\n      sload\n      swap1\n      0x0100\n      exp\n      swap1\n      div\n      0xff\n      and\n      0x03\n      dup2\n      gt\n      iszero\n      tag_166\n      jumpi\n      tag_167\n      tag_59\n      jump\t// in\n    tag_167:\n    tag_166:\n      0x03\n      dup2\n      gt\n      iszero\n      tag_168\n      jumpi\n      tag_169\n      tag_59\n      jump\t// in\n    tag_169:\n    tag_168:\n      dup2\n      mstore\n      0x20\n      add\n      0x03\n      dup3\n      add\n      0x01\n      swap1\n      sload\n      swap1\n      0x0100\n      exp\n      swap1\n      div\n      0xff\n      and\n      0x03\n      dup2\n      gt\n      iszero\n      tag_170\n      jumpi\n      tag_171\n      tag_59\n      jump\t// in\n    tag_171:\n    tag_170:\n      0x03\n      dup2\n      gt\n      iszero\n      tag_172\n      jumpi\n      tag_173\n      tag_59\n      jump\t// in\n    tag_173:\n    tag_172:\n      dup2\n      mstore\n      0x20\n      add\n      0x04\n      dup3\n      add\n      sload\n      dup2\n      mstore\n      pop\n      pop\n      swap2\n      pop\n      dup1\n      mload(0x40)\n      dup1\n      0xc0\n      add\n      0x40\n      mstore\n      swap1\n      dup2\n      0x00\n      dup3\n      add\n      dup1\n      sload\n      tag_174\n      swap1\n      tag_52\n      jump\t// in\n    tag_174:\n      dup1\n      0x1f\n      add\n      0x20\n      dup1\n      swap2\n      div\n      mul\n      0x20\n      add\n      mload(0x40)\n      swap1\n      dup2\n      add\n      0x40\n      mstore\n      dup1\n      swap3\n      swap2\n      swap1\n      dup2\n      dup2\n      mstore\n      0x20\n      add\n      dup3\n      dup1\n      sload\n      tag_175\n      swap1\n      tag_52\n      jump\t// in\n    tag_175:\n      dup1\n      iszero\n      tag_176\n      jumpi\n      dup1\n      0x1f\n      lt\n      tag_177\n      jumpi\n      0x0100\n      dup1\n      dup4\n      sload\n      div\n      mul\n      dup4\n      mstore\n      swap2\n      0x20\n      add\n      swap2\n      jump(tag_176)\n    tag_177:\n      dup3\n      add\n      swap2\n      swap1\n      0x00\n      mstore\n      keccak256(0x00, 0x20)\n      swap1\n    tag_178:\n      dup2\n      sload\n      dup2\n      mstore\n      swap1\n      0x01\n      add\n      swap1\n      0x20\n      add\n      dup1\n      dup4\n      gt\n      tag_178\n      jumpi\n      dup3\n      swap1\n      sub\n      0x1f\n      and\n      dup3\n      add\n      swap2\n    tag_176:\n      pop\n      pop\n      pop\n      pop\n      pop\n      dup2\n      mstore\n      0x20\n      add\n      0x01\n      dup3\n      add\n      sload\n      dup2\n      mstore\n      0x20\n      add\n      0x02\n      dup3\n      add\n      sload\n      dup2\n      mstore\n      0x20\n      add\n      0x03\n      dup3\n      add\n      0x00\n      swap1\n      sload\n      swap1\n      0x0100\n      exp\n      swap1\n      div\n      0xff\n      and\n      0x03\n      dup2\n      gt\n      iszero\n      tag_179\n      jumpi\n      tag_180\n      tag_59\n      jump\t// in\n    tag_180:\n    tag_179:\n      0x03\n      dup2\n      gt\n      iszero\n      tag_181\n      jumpi\n      tag_182\n      tag_59\n      jump\t// in\n    tag_182:\n    tag_181:\n      dup2\n      mstore\n      0x20\n      add\n      0x03\n      dup3\n      add\n      0x01\n      swap1\n      sload\n      swap1\n      0x0100\n      exp\n      swap1\n      div\n      0xff\n      and\n      0x03\n      dup2\n      gt\n      iszero\n      tag_183\n      jumpi\n      tag_184\n      tag_59\n      jump\t// in\n    tag_184:\n    tag_183:\n      0x03\n      dup2\n      gt\n      iszero\n      tag_185\n      jumpi\n      tag_186\n      tag_59\n      jump\t// in\n    tag_186:\n    tag_185:\n      dup2\n      mstore\n      0x20\n      add\n      0x04\n      dup3\n      add\n      sload\n      dup2\n      mstore\n      pop\n      pop\n      swap1\n      pop\n      swap4\n      pop\n      swap4\n      pop\n      swap4\n      pop\n      pop\n        /* \"contracts/08-8 StudentRegistrationSystem.sol\":1874:2636  function getTopThreeStudents() public view returns (Student memory, Student memory, Student memory) {... */\n      swap1\n      swap2\n      swap3\n      jump\t// out\n        /* \"contracts/08-8 StudentRegistrationSystem.sol\":989:1394  function updateStudentDetails(uint rollNo, string memory _name, uint _age, Department _department, Status _status, uint _marks) public {... */\n    tag_35:\n        /* \"contracts/08-8 StudentRegistrationSystem.sol\":1135:1158  Student storage student */\n      0x00\n        /* \"contracts/08-8 StudentRegistrationSystem.sol\":1161:1171  studentMap */\n      dup1\n        /* \"contracts/08-8 StudentRegistrationSystem.sol\":1161:1179  studentMap[rollNo] */\n      0x00\n        /* \"contracts/08-8 StudentRegistrationSystem.sol\":1172:1178  rollNo */\n      dup9\n        /* \"contracts/08-8 StudentRegistrationSystem.sol\":1161:1179  studentMap[rollNo] */\n      dup2\n      mstore\n      0x20\n      add\n      swap1\n      dup2\n      mstore\n      0x20\n      add\n      0x00\n      keccak256\n        /* \"contracts/08-8 StudentRegistrationSystem.sol\":1135:1179  Student storage student = studentMap[rollNo] */\n      swap1\n      pop\n        /* \"contracts/08-8 StudentRegistrationSystem.sol\":1212:1217  _name */\n      dup6\n        /* \"contracts/08-8 StudentRegistrationSystem.sol\":1190:1197  student */\n      dup2\n        /* \"contracts/08-8 StudentRegistrationSystem.sol\":1190:1209  student.studentName */\n      0x00\n      add\n        /* \"contracts/08-8 StudentRegistrationSystem.sol\":1190:1217  student.studentName = _name */\n      swap1\n      dup2\n      tag_188\n      swap2\n      swap1\n      tag_82\n      jump\t// in\n    tag_188:\n      pop\n        /* \"contracts/08-8 StudentRegistrationSystem.sol\":1249:1253  _age */\n      dup5\n        /* \"contracts/08-8 StudentRegistrationSystem.sol\":1228:1235  student */\n      dup2\n        /* \"contracts/08-8 StudentRegistrationSystem.sol\":1228:1246  student.studentAge */\n      0x01\n      add\n        /* \"contracts/08-8 StudentRegistrationSystem.sol\":1228:1253  student.studentAge = _age */\n      dup2\n      swap1\n      sstore\n      pop\n        /* \"contracts/08-8 StudentRegistrationSystem.sol\":1292:1303  _department */\n      dup4\n        /* \"contracts/08-8 StudentRegistrationSystem.sol\":1264:1271  student */\n      dup2\n        /* \"contracts/08-8 StudentRegistrationSystem.sol\":1264:1289  student.studentDepartment */\n      0x03\n      add\n      0x00\n        /* \"contracts/08-8 StudentRegistrationSystem.sol\":1264:1303  student.studentDepartment = _department */\n      0x0100\n      exp\n      dup2\n      sload\n      dup2\n      0xff\n      mul\n      not\n      and\n      swap1\n      dup4\n      0x03\n      dup2\n      gt\n      iszero\n      tag_189\n      jumpi\n      tag_190\n      tag_59\n      jump\t// in\n    tag_190:\n    tag_189:\n      mul\n      or\n      swap1\n      sstore\n      pop\n        /* \"contracts/08-8 StudentRegistrationSystem.sol\":1338:1345  _status */\n      dup3\n        /* \"contracts/08-8 StudentRegistrationSystem.sol\":1314:1321  student */\n      dup2\n        /* \"contracts/08-8 StudentRegistrationSystem.sol\":1314:1335  student.studentStatus */\n      0x03\n      add\n      0x01\n        /* \"contracts/08-8 StudentRegistrationSystem.sol\":1314:1345  student.studentStatus = _status */\n      0x0100\n      exp\n      dup2\n      sload\n      dup2\n      0xff\n      mul\n      not\n      and\n      swap1\n      dup4\n      0x03\n      dup2\n      gt\n      iszero\n      tag_191\n      jumpi\n      tag_192\n      tag_59\n      jump\t// in\n    tag_192:\n    tag_191:\n      mul\n      or\n      swap1\n      sstore\n      pop\n        /* \"contracts/08-8 StudentRegistrationSystem.sol\":1380:1386  _marks */\n      dup2\n        /* \"contracts/08-8 StudentRegistrationSystem.sol\":1356:1363  student */\n      dup2\n        /* \"contracts/08-8 StudentRegistrationSystem.sol\":1356:1377  student.obtainedMarks */\n      0x04\n      add\n        /* \"contracts/08-8 StudentRegistrationSystem.sol\":1356:1386  student.obtainedMarks = _marks */\n      dup2\n      swap1\n      sstore\n      pop\n        /* \"contracts/08-8 StudentRegistrationSystem.sol\":1124:1394  {... */\n      pop\n        /* \"contracts/08-8 StudentRegistrationSystem.sol\":989:1394  function updateStudentDetails(uint rollNo, string memory _name, uint _age, Department _department, Status _status, uint _marks) public {... */\n      pop\n      pop\n      pop\n      pop\n      pop\n      pop\n      jump\t// out\n        /* \"contracts/08-8 StudentRegistrationSystem.sol\":526:555  uint public totalStudents = 0 */\n    tag_37:\n      sload(0x02)\n      dup2\n      jump\t// out\n        /* \"contracts/08-8 StudentRegistrationSystem.sol\":1528:1868  function getDepartmentStudentCount() public view returns (uint Ai,uint blockchain,uint ecommerce,uint arts) {... */\n    tag_40:\n        /* \"contracts/08-8 StudentRegistrationSystem.sol\":1586:1593  uint Ai */\n      0x00\n        /* \"contracts/08-8 StudentRegistrationSystem.sol\":1594:1609  uint blockchain */\n      dup1\n        /* \"contracts/08-8 StudentRegistrationSystem.sol\":1610:1624  uint ecommerce */\n      0x00\n        /* \"contracts/08-8 StudentRegistrationSystem.sol\":1625:1634  uint arts */\n      dup1\n        /* \"contracts/08-8 StudentRegistrationSystem.sol\":1665:1681  departmentCounts */\n      0x01\n        /* \"contracts/08-8 StudentRegistrationSystem.sol\":1665:1716  departmentCounts[Department.ArtificialIntelligence] */\n      0x00\n        /* \"contracts/08-8 StudentRegistrationSystem.sol\":1682:1715  Department.ArtificialIntelligence */\n      dup1\n        /* \"contracts/08-8 StudentRegistrationSystem.sol\":1665:1716  departmentCounts[Department.ArtificialIntelligence] */\n      0x03\n      dup2\n      gt\n      iszero\n      tag_194\n      jumpi\n      tag_195\n      tag_59\n      jump\t// in\n    tag_195:\n    tag_194:\n      0x03\n      dup2\n      gt\n      iszero\n      tag_196\n      jumpi\n      tag_197\n      tag_59\n      jump\t// in\n    tag_197:\n    tag_196:\n      dup2\n      mstore\n      0x20\n      add\n      swap1\n      dup2\n      mstore\n      0x20\n      add\n      0x00\n      keccak256\n      sload\n        /* \"contracts/08-8 StudentRegistrationSystem.sol\":1727:1743  departmentCounts */\n      0x01\n        /* \"contracts/08-8 StudentRegistrationSystem.sol\":1727:1766  departmentCounts[Department.Blockchain] */\n      0x00\n        /* \"contracts/08-8 StudentRegistrationSystem.sol\":1744:1765  Department.Blockchain */\n      0x01\n        /* \"contracts/08-8 StudentRegistrationSystem.sol\":1727:1766  departmentCounts[Department.Blockchain] */\n      0x03\n      dup2\n      gt\n      iszero\n      tag_198\n      jumpi\n      tag_199\n      tag_59\n      jump\t// in\n    tag_199:\n    tag_198:\n      0x03\n      dup2\n      gt\n      iszero\n      tag_200\n      jumpi\n      tag_201\n      tag_59\n      jump\t// in\n    tag_201:\n    tag_200:\n      dup2\n      mstore\n      0x20\n      add\n      swap1\n      dup2\n      mstore\n      0x20\n      add\n      0x00\n      keccak256\n      sload\n        /* \"contracts/08-8 StudentRegistrationSystem.sol\":1777:1793  departmentCounts */\n      0x01\n        /* \"contracts/08-8 StudentRegistrationSystem.sol\":1777:1815  departmentCounts[Department.ECommerce] */\n      0x00\n        /* \"contracts/08-8 StudentRegistrationSystem.sol\":1794:1814  Department.ECommerce */\n      0x02\n        /* \"contracts/08-8 StudentRegistrationSystem.sol\":1777:1815  departmentCounts[Department.ECommerce] */\n      0x03\n      dup2\n      gt\n      iszero\n      tag_202\n      jumpi\n      tag_203\n      tag_59\n      jump\t// in\n    tag_203:\n    tag_202:\n      0x03\n      dup2\n      gt\n      iszero\n      tag_204\n      jumpi\n      tag_205\n      tag_59\n      jump\t// in\n    tag_205:\n    tag_204:\n      dup2\n      mstore\n      0x20\n      add\n      swap1\n      dup2\n      mstore\n      0x20\n      add\n      0x00\n      keccak256\n      sload\n        /* \"contracts/08-8 StudentRegistrationSystem.sol\":1826:1842  departmentCounts */\n      0x01\n        /* \"contracts/08-8 StudentRegistrationSystem.sol\":1826:1859  departmentCounts[Department.Arts] */\n      0x00\n        /* \"contracts/08-8 StudentRegistrationSystem.sol\":1843:1858  Department.Arts */\n      0x03\n        /* \"contracts/08-8 StudentRegistrationSystem.sol\":1826:1859  departmentCounts[Department.Arts] */\n      dup1\n      dup2\n      gt\n      iszero\n      tag_206\n      jumpi\n      tag_207\n      tag_59\n      jump\t// in\n    tag_207:\n    tag_206:\n      0x03\n      dup2\n      gt\n      iszero\n      tag_208\n      jumpi\n      tag_209\n      tag_59\n      jump\t// in\n    tag_209:\n    tag_208:\n      dup2\n      mstore\n      0x20\n      add\n      swap1\n      dup2\n      mstore\n      0x20\n      add\n      0x00\n      keccak256\n      sload\n        /* \"contracts/08-8 StudentRegistrationSystem.sol\":1647:1860  return (... */\n      swap4\n      pop\n      swap4\n      pop\n      swap4\n      pop\n      swap4\n      pop\n        /* \"contracts/08-8 StudentRegistrationSystem.sol\":1528:1868  function getDepartmentStudentCount() public view returns (uint Ai,uint blockchain,uint ecommerce,uint arts) {... */\n      swap1\n      swap2\n      swap3\n      swap4\n      jump\t// out\n        /* \"contracts/08-8 StudentRegistrationSystem.sol\":417:459  mapping(uint => Student) public studentMap */\n    tag_45:\n      mstore(0x20, 0x00)\n      dup1\n      0x00\n      mstore\n      keccak256(0x00, 0x40)\n      0x00\n      swap2\n      pop\n      swap1\n      pop\n      dup1\n      0x00\n      add\n      dup1\n      sload\n      tag_210\n      swap1\n      tag_52\n      jump\t// in\n    tag_210:\n      dup1\n      0x1f\n      add\n      0x20\n      dup1\n      swap2\n      div\n      mul\n      0x20\n      add\n      mload(0x40)\n      swap1\n      dup2\n      add\n      0x40\n      mstore\n      dup1\n      swap3\n      swap2\n      swap1\n      dup2\n      dup2\n      mstore\n      0x20\n      add\n      dup3\n      dup1\n      sload\n      tag_211\n      swap1\n      tag_52\n      jump\t// in\n    tag_211:\n      dup1\n      iszero\n      tag_212\n      jumpi\n      dup1\n      0x1f\n      lt\n      tag_213\n      jumpi\n      0x0100\n      dup1\n      dup4\n      sload\n      div\n      mul\n      dup4\n      mstore\n      swap2\n      0x20\n      add\n      swap2\n      jump(tag_212)\n    tag_213:\n      dup3\n      add\n      swap2\n      swap1\n      0x00\n      mstore\n      keccak256(0x00, 0x20)\n      swap1\n    tag_214:\n      dup2\n      sload\n      dup2\n      mstore\n      swap1\n      0x01\n      add\n      swap1\n      0x20\n      add\n      dup1\n      dup4\n      gt\n      tag_214\n      jumpi\n      dup3\n      swap1\n      sub\n      0x1f\n      and\n      dup3\n      add\n      swap2\n    tag_212:\n      pop\n      pop\n      pop\n      pop\n      pop\n      swap1\n      dup1\n      0x01\n      add\n      sload\n      swap1\n      dup1\n      0x02\n      add\n      sload\n      swap1\n      dup1\n      0x03\n      add\n      0x00\n      swap1\n      sload\n      swap1\n      0x0100\n      exp\n      swap1\n      div\n      0xff\n      and\n      swap1\n      dup1\n      0x03\n      add\n      0x01\n      swap1\n      sload\n      swap1\n      0x0100\n      exp\n      swap1\n      div\n      0xff\n      and\n      swap1\n      dup1\n      0x04\n      add\n      sload\n      swap1\n      pop\n      dup7\n      jump\t// out\n    tag_49:\n      mload(0x40)\n      dup1\n      0xc0\n      add\n      0x40\n      mstore\n      dup1\n      0x60\n      dup2\n      mstore\n      0x20\n      add\n      0x00\n      dup2\n      mstore\n      0x20\n      add\n      0x00\n      dup2\n      mstore\n      0x20\n      add\n      0x00\n      0x03\n      dup2\n      gt\n      iszero\n      tag_215\n      jumpi\n      tag_216\n      tag_59\n      jump\t// in\n    tag_216:\n    tag_215:\n      dup2\n      mstore\n      0x20\n      add\n      0x00\n      0x03\n      dup2\n      gt\n      iszero\n      tag_217\n      jumpi\n      tag_218\n      tag_59\n      jump\t// in\n    tag_218:\n    tag_217:\n      dup2\n      mstore\n      0x20\n      add\n      0x00\n      dup2\n      mstore\n      pop\n      swap1\n      jump\t// out\n        /* \"#utility.yul\":7:82   */\n    tag_219:\n        /* \"#utility.yul\":40:46   */\n      0x00\n        /* \"#utility.yul\":73:75   */\n      0x40\n        /* \"#utility.yul\":67:76   */\n      mload\n        /* \"#utility.yul\":57:76   */\n      swap1\n      pop\n        /* \"#utility.yul\":7:82   */\n      swap1\n      jump\t// out\n        /* \"#utility.yul\":88:205   */\n    tag_220:\n        /* \"#utility.yul\":197:198   */\n      0x00\n        /* \"#utility.yul\":194:195   */\n      dup1\n        /* \"#utility.yul\":187:199   */\n      revert\n        /* \"#utility.yul\":211:328   */\n    tag_221:\n        /* \"#utility.yul\":320:321   */\n      0x00\n        /* \"#utility.yul\":317:318   */\n      dup1\n        /* \"#utility.yul\":310:322   */\n      revert\n        /* \"#utility.yul\":334:411   */\n    tag_222:\n        /* \"#utility.yul\":371:378   */\n      0x00\n        /* \"#utility.yul\":400:405   */\n      dup2\n        /* \"#utility.yul\":389:405   */\n      swap1\n      pop\n        /* \"#utility.yul\":334:411   */\n      swap2\n      swap1\n      pop\n      jump\t// out\n        /* \"#utility.yul\":417:539   */\n    tag_223:\n        /* \"#utility.yul\":490:514   */\n      tag_280\n        /* \"#utility.yul\":508:513   */\n      dup2\n        /* \"#utility.yul\":490:514   */\n      tag_222\n      jump\t// in\n    tag_280:\n        /* \"#utility.yul\":483:488   */\n      dup2\n        /* \"#utility.yul\":480:515   */\n      eq\n        /* \"#utility.yul\":470:533   */\n      tag_281\n      jumpi\n        /* \"#utility.yul\":529:530   */\n      0x00\n        /* \"#utility.yul\":526:527   */\n      dup1\n        /* \"#utility.yul\":519:531   */\n      revert\n        /* \"#utility.yul\":470:533   */\n    tag_281:\n        /* \"#utility.yul\":417:539   */\n      pop\n      jump\t// out\n        /* \"#utility.yul\":545:684   */\n    tag_224:\n        /* \"#utility.yul\":591:596   */\n      0x00\n        /* \"#utility.yul\":629:635   */\n      dup2\n        /* \"#utility.yul\":616:636   */\n      calldataload\n        /* \"#utility.yul\":607:636   */\n      swap1\n      pop\n        /* \"#utility.yul\":645:678   */\n      tag_283\n        /* \"#utility.yul\":672:677   */\n      dup2\n        /* \"#utility.yul\":645:678   */\n      tag_223\n      jump\t// in\n    tag_283:\n        /* \"#utility.yul\":545:684   */\n      swap3\n      swap2\n      pop\n      pop\n      jump\t// out\n        /* \"#utility.yul\":690:1019   */\n    tag_14:\n        /* \"#utility.yul\":749:755   */\n      0x00\n        /* \"#utility.yul\":798:800   */\n      0x20\n        /* \"#utility.yul\":786:795   */\n      dup3\n        /* \"#utility.yul\":777:784   */\n      dup5\n        /* \"#utility.yul\":773:796   */\n      sub\n        /* \"#utility.yul\":769:801   */\n      slt\n        /* \"#utility.yul\":766:885   */\n      iszero\n      tag_285\n      jumpi\n        /* \"#utility.yul\":804:883   */\n      tag_286\n      tag_220\n      jump\t// in\n    tag_286:\n        /* \"#utility.yul\":766:885   */\n    tag_285:\n        /* \"#utility.yul\":924:925   */\n      0x00\n        /* \"#utility.yul\":949:1002   */\n      tag_287\n        /* \"#utility.yul\":994:1001   */\n      dup5\n        /* \"#utility.yul\":985:991   */\n      dup3\n        /* \"#utility.yul\":974:983   */\n      dup6\n        /* \"#utility.yul\":970:992   */\n      add\n        /* \"#utility.yul\":949:1002   */\n      tag_224\n      jump\t// in\n    tag_287:\n        /* \"#utility.yul\":939:1002   */\n      swap2\n      pop\n        /* \"#utility.yul\":895:1012   */\n      pop\n        /* \"#utility.yul\":690:1019   */\n      swap3\n      swap2\n      pop\n      pop\n      jump\t// out\n        /* \"#utility.yul\":1025:1124   */\n    tag_225:\n        /* \"#utility.yul\":1077:1083   */\n      0x00\n        /* \"#utility.yul\":1111:1116   */\n      dup2\n        /* \"#utility.yul\":1105:1117   */\n      mload\n        /* \"#utility.yul\":1095:1117   */\n      swap1\n      pop\n        /* \"#utility.yul\":1025:1124   */\n      swap2\n      swap1\n      pop\n      jump\t// out\n        /* \"#utility.yul\":1130:1289   */\n    tag_226:\n        /* \"#utility.yul\":1204:1215   */\n      0x00\n        /* \"#utility.yul\":1238:1244   */\n      dup3\n        /* \"#utility.yul\":1233:1236   */\n      dup3\n        /* \"#utility.yul\":1226:1245   */\n      mstore\n        /* \"#utility.yul\":1278:1282   */\n      0x20\n        /* \"#utility.yul\":1273:1276   */\n      dup3\n        /* \"#utility.yul\":1269:1283   */\n      add\n        /* \"#utility.yul\":1254:1283   */\n      swap1\n      pop\n        /* \"#utility.yul\":1130:1289   */\n      swap3\n      swap2\n      pop\n      pop\n      jump\t// out\n        /* \"#utility.yul\":1295:1541   */\n    tag_227:\n        /* \"#utility.yul\":1376:1377   */\n      0x00\n        /* \"#utility.yul\":1386:1499   */\n    tag_291:\n        /* \"#utility.yul\":1400:1406   */\n      dup4\n        /* \"#utility.yul\":1397:1398   */\n      dup2\n        /* \"#utility.yul\":1394:1407   */\n      lt\n        /* \"#utility.yul\":1386:1499   */\n      iszero\n      tag_293\n      jumpi\n        /* \"#utility.yul\":1485:1486   */\n      dup1\n        /* \"#utility.yul\":1480:1483   */\n      dup3\n        /* \"#utility.yul\":1476:1487   */\n      add\n        /* \"#utility.yul\":1470:1488   */\n      mload\n        /* \"#utility.yul\":1466:1467   */\n      dup2\n        /* \"#utility.yul\":1461:1464   */\n      dup5\n        /* \"#utility.yul\":1457:1468   */\n      add\n        /* \"#utility.yul\":1450:1489   */\n      mstore\n        /* \"#utility.yul\":1422:1424   */\n      0x20\n        /* \"#utility.yul\":1419:1420   */\n      dup2\n        /* \"#utility.yul\":1415:1425   */\n      add\n        /* \"#utility.yul\":1410:1425   */\n      swap1\n      pop\n        /* \"#utility.yul\":1386:1499   */\n      jump(tag_291)\n    tag_293:\n        /* \"#utility.yul\":1533:1534   */\n      0x00\n        /* \"#utility.yul\":1524:1530   */\n      dup5\n        /* \"#utility.yul\":1519:1522   */\n      dup5\n        /* \"#utility.yul\":1515:1531   */\n      add\n        /* \"#utility.yul\":1508:1535   */\n      mstore\n        /* \"#utility.yul\":1357:1541   */\n      pop\n        /* \"#utility.yul\":1295:1541   */\n      pop\n      pop\n      pop\n      jump\t// out\n        /* \"#utility.yul\":1547:1649   */\n    tag_228:\n        /* \"#utility.yul\":1588:1594   */\n      0x00\n        /* \"#utility.yul\":1639:1641   */\n      0x1f\n        /* \"#utility.yul\":1635:1642   */\n      not\n        /* \"#utility.yul\":1630:1632   */\n      0x1f\n        /* \"#utility.yul\":1623:1628   */\n      dup4\n        /* \"#utility.yul\":1619:1633   */\n      add\n        /* \"#utility.yul\":1615:1643   */\n      and\n        /* \"#utility.yul\":1605:1643   */\n      swap1\n      pop\n        /* \"#utility.yul\":1547:1649   */\n      swap2\n      swap1\n      pop\n      jump\t// out\n        /* \"#utility.yul\":1655:2012   */\n    tag_229:\n        /* \"#utility.yul\":1733:1736   */\n      0x00\n        /* \"#utility.yul\":1761:1800   */\n      tag_296\n        /* \"#utility.yul\":1794:1799   */\n      dup3\n        /* \"#utility.yul\":1761:1800   */\n      tag_225\n      jump\t// in\n    tag_296:\n        /* \"#utility.yul\":1816:1877   */\n      tag_297\n        /* \"#utility.yul\":1870:1876   */\n      dup2\n        /* \"#utility.yul\":1865:1868   */\n      dup6\n        /* \"#utility.yul\":1816:1877   */\n      tag_226\n      jump\t// in\n    tag_297:\n        /* \"#utility.yul\":1809:1877   */\n      swap4\n      pop\n        /* \"#utility.yul\":1886:1951   */\n      tag_298\n        /* \"#utility.yul\":1944:1950   */\n      dup2\n        /* \"#utility.yul\":1939:1942   */\n      dup6\n        /* \"#utility.yul\":1932:1936   */\n      0x20\n        /* \"#utility.yul\":1925:1930   */\n      dup7\n        /* \"#utility.yul\":1921:1937   */\n      add\n        /* \"#utility.yul\":1886:1951   */\n      tag_227\n      jump\t// in\n    tag_298:\n        /* \"#utility.yul\":1976:2005   */\n      tag_299\n        /* \"#utility.yul\":1998:2004   */\n      dup2\n        /* \"#utility.yul\":1976:2005   */\n      tag_228\n      jump\t// in\n    tag_299:\n        /* \"#utility.yul\":1971:1974   */\n      dup5\n        /* \"#utility.yul\":1967:2006   */\n      add\n        /* \"#utility.yul\":1960:2006   */\n      swap2\n      pop\n        /* \"#utility.yul\":1737:2012   */\n      pop\n        /* \"#utility.yul\":1655:2012   */\n      swap3\n      swap2\n      pop\n      pop\n      jump\t// out\n        /* \"#utility.yul\":2018:2126   */\n    tag_230:\n        /* \"#utility.yul\":2095:2119   */\n      tag_301\n        /* \"#utility.yul\":2113:2118   */\n      dup2\n        /* \"#utility.yul\":2095:2119   */\n      tag_222\n      jump\t// in\n    tag_301:\n        /* \"#utility.yul\":2090:2093   */\n      dup3\n        /* \"#utility.yul\":2083:2120   */\n      mstore\n        /* \"#utility.yul\":2018:2126   */\n      pop\n      pop\n      jump\t// out\n        /* \"#utility.yul\":2132:2312   */\n    tag_59:\n        /* \"#utility.yul\":2180:2257   */\n      0x4e487b7100000000000000000000000000000000000000000000000000000000\n        /* \"#utility.yul\":2177:2178   */\n      0x00\n        /* \"#utility.yul\":2170:2258   */\n      mstore\n        /* \"#utility.yul\":2277:2281   */\n      0x21\n        /* \"#utility.yul\":2274:2275   */\n      0x04\n        /* \"#utility.yul\":2267:2282   */\n      mstore\n        /* \"#utility.yul\":2301:2305   */\n      0x24\n        /* \"#utility.yul\":2298:2299   */\n      0x00\n        /* \"#utility.yul\":2291:2306   */\n      revert\n        /* \"#utility.yul\":2318:2435   */\n    tag_231:\n        /* \"#utility.yul\":2403:2404   */\n      0x04\n        /* \"#utility.yul\":2396:2401   */\n      dup2\n        /* \"#utility.yul\":2393:2405   */\n      lt\n        /* \"#utility.yul\":2383:2429   */\n      tag_304\n      jumpi\n        /* \"#utility.yul\":2409:2427   */\n      tag_305\n      tag_59\n      jump\t// in\n    tag_305:\n        /* \"#utility.yul\":2383:2429   */\n    tag_304:\n        /* \"#utility.yul\":2318:2435   */\n      pop\n      jump\t// out\n        /* \"#utility.yul\":2441:2576   */\n    tag_232:\n        /* \"#utility.yul\":2490:2497   */\n      0x00\n        /* \"#utility.yul\":2519:2524   */\n      dup2\n        /* \"#utility.yul\":2508:2524   */\n      swap1\n      pop\n        /* \"#utility.yul\":2525:2570   */\n      tag_307\n        /* \"#utility.yul\":2564:2569   */\n      dup3\n        /* \"#utility.yul\":2525:2570   */\n      tag_231\n      jump\t// in\n    tag_307:\n        /* \"#utility.yul\":2441:2576   */\n      swap2\n      swap1\n      pop\n      jump\t// out\n        /* \"#utility.yul\":2582:2717   */\n    tag_233:\n        /* \"#utility.yul\":2642:2651   */\n      0x00\n        /* \"#utility.yul\":2675:2711   */\n      tag_309\n        /* \"#utility.yul\":2705:2710   */\n      dup3\n        /* \"#utility.yul\":2675:2711   */\n      tag_232\n      jump\t// in\n    tag_309:\n        /* \"#utility.yul\":2662:2711   */\n      swap1\n      pop\n        /* \"#utility.yul\":2582:2717   */\n      swap2\n      swap1\n      pop\n      jump\t// out\n        /* \"#utility.yul\":2723:2864   */\n    tag_234:\n        /* \"#utility.yul\":2810:2857   */\n      tag_311\n        /* \"#utility.yul\":2851:2856   */\n      dup2\n        /* \"#utility.yul\":2810:2857   */\n      tag_233\n      jump\t// in\n    tag_311:\n        /* \"#utility.yul\":2805:2808   */\n      dup3\n        /* \"#utility.yul\":2798:2858   */\n      mstore\n        /* \"#utility.yul\":2723:2864   */\n      pop\n      pop\n      jump\t// out\n        /* \"#utility.yul\":2870:2984   */\n    tag_235:\n        /* \"#utility.yul\":2952:2953   */\n      0x04\n        /* \"#utility.yul\":2945:2950   */\n      dup2\n        /* \"#utility.yul\":2942:2954   */\n      lt\n        /* \"#utility.yul\":2932:2978   */\n      tag_313\n      jumpi\n        /* \"#utility.yul\":2958:2976   */\n      tag_314\n      tag_59\n      jump\t// in\n    tag_314:\n        /* \"#utility.yul\":2932:2978   */\n    tag_313:\n        /* \"#utility.yul\":2870:2984   */\n      pop\n      jump\t// out\n        /* \"#utility.yul\":2990:3119   */\n    tag_236:\n        /* \"#utility.yul\":3036:3043   */\n      0x00\n        /* \"#utility.yul\":3065:3070   */\n      dup2\n        /* \"#utility.yul\":3054:3070   */\n      swap1\n      pop\n        /* \"#utility.yul\":3071:3113   */\n      tag_316\n        /* \"#utility.yul\":3107:3112   */\n      dup3\n        /* \"#utility.yul\":3071:3113   */\n      tag_235\n      jump\t// in\n    tag_316:\n        /* \"#utility.yul\":2990:3119   */\n      swap2\n      swap1\n      pop\n      jump\t// out\n        /* \"#utility.yul\":3125:3254   */\n    tag_237:\n        /* \"#utility.yul\":3182:3191   */\n      0x00\n        /* \"#utility.yul\":3215:3248   */\n      tag_318\n        /* \"#utility.yul\":3242:3247   */\n      dup3\n        /* \"#utility.yul\":3215:3248   */\n      tag_236\n      jump\t// in\n    tag_318:\n        /* \"#utility.yul\":3202:3248   */\n      swap1\n      pop\n        /* \"#utility.yul\":3125:3254   */\n      swap2\n      swap1\n      pop\n      jump\t// out\n        /* \"#utility.yul\":3260:3395   */\n    tag_238:\n        /* \"#utility.yul\":3344:3388   */\n      tag_320\n        /* \"#utility.yul\":3382:3387   */\n      dup2\n        /* \"#utility.yul\":3344:3388   */\n      tag_237\n      jump\t// in\n    tag_320:\n        /* \"#utility.yul\":3339:3342   */\n      dup3\n        /* \"#utility.yul\":3332:3389   */\n      mstore\n        /* \"#utility.yul\":3260:3395   */\n      pop\n      pop\n      jump\t// out\n        /* \"#utility.yul\":3441:4812   */\n    tag_239:\n        /* \"#utility.yul\":3556:3559   */\n      0x00\n        /* \"#utility.yul\":3592:3596   */\n      0xc0\n        /* \"#utility.yul\":3587:3590   */\n      dup4\n        /* \"#utility.yul\":3583:3597   */\n      add\n        /* \"#utility.yul\":3686:3690   */\n      0x00\n        /* \"#utility.yul\":3679:3684   */\n      dup4\n        /* \"#utility.yul\":3675:3691   */\n      add\n        /* \"#utility.yul\":3669:3692   */\n      mload\n        /* \"#utility.yul\":3739:3742   */\n      dup5\n        /* \"#utility.yul\":3733:3737   */\n      dup3\n        /* \"#utility.yul\":3729:3743   */\n      sub\n        /* \"#utility.yul\":3722:3726   */\n      0x00\n        /* \"#utility.yul\":3717:3720   */\n      dup7\n        /* \"#utility.yul\":3713:3727   */\n      add\n        /* \"#utility.yul\":3706:3744   */\n      mstore\n        /* \"#utility.yul\":3765:3838   */\n      tag_322\n        /* \"#utility.yul\":3833:3837   */\n      dup3\n        /* \"#utility.yul\":3819:3831   */\n      dup3\n        /* \"#utility.yul\":3765:3838   */\n      tag_229\n      jump\t// in\n    tag_322:\n        /* \"#utility.yul\":3757:3838   */\n      swap2\n      pop\n        /* \"#utility.yul\":3607:3849   */\n      pop\n        /* \"#utility.yul\":3937:3941   */\n      0x20\n        /* \"#utility.yul\":3930:3935   */\n      dup4\n        /* \"#utility.yul\":3926:3942   */\n      add\n        /* \"#utility.yul\":3920:3943   */\n      mload\n        /* \"#utility.yul\":3956:4019   */\n      tag_323\n        /* \"#utility.yul\":4013:4017   */\n      0x20\n        /* \"#utility.yul\":4008:4011   */\n      dup7\n        /* \"#utility.yul\":4004:4018   */\n      add\n        /* \"#utility.yul\":3990:4002   */\n      dup3\n        /* \"#utility.yul\":3956:4019   */\n      tag_230\n      jump\t// in\n    tag_323:\n        /* \"#utility.yul\":3859:4029   */\n      pop\n        /* \"#utility.yul\":4123:4127   */\n      0x40\n        /* \"#utility.yul\":4116:4121   */\n      dup4\n        /* \"#utility.yul\":4112:4128   */\n      add\n        /* \"#utility.yul\":4106:4129   */\n      mload\n        /* \"#utility.yul\":4142:4205   */\n      tag_324\n        /* \"#utility.yul\":4199:4203   */\n      0x40\n        /* \"#utility.yul\":4194:4197   */\n      dup7\n        /* \"#utility.yul\":4190:4204   */\n      add\n        /* \"#utility.yul\":4176:4188   */\n      dup3\n        /* \"#utility.yul\":4142:4205   */\n      tag_230\n      jump\t// in\n    tag_324:\n        /* \"#utility.yul\":4039:4215   */\n      pop\n        /* \"#utility.yul\":4310:4314   */\n      0x60\n        /* \"#utility.yul\":4303:4308   */\n      dup4\n        /* \"#utility.yul\":4299:4315   */\n      add\n        /* \"#utility.yul\":4293:4316   */\n      mload\n        /* \"#utility.yul\":4329:4402   */\n      tag_325\n        /* \"#utility.yul\":4396:4400   */\n      0x60\n        /* \"#utility.yul\":4391:4394   */\n      dup7\n        /* \"#utility.yul\":4387:4401   */\n      add\n        /* \"#utility.yul\":4373:4385   */\n      dup3\n        /* \"#utility.yul\":4329:4402   */\n      tag_234\n      jump\t// in\n    tag_325:\n        /* \"#utility.yul\":4225:4412   */\n      pop\n        /* \"#utility.yul\":4503:4507   */\n      0x80\n        /* \"#utility.yul\":4496:4501   */\n      dup4\n        /* \"#utility.yul\":4492:4508   */\n      add\n        /* \"#utility.yul\":4486:4509   */\n      mload\n        /* \"#utility.yul\":4522:4592   */\n      tag_326\n        /* \"#utility.yul\":4586:4590   */\n      0x80\n        /* \"#utility.yul\":4581:4584   */\n      dup7\n        /* \"#utility.yul\":4577:4591   */\n      add\n        /* \"#utility.yul\":4563:4575   */\n      dup3\n        /* \"#utility.yul\":4522:4592   */\n      tag_238\n      jump\t// in\n    tag_326:\n        /* \"#utility.yul\":4422:4602   */\n      pop\n        /* \"#utility.yul\":4693:4697   */\n      0xa0\n        /* \"#utility.yul\":4686:4691   */\n      dup4\n        /* \"#utility.yul\":4682:4698   */\n      add\n        /* \"#utility.yul\":4676:4699   */\n      mload\n        /* \"#utility.yul\":4712:4775   */\n      tag_327\n        /* \"#utility.yul\":4769:4773   */\n      0xa0\n        /* \"#utility.yul\":4764:4767   */\n      dup7\n        /* \"#utility.yul\":4760:4774   */\n      add\n        /* \"#utility.yul\":4746:4758   */\n      dup3\n        /* \"#utility.yul\":4712:4775   */\n      tag_230\n      jump\t// in\n    tag_327:\n        /* \"#utility.yul\":4612:4785   */\n      pop\n        /* \"#utility.yul\":4802:4806   */\n      dup1\n        /* \"#utility.yul\":4795:4806   */\n      swap2\n      pop\n        /* \"#utility.yul\":3561:4812   */\n      pop\n        /* \"#utility.yul\":3441:4812   */\n      swap3\n      swap2\n      pop\n      pop\n      jump\t// out\n        /* \"#utility.yul\":4818:5183   */\n    tag_17:\n        /* \"#utility.yul\":4957:4961   */\n      0x00\n        /* \"#utility.yul\":4995:4997   */\n      0x20\n        /* \"#utility.yul\":4984:4993   */\n      dup3\n        /* \"#utility.yul\":4980:4998   */\n      add\n        /* \"#utility.yul\":4972:4998   */\n      swap1\n      pop\n        /* \"#utility.yul\":5044:5053   */\n      dup2\n        /* \"#utility.yul\":5038:5042   */\n      dup2\n        /* \"#utility.yul\":5034:5054   */\n      sub\n        /* \"#utility.yul\":5030:5031   */\n      0x00\n        /* \"#utility.yul\":5019:5028   */\n      dup4\n        /* \"#utility.yul\":5015:5032   */\n      add\n        /* \"#utility.yul\":5008:5055   */\n      mstore\n        /* \"#utility.yul\":5072:5176   */\n      tag_329\n        /* \"#utility.yul\":5171:5175   */\n      dup2\n        /* \"#utility.yul\":5162:5168   */\n      dup5\n        /* \"#utility.yul\":5072:5176   */\n      tag_239\n      jump\t// in\n    tag_329:\n        /* \"#utility.yul\":5064:5176   */\n      swap1\n      pop\n        /* \"#utility.yul\":4818:5183   */\n      swap3\n      swap2\n      pop\n      pop\n      jump\t// out\n        /* \"#utility.yul\":5189:5306   */\n    tag_240:\n        /* \"#utility.yul\":5298:5299   */\n      0x00\n        /* \"#utility.yul\":5295:5296   */\n      dup1\n        /* \"#utility.yul\":5288:5300   */\n      revert\n        /* \"#utility.yul\":5312:5429   */\n    tag_241:\n        /* \"#utility.yul\":5421:5422   */\n      0x00\n        /* \"#utility.yul\":5418:5419   */\n      dup1\n        /* \"#utility.yul\":5411:5423   */\n      revert\n        /* \"#utility.yul\":5435:5615   */\n    tag_100:\n        /* \"#utility.yul\":5483:5560   */\n      0x4e487b7100000000000000000000000000000000000000000000000000000000\n        /* \"#utility.yul\":5480:5481   */\n      0x00\n        /* \"#utility.yul\":5473:5561   */\n      mstore\n        /* \"#utility.yul\":5580:5584   */\n      0x41\n        /* \"#utility.yul\":5577:5578   */\n      0x04\n        /* \"#utility.yul\":5570:5585   */\n      mstore\n        /* \"#utility.yul\":5604:5608   */\n      0x24\n        /* \"#utility.yul\":5601:5602   */\n      0x00\n        /* \"#utility.yul\":5594:5609   */\n      revert\n        /* \"#utility.yul\":5621:5902   */\n    tag_242:\n        /* \"#utility.yul\":5704:5731   */\n      tag_334\n        /* \"#utility.yul\":5726:5730   */\n      dup3\n        /* \"#utility.yul\":5704:5731   */\n      tag_228\n      jump\t// in\n    tag_334:\n        /* \"#utility.yul\":5696:5702   */\n      dup2\n        /* \"#utility.yul\":5692:5732   */\n      add\n        /* \"#utility.yul\":5834:5840   */\n      dup2\n        /* \"#utility.yul\":5822:5832   */\n      dup2\n        /* \"#utility.yul\":5819:5841   */\n      lt\n        /* \"#utility.yul\":5798:5816   */\n      0xffffffffffffffff\n        /* \"#utility.yul\":5786:5796   */\n      dup3\n        /* \"#utility.yul\":5783:5817   */\n      gt\n        /* \"#utility.yul\":5780:5842   */\n      or\n        /* \"#utility.yul\":5777:5865   */\n      iszero\n      tag_335\n      jumpi\n        /* \"#utility.yul\":5845:5863   */\n      tag_336\n      tag_100\n      jump\t// in\n    tag_336:\n        /* \"#utility.yul\":5777:5865   */\n    tag_335:\n        /* \"#utility.yul\":5885:5895   */\n      dup1\n        /* \"#utility.yul\":5881:5883   */\n      0x40\n        /* \"#utility.yul\":5874:5896   */\n      mstore\n        /* \"#utility.yul\":5664:5902   */\n      pop\n        /* \"#utility.yul\":5621:5902   */\n      pop\n      pop\n      jump\t// out\n        /* \"#utility.yul\":5908:6037   */\n    tag_243:\n        /* \"#utility.yul\":5942:5948   */\n      0x00\n        /* \"#utility.yul\":5969:5989   */\n      tag_338\n      tag_219\n      jump\t// in\n    tag_338:\n        /* \"#utility.yul\":5959:5989   */\n      swap1\n      pop\n        /* \"#utility.yul\":5998:6031   */\n      tag_339\n        /* \"#utility.yul\":6026:6030   */\n      dup3\n        /* \"#utility.yul\":6018:6024   */\n      dup3\n        /* \"#utility.yul\":5998:6031   */\n      tag_242\n      jump\t// in\n    tag_339:\n        /* \"#utility.yul\":5908:6037   */\n      swap2\n      swap1\n      pop\n      jump\t// out\n        /* \"#utility.yul\":6043:6351   */\n    tag_244:\n        /* \"#utility.yul\":6105:6109   */\n      0x00\n        /* \"#utility.yul\":6195:6213   */\n      0xffffffffffffffff\n        /* \"#utility.yul\":6187:6193   */\n      dup3\n        /* \"#utility.yul\":6184:6214   */\n      gt\n        /* \"#utility.yul\":6181:6237   */\n      iszero\n      tag_341\n      jumpi\n        /* \"#utility.yul\":6217:6235   */\n      tag_342\n      tag_100\n      jump\t// in\n    tag_342:\n        /* \"#utility.yul\":6181:6237   */\n    tag_341:\n        /* \"#utility.yul\":6255:6284   */\n      tag_343\n        /* \"#utility.yul\":6277:6283   */\n      dup3\n        /* \"#utility.yul\":6255:6284   */\n      tag_228\n      jump\t// in\n    tag_343:\n        /* \"#utility.yul\":6247:6284   */\n      swap1\n      pop\n        /* \"#utility.yul\":6339:6343   */\n      0x20\n        /* \"#utility.yul\":6333:6337   */\n      dup2\n        /* \"#utility.yul\":6329:6344   */\n      add\n        /* \"#utility.yul\":6321:6344   */\n      swap1\n      pop\n        /* \"#utility.yul\":6043:6351   */\n      swap2\n      swap1\n      pop\n      jump\t// out\n        /* \"#utility.yul\":6357:6503   */\n    tag_245:\n        /* \"#utility.yul\":6454:6460   */\n      dup3\n        /* \"#utility.yul\":6449:6452   */\n      dup2\n        /* \"#utility.yul\":6444:6447   */\n      dup4\n        /* \"#utility.yul\":6431:6461   */\n      calldatacopy\n        /* \"#utility.yul\":6495:6496   */\n      0x00\n        /* \"#utility.yul\":6486:6492   */\n      dup4\n        /* \"#utility.yul\":6481:6484   */\n      dup4\n        /* \"#utility.yul\":6477:6493   */\n      add\n        /* \"#utility.yul\":6470:6497   */\n      mstore\n        /* \"#utility.yul\":6357:6503   */\n      pop\n      pop\n      pop\n      jump\t// out\n        /* \"#utility.yul\":6509:6934   */\n    tag_246:\n        /* \"#utility.yul\":6587:6592   */\n      0x00\n        /* \"#utility.yul\":6612:6678   */\n      tag_346\n        /* \"#utility.yul\":6628:6677   */\n      tag_347\n        /* \"#utility.yul\":6670:6676   */\n      dup5\n        /* \"#utility.yul\":6628:6677   */\n      tag_244\n      jump\t// in\n    tag_347:\n        /* \"#utility.yul\":6612:6678   */\n      tag_243\n      jump\t// in\n    tag_346:\n        /* \"#utility.yul\":6603:6678   */\n      swap1\n      pop\n        /* \"#utility.yul\":6701:6707   */\n      dup3\n        /* \"#utility.yul\":6694:6699   */\n      dup2\n        /* \"#utility.yul\":6687:6708   */\n      mstore\n        /* \"#utility.yul\":6739:6743   */\n      0x20\n        /* \"#utility.yul\":6732:6737   */\n      dup2\n        /* \"#utility.yul\":6728:6744   */\n      add\n        /* \"#utility.yul\":6777:6780   */\n      dup5\n        /* \"#utility.yul\":6768:6774   */\n      dup5\n        /* \"#utility.yul\":6763:6766   */\n      dup5\n        /* \"#utility.yul\":6759:6775   */\n      add\n        /* \"#utility.yul\":6756:6781   */\n      gt\n        /* \"#utility.yul\":6753:6865   */\n      iszero\n      tag_348\n      jumpi\n        /* \"#utility.yul\":6784:6863   */\n      tag_349\n      tag_241\n      jump\t// in\n    tag_349:\n        /* \"#utility.yul\":6753:6865   */\n    tag_348:\n        /* \"#utility.yul\":6874:6928   */\n      tag_350\n        /* \"#utility.yul\":6921:6927   */\n      dup5\n        /* \"#utility.yul\":6916:6919   */\n      dup3\n        /* \"#utility.yul\":6911:6914   */\n      dup6\n        /* \"#utility.yul\":6874:6928   */\n      tag_245\n      jump\t// in\n    tag_350:\n        /* \"#utility.yul\":6593:6934   */\n      pop\n        /* \"#utility.yul\":6509:6934   */\n      swap4\n      swap3\n      pop\n      pop\n      pop\n      jump\t// out\n        /* \"#utility.yul\":6954:7294   */\n    tag_247:\n        /* \"#utility.yul\":7010:7015   */\n      0x00\n        /* \"#utility.yul\":7059:7062   */\n      dup3\n        /* \"#utility.yul\":7052:7056   */\n      0x1f\n        /* \"#utility.yul\":7044:7050   */\n      dup4\n        /* \"#utility.yul\":7040:7057   */\n      add\n        /* \"#utility.yul\":7036:7063   */\n      slt\n        /* \"#utility.yul\":7026:7148   */\n      tag_352\n      jumpi\n        /* \"#utility.yul\":7067:7146   */\n      tag_353\n      tag_240\n      jump\t// in\n    tag_353:\n        /* \"#utility.yul\":7026:7148   */\n    tag_352:\n        /* \"#utility.yul\":7184:7190   */\n      dup2\n        /* \"#utility.yul\":7171:7191   */\n      calldataload\n        /* \"#utility.yul\":7209:7288   */\n      tag_354\n        /* \"#utility.yul\":7284:7287   */\n      dup5\n        /* \"#utility.yul\":7276:7282   */\n      dup3\n        /* \"#utility.yul\":7269:7273   */\n      0x20\n        /* \"#utility.yul\":7261:7267   */\n      dup7\n        /* \"#utility.yul\":7257:7274   */\n      add\n        /* \"#utility.yul\":7209:7288   */\n      tag_246\n      jump\t// in\n    tag_354:\n        /* \"#utility.yul\":7200:7288   */\n      swap2\n      pop\n        /* \"#utility.yul\":7016:7294   */\n      pop\n        /* \"#utility.yul\":6954:7294   */\n      swap3\n      swap2\n      pop\n      pop\n      jump\t// out\n        /* \"#utility.yul\":7300:7411   */\n    tag_248:\n        /* \"#utility.yul\":7385:7386   */\n      0x04\n        /* \"#utility.yul\":7378:7383   */\n      dup2\n        /* \"#utility.yul\":7375:7387   */\n      lt\n        /* \"#utility.yul\":7365:7405   */\n      tag_356\n      jumpi\n        /* \"#utility.yul\":7401:7402   */\n      0x00\n        /* \"#utility.yul\":7398:7399   */\n      dup1\n        /* \"#utility.yul\":7391:7403   */\n      revert\n        /* \"#utility.yul\":7365:7405   */\n    tag_356:\n        /* \"#utility.yul\":7300:7411   */\n      pop\n      jump\t// out\n        /* \"#utility.yul\":7417:7580   */\n    tag_249:\n        /* \"#utility.yul\":7475:7480   */\n      0x00\n        /* \"#utility.yul\":7513:7519   */\n      dup2\n        /* \"#utility.yul\":7500:7520   */\n      calldataload\n        /* \"#utility.yul\":7491:7520   */\n      swap1\n      pop\n        /* \"#utility.yul\":7529:7574   */\n      tag_358\n        /* \"#utility.yul\":7568:7573   */\n      dup2\n        /* \"#utility.yul\":7529:7574   */\n      tag_248\n      jump\t// in\n    tag_358:\n        /* \"#utility.yul\":7417:7580   */\n      swap3\n      swap2\n      pop\n      pop\n      jump\t// out\n        /* \"#utility.yul\":7586:7694   */\n    tag_250:\n        /* \"#utility.yul\":7668:7669   */\n      0x04\n        /* \"#utility.yul\":7661:7666   */\n      dup2\n        /* \"#utility.yul\":7658:7670   */\n      lt\n        /* \"#utility.yul\":7648:7688   */\n      tag_360\n      jumpi\n        /* \"#utility.yul\":7684:7685   */\n      0x00\n        /* \"#utility.yul\":7681:7682   */\n      dup1\n        /* \"#utility.yul\":7674:7686   */\n      revert\n        /* \"#utility.yul\":7648:7688   */\n    tag_360:\n        /* \"#utility.yul\":7586:7694   */\n      pop\n      jump\t// out\n        /* \"#utility.yul\":7700:7857   */\n    tag_251:\n        /* \"#utility.yul\":7755:7760   */\n      0x00\n        /* \"#utility.yul\":7793:7799   */\n      dup2\n        /* \"#utility.yul\":7780:7800   */\n      calldataload\n        /* \"#utility.yul\":7771:7800   */\n      swap1\n      pop\n        /* \"#utility.yul\":7809:7851   */\n      tag_362\n        /* \"#utility.yul\":7845:7850   */\n      dup2\n        /* \"#utility.yul\":7809:7851   */\n      tag_250\n      jump\t// in\n    tag_362:\n        /* \"#utility.yul\":7700:7857   */\n      swap3\n      swap2\n      pop\n      pop\n      jump\t// out\n        /* \"#utility.yul\":7863:9288   */\n    tag_20:\n        /* \"#utility.yul\":8007:8013   */\n      0x00\n        /* \"#utility.yul\":8015:8021   */\n      dup1\n        /* \"#utility.yul\":8023:8029   */\n      0x00\n        /* \"#utility.yul\":8031:8037   */\n      dup1\n        /* \"#utility.yul\":8039:8045   */\n      0x00\n        /* \"#utility.yul\":8047:8053   */\n      dup1\n        /* \"#utility.yul\":8055:8061   */\n      0x00\n        /* \"#utility.yul\":8104:8107   */\n      0xe0\n        /* \"#utility.yul\":8092:8101   */\n      dup9\n        /* \"#utility.yul\":8083:8090   */\n      dup11\n        /* \"#utility.yul\":8079:8102   */\n      sub\n        /* \"#utility.yul\":8075:8108   */\n      slt\n        /* \"#utility.yul\":8072:8192   */\n      iszero\n      tag_364\n      jumpi\n        /* \"#utility.yul\":8111:8190   */\n      tag_365\n      tag_220\n      jump\t// in\n    tag_365:\n        /* \"#utility.yul\":8072:8192   */\n    tag_364:\n        /* \"#utility.yul\":8231:8232   */\n      0x00\n        /* \"#utility.yul\":8256:8309   */\n      tag_366\n        /* \"#utility.yul\":8301:8308   */\n      dup11\n        /* \"#utility.yul\":8292:8298   */\n      dup3\n        /* \"#utility.yul\":8281:8290   */\n      dup12\n        /* \"#utility.yul\":8277:8299   */\n      add\n        /* \"#utility.yul\":8256:8309   */\n      tag_224\n      jump\t// in\n    tag_366:\n        /* \"#utility.yul\":8246:8309   */\n      swap8\n      pop\n        /* \"#utility.yul\":8202:8319   */\n      pop\n        /* \"#utility.yul\":8386:8388   */\n      0x20\n        /* \"#utility.yul\":8375:8384   */\n      dup9\n        /* \"#utility.yul\":8371:8389   */\n      add\n        /* \"#utility.yul\":8358:8390   */\n      calldataload\n        /* \"#utility.yul\":8417:8435   */\n      0xffffffffffffffff\n        /* \"#utility.yul\":8409:8415   */\n      dup2\n        /* \"#utility.yul\":8406:8436   */\n      gt\n        /* \"#utility.yul\":8403:8520   */\n      iszero\n      tag_367\n      jumpi\n        /* \"#utility.yul\":8439:8518   */\n      tag_368\n      tag_221\n      jump\t// in\n    tag_368:\n        /* \"#utility.yul\":8403:8520   */\n    tag_367:\n        /* \"#utility.yul\":8544:8607   */\n      tag_369\n        /* \"#utility.yul\":8599:8606   */\n      dup11\n        /* \"#utility.yul\":8590:8596   */\n      dup3\n        /* \"#utility.yul\":8579:8588   */\n      dup12\n        /* \"#utility.yul\":8575:8597   */\n      add\n        /* \"#utility.yul\":8544:8607   */\n      tag_247\n      jump\t// in\n    tag_369:\n        /* \"#utility.yul\":8534:8607   */\n      swap7\n      pop\n        /* \"#utility.yul\":8329:8617   */\n      pop\n        /* \"#utility.yul\":8656:8658   */\n      0x40\n        /* \"#utility.yul\":8682:8735   */\n      tag_370\n        /* \"#utility.yul\":8727:8734   */\n      dup11\n        /* \"#utility.yul\":8718:8724   */\n      dup3\n        /* \"#utility.yul\":8707:8716   */\n      dup12\n        /* \"#utility.yul\":8703:8725   */\n      add\n        /* \"#utility.yul\":8682:8735   */\n      tag_224\n      jump\t// in\n    tag_370:\n        /* \"#utility.yul\":8672:8735   */\n      swap6\n      pop\n        /* \"#utility.yul\":8627:8745   */\n      pop\n        /* \"#utility.yul\":8784:8786   */\n      0x60\n        /* \"#utility.yul\":8810:8863   */\n      tag_371\n        /* \"#utility.yul\":8855:8862   */\n      dup11\n        /* \"#utility.yul\":8846:8852   */\n      dup3\n        /* \"#utility.yul\":8835:8844   */\n      dup12\n        /* \"#utility.yul\":8831:8853   */\n      add\n        /* \"#utility.yul\":8810:8863   */\n      tag_224\n      jump\t// in\n    tag_371:\n        /* \"#utility.yul\":8800:8863   */\n      swap5\n      pop\n        /* \"#utility.yul\":8755:8873   */\n      pop\n        /* \"#utility.yul\":8912:8915   */\n      0x80\n        /* \"#utility.yul\":8939:9004   */\n      tag_372\n        /* \"#utility.yul\":8996:9003   */\n      dup11\n        /* \"#utility.yul\":8987:8993   */\n      dup3\n        /* \"#utility.yul\":8976:8985   */\n      dup12\n        /* \"#utility.yul\":8972:8994   */\n      add\n        /* \"#utility.yul\":8939:9004   */\n      tag_249\n      jump\t// in\n    tag_372:\n        /* \"#utility.yul\":8929:9004   */\n      swap4\n      pop\n        /* \"#utility.yul\":8883:9014   */\n      pop\n        /* \"#utility.yul\":9053:9056   */\n      0xa0\n        /* \"#utility.yul\":9080:9142   */\n      tag_373\n        /* \"#utility.yul\":9134:9141   */\n      dup11\n        /* \"#utility.yul\":9125:9131   */\n      dup3\n        /* \"#utility.yul\":9114:9123   */\n      dup12\n        /* \"#utility.yul\":9110:9132   */\n      add\n        /* \"#utility.yul\":9080:9142   */\n      tag_251\n      jump\t// in\n    tag_373:\n        /* \"#utility.yul\":9070:9142   */\n      swap3\n      pop\n        /* \"#utility.yul\":9024:9152   */\n      pop\n        /* \"#utility.yul\":9191:9194   */\n      0xc0\n        /* \"#utility.yul\":9218:9271   */\n      tag_374\n        /* \"#utility.yul\":9263:9270   */\n      dup11\n        /* \"#utility.yul\":9254:9260   */\n      dup3\n        /* \"#utility.yul\":9243:9252   */\n      dup12\n        /* \"#utility.yul\":9239:9261   */\n      add\n        /* \"#utility.yul\":9218:9271   */\n      tag_224\n      jump\t// in\n    tag_374:\n        /* \"#utility.yul\":9208:9271   */\n      swap2\n      pop\n        /* \"#utility.yul\":9162:9281   */\n      pop\n        /* \"#utility.yul\":7863:9288   */\n      swap3\n      swap6\n      swap9\n      swap2\n      swap5\n      swap8\n      pop\n      swap3\n      swap6\n      pop\n      jump\t// out\n        /* \"#utility.yul\":9294:9647   */\n    tag_24:\n        /* \"#utility.yul\":9365:9371   */\n      0x00\n        /* \"#utility.yul\":9414:9416   */\n      0x20\n        /* \"#utility.yul\":9402:9411   */\n      dup3\n        /* \"#utility.yul\":9393:9400   */\n      dup5\n        /* \"#utility.yul\":9389:9412   */\n      sub\n        /* \"#utility.yul\":9385:9417   */\n      slt\n        /* \"#utility.yul\":9382:9501   */\n      iszero\n      tag_376\n      jumpi\n        /* \"#utility.yul\":9420:9499   */\n      tag_377\n      tag_220\n      jump\t// in\n    tag_377:\n        /* \"#utility.yul\":9382:9501   */\n    tag_376:\n        /* \"#utility.yul\":9540:9541   */\n      0x00\n        /* \"#utility.yul\":9565:9630   */\n      tag_378\n        /* \"#utility.yul\":9622:9629   */\n      dup5\n        /* \"#utility.yul\":9613:9619   */\n      dup3\n        /* \"#utility.yul\":9602:9611   */\n      dup6\n        /* \"#utility.yul\":9598:9620   */\n      add\n        /* \"#utility.yul\":9565:9630   */\n      tag_249\n      jump\t// in\n    tag_378:\n        /* \"#utility.yul\":9555:9630   */\n      swap2\n      pop\n        /* \"#utility.yul\":9511:9640   */\n      pop\n        /* \"#utility.yul\":9294:9647   */\n      swap3\n      swap2\n      pop\n      pop\n      jump\t// out\n        /* \"#utility.yul\":9653:9771   */\n    tag_252:\n        /* \"#utility.yul\":9740:9764   */\n      tag_380\n        /* \"#utility.yul\":9758:9763   */\n      dup2\n        /* \"#utility.yul\":9740:9764   */\n      tag_222\n      jump\t// in\n    tag_380:\n        /* \"#utility.yul\":9735:9738   */\n      dup3\n        /* \"#utility.yul\":9728:9765   */\n      mstore\n        /* \"#utility.yul\":9653:9771   */\n      pop\n      pop\n      jump\t// out\n        /* \"#utility.yul\":9777:9999   */\n    tag_27:\n        /* \"#utility.yul\":9870:9874   */\n      0x00\n        /* \"#utility.yul\":9908:9910   */\n      0x20\n        /* \"#utility.yul\":9897:9906   */\n      dup3\n        /* \"#utility.yul\":9893:9911   */\n      add\n        /* \"#utility.yul\":9885:9911   */\n      swap1\n      pop\n        /* \"#utility.yul\":9921:9992   */\n      tag_382\n        /* \"#utility.yul\":9989:9990   */\n      0x00\n        /* \"#utility.yul\":9978:9987   */\n      dup4\n        /* \"#utility.yul\":9974:9991   */\n      add\n        /* \"#utility.yul\":9965:9971   */\n      dup5\n        /* \"#utility.yul\":9921:9992   */\n      tag_252\n      jump\t// in\n    tag_382:\n        /* \"#utility.yul\":9777:9999   */\n      swap3\n      swap2\n      pop\n      pop\n      jump\t// out\n        /* \"#utility.yul\":10005:10876   */\n    tag_31:\n        /* \"#utility.yul\":10292:10296   */\n      0x00\n        /* \"#utility.yul\":10330:10332   */\n      0x60\n        /* \"#utility.yul\":10319:10328   */\n      dup3\n        /* \"#utility.yul\":10315:10333   */\n      add\n        /* \"#utility.yul\":10307:10333   */\n      swap1\n      pop\n        /* \"#utility.yul\":10379:10388   */\n      dup2\n        /* \"#utility.yul\":10373:10377   */\n      dup2\n        /* \"#utility.yul\":10369:10389   */\n      sub\n        /* \"#utility.yul\":10365:10366   */\n      0x00\n        /* \"#utility.yul\":10354:10363   */\n      dup4\n        /* \"#utility.yul\":10350:10367   */\n      add\n        /* \"#utility.yul\":10343:10390   */\n      mstore\n        /* \"#utility.yul\":10407:10511   */\n      tag_384\n        /* \"#utility.yul\":10506:10510   */\n      dup2\n        /* \"#utility.yul\":10497:10503   */\n      dup7\n        /* \"#utility.yul\":10407:10511   */\n      tag_239\n      jump\t// in\n    tag_384:\n        /* \"#utility.yul\":10399:10511   */\n      swap1\n      pop\n        /* \"#utility.yul\":10558:10567   */\n      dup2\n        /* \"#utility.yul\":10552:10556   */\n      dup2\n        /* \"#utility.yul\":10548:10568   */\n      sub\n        /* \"#utility.yul\":10543:10545   */\n      0x20\n        /* \"#utility.yul\":10532:10541   */\n      dup4\n        /* \"#utility.yul\":10528:10546   */\n      add\n        /* \"#utility.yul\":10521:10569   */\n      mstore\n        /* \"#utility.yul\":10586:10690   */\n      tag_385\n        /* \"#utility.yul\":10685:10689   */\n      dup2\n        /* \"#utility.yul\":10676:10682   */\n      dup6\n        /* \"#utility.yul\":10586:10690   */\n      tag_239\n      jump\t// in\n    tag_385:\n        /* \"#utility.yul\":10578:10690   */\n      swap1\n      pop\n        /* \"#utility.yul\":10737:10746   */\n      dup2\n        /* \"#utility.yul\":10731:10735   */\n      dup2\n        /* \"#utility.yul\":10727:10747   */\n      sub\n        /* \"#utility.yul\":10722:10724   */\n      0x40\n        /* \"#utility.yul\":10711:10720   */\n      dup4\n        /* \"#utility.yul\":10707:10725   */\n      add\n        /* \"#utility.yul\":10700:10748   */\n      mstore\n        /* \"#utility.yul\":10765:10869   */\n      tag_386\n        /* \"#utility.yul\":10864:10868   */\n      dup2\n        /* \"#utility.yul\":10855:10861   */\n      dup5\n        /* \"#utility.yul\":10765:10869   */\n      tag_239\n      jump\t// in\n    tag_386:\n        /* \"#utility.yul\":10757:10869   */\n      swap1\n      pop\n        /* \"#utility.yul\":10005:10876   */\n      swap5\n      swap4\n      pop\n      pop\n      pop\n      pop\n      jump\t// out\n        /* \"#utility.yul\":10882:12161   */\n    tag_34:\n        /* \"#utility.yul\":11017:11023   */\n      0x00\n        /* \"#utility.yul\":11025:11031   */\n      dup1\n        /* \"#utility.yul\":11033:11039   */\n      0x00\n        /* \"#utility.yul\":11041:11047   */\n      dup1\n        /* \"#utility.yul\":11049:11055   */\n      0x00\n        /* \"#utility.yul\":11057:11063   */\n      dup1\n        /* \"#utility.yul\":11106:11109   */\n      0xc0\n        /* \"#utility.yul\":11094:11103   */\n      dup8\n        /* \"#utility.yul\":11085:11092   */\n      dup10\n        /* \"#utility.yul\":11081:11104   */\n      sub\n        /* \"#utility.yul\":11077:11110   */\n      slt\n        /* \"#utility.yul\":11074:11194   */\n      iszero\n      tag_388\n      jumpi\n        /* \"#utility.yul\":11113:11192   */\n      tag_389\n      tag_220\n      jump\t// in\n    tag_389:\n        /* \"#utility.yul\":11074:11194   */\n    tag_388:\n        /* \"#utility.yul\":11233:11234   */\n      0x00\n        /* \"#utility.yul\":11258:11311   */\n      tag_390\n        /* \"#utility.yul\":11303:11310   */\n      dup10\n        /* \"#utility.yul\":11294:11300   */\n      dup3\n        /* \"#utility.yul\":11283:11292   */\n      dup11\n        /* \"#utility.yul\":11279:11301   */\n      add\n        /* \"#utility.yul\":11258:11311   */\n      tag_224\n      jump\t// in\n    tag_390:\n        /* \"#utility.yul\":11248:11311   */\n      swap7\n      pop\n        /* \"#utility.yul\":11204:11321   */\n      pop\n        /* \"#utility.yul\":11388:11390   */\n      0x20\n        /* \"#utility.yul\":11377:11386   */\n      dup8\n        /* \"#utility.yul\":11373:11391   */\n      add\n        /* \"#utility.yul\":11360:11392   */\n      calldataload\n        /* \"#utility.yul\":11419:11437   */\n      0xffffffffffffffff\n        /* \"#utility.yul\":11411:11417   */\n      dup2\n        /* \"#utility.yul\":11408:11438   */\n      gt\n        /* \"#utility.yul\":11405:11522   */\n      iszero\n      tag_391\n      jumpi\n        /* \"#utility.yul\":11441:11520   */\n      tag_392\n      tag_221\n      jump\t// in\n    tag_392:\n        /* \"#utility.yul\":11405:11522   */\n    tag_391:\n        /* \"#utility.yul\":11546:11609   */\n      tag_393\n        /* \"#utility.yul\":11601:11608   */\n      dup10\n        /* \"#utility.yul\":11592:11598   */\n      dup3\n        /* \"#utility.yul\":11581:11590   */\n      dup11\n        /* \"#utility.yul\":11577:11599   */\n      add\n        /* \"#utility.yul\":11546:11609   */\n      tag_247\n      jump\t// in\n    tag_393:\n        /* \"#utility.yul\":11536:11609   */\n      swap6\n      pop\n        /* \"#utility.yul\":11331:11619   */\n      pop\n        /* \"#utility.yul\":11658:11660   */\n      0x40\n        /* \"#utility.yul\":11684:11737   */\n      tag_394\n        /* \"#utility.yul\":11729:11736   */\n      dup10\n        /* \"#utility.yul\":11720:11726   */\n      dup3\n        /* \"#utility.yul\":11709:11718   */\n      dup11\n        /* \"#utility.yul\":11705:11727   */\n      add\n        /* \"#utility.yul\":11684:11737   */\n      tag_224\n      jump\t// in\n    tag_394:\n        /* \"#utility.yul\":11674:11737   */\n      swap5\n      pop\n        /* \"#utility.yul\":11629:11747   */\n      pop\n        /* \"#utility.yul\":11786:11788   */\n      0x60\n        /* \"#utility.yul\":11812:11877   */\n      tag_395\n        /* \"#utility.yul\":11869:11876   */\n      dup10\n        /* \"#utility.yul\":11860:11866   */\n      dup3\n        /* \"#utility.yul\":11849:11858   */\n      dup11\n        /* \"#utility.yul\":11845:11867   */\n      add\n        /* \"#utility.yul\":11812:11877   */\n      tag_249\n      jump\t// in\n    tag_395:\n        /* \"#utility.yul\":11802:11877   */\n      swap4\n      pop\n        /* \"#utility.yul\":11757:11887   */\n      pop\n        /* \"#utility.yul\":11926:11929   */\n      0x80\n        /* \"#utility.yul\":11953:12015   */\n      tag_396\n        /* \"#utility.yul\":12007:12014   */\n      dup10\n        /* \"#utility.yul\":11998:12004   */\n      dup3\n        /* \"#utility.yul\":11987:11996   */\n      dup11\n        /* \"#utility.yul\":11983:12005   */\n      add\n        /* \"#utility.yul\":11953:12015   */\n      tag_251\n      jump\t// in\n    tag_396:\n        /* \"#utility.yul\":11943:12015   */\n      swap3\n      pop\n        /* \"#utility.yul\":11897:12025   */\n      pop\n        /* \"#utility.yul\":12064:12067   */\n      0xa0\n        /* \"#utility.yul\":12091:12144   */\n      tag_397\n        /* \"#utility.yul\":12136:12143   */\n      dup10\n        /* \"#utility.yul\":12127:12133   */\n      dup3\n        /* \"#utility.yul\":12116:12125   */\n      dup11\n        /* \"#utility.yul\":12112:12134   */\n      add\n        /* \"#utility.yul\":12091:12144   */\n      tag_224\n      jump\t// in\n    tag_397:\n        /* \"#utility.yul\":12081:12144   */\n      swap2\n      pop\n        /* \"#utility.yul\":12035:12154   */\n      pop\n        /* \"#utility.yul\":10882:12161   */\n      swap3\n      swap6\n      pop\n      swap3\n      swap6\n      pop\n      swap3\n      swap6\n      jump\t// out\n        /* \"#utility.yul\":12167:12720   */\n    tag_42:\n        /* \"#utility.yul\":12344:12348   */\n      0x00\n        /* \"#utility.yul\":12382:12385   */\n      0x80\n        /* \"#utility.yul\":12371:12380   */\n      dup3\n        /* \"#utility.yul\":12367:12386   */\n      add\n        /* \"#utility.yul\":12359:12386   */\n      swap1\n      pop\n        /* \"#utility.yul\":12396:12467   */\n      tag_399\n        /* \"#utility.yul\":12464:12465   */\n      0x00\n        /* \"#utility.yul\":12453:12462   */\n      dup4\n        /* \"#utility.yul\":12449:12466   */\n      add\n        /* \"#utility.yul\":12440:12446   */\n      dup8\n        /* \"#utility.yul\":12396:12467   */\n      tag_252\n      jump\t// in\n    tag_399:\n        /* \"#utility.yul\":12477:12549   */\n      tag_400\n        /* \"#utility.yul\":12545:12547   */\n      0x20\n        /* \"#utility.yul\":12534:12543   */\n      dup4\n        /* \"#utility.yul\":12530:12548   */\n      add\n        /* \"#utility.yul\":12521:12527   */\n      dup7\n        /* \"#utility.yul\":12477:12549   */\n      tag_252\n      jump\t// in\n    tag_400:\n        /* \"#utility.yul\":12559:12631   */\n      tag_401\n        /* \"#utility.yul\":12627:12629   */\n      0x40\n        /* \"#utility.yul\":12616:12625   */\n      dup4\n        /* \"#utility.yul\":12612:12630   */\n      add\n        /* \"#utility.yul\":12603:12609   */\n      dup6\n        /* \"#utility.yul\":12559:12631   */\n      tag_252\n      jump\t// in\n    tag_401:\n        /* \"#utility.yul\":12641:12713   */\n      tag_402\n        /* \"#utility.yul\":12709:12711   */\n      0x60\n        /* \"#utility.yul\":12698:12707   */\n      dup4\n        /* \"#utility.yul\":12694:12712   */\n      add\n        /* \"#utility.yul\":12685:12691   */\n      dup5\n        /* \"#utility.yul\":12641:12713   */\n      tag_252\n      jump\t// in\n    tag_402:\n        /* \"#utility.yul\":12167:12720   */\n      swap6\n      swap5\n      pop\n      pop\n      pop\n      pop\n      pop\n      jump\t// out\n        /* \"#utility.yul\":12726:12895   */\n    tag_253:\n        /* \"#utility.yul\":12810:12821   */\n      0x00\n        /* \"#utility.yul\":12844:12850   */\n      dup3\n        /* \"#utility.yul\":12839:12842   */\n      dup3\n        /* \"#utility.yul\":12832:12851   */\n      mstore\n        /* \"#utility.yul\":12884:12888   */\n      0x20\n        /* \"#utility.yul\":12879:12882   */\n      dup3\n        /* \"#utility.yul\":12875:12889   */\n      add\n        /* \"#utility.yul\":12860:12889   */\n      swap1\n      pop\n        /* \"#utility.yul\":12726:12895   */\n      swap3\n      swap2\n      pop\n      pop\n      jump\t// out\n        /* \"#utility.yul\":12901:13278   */\n    tag_254:\n        /* \"#utility.yul\":12989:12992   */\n      0x00\n        /* \"#utility.yul\":13017:13056   */\n      tag_405\n        /* \"#utility.yul\":13050:13055   */\n      dup3\n        /* \"#utility.yul\":13017:13056   */\n      tag_225\n      jump\t// in\n    tag_405:\n        /* \"#utility.yul\":13072:13143   */\n      tag_406\n        /* \"#utility.yul\":13136:13142   */\n      dup2\n        /* \"#utility.yul\":13131:13134   */\n      dup6\n        /* \"#utility.yul\":13072:13143   */\n      tag_253\n      jump\t// in\n    tag_406:\n        /* \"#utility.yul\":13065:13143   */\n      swap4\n      pop\n        /* \"#utility.yul\":13152:13217   */\n      tag_407\n        /* \"#utility.yul\":13210:13216   */\n      dup2\n        /* \"#utility.yul\":13205:13208   */\n      dup6\n        /* \"#utility.yul\":13198:13202   */\n      0x20\n        /* \"#utility.yul\":13191:13196   */\n      dup7\n        /* \"#utility.yul\":13187:13203   */\n      add\n        /* \"#utility.yul\":13152:13217   */\n      tag_227\n      jump\t// in\n    tag_407:\n        /* \"#utility.yul\":13242:13271   */\n      tag_408\n        /* \"#utility.yul\":13264:13270   */\n      dup2\n        /* \"#utility.yul\":13242:13271   */\n      tag_228\n      jump\t// in\n    tag_408:\n        /* \"#utility.yul\":13237:13240   */\n      dup5\n        /* \"#utility.yul\":13233:13272   */\n      add\n        /* \"#utility.yul\":13226:13272   */\n      swap2\n      pop\n        /* \"#utility.yul\":12993:13278   */\n      pop\n        /* \"#utility.yul\":12901:13278   */\n      swap3\n      swap2\n      pop\n      pop\n      jump\t// out\n        /* \"#utility.yul\":13284:13435   */\n    tag_255:\n        /* \"#utility.yul\":13381:13428   */\n      tag_410\n        /* \"#utility.yul\":13422:13427   */\n      dup2\n        /* \"#utility.yul\":13381:13428   */\n      tag_233\n      jump\t// in\n    tag_410:\n        /* \"#utility.yul\":13376:13379   */\n      dup3\n        /* \"#utility.yul\":13369:13429   */\n      mstore\n        /* \"#utility.yul\":13284:13435   */\n      pop\n      pop\n      jump\t// out\n        /* \"#utility.yul\":13441:13586   */\n    tag_256:\n        /* \"#utility.yul\":13535:13579   */\n      tag_412\n        /* \"#utility.yul\":13573:13578   */\n      dup2\n        /* \"#utility.yul\":13535:13579   */\n      tag_237\n      jump\t// in\n    tag_412:\n        /* \"#utility.yul\":13530:13533   */\n      dup3\n        /* \"#utility.yul\":13523:13580   */\n      mstore\n        /* \"#utility.yul\":13441:13586   */\n      pop\n      pop\n      jump\t// out\n        /* \"#utility.yul\":13592:14492   */\n    tag_47:\n        /* \"#utility.yul\":13862:13866   */\n      0x00\n        /* \"#utility.yul\":13900:13903   */\n      0xc0\n        /* \"#utility.yul\":13889:13898   */\n      dup3\n        /* \"#utility.yul\":13885:13904   */\n      add\n        /* \"#utility.yul\":13877:13904   */\n      swap1\n      pop\n        /* \"#utility.yul\":13950:13959   */\n      dup2\n        /* \"#utility.yul\":13944:13948   */\n      dup2\n        /* \"#utility.yul\":13940:13960   */\n      sub\n        /* \"#utility.yul\":13936:13937   */\n      0x00\n        /* \"#utility.yul\":13925:13934   */\n      dup4\n        /* \"#utility.yul\":13921:13938   */\n      add\n        /* \"#utility.yul\":13914:13961   */\n      mstore\n        /* \"#utility.yul\":13978:14056   */\n      tag_414\n        /* \"#utility.yul\":14051:14055   */\n      dup2\n        /* \"#utility.yul\":14042:14048   */\n      dup10\n        /* \"#utility.yul\":13978:14056   */\n      tag_254\n      jump\t// in\n    tag_414:\n        /* \"#utility.yul\":13970:14056   */\n      swap1\n      pop\n        /* \"#utility.yul\":14066:14138   */\n      tag_415\n        /* \"#utility.yul\":14134:14136   */\n      0x20\n        /* \"#utility.yul\":14123:14132   */\n      dup4\n        /* \"#utility.yul\":14119:14137   */\n      add\n        /* \"#utility.yul\":14110:14116   */\n      dup9\n        /* \"#utility.yul\":14066:14138   */\n      tag_252\n      jump\t// in\n    tag_415:\n        /* \"#utility.yul\":14148:14220   */\n      tag_416\n        /* \"#utility.yul\":14216:14218   */\n      0x40\n        /* \"#utility.yul\":14205:14214   */\n      dup4\n        /* \"#utility.yul\":14201:14219   */\n      add\n        /* \"#utility.yul\":14192:14198   */\n      dup8\n        /* \"#utility.yul\":14148:14220   */\n      tag_252\n      jump\t// in\n    tag_416:\n        /* \"#utility.yul\":14230:14312   */\n      tag_417\n        /* \"#utility.yul\":14308:14310   */\n      0x60\n        /* \"#utility.yul\":14297:14306   */\n      dup4\n        /* \"#utility.yul\":14293:14311   */\n      add\n        /* \"#utility.yul\":14284:14290   */\n      dup7\n        /* \"#utility.yul\":14230:14312   */\n      tag_255\n      jump\t// in\n    tag_417:\n        /* \"#utility.yul\":14322:14402   */\n      tag_418\n        /* \"#utility.yul\":14397:14400   */\n      0x80\n        /* \"#utility.yul\":14386:14395   */\n      dup4\n        /* \"#utility.yul\":14382:14401   */\n      add\n        /* \"#utility.yul\":14373:14379   */\n      dup6\n        /* \"#utility.yul\":14322:14402   */\n      tag_256\n      jump\t// in\n    tag_418:\n        /* \"#utility.yul\":14412:14485   */\n      tag_419\n        /* \"#utility.yul\":14480:14483   */\n      0xa0\n        /* \"#utility.yul\":14469:14478   */\n      dup4\n        /* \"#utility.yul\":14465:14484   */\n      add\n        /* \"#utility.yul\":14456:14462   */\n      dup5\n        /* \"#utility.yul\":14412:14485   */\n      tag_252\n      jump\t// in\n    tag_419:\n        /* \"#utility.yul\":13592:14492   */\n      swap8\n      swap7\n      pop\n      pop\n      pop\n      pop\n      pop\n      pop\n      pop\n      jump\t// out\n        /* \"#utility.yul\":14498:14678   */\n    tag_257:\n        /* \"#utility.yul\":14546:14623   */\n      0x4e487b7100000000000000000000000000000000000000000000000000000000\n        /* \"#utility.yul\":14543:14544   */\n      0x00\n        /* \"#utility.yul\":14536:14624   */\n      mstore\n        /* \"#utility.yul\":14643:14647   */\n      0x22\n        /* \"#utility.yul\":14640:14641   */\n      0x04\n        /* \"#utility.yul\":14633:14648   */\n      mstore\n        /* \"#utility.yul\":14667:14671   */\n      0x24\n        /* \"#utility.yul\":14664:14665   */\n      0x00\n        /* \"#utility.yul\":14657:14672   */\n      revert\n        /* \"#utility.yul\":14684:15004   */\n    tag_52:\n        /* \"#utility.yul\":14728:14734   */\n      0x00\n        /* \"#utility.yul\":14765:14766   */\n      0x02\n        /* \"#utility.yul\":14759:14763   */\n      dup3\n        /* \"#utility.yul\":14755:14767   */\n      div\n        /* \"#utility.yul\":14745:14767   */\n      swap1\n      pop\n        /* \"#utility.yul\":14812:14813   */\n      0x01\n        /* \"#utility.yul\":14806:14810   */\n      dup3\n        /* \"#utility.yul\":14802:14814   */\n      and\n        /* \"#utility.yul\":14833:14851   */\n      dup1\n        /* \"#utility.yul\":14823:14904   */\n      tag_422\n      jumpi\n        /* \"#utility.yul\":14889:14893   */\n      0x7f\n        /* \"#utility.yul\":14881:14887   */\n      dup3\n        /* \"#utility.yul\":14877:14894   */\n      and\n        /* \"#utility.yul\":14867:14894   */\n      swap2\n      pop\n        /* \"#utility.yul\":14823:14904   */\n    tag_422:\n        /* \"#utility.yul\":14951:14953   */\n      0x20\n        /* \"#utility.yul\":14943:14949   */\n      dup3\n        /* \"#utility.yul\":14940:14954   */\n      lt\n        /* \"#utility.yul\":14920:14938   */\n      dup2\n        /* \"#utility.yul\":14917:14955   */\n      sub\n        /* \"#utility.yul\":14914:14998   */\n      tag_423\n      jumpi\n        /* \"#utility.yul\":14970:14988   */\n      tag_424\n      tag_257\n      jump\t// in\n    tag_424:\n        /* \"#utility.yul\":14914:14998   */\n    tag_423:\n        /* \"#utility.yul\":14735:15004   */\n      pop\n        /* \"#utility.yul\":14684:15004   */\n      swap2\n      swap1\n      pop\n      jump\t// out\n        /* \"#utility.yul\":15010:15151   */\n    tag_258:\n        /* \"#utility.yul\":15059:15063   */\n      0x00\n        /* \"#utility.yul\":15082:15085   */\n      dup2\n        /* \"#utility.yul\":15074:15085   */\n      swap1\n      pop\n        /* \"#utility.yul\":15105:15108   */\n      dup2\n        /* \"#utility.yul\":15102:15103   */\n      0x00\n        /* \"#utility.yul\":15095:15109   */\n      mstore\n        /* \"#utility.yul\":15139:15143   */\n      0x20\n        /* \"#utility.yul\":15136:15137   */\n      0x00\n        /* \"#utility.yul\":15126:15144   */\n      keccak256\n        /* \"#utility.yul\":15118:15144   */\n      swap1\n      pop\n        /* \"#utility.yul\":15010:15151   */\n      swap2\n      swap1\n      pop\n      jump\t// out\n        /* \"#utility.yul\":15157:15250   */\n    tag_259:\n        /* \"#utility.yul\":15194:15200   */\n      0x00\n        /* \"#utility.yul\":15241:15243   */\n      0x20\n        /* \"#utility.yul\":15236:15238   */\n      0x1f\n        /* \"#utility.yul\":15229:15234   */\n      dup4\n        /* \"#utility.yul\":15225:15239   */\n      add\n        /* \"#utility.yul\":15221:15244   */\n      div\n        /* \"#utility.yul\":15211:15244   */\n      swap1\n      pop\n        /* \"#utility.yul\":15157:15250   */\n      swap2\n      swap1\n      pop\n      jump\t// out\n        /* \"#utility.yul\":15256:15363   */\n    tag_260:\n        /* \"#utility.yul\":15300:15308   */\n      0x00\n        /* \"#utility.yul\":15350:15355   */\n      dup3\n        /* \"#utility.yul\":15344:15348   */\n      dup3\n        /* \"#utility.yul\":15340:15356   */\n      shl\n        /* \"#utility.yul\":15319:15356   */\n      swap1\n      pop\n        /* \"#utility.yul\":15256:15363   */\n      swap3\n      swap2\n      pop\n      pop\n      jump\t// out\n        /* \"#utility.yul\":15369:15762   */\n    tag_261:\n        /* \"#utility.yul\":15438:15444   */\n      0x00\n        /* \"#utility.yul\":15488:15489   */\n      0x08\n        /* \"#utility.yul\":15476:15486   */\n      dup4\n        /* \"#utility.yul\":15472:15490   */\n      mul\n        /* \"#utility.yul\":15511:15608   */\n      tag_429\n        /* \"#utility.yul\":15541:15607   */\n      0xffffffffffffffffffffffffffffffffffffffffffffffffffffffffffffffff\n        /* \"#utility.yul\":15530:15539   */\n      dup3\n        /* \"#utility.yul\":15511:15608   */\n      tag_260\n      jump\t// in\n    tag_429:\n        /* \"#utility.yul\":15629:15668   */\n      tag_430\n        /* \"#utility.yul\":15659:15667   */\n      dup7\n        /* \"#utility.yul\":15648:15657   */\n      dup4\n        /* \"#utility.yul\":15629:15668   */\n      tag_260\n      jump\t// in\n    tag_430:\n        /* \"#utility.yul\":15617:15668   */\n      swap6\n      pop\n        /* \"#utility.yul\":15701:15705   */\n      dup1\n        /* \"#utility.yul\":15697:15706   */\n      not\n        /* \"#utility.yul\":15690:15695   */\n      dup5\n        /* \"#utility.yul\":15686:15707   */\n      and\n        /* \"#utility.yul\":15677:15707   */\n      swap4\n      pop\n        /* \"#utility.yul\":15750:15754   */\n      dup1\n        /* \"#utility.yul\":15740:15748   */\n      dup7\n        /* \"#utility.yul\":15736:15755   */\n      and\n        /* \"#utility.yul\":15729:15734   */\n      dup5\n        /* \"#utility.yul\":15726:15756   */\n      or\n        /* \"#utility.yul\":15716:15756   */\n      swap3\n      pop\n        /* \"#utility.yul\":15445:15762   */\n      pop\n      pop\n        /* \"#utility.yul\":15369:15762   */\n      swap4\n      swap3\n      pop\n      pop\n      pop\n      jump\t// out\n        /* \"#utility.yul\":15768:15828   */\n    tag_262:\n        /* \"#utility.yul\":15796:15799   */\n      0x00\n        /* \"#utility.yul\":15817:15822   */\n      dup2\n        /* \"#utility.yul\":15810:15822   */\n      swap1\n      pop\n        /* \"#utility.yul\":15768:15828   */\n      swap2\n      swap1\n      pop\n      jump\t// out\n        /* \"#utility.yul\":15834:15976   */\n    tag_263:\n        /* \"#utility.yul\":15884:15893   */\n      0x00\n        /* \"#utility.yul\":15917:15970   */\n      tag_433\n        /* \"#utility.yul\":15935:15969   */\n      tag_434\n        /* \"#utility.yul\":15944:15968   */\n      tag_435\n        /* \"#utility.yul\":15962:15967   */\n      dup5\n        /* \"#utility.yul\":15944:15968   */\n      tag_222\n      jump\t// in\n    tag_435:\n        /* \"#utility.yul\":15935:15969   */\n      tag_262\n      jump\t// in\n    tag_434:\n        /* \"#utility.yul\":15917:15970   */\n      tag_222\n      jump\t// in\n    tag_433:\n        /* \"#utility.yul\":15904:15970   */\n      swap1\n      pop\n        /* \"#utility.yul\":15834:15976   */\n      swap2\n      swap1\n      pop\n      jump\t// out\n        /* \"#utility.yul\":15982:16057   */\n    tag_264:\n        /* \"#utility.yul\":16025:16028   */\n      0x00\n        /* \"#utility.yul\":16046:16051   */\n      dup2\n        /* \"#utility.yul\":16039:16051   */\n      swap1\n      pop\n        /* \"#utility.yul\":15982:16057   */\n      swap2\n      swap1\n      pop\n      jump\t// out\n        /* \"#utility.yul\":16063:16332   */\n    tag_265:\n        /* \"#utility.yul\":16173:16212   */\n      tag_438\n        /* \"#utility.yul\":16204:16211   */\n      dup4\n        /* \"#utility.yul\":16173:16212   */\n      tag_263\n      jump\t// in\n    tag_438:\n        /* \"#utility.yul\":16234:16325   */\n      tag_439\n        /* \"#utility.yul\":16283:16324   */\n      tag_440\n        /* \"#utility.yul\":16307:16323   */\n      dup3\n        /* \"#utility.yul\":16283:16324   */\n      tag_264\n      jump\t// in\n    tag_440:\n        /* \"#utility.yul\":16275:16281   */\n      dup5\n        /* \"#utility.yul\":16268:16272   */\n      dup5\n        /* \"#utility.yul\":16262:16273   */\n      sload\n        /* \"#utility.yul\":16234:16325   */\n      tag_261\n      jump\t// in\n    tag_439:\n        /* \"#utility.yul\":16228:16232   */\n      dup3\n        /* \"#utility.yul\":16221:16326   */\n      sstore\n        /* \"#utility.yul\":16139:16332   */\n      pop\n        /* \"#utility.yul\":16063:16332   */\n      pop\n      pop\n      pop\n      jump\t// out\n        /* \"#utility.yul\":16338:16411   */\n    tag_266:\n        /* \"#utility.yul\":16383:16386   */\n      0x00\n        /* \"#utility.yul\":16338:16411   */\n      swap1\n      jump\t// out\n        /* \"#utility.yul\":16417:16606   */\n    tag_267:\n        /* \"#utility.yul\":16494:16526   */\n      tag_443\n      tag_266\n      jump\t// in\n    tag_443:\n        /* \"#utility.yul\":16535:16600   */\n      tag_444\n        /* \"#utility.yul\":16593:16599   */\n      dup2\n        /* \"#utility.yul\":16585:16591   */\n      dup5\n        /* \"#utility.yul\":16579:16583   */\n      dup5\n        /* \"#utility.yul\":16535:16600   */\n      tag_265\n      jump\t// in\n    tag_444:\n        /* \"#utility.yul\":16470:16606   */\n      pop\n        /* \"#utility.yul\":16417:16606   */\n      pop\n      pop\n      jump\t// out\n        /* \"#utility.yul\":16612:16798   */\n    tag_268:\n        /* \"#utility.yul\":16672:16792   */\n    tag_446:\n        /* \"#utility.yul\":16689:16692   */\n      dup2\n        /* \"#utility.yul\":16682:16687   */\n      dup2\n        /* \"#utility.yul\":16679:16693   */\n      lt\n        /* \"#utility.yul\":16672:16792   */\n      iszero\n      tag_448\n      jumpi\n        /* \"#utility.yul\":16743:16782   */\n      tag_449\n        /* \"#utility.yul\":16780:16781   */\n      0x00\n        /* \"#utility.yul\":16773:16778   */\n      dup3\n        /* \"#utility.yul\":16743:16782   */\n      tag_267\n      jump\t// in\n    tag_449:\n        /* \"#utility.yul\":16716:16717   */\n      0x01\n        /* \"#utility.yul\":16709:16714   */\n      dup2\n        /* \"#utility.yul\":16705:16718   */\n      add\n        /* \"#utility.yul\":16696:16718   */\n      swap1\n      pop\n        /* \"#utility.yul\":16672:16792   */\n      jump(tag_446)\n    tag_448:\n        /* \"#utility.yul\":16612:16798   */\n      pop\n      pop\n      jump\t// out\n        /* \"#utility.yul\":16804:17347   */\n    tag_269:\n        /* \"#utility.yul\":16905:16907   */\n      0x1f\n        /* \"#utility.yul\":16900:16903   */\n      dup3\n        /* \"#utility.yul\":16897:16908   */\n      gt\n        /* \"#utility.yul\":16894:17340   */\n      iszero\n      tag_451\n      jumpi\n        /* \"#utility.yul\":16939:16977   */\n      tag_452\n        /* \"#utility.yul\":16971:16976   */\n      dup2\n        /* \"#utility.yul\":16939:16977   */\n      tag_258\n      jump\t// in\n    tag_452:\n        /* \"#utility.yul\":17023:17052   */\n      tag_453\n        /* \"#utility.yul\":17041:17051   */\n      dup5\n        /* \"#utility.yul\":17023:17052   */\n      tag_259\n      jump\t// in\n    tag_453:\n        /* \"#utility.yul\":17013:17021   */\n      dup2\n        /* \"#utility.yul\":17009:17053   */\n      add\n        /* \"#utility.yul\":17206:17208   */\n      0x20\n        /* \"#utility.yul\":17194:17204   */\n      dup6\n        /* \"#utility.yul\":17191:17209   */\n      lt\n        /* \"#utility.yul\":17188:17237   */\n      iszero\n      tag_454\n      jumpi\n        /* \"#utility.yul\":17227:17235   */\n      dup2\n        /* \"#utility.yul\":17212:17235   */\n      swap1\n      pop\n        /* \"#utility.yul\":17188:17237   */\n    tag_454:\n        /* \"#utility.yul\":17250:17330   */\n      tag_455\n        /* \"#utility.yul\":17306:17328   */\n      tag_456\n        /* \"#utility.yul\":17324:17327   */\n      dup6\n        /* \"#utility.yul\":17306:17328   */\n      tag_259\n      jump\t// in\n    tag_456:\n        /* \"#utility.yul\":17296:17304   */\n      dup4\n        /* \"#utility.yul\":17292:17329   */\n      add\n        /* \"#utility.yul\":17279:17290   */\n      dup3\n        /* \"#utility.yul\":17250:17330   */\n      tag_268\n      jump\t// in\n    tag_455:\n        /* \"#utility.yul\":16909:17340   */\n      pop\n      pop\n        /* \"#utility.yul\":16894:17340   */\n    tag_451:\n        /* \"#utility.yul\":16804:17347   */\n      pop\n      pop\n      pop\n      jump\t// out\n        /* \"#utility.yul\":17353:17470   */\n    tag_270:\n        /* \"#utility.yul\":17407:17415   */\n      0x00\n        /* \"#utility.yul\":17457:17462   */\n      dup3\n        /* \"#utility.yul\":17451:17455   */\n      dup3\n        /* \"#utility.yul\":17447:17463   */\n      shr\n        /* \"#utility.yul\":17426:17463   */\n      swap1\n      pop\n        /* \"#utility.yul\":17353:17470   */\n      swap3\n      swap2\n      pop\n      pop\n      jump\t// out\n        /* \"#utility.yul\":17476:17645   */\n    tag_271:\n        /* \"#utility.yul\":17520:17526   */\n      0x00\n        /* \"#utility.yul\":17553:17604   */\n      tag_459\n        /* \"#utility.yul\":17601:17602   */\n      0x00\n        /* \"#utility.yul\":17597:17603   */\n      not\n        /* \"#utility.yul\":17589:17594   */\n      dup5\n        /* \"#utility.yul\":17586:17587   */\n      0x08\n        /* \"#utility.yul\":17582:17595   */\n      mul\n        /* \"#utility.yul\":17553:17604   */\n      tag_270\n      jump\t// in\n    tag_459:\n        /* \"#utility.yul\":17549:17605   */\n      not\n        /* \"#utility.yul\":17634:17638   */\n      dup1\n        /* \"#utility.yul\":17628:17632   */\n      dup4\n        /* \"#utility.yul\":17624:17639   */\n      and\n        /* \"#utility.yul\":17614:17639   */\n      swap2\n      pop\n        /* \"#utility.yul\":17527:17645   */\n      pop\n        /* \"#utility.yul\":17476:17645   */\n      swap3\n      swap2\n      pop\n      pop\n      jump\t// out\n        /* \"#utility.yul\":17650:17945   */\n    tag_272:\n        /* \"#utility.yul\":17726:17730   */\n      0x00\n        /* \"#utility.yul\":17872:17901   */\n      tag_461\n        /* \"#utility.yul\":17897:17900   */\n      dup4\n        /* \"#utility.yul\":17891:17895   */\n      dup4\n        /* \"#utility.yul\":17872:17901   */\n      tag_271\n      jump\t// in\n    tag_461:\n        /* \"#utility.yul\":17864:17901   */\n      swap2\n      pop\n        /* \"#utility.yul\":17934:17937   */\n      dup3\n        /* \"#utility.yul\":17931:17932   */\n      0x02\n        /* \"#utility.yul\":17927:17938   */\n      mul\n        /* \"#utility.yul\":17921:17925   */\n      dup3\n        /* \"#utility.yul\":17918:17939   */\n      or\n        /* \"#utility.yul\":17910:17939   */\n      swap1\n      pop\n        /* \"#utility.yul\":17650:17945   */\n      swap3\n      swap2\n      pop\n      pop\n      jump\t// out\n        /* \"#utility.yul\":17950:19345   */\n    tag_82:\n        /* \"#utility.yul\":18067:18104   */\n      tag_463\n        /* \"#utility.yul\":18100:18103   */\n      dup3\n        /* \"#utility.yul\":18067:18104   */\n      tag_225\n      jump\t// in\n    tag_463:\n        /* \"#utility.yul\":18169:18187   */\n      0xffffffffffffffff\n        /* \"#utility.yul\":18161:18167   */\n      dup2\n        /* \"#utility.yul\":18158:18188   */\n      gt\n        /* \"#utility.yul\":18155:18211   */\n      iszero\n      tag_464\n      jumpi\n        /* \"#utility.yul\":18191:18209   */\n      tag_465\n      tag_100\n      jump\t// in\n    tag_465:\n        /* \"#utility.yul\":18155:18211   */\n    tag_464:\n        /* \"#utility.yul\":18235:18273   */\n      tag_466\n        /* \"#utility.yul\":18267:18271   */\n      dup3\n        /* \"#utility.yul\":18261:18272   */\n      sload\n        /* \"#utility.yul\":18235:18273   */\n      tag_52\n      jump\t// in\n    tag_466:\n        /* \"#utility.yul\":18320:18387   */\n      tag_467\n        /* \"#utility.yul\":18380:18386   */\n      dup3\n        /* \"#utility.yul\":18372:18378   */\n      dup3\n        /* \"#utility.yul\":18366:18370   */\n      dup6\n        /* \"#utility.yul\":18320:18387   */\n      tag_269\n      jump\t// in\n    tag_467:\n        /* \"#utility.yul\":18414:18415   */\n      0x00\n        /* \"#utility.yul\":18438:18442   */\n      0x20\n        /* \"#utility.yul\":18425:18442   */\n      swap1\n      pop\n        /* \"#utility.yul\":18470:18472   */\n      0x1f\n        /* \"#utility.yul\":18462:18468   */\n      dup4\n        /* \"#utility.yul\":18459:18473   */\n      gt\n        /* \"#utility.yul\":18487:18488   */\n      0x01\n        /* \"#utility.yul\":18482:19100   */\n      dup2\n      eq\n      tag_469\n      jumpi\n        /* \"#utility.yul\":19144:19145   */\n      0x00\n        /* \"#utility.yul\":19161:19167   */\n      dup5\n        /* \"#utility.yul\":19158:19235   */\n      iszero\n      tag_470\n      jumpi\n        /* \"#utility.yul\":19210:19219   */\n      dup3\n        /* \"#utility.yul\":19205:19208   */\n      dup8\n        /* \"#utility.yul\":19201:19220   */\n      add\n        /* \"#utility.yul\":19195:19221   */\n      mload\n        /* \"#utility.yul\":19186:19221   */\n      swap1\n      pop\n        /* \"#utility.yul\":19158:19235   */\n    tag_470:\n        /* \"#utility.yul\":19261:19328   */\n      tag_471\n        /* \"#utility.yul\":19321:19327   */\n      dup6\n        /* \"#utility.yul\":19314:19319   */\n      dup3\n        /* \"#utility.yul\":19261:19328   */\n      tag_272\n      jump\t// in\n    tag_471:\n        /* \"#utility.yul\":19255:19259   */\n      dup7\n        /* \"#utility.yul\":19248:19329   */\n      sstore\n        /* \"#utility.yul\":19117:19339   */\n      pop\n        /* \"#utility.yul\":18452:19339   */\n      jump(tag_468)\n        /* \"#utility.yul\":18482:19100   */\n    tag_469:\n        /* \"#utility.yul\":18534:18538   */\n      0x1f\n        /* \"#utility.yul\":18530:18539   */\n      not\n        /* \"#utility.yul\":18522:18528   */\n      dup5\n        /* \"#utility.yul\":18518:18540   */\n      and\n        /* \"#utility.yul\":18568:18605   */\n      tag_472\n        /* \"#utility.yul\":18600:18604   */\n      dup7\n        /* \"#utility.yul\":18568:18605   */\n      tag_258\n      jump\t// in\n    tag_472:\n        /* \"#utility.yul\":18627:18628   */\n      0x00\n        /* \"#utility.yul\":18641:18849   */\n    tag_473:\n        /* \"#utility.yul\":18655:18662   */\n      dup3\n        /* \"#utility.yul\":18652:18653   */\n      dup2\n        /* \"#utility.yul\":18649:18663   */\n      lt\n        /* \"#utility.yul\":18641:18849   */\n      iszero\n      tag_475\n      jumpi\n        /* \"#utility.yul\":18734:18743   */\n      dup5\n        /* \"#utility.yul\":18729:18732   */\n      dup10\n        /* \"#utility.yul\":18725:18744   */\n      add\n        /* \"#utility.yul\":18719:18745   */\n      mload\n        /* \"#utility.yul\":18711:18717   */\n      dup3\n        /* \"#utility.yul\":18704:18746   */\n      sstore\n        /* \"#utility.yul\":18785:18786   */\n      0x01\n        /* \"#utility.yul\":18777:18783   */\n      dup3\n        /* \"#utility.yul\":18773:18787   */\n      add\n        /* \"#utility.yul\":18763:18787   */\n      swap2\n      pop\n        /* \"#utility.yul\":18832:18834   */\n      0x20\n        /* \"#utility.yul\":18821:18830   */\n      dup6\n        /* \"#utility.yul\":18817:18835   */\n      add\n        /* \"#utility.yul\":18804:18835   */\n      swap5\n      pop\n        /* \"#utility.yul\":18678:18682   */\n      0x20\n        /* \"#utility.yul\":18675:18676   */\n      dup2\n        /* \"#utility.yul\":18671:18683   */\n      add\n        /* \"#utility.yul\":18666:18683   */\n      swap1\n      pop\n        /* \"#utility.yul\":18641:18849   */\n      jump(tag_473)\n    tag_475:\n        /* \"#utility.yul\":18877:18883   */\n      dup7\n        /* \"#utility.yul\":18868:18875   */\n      dup4\n        /* \"#utility.yul\":18865:18884   */\n      lt\n        /* \"#utility.yul\":18862:19041   */\n      iszero\n      tag_476\n      jumpi\n        /* \"#utility.yul\":18935:18944   */\n      dup5\n        /* \"#utility.yul\":18930:18933   */\n      dup10\n        /* \"#utility.yul\":18926:18945   */\n      add\n        /* \"#utility.yul\":18920:18946   */\n      mload\n        /* \"#utility.yul\":18978:19026   */\n      tag_477\n        /* \"#utility.yul\":19020:19024   */\n      0x1f\n        /* \"#utility.yul\":19012:19018   */\n      dup10\n        /* \"#utility.yul\":19008:19025   */\n      and\n        /* \"#utility.yul\":18997:19006   */\n      dup3\n        /* \"#utility.yul\":18978:19026   */\n      tag_271\n      jump\t// in\n    tag_477:\n        /* \"#utility.yul\":18970:18976   */\n      dup4\n        /* \"#utility.yul\":18963:19027   */\n      sstore\n        /* \"#utility.yul\":18885:19041   */\n      pop\n        /* \"#utility.yul\":18862:19041   */\n    tag_476:\n        /* \"#utility.yul\":19087:19088   */\n      0x01\n        /* \"#utility.yul\":19083:19084   */\n      0x02\n        /* \"#utility.yul\":19075:19081   */\n      dup9\n        /* \"#utility.yul\":19071:19085   */\n      mul\n        /* \"#utility.yul\":19067:19089   */\n      add\n        /* \"#utility.yul\":19061:19065   */\n      dup9\n        /* \"#utility.yul\":19054:19090   */\n      sstore\n        /* \"#utility.yul\":18489:19100   */\n      pop\n      pop\n      pop\n        /* \"#utility.yul\":18452:19339   */\n    tag_468:\n      pop\n        /* \"#utility.yul\":18042:19345   */\n      pop\n      pop\n      pop\n        /* \"#utility.yul\":17950:19345   */\n      pop\n      pop\n      jump\t// out\n        /* \"#utility.yul\":19351:19531   */\n    tag_273:\n        /* \"#utility.yul\":19399:19476   */\n      0x4e487b7100000000000000000000000000000000000000000000000000000000\n        /* \"#utility.yul\":19396:19397   */\n      0x00\n        /* \"#utility.yul\":19389:19477   */\n      mstore\n        /* \"#utility.yul\":19496:19500   */\n      0x11\n        /* \"#utility.yul\":19493:19494   */\n      0x04\n        /* \"#utility.yul\":19486:19501   */\n      mstore\n        /* \"#utility.yul\":19520:19524   */\n      0x24\n        /* \"#utility.yul\":19517:19518   */\n      0x00\n        /* \"#utility.yul\":19510:19525   */\n      revert\n        /* \"#utility.yul\":19537:19770   */\n    tag_92:\n        /* \"#utility.yul\":19576:19579   */\n      0x00\n        /* \"#utility.yul\":19599:19623   */\n      tag_480\n        /* \"#utility.yul\":19617:19622   */\n      dup3\n        /* \"#utility.yul\":19599:19623   */\n      tag_222\n      jump\t// in\n    tag_480:\n        /* \"#utility.yul\":19590:19623   */\n      swap2\n      pop\n        /* \"#utility.yul\":19645:19711   */\n      0xffffffffffffffffffffffffffffffffffffffffffffffffffffffffffffffff\n        /* \"#utility.yul\":19638:19643   */\n      dup3\n        /* \"#utility.yul\":19635:19712   */\n      sub\n        /* \"#utility.yul\":19632:19735   */\n      tag_481\n      jumpi\n        /* \"#utility.yul\":19715:19733   */\n      tag_482\n      tag_273\n      jump\t// in\n    tag_482:\n        /* \"#utility.yul\":19632:19735   */\n    tag_481:\n        /* \"#utility.yul\":19762:19763   */\n      0x01\n        /* \"#utility.yul\":19755:19760   */\n      dup3\n        /* \"#utility.yul\":19751:19764   */\n      add\n        /* \"#utility.yul\":19744:19764   */\n      swap1\n      pop\n        /* \"#utility.yul\":19537:19770   */\n      swap2\n      swap1\n      pop\n      jump\t// out\n        /* \"#utility.yul\":19776:19956   */\n    tag_113:\n        /* \"#utility.yul\":19824:19901   */\n      0x4e487b7100000000000000000000000000000000000000000000000000000000\n        /* \"#utility.yul\":19821:19822   */\n      0x00\n        /* \"#utility.yul\":19814:19902   */\n      mstore\n        /* \"#utility.yul\":19921:19925   */\n      0x32\n        /* \"#utility.yul\":19918:19919   */\n      0x04\n        /* \"#utility.yul\":19911:19926   */\n      mstore\n        /* \"#utility.yul\":19945:19949   */\n      0x24\n        /* \"#utility.yul\":19942:19943   */\n      0x00\n        /* \"#utility.yul\":19935:19950   */\n      revert\n        /* \"#utility.yul\":19962:20156   */\n    tag_122:\n        /* \"#utility.yul\":20002:20006   */\n      0x00\n        /* \"#utility.yul\":20022:20042   */\n      tag_485\n        /* \"#utility.yul\":20040:20041   */\n      dup3\n        /* \"#utility.yul\":20022:20042   */\n      tag_222\n      jump\t// in\n    tag_485:\n        /* \"#utility.yul\":20017:20042   */\n      swap2\n      pop\n        /* \"#utility.yul\":20056:20076   */\n      tag_486\n        /* \"#utility.yul\":20074:20075   */\n      dup4\n        /* \"#utility.yul\":20056:20076   */\n      tag_222\n      jump\t// in\n    tag_486:\n        /* \"#utility.yul\":20051:20076   */\n      swap3\n      pop\n        /* \"#utility.yul\":20100:20101   */\n      dup3\n        /* \"#utility.yul\":20097:20098   */\n      dup3\n        /* \"#utility.yul\":20093:20102   */\n      sub\n        /* \"#utility.yul\":20085:20102   */\n      swap1\n      pop\n        /* \"#utility.yul\":20124:20125   */\n      dup2\n        /* \"#utility.yul\":20118:20122   */\n      dup2\n        /* \"#utility.yul\":20115:20126   */\n      gt\n        /* \"#utility.yul\":20112:20149   */\n      iszero\n      tag_487\n      jumpi\n        /* \"#utility.yul\":20129:20147   */\n      tag_488\n      tag_273\n      jump\t// in\n    tag_488:\n        /* \"#utility.yul\":20112:20149   */\n    tag_487:\n        /* \"#utility.yul\":19962:20156   */\n      swap3\n      swap2\n      pop\n      pop\n      jump\t// out\n        /* \"#utility.yul\":20162:20353   */\n    tag_124:\n        /* \"#utility.yul\":20202:20205   */\n      0x00\n        /* \"#utility.yul\":20221:20241   */\n      tag_490\n        /* \"#utility.yul\":20239:20240   */\n      dup3\n        /* \"#utility.yul\":20221:20241   */\n      tag_222\n      jump\t// in\n    tag_490:\n        /* \"#utility.yul\":20216:20241   */\n      swap2\n      pop\n        /* \"#utility.yul\":20255:20275   */\n      tag_491\n        /* \"#utility.yul\":20273:20274   */\n      dup4\n        /* \"#utility.yul\":20255:20275   */\n      tag_222\n      jump\t// in\n    tag_491:\n        /* \"#utility.yul\":20250:20275   */\n      swap3\n      pop\n        /* \"#utility.yul\":20298:20299   */\n      dup3\n        /* \"#utility.yul\":20295:20296   */\n      dup3\n        /* \"#utility.yul\":20291:20300   */\n      add\n        /* \"#utility.yul\":20284:20300   */\n      swap1\n      pop\n        /* \"#utility.yul\":20319:20322   */\n      dup1\n        /* \"#utility.yul\":20316:20317   */\n      dup3\n        /* \"#utility.yul\":20313:20323   */\n      gt\n        /* \"#utility.yul\":20310:20346   */\n      iszero\n      tag_492\n      jumpi\n        /* \"#utility.yul\":20326:20344   */\n      tag_493\n      tag_273\n      jump\t// in\n    tag_493:\n        /* \"#utility.yul\":20310:20346   */\n    tag_492:\n        /* \"#utility.yul\":20162:20353   */\n      swap3\n      swap2\n      pop\n      pop\n      jump\t// out\n\n    auxdata: 0xa26469706673582212202f0be32e996ac5e813169e8bc47936fdc57b8591096414478c6f2bac27f1ed0c64736f6c63430008120033\n}\n",
				"bytecode": {
					"linkReferences": {},
					"object": "6080604052600060025534801561001557600080fd5b50611996806100256000396000f3fe608060405234801561001057600080fd5b50600436106100885760003560e01c80637e99b5a61161005b5780637e99b5a6146101295780639852bf8e14610145578063c9f7aae914610163578063ceea3c781461018457610088565b80631641f0901461008d5780631ea7b510146100bd57806339aabbbb146100d9578063611f999514610109575b600080fd5b6100a760048036038101906100a29190610ea0565b6101b9565b6040516100b491906110b4565b60405180910390f35b6100d760048036038101906100d29190611255565b61030b565b005b6100f360048036038101906100ee9190611313565b6104d3565b604051610100919061134f565b60405180910390f35b6101116104eb565b6040516101209392919061136a565b60405180910390f35b610143600480360381019061013e91906113b6565b610b87565b005b61014d610c22565b60405161015a919061134f565b60405180910390f35b61016b610c28565b60405161017b949392919061145f565b60405180910390f35b61019e60048036038101906101999190610ea0565b610d1e565b6040516101b09695949392919061150c565b60405180910390f35b6101c1610dfc565b6000808381526020019081526020016000206040518060c00160405290816000820180546101ee906115a3565b80601f016020809104026020016040519081016040528092919081815260200182805461021a906115a3565b80156102675780601f1061023c57610100808354040283529160200191610267565b820191906000526020600020905b81548152906001019060200180831161024a57829003601f168201915b5050505050815260200160018201548152602001600282015481526020016003820160009054906101000a900460ff1660038111156102a9576102a8610f6c565b5b60038111156102bb576102ba610f6c565b5b81526020016003820160019054906101000a900460ff1660038111156102e4576102e3610f6c565b5b60038111156102f6576102f5610f6c565b5b81526020016004820154815250509050919050565b6001600381111561031f5761031e610f6c565b5b82600381111561033257610331610f6c565b5b1480610361575060038081111561034c5761034b610f6c565b5b82600381111561035f5761035e610f6c565b5b145b1561036b57600090505b6040518060c0016040528087815260200186815260200185815260200184600381111561039b5761039a610f6c565b5b81526020018360038111156103b3576103b2610f6c565b5b81526020018281525060008089815260200190815260200160002060008201518160000190816103e39190611780565b50602082015181600101556040820151816002015560608201518160030160006101000a81548160ff0219169083600381111561042357610422610f6c565b5b021790555060808201518160030160016101000a81548160ff0219169083600381111561045357610452610f6c565b5b021790555060a082015181600401559050506001600084600381111561047c5761047b610f6c565b5b600381111561048e5761048d610f6c565b5b815260200190815260200160002060008154809291906104ad90611881565b9190505550600260008154809291906104c590611881565b919050555050505050505050565b60016020528060005260406000206000915090505481565b6104f3610dfc565b6104fb610dfc565b610503610dfc565b600060025467ffffffffffffffff811115610521576105206110e0565b5b60405190808252806020026020018201604052801561054f5781602001602082028036833780820191505090505b50905060005b600254811015610604576001600381111561057357610572610f6c565b5b60008083815260200190815260200160002060030160009054906101000a900460ff1660038111156105a8576105a7610f6c565b5b1480156105cb575060008060008381526020019081526020016000206004015414155b156105f157808282815181106105e4576105e36118c9565b5b6020026020010181815250505b80806105fc90611881565b915050610555565b5060005b6002548110156107575760005b600160025461062491906118f8565b811015610743576000808460018461063c919061192c565b8151811061064d5761064c6118c9565b5b602002602001015181526020019081526020016000206004015460008085848151811061067d5761067c6118c9565b5b602002602001015181526020019081526020016000206004015410156107305760008382815181106106b2576106b16118c9565b5b60200260200101519050836001836106ca919061192c565b815181106106db576106da6118c9565b5b60200260200101518483815181106106f6576106f56118c9565b5b6020026020010181815250508084600184610711919061192c565b81518110610722576107216118c9565b5b602002602001018181525050505b808061073b90611881565b915050610615565b50808061074f90611881565b915050610608565b506000808260008151811061076f5761076e6118c9565b5b602002602001015181526020019081526020016000206000808360018151811061079c5761079b6118c9565b5b60200260200101518152602001908152602001600020600080846002815181106107c9576107c86118c9565b5b60200260200101518152602001908152602001600020826040518060c00160405290816000820180546107fb906115a3565b80601f0160208091040260200160405190810160405280929190818152602001828054610827906115a3565b80156108745780601f1061084957610100808354040283529160200191610874565b820191906000526020600020905b81548152906001019060200180831161085757829003601f168201915b5050505050815260200160018201548152602001600282015481526020016003820160009054906101000a900460ff1660038111156108b6576108b5610f6c565b5b60038111156108c8576108c7610f6c565b5b81526020016003820160019054906101000a900460ff1660038111156108f1576108f0610f6c565b5b600381111561090357610902610f6c565b5b81526020016004820154815250509250816040518060c001604052908160008201805461092f906115a3565b80601f016020809104026020016040519081016040528092919081815260200182805461095b906115a3565b80156109a85780601f1061097d576101008083540402835291602001916109a8565b820191906000526020600020905b81548152906001019060200180831161098b57829003601f168201915b5050505050815260200160018201548152602001600282015481526020016003820160009054906101000a900460ff1660038111156109ea576109e9610f6c565b5b60038111156109fc576109fb610f6c565b5b81526020016003820160019054906101000a900460ff166003811115610a2557610a24610f6c565b5b6003811115610a3757610a36610f6c565b5b81526020016004820154815250509150806040518060c0016040529081600082018054610a63906115a3565b80601f0160208091040260200160405190810160405280929190818152602001828054610a8f906115a3565b8015610adc5780601f10610ab157610100808354040283529160200191610adc565b820191906000526020600020905b815481529060010190602001808311610abf57829003601f168201915b5050505050815260200160018201548152602001600282015481526020016003820160009054906101000a900460ff166003811115610b1e57610b1d610f6c565b5b6003811115610b3057610b2f610f6c565b5b81526020016003820160019054906101000a900460ff166003811115610b5957610b58610f6c565b5b6003811115610b6b57610b6a610f6c565b5b8152602001600482015481525050905093509350935050909192565b6000806000888152602001908152602001600020905085816000019081610bae9190611780565b50848160010181905550838160030160006101000a81548160ff02191690836003811115610bdf57610bde610f6c565b5b0217905550828160030160016101000a81548160ff02191690836003811115610c0b57610c0a610f6c565b5b021790555081816004018190555050505050505050565b60025481565b60008060008060016000806003811115610c4557610c44610f6c565b5b6003811115610c5757610c56610f6c565b5b8152602001908152602001600020546001600060016003811115610c7e57610c7d610f6c565b5b6003811115610c9057610c8f610f6c565b5b8152602001908152602001600020546001600060026003811115610cb757610cb6610f6c565b5b6003811115610cc957610cc8610f6c565b5b81526020019081526020016000205460016000600380811115610cef57610cee610f6c565b5b6003811115610d0157610d00610f6c565b5b815260200190815260200160002054935093509350935090919293565b6000602052806000526040600020600091509050806000018054610d41906115a3565b80601f0160208091040260200160405190810160405280929190818152602001828054610d6d906115a3565b8015610dba5780601f10610d8f57610100808354040283529160200191610dba565b820191906000526020600020905b815481529060010190602001808311610d9d57829003601f168201915b5050505050908060010154908060020154908060030160009054906101000a900460ff16908060030160019054906101000a900460ff16908060040154905086565b6040518060c0016040528060608152602001600081526020016000815260200160006003811115610e3057610e2f610f6c565b5b815260200160006003811115610e4957610e48610f6c565b5b8152602001600081525090565b6000604051905090565b600080fd5b600080fd5b6000819050919050565b610e7d81610e6a565b8114610e8857600080fd5b50565b600081359050610e9a81610e74565b92915050565b600060208284031215610eb657610eb5610e60565b5b6000610ec484828501610e8b565b91505092915050565b600081519050919050565b600082825260208201905092915050565b60005b83811015610f07578082015181840152602081019050610eec565b60008484015250505050565b6000601f19601f8301169050919050565b6000610f2f82610ecd565b610f398185610ed8565b9350610f49818560208601610ee9565b610f5281610f13565b840191505092915050565b610f6681610e6a565b82525050565b7f4e487b7100000000000000000000000000000000000000000000000000000000600052602160045260246000fd5b60048110610fac57610fab610f6c565b5b50565b6000819050610fbd82610f9b565b919050565b6000610fcd82610faf565b9050919050565b610fdd81610fc2565b82525050565b60048110610ff457610ff3610f6c565b5b50565b600081905061100582610fe3565b919050565b600061101582610ff7565b9050919050565b6110258161100a565b82525050565b600060c08301600083015184820360008601526110488282610f24565b915050602083015161105d6020860182610f5d565b5060408301516110706040860182610f5d565b5060608301516110836060860182610fd4565b506080830151611096608086018261101c565b5060a08301516110a960a0860182610f5d565b508091505092915050565b600060208201905081810360008301526110ce818461102b565b905092915050565b600080fd5b600080fd5b7f4e487b7100000000000000000000000000000000000000000000000000000000600052604160045260246000fd5b61111882610f13565b810181811067ffffffffffffffff82111715611137576111366110e0565b5b80604052505050565b600061114a610e56565b9050611156828261110f565b919050565b600067ffffffffffffffff821115611176576111756110e0565b5b61117f82610f13565b9050602081019050919050565b82818337600083830152505050565b60006111ae6111a98461115b565b611140565b9050828152602081018484840111156111ca576111c96110db565b5b6111d584828561118c565b509392505050565b600082601f8301126111f2576111f16110d6565b5b813561120284826020860161119b565b91505092915050565b6004811061121857600080fd5b50565b60008135905061122a8161120b565b92915050565b6004811061123d57600080fd5b50565b60008135905061124f81611230565b92915050565b600080600080600080600060e0888a03121561127457611273610e60565b5b60006112828a828b01610e8b565b975050602088013567ffffffffffffffff8111156112a3576112a2610e65565b5b6112af8a828b016111dd565b96505060406112c08a828b01610e8b565b95505060606112d18a828b01610e8b565b94505060806112e28a828b0161121b565b93505060a06112f38a828b01611240565b92505060c06113048a828b01610e8b565b91505092959891949750929550565b60006020828403121561132957611328610e60565b5b60006113378482850161121b565b91505092915050565b61134981610e6a565b82525050565b60006020820190506113646000830184611340565b92915050565b60006060820190508181036000830152611384818661102b565b90508181036020830152611398818561102b565b905081810360408301526113ac818461102b565b9050949350505050565b60008060008060008060c087890312156113d3576113d2610e60565b5b60006113e189828a01610e8b565b965050602087013567ffffffffffffffff81111561140257611401610e65565b5b61140e89828a016111dd565b955050604061141f89828a01610e8b565b945050606061143089828a0161121b565b935050608061144189828a01611240565b92505060a061145289828a01610e8b565b9150509295509295509295565b60006080820190506114746000830187611340565b6114816020830186611340565b61148e6040830185611340565b61149b6060830184611340565b95945050505050565b600082825260208201905092915050565b60006114c082610ecd565b6114ca81856114a4565b93506114da818560208601610ee9565b6114e381610f13565b840191505092915050565b6114f781610fc2565b82525050565b6115068161100a565b82525050565b600060c082019050818103600083015261152681896114b5565b90506115356020830188611340565b6115426040830187611340565b61154f60608301866114ee565b61155c60808301856114fd565b61156960a0830184611340565b979650505050505050565b7f4e487b7100000000000000000000000000000000000000000000000000000000600052602260045260246000fd5b600060028204905060018216806115bb57607f821691505b6020821081036115ce576115cd611574565b5b50919050565b60008190508160005260206000209050919050565b60006020601f8301049050919050565b600082821b905092915050565b6000600883026116367fffffffffffffffffffffffffffffffffffffffffffffffffffffffffffffffff826115f9565b61164086836115f9565b95508019841693508086168417925050509392505050565b6000819050919050565b600061167d61167861167384610e6a565b611658565b610e6a565b9050919050565b6000819050919050565b61169783611662565b6116ab6116a382611684565b848454611606565b825550505050565b600090565b6116c06116b3565b6116cb81848461168e565b505050565b5b818110156116ef576116e46000826116b8565b6001810190506116d1565b5050565b601f82111561173457611705816115d4565b61170e846115e9565b8101602085101561171d578190505b611731611729856115e9565b8301826116d0565b50505b505050565b600082821c905092915050565b600061175760001984600802611739565b1980831691505092915050565b60006117708383611746565b9150826002028217905092915050565b61178982610ecd565b67ffffffffffffffff8111156117a2576117a16110e0565b5b6117ac82546115a3565b6117b78282856116f3565b600060209050601f8311600181146117ea57600084156117d8578287015190505b6117e28582611764565b86555061184a565b601f1984166117f8866115d4565b60005b82811015611820578489015182556001820191506020850194506020810190506117fb565b8683101561183d5784890151611839601f891682611746565b8355505b6001600288020188555050505b505050505050565b7f4e487b7100000000000000000000000000000000000000000000000000000000600052601160045260246000fd5b600061188c82610e6a565b91507fffffffffffffffffffffffffffffffffffffffffffffffffffffffffffffffff82036118be576118bd611852565b5b600182019050919050565b7f4e487b7100000000000000000000000000000000000000000000000000000000600052603260045260246000fd5b600061190382610e6a565b915061190e83610e6a565b925082820390508181111561192657611925611852565b5b92915050565b600061193782610e6a565b915061194283610e6a565b925082820190508082111561195a57611959611852565b5b9291505056fea26469706673582212202f0be32e996ac5e813169e8bc47936fdc57b8591096414478c6f2bac27f1ed0c64736f6c63430008120033",
					"opcodes": "PUSH1 0x80 PUSH1 0x40 MSTORE PUSH1 0x0 PUSH1 0x2 SSTORE CALLVALUE DUP1 ISZERO PUSH2 0x15 JUMPI PUSH1 0x0 DUP1 REVERT JUMPDEST POP PUSH2 0x1996 DUP1 PUSH2 0x25 PUSH1 0x0 CODECOPY PUSH1 0x0 RETURN INVALID PUSH1 0x80 PUSH1 0x40 MSTORE CALLVALUE DUP1 ISZERO PUSH2 0x10 JUMPI PUSH1 0x0 DUP1 REVERT JUMPDEST POP PUSH1 0x4 CALLDATASIZE LT PUSH2 0x88 JUMPI PUSH1 0x0 CALLDATALOAD PUSH1 0xE0 SHR DUP1 PUSH4 0x7E99B5A6 GT PUSH2 0x5B JUMPI DUP1 PUSH4 0x7E99B5A6 EQ PUSH2 0x129 JUMPI DUP1 PUSH4 0x9852BF8E EQ PUSH2 0x145 JUMPI DUP1 PUSH4 0xC9F7AAE9 EQ PUSH2 0x163 JUMPI DUP1 PUSH4 0xCEEA3C78 EQ PUSH2 0x184 JUMPI PUSH2 0x88 JUMP JUMPDEST DUP1 PUSH4 0x1641F090 EQ PUSH2 0x8D JUMPI DUP1 PUSH4 0x1EA7B510 EQ PUSH2 0xBD JUMPI DUP1 PUSH4 0x39AABBBB EQ PUSH2 0xD9 JUMPI DUP1 PUSH4 0x611F9995 EQ PUSH2 0x109 JUMPI JUMPDEST PUSH1 0x0 DUP1 REVERT JUMPDEST PUSH2 0xA7 PUSH1 0x4 DUP1 CALLDATASIZE SUB DUP2 ADD SWAP1 PUSH2 0xA2 SWAP2 SWAP1 PUSH2 0xEA0 JUMP JUMPDEST PUSH2 0x1B9 JUMP JUMPDEST PUSH1 0x40 MLOAD PUSH2 0xB4 SWAP2 SWAP1 PUSH2 0x10B4 JUMP JUMPDEST PUSH1 0x40 MLOAD DUP1 SWAP2 SUB SWAP1 RETURN JUMPDEST PUSH2 0xD7 PUSH1 0x4 DUP1 CALLDATASIZE SUB DUP2 ADD SWAP1 PUSH2 0xD2 SWAP2 SWAP1 PUSH2 0x1255 JUMP JUMPDEST PUSH2 0x30B JUMP JUMPDEST STOP JUMPDEST PUSH2 0xF3 PUSH1 0x4 DUP1 CALLDATASIZE SUB DUP2 ADD SWAP1 PUSH2 0xEE SWAP2 SWAP1 PUSH2 0x1313 JUMP JUMPDEST PUSH2 0x4D3 JUMP JUMPDEST PUSH1 0x40 MLOAD PUSH2 0x100 SWAP2 SWAP1 PUSH2 0x134F JUMP JUMPDEST PUSH1 0x40 MLOAD DUP1 SWAP2 SUB SWAP1 RETURN JUMPDEST PUSH2 0x111 PUSH2 0x4EB JUMP JUMPDEST PUSH1 0x40 MLOAD PUSH2 0x120 SWAP4 SWAP3 SWAP2 SWAP1 PUSH2 0x136A JUMP JUMPDEST PUSH1 0x40 MLOAD DUP1 SWAP2 SUB SWAP1 RETURN JUMPDEST PUSH2 0x143 PUSH1 0x4 DUP1 CALLDATASIZE SUB DUP2 ADD SWAP1 PUSH2 0x13E SWAP2 SWAP1 PUSH2 0x13B6 JUMP JUMPDEST PUSH2 0xB87 JUMP JUMPDEST STOP JUMPDEST PUSH2 0x14D PUSH2 0xC22 JUMP JUMPDEST PUSH1 0x40 MLOAD PUSH2 0x15A SWAP2 SWAP1 PUSH2 0x134F JUMP JUMPDEST PUSH1 0x40 MLOAD DUP1 SWAP2 SUB SWAP1 RETURN JUMPDEST PUSH2 0x16B PUSH2 0xC28 JUMP JUMPDEST PUSH1 0x40 MLOAD PUSH2 0x17B SWAP5 SWAP4 SWAP3 SWAP2 SWAP1 PUSH2 0x145F JUMP JUMPDEST PUSH1 0x40 MLOAD DUP1 SWAP2 SUB SWAP1 RETURN JUMPDEST PUSH2 0x19E PUSH1 0x4 DUP1 CALLDATASIZE SUB DUP2 ADD SWAP1 PUSH2 0x199 SWAP2 SWAP1 PUSH2 0xEA0 JUMP JUMPDEST PUSH2 0xD1E JUMP JUMPDEST PUSH1 0x40 MLOAD PUSH2 0x1B0 SWAP7 SWAP6 SWAP5 SWAP4 SWAP3 SWAP2 SWAP1 PUSH2 0x150C JUMP JUMPDEST PUSH1 0x40 MLOAD DUP1 SWAP2 SUB SWAP1 RETURN JUMPDEST PUSH2 0x1C1 PUSH2 0xDFC JUMP JUMPDEST PUSH1 0x0 DUP1 DUP4 DUP2 MSTORE PUSH1 0x20 ADD SWAP1 DUP2 MSTORE PUSH1 0x20 ADD PUSH1 0x0 KECCAK256 PUSH1 0x40 MLOAD DUP1 PUSH1 0xC0 ADD PUSH1 0x40 MSTORE SWAP1 DUP2 PUSH1 0x0 DUP3 ADD DUP1 SLOAD PUSH2 0x1EE SWAP1 PUSH2 0x15A3 JUMP JUMPDEST DUP1 PUSH1 0x1F ADD PUSH1 0x20 DUP1 SWAP2 DIV MUL PUSH1 0x20 ADD PUSH1 0x40 MLOAD SWAP1 DUP2 ADD PUSH1 0x40 MSTORE DUP1 SWAP3 SWAP2 SWAP1 DUP2 DUP2 MSTORE PUSH1 0x20 ADD DUP3 DUP1 SLOAD PUSH2 0x21A SWAP1 PUSH2 0x15A3 JUMP JUMPDEST DUP1 ISZERO PUSH2 0x267 JUMPI DUP1 PUSH1 0x1F LT PUSH2 0x23C JUMPI PUSH2 0x100 DUP1 DUP4 SLOAD DIV MUL DUP4 MSTORE SWAP2 PUSH1 0x20 ADD SWAP2 PUSH2 0x267 JUMP JUMPDEST DUP3 ADD SWAP2 SWAP1 PUSH1 0x0 MSTORE PUSH1 0x20 PUSH1 0x0 KECCAK256 SWAP1 JUMPDEST DUP2 SLOAD DUP2 MSTORE SWAP1 PUSH1 0x1 ADD SWAP1 PUSH1 0x20 ADD DUP1 DUP4 GT PUSH2 0x24A JUMPI DUP3 SWAP1 SUB PUSH1 0x1F AND DUP3 ADD SWAP2 JUMPDEST POP POP POP POP POP DUP2 MSTORE PUSH1 0x20 ADD PUSH1 0x1 DUP3 ADD SLOAD DUP2 MSTORE PUSH1 0x20 ADD PUSH1 0x2 DUP3 ADD SLOAD DUP2 MSTORE PUSH1 0x20 ADD PUSH1 0x3 DUP3 ADD PUSH1 0x0 SWAP1 SLOAD SWAP1 PUSH2 0x100 EXP SWAP1 DIV PUSH1 0xFF AND PUSH1 0x3 DUP2 GT ISZERO PUSH2 0x2A9 JUMPI PUSH2 0x2A8 PUSH2 0xF6C JUMP JUMPDEST JUMPDEST PUSH1 0x3 DUP2 GT ISZERO PUSH2 0x2BB JUMPI PUSH2 0x2BA PUSH2 0xF6C JUMP JUMPDEST JUMPDEST DUP2 MSTORE PUSH1 0x20 ADD PUSH1 0x3 DUP3 ADD PUSH1 0x1 SWAP1 SLOAD SWAP1 PUSH2 0x100 EXP SWAP1 DIV PUSH1 0xFF AND PUSH1 0x3 DUP2 GT ISZERO PUSH2 0x2E4 JUMPI PUSH2 0x2E3 PUSH2 0xF6C JUMP JUMPDEST JUMPDEST PUSH1 0x3 DUP2 GT ISZERO PUSH2 0x2F6 JUMPI PUSH2 0x2F5 PUSH2 0xF6C JUMP JUMPDEST JUMPDEST DUP2 MSTORE PUSH1 0x20 ADD PUSH1 0x4 DUP3 ADD SLOAD DUP2 MSTORE POP POP SWAP1 POP SWAP2 SWAP1 POP JUMP JUMPDEST PUSH1 0x1 PUSH1 0x3 DUP2 GT ISZERO PUSH2 0x31F JUMPI PUSH2 0x31E PUSH2 0xF6C JUMP JUMPDEST JUMPDEST DUP3 PUSH1 0x3 DUP2 GT ISZERO PUSH2 0x332 JUMPI PUSH2 0x331 PUSH2 0xF6C JUMP JUMPDEST JUMPDEST EQ DUP1 PUSH2 0x361 JUMPI POP PUSH1 0x3 DUP1 DUP2 GT ISZERO PUSH2 0x34C JUMPI PUSH2 0x34B PUSH2 0xF6C JUMP JUMPDEST JUMPDEST DUP3 PUSH1 0x3 DUP2 GT ISZERO PUSH2 0x35F JUMPI PUSH2 0x35E PUSH2 0xF6C JUMP JUMPDEST JUMPDEST EQ JUMPDEST ISZERO PUSH2 0x36B JUMPI PUSH1 0x0 SWAP1 POP JUMPDEST PUSH1 0x40 MLOAD DUP1 PUSH1 0xC0 ADD PUSH1 0x40 MSTORE DUP1 DUP8 DUP2 MSTORE PUSH1 0x20 ADD DUP7 DUP2 MSTORE PUSH1 0x20 ADD DUP6 DUP2 MSTORE PUSH1 0x20 ADD DUP5 PUSH1 0x3 DUP2 GT ISZERO PUSH2 0x39B JUMPI PUSH2 0x39A PUSH2 0xF6C JUMP JUMPDEST JUMPDEST DUP2 MSTORE PUSH1 0x20 ADD DUP4 PUSH1 0x3 DUP2 GT ISZERO PUSH2 0x3B3 JUMPI PUSH2 0x3B2 PUSH2 0xF6C JUMP JUMPDEST JUMPDEST DUP2 MSTORE PUSH1 0x20 ADD DUP3 DUP2 MSTORE POP PUSH1 0x0 DUP1 DUP10 DUP2 MSTORE PUSH1 0x20 ADD SWAP1 DUP2 MSTORE PUSH1 0x20 ADD PUSH1 0x0 KECCAK256 PUSH1 0x0 DUP3 ADD MLOAD DUP2 PUSH1 0x0 ADD SWAP1 DUP2 PUSH2 0x3E3 SWAP2 SWAP1 PUSH2 0x1780 JUMP JUMPDEST POP PUSH1 0x20 DUP3 ADD MLOAD DUP2 PUSH1 0x1 ADD SSTORE PUSH1 0x40 DUP3 ADD MLOAD DUP2 PUSH1 0x2 ADD SSTORE PUSH1 0x60 DUP3 ADD MLOAD DUP2 PUSH1 0x3 ADD PUSH1 0x0 PUSH2 0x100 EXP DUP2 SLOAD DUP2 PUSH1 0xFF MUL NOT AND SWAP1 DUP4 PUSH1 0x3 DUP2 GT ISZERO PUSH2 0x423 JUMPI PUSH2 0x422 PUSH2 0xF6C JUMP JUMPDEST JUMPDEST MUL OR SWAP1 SSTORE POP PUSH1 0x80 DUP3 ADD MLOAD DUP2 PUSH1 0x3 ADD PUSH1 0x1 PUSH2 0x100 EXP DUP2 SLOAD DUP2 PUSH1 0xFF MUL NOT AND SWAP1 DUP4 PUSH1 0x3 DUP2 GT ISZERO PUSH2 0x453 JUMPI PUSH2 0x452 PUSH2 0xF6C JUMP JUMPDEST JUMPDEST MUL OR SWAP1 SSTORE POP PUSH1 0xA0 DUP3 ADD MLOAD DUP2 PUSH1 0x4 ADD SSTORE SWAP1 POP POP PUSH1 0x1 PUSH1 0x0 DUP5 PUSH1 0x3 DUP2 GT ISZERO PUSH2 0x47C JUMPI PUSH2 0x47B PUSH2 0xF6C JUMP JUMPDEST JUMPDEST PUSH1 0x3 DUP2 GT ISZERO PUSH2 0x48E JUMPI PUSH2 0x48D PUSH2 0xF6C JUMP JUMPDEST JUMPDEST DUP2 MSTORE PUSH1 0x20 ADD SWAP1 DUP2 MSTORE PUSH1 0x20 ADD PUSH1 0x0 KECCAK256 PUSH1 0x0 DUP2 SLOAD DUP1 SWAP3 SWAP2 SWAP1 PUSH2 0x4AD SWAP1 PUSH2 0x1881 JUMP JUMPDEST SWAP2 SWAP1 POP SSTORE POP PUSH1 0x2 PUSH1 0x0 DUP2 SLOAD DUP1 SWAP3 SWAP2 SWAP1 PUSH2 0x4C5 SWAP1 PUSH2 0x1881 JUMP JUMPDEST SWAP2 SWAP1 POP SSTORE POP POP POP POP POP POP POP POP JUMP JUMPDEST PUSH1 0x1 PUSH1 0x20 MSTORE DUP1 PUSH1 0x0 MSTORE PUSH1 0x40 PUSH1 0x0 KECCAK256 PUSH1 0x0 SWAP2 POP SWAP1 POP SLOAD DUP2 JUMP JUMPDEST PUSH2 0x4F3 PUSH2 0xDFC JUMP JUMPDEST PUSH2 0x4FB PUSH2 0xDFC JUMP JUMPDEST PUSH2 0x503 PUSH2 0xDFC JUMP JUMPDEST PUSH1 0x0 PUSH1 0x2 SLOAD PUSH8 0xFFFFFFFFFFFFFFFF DUP2 GT ISZERO PUSH2 0x521 JUMPI PUSH2 0x520 PUSH2 0x10E0 JUMP JUMPDEST JUMPDEST PUSH1 0x40 MLOAD SWAP1 DUP1 DUP3 MSTORE DUP1 PUSH1 0x20 MUL PUSH1 0x20 ADD DUP3 ADD PUSH1 0x40 MSTORE DUP1 ISZERO PUSH2 0x54F JUMPI DUP2 PUSH1 0x20 ADD PUSH1 0x20 DUP3 MUL DUP1 CALLDATASIZE DUP4 CALLDATACOPY DUP1 DUP3 ADD SWAP2 POP POP SWAP1 POP JUMPDEST POP SWAP1 POP PUSH1 0x0 JUMPDEST PUSH1 0x2 SLOAD DUP2 LT ISZERO PUSH2 0x604 JUMPI PUSH1 0x1 PUSH1 0x3 DUP2 GT ISZERO PUSH2 0x573 JUMPI PUSH2 0x572 PUSH2 0xF6C JUMP JUMPDEST JUMPDEST PUSH1 0x0 DUP1 DUP4 DUP2 MSTORE PUSH1 0x20 ADD SWAP1 DUP2 MSTORE PUSH1 0x20 ADD PUSH1 0x0 KECCAK256 PUSH1 0x3 ADD PUSH1 0x0 SWAP1 SLOAD SWAP1 PUSH2 0x100 EXP SWAP1 DIV PUSH1 0xFF AND PUSH1 0x3 DUP2 GT ISZERO PUSH2 0x5A8 JUMPI PUSH2 0x5A7 PUSH2 0xF6C JUMP JUMPDEST JUMPDEST EQ DUP1 ISZERO PUSH2 0x5CB JUMPI POP PUSH1 0x0 DUP1 PUSH1 0x0 DUP4 DUP2 MSTORE PUSH1 0x20 ADD SWAP1 DUP2 MSTORE PUSH1 0x20 ADD PUSH1 0x0 KECCAK256 PUSH1 0x4 ADD SLOAD EQ ISZERO JUMPDEST ISZERO PUSH2 0x5F1 JUMPI DUP1 DUP3 DUP3 DUP2 MLOAD DUP2 LT PUSH2 0x5E4 JUMPI PUSH2 0x5E3 PUSH2 0x18C9 JUMP JUMPDEST JUMPDEST PUSH1 0x20 MUL PUSH1 0x20 ADD ADD DUP2 DUP2 MSTORE POP POP JUMPDEST DUP1 DUP1 PUSH2 0x5FC SWAP1 PUSH2 0x1881 JUMP JUMPDEST SWAP2 POP POP PUSH2 0x555 JUMP JUMPDEST POP PUSH1 0x0 JUMPDEST PUSH1 0x2 SLOAD DUP2 LT ISZERO PUSH2 0x757 JUMPI PUSH1 0x0 JUMPDEST PUSH1 0x1 PUSH1 0x2 SLOAD PUSH2 0x624 SWAP2 SWAP1 PUSH2 0x18F8 JUMP JUMPDEST DUP2 LT ISZERO PUSH2 0x743 JUMPI PUSH1 0x0 DUP1 DUP5 PUSH1 0x1 DUP5 PUSH2 0x63C SWAP2 SWAP1 PUSH2 0x192C JUMP JUMPDEST DUP2 MLOAD DUP2 LT PUSH2 0x64D JUMPI PUSH2 0x64C PUSH2 0x18C9 JUMP JUMPDEST JUMPDEST PUSH1 0x20 MUL PUSH1 0x20 ADD ADD MLOAD DUP2 MSTORE PUSH1 0x20 ADD SWAP1 DUP2 MSTORE PUSH1 0x20 ADD PUSH1 0x0 KECCAK256 PUSH1 0x4 ADD SLOAD PUSH1 0x0 DUP1 DUP6 DUP5 DUP2 MLOAD DUP2 LT PUSH2 0x67D JUMPI PUSH2 0x67C PUSH2 0x18C9 JUMP JUMPDEST JUMPDEST PUSH1 0x20 MUL PUSH1 0x20 ADD ADD MLOAD DUP2 MSTORE PUSH1 0x20 ADD SWAP1 DUP2 MSTORE PUSH1 0x20 ADD PUSH1 0x0 KECCAK256 PUSH1 0x4 ADD SLOAD LT ISZERO PUSH2 0x730 JUMPI PUSH1 0x0 DUP4 DUP3 DUP2 MLOAD DUP2 LT PUSH2 0x6B2 JUMPI PUSH2 0x6B1 PUSH2 0x18C9 JUMP JUMPDEST JUMPDEST PUSH1 0x20 MUL PUSH1 0x20 ADD ADD MLOAD SWAP1 POP DUP4 PUSH1 0x1 DUP4 PUSH2 0x6CA SWAP2 SWAP1 PUSH2 0x192C JUMP JUMPDEST DUP2 MLOAD DUP2 LT PUSH2 0x6DB JUMPI PUSH2 0x6DA PUSH2 0x18C9 JUMP JUMPDEST JUMPDEST PUSH1 0x20 MUL PUSH1 0x20 ADD ADD MLOAD DUP5 DUP4 DUP2 MLOAD DUP2 LT PUSH2 0x6F6 JUMPI PUSH2 0x6F5 PUSH2 0x18C9 JUMP JUMPDEST JUMPDEST PUSH1 0x20 MUL PUSH1 0x20 ADD ADD DUP2 DUP2 MSTORE POP POP DUP1 DUP5 PUSH1 0x1 DUP5 PUSH2 0x711 SWAP2 SWAP1 PUSH2 0x192C JUMP JUMPDEST DUP2 MLOAD DUP2 LT PUSH2 0x722 JUMPI PUSH2 0x721 PUSH2 0x18C9 JUMP JUMPDEST JUMPDEST PUSH1 0x20 MUL PUSH1 0x20 ADD ADD DUP2 DUP2 MSTORE POP POP POP JUMPDEST DUP1 DUP1 PUSH2 0x73B SWAP1 PUSH2 0x1881 JUMP JUMPDEST SWAP2 POP POP PUSH2 0x615 JUMP JUMPDEST POP DUP1 DUP1 PUSH2 0x74F SWAP1 PUSH2 0x1881 JUMP JUMPDEST SWAP2 POP POP PUSH2 0x608 JUMP JUMPDEST POP PUSH1 0x0 DUP1 DUP3 PUSH1 0x0 DUP2 MLOAD DUP2 LT PUSH2 0x76F JUMPI PUSH2 0x76E PUSH2 0x18C9 JUMP JUMPDEST JUMPDEST PUSH1 0x20 MUL PUSH1 0x20 ADD ADD MLOAD DUP2 MSTORE PUSH1 0x20 ADD SWAP1 DUP2 MSTORE PUSH1 0x20 ADD PUSH1 0x0 KECCAK256 PUSH1 0x0 DUP1 DUP4 PUSH1 0x1 DUP2 MLOAD DUP2 LT PUSH2 0x79C JUMPI PUSH2 0x79B PUSH2 0x18C9 JUMP JUMPDEST JUMPDEST PUSH1 0x20 MUL PUSH1 0x20 ADD ADD MLOAD DUP2 MSTORE PUSH1 0x20 ADD SWAP1 DUP2 MSTORE PUSH1 0x20 ADD PUSH1 0x0 KECCAK256 PUSH1 0x0 DUP1 DUP5 PUSH1 0x2 DUP2 MLOAD DUP2 LT PUSH2 0x7C9 JUMPI PUSH2 0x7C8 PUSH2 0x18C9 JUMP JUMPDEST JUMPDEST PUSH1 0x20 MUL PUSH1 0x20 ADD ADD MLOAD DUP2 MSTORE PUSH1 0x20 ADD SWAP1 DUP2 MSTORE PUSH1 0x20 ADD PUSH1 0x0 KECCAK256 DUP3 PUSH1 0x40 MLOAD DUP1 PUSH1 0xC0 ADD PUSH1 0x40 MSTORE SWAP1 DUP2 PUSH1 0x0 DUP3 ADD DUP1 SLOAD PUSH2 0x7FB SWAP1 PUSH2 0x15A3 JUMP JUMPDEST DUP1 PUSH1 0x1F ADD PUSH1 0x20 DUP1 SWAP2 DIV MUL PUSH1 0x20 ADD PUSH1 0x40 MLOAD SWAP1 DUP2 ADD PUSH1 0x40 MSTORE DUP1 SWAP3 SWAP2 SWAP1 DUP2 DUP2 MSTORE PUSH1 0x20 ADD DUP3 DUP1 SLOAD PUSH2 0x827 SWAP1 PUSH2 0x15A3 JUMP JUMPDEST DUP1 ISZERO PUSH2 0x874 JUMPI DUP1 PUSH1 0x1F LT PUSH2 0x849 JUMPI PUSH2 0x100 DUP1 DUP4 SLOAD DIV MUL DUP4 MSTORE SWAP2 PUSH1 0x20 ADD SWAP2 PUSH2 0x874 JUMP JUMPDEST DUP3 ADD SWAP2 SWAP1 PUSH1 0x0 MSTORE PUSH1 0x20 PUSH1 0x0 KECCAK256 SWAP1 JUMPDEST DUP2 SLOAD DUP2 MSTORE SWAP1 PUSH1 0x1 ADD SWAP1 PUSH1 0x20 ADD DUP1 DUP4 GT PUSH2 0x857 JUMPI DUP3 SWAP1 SUB PUSH1 0x1F AND DUP3 ADD SWAP2 JUMPDEST POP POP POP POP POP DUP2 MSTORE PUSH1 0x20 ADD PUSH1 0x1 DUP3 ADD SLOAD DUP2 MSTORE PUSH1 0x20 ADD PUSH1 0x2 DUP3 ADD SLOAD DUP2 MSTORE PUSH1 0x20 ADD PUSH1 0x3 DUP3 ADD PUSH1 0x0 SWAP1 SLOAD SWAP1 PUSH2 0x100 EXP SWAP1 DIV PUSH1 0xFF AND PUSH1 0x3 DUP2 GT ISZERO PUSH2 0x8B6 JUMPI PUSH2 0x8B5 PUSH2 0xF6C JUMP JUMPDEST JUMPDEST PUSH1 0x3 DUP2 GT ISZERO PUSH2 0x8C8 JUMPI PUSH2 0x8C7 PUSH2 0xF6C JUMP JUMPDEST JUMPDEST DUP2 MSTORE PUSH1 0x20 ADD PUSH1 0x3 DUP3 ADD PUSH1 0x1 SWAP1 SLOAD SWAP1 PUSH2 0x100 EXP SWAP1 DIV PUSH1 0xFF AND PUSH1 0x3 DUP2 GT ISZERO PUSH2 0x8F1 JUMPI PUSH2 0x8F0 PUSH2 0xF6C JUMP JUMPDEST JUMPDEST PUSH1 0x3 DUP2 GT ISZERO PUSH2 0x903 JUMPI PUSH2 0x902 PUSH2 0xF6C JUMP JUMPDEST JUMPDEST DUP2 MSTORE PUSH1 0x20 ADD PUSH1 0x4 DUP3 ADD SLOAD DUP2 MSTORE POP POP SWAP3 POP DUP2 PUSH1 0x40 MLOAD DUP1 PUSH1 0xC0 ADD PUSH1 0x40 MSTORE SWAP1 DUP2 PUSH1 0x0 DUP3 ADD DUP1 SLOAD PUSH2 0x92F SWAP1 PUSH2 0x15A3 JUMP JUMPDEST DUP1 PUSH1 0x1F ADD PUSH1 0x20 DUP1 SWAP2 DIV MUL PUSH1 0x20 ADD PUSH1 0x40 MLOAD SWAP1 DUP2 ADD PUSH1 0x40 MSTORE DUP1 SWAP3 SWAP2 SWAP1 DUP2 DUP2 MSTORE PUSH1 0x20 ADD DUP3 DUP1 SLOAD PUSH2 0x95B SWAP1 PUSH2 0x15A3 JUMP JUMPDEST DUP1 ISZERO PUSH2 0x9A8 JUMPI DUP1 PUSH1 0x1F LT PUSH2 0x97D JUMPI PUSH2 0x100 DUP1 DUP4 SLOAD DIV MUL DUP4 MSTORE SWAP2 PUSH1 0x20 ADD SWAP2 PUSH2 0x9A8 JUMP JUMPDEST DUP3 ADD SWAP2 SWAP1 PUSH1 0x0 MSTORE PUSH1 0x20 PUSH1 0x0 KECCAK256 SWAP1 JUMPDEST DUP2 SLOAD DUP2 MSTORE SWAP1 PUSH1 0x1 ADD SWAP1 PUSH1 0x20 ADD DUP1 DUP4 GT PUSH2 0x98B JUMPI DUP3 SWAP1 SUB PUSH1 0x1F AND DUP3 ADD SWAP2 JUMPDEST POP POP POP POP POP DUP2 MSTORE PUSH1 0x20 ADD PUSH1 0x1 DUP3 ADD SLOAD DUP2 MSTORE PUSH1 0x20 ADD PUSH1 0x2 DUP3 ADD SLOAD DUP2 MSTORE PUSH1 0x20 ADD PUSH1 0x3 DUP3 ADD PUSH1 0x0 SWAP1 SLOAD SWAP1 PUSH2 0x100 EXP SWAP1 DIV PUSH1 0xFF AND PUSH1 0x3 DUP2 GT ISZERO PUSH2 0x9EA JUMPI PUSH2 0x9E9 PUSH2 0xF6C JUMP JUMPDEST JUMPDEST PUSH1 0x3 DUP2 GT ISZERO PUSH2 0x9FC JUMPI PUSH2 0x9FB PUSH2 0xF6C JUMP JUMPDEST JUMPDEST DUP2 MSTORE PUSH1 0x20 ADD PUSH1 0x3 DUP3 ADD PUSH1 0x1 SWAP1 SLOAD SWAP1 PUSH2 0x100 EXP SWAP1 DIV PUSH1 0xFF AND PUSH1 0x3 DUP2 GT ISZERO PUSH2 0xA25 JUMPI PUSH2 0xA24 PUSH2 0xF6C JUMP JUMPDEST JUMPDEST PUSH1 0x3 DUP2 GT ISZERO PUSH2 0xA37 JUMPI PUSH2 0xA36 PUSH2 0xF6C JUMP JUMPDEST JUMPDEST DUP2 MSTORE PUSH1 0x20 ADD PUSH1 0x4 DUP3 ADD SLOAD DUP2 MSTORE POP POP SWAP2 POP DUP1 PUSH1 0x40 MLOAD DUP1 PUSH1 0xC0 ADD PUSH1 0x40 MSTORE SWAP1 DUP2 PUSH1 0x0 DUP3 ADD DUP1 SLOAD PUSH2 0xA63 SWAP1 PUSH2 0x15A3 JUMP JUMPDEST DUP1 PUSH1 0x1F ADD PUSH1 0x20 DUP1 SWAP2 DIV MUL PUSH1 0x20 ADD PUSH1 0x40 MLOAD SWAP1 DUP2 ADD PUSH1 0x40 MSTORE DUP1 SWAP3 SWAP2 SWAP1 DUP2 DUP2 MSTORE PUSH1 0x20 ADD DUP3 DUP1 SLOAD PUSH2 0xA8F SWAP1 PUSH2 0x15A3 JUMP JUMPDEST DUP1 ISZERO PUSH2 0xADC JUMPI DUP1 PUSH1 0x1F LT PUSH2 0xAB1 JUMPI PUSH2 0x100 DUP1 DUP4 SLOAD DIV MUL DUP4 MSTORE SWAP2 PUSH1 0x20 ADD SWAP2 PUSH2 0xADC JUMP JUMPDEST DUP3 ADD SWAP2 SWAP1 PUSH1 0x0 MSTORE PUSH1 0x20 PUSH1 0x0 KECCAK256 SWAP1 JUMPDEST DUP2 SLOAD DUP2 MSTORE SWAP1 PUSH1 0x1 ADD SWAP1 PUSH1 0x20 ADD DUP1 DUP4 GT PUSH2 0xABF JUMPI DUP3 SWAP1 SUB PUSH1 0x1F AND DUP3 ADD SWAP2 JUMPDEST POP POP POP POP POP DUP2 MSTORE PUSH1 0x20 ADD PUSH1 0x1 DUP3 ADD SLOAD DUP2 MSTORE PUSH1 0x20 ADD PUSH1 0x2 DUP3 ADD SLOAD DUP2 MSTORE PUSH1 0x20 ADD PUSH1 0x3 DUP3 ADD PUSH1 0x0 SWAP1 SLOAD SWAP1 PUSH2 0x100 EXP SWAP1 DIV PUSH1 0xFF AND PUSH1 0x3 DUP2 GT ISZERO PUSH2 0xB1E JUMPI PUSH2 0xB1D PUSH2 0xF6C JUMP JUMPDEST JUMPDEST PUSH1 0x3 DUP2 GT ISZERO PUSH2 0xB30 JUMPI PUSH2 0xB2F PUSH2 0xF6C JUMP JUMPDEST JUMPDEST DUP2 MSTORE PUSH1 0x20 ADD PUSH1 0x3 DUP3 ADD PUSH1 0x1 SWAP1 SLOAD SWAP1 PUSH2 0x100 EXP SWAP1 DIV PUSH1 0xFF AND PUSH1 0x3 DUP2 GT ISZERO PUSH2 0xB59 JUMPI PUSH2 0xB58 PUSH2 0xF6C JUMP JUMPDEST JUMPDEST PUSH1 0x3 DUP2 GT ISZERO PUSH2 0xB6B JUMPI PUSH2 0xB6A PUSH2 0xF6C JUMP JUMPDEST JUMPDEST DUP2 MSTORE PUSH1 0x20 ADD PUSH1 0x4 DUP3 ADD SLOAD DUP2 MSTORE POP POP SWAP1 POP SWAP4 POP SWAP4 POP SWAP4 POP POP SWAP1 SWAP2 SWAP3 JUMP JUMPDEST PUSH1 0x0 DUP1 PUSH1 0x0 DUP9 DUP2 MSTORE PUSH1 0x20 ADD SWAP1 DUP2 MSTORE PUSH1 0x20 ADD PUSH1 0x0 KECCAK256 SWAP1 POP DUP6 DUP2 PUSH1 0x0 ADD SWAP1 DUP2 PUSH2 0xBAE SWAP2 SWAP1 PUSH2 0x1780 JUMP JUMPDEST POP DUP5 DUP2 PUSH1 0x1 ADD DUP2 SWAP1 SSTORE POP DUP4 DUP2 PUSH1 0x3 ADD PUSH1 0x0 PUSH2 0x100 EXP DUP2 SLOAD DUP2 PUSH1 0xFF MUL NOT AND SWAP1 DUP4 PUSH1 0x3 DUP2 GT ISZERO PUSH2 0xBDF JUMPI PUSH2 0xBDE PUSH2 0xF6C JUMP JUMPDEST JUMPDEST MUL OR SWAP1 SSTORE POP DUP3 DUP2 PUSH1 0x3 ADD PUSH1 0x1 PUSH2 0x100 EXP DUP2 SLOAD DUP2 PUSH1 0xFF MUL NOT AND SWAP1 DUP4 PUSH1 0x3 DUP2 GT ISZERO PUSH2 0xC0B JUMPI PUSH2 0xC0A PUSH2 0xF6C JUMP JUMPDEST JUMPDEST MUL OR SWAP1 SSTORE POP DUP2 DUP2 PUSH1 0x4 ADD DUP2 SWAP1 SSTORE POP POP POP POP POP POP POP POP JUMP JUMPDEST PUSH1 0x2 SLOAD DUP2 JUMP JUMPDEST PUSH1 0x0 DUP1 PUSH1 0x0 DUP1 PUSH1 0x1 PUSH1 0x0 DUP1 PUSH1 0x3 DUP2 GT ISZERO PUSH2 0xC45 JUMPI PUSH2 0xC44 PUSH2 0xF6C JUMP JUMPDEST JUMPDEST PUSH1 0x3 DUP2 GT ISZERO PUSH2 0xC57 JUMPI PUSH2 0xC56 PUSH2 0xF6C JUMP JUMPDEST JUMPDEST DUP2 MSTORE PUSH1 0x20 ADD SWAP1 DUP2 MSTORE PUSH1 0x20 ADD PUSH1 0x0 KECCAK256 SLOAD PUSH1 0x1 PUSH1 0x0 PUSH1 0x1 PUSH1 0x3 DUP2 GT ISZERO PUSH2 0xC7E JUMPI PUSH2 0xC7D PUSH2 0xF6C JUMP JUMPDEST JUMPDEST PUSH1 0x3 DUP2 GT ISZERO PUSH2 0xC90 JUMPI PUSH2 0xC8F PUSH2 0xF6C JUMP JUMPDEST JUMPDEST DUP2 MSTORE PUSH1 0x20 ADD SWAP1 DUP2 MSTORE PUSH1 0x20 ADD PUSH1 0x0 KECCAK256 SLOAD PUSH1 0x1 PUSH1 0x0 PUSH1 0x2 PUSH1 0x3 DUP2 GT ISZERO PUSH2 0xCB7 JUMPI PUSH2 0xCB6 PUSH2 0xF6C JUMP JUMPDEST JUMPDEST PUSH1 0x3 DUP2 GT ISZERO PUSH2 0xCC9 JUMPI PUSH2 0xCC8 PUSH2 0xF6C JUMP JUMPDEST JUMPDEST DUP2 MSTORE PUSH1 0x20 ADD SWAP1 DUP2 MSTORE PUSH1 0x20 ADD PUSH1 0x0 KECCAK256 SLOAD PUSH1 0x1 PUSH1 0x0 PUSH1 0x3 DUP1 DUP2 GT ISZERO PUSH2 0xCEF JUMPI PUSH2 0xCEE PUSH2 0xF6C JUMP JUMPDEST JUMPDEST PUSH1 0x3 DUP2 GT ISZERO PUSH2 0xD01 JUMPI PUSH2 0xD00 PUSH2 0xF6C JUMP JUMPDEST JUMPDEST DUP2 MSTORE PUSH1 0x20 ADD SWAP1 DUP2 MSTORE PUSH1 0x20 ADD PUSH1 0x0 KECCAK256 SLOAD SWAP4 POP SWAP4 POP SWAP4 POP SWAP4 POP SWAP1 SWAP2 SWAP3 SWAP4 JUMP JUMPDEST PUSH1 0x0 PUSH1 0x20 MSTORE DUP1 PUSH1 0x0 MSTORE PUSH1 0x40 PUSH1 0x0 KECCAK256 PUSH1 0x0 SWAP2 POP SWAP1 POP DUP1 PUSH1 0x0 ADD DUP1 SLOAD PUSH2 0xD41 SWAP1 PUSH2 0x15A3 JUMP JUMPDEST DUP1 PUSH1 0x1F ADD PUSH1 0x20 DUP1 SWAP2 DIV MUL PUSH1 0x20 ADD PUSH1 0x40 MLOAD SWAP1 DUP2 ADD PUSH1 0x40 MSTORE DUP1 SWAP3 SWAP2 SWAP1 DUP2 DUP2 MSTORE PUSH1 0x20 ADD DUP3 DUP1 SLOAD PUSH2 0xD6D SWAP1 PUSH2 0x15A3 JUMP JUMPDEST DUP1 ISZERO PUSH2 0xDBA JUMPI DUP1 PUSH1 0x1F LT PUSH2 0xD8F JUMPI PUSH2 0x100 DUP1 DUP4 SLOAD DIV MUL DUP4 MSTORE SWAP2 PUSH1 0x20 ADD SWAP2 PUSH2 0xDBA JUMP JUMPDEST DUP3 ADD SWAP2 SWAP1 PUSH1 0x0 MSTORE PUSH1 0x20 PUSH1 0x0 KECCAK256 SWAP1 JUMPDEST DUP2 SLOAD DUP2 MSTORE SWAP1 PUSH1 0x1 ADD SWAP1 PUSH1 0x20 ADD DUP1 DUP4 GT PUSH2 0xD9D JUMPI DUP3 SWAP1 SUB PUSH1 0x1F AND DUP3 ADD SWAP2 JUMPDEST POP POP POP POP POP SWAP1 DUP1 PUSH1 0x1 ADD SLOAD SWAP1 DUP1 PUSH1 0x2 ADD SLOAD SWAP1 DUP1 PUSH1 0x3 ADD PUSH1 0x0 SWAP1 SLOAD SWAP1 PUSH2 0x100 EXP SWAP1 DIV PUSH1 0xFF AND SWAP1 DUP1 PUSH1 0x3 ADD PUSH1 0x1 SWAP1 SLOAD SWAP1 PUSH2 0x100 EXP SWAP1 DIV PUSH1 0xFF AND SWAP1 DUP1 PUSH1 0x4 ADD SLOAD SWAP1 POP DUP7 JUMP JUMPDEST PUSH1 0x40 MLOAD DUP1 PUSH1 0xC0 ADD PUSH1 0x40 MSTORE DUP1 PUSH1 0x60 DUP2 MSTORE PUSH1 0x20 ADD PUSH1 0x0 DUP2 MSTORE PUSH1 0x20 ADD PUSH1 0x0 DUP2 MSTORE PUSH1 0x20 ADD PUSH1 0x0 PUSH1 0x3 DUP2 GT ISZERO PUSH2 0xE30 JUMPI PUSH2 0xE2F PUSH2 0xF6C JUMP JUMPDEST JUMPDEST DUP2 MSTORE PUSH1 0x20 ADD PUSH1 0x0 PUSH1 0x3 DUP2 GT ISZERO PUSH2 0xE49 JUMPI PUSH2 0xE48 PUSH2 0xF6C JUMP JUMPDEST JUMPDEST DUP2 MSTORE PUSH1 0x20 ADD PUSH1 0x0 DUP2 MSTORE POP SWAP1 JUMP JUMPDEST PUSH1 0x0 PUSH1 0x40 MLOAD SWAP1 POP SWAP1 JUMP JUMPDEST PUSH1 0x0 DUP1 REVERT JUMPDEST PUSH1 0x0 DUP1 REVERT JUMPDEST PUSH1 0x0 DUP2 SWAP1 POP SWAP2 SWAP1 POP JUMP JUMPDEST PUSH2 0xE7D DUP2 PUSH2 0xE6A JUMP JUMPDEST DUP2 EQ PUSH2 0xE88 JUMPI PUSH1 0x0 DUP1 REVERT JUMPDEST POP JUMP JUMPDEST PUSH1 0x0 DUP2 CALLDATALOAD SWAP1 POP PUSH2 0xE9A DUP2 PUSH2 0xE74 JUMP JUMPDEST SWAP3 SWAP2 POP POP JUMP JUMPDEST PUSH1 0x0 PUSH1 0x20 DUP3 DUP5 SUB SLT ISZERO PUSH2 0xEB6 JUMPI PUSH2 0xEB5 PUSH2 0xE60 JUMP JUMPDEST JUMPDEST PUSH1 0x0 PUSH2 0xEC4 DUP5 DUP3 DUP6 ADD PUSH2 0xE8B JUMP JUMPDEST SWAP2 POP POP SWAP3 SWAP2 POP POP JUMP JUMPDEST PUSH1 0x0 DUP2 MLOAD SWAP1 POP SWAP2 SWAP1 POP JUMP JUMPDEST PUSH1 0x0 DUP3 DUP3 MSTORE PUSH1 0x20 DUP3 ADD SWAP1 POP SWAP3 SWAP2 POP POP JUMP JUMPDEST PUSH1 0x0 JUMPDEST DUP4 DUP2 LT ISZERO PUSH2 0xF07 JUMPI DUP1 DUP3 ADD MLOAD DUP2 DUP5 ADD MSTORE PUSH1 0x20 DUP2 ADD SWAP1 POP PUSH2 0xEEC JUMP JUMPDEST PUSH1 0x0 DUP5 DUP5 ADD MSTORE POP POP POP POP JUMP JUMPDEST PUSH1 0x0 PUSH1 0x1F NOT PUSH1 0x1F DUP4 ADD AND SWAP1 POP SWAP2 SWAP1 POP JUMP JUMPDEST PUSH1 0x0 PUSH2 0xF2F DUP3 PUSH2 0xECD JUMP JUMPDEST PUSH2 0xF39 DUP2 DUP6 PUSH2 0xED8 JUMP JUMPDEST SWAP4 POP PUSH2 0xF49 DUP2 DUP6 PUSH1 0x20 DUP7 ADD PUSH2 0xEE9 JUMP JUMPDEST PUSH2 0xF52 DUP2 PUSH2 0xF13 JUMP JUMPDEST DUP5 ADD SWAP2 POP POP SWAP3 SWAP2 POP POP JUMP JUMPDEST PUSH2 0xF66 DUP2 PUSH2 0xE6A JUMP JUMPDEST DUP3 MSTORE POP POP JUMP JUMPDEST PUSH32 0x4E487B7100000000000000000000000000000000000000000000000000000000 PUSH1 0x0 MSTORE PUSH1 0x21 PUSH1 0x4 MSTORE PUSH1 0x24 PUSH1 0x0 REVERT JUMPDEST PUSH1 0x4 DUP2 LT PUSH2 0xFAC JUMPI PUSH2 0xFAB PUSH2 0xF6C JUMP JUMPDEST JUMPDEST POP JUMP JUMPDEST PUSH1 0x0 DUP2 SWAP1 POP PUSH2 0xFBD DUP3 PUSH2 0xF9B JUMP JUMPDEST SWAP2 SWAP1 POP JUMP JUMPDEST PUSH1 0x0 PUSH2 0xFCD DUP3 PUSH2 0xFAF JUMP JUMPDEST SWAP1 POP SWAP2 SWAP1 POP JUMP JUMPDEST PUSH2 0xFDD DUP2 PUSH2 0xFC2 JUMP JUMPDEST DUP3 MSTORE POP POP JUMP JUMPDEST PUSH1 0x4 DUP2 LT PUSH2 0xFF4 JUMPI PUSH2 0xFF3 PUSH2 0xF6C JUMP JUMPDEST JUMPDEST POP JUMP JUMPDEST PUSH1 0x0 DUP2 SWAP1 POP PUSH2 0x1005 DUP3 PUSH2 0xFE3 JUMP JUMPDEST SWAP2 SWAP1 POP JUMP JUMPDEST PUSH1 0x0 PUSH2 0x1015 DUP3 PUSH2 0xFF7 JUMP JUMPDEST SWAP1 POP SWAP2 SWAP1 POP JUMP JUMPDEST PUSH2 0x1025 DUP2 PUSH2 0x100A JUMP JUMPDEST DUP3 MSTORE POP POP JUMP JUMPDEST PUSH1 0x0 PUSH1 0xC0 DUP4 ADD PUSH1 0x0 DUP4 ADD MLOAD DUP5 DUP3 SUB PUSH1 0x0 DUP7 ADD MSTORE PUSH2 0x1048 DUP3 DUP3 PUSH2 0xF24 JUMP JUMPDEST SWAP2 POP POP PUSH1 0x20 DUP4 ADD MLOAD PUSH2 0x105D PUSH1 0x20 DUP7 ADD DUP3 PUSH2 0xF5D JUMP JUMPDEST POP PUSH1 0x40 DUP4 ADD MLOAD PUSH2 0x1070 PUSH1 0x40 DUP7 ADD DUP3 PUSH2 0xF5D JUMP JUMPDEST POP PUSH1 0x60 DUP4 ADD MLOAD PUSH2 0x1083 PUSH1 0x60 DUP7 ADD DUP3 PUSH2 0xFD4 JUMP JUMPDEST POP PUSH1 0x80 DUP4 ADD MLOAD PUSH2 0x1096 PUSH1 0x80 DUP7 ADD DUP3 PUSH2 0x101C JUMP JUMPDEST POP PUSH1 0xA0 DUP4 ADD MLOAD PUSH2 0x10A9 PUSH1 0xA0 DUP7 ADD DUP3 PUSH2 0xF5D JUMP JUMPDEST POP DUP1 SWAP2 POP POP SWAP3 SWAP2 POP POP JUMP JUMPDEST PUSH1 0x0 PUSH1 0x20 DUP3 ADD SWAP1 POP DUP2 DUP2 SUB PUSH1 0x0 DUP4 ADD MSTORE PUSH2 0x10CE DUP2 DUP5 PUSH2 0x102B JUMP JUMPDEST SWAP1 POP SWAP3 SWAP2 POP POP JUMP JUMPDEST PUSH1 0x0 DUP1 REVERT JUMPDEST PUSH1 0x0 DUP1 REVERT JUMPDEST PUSH32 0x4E487B7100000000000000000000000000000000000000000000000000000000 PUSH1 0x0 MSTORE PUSH1 0x41 PUSH1 0x4 MSTORE PUSH1 0x24 PUSH1 0x0 REVERT JUMPDEST PUSH2 0x1118 DUP3 PUSH2 0xF13 JUMP JUMPDEST DUP2 ADD DUP2 DUP2 LT PUSH8 0xFFFFFFFFFFFFFFFF DUP3 GT OR ISZERO PUSH2 0x1137 JUMPI PUSH2 0x1136 PUSH2 0x10E0 JUMP JUMPDEST JUMPDEST DUP1 PUSH1 0x40 MSTORE POP POP POP JUMP JUMPDEST PUSH1 0x0 PUSH2 0x114A PUSH2 0xE56 JUMP JUMPDEST SWAP1 POP PUSH2 0x1156 DUP3 DUP3 PUSH2 0x110F JUMP JUMPDEST SWAP2 SWAP1 POP JUMP JUMPDEST PUSH1 0x0 PUSH8 0xFFFFFFFFFFFFFFFF DUP3 GT ISZERO PUSH2 0x1176 JUMPI PUSH2 0x1175 PUSH2 0x10E0 JUMP JUMPDEST JUMPDEST PUSH2 0x117F DUP3 PUSH2 0xF13 JUMP JUMPDEST SWAP1 POP PUSH1 0x20 DUP2 ADD SWAP1 POP SWAP2 SWAP1 POP JUMP JUMPDEST DUP3 DUP2 DUP4 CALLDATACOPY PUSH1 0x0 DUP4 DUP4 ADD MSTORE POP POP POP JUMP JUMPDEST PUSH1 0x0 PUSH2 0x11AE PUSH2 0x11A9 DUP5 PUSH2 0x115B JUMP JUMPDEST PUSH2 0x1140 JUMP JUMPDEST SWAP1 POP DUP3 DUP2 MSTORE PUSH1 0x20 DUP2 ADD DUP5 DUP5 DUP5 ADD GT ISZERO PUSH2 0x11CA JUMPI PUSH2 0x11C9 PUSH2 0x10DB JUMP JUMPDEST JUMPDEST PUSH2 0x11D5 DUP5 DUP3 DUP6 PUSH2 0x118C JUMP JUMPDEST POP SWAP4 SWAP3 POP POP POP JUMP JUMPDEST PUSH1 0x0 DUP3 PUSH1 0x1F DUP4 ADD SLT PUSH2 0x11F2 JUMPI PUSH2 0x11F1 PUSH2 0x10D6 JUMP JUMPDEST JUMPDEST DUP2 CALLDATALOAD PUSH2 0x1202 DUP5 DUP3 PUSH1 0x20 DUP7 ADD PUSH2 0x119B JUMP JUMPDEST SWAP2 POP POP SWAP3 SWAP2 POP POP JUMP JUMPDEST PUSH1 0x4 DUP2 LT PUSH2 0x1218 JUMPI PUSH1 0x0 DUP1 REVERT JUMPDEST POP JUMP JUMPDEST PUSH1 0x0 DUP2 CALLDATALOAD SWAP1 POP PUSH2 0x122A DUP2 PUSH2 0x120B JUMP JUMPDEST SWAP3 SWAP2 POP POP JUMP JUMPDEST PUSH1 0x4 DUP2 LT PUSH2 0x123D JUMPI PUSH1 0x0 DUP1 REVERT JUMPDEST POP JUMP JUMPDEST PUSH1 0x0 DUP2 CALLDATALOAD SWAP1 POP PUSH2 0x124F DUP2 PUSH2 0x1230 JUMP JUMPDEST SWAP3 SWAP2 POP POP JUMP JUMPDEST PUSH1 0x0 DUP1 PUSH1 0x0 DUP1 PUSH1 0x0 DUP1 PUSH1 0x0 PUSH1 0xE0 DUP9 DUP11 SUB SLT ISZERO PUSH2 0x1274 JUMPI PUSH2 0x1273 PUSH2 0xE60 JUMP JUMPDEST JUMPDEST PUSH1 0x0 PUSH2 0x1282 DUP11 DUP3 DUP12 ADD PUSH2 0xE8B JUMP JUMPDEST SWAP8 POP POP PUSH1 0x20 DUP9 ADD CALLDATALOAD PUSH8 0xFFFFFFFFFFFFFFFF DUP2 GT ISZERO PUSH2 0x12A3 JUMPI PUSH2 0x12A2 PUSH2 0xE65 JUMP JUMPDEST JUMPDEST PUSH2 0x12AF DUP11 DUP3 DUP12 ADD PUSH2 0x11DD JUMP JUMPDEST SWAP7 POP POP PUSH1 0x40 PUSH2 0x12C0 DUP11 DUP3 DUP12 ADD PUSH2 0xE8B JUMP JUMPDEST SWAP6 POP POP PUSH1 0x60 PUSH2 0x12D1 DUP11 DUP3 DUP12 ADD PUSH2 0xE8B JUMP JUMPDEST SWAP5 POP POP PUSH1 0x80 PUSH2 0x12E2 DUP11 DUP3 DUP12 ADD PUSH2 0x121B JUMP JUMPDEST SWAP4 POP POP PUSH1 0xA0 PUSH2 0x12F3 DUP11 DUP3 DUP12 ADD PUSH2 0x1240 JUMP JUMPDEST SWAP3 POP POP PUSH1 0xC0 PUSH2 0x1304 DUP11 DUP3 DUP12 ADD PUSH2 0xE8B JUMP JUMPDEST SWAP2 POP POP SWAP3 SWAP6 SWAP9 SWAP2 SWAP5 SWAP8 POP SWAP3 SWAP6 POP JUMP JUMPDEST PUSH1 0x0 PUSH1 0x20 DUP3 DUP5 SUB SLT ISZERO PUSH2 0x1329 JUMPI PUSH2 0x1328 PUSH2 0xE60 JUMP JUMPDEST JUMPDEST PUSH1 0x0 PUSH2 0x1337 DUP5 DUP3 DUP6 ADD PUSH2 0x121B JUMP JUMPDEST SWAP2 POP POP SWAP3 SWAP2 POP POP JUMP JUMPDEST PUSH2 0x1349 DUP2 PUSH2 0xE6A JUMP JUMPDEST DUP3 MSTORE POP POP JUMP JUMPDEST PUSH1 0x0 PUSH1 0x20 DUP3 ADD SWAP1 POP PUSH2 0x1364 PUSH1 0x0 DUP4 ADD DUP5 PUSH2 0x1340 JUMP JUMPDEST SWAP3 SWAP2 POP POP JUMP JUMPDEST PUSH1 0x0 PUSH1 0x60 DUP3 ADD SWAP1 POP DUP2 DUP2 SUB PUSH1 0x0 DUP4 ADD MSTORE PUSH2 0x1384 DUP2 DUP7 PUSH2 0x102B JUMP JUMPDEST SWAP1 POP DUP2 DUP2 SUB PUSH1 0x20 DUP4 ADD MSTORE PUSH2 0x1398 DUP2 DUP6 PUSH2 0x102B JUMP JUMPDEST SWAP1 POP DUP2 DUP2 SUB PUSH1 0x40 DUP4 ADD MSTORE PUSH2 0x13AC DUP2 DUP5 PUSH2 0x102B JUMP JUMPDEST SWAP1 POP SWAP5 SWAP4 POP POP POP POP JUMP JUMPDEST PUSH1 0x0 DUP1 PUSH1 0x0 DUP1 PUSH1 0x0 DUP1 PUSH1 0xC0 DUP8 DUP10 SUB SLT ISZERO PUSH2 0x13D3 JUMPI PUSH2 0x13D2 PUSH2 0xE60 JUMP JUMPDEST JUMPDEST PUSH1 0x0 PUSH2 0x13E1 DUP10 DUP3 DUP11 ADD PUSH2 0xE8B JUMP JUMPDEST SWAP7 POP POP PUSH1 0x20 DUP8 ADD CALLDATALOAD PUSH8 0xFFFFFFFFFFFFFFFF DUP2 GT ISZERO PUSH2 0x1402 JUMPI PUSH2 0x1401 PUSH2 0xE65 JUMP JUMPDEST JUMPDEST PUSH2 0x140E DUP10 DUP3 DUP11 ADD PUSH2 0x11DD JUMP JUMPDEST SWAP6 POP POP PUSH1 0x40 PUSH2 0x141F DUP10 DUP3 DUP11 ADD PUSH2 0xE8B JUMP JUMPDEST SWAP5 POP POP PUSH1 0x60 PUSH2 0x1430 DUP10 DUP3 DUP11 ADD PUSH2 0x121B JUMP JUMPDEST SWAP4 POP POP PUSH1 0x80 PUSH2 0x1441 DUP10 DUP3 DUP11 ADD PUSH2 0x1240 JUMP JUMPDEST SWAP3 POP POP PUSH1 0xA0 PUSH2 0x1452 DUP10 DUP3 DUP11 ADD PUSH2 0xE8B JUMP JUMPDEST SWAP2 POP POP SWAP3 SWAP6 POP SWAP3 SWAP6 POP SWAP3 SWAP6 JUMP JUMPDEST PUSH1 0x0 PUSH1 0x80 DUP3 ADD SWAP1 POP PUSH2 0x1474 PUSH1 0x0 DUP4 ADD DUP8 PUSH2 0x1340 JUMP JUMPDEST PUSH2 0x1481 PUSH1 0x20 DUP4 ADD DUP7 PUSH2 0x1340 JUMP JUMPDEST PUSH2 0x148E PUSH1 0x40 DUP4 ADD DUP6 PUSH2 0x1340 JUMP JUMPDEST PUSH2 0x149B PUSH1 0x60 DUP4 ADD DUP5 PUSH2 0x1340 JUMP JUMPDEST SWAP6 SWAP5 POP POP POP POP POP JUMP JUMPDEST PUSH1 0x0 DUP3 DUP3 MSTORE PUSH1 0x20 DUP3 ADD SWAP1 POP SWAP3 SWAP2 POP POP JUMP JUMPDEST PUSH1 0x0 PUSH2 0x14C0 DUP3 PUSH2 0xECD JUMP JUMPDEST PUSH2 0x14CA DUP2 DUP6 PUSH2 0x14A4 JUMP JUMPDEST SWAP4 POP PUSH2 0x14DA DUP2 DUP6 PUSH1 0x20 DUP7 ADD PUSH2 0xEE9 JUMP JUMPDEST PUSH2 0x14E3 DUP2 PUSH2 0xF13 JUMP JUMPDEST DUP5 ADD SWAP2 POP POP SWAP3 SWAP2 POP POP JUMP JUMPDEST PUSH2 0x14F7 DUP2 PUSH2 0xFC2 JUMP JUMPDEST DUP3 MSTORE POP POP JUMP JUMPDEST PUSH2 0x1506 DUP2 PUSH2 0x100A JUMP JUMPDEST DUP3 MSTORE POP POP JUMP JUMPDEST PUSH1 0x0 PUSH1 0xC0 DUP3 ADD SWAP1 POP DUP2 DUP2 SUB PUSH1 0x0 DUP4 ADD MSTORE PUSH2 0x1526 DUP2 DUP10 PUSH2 0x14B5 JUMP JUMPDEST SWAP1 POP PUSH2 0x1535 PUSH1 0x20 DUP4 ADD DUP9 PUSH2 0x1340 JUMP JUMPDEST PUSH2 0x1542 PUSH1 0x40 DUP4 ADD DUP8 PUSH2 0x1340 JUMP JUMPDEST PUSH2 0x154F PUSH1 0x60 DUP4 ADD DUP7 PUSH2 0x14EE JUMP JUMPDEST PUSH2 0x155C PUSH1 0x80 DUP4 ADD DUP6 PUSH2 0x14FD JUMP JUMPDEST PUSH2 0x1569 PUSH1 0xA0 DUP4 ADD DUP5 PUSH2 0x1340 JUMP JUMPDEST SWAP8 SWAP7 POP POP POP POP POP POP POP JUMP JUMPDEST PUSH32 0x4E487B7100000000000000000000000000000000000000000000000000000000 PUSH1 0x0 MSTORE PUSH1 0x22 PUSH1 0x4 MSTORE PUSH1 0x24 PUSH1 0x0 REVERT JUMPDEST PUSH1 0x0 PUSH1 0x2 DUP3 DIV SWAP1 POP PUSH1 0x1 DUP3 AND DUP1 PUSH2 0x15BB JUMPI PUSH1 0x7F DUP3 AND SWAP2 POP JUMPDEST PUSH1 0x20 DUP3 LT DUP2 SUB PUSH2 0x15CE JUMPI PUSH2 0x15CD PUSH2 0x1574 JUMP JUMPDEST JUMPDEST POP SWAP2 SWAP1 POP JUMP JUMPDEST PUSH1 0x0 DUP2 SWAP1 POP DUP2 PUSH1 0x0 MSTORE PUSH1 0x20 PUSH1 0x0 KECCAK256 SWAP1 POP SWAP2 SWAP1 POP JUMP JUMPDEST PUSH1 0x0 PUSH1 0x20 PUSH1 0x1F DUP4 ADD DIV SWAP1 POP SWAP2 SWAP1 POP JUMP JUMPDEST PUSH1 0x0 DUP3 DUP3 SHL SWAP1 POP SWAP3 SWAP2 POP POP JUMP JUMPDEST PUSH1 0x0 PUSH1 0x8 DUP4 MUL PUSH2 0x1636 PUSH32 0xFFFFFFFFFFFFFFFFFFFFFFFFFFFFFFFFFFFFFFFFFFFFFFFFFFFFFFFFFFFFFFFF DUP3 PUSH2 0x15F9 JUMP JUMPDEST PUSH2 0x1640 DUP7 DUP4 PUSH2 0x15F9 JUMP JUMPDEST SWAP6 POP DUP1 NOT DUP5 AND SWAP4 POP DUP1 DUP7 AND DUP5 OR SWAP3 POP POP POP SWAP4 SWAP3 POP POP POP JUMP JUMPDEST PUSH1 0x0 DUP2 SWAP1 POP SWAP2 SWAP1 POP JUMP JUMPDEST PUSH1 0x0 PUSH2 0x167D PUSH2 0x1678 PUSH2 0x1673 DUP5 PUSH2 0xE6A JUMP JUMPDEST PUSH2 0x1658 JUMP JUMPDEST PUSH2 0xE6A JUMP JUMPDEST SWAP1 POP SWAP2 SWAP1 POP JUMP JUMPDEST PUSH1 0x0 DUP2 SWAP1 POP SWAP2 SWAP1 POP JUMP JUMPDEST PUSH2 0x1697 DUP4 PUSH2 0x1662 JUMP JUMPDEST PUSH2 0x16AB PUSH2 0x16A3 DUP3 PUSH2 0x1684 JUMP JUMPDEST DUP5 DUP5 SLOAD PUSH2 0x1606 JUMP JUMPDEST DUP3 SSTORE POP POP POP POP JUMP JUMPDEST PUSH1 0x0 SWAP1 JUMP JUMPDEST PUSH2 0x16C0 PUSH2 0x16B3 JUMP JUMPDEST PUSH2 0x16CB DUP2 DUP5 DUP5 PUSH2 0x168E JUMP JUMPDEST POP POP POP JUMP JUMPDEST JUMPDEST DUP2 DUP2 LT ISZERO PUSH2 0x16EF JUMPI PUSH2 0x16E4 PUSH1 0x0 DUP3 PUSH2 0x16B8 JUMP JUMPDEST PUSH1 0x1 DUP2 ADD SWAP1 POP PUSH2 0x16D1 JUMP JUMPDEST POP POP JUMP JUMPDEST PUSH1 0x1F DUP3 GT ISZERO PUSH2 0x1734 JUMPI PUSH2 0x1705 DUP2 PUSH2 0x15D4 JUMP JUMPDEST PUSH2 0x170E DUP5 PUSH2 0x15E9 JUMP JUMPDEST DUP2 ADD PUSH1 0x20 DUP6 LT ISZERO PUSH2 0x171D JUMPI DUP2 SWAP1 POP JUMPDEST PUSH2 0x1731 PUSH2 0x1729 DUP6 PUSH2 0x15E9 JUMP JUMPDEST DUP4 ADD DUP3 PUSH2 0x16D0 JUMP JUMPDEST POP POP JUMPDEST POP POP POP JUMP JUMPDEST PUSH1 0x0 DUP3 DUP3 SHR SWAP1 POP SWAP3 SWAP2 POP POP JUMP JUMPDEST PUSH1 0x0 PUSH2 0x1757 PUSH1 0x0 NOT DUP5 PUSH1 0x8 MUL PUSH2 0x1739 JUMP JUMPDEST NOT DUP1 DUP4 AND SWAP2 POP POP SWAP3 SWAP2 POP POP JUMP JUMPDEST PUSH1 0x0 PUSH2 0x1770 DUP4 DUP4 PUSH2 0x1746 JUMP JUMPDEST SWAP2 POP DUP3 PUSH1 0x2 MUL DUP3 OR SWAP1 POP SWAP3 SWAP2 POP POP JUMP JUMPDEST PUSH2 0x1789 DUP3 PUSH2 0xECD JUMP JUMPDEST PUSH8 0xFFFFFFFFFFFFFFFF DUP2 GT ISZERO PUSH2 0x17A2 JUMPI PUSH2 0x17A1 PUSH2 0x10E0 JUMP JUMPDEST JUMPDEST PUSH2 0x17AC DUP3 SLOAD PUSH2 0x15A3 JUMP JUMPDEST PUSH2 0x17B7 DUP3 DUP3 DUP6 PUSH2 0x16F3 JUMP JUMPDEST PUSH1 0x0 PUSH1 0x20 SWAP1 POP PUSH1 0x1F DUP4 GT PUSH1 0x1 DUP2 EQ PUSH2 0x17EA JUMPI PUSH1 0x0 DUP5 ISZERO PUSH2 0x17D8 JUMPI DUP3 DUP8 ADD MLOAD SWAP1 POP JUMPDEST PUSH2 0x17E2 DUP6 DUP3 PUSH2 0x1764 JUMP JUMPDEST DUP7 SSTORE POP PUSH2 0x184A JUMP JUMPDEST PUSH1 0x1F NOT DUP5 AND PUSH2 0x17F8 DUP7 PUSH2 0x15D4 JUMP JUMPDEST PUSH1 0x0 JUMPDEST DUP3 DUP2 LT ISZERO PUSH2 0x1820 JUMPI DUP5 DUP10 ADD MLOAD DUP3 SSTORE PUSH1 0x1 DUP3 ADD SWAP2 POP PUSH1 0x20 DUP6 ADD SWAP5 POP PUSH1 0x20 DUP2 ADD SWAP1 POP PUSH2 0x17FB JUMP JUMPDEST DUP7 DUP4 LT ISZERO PUSH2 0x183D JUMPI DUP5 DUP10 ADD MLOAD PUSH2 0x1839 PUSH1 0x1F DUP10 AND DUP3 PUSH2 0x1746 JUMP JUMPDEST DUP4 SSTORE POP JUMPDEST PUSH1 0x1 PUSH1 0x2 DUP9 MUL ADD DUP9 SSTORE POP POP POP JUMPDEST POP POP POP POP POP POP JUMP JUMPDEST PUSH32 0x4E487B7100000000000000000000000000000000000000000000000000000000 PUSH1 0x0 MSTORE PUSH1 0x11 PUSH1 0x4 MSTORE PUSH1 0x24 PUSH1 0x0 REVERT JUMPDEST PUSH1 0x0 PUSH2 0x188C DUP3 PUSH2 0xE6A JUMP JUMPDEST SWAP2 POP PUSH32 0xFFFFFFFFFFFFFFFFFFFFFFFFFFFFFFFFFFFFFFFFFFFFFFFFFFFFFFFFFFFFFFFF DUP3 SUB PUSH2 0x18BE JUMPI PUSH2 0x18BD PUSH2 0x1852 JUMP JUMPDEST JUMPDEST PUSH1 0x1 DUP3 ADD SWAP1 POP SWAP2 SWAP1 POP JUMP JUMPDEST PUSH32 0x4E487B7100000000000000000000000000000000000000000000000000000000 PUSH1 0x0 MSTORE PUSH1 0x32 PUSH1 0x4 MSTORE PUSH1 0x24 PUSH1 0x0 REVERT JUMPDEST PUSH1 0x0 PUSH2 0x1903 DUP3 PUSH2 0xE6A JUMP JUMPDEST SWAP2 POP PUSH2 0x190E DUP4 PUSH2 0xE6A JUMP JUMPDEST SWAP3 POP DUP3 DUP3 SUB SWAP1 POP DUP2 DUP2 GT ISZERO PUSH2 0x1926 JUMPI PUSH2 0x1925 PUSH2 0x1852 JUMP JUMPDEST JUMPDEST SWAP3 SWAP2 POP POP JUMP JUMPDEST PUSH1 0x0 PUSH2 0x1937 DUP3 PUSH2 0xE6A JUMP JUMPDEST SWAP2 POP PUSH2 0x1942 DUP4 PUSH2 0xE6A JUMP JUMPDEST SWAP3 POP DUP3 DUP3 ADD SWAP1 POP DUP1 DUP3 GT ISZERO PUSH2 0x195A JUMPI PUSH2 0x1959 PUSH2 0x1852 JUMP JUMPDEST JUMPDEST SWAP3 SWAP2 POP POP JUMP INVALID LOG2 PUSH5 0x6970667358 0x22 SLT KECCAK256 0x2F SIGNEXTEND 0xE3 0x2E SWAP10 PUSH11 0xC5E813169E8BC47936FDC5 PUSH28 0x8591096414478C6F2BAC27F1ED0C64736F6C63430008120033000000 "
				},
				"gasEstimates": {
					"creation": {
						"codeDepositCost": "1310000",
						"executionCost": "6369",
						"totalCost": "1316369"
					},
					"external": {
						"departmentCounts(uint8)": "2767",
						"getDepartmentStudentCount()": "infinite",
						"getTopThreeStudents()": "infinite",
						"registerStudent(uint256,string,uint256,uint256,uint8,uint8,uint256)": "infinite",
						"retrieveDetail(uint256)": "infinite",
						"studentMap(uint256)": "infinite",
						"totalStudents()": "2451",
						"updateStudentDetails(uint256,string,uint256,uint8,uint8,uint256)": "infinite"
					}
				},
				"methodIdentifiers": {
					"departmentCounts(uint8)": "39aabbbb",
					"getDepartmentStudentCount()": "c9f7aae9",
					"getTopThreeStudents()": "611f9995",
					"registerStudent(uint256,string,uint256,uint256,uint8,uint8,uint256)": "1ea7b510",
					"retrieveDetail(uint256)": "1641f090",
					"studentMap(uint256)": "ceea3c78",
					"totalStudents()": "9852bf8e",
					"updateStudentDetails(uint256,string,uint256,uint8,uint8,uint256)": "7e99b5a6"
				}
			},
			"storageLayout": {
				"storage": [
					{
						"astId": 31,
						"contract": "contracts/08-8 StudentRegistrationSystem.sol:StudentManagement",
						"label": "studentMap",
						"offset": 0,
						"slot": "0",
						"type": "t_mapping(t_uint256,t_struct(Student)26_storage)"
					},
					{
						"astId": 36,
						"contract": "contracts/08-8 StudentRegistrationSystem.sol:StudentManagement",
						"label": "departmentCounts",
						"offset": 0,
						"slot": "1",
						"type": "t_mapping(t_enum(Department)6,t_uint256)"
					},
					{
						"astId": 39,
						"contract": "contracts/08-8 StudentRegistrationSystem.sol:StudentManagement",
						"label": "totalStudents",
						"offset": 0,
						"slot": "2",
						"type": "t_uint256"
					}
				],
				"types": {
					"t_enum(Department)6": {
						"encoding": "inplace",
						"label": "enum Department",
						"numberOfBytes": "1"
					},
					"t_enum(Status)11": {
						"encoding": "inplace",
						"label": "enum Status",
						"numberOfBytes": "1"
					},
					"t_mapping(t_enum(Department)6,t_uint256)": {
						"encoding": "mapping",
						"key": "t_enum(Department)6",
						"label": "mapping(enum Department => uint256)",
						"numberOfBytes": "32",
						"value": "t_uint256"
					},
					"t_mapping(t_uint256,t_struct(Student)26_storage)": {
						"encoding": "mapping",
						"key": "t_uint256",
						"label": "mapping(uint256 => struct Student)",
						"numberOfBytes": "32",
						"value": "t_struct(Student)26_storage"
					},
					"t_string_storage": {
						"encoding": "bytes",
						"label": "string",
						"numberOfBytes": "32"
					},
					"t_struct(Student)26_storage": {
						"encoding": "inplace",
						"label": "struct Student",
						"members": [
							{
								"astId": 13,
								"contract": "contracts/08-8 StudentRegistrationSystem.sol:StudentManagement",
								"label": "studentName",
								"offset": 0,
								"slot": "0",
								"type": "t_string_storage"
							},
							{
								"astId": 15,
								"contract": "contracts/08-8 StudentRegistrationSystem.sol:StudentManagement",
								"label": "studentAge",
								"offset": 0,
								"slot": "1",
								"type": "t_uint256"
							},
							{
								"astId": 17,
								"contract": "contracts/08-8 StudentRegistrationSystem.sol:StudentManagement",
								"label": "registrationDate",
								"offset": 0,
								"slot": "2",
								"type": "t_uint256"
							},
							{
								"astId": 20,
								"contract": "contracts/08-8 StudentRegistrationSystem.sol:StudentManagement",
								"label": "studentDepartment",
								"offset": 0,
								"slot": "3",
								"type": "t_enum(Department)6"
							},
							{
								"astId": 23,
								"contract": "contracts/08-8 StudentRegistrationSystem.sol:StudentManagement",
								"label": "studentStatus",
								"offset": 1,
								"slot": "3",
								"type": "t_enum(Status)11"
							},
							{
								"astId": 25,
								"contract": "contracts/08-8 StudentRegistrationSystem.sol:StudentManagement",
								"label": "obtainedMarks",
								"offset": 0,
								"slot": "4",
								"type": "t_uint256"
							}
						],
						"numberOfBytes": "160"
					},
					"t_uint256": {
						"encoding": "inplace",
						"label": "uint256",
						"numberOfBytes": "32"
					}
				}
			},
			"userdoc": {
				"kind": "user",
				"methods": {},
				"version": 1
			}
		}
	}
}