{
	"contracts/08-8 del.sol": {
		"Student_Registration_System": {
			"abi": [
				{
					"inputs": [],
					"name": "Top_3_Achievers",
					"outputs": [],
					"stateMutability": "nonpayable",
					"type": "function"
				},
				{
					"inputs": [
						{
							"internalType": "enum Status",
							"name": "_status",
							"type": "uint8"
						}
					],
					"name": "checkStatus",
					"outputs": [
						{
							"internalType": "uint256",
							"name": "x",
							"type": "uint256"
						}
					],
					"stateMutability": "pure",
					"type": "function"
				},
				{
					"inputs": [],
					"name": "count_of_students",
					"outputs": [
						{
							"internalType": "uint256",
							"name": "Ai",
							"type": "uint256"
						},
						{
							"internalType": "uint256",
							"name": "Art",
							"type": "uint256"
						},
						{
							"internalType": "uint256",
							"name": "Blockchain",
							"type": "uint256"
						},
						{
							"internalType": "uint256",
							"name": "E_Commerceuint",
							"type": "uint256"
						}
					],
					"stateMutability": "view",
					"type": "function"
				},
				{
					"inputs": [
						{
							"internalType": "uint256",
							"name": "StdRollNo",
							"type": "uint256"
						},
						{
							"internalType": "string",
							"name": "_name",
							"type": "string"
						},
						{
							"internalType": "uint256",
							"name": "_age",
							"type": "uint256"
						},
						{
							"internalType": "string",
							"name": "_regDate",
							"type": "string"
						},
						{
							"internalType": "enum Department",
							"name": "_department",
							"type": "uint8"
						},
						{
							"internalType": "enum Status",
							"name": "_status",
							"type": "uint8"
						},
						{
							"internalType": "uint256",
							"name": "_obtMarks",
							"type": "uint256"
						}
					],
					"name": "register",
					"outputs": [],
					"stateMutability": "nonpayable",
					"type": "function"
				},
				{
					"inputs": [
						{
							"internalType": "uint256",
							"name": "RollNo",
							"type": "uint256"
						}
					],
					"name": "retrieve",
					"outputs": [
						{
							"internalType": "string",
							"name": "",
							"type": "string"
						},
						{
							"internalType": "uint256",
							"name": "",
							"type": "uint256"
						},
						{
							"internalType": "string",
							"name": "",
							"type": "string"
						},
						{
							"internalType": "enum Department",
							"name": "",
							"type": "uint8"
						},
						{
							"internalType": "enum Status",
							"name": "",
							"type": "uint8"
						},
						{
							"internalType": "uint256",
							"name": "",
							"type": "uint256"
						}
					],
					"stateMutability": "view",
					"type": "function"
				},
				{
					"inputs": [
						{
							"internalType": "uint256",
							"name": "",
							"type": "uint256"
						}
					],
					"name": "studentMap",
					"outputs": [
						{
							"internalType": "string",
							"name": "name",
							"type": "string"
						},
						{
							"internalType": "uint256",
							"name": "age",
							"type": "uint256"
						},
						{
							"internalType": "string",
							"name": "registrationDate",
							"type": "string"
						},
						{
							"internalType": "enum Department",
							"name": "department",
							"type": "uint8"
						},
						{
							"internalType": "enum Status",
							"name": "status",
							"type": "uint8"
						},
						{
							"internalType": "uint256",
							"name": "obtainedMarks",
							"type": "uint256"
						}
					],
					"stateMutability": "view",
					"type": "function"
				},
				{
					"inputs": [],
					"name": "students",
					"outputs": [
						{
							"internalType": "string",
							"name": "name",
							"type": "string"
						},
						{
							"internalType": "uint256",
							"name": "age",
							"type": "uint256"
						},
						{
							"internalType": "string",
							"name": "registrationDate",
							"type": "string"
						},
						{
							"internalType": "enum Department",
							"name": "department",
							"type": "uint8"
						},
						{
							"internalType": "enum Status",
							"name": "status",
							"type": "uint8"
						},
						{
							"internalType": "uint256",
							"name": "obtainedMarks",
							"type": "uint256"
						}
					],
					"stateMutability": "view",
					"type": "function"
				},
				{
					"inputs": [
						{
							"internalType": "uint256",
							"name": "RollNo",
							"type": "uint256"
						},
						{
							"internalType": "string",
							"name": "_name",
							"type": "string"
						},
						{
							"internalType": "enum Department",
							"name": "_department",
							"type": "uint8"
						},
						{
							"internalType": "enum Status",
							"name": "_status",
							"type": "uint8"
						}
					],
					"name": "update",
					"outputs": [],
					"stateMutability": "nonpayable",
					"type": "function"
				}
			],
			"devdoc": {
				"kind": "dev",
				"methods": {},
				"version": 1
			},
			"evm": {
				"assembly": "    /* \"contracts/08-8 del.sol\":402:2155  contract Student_Registration_System {... */\n  mstore(0x40, 0x80)\n  callvalue\n  dup1\n  iszero\n  tag_1\n  jumpi\n  0x00\n  dup1\n  revert\ntag_1:\n  pop\n  dataSize(sub_0)\n  dup1\n  dataOffset(sub_0)\n  0x00\n  codecopy\n  0x00\n  return\nstop\n\nsub_0: assembly {\n        /* \"contracts/08-8 del.sol\":402:2155  contract Student_Registration_System {... */\n      mstore(0x40, 0x80)\n      callvalue\n      dup1\n      iszero\n      tag_1\n      jumpi\n      0x00\n      dup1\n      revert\n    tag_1:\n      pop\n      jumpi(tag_2, lt(calldatasize, 0x04))\n      shr(0xe0, calldataload(0x00))\n      dup1\n      0x8f88708b\n      gt\n      tag_11\n      jumpi\n      dup1\n      0x8f88708b\n      eq\n      tag_7\n      jumpi\n      dup1\n      0xceea3c78\n      eq\n      tag_8\n      jumpi\n      dup1\n      0xd6d9a024\n      eq\n      tag_9\n      jumpi\n      dup1\n      0xecf944f8\n      eq\n      tag_10\n      jumpi\n      jump(tag_2)\n    tag_11:\n      dup1\n      0x0cf5867c\n      eq\n      tag_3\n      jumpi\n      dup1\n      0x3e713726\n      eq\n      tag_4\n      jumpi\n      dup1\n      0x492de27e\n      eq\n      tag_5\n      jumpi\n      dup1\n      0x6c581256\n      eq\n      tag_6\n      jumpi\n    tag_2:\n      0x00\n      dup1\n      revert\n        /* \"contracts/08-8 del.sol\":2108:2149  function Top_3_Achievers()public{... */\n    tag_3:\n      tag_12\n      tag_13\n      jump\t// in\n    tag_12:\n      stop\n        /* \"contracts/08-8 del.sol\":1025:1313  function update(uint RollNo,string memory _name,Department _department,Status _status)public {... */\n    tag_4:\n      tag_14\n      0x04\n      dup1\n      calldatasize\n      sub\n      dup2\n      add\n      swap1\n      tag_15\n      swap2\n      swap1\n      tag_16\n      jump\t// in\n    tag_15:\n      tag_17\n      jump\t// in\n    tag_14:\n      stop\n        /* \"contracts/08-8 del.sol\":1614:2106  function count_of_students()public view returns(uint Ai,uint Art,uint Blockchain,uint E_Commerceuint){... */\n    tag_5:\n      tag_18\n      tag_19\n      jump\t// in\n    tag_18:\n      mload(0x40)\n      tag_20\n      swap5\n      swap4\n      swap3\n      swap2\n      swap1\n      tag_21\n      jump\t// in\n    tag_20:\n      mload(0x40)\n      dup1\n      swap2\n      sub\n      swap1\n      return\n        /* \"contracts/08-8 del.sol\":530:834  function register(uint StdRollNo,string memory _name,uint _age,string memory _regDate,Department _department,Status _status,uint _obtMarks) public {... */\n    tag_6:\n      tag_22\n      0x04\n      dup1\n      calldatasize\n      sub\n      dup2\n      add\n      swap1\n      tag_23\n      swap2\n      swap1\n      tag_24\n      jump\t// in\n    tag_23:\n      tag_25\n      jump\t// in\n    tag_22:\n      stop\n        /* \"contracts/08-8 del.sol\":1317:1610  function retrieve(uint RollNo)public view returns(string memory,uint,string memory,Department,Status,uint){... */\n    tag_7:\n      tag_26\n      0x04\n      dup1\n      calldatasize\n      sub\n      dup2\n      add\n      swap1\n      tag_27\n      swap2\n      swap1\n      tag_28\n      jump\t// in\n    tag_27:\n      tag_29\n      jump\t// in\n    tag_26:\n      mload(0x40)\n      tag_30\n      swap7\n      swap6\n      swap5\n      swap4\n      swap3\n      swap2\n      swap1\n      tag_31\n      jump\t// in\n    tag_30:\n      mload(0x40)\n      dup1\n      swap2\n      sub\n      swap1\n      return\n        /* \"contracts/08-8 del.sol\":479:521  mapping(uint => Student) public studentMap */\n    tag_8:\n      tag_32\n      0x04\n      dup1\n      calldatasize\n      sub\n      dup2\n      add\n      swap1\n      tag_33\n      swap2\n      swap1\n      tag_28\n      jump\t// in\n    tag_33:\n      tag_34\n      jump\t// in\n    tag_32:\n      mload(0x40)\n      tag_35\n      swap7\n      swap6\n      swap5\n      swap4\n      swap3\n      swap2\n      swap1\n      tag_31\n      jump\t// in\n    tag_35:\n      mload(0x40)\n      dup1\n      swap2\n      sub\n      swap1\n      return\n        /* \"contracts/08-8 del.sol\":842:1017  function checkStatus(Status _status)public pure returns(uint x) {... */\n    tag_9:\n      tag_36\n      0x04\n      dup1\n      calldatasize\n      sub\n      dup2\n      add\n      swap1\n      tag_37\n      swap2\n      swap1\n      tag_38\n      jump\t// in\n    tag_37:\n      tag_39\n      jump\t// in\n    tag_36:\n      mload(0x40)\n      tag_40\n      swap2\n      swap1\n      tag_41\n      jump\t// in\n    tag_40:\n      mload(0x40)\n      dup1\n      swap2\n      sub\n      swap1\n      return\n        /* \"contracts/08-8 del.sol\":446:469  Student public students */\n    tag_10:\n      tag_42\n      tag_43\n      jump\t// in\n    tag_42:\n      mload(0x40)\n      tag_44\n      swap7\n      swap6\n      swap5\n      swap4\n      swap3\n      swap2\n      swap1\n      tag_31\n      jump\t// in\n    tag_44:\n      mload(0x40)\n      dup1\n      swap2\n      sub\n      swap1\n      return\n        /* \"contracts/08-8 del.sol\":2108:2149  function Top_3_Achievers()public{... */\n    tag_13:\n      jump\t// out\n        /* \"contracts/08-8 del.sol\":1025:1313  function update(uint RollNo,string memory _name,Department _department,Status _status)public {... */\n    tag_17:\n        /* \"contracts/08-8 del.sol\":1151:1156  _name */\n      dup3\n        /* \"contracts/08-8 del.sol\":1125:1135  studentMap */\n      0x05\n        /* \"contracts/08-8 del.sol\":1125:1143  studentMap[RollNo] */\n      0x00\n        /* \"contracts/08-8 del.sol\":1136:1142  RollNo */\n      dup7\n        /* \"contracts/08-8 del.sol\":1125:1143  studentMap[RollNo] */\n      dup2\n      mstore\n      0x20\n      add\n      swap1\n      dup2\n      mstore\n      0x20\n      add\n      0x00\n      keccak256\n        /* \"contracts/08-8 del.sol\":1125:1148  studentMap[RollNo].name */\n      0x00\n      add\n        /* \"contracts/08-8 del.sol\":1125:1156  studentMap[RollNo].name = _name */\n      swap1\n      dup2\n      tag_47\n      swap2\n      swap1\n      tag_48\n      jump\t// in\n    tag_47:\n      pop\n        /* \"contracts/08-8 del.sol\":1195:1206  _department */\n      dup2\n        /* \"contracts/08-8 del.sol\":1163:1173  studentMap */\n      0x05\n        /* \"contracts/08-8 del.sol\":1163:1181  studentMap[RollNo] */\n      0x00\n        /* \"contracts/08-8 del.sol\":1174:1180  RollNo */\n      dup7\n        /* \"contracts/08-8 del.sol\":1163:1181  studentMap[RollNo] */\n      dup2\n      mstore\n      0x20\n      add\n      swap1\n      dup2\n      mstore\n      0x20\n      add\n      0x00\n      keccak256\n        /* \"contracts/08-8 del.sol\":1163:1192  studentMap[RollNo].department */\n      0x03\n      add\n      0x00\n        /* \"contracts/08-8 del.sol\":1163:1206  studentMap[RollNo].department = _department */\n      0x0100\n      exp\n      dup2\n      sload\n      dup2\n      0xff\n      mul\n      not\n      and\n      swap1\n      dup4\n      0x03\n      dup2\n      gt\n      iszero\n      tag_49\n      jumpi\n      tag_50\n      tag_51\n      jump\t// in\n    tag_50:\n    tag_49:\n      mul\n      or\n      swap1\n      sstore\n      pop\n        /* \"contracts/08-8 del.sol\":1241:1248  _status */\n      dup1\n        /* \"contracts/08-8 del.sol\":1213:1223  studentMap */\n      0x05\n        /* \"contracts/08-8 del.sol\":1213:1231  studentMap[RollNo] */\n      0x00\n        /* \"contracts/08-8 del.sol\":1224:1230  RollNo */\n      dup7\n        /* \"contracts/08-8 del.sol\":1213:1231  studentMap[RollNo] */\n      dup2\n      mstore\n      0x20\n      add\n      swap1\n      dup2\n      mstore\n      0x20\n      add\n      0x00\n      keccak256\n        /* \"contracts/08-8 del.sol\":1213:1238  studentMap[RollNo].status */\n      0x03\n      add\n      0x01\n        /* \"contracts/08-8 del.sol\":1213:1248  studentMap[RollNo].status = _status */\n      0x0100\n      exp\n      dup2\n      sload\n      dup2\n      0xff\n      mul\n      not\n      and\n      swap1\n      dup4\n      0x03\n      dup2\n      gt\n      iszero\n      tag_52\n      jumpi\n      tag_53\n      tag_51\n      jump\t// in\n    tag_53:\n    tag_52:\n      mul\n      or\n      swap1\n      sstore\n      pop\n        /* \"contracts/08-8 del.sol\":1289:1309  checkStatus(_status) */\n      tag_54\n        /* \"contracts/08-8 del.sol\":1301:1308  _status */\n      dup2\n        /* \"contracts/08-8 del.sol\":1289:1300  checkStatus */\n      tag_39\n        /* \"contracts/08-8 del.sol\":1289:1309  checkStatus(_status) */\n      jump\t// in\n    tag_54:\n        /* \"contracts/08-8 del.sol\":1255:1265  studentMap */\n      0x05\n        /* \"contracts/08-8 del.sol\":1255:1273  studentMap[RollNo] */\n      0x00\n        /* \"contracts/08-8 del.sol\":1266:1272  RollNo */\n      dup7\n        /* \"contracts/08-8 del.sol\":1255:1273  studentMap[RollNo] */\n      dup2\n      mstore\n      0x20\n      add\n      swap1\n      dup2\n      mstore\n      0x20\n      add\n      0x00\n      keccak256\n        /* \"contracts/08-8 del.sol\":1255:1287  studentMap[RollNo].obtainedMarks */\n      0x04\n      add\n        /* \"contracts/08-8 del.sol\":1255:1309  studentMap[RollNo].obtainedMarks =checkStatus(_status) */\n      dup2\n      swap1\n      sstore\n      pop\n        /* \"contracts/08-8 del.sol\":1025:1313  function update(uint RollNo,string memory _name,Department _department,Status _status)public {... */\n      pop\n      pop\n      pop\n      pop\n      jump\t// out\n        /* \"contracts/08-8 del.sol\":1614:2106  function count_of_students()public view returns(uint Ai,uint Art,uint Blockchain,uint E_Commerceuint){... */\n    tag_19:\n        /* \"contracts/08-8 del.sol\":1662:1669  uint Ai */\n      0x00\n        /* \"contracts/08-8 del.sol\":1670:1678  uint Art */\n      dup1\n        /* \"contracts/08-8 del.sol\":1679:1694  uint Blockchain */\n      0x00\n        /* \"contracts/08-8 del.sol\":1695:1714  uint E_Commerceuint */\n      dup1\n        /* \"contracts/08-8 del.sol\":1722:1732  uint  dep1 */\n      0x00\n        /* \"contracts/08-8 del.sol\":1739:1749  uint  dep2 */\n      dup1\n        /* \"contracts/08-8 del.sol\":1757:1767  uint  dep3 */\n      0x00\n        /* \"contracts/08-8 del.sol\":1775:1785  uint  dep4 */\n      dup1\n        /* \"contracts/08-8 del.sol\":1796:1802  uint i */\n      0x00\n        /* \"contracts/08-8 del.sol\":1791:2072  for (uint i=0; i<10; i++) ... */\n    tag_56:\n        /* \"contracts/08-8 del.sol\":1808:1810  10 */\n      0x0a\n        /* \"contracts/08-8 del.sol\":1806:1807  i */\n      dup2\n        /* \"contracts/08-8 del.sol\":1806:1810  i<10 */\n      lt\n        /* \"contracts/08-8 del.sol\":1791:2072  for (uint i=0; i<10; i++) ... */\n      iszero\n      tag_57\n      jumpi\n        /* \"contracts/08-8 del.sol\":1851:1885  Department.Artificial_Intelligence */\n      0x00\n        /* \"contracts/08-8 del.sol\":1825:1885  studentMap[i].department==Department.Artificial_Intelligence */\n      0x03\n      dup2\n      gt\n      iszero\n      tag_59\n      jumpi\n      tag_60\n      tag_51\n      jump\t// in\n    tag_60:\n    tag_59:\n        /* \"contracts/08-8 del.sol\":1825:1835  studentMap */\n      0x05\n        /* \"contracts/08-8 del.sol\":1825:1838  studentMap[i] */\n      0x00\n        /* \"contracts/08-8 del.sol\":1836:1837  i */\n      dup4\n        /* \"contracts/08-8 del.sol\":1825:1838  studentMap[i] */\n      dup2\n      mstore\n      0x20\n      add\n      swap1\n      dup2\n      mstore\n      0x20\n      add\n      0x00\n      keccak256\n        /* \"contracts/08-8 del.sol\":1825:1849  studentMap[i].department */\n      0x03\n      add\n      0x00\n      swap1\n      sload\n      swap1\n      0x0100\n      exp\n      swap1\n      div\n      0xff\n      and\n        /* \"contracts/08-8 del.sol\":1825:1885  studentMap[i].department==Department.Artificial_Intelligence */\n      0x03\n      dup2\n      gt\n      iszero\n      tag_61\n      jumpi\n      tag_62\n      tag_51\n      jump\t// in\n    tag_62:\n    tag_61:\n      sub\n        /* \"contracts/08-8 del.sol\":1822:2069  if(studentMap[i].department==Department.Artificial_Intelligence){... */\n      tag_63\n      jumpi\n        /* \"contracts/08-8 del.sol\":1892:1898  dep1++ */\n      dup5\n      dup1\n      tag_64\n      swap1\n      tag_65\n      jump\t// in\n    tag_64:\n      swap6\n      pop\n      pop\n        /* \"contracts/08-8 del.sol\":1822:2069  if(studentMap[i].department==Department.Artificial_Intelligence){... */\n      jump(tag_66)\n    tag_63:\n        /* \"contracts/08-8 del.sol\":1938:1953  Department.Arts */\n      0x03\n        /* \"contracts/08-8 del.sol\":1912:1953  studentMap[i].department==Department.Arts */\n      dup1\n      dup2\n      gt\n      iszero\n      tag_67\n      jumpi\n      tag_68\n      tag_51\n      jump\t// in\n    tag_68:\n    tag_67:\n        /* \"contracts/08-8 del.sol\":1912:1922  studentMap */\n      0x05\n        /* \"contracts/08-8 del.sol\":1912:1925  studentMap[i] */\n      0x00\n        /* \"contracts/08-8 del.sol\":1923:1924  i */\n      dup4\n        /* \"contracts/08-8 del.sol\":1912:1925  studentMap[i] */\n      dup2\n      mstore\n      0x20\n      add\n      swap1\n      dup2\n      mstore\n      0x20\n      add\n      0x00\n      keccak256\n        /* \"contracts/08-8 del.sol\":1912:1936  studentMap[i].department */\n      0x03\n      add\n      0x00\n      swap1\n      sload\n      swap1\n      0x0100\n      exp\n      swap1\n      div\n      0xff\n      and\n        /* \"contracts/08-8 del.sol\":1912:1953  studentMap[i].department==Department.Arts */\n      0x03\n      dup2\n      gt\n      iszero\n      tag_69\n      jumpi\n      tag_70\n      tag_51\n      jump\t// in\n    tag_70:\n    tag_69:\n      sub\n        /* \"contracts/08-8 del.sol\":1909:2069  if(studentMap[i].department==Department.Arts){... */\n      tag_71\n      jumpi\n        /* \"contracts/08-8 del.sol\":1961:1967  dep2++ */\n      dup4\n      dup1\n      tag_72\n      swap1\n      tag_65\n      jump\t// in\n    tag_72:\n      swap5\n      pop\n      pop\n        /* \"contracts/08-8 del.sol\":1909:2069  if(studentMap[i].department==Department.Arts){... */\n      jump(tag_73)\n    tag_71:\n        /* \"contracts/08-8 del.sol\":2007:2028  Department.Blockchain */\n      0x01\n        /* \"contracts/08-8 del.sol\":1981:2028  studentMap[i].department==Department.Blockchain */\n      0x03\n      dup2\n      gt\n      iszero\n      tag_74\n      jumpi\n      tag_75\n      tag_51\n      jump\t// in\n    tag_75:\n    tag_74:\n        /* \"contracts/08-8 del.sol\":1981:1991  studentMap */\n      0x05\n        /* \"contracts/08-8 del.sol\":1981:1994  studentMap[i] */\n      0x00\n        /* \"contracts/08-8 del.sol\":1992:1993  i */\n      dup4\n        /* \"contracts/08-8 del.sol\":1981:1994  studentMap[i] */\n      dup2\n      mstore\n      0x20\n      add\n      swap1\n      dup2\n      mstore\n      0x20\n      add\n      0x00\n      keccak256\n        /* \"contracts/08-8 del.sol\":1981:2005  studentMap[i].department */\n      0x03\n      add\n      0x00\n      swap1\n      sload\n      swap1\n      0x0100\n      exp\n      swap1\n      div\n      0xff\n      and\n        /* \"contracts/08-8 del.sol\":1981:2028  studentMap[i].department==Department.Blockchain */\n      0x03\n      dup2\n      gt\n      iszero\n      tag_76\n      jumpi\n      tag_77\n      tag_51\n      jump\t// in\n    tag_77:\n    tag_76:\n      sub\n        /* \"contracts/08-8 del.sol\":1978:2069  if(studentMap[i].department==Department.Blockchain){... */\n      tag_78\n      jumpi\n        /* \"contracts/08-8 del.sol\":2036:2042  dep3++ */\n      dup3\n      dup1\n      tag_79\n      swap1\n      tag_65\n      jump\t// in\n    tag_79:\n      swap4\n      pop\n      pop\n        /* \"contracts/08-8 del.sol\":1978:2069  if(studentMap[i].department==Department.Blockchain){... */\n      jump(tag_80)\n    tag_78:\n        /* \"contracts/08-8 del.sol\":2059:2065  dep4++ */\n      dup2\n      dup1\n      tag_81\n      swap1\n      tag_65\n      jump\t// in\n    tag_81:\n      swap3\n      pop\n      pop\n        /* \"contracts/08-8 del.sol\":1978:2069  if(studentMap[i].department==Department.Blockchain){... */\n    tag_80:\n        /* \"contracts/08-8 del.sol\":1909:2069  if(studentMap[i].department==Department.Arts){... */\n    tag_73:\n        /* \"contracts/08-8 del.sol\":1822:2069  if(studentMap[i].department==Department.Artificial_Intelligence){... */\n    tag_66:\n        /* \"contracts/08-8 del.sol\":1812:1815  i++ */\n      dup1\n      dup1\n      tag_82\n      swap1\n      tag_65\n      jump\t// in\n    tag_82:\n      swap2\n      pop\n      pop\n        /* \"contracts/08-8 del.sol\":1791:2072  for (uint i=0; i<10; i++) ... */\n      jump(tag_56)\n    tag_57:\n      pop\n        /* \"contracts/08-8 del.sol\":2082:2086  dep1 */\n      dup4\n        /* \"contracts/08-8 del.sol\":2087:2091  dep2 */\n      dup4\n        /* \"contracts/08-8 del.sol\":2092:2096  dep3 */\n      dup4\n        /* \"contracts/08-8 del.sol\":2097:2101  dep4 */\n      dup4\n        /* \"contracts/08-8 del.sol\":2074:2102  return (dep1,dep2,dep3,dep4) */\n      swap8\n      pop\n      swap8\n      pop\n      swap8\n      pop\n      swap8\n      pop\n      pop\n      pop\n      pop\n      pop\n        /* \"contracts/08-8 del.sol\":1614:2106  function count_of_students()public view returns(uint Ai,uint Art,uint Blockchain,uint E_Commerceuint){... */\n      swap1\n      swap2\n      swap3\n      swap4\n      jump\t// out\n        /* \"contracts/08-8 del.sol\":530:834  function register(uint StdRollNo,string memory _name,uint _age,string memory _regDate,Department _department,Status _status,uint _obtMarks) public {... */\n    tag_25:\n        /* \"contracts/08-8 del.sol\":700:720  checkStatus(_status) */\n      tag_84\n        /* \"contracts/08-8 del.sol\":712:719  _status */\n      dup3\n        /* \"contracts/08-8 del.sol\":700:711  checkStatus */\n      tag_39\n        /* \"contracts/08-8 del.sol\":700:720  checkStatus(_status) */\n      jump\t// in\n    tag_84:\n        /* \"contracts/08-8 del.sol\":688:720  _obtMarks = checkStatus(_status) */\n      swap1\n      pop\n        /* \"contracts/08-8 del.sol\":763:826  Student(_name, _age, _regDate, _department, _status, _obtMarks) */\n      mload(0x40)\n      dup1\n      0xc0\n      add\n      0x40\n      mstore\n      dup1\n        /* \"contracts/08-8 del.sol\":771:776  _name */\n      dup8\n        /* \"contracts/08-8 del.sol\":763:826  Student(_name, _age, _regDate, _department, _status, _obtMarks) */\n      dup2\n      mstore\n      0x20\n      add\n        /* \"contracts/08-8 del.sol\":778:782  _age */\n      dup7\n        /* \"contracts/08-8 del.sol\":763:826  Student(_name, _age, _regDate, _department, _status, _obtMarks) */\n      dup2\n      mstore\n      0x20\n      add\n        /* \"contracts/08-8 del.sol\":784:792  _regDate */\n      dup6\n        /* \"contracts/08-8 del.sol\":763:826  Student(_name, _age, _regDate, _department, _status, _obtMarks) */\n      dup2\n      mstore\n      0x20\n      add\n        /* \"contracts/08-8 del.sol\":794:805  _department */\n      dup5\n        /* \"contracts/08-8 del.sol\":763:826  Student(_name, _age, _regDate, _department, _status, _obtMarks) */\n      0x03\n      dup2\n      gt\n      iszero\n      tag_85\n      jumpi\n      tag_86\n      tag_51\n      jump\t// in\n    tag_86:\n    tag_85:\n      dup2\n      mstore\n      0x20\n      add\n        /* \"contracts/08-8 del.sol\":807:814  _status */\n      dup4\n        /* \"contracts/08-8 del.sol\":763:826  Student(_name, _age, _regDate, _department, _status, _obtMarks) */\n      0x03\n      dup2\n      gt\n      iszero\n      tag_87\n      jumpi\n      tag_88\n      tag_51\n      jump\t// in\n    tag_88:\n    tag_87:\n      dup2\n      mstore\n      0x20\n      add\n        /* \"contracts/08-8 del.sol\":816:825  _obtMarks */\n      dup3\n        /* \"contracts/08-8 del.sol\":763:826  Student(_name, _age, _regDate, _department, _status, _obtMarks) */\n      dup2\n      mstore\n      pop\n        /* \"contracts/08-8 del.sol\":739:749  studentMap */\n      0x05\n        /* \"contracts/08-8 del.sol\":739:760  studentMap[StdRollNo] */\n      0x00\n        /* \"contracts/08-8 del.sol\":750:759  StdRollNo */\n      dup10\n        /* \"contracts/08-8 del.sol\":739:760  studentMap[StdRollNo] */\n      dup2\n      mstore\n      0x20\n      add\n      swap1\n      dup2\n      mstore\n      0x20\n      add\n      0x00\n      keccak256\n        /* \"contracts/08-8 del.sol\":739:826  studentMap[StdRollNo] = Student(_name, _age, _regDate, _department, _status, _obtMarks) */\n      0x00\n      dup3\n      add\n      mload\n      dup2\n      0x00\n      add\n      swap1\n      dup2\n      tag_89\n      swap2\n      swap1\n      tag_48\n      jump\t// in\n    tag_89:\n      pop\n      0x20\n      dup3\n      add\n      mload\n      dup2\n      0x01\n      add\n      sstore\n      0x40\n      dup3\n      add\n      mload\n      dup2\n      0x02\n      add\n      swap1\n      dup2\n      tag_90\n      swap2\n      swap1\n      tag_48\n      jump\t// in\n    tag_90:\n      pop\n      0x60\n      dup3\n      add\n      mload\n      dup2\n      0x03\n      add\n      exp(0x0100, 0x00)\n      dup2\n      sload\n      dup2\n      0xff\n      mul\n      not\n      and\n      swap1\n      dup4\n      0x03\n      dup2\n      gt\n      iszero\n      tag_91\n      jumpi\n      tag_92\n      tag_51\n      jump\t// in\n    tag_92:\n    tag_91:\n      mul\n      or\n      swap1\n      sstore\n      pop\n      0x80\n      dup3\n      add\n      mload\n      dup2\n      0x03\n      add\n      exp(0x0100, 0x01)\n      dup2\n      sload\n      dup2\n      0xff\n      mul\n      not\n      and\n      swap1\n      dup4\n      0x03\n      dup2\n      gt\n      iszero\n      tag_93\n      jumpi\n      tag_94\n      tag_51\n      jump\t// in\n    tag_94:\n    tag_93:\n      mul\n      or\n      swap1\n      sstore\n      pop\n      0xa0\n      dup3\n      add\n      mload\n      dup2\n      0x04\n      add\n      sstore\n      swap1\n      pop\n      pop\n        /* \"contracts/08-8 del.sol\":530:834  function register(uint StdRollNo,string memory _name,uint _age,string memory _regDate,Department _department,Status _status,uint _obtMarks) public {... */\n      pop\n      pop\n      pop\n      pop\n      pop\n      pop\n      pop\n      jump\t// out\n        /* \"contracts/08-8 del.sol\":1317:1610  function retrieve(uint RollNo)public view returns(string memory,uint,string memory,Department,Status,uint){... */\n    tag_29:\n        /* \"contracts/08-8 del.sol\":1367:1380  string memory */\n      0x60\n        /* \"contracts/08-8 del.sol\":1381:1385  uint */\n      0x00\n        /* \"contracts/08-8 del.sol\":1386:1399  string memory */\n      0x60\n        /* \"contracts/08-8 del.sol\":1400:1410  Department */\n      0x00\n        /* \"contracts/08-8 del.sol\":1411:1417  Status */\n      dup1\n        /* \"contracts/08-8 del.sol\":1418:1422  uint */\n      0x00\n        /* \"contracts/08-8 del.sol\":1434:1444  studentMap */\n      0x05\n        /* \"contracts/08-8 del.sol\":1434:1452  studentMap[RollNo] */\n      0x00\n        /* \"contracts/08-8 del.sol\":1445:1451  RollNo */\n      dup9\n        /* \"contracts/08-8 del.sol\":1434:1452  studentMap[RollNo] */\n      dup2\n      mstore\n      0x20\n      add\n      swap1\n      dup2\n      mstore\n      0x20\n      add\n      0x00\n      keccak256\n        /* \"contracts/08-8 del.sol\":1434:1457  studentMap[RollNo].name */\n      0x00\n      add\n        /* \"contracts/08-8 del.sol\":1458:1468  studentMap */\n      0x05\n        /* \"contracts/08-8 del.sol\":1458:1476  studentMap[RollNo] */\n      0x00\n        /* \"contracts/08-8 del.sol\":1469:1475  RollNo */\n      dup10\n        /* \"contracts/08-8 del.sol\":1458:1476  studentMap[RollNo] */\n      dup2\n      mstore\n      0x20\n      add\n      swap1\n      dup2\n      mstore\n      0x20\n      add\n      0x00\n      keccak256\n        /* \"contracts/08-8 del.sol\":1458:1480  studentMap[RollNo].age */\n      0x01\n      add\n      sload\n        /* \"contracts/08-8 del.sol\":1481:1491  studentMap */\n      0x05\n        /* \"contracts/08-8 del.sol\":1481:1499  studentMap[RollNo] */\n      0x00\n        /* \"contracts/08-8 del.sol\":1492:1498  RollNo */\n      dup11\n        /* \"contracts/08-8 del.sol\":1481:1499  studentMap[RollNo] */\n      dup2\n      mstore\n      0x20\n      add\n      swap1\n      dup2\n      mstore\n      0x20\n      add\n      0x00\n      keccak256\n        /* \"contracts/08-8 del.sol\":1481:1516  studentMap[RollNo].registrationDate */\n      0x02\n      add\n        /* \"contracts/08-8 del.sol\":1517:1527  studentMap */\n      0x05\n        /* \"contracts/08-8 del.sol\":1517:1535  studentMap[RollNo] */\n      0x00\n        /* \"contracts/08-8 del.sol\":1528:1534  RollNo */\n      dup12\n        /* \"contracts/08-8 del.sol\":1517:1535  studentMap[RollNo] */\n      dup2\n      mstore\n      0x20\n      add\n      swap1\n      dup2\n      mstore\n      0x20\n      add\n      0x00\n      keccak256\n        /* \"contracts/08-8 del.sol\":1517:1546  studentMap[RollNo].department */\n      0x03\n      add\n      0x00\n      swap1\n      sload\n      swap1\n      0x0100\n      exp\n      swap1\n      div\n      0xff\n      and\n        /* \"contracts/08-8 del.sol\":1547:1557  studentMap */\n      0x05\n        /* \"contracts/08-8 del.sol\":1547:1565  studentMap[RollNo] */\n      0x00\n        /* \"contracts/08-8 del.sol\":1558:1564  RollNo */\n      dup13\n        /* \"contracts/08-8 del.sol\":1547:1565  studentMap[RollNo] */\n      dup2\n      mstore\n      0x20\n      add\n      swap1\n      dup2\n      mstore\n      0x20\n      add\n      0x00\n      keccak256\n        /* \"contracts/08-8 del.sol\":1547:1572  studentMap[RollNo].status */\n      0x03\n      add\n      0x01\n      swap1\n      sload\n      swap1\n      0x0100\n      exp\n      swap1\n      div\n      0xff\n      and\n        /* \"contracts/08-8 del.sol\":1573:1583  studentMap */\n      0x05\n        /* \"contracts/08-8 del.sol\":1573:1591  studentMap[RollNo] */\n      0x00\n        /* \"contracts/08-8 del.sol\":1584:1590  RollNo */\n      dup14\n        /* \"contracts/08-8 del.sol\":1573:1591  studentMap[RollNo] */\n      dup2\n      mstore\n      0x20\n      add\n      swap1\n      dup2\n      mstore\n      0x20\n      add\n      0x00\n      keccak256\n        /* \"contracts/08-8 del.sol\":1573:1605  studentMap[RollNo].obtainedMarks */\n      0x04\n      add\n      sload\n        /* \"contracts/08-8 del.sol\":1426:1606  return (studentMap[RollNo].name,studentMap[RollNo].age,studentMap[RollNo].registrationDate,studentMap[RollNo].department,studentMap[RollNo].status,studentMap[RollNo].obtainedMarks) */\n      dup6\n      dup1\n      sload\n      tag_96\n      swap1\n      tag_97\n      jump\t// in\n    tag_96:\n      dup1\n      0x1f\n      add\n      0x20\n      dup1\n      swap2\n      div\n      mul\n      0x20\n      add\n      mload(0x40)\n      swap1\n      dup2\n      add\n      0x40\n      mstore\n      dup1\n      swap3\n      swap2\n      swap1\n      dup2\n      dup2\n      mstore\n      0x20\n      add\n      dup3\n      dup1\n      sload\n      tag_98\n      swap1\n      tag_97\n      jump\t// in\n    tag_98:\n      dup1\n      iszero\n      tag_99\n      jumpi\n      dup1\n      0x1f\n      lt\n      tag_100\n      jumpi\n      0x0100\n      dup1\n      dup4\n      sload\n      div\n      mul\n      dup4\n      mstore\n      swap2\n      0x20\n      add\n      swap2\n      jump(tag_99)\n    tag_100:\n      dup3\n      add\n      swap2\n      swap1\n      0x00\n      mstore\n      keccak256(0x00, 0x20)\n      swap1\n    tag_101:\n      dup2\n      sload\n      dup2\n      mstore\n      swap1\n      0x01\n      add\n      swap1\n      0x20\n      add\n      dup1\n      dup4\n      gt\n      tag_101\n      jumpi\n      dup3\n      swap1\n      sub\n      0x1f\n      and\n      dup3\n      add\n      swap2\n    tag_99:\n      pop\n      pop\n      pop\n      pop\n      pop\n      swap6\n      pop\n      dup4\n      dup1\n      sload\n      tag_102\n      swap1\n      tag_97\n      jump\t// in\n    tag_102:\n      dup1\n      0x1f\n      add\n      0x20\n      dup1\n      swap2\n      div\n      mul\n      0x20\n      add\n      mload(0x40)\n      swap1\n      dup2\n      add\n      0x40\n      mstore\n      dup1\n      swap3\n      swap2\n      swap1\n      dup2\n      dup2\n      mstore\n      0x20\n      add\n      dup3\n      dup1\n      sload\n      tag_103\n      swap1\n      tag_97\n      jump\t// in\n    tag_103:\n      dup1\n      iszero\n      tag_104\n      jumpi\n      dup1\n      0x1f\n      lt\n      tag_105\n      jumpi\n      0x0100\n      dup1\n      dup4\n      sload\n      div\n      mul\n      dup4\n      mstore\n      swap2\n      0x20\n      add\n      swap2\n      jump(tag_104)\n    tag_105:\n      dup3\n      add\n      swap2\n      swap1\n      0x00\n      mstore\n      keccak256(0x00, 0x20)\n      swap1\n    tag_106:\n      dup2\n      sload\n      dup2\n      mstore\n      swap1\n      0x01\n      add\n      swap1\n      0x20\n      add\n      dup1\n      dup4\n      gt\n      tag_106\n      jumpi\n      dup3\n      swap1\n      sub\n      0x1f\n      and\n      dup3\n      add\n      swap2\n    tag_104:\n      pop\n      pop\n      pop\n      pop\n      pop\n      swap4\n      pop\n      swap6\n      pop\n      swap6\n      pop\n      swap6\n      pop\n      swap6\n      pop\n      swap6\n      pop\n      swap6\n      pop\n        /* \"contracts/08-8 del.sol\":1317:1610  function retrieve(uint RollNo)public view returns(string memory,uint,string memory,Department,Status,uint){... */\n      swap2\n      swap4\n      swap6\n      pop\n      swap2\n      swap4\n      swap6\n      jump\t// out\n        /* \"contracts/08-8 del.sol\":479:521  mapping(uint => Student) public studentMap */\n    tag_34:\n      mstore(0x20, 0x05)\n      dup1\n      0x00\n      mstore\n      keccak256(0x00, 0x40)\n      0x00\n      swap2\n      pop\n      swap1\n      pop\n      dup1\n      0x00\n      add\n      dup1\n      sload\n      tag_107\n      swap1\n      tag_97\n      jump\t// in\n    tag_107:\n      dup1\n      0x1f\n      add\n      0x20\n      dup1\n      swap2\n      div\n      mul\n      0x20\n      add\n      mload(0x40)\n      swap1\n      dup2\n      add\n      0x40\n      mstore\n      dup1\n      swap3\n      swap2\n      swap1\n      dup2\n      dup2\n      mstore\n      0x20\n      add\n      dup3\n      dup1\n      sload\n      tag_108\n      swap1\n      tag_97\n      jump\t// in\n    tag_108:\n      dup1\n      iszero\n      tag_109\n      jumpi\n      dup1\n      0x1f\n      lt\n      tag_110\n      jumpi\n      0x0100\n      dup1\n      dup4\n      sload\n      div\n      mul\n      dup4\n      mstore\n      swap2\n      0x20\n      add\n      swap2\n      jump(tag_109)\n    tag_110:\n      dup3\n      add\n      swap2\n      swap1\n      0x00\n      mstore\n      keccak256(0x00, 0x20)\n      swap1\n    tag_111:\n      dup2\n      sload\n      dup2\n      mstore\n      swap1\n      0x01\n      add\n      swap1\n      0x20\n      add\n      dup1\n      dup4\n      gt\n      tag_111\n      jumpi\n      dup3\n      swap1\n      sub\n      0x1f\n      and\n      dup3\n      add\n      swap2\n    tag_109:\n      pop\n      pop\n      pop\n      pop\n      pop\n      swap1\n      dup1\n      0x01\n      add\n      sload\n      swap1\n      dup1\n      0x02\n      add\n      dup1\n      sload\n      tag_112\n      swap1\n      tag_97\n      jump\t// in\n    tag_112:\n      dup1\n      0x1f\n      add\n      0x20\n      dup1\n      swap2\n      div\n      mul\n      0x20\n      add\n      mload(0x40)\n      swap1\n      dup2\n      add\n      0x40\n      mstore\n      dup1\n      swap3\n      swap2\n      swap1\n      dup2\n      dup2\n      mstore\n      0x20\n      add\n      dup3\n      dup1\n      sload\n      tag_113\n      swap1\n      tag_97\n      jump\t// in\n    tag_113:\n      dup1\n      iszero\n      tag_114\n      jumpi\n      dup1\n      0x1f\n      lt\n      tag_115\n      jumpi\n      0x0100\n      dup1\n      dup4\n      sload\n      div\n      mul\n      dup4\n      mstore\n      swap2\n      0x20\n      add\n      swap2\n      jump(tag_114)\n    tag_115:\n      dup3\n      add\n      swap2\n      swap1\n      0x00\n      mstore\n      keccak256(0x00, 0x20)\n      swap1\n    tag_116:\n      dup2\n      sload\n      dup2\n      mstore\n      swap1\n      0x01\n      add\n      swap1\n      0x20\n      add\n      dup1\n      dup4\n      gt\n      tag_116\n      jumpi\n      dup3\n      swap1\n      sub\n      0x1f\n      and\n      dup3\n      add\n      swap2\n    tag_114:\n      pop\n      pop\n      pop\n      pop\n      pop\n      swap1\n      dup1\n      0x03\n      add\n      0x00\n      swap1\n      sload\n      swap1\n      0x0100\n      exp\n      swap1\n      div\n      0xff\n      and\n      swap1\n      dup1\n      0x03\n      add\n      0x01\n      swap1\n      sload\n      swap1\n      0x0100\n      exp\n      swap1\n      div\n      0xff\n      and\n      swap1\n      dup1\n      0x04\n      add\n      sload\n      swap1\n      pop\n      dup7\n      jump\t// out\n        /* \"contracts/08-8 del.sol\":842:1017  function checkStatus(Status _status)public pure returns(uint x) {... */\n    tag_39:\n        /* \"contracts/08-8 del.sol\":898:904  uint x */\n      0x00\n        /* \"contracts/08-8 del.sol\":925:943  Status.NotEnrolled */\n      0x01\n        /* \"contracts/08-8 del.sol\":914:943  _status == Status.NotEnrolled */\n      0x03\n      dup2\n      gt\n      iszero\n      tag_118\n      jumpi\n      tag_119\n      tag_51\n      jump\t// in\n    tag_119:\n    tag_118:\n        /* \"contracts/08-8 del.sol\":914:921  _status */\n      dup3\n        /* \"contracts/08-8 del.sol\":914:943  _status == Status.NotEnrolled */\n      0x03\n      dup2\n      gt\n      iszero\n      tag_120\n      jumpi\n      tag_121\n      tag_51\n      jump\t// in\n    tag_121:\n    tag_120:\n      eq\n        /* \"contracts/08-8 del.sol\":914:973  _status == Status.NotEnrolled || _status == Status.Expelled */\n      dup1\n      tag_122\n      jumpi\n      pop\n        /* \"contracts/08-8 del.sol\":958:973  Status.Expelled */\n      0x03\n        /* \"contracts/08-8 del.sol\":947:973  _status == Status.Expelled */\n      dup1\n      dup2\n      gt\n      iszero\n      tag_123\n      jumpi\n      tag_124\n      tag_51\n      jump\t// in\n    tag_124:\n    tag_123:\n        /* \"contracts/08-8 del.sol\":947:954  _status */\n      dup3\n        /* \"contracts/08-8 del.sol\":947:973  _status == Status.Expelled */\n      0x03\n      dup2\n      gt\n      iszero\n      tag_125\n      jumpi\n      tag_126\n      tag_51\n      jump\t// in\n    tag_126:\n    tag_125:\n      eq\n        /* \"contracts/08-8 del.sol\":914:973  _status == Status.NotEnrolled || _status == Status.Expelled */\n    tag_122:\n        /* \"contracts/08-8 del.sol\":910:1010  if (_status == Status.NotEnrolled || _status == Status.Expelled) {... */\n      iszero\n      tag_127\n      jumpi\n        /* \"contracts/08-8 del.sol\":997:998  0 */\n      0x00\n        /* \"contracts/08-8 del.sol\":990:998  return 0 */\n      swap1\n      pop\n      jump(tag_117)\n        /* \"contracts/08-8 del.sol\":910:1010  if (_status == Status.NotEnrolled || _status == Status.Expelled) {... */\n    tag_127:\n        /* \"contracts/08-8 del.sol\":842:1017  function checkStatus(Status _status)public pure returns(uint x) {... */\n    tag_117:\n      swap2\n      swap1\n      pop\n      jump\t// out\n        /* \"contracts/08-8 del.sol\":446:469  Student public students */\n    tag_43:\n      0x00\n      dup1\n      0x00\n      add\n      dup1\n      sload\n      tag_128\n      swap1\n      tag_97\n      jump\t// in\n    tag_128:\n      dup1\n      0x1f\n      add\n      0x20\n      dup1\n      swap2\n      div\n      mul\n      0x20\n      add\n      mload(0x40)\n      swap1\n      dup2\n      add\n      0x40\n      mstore\n      dup1\n      swap3\n      swap2\n      swap1\n      dup2\n      dup2\n      mstore\n      0x20\n      add\n      dup3\n      dup1\n      sload\n      tag_129\n      swap1\n      tag_97\n      jump\t// in\n    tag_129:\n      dup1\n      iszero\n      tag_130\n      jumpi\n      dup1\n      0x1f\n      lt\n      tag_131\n      jumpi\n      0x0100\n      dup1\n      dup4\n      sload\n      div\n      mul\n      dup4\n      mstore\n      swap2\n      0x20\n      add\n      swap2\n      jump(tag_130)\n    tag_131:\n      dup3\n      add\n      swap2\n      swap1\n      0x00\n      mstore\n      keccak256(0x00, 0x20)\n      swap1\n    tag_132:\n      dup2\n      sload\n      dup2\n      mstore\n      swap1\n      0x01\n      add\n      swap1\n      0x20\n      add\n      dup1\n      dup4\n      gt\n      tag_132\n      jumpi\n      dup3\n      swap1\n      sub\n      0x1f\n      and\n      dup3\n      add\n      swap2\n    tag_130:\n      pop\n      pop\n      pop\n      pop\n      pop\n      swap1\n      dup1\n      0x01\n      add\n      sload\n      swap1\n      dup1\n      0x02\n      add\n      dup1\n      sload\n      tag_133\n      swap1\n      tag_97\n      jump\t// in\n    tag_133:\n      dup1\n      0x1f\n      add\n      0x20\n      dup1\n      swap2\n      div\n      mul\n      0x20\n      add\n      mload(0x40)\n      swap1\n      dup2\n      add\n      0x40\n      mstore\n      dup1\n      swap3\n      swap2\n      swap1\n      dup2\n      dup2\n      mstore\n      0x20\n      add\n      dup3\n      dup1\n      sload\n      tag_134\n      swap1\n      tag_97\n      jump\t// in\n    tag_134:\n      dup1\n      iszero\n      tag_135\n      jumpi\n      dup1\n      0x1f\n      lt\n      tag_136\n      jumpi\n      0x0100\n      dup1\n      dup4\n      sload\n      div\n      mul\n      dup4\n      mstore\n      swap2\n      0x20\n      add\n      swap2\n      jump(tag_135)\n    tag_136:\n      dup3\n      add\n      swap2\n      swap1\n      0x00\n      mstore\n      keccak256(0x00, 0x20)\n      swap1\n    tag_137:\n      dup2\n      sload\n      dup2\n      mstore\n      swap1\n      0x01\n      add\n      swap1\n      0x20\n      add\n      dup1\n      dup4\n      gt\n      tag_137\n      jumpi\n      dup3\n      swap1\n      sub\n      0x1f\n      and\n      dup3\n      add\n      swap2\n    tag_135:\n      pop\n      pop\n      pop\n      pop\n      pop\n      swap1\n      dup1\n      0x03\n      add\n      0x00\n      swap1\n      sload\n      swap1\n      0x0100\n      exp\n      swap1\n      div\n      0xff\n      and\n      swap1\n      dup1\n      0x03\n      add\n      0x01\n      swap1\n      sload\n      swap1\n      0x0100\n      exp\n      swap1\n      div\n      0xff\n      and\n      swap1\n      dup1\n      0x04\n      add\n      sload\n      swap1\n      pop\n      dup7\n      jump\t// out\n        /* \"#utility.yul\":7:82   */\n    tag_138:\n        /* \"#utility.yul\":40:46   */\n      0x00\n        /* \"#utility.yul\":73:75   */\n      0x40\n        /* \"#utility.yul\":67:76   */\n      mload\n        /* \"#utility.yul\":57:76   */\n      swap1\n      pop\n        /* \"#utility.yul\":7:82   */\n      swap1\n      jump\t// out\n        /* \"#utility.yul\":88:205   */\n    tag_139:\n        /* \"#utility.yul\":197:198   */\n      0x00\n        /* \"#utility.yul\":194:195   */\n      dup1\n        /* \"#utility.yul\":187:199   */\n      revert\n        /* \"#utility.yul\":211:328   */\n    tag_140:\n        /* \"#utility.yul\":320:321   */\n      0x00\n        /* \"#utility.yul\":317:318   */\n      dup1\n        /* \"#utility.yul\":310:322   */\n      revert\n        /* \"#utility.yul\":334:411   */\n    tag_141:\n        /* \"#utility.yul\":371:378   */\n      0x00\n        /* \"#utility.yul\":400:405   */\n      dup2\n        /* \"#utility.yul\":389:405   */\n      swap1\n      pop\n        /* \"#utility.yul\":334:411   */\n      swap2\n      swap1\n      pop\n      jump\t// out\n        /* \"#utility.yul\":417:539   */\n    tag_142:\n        /* \"#utility.yul\":490:514   */\n      tag_194\n        /* \"#utility.yul\":508:513   */\n      dup2\n        /* \"#utility.yul\":490:514   */\n      tag_141\n      jump\t// in\n    tag_194:\n        /* \"#utility.yul\":483:488   */\n      dup2\n        /* \"#utility.yul\":480:515   */\n      eq\n        /* \"#utility.yul\":470:533   */\n      tag_195\n      jumpi\n        /* \"#utility.yul\":529:530   */\n      0x00\n        /* \"#utility.yul\":526:527   */\n      dup1\n        /* \"#utility.yul\":519:531   */\n      revert\n        /* \"#utility.yul\":470:533   */\n    tag_195:\n        /* \"#utility.yul\":417:539   */\n      pop\n      jump\t// out\n        /* \"#utility.yul\":545:684   */\n    tag_143:\n        /* \"#utility.yul\":591:596   */\n      0x00\n        /* \"#utility.yul\":629:635   */\n      dup2\n        /* \"#utility.yul\":616:636   */\n      calldataload\n        /* \"#utility.yul\":607:636   */\n      swap1\n      pop\n        /* \"#utility.yul\":645:678   */\n      tag_197\n        /* \"#utility.yul\":672:677   */\n      dup2\n        /* \"#utility.yul\":645:678   */\n      tag_142\n      jump\t// in\n    tag_197:\n        /* \"#utility.yul\":545:684   */\n      swap3\n      swap2\n      pop\n      pop\n      jump\t// out\n        /* \"#utility.yul\":690:807   */\n    tag_144:\n        /* \"#utility.yul\":799:800   */\n      0x00\n        /* \"#utility.yul\":796:797   */\n      dup1\n        /* \"#utility.yul\":789:801   */\n      revert\n        /* \"#utility.yul\":813:930   */\n    tag_145:\n        /* \"#utility.yul\":922:923   */\n      0x00\n        /* \"#utility.yul\":919:920   */\n      dup1\n        /* \"#utility.yul\":912:924   */\n      revert\n        /* \"#utility.yul\":936:1038   */\n    tag_146:\n        /* \"#utility.yul\":977:983   */\n      0x00\n        /* \"#utility.yul\":1028:1030   */\n      0x1f\n        /* \"#utility.yul\":1024:1031   */\n      not\n        /* \"#utility.yul\":1019:1021   */\n      0x1f\n        /* \"#utility.yul\":1012:1017   */\n      dup4\n        /* \"#utility.yul\":1008:1022   */\n      add\n        /* \"#utility.yul\":1004:1032   */\n      and\n        /* \"#utility.yul\":994:1032   */\n      swap1\n      pop\n        /* \"#utility.yul\":936:1038   */\n      swap2\n      swap1\n      pop\n      jump\t// out\n        /* \"#utility.yul\":1044:1224   */\n    tag_147:\n        /* \"#utility.yul\":1092:1169   */\n      0x4e487b7100000000000000000000000000000000000000000000000000000000\n        /* \"#utility.yul\":1089:1090   */\n      0x00\n        /* \"#utility.yul\":1082:1170   */\n      mstore\n        /* \"#utility.yul\":1189:1193   */\n      0x41\n        /* \"#utility.yul\":1186:1187   */\n      0x04\n        /* \"#utility.yul\":1179:1194   */\n      mstore\n        /* \"#utility.yul\":1213:1217   */\n      0x24\n        /* \"#utility.yul\":1210:1211   */\n      0x00\n        /* \"#utility.yul\":1203:1218   */\n      revert\n        /* \"#utility.yul\":1230:1511   */\n    tag_148:\n        /* \"#utility.yul\":1313:1340   */\n      tag_203\n        /* \"#utility.yul\":1335:1339   */\n      dup3\n        /* \"#utility.yul\":1313:1340   */\n      tag_146\n      jump\t// in\n    tag_203:\n        /* \"#utility.yul\":1305:1311   */\n      dup2\n        /* \"#utility.yul\":1301:1341   */\n      add\n        /* \"#utility.yul\":1443:1449   */\n      dup2\n        /* \"#utility.yul\":1431:1441   */\n      dup2\n        /* \"#utility.yul\":1428:1450   */\n      lt\n        /* \"#utility.yul\":1407:1425   */\n      0xffffffffffffffff\n        /* \"#utility.yul\":1395:1405   */\n      dup3\n        /* \"#utility.yul\":1392:1426   */\n      gt\n        /* \"#utility.yul\":1389:1451   */\n      or\n        /* \"#utility.yul\":1386:1474   */\n      iszero\n      tag_204\n      jumpi\n        /* \"#utility.yul\":1454:1472   */\n      tag_205\n      tag_147\n      jump\t// in\n    tag_205:\n        /* \"#utility.yul\":1386:1474   */\n    tag_204:\n        /* \"#utility.yul\":1494:1504   */\n      dup1\n        /* \"#utility.yul\":1490:1492   */\n      0x40\n        /* \"#utility.yul\":1483:1505   */\n      mstore\n        /* \"#utility.yul\":1273:1511   */\n      pop\n        /* \"#utility.yul\":1230:1511   */\n      pop\n      pop\n      jump\t// out\n        /* \"#utility.yul\":1517:1646   */\n    tag_149:\n        /* \"#utility.yul\":1551:1557   */\n      0x00\n        /* \"#utility.yul\":1578:1598   */\n      tag_207\n      tag_138\n      jump\t// in\n    tag_207:\n        /* \"#utility.yul\":1568:1598   */\n      swap1\n      pop\n        /* \"#utility.yul\":1607:1640   */\n      tag_208\n        /* \"#utility.yul\":1635:1639   */\n      dup3\n        /* \"#utility.yul\":1627:1633   */\n      dup3\n        /* \"#utility.yul\":1607:1640   */\n      tag_148\n      jump\t// in\n    tag_208:\n        /* \"#utility.yul\":1517:1646   */\n      swap2\n      swap1\n      pop\n      jump\t// out\n        /* \"#utility.yul\":1652:1960   */\n    tag_150:\n        /* \"#utility.yul\":1714:1718   */\n      0x00\n        /* \"#utility.yul\":1804:1822   */\n      0xffffffffffffffff\n        /* \"#utility.yul\":1796:1802   */\n      dup3\n        /* \"#utility.yul\":1793:1823   */\n      gt\n        /* \"#utility.yul\":1790:1846   */\n      iszero\n      tag_210\n      jumpi\n        /* \"#utility.yul\":1826:1844   */\n      tag_211\n      tag_147\n      jump\t// in\n    tag_211:\n        /* \"#utility.yul\":1790:1846   */\n    tag_210:\n        /* \"#utility.yul\":1864:1893   */\n      tag_212\n        /* \"#utility.yul\":1886:1892   */\n      dup3\n        /* \"#utility.yul\":1864:1893   */\n      tag_146\n      jump\t// in\n    tag_212:\n        /* \"#utility.yul\":1856:1893   */\n      swap1\n      pop\n        /* \"#utility.yul\":1948:1952   */\n      0x20\n        /* \"#utility.yul\":1942:1946   */\n      dup2\n        /* \"#utility.yul\":1938:1953   */\n      add\n        /* \"#utility.yul\":1930:1953   */\n      swap1\n      pop\n        /* \"#utility.yul\":1652:1960   */\n      swap2\n      swap1\n      pop\n      jump\t// out\n        /* \"#utility.yul\":1966:2112   */\n    tag_151:\n        /* \"#utility.yul\":2063:2069   */\n      dup3\n        /* \"#utility.yul\":2058:2061   */\n      dup2\n        /* \"#utility.yul\":2053:2056   */\n      dup4\n        /* \"#utility.yul\":2040:2070   */\n      calldatacopy\n        /* \"#utility.yul\":2104:2105   */\n      0x00\n        /* \"#utility.yul\":2095:2101   */\n      dup4\n        /* \"#utility.yul\":2090:2093   */\n      dup4\n        /* \"#utility.yul\":2086:2102   */\n      add\n        /* \"#utility.yul\":2079:2106   */\n      mstore\n        /* \"#utility.yul\":1966:2112   */\n      pop\n      pop\n      pop\n      jump\t// out\n        /* \"#utility.yul\":2118:2543   */\n    tag_152:\n        /* \"#utility.yul\":2196:2201   */\n      0x00\n        /* \"#utility.yul\":2221:2287   */\n      tag_215\n        /* \"#utility.yul\":2237:2286   */\n      tag_216\n        /* \"#utility.yul\":2279:2285   */\n      dup5\n        /* \"#utility.yul\":2237:2286   */\n      tag_150\n      jump\t// in\n    tag_216:\n        /* \"#utility.yul\":2221:2287   */\n      tag_149\n      jump\t// in\n    tag_215:\n        /* \"#utility.yul\":2212:2287   */\n      swap1\n      pop\n        /* \"#utility.yul\":2310:2316   */\n      dup3\n        /* \"#utility.yul\":2303:2308   */\n      dup2\n        /* \"#utility.yul\":2296:2317   */\n      mstore\n        /* \"#utility.yul\":2348:2352   */\n      0x20\n        /* \"#utility.yul\":2341:2346   */\n      dup2\n        /* \"#utility.yul\":2337:2353   */\n      add\n        /* \"#utility.yul\":2386:2389   */\n      dup5\n        /* \"#utility.yul\":2377:2383   */\n      dup5\n        /* \"#utility.yul\":2372:2375   */\n      dup5\n        /* \"#utility.yul\":2368:2384   */\n      add\n        /* \"#utility.yul\":2365:2390   */\n      gt\n        /* \"#utility.yul\":2362:2474   */\n      iszero\n      tag_217\n      jumpi\n        /* \"#utility.yul\":2393:2472   */\n      tag_218\n      tag_145\n      jump\t// in\n    tag_218:\n        /* \"#utility.yul\":2362:2474   */\n    tag_217:\n        /* \"#utility.yul\":2483:2537   */\n      tag_219\n        /* \"#utility.yul\":2530:2536   */\n      dup5\n        /* \"#utility.yul\":2525:2528   */\n      dup3\n        /* \"#utility.yul\":2520:2523   */\n      dup6\n        /* \"#utility.yul\":2483:2537   */\n      tag_151\n      jump\t// in\n    tag_219:\n        /* \"#utility.yul\":2202:2543   */\n      pop\n        /* \"#utility.yul\":2118:2543   */\n      swap4\n      swap3\n      pop\n      pop\n      pop\n      jump\t// out\n        /* \"#utility.yul\":2563:2903   */\n    tag_153:\n        /* \"#utility.yul\":2619:2624   */\n      0x00\n        /* \"#utility.yul\":2668:2671   */\n      dup3\n        /* \"#utility.yul\":2661:2665   */\n      0x1f\n        /* \"#utility.yul\":2653:2659   */\n      dup4\n        /* \"#utility.yul\":2649:2666   */\n      add\n        /* \"#utility.yul\":2645:2672   */\n      slt\n        /* \"#utility.yul\":2635:2757   */\n      tag_221\n      jumpi\n        /* \"#utility.yul\":2676:2755   */\n      tag_222\n      tag_144\n      jump\t// in\n    tag_222:\n        /* \"#utility.yul\":2635:2757   */\n    tag_221:\n        /* \"#utility.yul\":2793:2799   */\n      dup2\n        /* \"#utility.yul\":2780:2800   */\n      calldataload\n        /* \"#utility.yul\":2818:2897   */\n      tag_223\n        /* \"#utility.yul\":2893:2896   */\n      dup5\n        /* \"#utility.yul\":2885:2891   */\n      dup3\n        /* \"#utility.yul\":2878:2882   */\n      0x20\n        /* \"#utility.yul\":2870:2876   */\n      dup7\n        /* \"#utility.yul\":2866:2883   */\n      add\n        /* \"#utility.yul\":2818:2897   */\n      tag_152\n      jump\t// in\n    tag_223:\n        /* \"#utility.yul\":2809:2897   */\n      swap2\n      pop\n        /* \"#utility.yul\":2625:2903   */\n      pop\n        /* \"#utility.yul\":2563:2903   */\n      swap3\n      swap2\n      pop\n      pop\n      jump\t// out\n        /* \"#utility.yul\":2909:3020   */\n    tag_154:\n        /* \"#utility.yul\":2994:2995   */\n      0x04\n        /* \"#utility.yul\":2987:2992   */\n      dup2\n        /* \"#utility.yul\":2984:2996   */\n      lt\n        /* \"#utility.yul\":2974:3014   */\n      tag_225\n      jumpi\n        /* \"#utility.yul\":3010:3011   */\n      0x00\n        /* \"#utility.yul\":3007:3008   */\n      dup1\n        /* \"#utility.yul\":3000:3012   */\n      revert\n        /* \"#utility.yul\":2974:3014   */\n    tag_225:\n        /* \"#utility.yul\":2909:3020   */\n      pop\n      jump\t// out\n        /* \"#utility.yul\":3026:3189   */\n    tag_155:\n        /* \"#utility.yul\":3084:3089   */\n      0x00\n        /* \"#utility.yul\":3122:3128   */\n      dup2\n        /* \"#utility.yul\":3109:3129   */\n      calldataload\n        /* \"#utility.yul\":3100:3129   */\n      swap1\n      pop\n        /* \"#utility.yul\":3138:3183   */\n      tag_227\n        /* \"#utility.yul\":3177:3182   */\n      dup2\n        /* \"#utility.yul\":3138:3183   */\n      tag_154\n      jump\t// in\n    tag_227:\n        /* \"#utility.yul\":3026:3189   */\n      swap3\n      swap2\n      pop\n      pop\n      jump\t// out\n        /* \"#utility.yul\":3195:3303   */\n    tag_156:\n        /* \"#utility.yul\":3277:3278   */\n      0x04\n        /* \"#utility.yul\":3270:3275   */\n      dup2\n        /* \"#utility.yul\":3267:3279   */\n      lt\n        /* \"#utility.yul\":3257:3297   */\n      tag_229\n      jumpi\n        /* \"#utility.yul\":3293:3294   */\n      0x00\n        /* \"#utility.yul\":3290:3291   */\n      dup1\n        /* \"#utility.yul\":3283:3295   */\n      revert\n        /* \"#utility.yul\":3257:3297   */\n    tag_229:\n        /* \"#utility.yul\":3195:3303   */\n      pop\n      jump\t// out\n        /* \"#utility.yul\":3309:3466   */\n    tag_157:\n        /* \"#utility.yul\":3364:3369   */\n      0x00\n        /* \"#utility.yul\":3402:3408   */\n      dup2\n        /* \"#utility.yul\":3389:3409   */\n      calldataload\n        /* \"#utility.yul\":3380:3409   */\n      swap1\n      pop\n        /* \"#utility.yul\":3418:3460   */\n      tag_231\n        /* \"#utility.yul\":3454:3459   */\n      dup2\n        /* \"#utility.yul\":3418:3460   */\n      tag_156\n      jump\t// in\n    tag_231:\n        /* \"#utility.yul\":3309:3466   */\n      swap3\n      swap2\n      pop\n      pop\n      jump\t// out\n        /* \"#utility.yul\":3472:4459   */\n    tag_16:\n        /* \"#utility.yul\":3589:3595   */\n      0x00\n        /* \"#utility.yul\":3597:3603   */\n      dup1\n        /* \"#utility.yul\":3605:3611   */\n      0x00\n        /* \"#utility.yul\":3613:3619   */\n      dup1\n        /* \"#utility.yul\":3662:3665   */\n      0x80\n        /* \"#utility.yul\":3650:3659   */\n      dup6\n        /* \"#utility.yul\":3641:3648   */\n      dup8\n        /* \"#utility.yul\":3637:3660   */\n      sub\n        /* \"#utility.yul\":3633:3666   */\n      slt\n        /* \"#utility.yul\":3630:3750   */\n      iszero\n      tag_233\n      jumpi\n        /* \"#utility.yul\":3669:3748   */\n      tag_234\n      tag_139\n      jump\t// in\n    tag_234:\n        /* \"#utility.yul\":3630:3750   */\n    tag_233:\n        /* \"#utility.yul\":3789:3790   */\n      0x00\n        /* \"#utility.yul\":3814:3867   */\n      tag_235\n        /* \"#utility.yul\":3859:3866   */\n      dup8\n        /* \"#utility.yul\":3850:3856   */\n      dup3\n        /* \"#utility.yul\":3839:3848   */\n      dup9\n        /* \"#utility.yul\":3835:3857   */\n      add\n        /* \"#utility.yul\":3814:3867   */\n      tag_143\n      jump\t// in\n    tag_235:\n        /* \"#utility.yul\":3804:3867   */\n      swap5\n      pop\n        /* \"#utility.yul\":3760:3877   */\n      pop\n        /* \"#utility.yul\":3944:3946   */\n      0x20\n        /* \"#utility.yul\":3933:3942   */\n      dup6\n        /* \"#utility.yul\":3929:3947   */\n      add\n        /* \"#utility.yul\":3916:3948   */\n      calldataload\n        /* \"#utility.yul\":3975:3993   */\n      0xffffffffffffffff\n        /* \"#utility.yul\":3967:3973   */\n      dup2\n        /* \"#utility.yul\":3964:3994   */\n      gt\n        /* \"#utility.yul\":3961:4078   */\n      iszero\n      tag_236\n      jumpi\n        /* \"#utility.yul\":3997:4076   */\n      tag_237\n      tag_140\n      jump\t// in\n    tag_237:\n        /* \"#utility.yul\":3961:4078   */\n    tag_236:\n        /* \"#utility.yul\":4102:4165   */\n      tag_238\n        /* \"#utility.yul\":4157:4164   */\n      dup8\n        /* \"#utility.yul\":4148:4154   */\n      dup3\n        /* \"#utility.yul\":4137:4146   */\n      dup9\n        /* \"#utility.yul\":4133:4155   */\n      add\n        /* \"#utility.yul\":4102:4165   */\n      tag_153\n      jump\t// in\n    tag_238:\n        /* \"#utility.yul\":4092:4165   */\n      swap4\n      pop\n        /* \"#utility.yul\":3887:4175   */\n      pop\n        /* \"#utility.yul\":4214:4216   */\n      0x40\n        /* \"#utility.yul\":4240:4305   */\n      tag_239\n        /* \"#utility.yul\":4297:4304   */\n      dup8\n        /* \"#utility.yul\":4288:4294   */\n      dup3\n        /* \"#utility.yul\":4277:4286   */\n      dup9\n        /* \"#utility.yul\":4273:4295   */\n      add\n        /* \"#utility.yul\":4240:4305   */\n      tag_155\n      jump\t// in\n    tag_239:\n        /* \"#utility.yul\":4230:4305   */\n      swap3\n      pop\n        /* \"#utility.yul\":4185:4315   */\n      pop\n        /* \"#utility.yul\":4354:4356   */\n      0x60\n        /* \"#utility.yul\":4380:4442   */\n      tag_240\n        /* \"#utility.yul\":4434:4441   */\n      dup8\n        /* \"#utility.yul\":4425:4431   */\n      dup3\n        /* \"#utility.yul\":4414:4423   */\n      dup9\n        /* \"#utility.yul\":4410:4432   */\n      add\n        /* \"#utility.yul\":4380:4442   */\n      tag_157\n      jump\t// in\n    tag_240:\n        /* \"#utility.yul\":4370:4442   */\n      swap2\n      pop\n        /* \"#utility.yul\":4325:4452   */\n      pop\n        /* \"#utility.yul\":3472:4459   */\n      swap3\n      swap6\n      swap2\n      swap5\n      pop\n      swap3\n      pop\n      jump\t// out\n        /* \"#utility.yul\":4465:4583   */\n    tag_158:\n        /* \"#utility.yul\":4552:4576   */\n      tag_242\n        /* \"#utility.yul\":4570:4575   */\n      dup2\n        /* \"#utility.yul\":4552:4576   */\n      tag_141\n      jump\t// in\n    tag_242:\n        /* \"#utility.yul\":4547:4550   */\n      dup3\n        /* \"#utility.yul\":4540:4577   */\n      mstore\n        /* \"#utility.yul\":4465:4583   */\n      pop\n      pop\n      jump\t// out\n        /* \"#utility.yul\":4589:5142   */\n    tag_21:\n        /* \"#utility.yul\":4766:4770   */\n      0x00\n        /* \"#utility.yul\":4804:4807   */\n      0x80\n        /* \"#utility.yul\":4793:4802   */\n      dup3\n        /* \"#utility.yul\":4789:4808   */\n      add\n        /* \"#utility.yul\":4781:4808   */\n      swap1\n      pop\n        /* \"#utility.yul\":4818:4889   */\n      tag_244\n        /* \"#utility.yul\":4886:4887   */\n      0x00\n        /* \"#utility.yul\":4875:4884   */\n      dup4\n        /* \"#utility.yul\":4871:4888   */\n      add\n        /* \"#utility.yul\":4862:4868   */\n      dup8\n        /* \"#utility.yul\":4818:4889   */\n      tag_158\n      jump\t// in\n    tag_244:\n        /* \"#utility.yul\":4899:4971   */\n      tag_245\n        /* \"#utility.yul\":4967:4969   */\n      0x20\n        /* \"#utility.yul\":4956:4965   */\n      dup4\n        /* \"#utility.yul\":4952:4970   */\n      add\n        /* \"#utility.yul\":4943:4949   */\n      dup7\n        /* \"#utility.yul\":4899:4971   */\n      tag_158\n      jump\t// in\n    tag_245:\n        /* \"#utility.yul\":4981:5053   */\n      tag_246\n        /* \"#utility.yul\":5049:5051   */\n      0x40\n        /* \"#utility.yul\":5038:5047   */\n      dup4\n        /* \"#utility.yul\":5034:5052   */\n      add\n        /* \"#utility.yul\":5025:5031   */\n      dup6\n        /* \"#utility.yul\":4981:5053   */\n      tag_158\n      jump\t// in\n    tag_246:\n        /* \"#utility.yul\":5063:5135   */\n      tag_247\n        /* \"#utility.yul\":5131:5133   */\n      0x60\n        /* \"#utility.yul\":5120:5129   */\n      dup4\n        /* \"#utility.yul\":5116:5134   */\n      add\n        /* \"#utility.yul\":5107:5113   */\n      dup5\n        /* \"#utility.yul\":5063:5135   */\n      tag_158\n      jump\t// in\n    tag_247:\n        /* \"#utility.yul\":4589:5142   */\n      swap6\n      swap5\n      pop\n      pop\n      pop\n      pop\n      pop\n      jump\t// out\n        /* \"#utility.yul\":5148:6753   */\n    tag_24:\n        /* \"#utility.yul\":5302:5308   */\n      0x00\n        /* \"#utility.yul\":5310:5316   */\n      dup1\n        /* \"#utility.yul\":5318:5324   */\n      0x00\n        /* \"#utility.yul\":5326:5332   */\n      dup1\n        /* \"#utility.yul\":5334:5340   */\n      0x00\n        /* \"#utility.yul\":5342:5348   */\n      dup1\n        /* \"#utility.yul\":5350:5356   */\n      0x00\n        /* \"#utility.yul\":5399:5402   */\n      0xe0\n        /* \"#utility.yul\":5387:5396   */\n      dup9\n        /* \"#utility.yul\":5378:5385   */\n      dup11\n        /* \"#utility.yul\":5374:5397   */\n      sub\n        /* \"#utility.yul\":5370:5403   */\n      slt\n        /* \"#utility.yul\":5367:5487   */\n      iszero\n      tag_249\n      jumpi\n        /* \"#utility.yul\":5406:5485   */\n      tag_250\n      tag_139\n      jump\t// in\n    tag_250:\n        /* \"#utility.yul\":5367:5487   */\n    tag_249:\n        /* \"#utility.yul\":5526:5527   */\n      0x00\n        /* \"#utility.yul\":5551:5604   */\n      tag_251\n        /* \"#utility.yul\":5596:5603   */\n      dup11\n        /* \"#utility.yul\":5587:5593   */\n      dup3\n        /* \"#utility.yul\":5576:5585   */\n      dup12\n        /* \"#utility.yul\":5572:5594   */\n      add\n        /* \"#utility.yul\":5551:5604   */\n      tag_143\n      jump\t// in\n    tag_251:\n        /* \"#utility.yul\":5541:5604   */\n      swap8\n      pop\n        /* \"#utility.yul\":5497:5614   */\n      pop\n        /* \"#utility.yul\":5681:5683   */\n      0x20\n        /* \"#utility.yul\":5670:5679   */\n      dup9\n        /* \"#utility.yul\":5666:5684   */\n      add\n        /* \"#utility.yul\":5653:5685   */\n      calldataload\n        /* \"#utility.yul\":5712:5730   */\n      0xffffffffffffffff\n        /* \"#utility.yul\":5704:5710   */\n      dup2\n        /* \"#utility.yul\":5701:5731   */\n      gt\n        /* \"#utility.yul\":5698:5815   */\n      iszero\n      tag_252\n      jumpi\n        /* \"#utility.yul\":5734:5813   */\n      tag_253\n      tag_140\n      jump\t// in\n    tag_253:\n        /* \"#utility.yul\":5698:5815   */\n    tag_252:\n        /* \"#utility.yul\":5839:5902   */\n      tag_254\n        /* \"#utility.yul\":5894:5901   */\n      dup11\n        /* \"#utility.yul\":5885:5891   */\n      dup3\n        /* \"#utility.yul\":5874:5883   */\n      dup12\n        /* \"#utility.yul\":5870:5892   */\n      add\n        /* \"#utility.yul\":5839:5902   */\n      tag_153\n      jump\t// in\n    tag_254:\n        /* \"#utility.yul\":5829:5902   */\n      swap7\n      pop\n        /* \"#utility.yul\":5624:5912   */\n      pop\n        /* \"#utility.yul\":5951:5953   */\n      0x40\n        /* \"#utility.yul\":5977:6030   */\n      tag_255\n        /* \"#utility.yul\":6022:6029   */\n      dup11\n        /* \"#utility.yul\":6013:6019   */\n      dup3\n        /* \"#utility.yul\":6002:6011   */\n      dup12\n        /* \"#utility.yul\":5998:6020   */\n      add\n        /* \"#utility.yul\":5977:6030   */\n      tag_143\n      jump\t// in\n    tag_255:\n        /* \"#utility.yul\":5967:6030   */\n      swap6\n      pop\n        /* \"#utility.yul\":5922:6040   */\n      pop\n        /* \"#utility.yul\":6107:6109   */\n      0x60\n        /* \"#utility.yul\":6096:6105   */\n      dup9\n        /* \"#utility.yul\":6092:6110   */\n      add\n        /* \"#utility.yul\":6079:6111   */\n      calldataload\n        /* \"#utility.yul\":6138:6156   */\n      0xffffffffffffffff\n        /* \"#utility.yul\":6130:6136   */\n      dup2\n        /* \"#utility.yul\":6127:6157   */\n      gt\n        /* \"#utility.yul\":6124:6241   */\n      iszero\n      tag_256\n      jumpi\n        /* \"#utility.yul\":6160:6239   */\n      tag_257\n      tag_140\n      jump\t// in\n    tag_257:\n        /* \"#utility.yul\":6124:6241   */\n    tag_256:\n        /* \"#utility.yul\":6265:6328   */\n      tag_258\n        /* \"#utility.yul\":6320:6327   */\n      dup11\n        /* \"#utility.yul\":6311:6317   */\n      dup3\n        /* \"#utility.yul\":6300:6309   */\n      dup12\n        /* \"#utility.yul\":6296:6318   */\n      add\n        /* \"#utility.yul\":6265:6328   */\n      tag_153\n      jump\t// in\n    tag_258:\n        /* \"#utility.yul\":6255:6328   */\n      swap5\n      pop\n        /* \"#utility.yul\":6050:6338   */\n      pop\n        /* \"#utility.yul\":6377:6380   */\n      0x80\n        /* \"#utility.yul\":6404:6469   */\n      tag_259\n        /* \"#utility.yul\":6461:6468   */\n      dup11\n        /* \"#utility.yul\":6452:6458   */\n      dup3\n        /* \"#utility.yul\":6441:6450   */\n      dup12\n        /* \"#utility.yul\":6437:6459   */\n      add\n        /* \"#utility.yul\":6404:6469   */\n      tag_155\n      jump\t// in\n    tag_259:\n        /* \"#utility.yul\":6394:6469   */\n      swap4\n      pop\n        /* \"#utility.yul\":6348:6479   */\n      pop\n        /* \"#utility.yul\":6518:6521   */\n      0xa0\n        /* \"#utility.yul\":6545:6607   */\n      tag_260\n        /* \"#utility.yul\":6599:6606   */\n      dup11\n        /* \"#utility.yul\":6590:6596   */\n      dup3\n        /* \"#utility.yul\":6579:6588   */\n      dup12\n        /* \"#utility.yul\":6575:6597   */\n      add\n        /* \"#utility.yul\":6545:6607   */\n      tag_157\n      jump\t// in\n    tag_260:\n        /* \"#utility.yul\":6535:6607   */\n      swap3\n      pop\n        /* \"#utility.yul\":6489:6617   */\n      pop\n        /* \"#utility.yul\":6656:6659   */\n      0xc0\n        /* \"#utility.yul\":6683:6736   */\n      tag_261\n        /* \"#utility.yul\":6728:6735   */\n      dup11\n        /* \"#utility.yul\":6719:6725   */\n      dup3\n        /* \"#utility.yul\":6708:6717   */\n      dup12\n        /* \"#utility.yul\":6704:6726   */\n      add\n        /* \"#utility.yul\":6683:6736   */\n      tag_143\n      jump\t// in\n    tag_261:\n        /* \"#utility.yul\":6673:6736   */\n      swap2\n      pop\n        /* \"#utility.yul\":6627:6746   */\n      pop\n        /* \"#utility.yul\":5148:6753   */\n      swap3\n      swap6\n      swap9\n      swap2\n      swap5\n      swap8\n      pop\n      swap3\n      swap6\n      pop\n      jump\t// out\n        /* \"#utility.yul\":6759:7088   */\n    tag_28:\n        /* \"#utility.yul\":6818:6824   */\n      0x00\n        /* \"#utility.yul\":6867:6869   */\n      0x20\n        /* \"#utility.yul\":6855:6864   */\n      dup3\n        /* \"#utility.yul\":6846:6853   */\n      dup5\n        /* \"#utility.yul\":6842:6865   */\n      sub\n        /* \"#utility.yul\":6838:6870   */\n      slt\n        /* \"#utility.yul\":6835:6954   */\n      iszero\n      tag_263\n      jumpi\n        /* \"#utility.yul\":6873:6952   */\n      tag_264\n      tag_139\n      jump\t// in\n    tag_264:\n        /* \"#utility.yul\":6835:6954   */\n    tag_263:\n        /* \"#utility.yul\":6993:6994   */\n      0x00\n        /* \"#utility.yul\":7018:7071   */\n      tag_265\n        /* \"#utility.yul\":7063:7070   */\n      dup5\n        /* \"#utility.yul\":7054:7060   */\n      dup3\n        /* \"#utility.yul\":7043:7052   */\n      dup6\n        /* \"#utility.yul\":7039:7061   */\n      add\n        /* \"#utility.yul\":7018:7071   */\n      tag_143\n      jump\t// in\n    tag_265:\n        /* \"#utility.yul\":7008:7071   */\n      swap2\n      pop\n        /* \"#utility.yul\":6964:7081   */\n      pop\n        /* \"#utility.yul\":6759:7088   */\n      swap3\n      swap2\n      pop\n      pop\n      jump\t// out\n        /* \"#utility.yul\":7094:7193   */\n    tag_159:\n        /* \"#utility.yul\":7146:7152   */\n      0x00\n        /* \"#utility.yul\":7180:7185   */\n      dup2\n        /* \"#utility.yul\":7174:7186   */\n      mload\n        /* \"#utility.yul\":7164:7186   */\n      swap1\n      pop\n        /* \"#utility.yul\":7094:7193   */\n      swap2\n      swap1\n      pop\n      jump\t// out\n        /* \"#utility.yul\":7199:7368   */\n    tag_160:\n        /* \"#utility.yul\":7283:7294   */\n      0x00\n        /* \"#utility.yul\":7317:7323   */\n      dup3\n        /* \"#utility.yul\":7312:7315   */\n      dup3\n        /* \"#utility.yul\":7305:7324   */\n      mstore\n        /* \"#utility.yul\":7357:7361   */\n      0x20\n        /* \"#utility.yul\":7352:7355   */\n      dup3\n        /* \"#utility.yul\":7348:7362   */\n      add\n        /* \"#utility.yul\":7333:7362   */\n      swap1\n      pop\n        /* \"#utility.yul\":7199:7368   */\n      swap3\n      swap2\n      pop\n      pop\n      jump\t// out\n        /* \"#utility.yul\":7374:7620   */\n    tag_161:\n        /* \"#utility.yul\":7455:7456   */\n      0x00\n        /* \"#utility.yul\":7465:7578   */\n    tag_269:\n        /* \"#utility.yul\":7479:7485   */\n      dup4\n        /* \"#utility.yul\":7476:7477   */\n      dup2\n        /* \"#utility.yul\":7473:7486   */\n      lt\n        /* \"#utility.yul\":7465:7578   */\n      iszero\n      tag_271\n      jumpi\n        /* \"#utility.yul\":7564:7565   */\n      dup1\n        /* \"#utility.yul\":7559:7562   */\n      dup3\n        /* \"#utility.yul\":7555:7566   */\n      add\n        /* \"#utility.yul\":7549:7567   */\n      mload\n        /* \"#utility.yul\":7545:7546   */\n      dup2\n        /* \"#utility.yul\":7540:7543   */\n      dup5\n        /* \"#utility.yul\":7536:7547   */\n      add\n        /* \"#utility.yul\":7529:7568   */\n      mstore\n        /* \"#utility.yul\":7501:7503   */\n      0x20\n        /* \"#utility.yul\":7498:7499   */\n      dup2\n        /* \"#utility.yul\":7494:7504   */\n      add\n        /* \"#utility.yul\":7489:7504   */\n      swap1\n      pop\n        /* \"#utility.yul\":7465:7578   */\n      jump(tag_269)\n    tag_271:\n        /* \"#utility.yul\":7612:7613   */\n      0x00\n        /* \"#utility.yul\":7603:7609   */\n      dup5\n        /* \"#utility.yul\":7598:7601   */\n      dup5\n        /* \"#utility.yul\":7594:7610   */\n      add\n        /* \"#utility.yul\":7587:7614   */\n      mstore\n        /* \"#utility.yul\":7436:7620   */\n      pop\n        /* \"#utility.yul\":7374:7620   */\n      pop\n      pop\n      pop\n      jump\t// out\n        /* \"#utility.yul\":7626:8003   */\n    tag_162:\n        /* \"#utility.yul\":7714:7717   */\n      0x00\n        /* \"#utility.yul\":7742:7781   */\n      tag_273\n        /* \"#utility.yul\":7775:7780   */\n      dup3\n        /* \"#utility.yul\":7742:7781   */\n      tag_159\n      jump\t// in\n    tag_273:\n        /* \"#utility.yul\":7797:7868   */\n      tag_274\n        /* \"#utility.yul\":7861:7867   */\n      dup2\n        /* \"#utility.yul\":7856:7859   */\n      dup6\n        /* \"#utility.yul\":7797:7868   */\n      tag_160\n      jump\t// in\n    tag_274:\n        /* \"#utility.yul\":7790:7868   */\n      swap4\n      pop\n        /* \"#utility.yul\":7877:7942   */\n      tag_275\n        /* \"#utility.yul\":7935:7941   */\n      dup2\n        /* \"#utility.yul\":7930:7933   */\n      dup6\n        /* \"#utility.yul\":7923:7927   */\n      0x20\n        /* \"#utility.yul\":7916:7921   */\n      dup7\n        /* \"#utility.yul\":7912:7928   */\n      add\n        /* \"#utility.yul\":7877:7942   */\n      tag_161\n      jump\t// in\n    tag_275:\n        /* \"#utility.yul\":7967:7996   */\n      tag_276\n        /* \"#utility.yul\":7989:7995   */\n      dup2\n        /* \"#utility.yul\":7967:7996   */\n      tag_146\n      jump\t// in\n    tag_276:\n        /* \"#utility.yul\":7962:7965   */\n      dup5\n        /* \"#utility.yul\":7958:7997   */\n      add\n        /* \"#utility.yul\":7951:7997   */\n      swap2\n      pop\n        /* \"#utility.yul\":7718:8003   */\n      pop\n        /* \"#utility.yul\":7626:8003   */\n      swap3\n      swap2\n      pop\n      pop\n      jump\t// out\n        /* \"#utility.yul\":8009:8189   */\n    tag_51:\n        /* \"#utility.yul\":8057:8134   */\n      0x4e487b7100000000000000000000000000000000000000000000000000000000\n        /* \"#utility.yul\":8054:8055   */\n      0x00\n        /* \"#utility.yul\":8047:8135   */\n      mstore\n        /* \"#utility.yul\":8154:8158   */\n      0x21\n        /* \"#utility.yul\":8151:8152   */\n      0x04\n        /* \"#utility.yul\":8144:8159   */\n      mstore\n        /* \"#utility.yul\":8178:8182   */\n      0x24\n        /* \"#utility.yul\":8175:8176   */\n      0x00\n        /* \"#utility.yul\":8168:8183   */\n      revert\n        /* \"#utility.yul\":8195:8312   */\n    tag_163:\n        /* \"#utility.yul\":8280:8281   */\n      0x04\n        /* \"#utility.yul\":8273:8278   */\n      dup2\n        /* \"#utility.yul\":8270:8282   */\n      lt\n        /* \"#utility.yul\":8260:8306   */\n      tag_279\n      jumpi\n        /* \"#utility.yul\":8286:8304   */\n      tag_280\n      tag_51\n      jump\t// in\n    tag_280:\n        /* \"#utility.yul\":8260:8306   */\n    tag_279:\n        /* \"#utility.yul\":8195:8312   */\n      pop\n      jump\t// out\n        /* \"#utility.yul\":8318:8453   */\n    tag_164:\n        /* \"#utility.yul\":8367:8374   */\n      0x00\n        /* \"#utility.yul\":8396:8401   */\n      dup2\n        /* \"#utility.yul\":8385:8401   */\n      swap1\n      pop\n        /* \"#utility.yul\":8402:8447   */\n      tag_282\n        /* \"#utility.yul\":8441:8446   */\n      dup3\n        /* \"#utility.yul\":8402:8447   */\n      tag_163\n      jump\t// in\n    tag_282:\n        /* \"#utility.yul\":8318:8453   */\n      swap2\n      swap1\n      pop\n      jump\t// out\n        /* \"#utility.yul\":8459:8594   */\n    tag_165:\n        /* \"#utility.yul\":8519:8528   */\n      0x00\n        /* \"#utility.yul\":8552:8588   */\n      tag_284\n        /* \"#utility.yul\":8582:8587   */\n      dup3\n        /* \"#utility.yul\":8552:8588   */\n      tag_164\n      jump\t// in\n    tag_284:\n        /* \"#utility.yul\":8539:8588   */\n      swap1\n      pop\n        /* \"#utility.yul\":8459:8594   */\n      swap2\n      swap1\n      pop\n      jump\t// out\n        /* \"#utility.yul\":8600:8751   */\n    tag_166:\n        /* \"#utility.yul\":8697:8744   */\n      tag_286\n        /* \"#utility.yul\":8738:8743   */\n      dup2\n        /* \"#utility.yul\":8697:8744   */\n      tag_165\n      jump\t// in\n    tag_286:\n        /* \"#utility.yul\":8692:8695   */\n      dup3\n        /* \"#utility.yul\":8685:8745   */\n      mstore\n        /* \"#utility.yul\":8600:8751   */\n      pop\n      pop\n      jump\t// out\n        /* \"#utility.yul\":8757:8871   */\n    tag_167:\n        /* \"#utility.yul\":8839:8840   */\n      0x04\n        /* \"#utility.yul\":8832:8837   */\n      dup2\n        /* \"#utility.yul\":8829:8841   */\n      lt\n        /* \"#utility.yul\":8819:8865   */\n      tag_288\n      jumpi\n        /* \"#utility.yul\":8845:8863   */\n      tag_289\n      tag_51\n      jump\t// in\n    tag_289:\n        /* \"#utility.yul\":8819:8865   */\n    tag_288:\n        /* \"#utility.yul\":8757:8871   */\n      pop\n      jump\t// out\n        /* \"#utility.yul\":8877:9006   */\n    tag_168:\n        /* \"#utility.yul\":8923:8930   */\n      0x00\n        /* \"#utility.yul\":8952:8957   */\n      dup2\n        /* \"#utility.yul\":8941:8957   */\n      swap1\n      pop\n        /* \"#utility.yul\":8958:9000   */\n      tag_291\n        /* \"#utility.yul\":8994:8999   */\n      dup3\n        /* \"#utility.yul\":8958:9000   */\n      tag_167\n      jump\t// in\n    tag_291:\n        /* \"#utility.yul\":8877:9006   */\n      swap2\n      swap1\n      pop\n      jump\t// out\n        /* \"#utility.yul\":9012:9141   */\n    tag_169:\n        /* \"#utility.yul\":9069:9078   */\n      0x00\n        /* \"#utility.yul\":9102:9135   */\n      tag_293\n        /* \"#utility.yul\":9129:9134   */\n      dup3\n        /* \"#utility.yul\":9102:9135   */\n      tag_168\n      jump\t// in\n    tag_293:\n        /* \"#utility.yul\":9089:9135   */\n      swap1\n      pop\n        /* \"#utility.yul\":9012:9141   */\n      swap2\n      swap1\n      pop\n      jump\t// out\n        /* \"#utility.yul\":9147:9292   */\n    tag_170:\n        /* \"#utility.yul\":9241:9285   */\n      tag_295\n        /* \"#utility.yul\":9279:9284   */\n      dup2\n        /* \"#utility.yul\":9241:9285   */\n      tag_169\n      jump\t// in\n    tag_295:\n        /* \"#utility.yul\":9236:9239   */\n      dup3\n        /* \"#utility.yul\":9229:9286   */\n      mstore\n        /* \"#utility.yul\":9147:9292   */\n      pop\n      pop\n      jump\t// out\n        /* \"#utility.yul\":9298:10289   */\n    tag_31:\n        /* \"#utility.yul\":9588:9592   */\n      0x00\n        /* \"#utility.yul\":9626:9629   */\n      0xc0\n        /* \"#utility.yul\":9615:9624   */\n      dup3\n        /* \"#utility.yul\":9611:9630   */\n      add\n        /* \"#utility.yul\":9603:9630   */\n      swap1\n      pop\n        /* \"#utility.yul\":9676:9685   */\n      dup2\n        /* \"#utility.yul\":9670:9674   */\n      dup2\n        /* \"#utility.yul\":9666:9686   */\n      sub\n        /* \"#utility.yul\":9662:9663   */\n      0x00\n        /* \"#utility.yul\":9651:9660   */\n      dup4\n        /* \"#utility.yul\":9647:9664   */\n      add\n        /* \"#utility.yul\":9640:9687   */\n      mstore\n        /* \"#utility.yul\":9704:9782   */\n      tag_297\n        /* \"#utility.yul\":9777:9781   */\n      dup2\n        /* \"#utility.yul\":9768:9774   */\n      dup10\n        /* \"#utility.yul\":9704:9782   */\n      tag_162\n      jump\t// in\n    tag_297:\n        /* \"#utility.yul\":9696:9782   */\n      swap1\n      pop\n        /* \"#utility.yul\":9792:9864   */\n      tag_298\n        /* \"#utility.yul\":9860:9862   */\n      0x20\n        /* \"#utility.yul\":9849:9858   */\n      dup4\n        /* \"#utility.yul\":9845:9863   */\n      add\n        /* \"#utility.yul\":9836:9842   */\n      dup9\n        /* \"#utility.yul\":9792:9864   */\n      tag_158\n      jump\t// in\n    tag_298:\n        /* \"#utility.yul\":9911:9920   */\n      dup2\n        /* \"#utility.yul\":9905:9909   */\n      dup2\n        /* \"#utility.yul\":9901:9921   */\n      sub\n        /* \"#utility.yul\":9896:9898   */\n      0x40\n        /* \"#utility.yul\":9885:9894   */\n      dup4\n        /* \"#utility.yul\":9881:9899   */\n      add\n        /* \"#utility.yul\":9874:9922   */\n      mstore\n        /* \"#utility.yul\":9939:10017   */\n      tag_299\n        /* \"#utility.yul\":10012:10016   */\n      dup2\n        /* \"#utility.yul\":10003:10009   */\n      dup8\n        /* \"#utility.yul\":9939:10017   */\n      tag_162\n      jump\t// in\n    tag_299:\n        /* \"#utility.yul\":9931:10017   */\n      swap1\n      pop\n        /* \"#utility.yul\":10027:10109   */\n      tag_300\n        /* \"#utility.yul\":10105:10107   */\n      0x60\n        /* \"#utility.yul\":10094:10103   */\n      dup4\n        /* \"#utility.yul\":10090:10108   */\n      add\n        /* \"#utility.yul\":10081:10087   */\n      dup7\n        /* \"#utility.yul\":10027:10109   */\n      tag_166\n      jump\t// in\n    tag_300:\n        /* \"#utility.yul\":10119:10199   */\n      tag_301\n        /* \"#utility.yul\":10194:10197   */\n      0x80\n        /* \"#utility.yul\":10183:10192   */\n      dup4\n        /* \"#utility.yul\":10179:10198   */\n      add\n        /* \"#utility.yul\":10170:10176   */\n      dup6\n        /* \"#utility.yul\":10119:10199   */\n      tag_170\n      jump\t// in\n    tag_301:\n        /* \"#utility.yul\":10209:10282   */\n      tag_302\n        /* \"#utility.yul\":10277:10280   */\n      0xa0\n        /* \"#utility.yul\":10266:10275   */\n      dup4\n        /* \"#utility.yul\":10262:10281   */\n      add\n        /* \"#utility.yul\":10253:10259   */\n      dup5\n        /* \"#utility.yul\":10209:10282   */\n      tag_158\n      jump\t// in\n    tag_302:\n        /* \"#utility.yul\":9298:10289   */\n      swap8\n      swap7\n      pop\n      pop\n      pop\n      pop\n      pop\n      pop\n      pop\n      jump\t// out\n        /* \"#utility.yul\":10295:10642   */\n    tag_38:\n        /* \"#utility.yul\":10363:10369   */\n      0x00\n        /* \"#utility.yul\":10412:10414   */\n      0x20\n        /* \"#utility.yul\":10400:10409   */\n      dup3\n        /* \"#utility.yul\":10391:10398   */\n      dup5\n        /* \"#utility.yul\":10387:10410   */\n      sub\n        /* \"#utility.yul\":10383:10415   */\n      slt\n        /* \"#utility.yul\":10380:10499   */\n      iszero\n      tag_304\n      jumpi\n        /* \"#utility.yul\":10418:10497   */\n      tag_305\n      tag_139\n      jump\t// in\n    tag_305:\n        /* \"#utility.yul\":10380:10499   */\n    tag_304:\n        /* \"#utility.yul\":10538:10539   */\n      0x00\n        /* \"#utility.yul\":10563:10625   */\n      tag_306\n        /* \"#utility.yul\":10617:10624   */\n      dup5\n        /* \"#utility.yul\":10608:10614   */\n      dup3\n        /* \"#utility.yul\":10597:10606   */\n      dup6\n        /* \"#utility.yul\":10593:10615   */\n      add\n        /* \"#utility.yul\":10563:10625   */\n      tag_157\n      jump\t// in\n    tag_306:\n        /* \"#utility.yul\":10553:10625   */\n      swap2\n      pop\n        /* \"#utility.yul\":10509:10635   */\n      pop\n        /* \"#utility.yul\":10295:10642   */\n      swap3\n      swap2\n      pop\n      pop\n      jump\t// out\n        /* \"#utility.yul\":10648:10870   */\n    tag_41:\n        /* \"#utility.yul\":10741:10745   */\n      0x00\n        /* \"#utility.yul\":10779:10781   */\n      0x20\n        /* \"#utility.yul\":10768:10777   */\n      dup3\n        /* \"#utility.yul\":10764:10782   */\n      add\n        /* \"#utility.yul\":10756:10782   */\n      swap1\n      pop\n        /* \"#utility.yul\":10792:10863   */\n      tag_308\n        /* \"#utility.yul\":10860:10861   */\n      0x00\n        /* \"#utility.yul\":10849:10858   */\n      dup4\n        /* \"#utility.yul\":10845:10862   */\n      add\n        /* \"#utility.yul\":10836:10842   */\n      dup5\n        /* \"#utility.yul\":10792:10863   */\n      tag_158\n      jump\t// in\n    tag_308:\n        /* \"#utility.yul\":10648:10870   */\n      swap3\n      swap2\n      pop\n      pop\n      jump\t// out\n        /* \"#utility.yul\":10876:11056   */\n    tag_171:\n        /* \"#utility.yul\":10924:11001   */\n      0x4e487b7100000000000000000000000000000000000000000000000000000000\n        /* \"#utility.yul\":10921:10922   */\n      0x00\n        /* \"#utility.yul\":10914:11002   */\n      mstore\n        /* \"#utility.yul\":11021:11025   */\n      0x22\n        /* \"#utility.yul\":11018:11019   */\n      0x04\n        /* \"#utility.yul\":11011:11026   */\n      mstore\n        /* \"#utility.yul\":11045:11049   */\n      0x24\n        /* \"#utility.yul\":11042:11043   */\n      0x00\n        /* \"#utility.yul\":11035:11050   */\n      revert\n        /* \"#utility.yul\":11062:11382   */\n    tag_97:\n        /* \"#utility.yul\":11106:11112   */\n      0x00\n        /* \"#utility.yul\":11143:11144   */\n      0x02\n        /* \"#utility.yul\":11137:11141   */\n      dup3\n        /* \"#utility.yul\":11133:11145   */\n      div\n        /* \"#utility.yul\":11123:11145   */\n      swap1\n      pop\n        /* \"#utility.yul\":11190:11191   */\n      0x01\n        /* \"#utility.yul\":11184:11188   */\n      dup3\n        /* \"#utility.yul\":11180:11192   */\n      and\n        /* \"#utility.yul\":11211:11229   */\n      dup1\n        /* \"#utility.yul\":11201:11282   */\n      tag_311\n      jumpi\n        /* \"#utility.yul\":11267:11271   */\n      0x7f\n        /* \"#utility.yul\":11259:11265   */\n      dup3\n        /* \"#utility.yul\":11255:11272   */\n      and\n        /* \"#utility.yul\":11245:11272   */\n      swap2\n      pop\n        /* \"#utility.yul\":11201:11282   */\n    tag_311:\n        /* \"#utility.yul\":11329:11331   */\n      0x20\n        /* \"#utility.yul\":11321:11327   */\n      dup3\n        /* \"#utility.yul\":11318:11332   */\n      lt\n        /* \"#utility.yul\":11298:11316   */\n      dup2\n        /* \"#utility.yul\":11295:11333   */\n      sub\n        /* \"#utility.yul\":11292:11376   */\n      tag_312\n      jumpi\n        /* \"#utility.yul\":11348:11366   */\n      tag_313\n      tag_171\n      jump\t// in\n    tag_313:\n        /* \"#utility.yul\":11292:11376   */\n    tag_312:\n        /* \"#utility.yul\":11113:11382   */\n      pop\n        /* \"#utility.yul\":11062:11382   */\n      swap2\n      swap1\n      pop\n      jump\t// out\n        /* \"#utility.yul\":11388:11529   */\n    tag_172:\n        /* \"#utility.yul\":11437:11441   */\n      0x00\n        /* \"#utility.yul\":11460:11463   */\n      dup2\n        /* \"#utility.yul\":11452:11463   */\n      swap1\n      pop\n        /* \"#utility.yul\":11483:11486   */\n      dup2\n        /* \"#utility.yul\":11480:11481   */\n      0x00\n        /* \"#utility.yul\":11473:11487   */\n      mstore\n        /* \"#utility.yul\":11517:11521   */\n      0x20\n        /* \"#utility.yul\":11514:11515   */\n      0x00\n        /* \"#utility.yul\":11504:11522   */\n      keccak256\n        /* \"#utility.yul\":11496:11522   */\n      swap1\n      pop\n        /* \"#utility.yul\":11388:11529   */\n      swap2\n      swap1\n      pop\n      jump\t// out\n        /* \"#utility.yul\":11535:11628   */\n    tag_173:\n        /* \"#utility.yul\":11572:11578   */\n      0x00\n        /* \"#utility.yul\":11619:11621   */\n      0x20\n        /* \"#utility.yul\":11614:11616   */\n      0x1f\n        /* \"#utility.yul\":11607:11612   */\n      dup4\n        /* \"#utility.yul\":11603:11617   */\n      add\n        /* \"#utility.yul\":11599:11622   */\n      div\n        /* \"#utility.yul\":11589:11622   */\n      swap1\n      pop\n        /* \"#utility.yul\":11535:11628   */\n      swap2\n      swap1\n      pop\n      jump\t// out\n        /* \"#utility.yul\":11634:11741   */\n    tag_174:\n        /* \"#utility.yul\":11678:11686   */\n      0x00\n        /* \"#utility.yul\":11728:11733   */\n      dup3\n        /* \"#utility.yul\":11722:11726   */\n      dup3\n        /* \"#utility.yul\":11718:11734   */\n      shl\n        /* \"#utility.yul\":11697:11734   */\n      swap1\n      pop\n        /* \"#utility.yul\":11634:11741   */\n      swap3\n      swap2\n      pop\n      pop\n      jump\t// out\n        /* \"#utility.yul\":11747:12140   */\n    tag_175:\n        /* \"#utility.yul\":11816:11822   */\n      0x00\n        /* \"#utility.yul\":11866:11867   */\n      0x08\n        /* \"#utility.yul\":11854:11864   */\n      dup4\n        /* \"#utility.yul\":11850:11868   */\n      mul\n        /* \"#utility.yul\":11889:11986   */\n      tag_318\n        /* \"#utility.yul\":11919:11985   */\n      0xffffffffffffffffffffffffffffffffffffffffffffffffffffffffffffffff\n        /* \"#utility.yul\":11908:11917   */\n      dup3\n        /* \"#utility.yul\":11889:11986   */\n      tag_174\n      jump\t// in\n    tag_318:\n        /* \"#utility.yul\":12007:12046   */\n      tag_319\n        /* \"#utility.yul\":12037:12045   */\n      dup7\n        /* \"#utility.yul\":12026:12035   */\n      dup4\n        /* \"#utility.yul\":12007:12046   */\n      tag_174\n      jump\t// in\n    tag_319:\n        /* \"#utility.yul\":11995:12046   */\n      swap6\n      pop\n        /* \"#utility.yul\":12079:12083   */\n      dup1\n        /* \"#utility.yul\":12075:12084   */\n      not\n        /* \"#utility.yul\":12068:12073   */\n      dup5\n        /* \"#utility.yul\":12064:12085   */\n      and\n        /* \"#utility.yul\":12055:12085   */\n      swap4\n      pop\n        /* \"#utility.yul\":12128:12132   */\n      dup1\n        /* \"#utility.yul\":12118:12126   */\n      dup7\n        /* \"#utility.yul\":12114:12133   */\n      and\n        /* \"#utility.yul\":12107:12112   */\n      dup5\n        /* \"#utility.yul\":12104:12134   */\n      or\n        /* \"#utility.yul\":12094:12134   */\n      swap3\n      pop\n        /* \"#utility.yul\":11823:12140   */\n      pop\n      pop\n        /* \"#utility.yul\":11747:12140   */\n      swap4\n      swap3\n      pop\n      pop\n      pop\n      jump\t// out\n        /* \"#utility.yul\":12146:12206   */\n    tag_176:\n        /* \"#utility.yul\":12174:12177   */\n      0x00\n        /* \"#utility.yul\":12195:12200   */\n      dup2\n        /* \"#utility.yul\":12188:12200   */\n      swap1\n      pop\n        /* \"#utility.yul\":12146:12206   */\n      swap2\n      swap1\n      pop\n      jump\t// out\n        /* \"#utility.yul\":12212:12354   */\n    tag_177:\n        /* \"#utility.yul\":12262:12271   */\n      0x00\n        /* \"#utility.yul\":12295:12348   */\n      tag_322\n        /* \"#utility.yul\":12313:12347   */\n      tag_323\n        /* \"#utility.yul\":12322:12346   */\n      tag_324\n        /* \"#utility.yul\":12340:12345   */\n      dup5\n        /* \"#utility.yul\":12322:12346   */\n      tag_141\n      jump\t// in\n    tag_324:\n        /* \"#utility.yul\":12313:12347   */\n      tag_176\n      jump\t// in\n    tag_323:\n        /* \"#utility.yul\":12295:12348   */\n      tag_141\n      jump\t// in\n    tag_322:\n        /* \"#utility.yul\":12282:12348   */\n      swap1\n      pop\n        /* \"#utility.yul\":12212:12354   */\n      swap2\n      swap1\n      pop\n      jump\t// out\n        /* \"#utility.yul\":12360:12435   */\n    tag_178:\n        /* \"#utility.yul\":12403:12406   */\n      0x00\n        /* \"#utility.yul\":12424:12429   */\n      dup2\n        /* \"#utility.yul\":12417:12429   */\n      swap1\n      pop\n        /* \"#utility.yul\":12360:12435   */\n      swap2\n      swap1\n      pop\n      jump\t// out\n        /* \"#utility.yul\":12441:12710   */\n    tag_179:\n        /* \"#utility.yul\":12551:12590   */\n      tag_327\n        /* \"#utility.yul\":12582:12589   */\n      dup4\n        /* \"#utility.yul\":12551:12590   */\n      tag_177\n      jump\t// in\n    tag_327:\n        /* \"#utility.yul\":12612:12703   */\n      tag_328\n        /* \"#utility.yul\":12661:12702   */\n      tag_329\n        /* \"#utility.yul\":12685:12701   */\n      dup3\n        /* \"#utility.yul\":12661:12702   */\n      tag_178\n      jump\t// in\n    tag_329:\n        /* \"#utility.yul\":12653:12659   */\n      dup5\n        /* \"#utility.yul\":12646:12650   */\n      dup5\n        /* \"#utility.yul\":12640:12651   */\n      sload\n        /* \"#utility.yul\":12612:12703   */\n      tag_175\n      jump\t// in\n    tag_328:\n        /* \"#utility.yul\":12606:12610   */\n      dup3\n        /* \"#utility.yul\":12599:12704   */\n      sstore\n        /* \"#utility.yul\":12517:12710   */\n      pop\n        /* \"#utility.yul\":12441:12710   */\n      pop\n      pop\n      pop\n      jump\t// out\n        /* \"#utility.yul\":12716:12789   */\n    tag_180:\n        /* \"#utility.yul\":12761:12764   */\n      0x00\n        /* \"#utility.yul\":12716:12789   */\n      swap1\n      jump\t// out\n        /* \"#utility.yul\":12795:12984   */\n    tag_181:\n        /* \"#utility.yul\":12872:12904   */\n      tag_332\n      tag_180\n      jump\t// in\n    tag_332:\n        /* \"#utility.yul\":12913:12978   */\n      tag_333\n        /* \"#utility.yul\":12971:12977   */\n      dup2\n        /* \"#utility.yul\":12963:12969   */\n      dup5\n        /* \"#utility.yul\":12957:12961   */\n      dup5\n        /* \"#utility.yul\":12913:12978   */\n      tag_179\n      jump\t// in\n    tag_333:\n        /* \"#utility.yul\":12848:12984   */\n      pop\n        /* \"#utility.yul\":12795:12984   */\n      pop\n      pop\n      jump\t// out\n        /* \"#utility.yul\":12990:13176   */\n    tag_182:\n        /* \"#utility.yul\":13050:13170   */\n    tag_335:\n        /* \"#utility.yul\":13067:13070   */\n      dup2\n        /* \"#utility.yul\":13060:13065   */\n      dup2\n        /* \"#utility.yul\":13057:13071   */\n      lt\n        /* \"#utility.yul\":13050:13170   */\n      iszero\n      tag_337\n      jumpi\n        /* \"#utility.yul\":13121:13160   */\n      tag_338\n        /* \"#utility.yul\":13158:13159   */\n      0x00\n        /* \"#utility.yul\":13151:13156   */\n      dup3\n        /* \"#utility.yul\":13121:13160   */\n      tag_181\n      jump\t// in\n    tag_338:\n        /* \"#utility.yul\":13094:13095   */\n      0x01\n        /* \"#utility.yul\":13087:13092   */\n      dup2\n        /* \"#utility.yul\":13083:13096   */\n      add\n        /* \"#utility.yul\":13074:13096   */\n      swap1\n      pop\n        /* \"#utility.yul\":13050:13170   */\n      jump(tag_335)\n    tag_337:\n        /* \"#utility.yul\":12990:13176   */\n      pop\n      pop\n      jump\t// out\n        /* \"#utility.yul\":13182:13725   */\n    tag_183:\n        /* \"#utility.yul\":13283:13285   */\n      0x1f\n        /* \"#utility.yul\":13278:13281   */\n      dup3\n        /* \"#utility.yul\":13275:13286   */\n      gt\n        /* \"#utility.yul\":13272:13718   */\n      iszero\n      tag_340\n      jumpi\n        /* \"#utility.yul\":13317:13355   */\n      tag_341\n        /* \"#utility.yul\":13349:13354   */\n      dup2\n        /* \"#utility.yul\":13317:13355   */\n      tag_172\n      jump\t// in\n    tag_341:\n        /* \"#utility.yul\":13401:13430   */\n      tag_342\n        /* \"#utility.yul\":13419:13429   */\n      dup5\n        /* \"#utility.yul\":13401:13430   */\n      tag_173\n      jump\t// in\n    tag_342:\n        /* \"#utility.yul\":13391:13399   */\n      dup2\n        /* \"#utility.yul\":13387:13431   */\n      add\n        /* \"#utility.yul\":13584:13586   */\n      0x20\n        /* \"#utility.yul\":13572:13582   */\n      dup6\n        /* \"#utility.yul\":13569:13587   */\n      lt\n        /* \"#utility.yul\":13566:13615   */\n      iszero\n      tag_343\n      jumpi\n        /* \"#utility.yul\":13605:13613   */\n      dup2\n        /* \"#utility.yul\":13590:13613   */\n      swap1\n      pop\n        /* \"#utility.yul\":13566:13615   */\n    tag_343:\n        /* \"#utility.yul\":13628:13708   */\n      tag_344\n        /* \"#utility.yul\":13684:13706   */\n      tag_345\n        /* \"#utility.yul\":13702:13705   */\n      dup6\n        /* \"#utility.yul\":13684:13706   */\n      tag_173\n      jump\t// in\n    tag_345:\n        /* \"#utility.yul\":13674:13682   */\n      dup4\n        /* \"#utility.yul\":13670:13707   */\n      add\n        /* \"#utility.yul\":13657:13668   */\n      dup3\n        /* \"#utility.yul\":13628:13708   */\n      tag_182\n      jump\t// in\n    tag_344:\n        /* \"#utility.yul\":13287:13718   */\n      pop\n      pop\n        /* \"#utility.yul\":13272:13718   */\n    tag_340:\n        /* \"#utility.yul\":13182:13725   */\n      pop\n      pop\n      pop\n      jump\t// out\n        /* \"#utility.yul\":13731:13848   */\n    tag_184:\n        /* \"#utility.yul\":13785:13793   */\n      0x00\n        /* \"#utility.yul\":13835:13840   */\n      dup3\n        /* \"#utility.yul\":13829:13833   */\n      dup3\n        /* \"#utility.yul\":13825:13841   */\n      shr\n        /* \"#utility.yul\":13804:13841   */\n      swap1\n      pop\n        /* \"#utility.yul\":13731:13848   */\n      swap3\n      swap2\n      pop\n      pop\n      jump\t// out\n        /* \"#utility.yul\":13854:14023   */\n    tag_185:\n        /* \"#utility.yul\":13898:13904   */\n      0x00\n        /* \"#utility.yul\":13931:13982   */\n      tag_348\n        /* \"#utility.yul\":13979:13980   */\n      0x00\n        /* \"#utility.yul\":13975:13981   */\n      not\n        /* \"#utility.yul\":13967:13972   */\n      dup5\n        /* \"#utility.yul\":13964:13965   */\n      0x08\n        /* \"#utility.yul\":13960:13973   */\n      mul\n        /* \"#utility.yul\":13931:13982   */\n      tag_184\n      jump\t// in\n    tag_348:\n        /* \"#utility.yul\":13927:13983   */\n      not\n        /* \"#utility.yul\":14012:14016   */\n      dup1\n        /* \"#utility.yul\":14006:14010   */\n      dup4\n        /* \"#utility.yul\":14002:14017   */\n      and\n        /* \"#utility.yul\":13992:14017   */\n      swap2\n      pop\n        /* \"#utility.yul\":13905:14023   */\n      pop\n        /* \"#utility.yul\":13854:14023   */\n      swap3\n      swap2\n      pop\n      pop\n      jump\t// out\n        /* \"#utility.yul\":14028:14323   */\n    tag_186:\n        /* \"#utility.yul\":14104:14108   */\n      0x00\n        /* \"#utility.yul\":14250:14279   */\n      tag_350\n        /* \"#utility.yul\":14275:14278   */\n      dup4\n        /* \"#utility.yul\":14269:14273   */\n      dup4\n        /* \"#utility.yul\":14250:14279   */\n      tag_185\n      jump\t// in\n    tag_350:\n        /* \"#utility.yul\":14242:14279   */\n      swap2\n      pop\n        /* \"#utility.yul\":14312:14315   */\n      dup3\n        /* \"#utility.yul\":14309:14310   */\n      0x02\n        /* \"#utility.yul\":14305:14316   */\n      mul\n        /* \"#utility.yul\":14299:14303   */\n      dup3\n        /* \"#utility.yul\":14296:14317   */\n      or\n        /* \"#utility.yul\":14288:14317   */\n      swap1\n      pop\n        /* \"#utility.yul\":14028:14323   */\n      swap3\n      swap2\n      pop\n      pop\n      jump\t// out\n        /* \"#utility.yul\":14328:15723   */\n    tag_48:\n        /* \"#utility.yul\":14445:14482   */\n      tag_352\n        /* \"#utility.yul\":14478:14481   */\n      dup3\n        /* \"#utility.yul\":14445:14482   */\n      tag_159\n      jump\t// in\n    tag_352:\n        /* \"#utility.yul\":14547:14565   */\n      0xffffffffffffffff\n        /* \"#utility.yul\":14539:14545   */\n      dup2\n        /* \"#utility.yul\":14536:14566   */\n      gt\n        /* \"#utility.yul\":14533:14589   */\n      iszero\n      tag_353\n      jumpi\n        /* \"#utility.yul\":14569:14587   */\n      tag_354\n      tag_147\n      jump\t// in\n    tag_354:\n        /* \"#utility.yul\":14533:14589   */\n    tag_353:\n        /* \"#utility.yul\":14613:14651   */\n      tag_355\n        /* \"#utility.yul\":14645:14649   */\n      dup3\n        /* \"#utility.yul\":14639:14650   */\n      sload\n        /* \"#utility.yul\":14613:14651   */\n      tag_97\n      jump\t// in\n    tag_355:\n        /* \"#utility.yul\":14698:14765   */\n      tag_356\n        /* \"#utility.yul\":14758:14764   */\n      dup3\n        /* \"#utility.yul\":14750:14756   */\n      dup3\n        /* \"#utility.yul\":14744:14748   */\n      dup6\n        /* \"#utility.yul\":14698:14765   */\n      tag_183\n      jump\t// in\n    tag_356:\n        /* \"#utility.yul\":14792:14793   */\n      0x00\n        /* \"#utility.yul\":14816:14820   */\n      0x20\n        /* \"#utility.yul\":14803:14820   */\n      swap1\n      pop\n        /* \"#utility.yul\":14848:14850   */\n      0x1f\n        /* \"#utility.yul\":14840:14846   */\n      dup4\n        /* \"#utility.yul\":14837:14851   */\n      gt\n        /* \"#utility.yul\":14865:14866   */\n      0x01\n        /* \"#utility.yul\":14860:15478   */\n      dup2\n      eq\n      tag_358\n      jumpi\n        /* \"#utility.yul\":15522:15523   */\n      0x00\n        /* \"#utility.yul\":15539:15545   */\n      dup5\n        /* \"#utility.yul\":15536:15613   */\n      iszero\n      tag_359\n      jumpi\n        /* \"#utility.yul\":15588:15597   */\n      dup3\n        /* \"#utility.yul\":15583:15586   */\n      dup8\n        /* \"#utility.yul\":15579:15598   */\n      add\n        /* \"#utility.yul\":15573:15599   */\n      mload\n        /* \"#utility.yul\":15564:15599   */\n      swap1\n      pop\n        /* \"#utility.yul\":15536:15613   */\n    tag_359:\n        /* \"#utility.yul\":15639:15706   */\n      tag_360\n        /* \"#utility.yul\":15699:15705   */\n      dup6\n        /* \"#utility.yul\":15692:15697   */\n      dup3\n        /* \"#utility.yul\":15639:15706   */\n      tag_186\n      jump\t// in\n    tag_360:\n        /* \"#utility.yul\":15633:15637   */\n      dup7\n        /* \"#utility.yul\":15626:15707   */\n      sstore\n        /* \"#utility.yul\":15495:15717   */\n      pop\n        /* \"#utility.yul\":14830:15717   */\n      jump(tag_357)\n        /* \"#utility.yul\":14860:15478   */\n    tag_358:\n        /* \"#utility.yul\":14912:14916   */\n      0x1f\n        /* \"#utility.yul\":14908:14917   */\n      not\n        /* \"#utility.yul\":14900:14906   */\n      dup5\n        /* \"#utility.yul\":14896:14918   */\n      and\n        /* \"#utility.yul\":14946:14983   */\n      tag_361\n        /* \"#utility.yul\":14978:14982   */\n      dup7\n        /* \"#utility.yul\":14946:14983   */\n      tag_172\n      jump\t// in\n    tag_361:\n        /* \"#utility.yul\":15005:15006   */\n      0x00\n        /* \"#utility.yul\":15019:15227   */\n    tag_362:\n        /* \"#utility.yul\":15033:15040   */\n      dup3\n        /* \"#utility.yul\":15030:15031   */\n      dup2\n        /* \"#utility.yul\":15027:15041   */\n      lt\n        /* \"#utility.yul\":15019:15227   */\n      iszero\n      tag_364\n      jumpi\n        /* \"#utility.yul\":15112:15121   */\n      dup5\n        /* \"#utility.yul\":15107:15110   */\n      dup10\n        /* \"#utility.yul\":15103:15122   */\n      add\n        /* \"#utility.yul\":15097:15123   */\n      mload\n        /* \"#utility.yul\":15089:15095   */\n      dup3\n        /* \"#utility.yul\":15082:15124   */\n      sstore\n        /* \"#utility.yul\":15163:15164   */\n      0x01\n        /* \"#utility.yul\":15155:15161   */\n      dup3\n        /* \"#utility.yul\":15151:15165   */\n      add\n        /* \"#utility.yul\":15141:15165   */\n      swap2\n      pop\n        /* \"#utility.yul\":15210:15212   */\n      0x20\n        /* \"#utility.yul\":15199:15208   */\n      dup6\n        /* \"#utility.yul\":15195:15213   */\n      add\n        /* \"#utility.yul\":15182:15213   */\n      swap5\n      pop\n        /* \"#utility.yul\":15056:15060   */\n      0x20\n        /* \"#utility.yul\":15053:15054   */\n      dup2\n        /* \"#utility.yul\":15049:15061   */\n      add\n        /* \"#utility.yul\":15044:15061   */\n      swap1\n      pop\n        /* \"#utility.yul\":15019:15227   */\n      jump(tag_362)\n    tag_364:\n        /* \"#utility.yul\":15255:15261   */\n      dup7\n        /* \"#utility.yul\":15246:15253   */\n      dup4\n        /* \"#utility.yul\":15243:15262   */\n      lt\n        /* \"#utility.yul\":15240:15419   */\n      iszero\n      tag_365\n      jumpi\n        /* \"#utility.yul\":15313:15322   */\n      dup5\n        /* \"#utility.yul\":15308:15311   */\n      dup10\n        /* \"#utility.yul\":15304:15323   */\n      add\n        /* \"#utility.yul\":15298:15324   */\n      mload\n        /* \"#utility.yul\":15356:15404   */\n      tag_366\n        /* \"#utility.yul\":15398:15402   */\n      0x1f\n        /* \"#utility.yul\":15390:15396   */\n      dup10\n        /* \"#utility.yul\":15386:15403   */\n      and\n        /* \"#utility.yul\":15375:15384   */\n      dup3\n        /* \"#utility.yul\":15356:15404   */\n      tag_185\n      jump\t// in\n    tag_366:\n        /* \"#utility.yul\":15348:15354   */\n      dup4\n        /* \"#utility.yul\":15341:15405   */\n      sstore\n        /* \"#utility.yul\":15263:15419   */\n      pop\n        /* \"#utility.yul\":15240:15419   */\n    tag_365:\n        /* \"#utility.yul\":15465:15466   */\n      0x01\n        /* \"#utility.yul\":15461:15462   */\n      0x02\n        /* \"#utility.yul\":15453:15459   */\n      dup9\n        /* \"#utility.yul\":15449:15463   */\n      mul\n        /* \"#utility.yul\":15445:15467   */\n      add\n        /* \"#utility.yul\":15439:15443   */\n      dup9\n        /* \"#utility.yul\":15432:15468   */\n      sstore\n        /* \"#utility.yul\":14867:15478   */\n      pop\n      pop\n      pop\n        /* \"#utility.yul\":14830:15717   */\n    tag_357:\n      pop\n        /* \"#utility.yul\":14420:15723   */\n      pop\n      pop\n      pop\n        /* \"#utility.yul\":14328:15723   */\n      pop\n      pop\n      jump\t// out\n        /* \"#utility.yul\":15729:15909   */\n    tag_187:\n        /* \"#utility.yul\":15777:15854   */\n      0x4e487b7100000000000000000000000000000000000000000000000000000000\n        /* \"#utility.yul\":15774:15775   */\n      0x00\n        /* \"#utility.yul\":15767:15855   */\n      mstore\n        /* \"#utility.yul\":15874:15878   */\n      0x11\n        /* \"#utility.yul\":15871:15872   */\n      0x04\n        /* \"#utility.yul\":15864:15879   */\n      mstore\n        /* \"#utility.yul\":15898:15902   */\n      0x24\n        /* \"#utility.yul\":15895:15896   */\n      0x00\n        /* \"#utility.yul\":15888:15903   */\n      revert\n        /* \"#utility.yul\":15915:16148   */\n    tag_65:\n        /* \"#utility.yul\":15954:15957   */\n      0x00\n        /* \"#utility.yul\":15977:16001   */\n      tag_369\n        /* \"#utility.yul\":15995:16000   */\n      dup3\n        /* \"#utility.yul\":15977:16001   */\n      tag_141\n      jump\t// in\n    tag_369:\n        /* \"#utility.yul\":15968:16001   */\n      swap2\n      pop\n        /* \"#utility.yul\":16023:16089   */\n      0xffffffffffffffffffffffffffffffffffffffffffffffffffffffffffffffff\n        /* \"#utility.yul\":16016:16021   */\n      dup3\n        /* \"#utility.yul\":16013:16090   */\n      sub\n        /* \"#utility.yul\":16010:16113   */\n      tag_370\n      jumpi\n        /* \"#utility.yul\":16093:16111   */\n      tag_371\n      tag_187\n      jump\t// in\n    tag_371:\n        /* \"#utility.yul\":16010:16113   */\n    tag_370:\n        /* \"#utility.yul\":16140:16141   */\n      0x01\n        /* \"#utility.yul\":16133:16138   */\n      dup3\n        /* \"#utility.yul\":16129:16142   */\n      add\n        /* \"#utility.yul\":16122:16142   */\n      swap1\n      pop\n        /* \"#utility.yul\":15915:16148   */\n      swap2\n      swap1\n      pop\n      jump\t// out\n\n    auxdata: 0xa2646970667358221220bd3ccee7aada901672ddda3cf8e88cca5b1c3082efcac97ac010e19daa11bf7d64736f6c63430008120033\n}\n",
				"bytecode": {
					"linkReferences": {},
					"object": "608060405234801561001057600080fd5b50611343806100206000396000f3fe608060405234801561001057600080fd5b50600436106100885760003560e01c80638f88708b1161005b5780638f88708b146100f0578063ceea3c7814610125578063d6d9a0241461015a578063ecf944f81461018a57610088565b80630cf5867c1461008d5780633e71372614610097578063492de27e146100b35780636c581256146100d4575b600080fd5b6100956101ad565b005b6100b160048036038101906100ac9190610be5565b6101af565b005b6100bb610278565b6040516100cb9493929190610c77565b60405180910390f35b6100ee60048036038101906100e99190610cbc565b6103f0565b005b61010a60048036038101906101059190610d96565b61050b565b60405161011c96959493929190610f01565b60405180910390f35b61013f600480360381019061013a9190610d96565b6106e5565b60405161015196959493929190610f01565b60405180910390f35b610174600480360381019061016f9190610f70565b61084b565b6040516101819190610f9d565b60405180910390f35b6101926108b7565b6040516101a496959493929190610f01565b60405180910390f35b565b826005600086815260200190815260200160002060000190816101d291906111c4565b50816005600086815260200190815260200160002060030160006101000a81548160ff0219169083600381111561020c5761020b610e42565b5b0217905550806005600086815260200190815260200160002060030160016101000a81548160ff0219169083600381111561024a57610249610e42565b5b02179055506102588161084b565b600560008681526020019081526020016000206004018190555050505050565b60008060008060008060008060005b600a8110156103d957600060038111156102a4576102a3610e42565b5b6005600083815260200190815260200160002060030160009054906101000a900460ff1660038111156102da576102d9610e42565b5b036102f25784806102ea906112c5565b9550506103c6565b60038081111561030557610304610e42565b5b6005600083815260200190815260200160002060030160009054906101000a900460ff16600381111561033b5761033a610e42565b5b0361035357838061034b906112c5565b9450506103c5565b6001600381111561036757610366610e42565b5b6005600083815260200190815260200160002060030160009054906101000a900460ff16600381111561039d5761039c610e42565b5b036103b55782806103ad906112c5565b9350506103c4565b81806103c0906112c5565b9250505b5b5b80806103d1906112c5565b915050610287565b508383838397509750975097505050505090919293565b6103f98261084b565b90506040518060c0016040528087815260200186815260200185815260200184600381111561042b5761042a610e42565b5b815260200183600381111561044357610442610e42565b5b81526020018281525060056000898152602001908152602001600020600082015181600001908161047491906111c4565b5060208201518160010155604082015181600201908161049491906111c4565b5060608201518160030160006101000a81548160ff021916908360038111156104c0576104bf610e42565b5b021790555060808201518160030160016101000a81548160ff021916908360038111156104f0576104ef610e42565b5b021790555060a0820151816004015590505050505050505050565b6060600060606000806000600560008881526020019081526020016000206000016005600089815260200190815260200160002060010154600560008a8152602001908152602001600020600201600560008b815260200190815260200160002060030160009054906101000a900460ff16600560008c815260200190815260200160002060030160019054906101000a900460ff16600560008d8152602001908152602001600020600401548580546105c490610fe7565b80601f01602080910402602001604051908101604052809291908181526020018280546105f090610fe7565b801561063d5780601f106106125761010080835404028352916020019161063d565b820191906000526020600020905b81548152906001019060200180831161062057829003601f168201915b5050505050955083805461065090610fe7565b80601f016020809104026020016040519081016040528092919081815260200182805461067c90610fe7565b80156106c95780601f1061069e576101008083540402835291602001916106c9565b820191906000526020600020905b8154815290600101906020018083116106ac57829003601f168201915b5050505050935095509550955095509550955091939550919395565b600560205280600052604060002060009150905080600001805461070890610fe7565b80601f016020809104026020016040519081016040528092919081815260200182805461073490610fe7565b80156107815780601f1061075657610100808354040283529160200191610781565b820191906000526020600020905b81548152906001019060200180831161076457829003601f168201915b50505050509080600101549080600201805461079c90610fe7565b80601f01602080910402602001604051908101604052809291908181526020018280546107c890610fe7565b80156108155780601f106107ea57610100808354040283529160200191610815565b820191906000526020600020905b8154815290600101906020018083116107f857829003601f168201915b5050505050908060030160009054906101000a900460ff16908060030160019054906101000a900460ff16908060040154905086565b60006001600381111561086157610860610e42565b5b82600381111561087457610873610e42565b5b14806108a3575060038081111561088e5761088d610e42565b5b8260038111156108a1576108a0610e42565b5b145b156108b157600090506108b2565b5b919050565b60008060000180546108c890610fe7565b80601f01602080910402602001604051908101604052809291908181526020018280546108f490610fe7565b80156109415780601f1061091657610100808354040283529160200191610941565b820191906000526020600020905b81548152906001019060200180831161092457829003601f168201915b50505050509080600101549080600201805461095c90610fe7565b80601f016020809104026020016040519081016040528092919081815260200182805461098890610fe7565b80156109d55780601f106109aa576101008083540402835291602001916109d5565b820191906000526020600020905b8154815290600101906020018083116109b857829003601f168201915b5050505050908060030160009054906101000a900460ff16908060030160019054906101000a900460ff16908060040154905086565b6000604051905090565b600080fd5b600080fd5b6000819050919050565b610a3281610a1f565b8114610a3d57600080fd5b50565b600081359050610a4f81610a29565b92915050565b600080fd5b600080fd5b6000601f19601f8301169050919050565b7f4e487b7100000000000000000000000000000000000000000000000000000000600052604160045260246000fd5b610aa882610a5f565b810181811067ffffffffffffffff82111715610ac757610ac6610a70565b5b80604052505050565b6000610ada610a0b565b9050610ae68282610a9f565b919050565b600067ffffffffffffffff821115610b0657610b05610a70565b5b610b0f82610a5f565b9050602081019050919050565b82818337600083830152505050565b6000610b3e610b3984610aeb565b610ad0565b905082815260208101848484011115610b5a57610b59610a5a565b5b610b65848285610b1c565b509392505050565b600082601f830112610b8257610b81610a55565b5b8135610b92848260208601610b2b565b91505092915050565b60048110610ba857600080fd5b50565b600081359050610bba81610b9b565b92915050565b60048110610bcd57600080fd5b50565b600081359050610bdf81610bc0565b92915050565b60008060008060808587031215610bff57610bfe610a15565b5b6000610c0d87828801610a40565b945050602085013567ffffffffffffffff811115610c2e57610c2d610a1a565b5b610c3a87828801610b6d565b9350506040610c4b87828801610bab565b9250506060610c5c87828801610bd0565b91505092959194509250565b610c7181610a1f565b82525050565b6000608082019050610c8c6000830187610c68565b610c996020830186610c68565b610ca66040830185610c68565b610cb36060830184610c68565b95945050505050565b600080600080600080600060e0888a031215610cdb57610cda610a15565b5b6000610ce98a828b01610a40565b975050602088013567ffffffffffffffff811115610d0a57610d09610a1a565b5b610d168a828b01610b6d565b9650506040610d278a828b01610a40565b955050606088013567ffffffffffffffff811115610d4857610d47610a1a565b5b610d548a828b01610b6d565b9450506080610d658a828b01610bab565b93505060a0610d768a828b01610bd0565b92505060c0610d878a828b01610a40565b91505092959891949750929550565b600060208284031215610dac57610dab610a15565b5b6000610dba84828501610a40565b91505092915050565b600081519050919050565b600082825260208201905092915050565b60005b83811015610dfd578082015181840152602081019050610de2565b60008484015250505050565b6000610e1482610dc3565b610e1e8185610dce565b9350610e2e818560208601610ddf565b610e3781610a5f565b840191505092915050565b7f4e487b7100000000000000000000000000000000000000000000000000000000600052602160045260246000fd5b60048110610e8257610e81610e42565b5b50565b6000819050610e9382610e71565b919050565b6000610ea382610e85565b9050919050565b610eb381610e98565b82525050565b60048110610eca57610ec9610e42565b5b50565b6000819050610edb82610eb9565b919050565b6000610eeb82610ecd565b9050919050565b610efb81610ee0565b82525050565b600060c0820190508181036000830152610f1b8189610e09565b9050610f2a6020830188610c68565b8181036040830152610f3c8187610e09565b9050610f4b6060830186610eaa565b610f586080830185610ef2565b610f6560a0830184610c68565b979650505050505050565b600060208284031215610f8657610f85610a15565b5b6000610f9484828501610bd0565b91505092915050565b6000602082019050610fb26000830184610c68565b92915050565b7f4e487b7100000000000000000000000000000000000000000000000000000000600052602260045260246000fd5b60006002820490506001821680610fff57607f821691505b60208210810361101257611011610fb8565b5b50919050565b60008190508160005260206000209050919050565b60006020601f8301049050919050565b600082821b905092915050565b60006008830261107a7fffffffffffffffffffffffffffffffffffffffffffffffffffffffffffffffff8261103d565b611084868361103d565b95508019841693508086168417925050509392505050565b6000819050919050565b60006110c16110bc6110b784610a1f565b61109c565b610a1f565b9050919050565b6000819050919050565b6110db836110a6565b6110ef6110e7826110c8565b84845461104a565b825550505050565b600090565b6111046110f7565b61110f8184846110d2565b505050565b5b81811015611133576111286000826110fc565b600181019050611115565b5050565b601f8211156111785761114981611018565b6111528461102d565b81016020851015611161578190505b61117561116d8561102d565b830182611114565b50505b505050565b600082821c905092915050565b600061119b6000198460080261117d565b1980831691505092915050565b60006111b4838361118a565b9150826002028217905092915050565b6111cd82610dc3565b67ffffffffffffffff8111156111e6576111e5610a70565b5b6111f08254610fe7565b6111fb828285611137565b600060209050601f83116001811461122e576000841561121c578287015190505b61122685826111a8565b86555061128e565b601f19841661123c86611018565b60005b828110156112645784890151825560018201915060208501945060208101905061123f565b86831015611281578489015161127d601f89168261118a565b8355505b6001600288020188555050505b505050505050565b7f4e487b7100000000000000000000000000000000000000000000000000000000600052601160045260246000fd5b60006112d082610a1f565b91507fffffffffffffffffffffffffffffffffffffffffffffffffffffffffffffffff820361130257611301611296565b5b60018201905091905056fea2646970667358221220bd3ccee7aada901672ddda3cf8e88cca5b1c3082efcac97ac010e19daa11bf7d64736f6c63430008120033",
					"opcodes": "PUSH1 0x80 PUSH1 0x40 MSTORE CALLVALUE DUP1 ISZERO PUSH2 0x10 JUMPI PUSH1 0x0 DUP1 REVERT JUMPDEST POP PUSH2 0x1343 DUP1 PUSH2 0x20 PUSH1 0x0 CODECOPY PUSH1 0x0 RETURN INVALID PUSH1 0x80 PUSH1 0x40 MSTORE CALLVALUE DUP1 ISZERO PUSH2 0x10 JUMPI PUSH1 0x0 DUP1 REVERT JUMPDEST POP PUSH1 0x4 CALLDATASIZE LT PUSH2 0x88 JUMPI PUSH1 0x0 CALLDATALOAD PUSH1 0xE0 SHR DUP1 PUSH4 0x8F88708B GT PUSH2 0x5B JUMPI DUP1 PUSH4 0x8F88708B EQ PUSH2 0xF0 JUMPI DUP1 PUSH4 0xCEEA3C78 EQ PUSH2 0x125 JUMPI DUP1 PUSH4 0xD6D9A024 EQ PUSH2 0x15A JUMPI DUP1 PUSH4 0xECF944F8 EQ PUSH2 0x18A JUMPI PUSH2 0x88 JUMP JUMPDEST DUP1 PUSH4 0xCF5867C EQ PUSH2 0x8D JUMPI DUP1 PUSH4 0x3E713726 EQ PUSH2 0x97 JUMPI DUP1 PUSH4 0x492DE27E EQ PUSH2 0xB3 JUMPI DUP1 PUSH4 0x6C581256 EQ PUSH2 0xD4 JUMPI JUMPDEST PUSH1 0x0 DUP1 REVERT JUMPDEST PUSH2 0x95 PUSH2 0x1AD JUMP JUMPDEST STOP JUMPDEST PUSH2 0xB1 PUSH1 0x4 DUP1 CALLDATASIZE SUB DUP2 ADD SWAP1 PUSH2 0xAC SWAP2 SWAP1 PUSH2 0xBE5 JUMP JUMPDEST PUSH2 0x1AF JUMP JUMPDEST STOP JUMPDEST PUSH2 0xBB PUSH2 0x278 JUMP JUMPDEST PUSH1 0x40 MLOAD PUSH2 0xCB SWAP5 SWAP4 SWAP3 SWAP2 SWAP1 PUSH2 0xC77 JUMP JUMPDEST PUSH1 0x40 MLOAD DUP1 SWAP2 SUB SWAP1 RETURN JUMPDEST PUSH2 0xEE PUSH1 0x4 DUP1 CALLDATASIZE SUB DUP2 ADD SWAP1 PUSH2 0xE9 SWAP2 SWAP1 PUSH2 0xCBC JUMP JUMPDEST PUSH2 0x3F0 JUMP JUMPDEST STOP JUMPDEST PUSH2 0x10A PUSH1 0x4 DUP1 CALLDATASIZE SUB DUP2 ADD SWAP1 PUSH2 0x105 SWAP2 SWAP1 PUSH2 0xD96 JUMP JUMPDEST PUSH2 0x50B JUMP JUMPDEST PUSH1 0x40 MLOAD PUSH2 0x11C SWAP7 SWAP6 SWAP5 SWAP4 SWAP3 SWAP2 SWAP1 PUSH2 0xF01 JUMP JUMPDEST PUSH1 0x40 MLOAD DUP1 SWAP2 SUB SWAP1 RETURN JUMPDEST PUSH2 0x13F PUSH1 0x4 DUP1 CALLDATASIZE SUB DUP2 ADD SWAP1 PUSH2 0x13A SWAP2 SWAP1 PUSH2 0xD96 JUMP JUMPDEST PUSH2 0x6E5 JUMP JUMPDEST PUSH1 0x40 MLOAD PUSH2 0x151 SWAP7 SWAP6 SWAP5 SWAP4 SWAP3 SWAP2 SWAP1 PUSH2 0xF01 JUMP JUMPDEST PUSH1 0x40 MLOAD DUP1 SWAP2 SUB SWAP1 RETURN JUMPDEST PUSH2 0x174 PUSH1 0x4 DUP1 CALLDATASIZE SUB DUP2 ADD SWAP1 PUSH2 0x16F SWAP2 SWAP1 PUSH2 0xF70 JUMP JUMPDEST PUSH2 0x84B JUMP JUMPDEST PUSH1 0x40 MLOAD PUSH2 0x181 SWAP2 SWAP1 PUSH2 0xF9D JUMP JUMPDEST PUSH1 0x40 MLOAD DUP1 SWAP2 SUB SWAP1 RETURN JUMPDEST PUSH2 0x192 PUSH2 0x8B7 JUMP JUMPDEST PUSH1 0x40 MLOAD PUSH2 0x1A4 SWAP7 SWAP6 SWAP5 SWAP4 SWAP3 SWAP2 SWAP1 PUSH2 0xF01 JUMP JUMPDEST PUSH1 0x40 MLOAD DUP1 SWAP2 SUB SWAP1 RETURN JUMPDEST JUMP JUMPDEST DUP3 PUSH1 0x5 PUSH1 0x0 DUP7 DUP2 MSTORE PUSH1 0x20 ADD SWAP1 DUP2 MSTORE PUSH1 0x20 ADD PUSH1 0x0 KECCAK256 PUSH1 0x0 ADD SWAP1 DUP2 PUSH2 0x1D2 SWAP2 SWAP1 PUSH2 0x11C4 JUMP JUMPDEST POP DUP2 PUSH1 0x5 PUSH1 0x0 DUP7 DUP2 MSTORE PUSH1 0x20 ADD SWAP1 DUP2 MSTORE PUSH1 0x20 ADD PUSH1 0x0 KECCAK256 PUSH1 0x3 ADD PUSH1 0x0 PUSH2 0x100 EXP DUP2 SLOAD DUP2 PUSH1 0xFF MUL NOT AND SWAP1 DUP4 PUSH1 0x3 DUP2 GT ISZERO PUSH2 0x20C JUMPI PUSH2 0x20B PUSH2 0xE42 JUMP JUMPDEST JUMPDEST MUL OR SWAP1 SSTORE POP DUP1 PUSH1 0x5 PUSH1 0x0 DUP7 DUP2 MSTORE PUSH1 0x20 ADD SWAP1 DUP2 MSTORE PUSH1 0x20 ADD PUSH1 0x0 KECCAK256 PUSH1 0x3 ADD PUSH1 0x1 PUSH2 0x100 EXP DUP2 SLOAD DUP2 PUSH1 0xFF MUL NOT AND SWAP1 DUP4 PUSH1 0x3 DUP2 GT ISZERO PUSH2 0x24A JUMPI PUSH2 0x249 PUSH2 0xE42 JUMP JUMPDEST JUMPDEST MUL OR SWAP1 SSTORE POP PUSH2 0x258 DUP2 PUSH2 0x84B JUMP JUMPDEST PUSH1 0x5 PUSH1 0x0 DUP7 DUP2 MSTORE PUSH1 0x20 ADD SWAP1 DUP2 MSTORE PUSH1 0x20 ADD PUSH1 0x0 KECCAK256 PUSH1 0x4 ADD DUP2 SWAP1 SSTORE POP POP POP POP POP JUMP JUMPDEST PUSH1 0x0 DUP1 PUSH1 0x0 DUP1 PUSH1 0x0 DUP1 PUSH1 0x0 DUP1 PUSH1 0x0 JUMPDEST PUSH1 0xA DUP2 LT ISZERO PUSH2 0x3D9 JUMPI PUSH1 0x0 PUSH1 0x3 DUP2 GT ISZERO PUSH2 0x2A4 JUMPI PUSH2 0x2A3 PUSH2 0xE42 JUMP JUMPDEST JUMPDEST PUSH1 0x5 PUSH1 0x0 DUP4 DUP2 MSTORE PUSH1 0x20 ADD SWAP1 DUP2 MSTORE PUSH1 0x20 ADD PUSH1 0x0 KECCAK256 PUSH1 0x3 ADD PUSH1 0x0 SWAP1 SLOAD SWAP1 PUSH2 0x100 EXP SWAP1 DIV PUSH1 0xFF AND PUSH1 0x3 DUP2 GT ISZERO PUSH2 0x2DA JUMPI PUSH2 0x2D9 PUSH2 0xE42 JUMP JUMPDEST JUMPDEST SUB PUSH2 0x2F2 JUMPI DUP5 DUP1 PUSH2 0x2EA SWAP1 PUSH2 0x12C5 JUMP JUMPDEST SWAP6 POP POP PUSH2 0x3C6 JUMP JUMPDEST PUSH1 0x3 DUP1 DUP2 GT ISZERO PUSH2 0x305 JUMPI PUSH2 0x304 PUSH2 0xE42 JUMP JUMPDEST JUMPDEST PUSH1 0x5 PUSH1 0x0 DUP4 DUP2 MSTORE PUSH1 0x20 ADD SWAP1 DUP2 MSTORE PUSH1 0x20 ADD PUSH1 0x0 KECCAK256 PUSH1 0x3 ADD PUSH1 0x0 SWAP1 SLOAD SWAP1 PUSH2 0x100 EXP SWAP1 DIV PUSH1 0xFF AND PUSH1 0x3 DUP2 GT ISZERO PUSH2 0x33B JUMPI PUSH2 0x33A PUSH2 0xE42 JUMP JUMPDEST JUMPDEST SUB PUSH2 0x353 JUMPI DUP4 DUP1 PUSH2 0x34B SWAP1 PUSH2 0x12C5 JUMP JUMPDEST SWAP5 POP POP PUSH2 0x3C5 JUMP JUMPDEST PUSH1 0x1 PUSH1 0x3 DUP2 GT ISZERO PUSH2 0x367 JUMPI PUSH2 0x366 PUSH2 0xE42 JUMP JUMPDEST JUMPDEST PUSH1 0x5 PUSH1 0x0 DUP4 DUP2 MSTORE PUSH1 0x20 ADD SWAP1 DUP2 MSTORE PUSH1 0x20 ADD PUSH1 0x0 KECCAK256 PUSH1 0x3 ADD PUSH1 0x0 SWAP1 SLOAD SWAP1 PUSH2 0x100 EXP SWAP1 DIV PUSH1 0xFF AND PUSH1 0x3 DUP2 GT ISZERO PUSH2 0x39D JUMPI PUSH2 0x39C PUSH2 0xE42 JUMP JUMPDEST JUMPDEST SUB PUSH2 0x3B5 JUMPI DUP3 DUP1 PUSH2 0x3AD SWAP1 PUSH2 0x12C5 JUMP JUMPDEST SWAP4 POP POP PUSH2 0x3C4 JUMP JUMPDEST DUP2 DUP1 PUSH2 0x3C0 SWAP1 PUSH2 0x12C5 JUMP JUMPDEST SWAP3 POP POP JUMPDEST JUMPDEST JUMPDEST DUP1 DUP1 PUSH2 0x3D1 SWAP1 PUSH2 0x12C5 JUMP JUMPDEST SWAP2 POP POP PUSH2 0x287 JUMP JUMPDEST POP DUP4 DUP4 DUP4 DUP4 SWAP8 POP SWAP8 POP SWAP8 POP SWAP8 POP POP POP POP POP SWAP1 SWAP2 SWAP3 SWAP4 JUMP JUMPDEST PUSH2 0x3F9 DUP3 PUSH2 0x84B JUMP JUMPDEST SWAP1 POP PUSH1 0x40 MLOAD DUP1 PUSH1 0xC0 ADD PUSH1 0x40 MSTORE DUP1 DUP8 DUP2 MSTORE PUSH1 0x20 ADD DUP7 DUP2 MSTORE PUSH1 0x20 ADD DUP6 DUP2 MSTORE PUSH1 0x20 ADD DUP5 PUSH1 0x3 DUP2 GT ISZERO PUSH2 0x42B JUMPI PUSH2 0x42A PUSH2 0xE42 JUMP JUMPDEST JUMPDEST DUP2 MSTORE PUSH1 0x20 ADD DUP4 PUSH1 0x3 DUP2 GT ISZERO PUSH2 0x443 JUMPI PUSH2 0x442 PUSH2 0xE42 JUMP JUMPDEST JUMPDEST DUP2 MSTORE PUSH1 0x20 ADD DUP3 DUP2 MSTORE POP PUSH1 0x5 PUSH1 0x0 DUP10 DUP2 MSTORE PUSH1 0x20 ADD SWAP1 DUP2 MSTORE PUSH1 0x20 ADD PUSH1 0x0 KECCAK256 PUSH1 0x0 DUP3 ADD MLOAD DUP2 PUSH1 0x0 ADD SWAP1 DUP2 PUSH2 0x474 SWAP2 SWAP1 PUSH2 0x11C4 JUMP JUMPDEST POP PUSH1 0x20 DUP3 ADD MLOAD DUP2 PUSH1 0x1 ADD SSTORE PUSH1 0x40 DUP3 ADD MLOAD DUP2 PUSH1 0x2 ADD SWAP1 DUP2 PUSH2 0x494 SWAP2 SWAP1 PUSH2 0x11C4 JUMP JUMPDEST POP PUSH1 0x60 DUP3 ADD MLOAD DUP2 PUSH1 0x3 ADD PUSH1 0x0 PUSH2 0x100 EXP DUP2 SLOAD DUP2 PUSH1 0xFF MUL NOT AND SWAP1 DUP4 PUSH1 0x3 DUP2 GT ISZERO PUSH2 0x4C0 JUMPI PUSH2 0x4BF PUSH2 0xE42 JUMP JUMPDEST JUMPDEST MUL OR SWAP1 SSTORE POP PUSH1 0x80 DUP3 ADD MLOAD DUP2 PUSH1 0x3 ADD PUSH1 0x1 PUSH2 0x100 EXP DUP2 SLOAD DUP2 PUSH1 0xFF MUL NOT AND SWAP1 DUP4 PUSH1 0x3 DUP2 GT ISZERO PUSH2 0x4F0 JUMPI PUSH2 0x4EF PUSH2 0xE42 JUMP JUMPDEST JUMPDEST MUL OR SWAP1 SSTORE POP PUSH1 0xA0 DUP3 ADD MLOAD DUP2 PUSH1 0x4 ADD SSTORE SWAP1 POP POP POP POP POP POP POP POP POP JUMP JUMPDEST PUSH1 0x60 PUSH1 0x0 PUSH1 0x60 PUSH1 0x0 DUP1 PUSH1 0x0 PUSH1 0x5 PUSH1 0x0 DUP9 DUP2 MSTORE PUSH1 0x20 ADD SWAP1 DUP2 MSTORE PUSH1 0x20 ADD PUSH1 0x0 KECCAK256 PUSH1 0x0 ADD PUSH1 0x5 PUSH1 0x0 DUP10 DUP2 MSTORE PUSH1 0x20 ADD SWAP1 DUP2 MSTORE PUSH1 0x20 ADD PUSH1 0x0 KECCAK256 PUSH1 0x1 ADD SLOAD PUSH1 0x5 PUSH1 0x0 DUP11 DUP2 MSTORE PUSH1 0x20 ADD SWAP1 DUP2 MSTORE PUSH1 0x20 ADD PUSH1 0x0 KECCAK256 PUSH1 0x2 ADD PUSH1 0x5 PUSH1 0x0 DUP12 DUP2 MSTORE PUSH1 0x20 ADD SWAP1 DUP2 MSTORE PUSH1 0x20 ADD PUSH1 0x0 KECCAK256 PUSH1 0x3 ADD PUSH1 0x0 SWAP1 SLOAD SWAP1 PUSH2 0x100 EXP SWAP1 DIV PUSH1 0xFF AND PUSH1 0x5 PUSH1 0x0 DUP13 DUP2 MSTORE PUSH1 0x20 ADD SWAP1 DUP2 MSTORE PUSH1 0x20 ADD PUSH1 0x0 KECCAK256 PUSH1 0x3 ADD PUSH1 0x1 SWAP1 SLOAD SWAP1 PUSH2 0x100 EXP SWAP1 DIV PUSH1 0xFF AND PUSH1 0x5 PUSH1 0x0 DUP14 DUP2 MSTORE PUSH1 0x20 ADD SWAP1 DUP2 MSTORE PUSH1 0x20 ADD PUSH1 0x0 KECCAK256 PUSH1 0x4 ADD SLOAD DUP6 DUP1 SLOAD PUSH2 0x5C4 SWAP1 PUSH2 0xFE7 JUMP JUMPDEST DUP1 PUSH1 0x1F ADD PUSH1 0x20 DUP1 SWAP2 DIV MUL PUSH1 0x20 ADD PUSH1 0x40 MLOAD SWAP1 DUP2 ADD PUSH1 0x40 MSTORE DUP1 SWAP3 SWAP2 SWAP1 DUP2 DUP2 MSTORE PUSH1 0x20 ADD DUP3 DUP1 SLOAD PUSH2 0x5F0 SWAP1 PUSH2 0xFE7 JUMP JUMPDEST DUP1 ISZERO PUSH2 0x63D JUMPI DUP1 PUSH1 0x1F LT PUSH2 0x612 JUMPI PUSH2 0x100 DUP1 DUP4 SLOAD DIV MUL DUP4 MSTORE SWAP2 PUSH1 0x20 ADD SWAP2 PUSH2 0x63D JUMP JUMPDEST DUP3 ADD SWAP2 SWAP1 PUSH1 0x0 MSTORE PUSH1 0x20 PUSH1 0x0 KECCAK256 SWAP1 JUMPDEST DUP2 SLOAD DUP2 MSTORE SWAP1 PUSH1 0x1 ADD SWAP1 PUSH1 0x20 ADD DUP1 DUP4 GT PUSH2 0x620 JUMPI DUP3 SWAP1 SUB PUSH1 0x1F AND DUP3 ADD SWAP2 JUMPDEST POP POP POP POP POP SWAP6 POP DUP4 DUP1 SLOAD PUSH2 0x650 SWAP1 PUSH2 0xFE7 JUMP JUMPDEST DUP1 PUSH1 0x1F ADD PUSH1 0x20 DUP1 SWAP2 DIV MUL PUSH1 0x20 ADD PUSH1 0x40 MLOAD SWAP1 DUP2 ADD PUSH1 0x40 MSTORE DUP1 SWAP3 SWAP2 SWAP1 DUP2 DUP2 MSTORE PUSH1 0x20 ADD DUP3 DUP1 SLOAD PUSH2 0x67C SWAP1 PUSH2 0xFE7 JUMP JUMPDEST DUP1 ISZERO PUSH2 0x6C9 JUMPI DUP1 PUSH1 0x1F LT PUSH2 0x69E JUMPI PUSH2 0x100 DUP1 DUP4 SLOAD DIV MUL DUP4 MSTORE SWAP2 PUSH1 0x20 ADD SWAP2 PUSH2 0x6C9 JUMP JUMPDEST DUP3 ADD SWAP2 SWAP1 PUSH1 0x0 MSTORE PUSH1 0x20 PUSH1 0x0 KECCAK256 SWAP1 JUMPDEST DUP2 SLOAD DUP2 MSTORE SWAP1 PUSH1 0x1 ADD SWAP1 PUSH1 0x20 ADD DUP1 DUP4 GT PUSH2 0x6AC JUMPI DUP3 SWAP1 SUB PUSH1 0x1F AND DUP3 ADD SWAP2 JUMPDEST POP POP POP POP POP SWAP4 POP SWAP6 POP SWAP6 POP SWAP6 POP SWAP6 POP SWAP6 POP SWAP6 POP SWAP2 SWAP4 SWAP6 POP SWAP2 SWAP4 SWAP6 JUMP JUMPDEST PUSH1 0x5 PUSH1 0x20 MSTORE DUP1 PUSH1 0x0 MSTORE PUSH1 0x40 PUSH1 0x0 KECCAK256 PUSH1 0x0 SWAP2 POP SWAP1 POP DUP1 PUSH1 0x0 ADD DUP1 SLOAD PUSH2 0x708 SWAP1 PUSH2 0xFE7 JUMP JUMPDEST DUP1 PUSH1 0x1F ADD PUSH1 0x20 DUP1 SWAP2 DIV MUL PUSH1 0x20 ADD PUSH1 0x40 MLOAD SWAP1 DUP2 ADD PUSH1 0x40 MSTORE DUP1 SWAP3 SWAP2 SWAP1 DUP2 DUP2 MSTORE PUSH1 0x20 ADD DUP3 DUP1 SLOAD PUSH2 0x734 SWAP1 PUSH2 0xFE7 JUMP JUMPDEST DUP1 ISZERO PUSH2 0x781 JUMPI DUP1 PUSH1 0x1F LT PUSH2 0x756 JUMPI PUSH2 0x100 DUP1 DUP4 SLOAD DIV MUL DUP4 MSTORE SWAP2 PUSH1 0x20 ADD SWAP2 PUSH2 0x781 JUMP JUMPDEST DUP3 ADD SWAP2 SWAP1 PUSH1 0x0 MSTORE PUSH1 0x20 PUSH1 0x0 KECCAK256 SWAP1 JUMPDEST DUP2 SLOAD DUP2 MSTORE SWAP1 PUSH1 0x1 ADD SWAP1 PUSH1 0x20 ADD DUP1 DUP4 GT PUSH2 0x764 JUMPI DUP3 SWAP1 SUB PUSH1 0x1F AND DUP3 ADD SWAP2 JUMPDEST POP POP POP POP POP SWAP1 DUP1 PUSH1 0x1 ADD SLOAD SWAP1 DUP1 PUSH1 0x2 ADD DUP1 SLOAD PUSH2 0x79C SWAP1 PUSH2 0xFE7 JUMP JUMPDEST DUP1 PUSH1 0x1F ADD PUSH1 0x20 DUP1 SWAP2 DIV MUL PUSH1 0x20 ADD PUSH1 0x40 MLOAD SWAP1 DUP2 ADD PUSH1 0x40 MSTORE DUP1 SWAP3 SWAP2 SWAP1 DUP2 DUP2 MSTORE PUSH1 0x20 ADD DUP3 DUP1 SLOAD PUSH2 0x7C8 SWAP1 PUSH2 0xFE7 JUMP JUMPDEST DUP1 ISZERO PUSH2 0x815 JUMPI DUP1 PUSH1 0x1F LT PUSH2 0x7EA JUMPI PUSH2 0x100 DUP1 DUP4 SLOAD DIV MUL DUP4 MSTORE SWAP2 PUSH1 0x20 ADD SWAP2 PUSH2 0x815 JUMP JUMPDEST DUP3 ADD SWAP2 SWAP1 PUSH1 0x0 MSTORE PUSH1 0x20 PUSH1 0x0 KECCAK256 SWAP1 JUMPDEST DUP2 SLOAD DUP2 MSTORE SWAP1 PUSH1 0x1 ADD SWAP1 PUSH1 0x20 ADD DUP1 DUP4 GT PUSH2 0x7F8 JUMPI DUP3 SWAP1 SUB PUSH1 0x1F AND DUP3 ADD SWAP2 JUMPDEST POP POP POP POP POP SWAP1 DUP1 PUSH1 0x3 ADD PUSH1 0x0 SWAP1 SLOAD SWAP1 PUSH2 0x100 EXP SWAP1 DIV PUSH1 0xFF AND SWAP1 DUP1 PUSH1 0x3 ADD PUSH1 0x1 SWAP1 SLOAD SWAP1 PUSH2 0x100 EXP SWAP1 DIV PUSH1 0xFF AND SWAP1 DUP1 PUSH1 0x4 ADD SLOAD SWAP1 POP DUP7 JUMP JUMPDEST PUSH1 0x0 PUSH1 0x1 PUSH1 0x3 DUP2 GT ISZERO PUSH2 0x861 JUMPI PUSH2 0x860 PUSH2 0xE42 JUMP JUMPDEST JUMPDEST DUP3 PUSH1 0x3 DUP2 GT ISZERO PUSH2 0x874 JUMPI PUSH2 0x873 PUSH2 0xE42 JUMP JUMPDEST JUMPDEST EQ DUP1 PUSH2 0x8A3 JUMPI POP PUSH1 0x3 DUP1 DUP2 GT ISZERO PUSH2 0x88E JUMPI PUSH2 0x88D PUSH2 0xE42 JUMP JUMPDEST JUMPDEST DUP3 PUSH1 0x3 DUP2 GT ISZERO PUSH2 0x8A1 JUMPI PUSH2 0x8A0 PUSH2 0xE42 JUMP JUMPDEST JUMPDEST EQ JUMPDEST ISZERO PUSH2 0x8B1 JUMPI PUSH1 0x0 SWAP1 POP PUSH2 0x8B2 JUMP JUMPDEST JUMPDEST SWAP2 SWAP1 POP JUMP JUMPDEST PUSH1 0x0 DUP1 PUSH1 0x0 ADD DUP1 SLOAD PUSH2 0x8C8 SWAP1 PUSH2 0xFE7 JUMP JUMPDEST DUP1 PUSH1 0x1F ADD PUSH1 0x20 DUP1 SWAP2 DIV MUL PUSH1 0x20 ADD PUSH1 0x40 MLOAD SWAP1 DUP2 ADD PUSH1 0x40 MSTORE DUP1 SWAP3 SWAP2 SWAP1 DUP2 DUP2 MSTORE PUSH1 0x20 ADD DUP3 DUP1 SLOAD PUSH2 0x8F4 SWAP1 PUSH2 0xFE7 JUMP JUMPDEST DUP1 ISZERO PUSH2 0x941 JUMPI DUP1 PUSH1 0x1F LT PUSH2 0x916 JUMPI PUSH2 0x100 DUP1 DUP4 SLOAD DIV MUL DUP4 MSTORE SWAP2 PUSH1 0x20 ADD SWAP2 PUSH2 0x941 JUMP JUMPDEST DUP3 ADD SWAP2 SWAP1 PUSH1 0x0 MSTORE PUSH1 0x20 PUSH1 0x0 KECCAK256 SWAP1 JUMPDEST DUP2 SLOAD DUP2 MSTORE SWAP1 PUSH1 0x1 ADD SWAP1 PUSH1 0x20 ADD DUP1 DUP4 GT PUSH2 0x924 JUMPI DUP3 SWAP1 SUB PUSH1 0x1F AND DUP3 ADD SWAP2 JUMPDEST POP POP POP POP POP SWAP1 DUP1 PUSH1 0x1 ADD SLOAD SWAP1 DUP1 PUSH1 0x2 ADD DUP1 SLOAD PUSH2 0x95C SWAP1 PUSH2 0xFE7 JUMP JUMPDEST DUP1 PUSH1 0x1F ADD PUSH1 0x20 DUP1 SWAP2 DIV MUL PUSH1 0x20 ADD PUSH1 0x40 MLOAD SWAP1 DUP2 ADD PUSH1 0x40 MSTORE DUP1 SWAP3 SWAP2 SWAP1 DUP2 DUP2 MSTORE PUSH1 0x20 ADD DUP3 DUP1 SLOAD PUSH2 0x988 SWAP1 PUSH2 0xFE7 JUMP JUMPDEST DUP1 ISZERO PUSH2 0x9D5 JUMPI DUP1 PUSH1 0x1F LT PUSH2 0x9AA JUMPI PUSH2 0x100 DUP1 DUP4 SLOAD DIV MUL DUP4 MSTORE SWAP2 PUSH1 0x20 ADD SWAP2 PUSH2 0x9D5 JUMP JUMPDEST DUP3 ADD SWAP2 SWAP1 PUSH1 0x0 MSTORE PUSH1 0x20 PUSH1 0x0 KECCAK256 SWAP1 JUMPDEST DUP2 SLOAD DUP2 MSTORE SWAP1 PUSH1 0x1 ADD SWAP1 PUSH1 0x20 ADD DUP1 DUP4 GT PUSH2 0x9B8 JUMPI DUP3 SWAP1 SUB PUSH1 0x1F AND DUP3 ADD SWAP2 JUMPDEST POP POP POP POP POP SWAP1 DUP1 PUSH1 0x3 ADD PUSH1 0x0 SWAP1 SLOAD SWAP1 PUSH2 0x100 EXP SWAP1 DIV PUSH1 0xFF AND SWAP1 DUP1 PUSH1 0x3 ADD PUSH1 0x1 SWAP1 SLOAD SWAP1 PUSH2 0x100 EXP SWAP1 DIV PUSH1 0xFF AND SWAP1 DUP1 PUSH1 0x4 ADD SLOAD SWAP1 POP DUP7 JUMP JUMPDEST PUSH1 0x0 PUSH1 0x40 MLOAD SWAP1 POP SWAP1 JUMP JUMPDEST PUSH1 0x0 DUP1 REVERT JUMPDEST PUSH1 0x0 DUP1 REVERT JUMPDEST PUSH1 0x0 DUP2 SWAP1 POP SWAP2 SWAP1 POP JUMP JUMPDEST PUSH2 0xA32 DUP2 PUSH2 0xA1F JUMP JUMPDEST DUP2 EQ PUSH2 0xA3D JUMPI PUSH1 0x0 DUP1 REVERT JUMPDEST POP JUMP JUMPDEST PUSH1 0x0 DUP2 CALLDATALOAD SWAP1 POP PUSH2 0xA4F DUP2 PUSH2 0xA29 JUMP JUMPDEST SWAP3 SWAP2 POP POP JUMP JUMPDEST PUSH1 0x0 DUP1 REVERT JUMPDEST PUSH1 0x0 DUP1 REVERT JUMPDEST PUSH1 0x0 PUSH1 0x1F NOT PUSH1 0x1F DUP4 ADD AND SWAP1 POP SWAP2 SWAP1 POP JUMP JUMPDEST PUSH32 0x4E487B7100000000000000000000000000000000000000000000000000000000 PUSH1 0x0 MSTORE PUSH1 0x41 PUSH1 0x4 MSTORE PUSH1 0x24 PUSH1 0x0 REVERT JUMPDEST PUSH2 0xAA8 DUP3 PUSH2 0xA5F JUMP JUMPDEST DUP2 ADD DUP2 DUP2 LT PUSH8 0xFFFFFFFFFFFFFFFF DUP3 GT OR ISZERO PUSH2 0xAC7 JUMPI PUSH2 0xAC6 PUSH2 0xA70 JUMP JUMPDEST JUMPDEST DUP1 PUSH1 0x40 MSTORE POP POP POP JUMP JUMPDEST PUSH1 0x0 PUSH2 0xADA PUSH2 0xA0B JUMP JUMPDEST SWAP1 POP PUSH2 0xAE6 DUP3 DUP3 PUSH2 0xA9F JUMP JUMPDEST SWAP2 SWAP1 POP JUMP JUMPDEST PUSH1 0x0 PUSH8 0xFFFFFFFFFFFFFFFF DUP3 GT ISZERO PUSH2 0xB06 JUMPI PUSH2 0xB05 PUSH2 0xA70 JUMP JUMPDEST JUMPDEST PUSH2 0xB0F DUP3 PUSH2 0xA5F JUMP JUMPDEST SWAP1 POP PUSH1 0x20 DUP2 ADD SWAP1 POP SWAP2 SWAP1 POP JUMP JUMPDEST DUP3 DUP2 DUP4 CALLDATACOPY PUSH1 0x0 DUP4 DUP4 ADD MSTORE POP POP POP JUMP JUMPDEST PUSH1 0x0 PUSH2 0xB3E PUSH2 0xB39 DUP5 PUSH2 0xAEB JUMP JUMPDEST PUSH2 0xAD0 JUMP JUMPDEST SWAP1 POP DUP3 DUP2 MSTORE PUSH1 0x20 DUP2 ADD DUP5 DUP5 DUP5 ADD GT ISZERO PUSH2 0xB5A JUMPI PUSH2 0xB59 PUSH2 0xA5A JUMP JUMPDEST JUMPDEST PUSH2 0xB65 DUP5 DUP3 DUP6 PUSH2 0xB1C JUMP JUMPDEST POP SWAP4 SWAP3 POP POP POP JUMP JUMPDEST PUSH1 0x0 DUP3 PUSH1 0x1F DUP4 ADD SLT PUSH2 0xB82 JUMPI PUSH2 0xB81 PUSH2 0xA55 JUMP JUMPDEST JUMPDEST DUP2 CALLDATALOAD PUSH2 0xB92 DUP5 DUP3 PUSH1 0x20 DUP7 ADD PUSH2 0xB2B JUMP JUMPDEST SWAP2 POP POP SWAP3 SWAP2 POP POP JUMP JUMPDEST PUSH1 0x4 DUP2 LT PUSH2 0xBA8 JUMPI PUSH1 0x0 DUP1 REVERT JUMPDEST POP JUMP JUMPDEST PUSH1 0x0 DUP2 CALLDATALOAD SWAP1 POP PUSH2 0xBBA DUP2 PUSH2 0xB9B JUMP JUMPDEST SWAP3 SWAP2 POP POP JUMP JUMPDEST PUSH1 0x4 DUP2 LT PUSH2 0xBCD JUMPI PUSH1 0x0 DUP1 REVERT JUMPDEST POP JUMP JUMPDEST PUSH1 0x0 DUP2 CALLDATALOAD SWAP1 POP PUSH2 0xBDF DUP2 PUSH2 0xBC0 JUMP JUMPDEST SWAP3 SWAP2 POP POP JUMP JUMPDEST PUSH1 0x0 DUP1 PUSH1 0x0 DUP1 PUSH1 0x80 DUP6 DUP8 SUB SLT ISZERO PUSH2 0xBFF JUMPI PUSH2 0xBFE PUSH2 0xA15 JUMP JUMPDEST JUMPDEST PUSH1 0x0 PUSH2 0xC0D DUP8 DUP3 DUP9 ADD PUSH2 0xA40 JUMP JUMPDEST SWAP5 POP POP PUSH1 0x20 DUP6 ADD CALLDATALOAD PUSH8 0xFFFFFFFFFFFFFFFF DUP2 GT ISZERO PUSH2 0xC2E JUMPI PUSH2 0xC2D PUSH2 0xA1A JUMP JUMPDEST JUMPDEST PUSH2 0xC3A DUP8 DUP3 DUP9 ADD PUSH2 0xB6D JUMP JUMPDEST SWAP4 POP POP PUSH1 0x40 PUSH2 0xC4B DUP8 DUP3 DUP9 ADD PUSH2 0xBAB JUMP JUMPDEST SWAP3 POP POP PUSH1 0x60 PUSH2 0xC5C DUP8 DUP3 DUP9 ADD PUSH2 0xBD0 JUMP JUMPDEST SWAP2 POP POP SWAP3 SWAP6 SWAP2 SWAP5 POP SWAP3 POP JUMP JUMPDEST PUSH2 0xC71 DUP2 PUSH2 0xA1F JUMP JUMPDEST DUP3 MSTORE POP POP JUMP JUMPDEST PUSH1 0x0 PUSH1 0x80 DUP3 ADD SWAP1 POP PUSH2 0xC8C PUSH1 0x0 DUP4 ADD DUP8 PUSH2 0xC68 JUMP JUMPDEST PUSH2 0xC99 PUSH1 0x20 DUP4 ADD DUP7 PUSH2 0xC68 JUMP JUMPDEST PUSH2 0xCA6 PUSH1 0x40 DUP4 ADD DUP6 PUSH2 0xC68 JUMP JUMPDEST PUSH2 0xCB3 PUSH1 0x60 DUP4 ADD DUP5 PUSH2 0xC68 JUMP JUMPDEST SWAP6 SWAP5 POP POP POP POP POP JUMP JUMPDEST PUSH1 0x0 DUP1 PUSH1 0x0 DUP1 PUSH1 0x0 DUP1 PUSH1 0x0 PUSH1 0xE0 DUP9 DUP11 SUB SLT ISZERO PUSH2 0xCDB JUMPI PUSH2 0xCDA PUSH2 0xA15 JUMP JUMPDEST JUMPDEST PUSH1 0x0 PUSH2 0xCE9 DUP11 DUP3 DUP12 ADD PUSH2 0xA40 JUMP JUMPDEST SWAP8 POP POP PUSH1 0x20 DUP9 ADD CALLDATALOAD PUSH8 0xFFFFFFFFFFFFFFFF DUP2 GT ISZERO PUSH2 0xD0A JUMPI PUSH2 0xD09 PUSH2 0xA1A JUMP JUMPDEST JUMPDEST PUSH2 0xD16 DUP11 DUP3 DUP12 ADD PUSH2 0xB6D JUMP JUMPDEST SWAP7 POP POP PUSH1 0x40 PUSH2 0xD27 DUP11 DUP3 DUP12 ADD PUSH2 0xA40 JUMP JUMPDEST SWAP6 POP POP PUSH1 0x60 DUP9 ADD CALLDATALOAD PUSH8 0xFFFFFFFFFFFFFFFF DUP2 GT ISZERO PUSH2 0xD48 JUMPI PUSH2 0xD47 PUSH2 0xA1A JUMP JUMPDEST JUMPDEST PUSH2 0xD54 DUP11 DUP3 DUP12 ADD PUSH2 0xB6D JUMP JUMPDEST SWAP5 POP POP PUSH1 0x80 PUSH2 0xD65 DUP11 DUP3 DUP12 ADD PUSH2 0xBAB JUMP JUMPDEST SWAP4 POP POP PUSH1 0xA0 PUSH2 0xD76 DUP11 DUP3 DUP12 ADD PUSH2 0xBD0 JUMP JUMPDEST SWAP3 POP POP PUSH1 0xC0 PUSH2 0xD87 DUP11 DUP3 DUP12 ADD PUSH2 0xA40 JUMP JUMPDEST SWAP2 POP POP SWAP3 SWAP6 SWAP9 SWAP2 SWAP5 SWAP8 POP SWAP3 SWAP6 POP JUMP JUMPDEST PUSH1 0x0 PUSH1 0x20 DUP3 DUP5 SUB SLT ISZERO PUSH2 0xDAC JUMPI PUSH2 0xDAB PUSH2 0xA15 JUMP JUMPDEST JUMPDEST PUSH1 0x0 PUSH2 0xDBA DUP5 DUP3 DUP6 ADD PUSH2 0xA40 JUMP JUMPDEST SWAP2 POP POP SWAP3 SWAP2 POP POP JUMP JUMPDEST PUSH1 0x0 DUP2 MLOAD SWAP1 POP SWAP2 SWAP1 POP JUMP JUMPDEST PUSH1 0x0 DUP3 DUP3 MSTORE PUSH1 0x20 DUP3 ADD SWAP1 POP SWAP3 SWAP2 POP POP JUMP JUMPDEST PUSH1 0x0 JUMPDEST DUP4 DUP2 LT ISZERO PUSH2 0xDFD JUMPI DUP1 DUP3 ADD MLOAD DUP2 DUP5 ADD MSTORE PUSH1 0x20 DUP2 ADD SWAP1 POP PUSH2 0xDE2 JUMP JUMPDEST PUSH1 0x0 DUP5 DUP5 ADD MSTORE POP POP POP POP JUMP JUMPDEST PUSH1 0x0 PUSH2 0xE14 DUP3 PUSH2 0xDC3 JUMP JUMPDEST PUSH2 0xE1E DUP2 DUP6 PUSH2 0xDCE JUMP JUMPDEST SWAP4 POP PUSH2 0xE2E DUP2 DUP6 PUSH1 0x20 DUP7 ADD PUSH2 0xDDF JUMP JUMPDEST PUSH2 0xE37 DUP2 PUSH2 0xA5F JUMP JUMPDEST DUP5 ADD SWAP2 POP POP SWAP3 SWAP2 POP POP JUMP JUMPDEST PUSH32 0x4E487B7100000000000000000000000000000000000000000000000000000000 PUSH1 0x0 MSTORE PUSH1 0x21 PUSH1 0x4 MSTORE PUSH1 0x24 PUSH1 0x0 REVERT JUMPDEST PUSH1 0x4 DUP2 LT PUSH2 0xE82 JUMPI PUSH2 0xE81 PUSH2 0xE42 JUMP JUMPDEST JUMPDEST POP JUMP JUMPDEST PUSH1 0x0 DUP2 SWAP1 POP PUSH2 0xE93 DUP3 PUSH2 0xE71 JUMP JUMPDEST SWAP2 SWAP1 POP JUMP JUMPDEST PUSH1 0x0 PUSH2 0xEA3 DUP3 PUSH2 0xE85 JUMP JUMPDEST SWAP1 POP SWAP2 SWAP1 POP JUMP JUMPDEST PUSH2 0xEB3 DUP2 PUSH2 0xE98 JUMP JUMPDEST DUP3 MSTORE POP POP JUMP JUMPDEST PUSH1 0x4 DUP2 LT PUSH2 0xECA JUMPI PUSH2 0xEC9 PUSH2 0xE42 JUMP JUMPDEST JUMPDEST POP JUMP JUMPDEST PUSH1 0x0 DUP2 SWAP1 POP PUSH2 0xEDB DUP3 PUSH2 0xEB9 JUMP JUMPDEST SWAP2 SWAP1 POP JUMP JUMPDEST PUSH1 0x0 PUSH2 0xEEB DUP3 PUSH2 0xECD JUMP JUMPDEST SWAP1 POP SWAP2 SWAP1 POP JUMP JUMPDEST PUSH2 0xEFB DUP2 PUSH2 0xEE0 JUMP JUMPDEST DUP3 MSTORE POP POP JUMP JUMPDEST PUSH1 0x0 PUSH1 0xC0 DUP3 ADD SWAP1 POP DUP2 DUP2 SUB PUSH1 0x0 DUP4 ADD MSTORE PUSH2 0xF1B DUP2 DUP10 PUSH2 0xE09 JUMP JUMPDEST SWAP1 POP PUSH2 0xF2A PUSH1 0x20 DUP4 ADD DUP9 PUSH2 0xC68 JUMP JUMPDEST DUP2 DUP2 SUB PUSH1 0x40 DUP4 ADD MSTORE PUSH2 0xF3C DUP2 DUP8 PUSH2 0xE09 JUMP JUMPDEST SWAP1 POP PUSH2 0xF4B PUSH1 0x60 DUP4 ADD DUP7 PUSH2 0xEAA JUMP JUMPDEST PUSH2 0xF58 PUSH1 0x80 DUP4 ADD DUP6 PUSH2 0xEF2 JUMP JUMPDEST PUSH2 0xF65 PUSH1 0xA0 DUP4 ADD DUP5 PUSH2 0xC68 JUMP JUMPDEST SWAP8 SWAP7 POP POP POP POP POP POP POP JUMP JUMPDEST PUSH1 0x0 PUSH1 0x20 DUP3 DUP5 SUB SLT ISZERO PUSH2 0xF86 JUMPI PUSH2 0xF85 PUSH2 0xA15 JUMP JUMPDEST JUMPDEST PUSH1 0x0 PUSH2 0xF94 DUP5 DUP3 DUP6 ADD PUSH2 0xBD0 JUMP JUMPDEST SWAP2 POP POP SWAP3 SWAP2 POP POP JUMP JUMPDEST PUSH1 0x0 PUSH1 0x20 DUP3 ADD SWAP1 POP PUSH2 0xFB2 PUSH1 0x0 DUP4 ADD DUP5 PUSH2 0xC68 JUMP JUMPDEST SWAP3 SWAP2 POP POP JUMP JUMPDEST PUSH32 0x4E487B7100000000000000000000000000000000000000000000000000000000 PUSH1 0x0 MSTORE PUSH1 0x22 PUSH1 0x4 MSTORE PUSH1 0x24 PUSH1 0x0 REVERT JUMPDEST PUSH1 0x0 PUSH1 0x2 DUP3 DIV SWAP1 POP PUSH1 0x1 DUP3 AND DUP1 PUSH2 0xFFF JUMPI PUSH1 0x7F DUP3 AND SWAP2 POP JUMPDEST PUSH1 0x20 DUP3 LT DUP2 SUB PUSH2 0x1012 JUMPI PUSH2 0x1011 PUSH2 0xFB8 JUMP JUMPDEST JUMPDEST POP SWAP2 SWAP1 POP JUMP JUMPDEST PUSH1 0x0 DUP2 SWAP1 POP DUP2 PUSH1 0x0 MSTORE PUSH1 0x20 PUSH1 0x0 KECCAK256 SWAP1 POP SWAP2 SWAP1 POP JUMP JUMPDEST PUSH1 0x0 PUSH1 0x20 PUSH1 0x1F DUP4 ADD DIV SWAP1 POP SWAP2 SWAP1 POP JUMP JUMPDEST PUSH1 0x0 DUP3 DUP3 SHL SWAP1 POP SWAP3 SWAP2 POP POP JUMP JUMPDEST PUSH1 0x0 PUSH1 0x8 DUP4 MUL PUSH2 0x107A PUSH32 0xFFFFFFFFFFFFFFFFFFFFFFFFFFFFFFFFFFFFFFFFFFFFFFFFFFFFFFFFFFFFFFFF DUP3 PUSH2 0x103D JUMP JUMPDEST PUSH2 0x1084 DUP7 DUP4 PUSH2 0x103D JUMP JUMPDEST SWAP6 POP DUP1 NOT DUP5 AND SWAP4 POP DUP1 DUP7 AND DUP5 OR SWAP3 POP POP POP SWAP4 SWAP3 POP POP POP JUMP JUMPDEST PUSH1 0x0 DUP2 SWAP1 POP SWAP2 SWAP1 POP JUMP JUMPDEST PUSH1 0x0 PUSH2 0x10C1 PUSH2 0x10BC PUSH2 0x10B7 DUP5 PUSH2 0xA1F JUMP JUMPDEST PUSH2 0x109C JUMP JUMPDEST PUSH2 0xA1F JUMP JUMPDEST SWAP1 POP SWAP2 SWAP1 POP JUMP JUMPDEST PUSH1 0x0 DUP2 SWAP1 POP SWAP2 SWAP1 POP JUMP JUMPDEST PUSH2 0x10DB DUP4 PUSH2 0x10A6 JUMP JUMPDEST PUSH2 0x10EF PUSH2 0x10E7 DUP3 PUSH2 0x10C8 JUMP JUMPDEST DUP5 DUP5 SLOAD PUSH2 0x104A JUMP JUMPDEST DUP3 SSTORE POP POP POP POP JUMP JUMPDEST PUSH1 0x0 SWAP1 JUMP JUMPDEST PUSH2 0x1104 PUSH2 0x10F7 JUMP JUMPDEST PUSH2 0x110F DUP2 DUP5 DUP5 PUSH2 0x10D2 JUMP JUMPDEST POP POP POP JUMP JUMPDEST JUMPDEST DUP2 DUP2 LT ISZERO PUSH2 0x1133 JUMPI PUSH2 0x1128 PUSH1 0x0 DUP3 PUSH2 0x10FC JUMP JUMPDEST PUSH1 0x1 DUP2 ADD SWAP1 POP PUSH2 0x1115 JUMP JUMPDEST POP POP JUMP JUMPDEST PUSH1 0x1F DUP3 GT ISZERO PUSH2 0x1178 JUMPI PUSH2 0x1149 DUP2 PUSH2 0x1018 JUMP JUMPDEST PUSH2 0x1152 DUP5 PUSH2 0x102D JUMP JUMPDEST DUP2 ADD PUSH1 0x20 DUP6 LT ISZERO PUSH2 0x1161 JUMPI DUP2 SWAP1 POP JUMPDEST PUSH2 0x1175 PUSH2 0x116D DUP6 PUSH2 0x102D JUMP JUMPDEST DUP4 ADD DUP3 PUSH2 0x1114 JUMP JUMPDEST POP POP JUMPDEST POP POP POP JUMP JUMPDEST PUSH1 0x0 DUP3 DUP3 SHR SWAP1 POP SWAP3 SWAP2 POP POP JUMP JUMPDEST PUSH1 0x0 PUSH2 0x119B PUSH1 0x0 NOT DUP5 PUSH1 0x8 MUL PUSH2 0x117D JUMP JUMPDEST NOT DUP1 DUP4 AND SWAP2 POP POP SWAP3 SWAP2 POP POP JUMP JUMPDEST PUSH1 0x0 PUSH2 0x11B4 DUP4 DUP4 PUSH2 0x118A JUMP JUMPDEST SWAP2 POP DUP3 PUSH1 0x2 MUL DUP3 OR SWAP1 POP SWAP3 SWAP2 POP POP JUMP JUMPDEST PUSH2 0x11CD DUP3 PUSH2 0xDC3 JUMP JUMPDEST PUSH8 0xFFFFFFFFFFFFFFFF DUP2 GT ISZERO PUSH2 0x11E6 JUMPI PUSH2 0x11E5 PUSH2 0xA70 JUMP JUMPDEST JUMPDEST PUSH2 0x11F0 DUP3 SLOAD PUSH2 0xFE7 JUMP JUMPDEST PUSH2 0x11FB DUP3 DUP3 DUP6 PUSH2 0x1137 JUMP JUMPDEST PUSH1 0x0 PUSH1 0x20 SWAP1 POP PUSH1 0x1F DUP4 GT PUSH1 0x1 DUP2 EQ PUSH2 0x122E JUMPI PUSH1 0x0 DUP5 ISZERO PUSH2 0x121C JUMPI DUP3 DUP8 ADD MLOAD SWAP1 POP JUMPDEST PUSH2 0x1226 DUP6 DUP3 PUSH2 0x11A8 JUMP JUMPDEST DUP7 SSTORE POP PUSH2 0x128E JUMP JUMPDEST PUSH1 0x1F NOT DUP5 AND PUSH2 0x123C DUP7 PUSH2 0x1018 JUMP JUMPDEST PUSH1 0x0 JUMPDEST DUP3 DUP2 LT ISZERO PUSH2 0x1264 JUMPI DUP5 DUP10 ADD MLOAD DUP3 SSTORE PUSH1 0x1 DUP3 ADD SWAP2 POP PUSH1 0x20 DUP6 ADD SWAP5 POP PUSH1 0x20 DUP2 ADD SWAP1 POP PUSH2 0x123F JUMP JUMPDEST DUP7 DUP4 LT ISZERO PUSH2 0x1281 JUMPI DUP5 DUP10 ADD MLOAD PUSH2 0x127D PUSH1 0x1F DUP10 AND DUP3 PUSH2 0x118A JUMP JUMPDEST DUP4 SSTORE POP JUMPDEST PUSH1 0x1 PUSH1 0x2 DUP9 MUL ADD DUP9 SSTORE POP POP POP JUMPDEST POP POP POP POP POP POP JUMP JUMPDEST PUSH32 0x4E487B7100000000000000000000000000000000000000000000000000000000 PUSH1 0x0 MSTORE PUSH1 0x11 PUSH1 0x4 MSTORE PUSH1 0x24 PUSH1 0x0 REVERT JUMPDEST PUSH1 0x0 PUSH2 0x12D0 DUP3 PUSH2 0xA1F JUMP JUMPDEST SWAP2 POP PUSH32 0xFFFFFFFFFFFFFFFFFFFFFFFFFFFFFFFFFFFFFFFFFFFFFFFFFFFFFFFFFFFFFFFF DUP3 SUB PUSH2 0x1302 JUMPI PUSH2 0x1301 PUSH2 0x1296 JUMP JUMPDEST JUMPDEST PUSH1 0x1 DUP3 ADD SWAP1 POP SWAP2 SWAP1 POP JUMP INVALID LOG2 PUSH5 0x6970667358 0x22 SLT KECCAK256 0xBD EXTCODECOPY 0xCE 0xE7 0xAA 0xDA SWAP1 AND PUSH19 0xDDDA3CF8E88CCA5B1C3082EFCAC97AC010E19D 0xAA GT 0xBF PUSH30 0x64736F6C6343000812003300000000000000000000000000000000000000 "
				},
				"gasEstimates": {
					"creation": {
						"codeDepositCost": "986200",
						"executionCost": "1027",
						"totalCost": "987227"
					},
					"external": {
						"Top_3_Achievers()": "145",
						"checkStatus(uint8)": "772",
						"count_of_students()": "infinite",
						"register(uint256,string,uint256,string,uint8,uint8,uint256)": "infinite",
						"retrieve(uint256)": "infinite",
						"studentMap(uint256)": "infinite",
						"students()": "infinite",
						"update(uint256,string,uint8,uint8)": "infinite"
					}
				},
				"methodIdentifiers": {
					"Top_3_Achievers()": "0cf5867c",
					"checkStatus(uint8)": "d6d9a024",
					"count_of_students()": "492de27e",
					"register(uint256,string,uint256,string,uint8,uint8,uint256)": "6c581256",
					"retrieve(uint256)": "8f88708b",
					"studentMap(uint256)": "ceea3c78",
					"students()": "ecf944f8",
					"update(uint256,string,uint8,uint8)": "3e713726"
				}
			},
			"storageLayout": {
				"storage": [
					{
						"astId": 29,
						"contract": "contracts/08-8 del.sol:Student_Registration_System",
						"label": "students",
						"offset": 0,
						"slot": "0",
						"type": "t_struct(Student)26_storage"
					},
					{
						"astId": 34,
						"contract": "contracts/08-8 del.sol:Student_Registration_System",
						"label": "studentMap",
						"offset": 0,
						"slot": "5",
						"type": "t_mapping(t_uint256,t_struct(Student)26_storage)"
					}
				],
				"types": {
					"t_enum(Department)6": {
						"encoding": "inplace",
						"label": "enum Department",
						"numberOfBytes": "1"
					},
					"t_enum(Status)11": {
						"encoding": "inplace",
						"label": "enum Status",
						"numberOfBytes": "1"
					},
					"t_mapping(t_uint256,t_struct(Student)26_storage)": {
						"encoding": "mapping",
						"key": "t_uint256",
						"label": "mapping(uint256 => struct Student)",
						"numberOfBytes": "32",
						"value": "t_struct(Student)26_storage"
					},
					"t_string_storage": {
						"encoding": "bytes",
						"label": "string",
						"numberOfBytes": "32"
					},
					"t_struct(Student)26_storage": {
						"encoding": "inplace",
						"label": "struct Student",
						"members": [
							{
								"astId": 13,
								"contract": "contracts/08-8 del.sol:Student_Registration_System",
								"label": "name",
								"offset": 0,
								"slot": "0",
								"type": "t_string_storage"
							},
							{
								"astId": 15,
								"contract": "contracts/08-8 del.sol:Student_Registration_System",
								"label": "age",
								"offset": 0,
								"slot": "1",
								"type": "t_uint256"
							},
							{
								"astId": 17,
								"contract": "contracts/08-8 del.sol:Student_Registration_System",
								"label": "registrationDate",
								"offset": 0,
								"slot": "2",
								"type": "t_string_storage"
							},
							{
								"astId": 20,
								"contract": "contracts/08-8 del.sol:Student_Registration_System",
								"label": "department",
								"offset": 0,
								"slot": "3",
								"type": "t_enum(Department)6"
							},
							{
								"astId": 23,
								"contract": "contracts/08-8 del.sol:Student_Registration_System",
								"label": "status",
								"offset": 1,
								"slot": "3",
								"type": "t_enum(Status)11"
							},
							{
								"astId": 25,
								"contract": "contracts/08-8 del.sol:Student_Registration_System",
								"label": "obtainedMarks",
								"offset": 0,
								"slot": "4",
								"type": "t_uint256"
							}
						],
						"numberOfBytes": "160"
					},
					"t_uint256": {
						"encoding": "inplace",
						"label": "uint256",
						"numberOfBytes": "32"
					}
				}
			},
			"userdoc": {
				"kind": "user",
				"methods": {},
				"version": 1
			}
		}
	}
}