{
	"contracts/02-8 TicketBookingSystem.sol": {
		"TicketBookingSystem": {
			"abi": [
				{
					"inputs": [
						{
							"internalType": "string",
							"name": "_passenger",
							"type": "string"
						},
						{
							"internalType": "enum TicketBookingSystem.Days",
							"name": "_day",
							"type": "uint8"
						},
						{
							"internalType": "enum TicketBookingSystem.TicketType",
							"name": "_ticketType",
							"type": "uint8"
						}
					],
					"name": "bookTicket",
					"outputs": [],
					"stateMutability": "nonpayable",
					"type": "function"
				},
				{
					"inputs": [
						{
							"internalType": "uint256",
							"name": "_index",
							"type": "uint256"
						}
					],
					"name": "getTicketDay",
					"outputs": [
						{
							"internalType": "enum TicketBookingSystem.Days",
							"name": "",
							"type": "uint8"
						}
					],
					"stateMutability": "view",
					"type": "function"
				},
				{
					"inputs": [
						{
							"internalType": "uint256",
							"name": "_index",
							"type": "uint256"
						}
					],
					"name": "getTicketType",
					"outputs": [
						{
							"internalType": "enum TicketBookingSystem.TicketType",
							"name": "",
							"type": "uint8"
						}
					],
					"stateMutability": "view",
					"type": "function"
				},
				{
					"inputs": [
						{
							"internalType": "uint256",
							"name": "",
							"type": "uint256"
						}
					],
					"name": "ticket",
					"outputs": [
						{
							"internalType": "string",
							"name": "passenger",
							"type": "string"
						},
						{
							"internalType": "enum TicketBookingSystem.TicketType",
							"name": "ticketType",
							"type": "uint8"
						},
						{
							"internalType": "enum TicketBookingSystem.Days",
							"name": "day",
							"type": "uint8"
						},
						{
							"internalType": "bool",
							"name": "isBooked",
							"type": "bool"
						}
					],
					"stateMutability": "view",
					"type": "function"
				},
				{
					"inputs": [
						{
							"internalType": "uint256",
							"name": "_index",
							"type": "uint256"
						}
					],
					"name": "toggleStatus",
					"outputs": [],
					"stateMutability": "nonpayable",
					"type": "function"
				}
			],
			"devdoc": {
				"kind": "dev",
				"methods": {},
				"version": 1
			},
			"evm": {
				"assembly": "    /* \"contracts/02-8\\xc2\\xa0TicketBookingSystem.sol\":59:980  contract TicketBookingSystem{... */\n  mstore(0x40, 0x80)\n  callvalue\n  dup1\n  iszero\n  tag_1\n  jumpi\n  0x00\n  dup1\n  revert\ntag_1:\n  pop\n  dataSize(sub_0)\n  dup1\n  dataOffset(sub_0)\n  0x00\n  codecopy\n  0x00\n  return\nstop\n\nsub_0: assembly {\n        /* \"contracts/02-8\\xc2\\xa0TicketBookingSystem.sol\":59:980  contract TicketBookingSystem{... */\n      mstore(0x40, 0x80)\n      callvalue\n      dup1\n      iszero\n      tag_1\n      jumpi\n      0x00\n      dup1\n      revert\n    tag_1:\n      pop\n      jumpi(tag_2, lt(calldatasize, 0x04))\n      shr(0xe0, calldataload(0x00))\n      dup1\n      0x163e0f46\n      eq\n      tag_3\n      jumpi\n      dup1\n      0x51db2e76\n      eq\n      tag_4\n      jumpi\n      dup1\n      0x57f2f8ea\n      eq\n      tag_5\n      jumpi\n      dup1\n      0xb1d36506\n      eq\n      tag_6\n      jumpi\n      dup1\n      0xc129ff32\n      eq\n      tag_7\n      jumpi\n    tag_2:\n      0x00\n      dup1\n      revert\n        /* \"contracts/02-8\\xc2\\xa0TicketBookingSystem.sol\":583:724  function getTicketType(uint256 _index) public view returns(TicketType){... */\n    tag_3:\n      tag_8\n      0x04\n      dup1\n      calldatasize\n      sub\n      dup2\n      add\n      swap1\n      tag_9\n      swap2\n      swap1\n      tag_10\n      jump\t// in\n    tag_9:\n      tag_11\n      jump\t// in\n    tag_8:\n      mload(0x40)\n      tag_12\n      swap2\n      swap1\n      tag_13\n      jump\t// in\n    tag_12:\n      mload(0x40)\n      dup1\n      swap2\n      sub\n      swap1\n      return\n        /* \"contracts/02-8\\xc2\\xa0TicketBookingSystem.sol\":858:975  function toggleStatus(uint256 _index) public  {... */\n    tag_4:\n      tag_14\n      0x04\n      dup1\n      calldatasize\n      sub\n      dup2\n      add\n      swap1\n      tag_15\n      swap2\n      swap1\n      tag_10\n      jump\t// in\n    tag_15:\n      tag_16\n      jump\t// in\n    tag_14:\n      stop\n        /* \"contracts/02-8\\xc2\\xa0TicketBookingSystem.sol\":728:856  function getTicketDay(uint256 _index) public view returns (Days){... */\n    tag_5:\n      tag_17\n      0x04\n      dup1\n      calldatasize\n      sub\n      dup2\n      add\n      swap1\n      tag_18\n      swap2\n      swap1\n      tag_10\n      jump\t// in\n    tag_18:\n      tag_19\n      jump\t// in\n    tag_17:\n      mload(0x40)\n      tag_20\n      swap2\n      swap1\n      tag_21\n      jump\t// in\n    tag_20:\n      mload(0x40)\n      dup1\n      swap2\n      sub\n      swap1\n      return\n        /* \"contracts/02-8\\xc2\\xa0TicketBookingSystem.sol\":396:579  function bookTicket(string memory _passenger, Days _day, TicketType _ticketType) public{... */\n    tag_6:\n      tag_22\n      0x04\n      dup1\n      calldatasize\n      sub\n      dup2\n      add\n      swap1\n      tag_23\n      swap2\n      swap1\n      tag_24\n      jump\t// in\n    tag_23:\n      tag_25\n      jump\t// in\n    tag_22:\n      stop\n        /* \"contracts/02-8\\xc2\\xa0TicketBookingSystem.sol\":369:391  Ticket[] public ticket */\n    tag_7:\n      tag_26\n      0x04\n      dup1\n      calldatasize\n      sub\n      dup2\n      add\n      swap1\n      tag_27\n      swap2\n      swap1\n      tag_10\n      jump\t// in\n    tag_27:\n      tag_28\n      jump\t// in\n    tag_26:\n      mload(0x40)\n      tag_29\n      swap5\n      swap4\n      swap3\n      swap2\n      swap1\n      tag_30\n      jump\t// in\n    tag_29:\n      mload(0x40)\n      dup1\n      swap2\n      sub\n      swap1\n      return\n        /* \"contracts/02-8\\xc2\\xa0TicketBookingSystem.sol\":583:724  function getTicketType(uint256 _index) public view returns(TicketType){... */\n    tag_11:\n        /* \"contracts/02-8\\xc2\\xa0TicketBookingSystem.sol\":642:652  TicketType */\n      0x00\n        /* \"contracts/02-8\\xc2\\xa0TicketBookingSystem.sol\":660:676  Ticket memory ti */\n      dup1\n        /* \"contracts/02-8\\xc2\\xa0TicketBookingSystem.sol\":677:683  ticket */\n      0x00\n        /* \"contracts/02-8\\xc2\\xa0TicketBookingSystem.sol\":684:690  _index */\n      dup4\n        /* \"contracts/02-8\\xc2\\xa0TicketBookingSystem.sol\":677:691  ticket[_index] */\n      dup2\n      sload\n      dup2\n      lt\n      tag_32\n      jumpi\n      tag_33\n      tag_34\n      jump\t// in\n    tag_33:\n    tag_32:\n      swap1\n      0x00\n      mstore\n      keccak256(0x00, 0x20)\n      swap1\n      0x02\n      mul\n      add\n        /* \"contracts/02-8\\xc2\\xa0TicketBookingSystem.sol\":660:691  Ticket memory ti=ticket[_index] */\n      mload(0x40)\n      dup1\n      0x80\n      add\n      0x40\n      mstore\n      swap1\n      dup2\n      0x00\n      dup3\n      add\n      dup1\n      sload\n      tag_36\n      swap1\n      tag_37\n      jump\t// in\n    tag_36:\n      dup1\n      0x1f\n      add\n      0x20\n      dup1\n      swap2\n      div\n      mul\n      0x20\n      add\n      mload(0x40)\n      swap1\n      dup2\n      add\n      0x40\n      mstore\n      dup1\n      swap3\n      swap2\n      swap1\n      dup2\n      dup2\n      mstore\n      0x20\n      add\n      dup3\n      dup1\n      sload\n      tag_38\n      swap1\n      tag_37\n      jump\t// in\n    tag_38:\n      dup1\n      iszero\n      tag_39\n      jumpi\n      dup1\n      0x1f\n      lt\n      tag_40\n      jumpi\n      0x0100\n      dup1\n      dup4\n      sload\n      div\n      mul\n      dup4\n      mstore\n      swap2\n      0x20\n      add\n      swap2\n      jump(tag_39)\n    tag_40:\n      dup3\n      add\n      swap2\n      swap1\n      0x00\n      mstore\n      keccak256(0x00, 0x20)\n      swap1\n    tag_41:\n      dup2\n      sload\n      dup2\n      mstore\n      swap1\n      0x01\n      add\n      swap1\n      0x20\n      add\n      dup1\n      dup4\n      gt\n      tag_41\n      jumpi\n      dup3\n      swap1\n      sub\n      0x1f\n      and\n      dup3\n      add\n      swap2\n    tag_39:\n      pop\n      pop\n      pop\n      pop\n      pop\n      dup2\n      mstore\n      0x20\n      add\n      0x01\n      dup3\n      add\n      0x00\n      swap1\n      sload\n      swap1\n      0x0100\n      exp\n      swap1\n      div\n      0xff\n      and\n      0x02\n      dup2\n      gt\n      iszero\n      tag_42\n      jumpi\n      tag_43\n      tag_44\n      jump\t// in\n    tag_43:\n    tag_42:\n      0x02\n      dup2\n      gt\n      iszero\n      tag_45\n      jumpi\n      tag_46\n      tag_44\n      jump\t// in\n    tag_46:\n    tag_45:\n      dup2\n      mstore\n      0x20\n      add\n      0x01\n      dup3\n      add\n      0x01\n      swap1\n      sload\n      swap1\n      0x0100\n      exp\n      swap1\n      div\n      0xff\n      and\n      0x06\n      dup2\n      gt\n      iszero\n      tag_47\n      jumpi\n      tag_48\n      tag_44\n      jump\t// in\n    tag_48:\n    tag_47:\n      0x06\n      dup2\n      gt\n      iszero\n      tag_49\n      jumpi\n      tag_50\n      tag_44\n      jump\t// in\n    tag_50:\n    tag_49:\n      dup2\n      mstore\n      0x20\n      add\n      0x01\n      dup3\n      add\n      0x02\n      swap1\n      sload\n      swap1\n      0x0100\n      exp\n      swap1\n      div\n      0xff\n      and\n      iszero\n      iszero\n      iszero\n      iszero\n      dup2\n      mstore\n      pop\n      pop\n      swap1\n      pop\n        /* \"contracts/02-8\\xc2\\xa0TicketBookingSystem.sol\":706:708  ti */\n      dup1\n        /* \"contracts/02-8\\xc2\\xa0TicketBookingSystem.sol\":706:719  ti.ticketType */\n      0x20\n      add\n      mload\n        /* \"contracts/02-8\\xc2\\xa0TicketBookingSystem.sol\":698:720  return (ti.ticketType) */\n      swap2\n      pop\n      pop\n        /* \"contracts/02-8\\xc2\\xa0TicketBookingSystem.sol\":583:724  function getTicketType(uint256 _index) public view returns(TicketType){... */\n      swap2\n      swap1\n      pop\n      jump\t// out\n        /* \"contracts/02-8\\xc2\\xa0TicketBookingSystem.sol\":858:975  function toggleStatus(uint256 _index) public  {... */\n    tag_16:\n        /* \"contracts/02-8\\xc2\\xa0TicketBookingSystem.sol\":907:925  Ticket storage tik */\n      0x00\n        /* \"contracts/02-8\\xc2\\xa0TicketBookingSystem.sol\":926:932  ticket */\n      dup1\n        /* \"contracts/02-8\\xc2\\xa0TicketBookingSystem.sol\":933:939  _index */\n      dup3\n        /* \"contracts/02-8\\xc2\\xa0TicketBookingSystem.sol\":926:940  ticket[_index] */\n      dup2\n      sload\n      dup2\n      lt\n      tag_52\n      jumpi\n      tag_53\n      tag_34\n      jump\t// in\n    tag_53:\n    tag_52:\n      swap1\n      0x00\n      mstore\n      keccak256(0x00, 0x20)\n      swap1\n      0x02\n      mul\n      add\n        /* \"contracts/02-8\\xc2\\xa0TicketBookingSystem.sol\":907:940  Ticket storage tik=ticket[_index] */\n      swap1\n      pop\n        /* \"contracts/02-8\\xc2\\xa0TicketBookingSystem.sol\":957:960  tik */\n      dup1\n        /* \"contracts/02-8\\xc2\\xa0TicketBookingSystem.sol\":957:969  tik.isBooked */\n      0x01\n      add\n      0x02\n      swap1\n      sload\n      swap1\n      0x0100\n      exp\n      swap1\n      div\n      0xff\n      and\n        /* \"contracts/02-8\\xc2\\xa0TicketBookingSystem.sol\":956:969  !tik.isBooked */\n      iszero\n        /* \"contracts/02-8\\xc2\\xa0TicketBookingSystem.sol\":943:946  tik */\n      dup2\n        /* \"contracts/02-8\\xc2\\xa0TicketBookingSystem.sol\":943:955  tik.isBooked */\n      0x01\n      add\n      0x02\n        /* \"contracts/02-8\\xc2\\xa0TicketBookingSystem.sol\":943:969  tik.isBooked=!tik.isBooked */\n      0x0100\n      exp\n      dup2\n      sload\n      dup2\n      0xff\n      mul\n      not\n      and\n      swap1\n      dup4\n      iszero\n      iszero\n      mul\n      or\n      swap1\n      sstore\n      pop\n        /* \"contracts/02-8\\xc2\\xa0TicketBookingSystem.sol\":904:975  {... */\n      pop\n        /* \"contracts/02-8\\xc2\\xa0TicketBookingSystem.sol\":858:975  function toggleStatus(uint256 _index) public  {... */\n      pop\n      jump\t// out\n        /* \"contracts/02-8\\xc2\\xa0TicketBookingSystem.sol\":728:856  function getTicketDay(uint256 _index) public view returns (Days){... */\n    tag_19:\n        /* \"contracts/02-8\\xc2\\xa0TicketBookingSystem.sol\":787:791  Days */\n      0x00\n        /* \"contracts/02-8\\xc2\\xa0TicketBookingSystem.sol\":799:815  Ticket memory ti */\n      dup1\n        /* \"contracts/02-8\\xc2\\xa0TicketBookingSystem.sol\":816:822  ticket */\n      0x00\n        /* \"contracts/02-8\\xc2\\xa0TicketBookingSystem.sol\":823:829  _index */\n      dup4\n        /* \"contracts/02-8\\xc2\\xa0TicketBookingSystem.sol\":816:830  ticket[_index] */\n      dup2\n      sload\n      dup2\n      lt\n      tag_56\n      jumpi\n      tag_57\n      tag_34\n      jump\t// in\n    tag_57:\n    tag_56:\n      swap1\n      0x00\n      mstore\n      keccak256(0x00, 0x20)\n      swap1\n      0x02\n      mul\n      add\n        /* \"contracts/02-8\\xc2\\xa0TicketBookingSystem.sol\":799:830  Ticket memory ti=ticket[_index] */\n      mload(0x40)\n      dup1\n      0x80\n      add\n      0x40\n      mstore\n      swap1\n      dup2\n      0x00\n      dup3\n      add\n      dup1\n      sload\n      tag_59\n      swap1\n      tag_37\n      jump\t// in\n    tag_59:\n      dup1\n      0x1f\n      add\n      0x20\n      dup1\n      swap2\n      div\n      mul\n      0x20\n      add\n      mload(0x40)\n      swap1\n      dup2\n      add\n      0x40\n      mstore\n      dup1\n      swap3\n      swap2\n      swap1\n      dup2\n      dup2\n      mstore\n      0x20\n      add\n      dup3\n      dup1\n      sload\n      tag_60\n      swap1\n      tag_37\n      jump\t// in\n    tag_60:\n      dup1\n      iszero\n      tag_61\n      jumpi\n      dup1\n      0x1f\n      lt\n      tag_62\n      jumpi\n      0x0100\n      dup1\n      dup4\n      sload\n      div\n      mul\n      dup4\n      mstore\n      swap2\n      0x20\n      add\n      swap2\n      jump(tag_61)\n    tag_62:\n      dup3\n      add\n      swap2\n      swap1\n      0x00\n      mstore\n      keccak256(0x00, 0x20)\n      swap1\n    tag_63:\n      dup2\n      sload\n      dup2\n      mstore\n      swap1\n      0x01\n      add\n      swap1\n      0x20\n      add\n      dup1\n      dup4\n      gt\n      tag_63\n      jumpi\n      dup3\n      swap1\n      sub\n      0x1f\n      and\n      dup3\n      add\n      swap2\n    tag_61:\n      pop\n      pop\n      pop\n      pop\n      pop\n      dup2\n      mstore\n      0x20\n      add\n      0x01\n      dup3\n      add\n      0x00\n      swap1\n      sload\n      swap1\n      0x0100\n      exp\n      swap1\n      div\n      0xff\n      and\n      0x02\n      dup2\n      gt\n      iszero\n      tag_64\n      jumpi\n      tag_65\n      tag_44\n      jump\t// in\n    tag_65:\n    tag_64:\n      0x02\n      dup2\n      gt\n      iszero\n      tag_66\n      jumpi\n      tag_67\n      tag_44\n      jump\t// in\n    tag_67:\n    tag_66:\n      dup2\n      mstore\n      0x20\n      add\n      0x01\n      dup3\n      add\n      0x01\n      swap1\n      sload\n      swap1\n      0x0100\n      exp\n      swap1\n      div\n      0xff\n      and\n      0x06\n      dup2\n      gt\n      iszero\n      tag_68\n      jumpi\n      tag_69\n      tag_44\n      jump\t// in\n    tag_69:\n    tag_68:\n      0x06\n      dup2\n      gt\n      iszero\n      tag_70\n      jumpi\n      tag_71\n      tag_44\n      jump\t// in\n    tag_71:\n    tag_70:\n      dup2\n      mstore\n      0x20\n      add\n      0x01\n      dup3\n      add\n      0x02\n      swap1\n      sload\n      swap1\n      0x0100\n      exp\n      swap1\n      div\n      0xff\n      and\n      iszero\n      iszero\n      iszero\n      iszero\n      dup2\n      mstore\n      pop\n      pop\n      swap1\n      pop\n        /* \"contracts/02-8\\xc2\\xa0TicketBookingSystem.sol\":845:847  ti */\n      dup1\n        /* \"contracts/02-8\\xc2\\xa0TicketBookingSystem.sol\":845:851  ti.day */\n      0x40\n      add\n      mload\n        /* \"contracts/02-8\\xc2\\xa0TicketBookingSystem.sol\":837:852  return (ti.day) */\n      swap2\n      pop\n      pop\n        /* \"contracts/02-8\\xc2\\xa0TicketBookingSystem.sol\":728:856  function getTicketDay(uint256 _index) public view returns (Days){... */\n      swap2\n      swap1\n      pop\n      jump\t// out\n        /* \"contracts/02-8\\xc2\\xa0TicketBookingSystem.sol\":396:579  function bookTicket(string memory _passenger, Days _day, TicketType _ticketType) public{... */\n    tag_25:\n        /* \"contracts/02-8\\xc2\\xa0TicketBookingSystem.sol\":486:492  ticket */\n      0x00\n        /* \"contracts/02-8\\xc2\\xa0TicketBookingSystem.sol\":498:574  Ticket({passenger:_passenger,day:_day,ticketType:_ticketType,isBooked:true}) */\n      mload(0x40)\n      dup1\n      0x80\n      add\n      0x40\n      mstore\n      dup1\n        /* \"contracts/02-8\\xc2\\xa0TicketBookingSystem.sol\":516:526  _passenger */\n      dup6\n        /* \"contracts/02-8\\xc2\\xa0TicketBookingSystem.sol\":498:574  Ticket({passenger:_passenger,day:_day,ticketType:_ticketType,isBooked:true}) */\n      dup2\n      mstore\n      0x20\n      add\n        /* \"contracts/02-8\\xc2\\xa0TicketBookingSystem.sol\":547:558  _ticketType */\n      dup4\n        /* \"contracts/02-8\\xc2\\xa0TicketBookingSystem.sol\":498:574  Ticket({passenger:_passenger,day:_day,ticketType:_ticketType,isBooked:true}) */\n      0x02\n      dup2\n      gt\n      iszero\n      tag_73\n      jumpi\n      tag_74\n      tag_44\n      jump\t// in\n    tag_74:\n    tag_73:\n      dup2\n      mstore\n      0x20\n      add\n        /* \"contracts/02-8\\xc2\\xa0TicketBookingSystem.sol\":531:535  _day */\n      dup5\n        /* \"contracts/02-8\\xc2\\xa0TicketBookingSystem.sol\":498:574  Ticket({passenger:_passenger,day:_day,ticketType:_ticketType,isBooked:true}) */\n      0x06\n      dup2\n      gt\n      iszero\n      tag_75\n      jumpi\n      tag_76\n      tag_44\n      jump\t// in\n    tag_76:\n    tag_75:\n      dup2\n      mstore\n      0x20\n      add\n        /* \"contracts/02-8\\xc2\\xa0TicketBookingSystem.sol\":568:572  true */\n      0x01\n        /* \"contracts/02-8\\xc2\\xa0TicketBookingSystem.sol\":498:574  Ticket({passenger:_passenger,day:_day,ticketType:_ticketType,isBooked:true}) */\n      iszero\n      iszero\n      dup2\n      mstore\n      pop\n        /* \"contracts/02-8\\xc2\\xa0TicketBookingSystem.sol\":486:575  ticket.push(Ticket({passenger:_passenger,day:_day,ticketType:_ticketType,isBooked:true})) */\n      swap1\n      dup1\n      0x01\n      dup2\n      sload\n      add\n      dup1\n      dup3\n      sstore\n      dup1\n      swap2\n      pop\n      pop\n      0x01\n      swap1\n      sub\n      swap1\n      0x00\n      mstore\n      keccak256(0x00, 0x20)\n      swap1\n      0x02\n      mul\n      add\n      0x00\n      swap1\n      swap2\n      swap1\n      swap2\n      swap1\n      swap2\n      pop\n      0x00\n      dup3\n      add\n      mload\n      dup2\n      0x00\n      add\n      swap1\n      dup2\n      tag_78\n      swap2\n      swap1\n      tag_79\n      jump\t// in\n    tag_78:\n      pop\n      0x20\n      dup3\n      add\n      mload\n      dup2\n      0x01\n      add\n      exp(0x0100, 0x00)\n      dup2\n      sload\n      dup2\n      0xff\n      mul\n      not\n      and\n      swap1\n      dup4\n      0x02\n      dup2\n      gt\n      iszero\n      tag_80\n      jumpi\n      tag_81\n      tag_44\n      jump\t// in\n    tag_81:\n    tag_80:\n      mul\n      or\n      swap1\n      sstore\n      pop\n      0x40\n      dup3\n      add\n      mload\n      dup2\n      0x01\n      add\n      exp(0x0100, 0x01)\n      dup2\n      sload\n      dup2\n      0xff\n      mul\n      not\n      and\n      swap1\n      dup4\n      0x06\n      dup2\n      gt\n      iszero\n      tag_82\n      jumpi\n      tag_83\n      tag_44\n      jump\t// in\n    tag_83:\n    tag_82:\n      mul\n      or\n      swap1\n      sstore\n      pop\n      0x60\n      dup3\n      add\n      mload\n      dup2\n      0x01\n      add\n      exp(0x0100, 0x02)\n      dup2\n      sload\n      dup2\n      0xff\n      mul\n      not\n      and\n      swap1\n      dup4\n      iszero\n      iszero\n      mul\n      or\n      swap1\n      sstore\n      pop\n      pop\n      pop\n        /* \"contracts/02-8\\xc2\\xa0TicketBookingSystem.sol\":396:579  function bookTicket(string memory _passenger, Days _day, TicketType _ticketType) public{... */\n      pop\n      pop\n      pop\n      jump\t// out\n        /* \"contracts/02-8\\xc2\\xa0TicketBookingSystem.sol\":369:391  Ticket[] public ticket */\n    tag_28:\n      0x00\n      dup2\n      dup2\n      sload\n      dup2\n      lt\n      tag_84\n      jumpi\n      0x00\n      dup1\n      revert\n    tag_84:\n      swap1\n      0x00\n      mstore\n      keccak256(0x00, 0x20)\n      swap1\n      0x02\n      mul\n      add\n      0x00\n      swap2\n      pop\n      swap1\n      pop\n      dup1\n      0x00\n      add\n      dup1\n      sload\n      tag_86\n      swap1\n      tag_37\n      jump\t// in\n    tag_86:\n      dup1\n      0x1f\n      add\n      0x20\n      dup1\n      swap2\n      div\n      mul\n      0x20\n      add\n      mload(0x40)\n      swap1\n      dup2\n      add\n      0x40\n      mstore\n      dup1\n      swap3\n      swap2\n      swap1\n      dup2\n      dup2\n      mstore\n      0x20\n      add\n      dup3\n      dup1\n      sload\n      tag_87\n      swap1\n      tag_37\n      jump\t// in\n    tag_87:\n      dup1\n      iszero\n      tag_88\n      jumpi\n      dup1\n      0x1f\n      lt\n      tag_89\n      jumpi\n      0x0100\n      dup1\n      dup4\n      sload\n      div\n      mul\n      dup4\n      mstore\n      swap2\n      0x20\n      add\n      swap2\n      jump(tag_88)\n    tag_89:\n      dup3\n      add\n      swap2\n      swap1\n      0x00\n      mstore\n      keccak256(0x00, 0x20)\n      swap1\n    tag_90:\n      dup2\n      sload\n      dup2\n      mstore\n      swap1\n      0x01\n      add\n      swap1\n      0x20\n      add\n      dup1\n      dup4\n      gt\n      tag_90\n      jumpi\n      dup3\n      swap1\n      sub\n      0x1f\n      and\n      dup3\n      add\n      swap2\n    tag_88:\n      pop\n      pop\n      pop\n      pop\n      pop\n      swap1\n      dup1\n      0x01\n      add\n      0x00\n      swap1\n      sload\n      swap1\n      0x0100\n      exp\n      swap1\n      div\n      0xff\n      and\n      swap1\n      dup1\n      0x01\n      add\n      0x01\n      swap1\n      sload\n      swap1\n      0x0100\n      exp\n      swap1\n      div\n      0xff\n      and\n      swap1\n      dup1\n      0x01\n      add\n      0x02\n      swap1\n      sload\n      swap1\n      0x0100\n      exp\n      swap1\n      div\n      0xff\n      and\n      swap1\n      pop\n      dup5\n      jump\t// out\n        /* \"#utility.yul\":7:82   */\n    tag_91:\n        /* \"#utility.yul\":40:46   */\n      0x00\n        /* \"#utility.yul\":73:75   */\n      0x40\n        /* \"#utility.yul\":67:76   */\n      mload\n        /* \"#utility.yul\":57:76   */\n      swap1\n      pop\n        /* \"#utility.yul\":7:82   */\n      swap1\n      jump\t// out\n        /* \"#utility.yul\":88:205   */\n    tag_92:\n        /* \"#utility.yul\":197:198   */\n      0x00\n        /* \"#utility.yul\":194:195   */\n      dup1\n        /* \"#utility.yul\":187:199   */\n      revert\n        /* \"#utility.yul\":211:328   */\n    tag_93:\n        /* \"#utility.yul\":320:321   */\n      0x00\n        /* \"#utility.yul\":317:318   */\n      dup1\n        /* \"#utility.yul\":310:322   */\n      revert\n        /* \"#utility.yul\":334:411   */\n    tag_94:\n        /* \"#utility.yul\":371:378   */\n      0x00\n        /* \"#utility.yul\":400:405   */\n      dup2\n        /* \"#utility.yul\":389:405   */\n      swap1\n      pop\n        /* \"#utility.yul\":334:411   */\n      swap2\n      swap1\n      pop\n      jump\t// out\n        /* \"#utility.yul\":417:539   */\n    tag_95:\n        /* \"#utility.yul\":490:514   */\n      tag_147\n        /* \"#utility.yul\":508:513   */\n      dup2\n        /* \"#utility.yul\":490:514   */\n      tag_94\n      jump\t// in\n    tag_147:\n        /* \"#utility.yul\":483:488   */\n      dup2\n        /* \"#utility.yul\":480:515   */\n      eq\n        /* \"#utility.yul\":470:533   */\n      tag_148\n      jumpi\n        /* \"#utility.yul\":529:530   */\n      0x00\n        /* \"#utility.yul\":526:527   */\n      dup1\n        /* \"#utility.yul\":519:531   */\n      revert\n        /* \"#utility.yul\":470:533   */\n    tag_148:\n        /* \"#utility.yul\":417:539   */\n      pop\n      jump\t// out\n        /* \"#utility.yul\":545:684   */\n    tag_96:\n        /* \"#utility.yul\":591:596   */\n      0x00\n        /* \"#utility.yul\":629:635   */\n      dup2\n        /* \"#utility.yul\":616:636   */\n      calldataload\n        /* \"#utility.yul\":607:636   */\n      swap1\n      pop\n        /* \"#utility.yul\":645:678   */\n      tag_150\n        /* \"#utility.yul\":672:677   */\n      dup2\n        /* \"#utility.yul\":645:678   */\n      tag_95\n      jump\t// in\n    tag_150:\n        /* \"#utility.yul\":545:684   */\n      swap3\n      swap2\n      pop\n      pop\n      jump\t// out\n        /* \"#utility.yul\":690:1019   */\n    tag_10:\n        /* \"#utility.yul\":749:755   */\n      0x00\n        /* \"#utility.yul\":798:800   */\n      0x20\n        /* \"#utility.yul\":786:795   */\n      dup3\n        /* \"#utility.yul\":777:784   */\n      dup5\n        /* \"#utility.yul\":773:796   */\n      sub\n        /* \"#utility.yul\":769:801   */\n      slt\n        /* \"#utility.yul\":766:885   */\n      iszero\n      tag_152\n      jumpi\n        /* \"#utility.yul\":804:883   */\n      tag_153\n      tag_92\n      jump\t// in\n    tag_153:\n        /* \"#utility.yul\":766:885   */\n    tag_152:\n        /* \"#utility.yul\":924:925   */\n      0x00\n        /* \"#utility.yul\":949:1002   */\n      tag_154\n        /* \"#utility.yul\":994:1001   */\n      dup5\n        /* \"#utility.yul\":985:991   */\n      dup3\n        /* \"#utility.yul\":974:983   */\n      dup6\n        /* \"#utility.yul\":970:992   */\n      add\n        /* \"#utility.yul\":949:1002   */\n      tag_96\n      jump\t// in\n    tag_154:\n        /* \"#utility.yul\":939:1002   */\n      swap2\n      pop\n        /* \"#utility.yul\":895:1012   */\n      pop\n        /* \"#utility.yul\":690:1019   */\n      swap3\n      swap2\n      pop\n      pop\n      jump\t// out\n        /* \"#utility.yul\":1025:1205   */\n    tag_44:\n        /* \"#utility.yul\":1073:1150   */\n      0x4e487b7100000000000000000000000000000000000000000000000000000000\n        /* \"#utility.yul\":1070:1071   */\n      0x00\n        /* \"#utility.yul\":1063:1151   */\n      mstore\n        /* \"#utility.yul\":1170:1174   */\n      0x21\n        /* \"#utility.yul\":1167:1168   */\n      0x04\n        /* \"#utility.yul\":1160:1175   */\n      mstore\n        /* \"#utility.yul\":1194:1198   */\n      0x24\n        /* \"#utility.yul\":1191:1192   */\n      0x00\n        /* \"#utility.yul\":1184:1199   */\n      revert\n        /* \"#utility.yul\":1211:1328   */\n    tag_97:\n        /* \"#utility.yul\":1296:1297   */\n      0x03\n        /* \"#utility.yul\":1289:1294   */\n      dup2\n        /* \"#utility.yul\":1286:1298   */\n      lt\n        /* \"#utility.yul\":1276:1322   */\n      tag_157\n      jumpi\n        /* \"#utility.yul\":1302:1320   */\n      tag_158\n      tag_44\n      jump\t// in\n    tag_158:\n        /* \"#utility.yul\":1276:1322   */\n    tag_157:\n        /* \"#utility.yul\":1211:1328   */\n      pop\n      jump\t// out\n        /* \"#utility.yul\":1334:1469   */\n    tag_98:\n        /* \"#utility.yul\":1383:1390   */\n      0x00\n        /* \"#utility.yul\":1412:1417   */\n      dup2\n        /* \"#utility.yul\":1401:1417   */\n      swap1\n      pop\n        /* \"#utility.yul\":1418:1463   */\n      tag_160\n        /* \"#utility.yul\":1457:1462   */\n      dup3\n        /* \"#utility.yul\":1418:1463   */\n      tag_97\n      jump\t// in\n    tag_160:\n        /* \"#utility.yul\":1334:1469   */\n      swap2\n      swap1\n      pop\n      jump\t// out\n        /* \"#utility.yul\":1475:1610   */\n    tag_99:\n        /* \"#utility.yul\":1535:1544   */\n      0x00\n        /* \"#utility.yul\":1568:1604   */\n      tag_162\n        /* \"#utility.yul\":1598:1603   */\n      dup3\n        /* \"#utility.yul\":1568:1604   */\n      tag_98\n      jump\t// in\n    tag_162:\n        /* \"#utility.yul\":1555:1604   */\n      swap1\n      pop\n        /* \"#utility.yul\":1475:1610   */\n      swap2\n      swap1\n      pop\n      jump\t// out\n        /* \"#utility.yul\":1616:1767   */\n    tag_100:\n        /* \"#utility.yul\":1713:1760   */\n      tag_164\n        /* \"#utility.yul\":1754:1759   */\n      dup2\n        /* \"#utility.yul\":1713:1760   */\n      tag_99\n      jump\t// in\n    tag_164:\n        /* \"#utility.yul\":1708:1711   */\n      dup3\n        /* \"#utility.yul\":1701:1761   */\n      mstore\n        /* \"#utility.yul\":1616:1767   */\n      pop\n      pop\n      jump\t// out\n        /* \"#utility.yul\":1773:2015   */\n    tag_13:\n        /* \"#utility.yul\":1876:1880   */\n      0x00\n        /* \"#utility.yul\":1914:1916   */\n      0x20\n        /* \"#utility.yul\":1903:1912   */\n      dup3\n        /* \"#utility.yul\":1899:1917   */\n      add\n        /* \"#utility.yul\":1891:1917   */\n      swap1\n      pop\n        /* \"#utility.yul\":1927:2008   */\n      tag_166\n        /* \"#utility.yul\":2005:2006   */\n      0x00\n        /* \"#utility.yul\":1994:2003   */\n      dup4\n        /* \"#utility.yul\":1990:2007   */\n      add\n        /* \"#utility.yul\":1981:1987   */\n      dup5\n        /* \"#utility.yul\":1927:2008   */\n      tag_100\n      jump\t// in\n    tag_166:\n        /* \"#utility.yul\":1773:2015   */\n      swap3\n      swap2\n      pop\n      pop\n      jump\t// out\n        /* \"#utility.yul\":2021:2133   */\n    tag_101:\n        /* \"#utility.yul\":2101:2102   */\n      0x07\n        /* \"#utility.yul\":2094:2099   */\n      dup2\n        /* \"#utility.yul\":2091:2103   */\n      lt\n        /* \"#utility.yul\":2081:2127   */\n      tag_168\n      jumpi\n        /* \"#utility.yul\":2107:2125   */\n      tag_169\n      tag_44\n      jump\t// in\n    tag_169:\n        /* \"#utility.yul\":2081:2127   */\n    tag_168:\n        /* \"#utility.yul\":2021:2133   */\n      pop\n      jump\t// out\n        /* \"#utility.yul\":2139:2264   */\n    tag_102:\n        /* \"#utility.yul\":2183:2190   */\n      0x00\n        /* \"#utility.yul\":2212:2217   */\n      dup2\n        /* \"#utility.yul\":2201:2217   */\n      swap1\n      pop\n        /* \"#utility.yul\":2218:2258   */\n      tag_171\n        /* \"#utility.yul\":2252:2257   */\n      dup3\n        /* \"#utility.yul\":2218:2258   */\n      tag_101\n      jump\t// in\n    tag_171:\n        /* \"#utility.yul\":2139:2264   */\n      swap2\n      swap1\n      pop\n      jump\t// out\n        /* \"#utility.yul\":2270:2395   */\n    tag_103:\n        /* \"#utility.yul\":2325:2334   */\n      0x00\n        /* \"#utility.yul\":2358:2389   */\n      tag_173\n        /* \"#utility.yul\":2383:2388   */\n      dup3\n        /* \"#utility.yul\":2358:2389   */\n      tag_102\n      jump\t// in\n    tag_173:\n        /* \"#utility.yul\":2345:2389   */\n      swap1\n      pop\n        /* \"#utility.yul\":2270:2395   */\n      swap2\n      swap1\n      pop\n      jump\t// out\n        /* \"#utility.yul\":2401:2542   */\n    tag_104:\n        /* \"#utility.yul\":2493:2535   */\n      tag_175\n        /* \"#utility.yul\":2529:2534   */\n      dup2\n        /* \"#utility.yul\":2493:2535   */\n      tag_103\n      jump\t// in\n    tag_175:\n        /* \"#utility.yul\":2488:2491   */\n      dup3\n        /* \"#utility.yul\":2481:2536   */\n      mstore\n        /* \"#utility.yul\":2401:2542   */\n      pop\n      pop\n      jump\t// out\n        /* \"#utility.yul\":2548:2780   */\n    tag_21:\n        /* \"#utility.yul\":2646:2650   */\n      0x00\n        /* \"#utility.yul\":2684:2686   */\n      0x20\n        /* \"#utility.yul\":2673:2682   */\n      dup3\n        /* \"#utility.yul\":2669:2687   */\n      add\n        /* \"#utility.yul\":2661:2687   */\n      swap1\n      pop\n        /* \"#utility.yul\":2697:2773   */\n      tag_177\n        /* \"#utility.yul\":2770:2771   */\n      0x00\n        /* \"#utility.yul\":2759:2768   */\n      dup4\n        /* \"#utility.yul\":2755:2772   */\n      add\n        /* \"#utility.yul\":2746:2752   */\n      dup5\n        /* \"#utility.yul\":2697:2773   */\n      tag_104\n      jump\t// in\n    tag_177:\n        /* \"#utility.yul\":2548:2780   */\n      swap3\n      swap2\n      pop\n      pop\n      jump\t// out\n        /* \"#utility.yul\":2786:2903   */\n    tag_105:\n        /* \"#utility.yul\":2895:2896   */\n      0x00\n        /* \"#utility.yul\":2892:2893   */\n      dup1\n        /* \"#utility.yul\":2885:2897   */\n      revert\n        /* \"#utility.yul\":2909:3026   */\n    tag_106:\n        /* \"#utility.yul\":3018:3019   */\n      0x00\n        /* \"#utility.yul\":3015:3016   */\n      dup1\n        /* \"#utility.yul\":3008:3020   */\n      revert\n        /* \"#utility.yul\":3032:3134   */\n    tag_107:\n        /* \"#utility.yul\":3073:3079   */\n      0x00\n        /* \"#utility.yul\":3124:3126   */\n      0x1f\n        /* \"#utility.yul\":3120:3127   */\n      not\n        /* \"#utility.yul\":3115:3117   */\n      0x1f\n        /* \"#utility.yul\":3108:3113   */\n      dup4\n        /* \"#utility.yul\":3104:3118   */\n      add\n        /* \"#utility.yul\":3100:3128   */\n      and\n        /* \"#utility.yul\":3090:3128   */\n      swap1\n      pop\n        /* \"#utility.yul\":3032:3134   */\n      swap2\n      swap1\n      pop\n      jump\t// out\n        /* \"#utility.yul\":3140:3320   */\n    tag_108:\n        /* \"#utility.yul\":3188:3265   */\n      0x4e487b7100000000000000000000000000000000000000000000000000000000\n        /* \"#utility.yul\":3185:3186   */\n      0x00\n        /* \"#utility.yul\":3178:3266   */\n      mstore\n        /* \"#utility.yul\":3285:3289   */\n      0x41\n        /* \"#utility.yul\":3282:3283   */\n      0x04\n        /* \"#utility.yul\":3275:3290   */\n      mstore\n        /* \"#utility.yul\":3309:3313   */\n      0x24\n        /* \"#utility.yul\":3306:3307   */\n      0x00\n        /* \"#utility.yul\":3299:3314   */\n      revert\n        /* \"#utility.yul\":3326:3607   */\n    tag_109:\n        /* \"#utility.yul\":3409:3436   */\n      tag_183\n        /* \"#utility.yul\":3431:3435   */\n      dup3\n        /* \"#utility.yul\":3409:3436   */\n      tag_107\n      jump\t// in\n    tag_183:\n        /* \"#utility.yul\":3401:3407   */\n      dup2\n        /* \"#utility.yul\":3397:3437   */\n      add\n        /* \"#utility.yul\":3539:3545   */\n      dup2\n        /* \"#utility.yul\":3527:3537   */\n      dup2\n        /* \"#utility.yul\":3524:3546   */\n      lt\n        /* \"#utility.yul\":3503:3521   */\n      0xffffffffffffffff\n        /* \"#utility.yul\":3491:3501   */\n      dup3\n        /* \"#utility.yul\":3488:3522   */\n      gt\n        /* \"#utility.yul\":3485:3547   */\n      or\n        /* \"#utility.yul\":3482:3570   */\n      iszero\n      tag_184\n      jumpi\n        /* \"#utility.yul\":3550:3568   */\n      tag_185\n      tag_108\n      jump\t// in\n    tag_185:\n        /* \"#utility.yul\":3482:3570   */\n    tag_184:\n        /* \"#utility.yul\":3590:3600   */\n      dup1\n        /* \"#utility.yul\":3586:3588   */\n      0x40\n        /* \"#utility.yul\":3579:3601   */\n      mstore\n        /* \"#utility.yul\":3369:3607   */\n      pop\n        /* \"#utility.yul\":3326:3607   */\n      pop\n      pop\n      jump\t// out\n        /* \"#utility.yul\":3613:3742   */\n    tag_110:\n        /* \"#utility.yul\":3647:3653   */\n      0x00\n        /* \"#utility.yul\":3674:3694   */\n      tag_187\n      tag_91\n      jump\t// in\n    tag_187:\n        /* \"#utility.yul\":3664:3694   */\n      swap1\n      pop\n        /* \"#utility.yul\":3703:3736   */\n      tag_188\n        /* \"#utility.yul\":3731:3735   */\n      dup3\n        /* \"#utility.yul\":3723:3729   */\n      dup3\n        /* \"#utility.yul\":3703:3736   */\n      tag_109\n      jump\t// in\n    tag_188:\n        /* \"#utility.yul\":3613:3742   */\n      swap2\n      swap1\n      pop\n      jump\t// out\n        /* \"#utility.yul\":3748:4056   */\n    tag_111:\n        /* \"#utility.yul\":3810:3814   */\n      0x00\n        /* \"#utility.yul\":3900:3918   */\n      0xffffffffffffffff\n        /* \"#utility.yul\":3892:3898   */\n      dup3\n        /* \"#utility.yul\":3889:3919   */\n      gt\n        /* \"#utility.yul\":3886:3942   */\n      iszero\n      tag_190\n      jumpi\n        /* \"#utility.yul\":3922:3940   */\n      tag_191\n      tag_108\n      jump\t// in\n    tag_191:\n        /* \"#utility.yul\":3886:3942   */\n    tag_190:\n        /* \"#utility.yul\":3960:3989   */\n      tag_192\n        /* \"#utility.yul\":3982:3988   */\n      dup3\n        /* \"#utility.yul\":3960:3989   */\n      tag_107\n      jump\t// in\n    tag_192:\n        /* \"#utility.yul\":3952:3989   */\n      swap1\n      pop\n        /* \"#utility.yul\":4044:4048   */\n      0x20\n        /* \"#utility.yul\":4038:4042   */\n      dup2\n        /* \"#utility.yul\":4034:4049   */\n      add\n        /* \"#utility.yul\":4026:4049   */\n      swap1\n      pop\n        /* \"#utility.yul\":3748:4056   */\n      swap2\n      swap1\n      pop\n      jump\t// out\n        /* \"#utility.yul\":4062:4208   */\n    tag_112:\n        /* \"#utility.yul\":4159:4165   */\n      dup3\n        /* \"#utility.yul\":4154:4157   */\n      dup2\n        /* \"#utility.yul\":4149:4152   */\n      dup4\n        /* \"#utility.yul\":4136:4166   */\n      calldatacopy\n        /* \"#utility.yul\":4200:4201   */\n      0x00\n        /* \"#utility.yul\":4191:4197   */\n      dup4\n        /* \"#utility.yul\":4186:4189   */\n      dup4\n        /* \"#utility.yul\":4182:4198   */\n      add\n        /* \"#utility.yul\":4175:4202   */\n      mstore\n        /* \"#utility.yul\":4062:4208   */\n      pop\n      pop\n      pop\n      jump\t// out\n        /* \"#utility.yul\":4214:4639   */\n    tag_113:\n        /* \"#utility.yul\":4292:4297   */\n      0x00\n        /* \"#utility.yul\":4317:4383   */\n      tag_195\n        /* \"#utility.yul\":4333:4382   */\n      tag_196\n        /* \"#utility.yul\":4375:4381   */\n      dup5\n        /* \"#utility.yul\":4333:4382   */\n      tag_111\n      jump\t// in\n    tag_196:\n        /* \"#utility.yul\":4317:4383   */\n      tag_110\n      jump\t// in\n    tag_195:\n        /* \"#utility.yul\":4308:4383   */\n      swap1\n      pop\n        /* \"#utility.yul\":4406:4412   */\n      dup3\n        /* \"#utility.yul\":4399:4404   */\n      dup2\n        /* \"#utility.yul\":4392:4413   */\n      mstore\n        /* \"#utility.yul\":4444:4448   */\n      0x20\n        /* \"#utility.yul\":4437:4442   */\n      dup2\n        /* \"#utility.yul\":4433:4449   */\n      add\n        /* \"#utility.yul\":4482:4485   */\n      dup5\n        /* \"#utility.yul\":4473:4479   */\n      dup5\n        /* \"#utility.yul\":4468:4471   */\n      dup5\n        /* \"#utility.yul\":4464:4480   */\n      add\n        /* \"#utility.yul\":4461:4486   */\n      gt\n        /* \"#utility.yul\":4458:4570   */\n      iszero\n      tag_197\n      jumpi\n        /* \"#utility.yul\":4489:4568   */\n      tag_198\n      tag_106\n      jump\t// in\n    tag_198:\n        /* \"#utility.yul\":4458:4570   */\n    tag_197:\n        /* \"#utility.yul\":4579:4633   */\n      tag_199\n        /* \"#utility.yul\":4626:4632   */\n      dup5\n        /* \"#utility.yul\":4621:4624   */\n      dup3\n        /* \"#utility.yul\":4616:4619   */\n      dup6\n        /* \"#utility.yul\":4579:4633   */\n      tag_112\n      jump\t// in\n    tag_199:\n        /* \"#utility.yul\":4298:4639   */\n      pop\n        /* \"#utility.yul\":4214:4639   */\n      swap4\n      swap3\n      pop\n      pop\n      pop\n      jump\t// out\n        /* \"#utility.yul\":4659:4999   */\n    tag_114:\n        /* \"#utility.yul\":4715:4720   */\n      0x00\n        /* \"#utility.yul\":4764:4767   */\n      dup3\n        /* \"#utility.yul\":4757:4761   */\n      0x1f\n        /* \"#utility.yul\":4749:4755   */\n      dup4\n        /* \"#utility.yul\":4745:4762   */\n      add\n        /* \"#utility.yul\":4741:4768   */\n      slt\n        /* \"#utility.yul\":4731:4853   */\n      tag_201\n      jumpi\n        /* \"#utility.yul\":4772:4851   */\n      tag_202\n      tag_105\n      jump\t// in\n    tag_202:\n        /* \"#utility.yul\":4731:4853   */\n    tag_201:\n        /* \"#utility.yul\":4889:4895   */\n      dup2\n        /* \"#utility.yul\":4876:4896   */\n      calldataload\n        /* \"#utility.yul\":4914:4993   */\n      tag_203\n        /* \"#utility.yul\":4989:4992   */\n      dup5\n        /* \"#utility.yul\":4981:4987   */\n      dup3\n        /* \"#utility.yul\":4974:4978   */\n      0x20\n        /* \"#utility.yul\":4966:4972   */\n      dup7\n        /* \"#utility.yul\":4962:4979   */\n      add\n        /* \"#utility.yul\":4914:4993   */\n      tag_113\n      jump\t// in\n    tag_203:\n        /* \"#utility.yul\":4905:4993   */\n      swap2\n      pop\n        /* \"#utility.yul\":4721:4999   */\n      pop\n        /* \"#utility.yul\":4659:4999   */\n      swap3\n      swap2\n      pop\n      pop\n      jump\t// out\n        /* \"#utility.yul\":5005:5111   */\n    tag_115:\n        /* \"#utility.yul\":5085:5086   */\n      0x07\n        /* \"#utility.yul\":5078:5083   */\n      dup2\n        /* \"#utility.yul\":5075:5087   */\n      lt\n        /* \"#utility.yul\":5065:5105   */\n      tag_205\n      jumpi\n        /* \"#utility.yul\":5101:5102   */\n      0x00\n        /* \"#utility.yul\":5098:5099   */\n      dup1\n        /* \"#utility.yul\":5091:5103   */\n      revert\n        /* \"#utility.yul\":5065:5105   */\n    tag_205:\n        /* \"#utility.yul\":5005:5111   */\n      pop\n      jump\t// out\n        /* \"#utility.yul\":5117:5270   */\n    tag_116:\n        /* \"#utility.yul\":5170:5175   */\n      0x00\n        /* \"#utility.yul\":5208:5214   */\n      dup2\n        /* \"#utility.yul\":5195:5215   */\n      calldataload\n        /* \"#utility.yul\":5186:5215   */\n      swap1\n      pop\n        /* \"#utility.yul\":5224:5264   */\n      tag_207\n        /* \"#utility.yul\":5258:5263   */\n      dup2\n        /* \"#utility.yul\":5224:5264   */\n      tag_115\n      jump\t// in\n    tag_207:\n        /* \"#utility.yul\":5117:5270   */\n      swap3\n      swap2\n      pop\n      pop\n      jump\t// out\n        /* \"#utility.yul\":5276:5387   */\n    tag_117:\n        /* \"#utility.yul\":5361:5362   */\n      0x03\n        /* \"#utility.yul\":5354:5359   */\n      dup2\n        /* \"#utility.yul\":5351:5363   */\n      lt\n        /* \"#utility.yul\":5341:5381   */\n      tag_209\n      jumpi\n        /* \"#utility.yul\":5377:5378   */\n      0x00\n        /* \"#utility.yul\":5374:5375   */\n      dup1\n        /* \"#utility.yul\":5367:5379   */\n      revert\n        /* \"#utility.yul\":5341:5381   */\n    tag_209:\n        /* \"#utility.yul\":5276:5387   */\n      pop\n      jump\t// out\n        /* \"#utility.yul\":5393:5556   */\n    tag_118:\n        /* \"#utility.yul\":5451:5456   */\n      0x00\n        /* \"#utility.yul\":5489:5495   */\n      dup2\n        /* \"#utility.yul\":5476:5496   */\n      calldataload\n        /* \"#utility.yul\":5467:5496   */\n      swap1\n      pop\n        /* \"#utility.yul\":5505:5550   */\n      tag_211\n        /* \"#utility.yul\":5544:5549   */\n      dup2\n        /* \"#utility.yul\":5505:5550   */\n      tag_117\n      jump\t// in\n    tag_211:\n        /* \"#utility.yul\":5393:5556   */\n      swap3\n      swap2\n      pop\n      pop\n      jump\t// out\n        /* \"#utility.yul\":5562:6399   */\n    tag_24:\n        /* \"#utility.yul\":5668:5674   */\n      0x00\n        /* \"#utility.yul\":5676:5682   */\n      dup1\n        /* \"#utility.yul\":5684:5690   */\n      0x00\n        /* \"#utility.yul\":5733:5735   */\n      0x60\n        /* \"#utility.yul\":5721:5730   */\n      dup5\n        /* \"#utility.yul\":5712:5719   */\n      dup7\n        /* \"#utility.yul\":5708:5731   */\n      sub\n        /* \"#utility.yul\":5704:5736   */\n      slt\n        /* \"#utility.yul\":5701:5820   */\n      iszero\n      tag_213\n      jumpi\n        /* \"#utility.yul\":5739:5818   */\n      tag_214\n      tag_92\n      jump\t// in\n    tag_214:\n        /* \"#utility.yul\":5701:5820   */\n    tag_213:\n        /* \"#utility.yul\":5887:5888   */\n      0x00\n        /* \"#utility.yul\":5876:5885   */\n      dup5\n        /* \"#utility.yul\":5872:5889   */\n      add\n        /* \"#utility.yul\":5859:5890   */\n      calldataload\n        /* \"#utility.yul\":5917:5935   */\n      0xffffffffffffffff\n        /* \"#utility.yul\":5909:5915   */\n      dup2\n        /* \"#utility.yul\":5906:5936   */\n      gt\n        /* \"#utility.yul\":5903:6020   */\n      iszero\n      tag_215\n      jumpi\n        /* \"#utility.yul\":5939:6018   */\n      tag_216\n      tag_93\n      jump\t// in\n    tag_216:\n        /* \"#utility.yul\":5903:6020   */\n    tag_215:\n        /* \"#utility.yul\":6044:6107   */\n      tag_217\n        /* \"#utility.yul\":6099:6106   */\n      dup7\n        /* \"#utility.yul\":6090:6096   */\n      dup3\n        /* \"#utility.yul\":6079:6088   */\n      dup8\n        /* \"#utility.yul\":6075:6097   */\n      add\n        /* \"#utility.yul\":6044:6107   */\n      tag_114\n      jump\t// in\n    tag_217:\n        /* \"#utility.yul\":6034:6107   */\n      swap4\n      pop\n        /* \"#utility.yul\":5830:6117   */\n      pop\n        /* \"#utility.yul\":6156:6158   */\n      0x20\n        /* \"#utility.yul\":6182:6242   */\n      tag_218\n        /* \"#utility.yul\":6234:6241   */\n      dup7\n        /* \"#utility.yul\":6225:6231   */\n      dup3\n        /* \"#utility.yul\":6214:6223   */\n      dup8\n        /* \"#utility.yul\":6210:6232   */\n      add\n        /* \"#utility.yul\":6182:6242   */\n      tag_116\n      jump\t// in\n    tag_218:\n        /* \"#utility.yul\":6172:6242   */\n      swap3\n      pop\n        /* \"#utility.yul\":6127:6252   */\n      pop\n        /* \"#utility.yul\":6291:6293   */\n      0x40\n        /* \"#utility.yul\":6317:6382   */\n      tag_219\n        /* \"#utility.yul\":6374:6381   */\n      dup7\n        /* \"#utility.yul\":6365:6371   */\n      dup3\n        /* \"#utility.yul\":6354:6363   */\n      dup8\n        /* \"#utility.yul\":6350:6372   */\n      add\n        /* \"#utility.yul\":6317:6382   */\n      tag_118\n      jump\t// in\n    tag_219:\n        /* \"#utility.yul\":6307:6382   */\n      swap2\n      pop\n        /* \"#utility.yul\":6262:6392   */\n      pop\n        /* \"#utility.yul\":5562:6399   */\n      swap3\n      pop\n      swap3\n      pop\n      swap3\n      jump\t// out\n        /* \"#utility.yul\":6405:6504   */\n    tag_119:\n        /* \"#utility.yul\":6457:6463   */\n      0x00\n        /* \"#utility.yul\":6491:6496   */\n      dup2\n        /* \"#utility.yul\":6485:6497   */\n      mload\n        /* \"#utility.yul\":6475:6497   */\n      swap1\n      pop\n        /* \"#utility.yul\":6405:6504   */\n      swap2\n      swap1\n      pop\n      jump\t// out\n        /* \"#utility.yul\":6510:6679   */\n    tag_120:\n        /* \"#utility.yul\":6594:6605   */\n      0x00\n        /* \"#utility.yul\":6628:6634   */\n      dup3\n        /* \"#utility.yul\":6623:6626   */\n      dup3\n        /* \"#utility.yul\":6616:6635   */\n      mstore\n        /* \"#utility.yul\":6668:6672   */\n      0x20\n        /* \"#utility.yul\":6663:6666   */\n      dup3\n        /* \"#utility.yul\":6659:6673   */\n      add\n        /* \"#utility.yul\":6644:6673   */\n      swap1\n      pop\n        /* \"#utility.yul\":6510:6679   */\n      swap3\n      swap2\n      pop\n      pop\n      jump\t// out\n        /* \"#utility.yul\":6685:6931   */\n    tag_121:\n        /* \"#utility.yul\":6766:6767   */\n      0x00\n        /* \"#utility.yul\":6776:6889   */\n    tag_223:\n        /* \"#utility.yul\":6790:6796   */\n      dup4\n        /* \"#utility.yul\":6787:6788   */\n      dup2\n        /* \"#utility.yul\":6784:6797   */\n      lt\n        /* \"#utility.yul\":6776:6889   */\n      iszero\n      tag_225\n      jumpi\n        /* \"#utility.yul\":6875:6876   */\n      dup1\n        /* \"#utility.yul\":6870:6873   */\n      dup3\n        /* \"#utility.yul\":6866:6877   */\n      add\n        /* \"#utility.yul\":6860:6878   */\n      mload\n        /* \"#utility.yul\":6856:6857   */\n      dup2\n        /* \"#utility.yul\":6851:6854   */\n      dup5\n        /* \"#utility.yul\":6847:6858   */\n      add\n        /* \"#utility.yul\":6840:6879   */\n      mstore\n        /* \"#utility.yul\":6812:6814   */\n      0x20\n        /* \"#utility.yul\":6809:6810   */\n      dup2\n        /* \"#utility.yul\":6805:6815   */\n      add\n        /* \"#utility.yul\":6800:6815   */\n      swap1\n      pop\n        /* \"#utility.yul\":6776:6889   */\n      jump(tag_223)\n    tag_225:\n        /* \"#utility.yul\":6923:6924   */\n      0x00\n        /* \"#utility.yul\":6914:6920   */\n      dup5\n        /* \"#utility.yul\":6909:6912   */\n      dup5\n        /* \"#utility.yul\":6905:6921   */\n      add\n        /* \"#utility.yul\":6898:6925   */\n      mstore\n        /* \"#utility.yul\":6747:6931   */\n      pop\n        /* \"#utility.yul\":6685:6931   */\n      pop\n      pop\n      pop\n      jump\t// out\n        /* \"#utility.yul\":6937:7314   */\n    tag_122:\n        /* \"#utility.yul\":7025:7028   */\n      0x00\n        /* \"#utility.yul\":7053:7092   */\n      tag_227\n        /* \"#utility.yul\":7086:7091   */\n      dup3\n        /* \"#utility.yul\":7053:7092   */\n      tag_119\n      jump\t// in\n    tag_227:\n        /* \"#utility.yul\":7108:7179   */\n      tag_228\n        /* \"#utility.yul\":7172:7178   */\n      dup2\n        /* \"#utility.yul\":7167:7170   */\n      dup6\n        /* \"#utility.yul\":7108:7179   */\n      tag_120\n      jump\t// in\n    tag_228:\n        /* \"#utility.yul\":7101:7179   */\n      swap4\n      pop\n        /* \"#utility.yul\":7188:7253   */\n      tag_229\n        /* \"#utility.yul\":7246:7252   */\n      dup2\n        /* \"#utility.yul\":7241:7244   */\n      dup6\n        /* \"#utility.yul\":7234:7238   */\n      0x20\n        /* \"#utility.yul\":7227:7232   */\n      dup7\n        /* \"#utility.yul\":7223:7239   */\n      add\n        /* \"#utility.yul\":7188:7253   */\n      tag_121\n      jump\t// in\n    tag_229:\n        /* \"#utility.yul\":7278:7307   */\n      tag_230\n        /* \"#utility.yul\":7300:7306   */\n      dup2\n        /* \"#utility.yul\":7278:7307   */\n      tag_107\n      jump\t// in\n    tag_230:\n        /* \"#utility.yul\":7273:7276   */\n      dup5\n        /* \"#utility.yul\":7269:7308   */\n      add\n        /* \"#utility.yul\":7262:7308   */\n      swap2\n      pop\n        /* \"#utility.yul\":7029:7314   */\n      pop\n        /* \"#utility.yul\":6937:7314   */\n      swap3\n      swap2\n      pop\n      pop\n      jump\t// out\n        /* \"#utility.yul\":7320:7410   */\n    tag_123:\n        /* \"#utility.yul\":7354:7361   */\n      0x00\n        /* \"#utility.yul\":7397:7402   */\n      dup2\n        /* \"#utility.yul\":7390:7403   */\n      iszero\n        /* \"#utility.yul\":7383:7404   */\n      iszero\n        /* \"#utility.yul\":7372:7404   */\n      swap1\n      pop\n        /* \"#utility.yul\":7320:7410   */\n      swap2\n      swap1\n      pop\n      jump\t// out\n        /* \"#utility.yul\":7416:7525   */\n    tag_124:\n        /* \"#utility.yul\":7497:7518   */\n      tag_233\n        /* \"#utility.yul\":7512:7517   */\n      dup2\n        /* \"#utility.yul\":7497:7518   */\n      tag_123\n      jump\t// in\n    tag_233:\n        /* \"#utility.yul\":7492:7495   */\n      dup3\n        /* \"#utility.yul\":7485:7519   */\n      mstore\n        /* \"#utility.yul\":7416:7525   */\n      pop\n      pop\n      jump\t// out\n        /* \"#utility.yul\":7531:8193   */\n    tag_30:\n        /* \"#utility.yul\":7737:7741   */\n      0x00\n        /* \"#utility.yul\":7775:7778   */\n      0x80\n        /* \"#utility.yul\":7764:7773   */\n      dup3\n        /* \"#utility.yul\":7760:7779   */\n      add\n        /* \"#utility.yul\":7752:7779   */\n      swap1\n      pop\n        /* \"#utility.yul\":7825:7834   */\n      dup2\n        /* \"#utility.yul\":7819:7823   */\n      dup2\n        /* \"#utility.yul\":7815:7835   */\n      sub\n        /* \"#utility.yul\":7811:7812   */\n      0x00\n        /* \"#utility.yul\":7800:7809   */\n      dup4\n        /* \"#utility.yul\":7796:7813   */\n      add\n        /* \"#utility.yul\":7789:7836   */\n      mstore\n        /* \"#utility.yul\":7853:7931   */\n      tag_235\n        /* \"#utility.yul\":7926:7930   */\n      dup2\n        /* \"#utility.yul\":7917:7923   */\n      dup8\n        /* \"#utility.yul\":7853:7931   */\n      tag_122\n      jump\t// in\n    tag_235:\n        /* \"#utility.yul\":7845:7931   */\n      swap1\n      pop\n        /* \"#utility.yul\":7941:8023   */\n      tag_236\n        /* \"#utility.yul\":8019:8021   */\n      0x20\n        /* \"#utility.yul\":8008:8017   */\n      dup4\n        /* \"#utility.yul\":8004:8022   */\n      add\n        /* \"#utility.yul\":7995:8001   */\n      dup7\n        /* \"#utility.yul\":7941:8023   */\n      tag_100\n      jump\t// in\n    tag_236:\n        /* \"#utility.yul\":8033:8110   */\n      tag_237\n        /* \"#utility.yul\":8106:8108   */\n      0x40\n        /* \"#utility.yul\":8095:8104   */\n      dup4\n        /* \"#utility.yul\":8091:8109   */\n      add\n        /* \"#utility.yul\":8082:8088   */\n      dup6\n        /* \"#utility.yul\":8033:8110   */\n      tag_104\n      jump\t// in\n    tag_237:\n        /* \"#utility.yul\":8120:8186   */\n      tag_238\n        /* \"#utility.yul\":8182:8184   */\n      0x60\n        /* \"#utility.yul\":8171:8180   */\n      dup4\n        /* \"#utility.yul\":8167:8185   */\n      add\n        /* \"#utility.yul\":8158:8164   */\n      dup5\n        /* \"#utility.yul\":8120:8186   */\n      tag_124\n      jump\t// in\n    tag_238:\n        /* \"#utility.yul\":7531:8193   */\n      swap6\n      swap5\n      pop\n      pop\n      pop\n      pop\n      pop\n      jump\t// out\n        /* \"#utility.yul\":8199:8379   */\n    tag_34:\n        /* \"#utility.yul\":8247:8324   */\n      0x4e487b7100000000000000000000000000000000000000000000000000000000\n        /* \"#utility.yul\":8244:8245   */\n      0x00\n        /* \"#utility.yul\":8237:8325   */\n      mstore\n        /* \"#utility.yul\":8344:8348   */\n      0x32\n        /* \"#utility.yul\":8341:8342   */\n      0x04\n        /* \"#utility.yul\":8334:8349   */\n      mstore\n        /* \"#utility.yul\":8368:8372   */\n      0x24\n        /* \"#utility.yul\":8365:8366   */\n      0x00\n        /* \"#utility.yul\":8358:8373   */\n      revert\n        /* \"#utility.yul\":8385:8565   */\n    tag_125:\n        /* \"#utility.yul\":8433:8510   */\n      0x4e487b7100000000000000000000000000000000000000000000000000000000\n        /* \"#utility.yul\":8430:8431   */\n      0x00\n        /* \"#utility.yul\":8423:8511   */\n      mstore\n        /* \"#utility.yul\":8530:8534   */\n      0x22\n        /* \"#utility.yul\":8527:8528   */\n      0x04\n        /* \"#utility.yul\":8520:8535   */\n      mstore\n        /* \"#utility.yul\":8554:8558   */\n      0x24\n        /* \"#utility.yul\":8551:8552   */\n      0x00\n        /* \"#utility.yul\":8544:8559   */\n      revert\n        /* \"#utility.yul\":8571:8891   */\n    tag_37:\n        /* \"#utility.yul\":8615:8621   */\n      0x00\n        /* \"#utility.yul\":8652:8653   */\n      0x02\n        /* \"#utility.yul\":8646:8650   */\n      dup3\n        /* \"#utility.yul\":8642:8654   */\n      div\n        /* \"#utility.yul\":8632:8654   */\n      swap1\n      pop\n        /* \"#utility.yul\":8699:8700   */\n      0x01\n        /* \"#utility.yul\":8693:8697   */\n      dup3\n        /* \"#utility.yul\":8689:8701   */\n      and\n        /* \"#utility.yul\":8720:8738   */\n      dup1\n        /* \"#utility.yul\":8710:8791   */\n      tag_242\n      jumpi\n        /* \"#utility.yul\":8776:8780   */\n      0x7f\n        /* \"#utility.yul\":8768:8774   */\n      dup3\n        /* \"#utility.yul\":8764:8781   */\n      and\n        /* \"#utility.yul\":8754:8781   */\n      swap2\n      pop\n        /* \"#utility.yul\":8710:8791   */\n    tag_242:\n        /* \"#utility.yul\":8838:8840   */\n      0x20\n        /* \"#utility.yul\":8830:8836   */\n      dup3\n        /* \"#utility.yul\":8827:8841   */\n      lt\n        /* \"#utility.yul\":8807:8825   */\n      dup2\n        /* \"#utility.yul\":8804:8842   */\n      sub\n        /* \"#utility.yul\":8801:8885   */\n      tag_243\n      jumpi\n        /* \"#utility.yul\":8857:8875   */\n      tag_244\n      tag_125\n      jump\t// in\n    tag_244:\n        /* \"#utility.yul\":8801:8885   */\n    tag_243:\n        /* \"#utility.yul\":8622:8891   */\n      pop\n        /* \"#utility.yul\":8571:8891   */\n      swap2\n      swap1\n      pop\n      jump\t// out\n        /* \"#utility.yul\":8897:9038   */\n    tag_126:\n        /* \"#utility.yul\":8946:8950   */\n      0x00\n        /* \"#utility.yul\":8969:8972   */\n      dup2\n        /* \"#utility.yul\":8961:8972   */\n      swap1\n      pop\n        /* \"#utility.yul\":8992:8995   */\n      dup2\n        /* \"#utility.yul\":8989:8990   */\n      0x00\n        /* \"#utility.yul\":8982:8996   */\n      mstore\n        /* \"#utility.yul\":9026:9030   */\n      0x20\n        /* \"#utility.yul\":9023:9024   */\n      0x00\n        /* \"#utility.yul\":9013:9031   */\n      keccak256\n        /* \"#utility.yul\":9005:9031   */\n      swap1\n      pop\n        /* \"#utility.yul\":8897:9038   */\n      swap2\n      swap1\n      pop\n      jump\t// out\n        /* \"#utility.yul\":9044:9137   */\n    tag_127:\n        /* \"#utility.yul\":9081:9087   */\n      0x00\n        /* \"#utility.yul\":9128:9130   */\n      0x20\n        /* \"#utility.yul\":9123:9125   */\n      0x1f\n        /* \"#utility.yul\":9116:9121   */\n      dup4\n        /* \"#utility.yul\":9112:9126   */\n      add\n        /* \"#utility.yul\":9108:9131   */\n      div\n        /* \"#utility.yul\":9098:9131   */\n      swap1\n      pop\n        /* \"#utility.yul\":9044:9137   */\n      swap2\n      swap1\n      pop\n      jump\t// out\n        /* \"#utility.yul\":9143:9250   */\n    tag_128:\n        /* \"#utility.yul\":9187:9195   */\n      0x00\n        /* \"#utility.yul\":9237:9242   */\n      dup3\n        /* \"#utility.yul\":9231:9235   */\n      dup3\n        /* \"#utility.yul\":9227:9243   */\n      shl\n        /* \"#utility.yul\":9206:9243   */\n      swap1\n      pop\n        /* \"#utility.yul\":9143:9250   */\n      swap3\n      swap2\n      pop\n      pop\n      jump\t// out\n        /* \"#utility.yul\":9256:9649   */\n    tag_129:\n        /* \"#utility.yul\":9325:9331   */\n      0x00\n        /* \"#utility.yul\":9375:9376   */\n      0x08\n        /* \"#utility.yul\":9363:9373   */\n      dup4\n        /* \"#utility.yul\":9359:9377   */\n      mul\n        /* \"#utility.yul\":9398:9495   */\n      tag_249\n        /* \"#utility.yul\":9428:9494   */\n      0xffffffffffffffffffffffffffffffffffffffffffffffffffffffffffffffff\n        /* \"#utility.yul\":9417:9426   */\n      dup3\n        /* \"#utility.yul\":9398:9495   */\n      tag_128\n      jump\t// in\n    tag_249:\n        /* \"#utility.yul\":9516:9555   */\n      tag_250\n        /* \"#utility.yul\":9546:9554   */\n      dup7\n        /* \"#utility.yul\":9535:9544   */\n      dup4\n        /* \"#utility.yul\":9516:9555   */\n      tag_128\n      jump\t// in\n    tag_250:\n        /* \"#utility.yul\":9504:9555   */\n      swap6\n      pop\n        /* \"#utility.yul\":9588:9592   */\n      dup1\n        /* \"#utility.yul\":9584:9593   */\n      not\n        /* \"#utility.yul\":9577:9582   */\n      dup5\n        /* \"#utility.yul\":9573:9594   */\n      and\n        /* \"#utility.yul\":9564:9594   */\n      swap4\n      pop\n        /* \"#utility.yul\":9637:9641   */\n      dup1\n        /* \"#utility.yul\":9627:9635   */\n      dup7\n        /* \"#utility.yul\":9623:9642   */\n      and\n        /* \"#utility.yul\":9616:9621   */\n      dup5\n        /* \"#utility.yul\":9613:9643   */\n      or\n        /* \"#utility.yul\":9603:9643   */\n      swap3\n      pop\n        /* \"#utility.yul\":9332:9649   */\n      pop\n      pop\n        /* \"#utility.yul\":9256:9649   */\n      swap4\n      swap3\n      pop\n      pop\n      pop\n      jump\t// out\n        /* \"#utility.yul\":9655:9715   */\n    tag_130:\n        /* \"#utility.yul\":9683:9686   */\n      0x00\n        /* \"#utility.yul\":9704:9709   */\n      dup2\n        /* \"#utility.yul\":9697:9709   */\n      swap1\n      pop\n        /* \"#utility.yul\":9655:9715   */\n      swap2\n      swap1\n      pop\n      jump\t// out\n        /* \"#utility.yul\":9721:9863   */\n    tag_131:\n        /* \"#utility.yul\":9771:9780   */\n      0x00\n        /* \"#utility.yul\":9804:9857   */\n      tag_253\n        /* \"#utility.yul\":9822:9856   */\n      tag_254\n        /* \"#utility.yul\":9831:9855   */\n      tag_255\n        /* \"#utility.yul\":9849:9854   */\n      dup5\n        /* \"#utility.yul\":9831:9855   */\n      tag_94\n      jump\t// in\n    tag_255:\n        /* \"#utility.yul\":9822:9856   */\n      tag_130\n      jump\t// in\n    tag_254:\n        /* \"#utility.yul\":9804:9857   */\n      tag_94\n      jump\t// in\n    tag_253:\n        /* \"#utility.yul\":9791:9857   */\n      swap1\n      pop\n        /* \"#utility.yul\":9721:9863   */\n      swap2\n      swap1\n      pop\n      jump\t// out\n        /* \"#utility.yul\":9869:9944   */\n    tag_132:\n        /* \"#utility.yul\":9912:9915   */\n      0x00\n        /* \"#utility.yul\":9933:9938   */\n      dup2\n        /* \"#utility.yul\":9926:9938   */\n      swap1\n      pop\n        /* \"#utility.yul\":9869:9944   */\n      swap2\n      swap1\n      pop\n      jump\t// out\n        /* \"#utility.yul\":9950:10219   */\n    tag_133:\n        /* \"#utility.yul\":10060:10099   */\n      tag_258\n        /* \"#utility.yul\":10091:10098   */\n      dup4\n        /* \"#utility.yul\":10060:10099   */\n      tag_131\n      jump\t// in\n    tag_258:\n        /* \"#utility.yul\":10121:10212   */\n      tag_259\n        /* \"#utility.yul\":10170:10211   */\n      tag_260\n        /* \"#utility.yul\":10194:10210   */\n      dup3\n        /* \"#utility.yul\":10170:10211   */\n      tag_132\n      jump\t// in\n    tag_260:\n        /* \"#utility.yul\":10162:10168   */\n      dup5\n        /* \"#utility.yul\":10155:10159   */\n      dup5\n        /* \"#utility.yul\":10149:10160   */\n      sload\n        /* \"#utility.yul\":10121:10212   */\n      tag_129\n      jump\t// in\n    tag_259:\n        /* \"#utility.yul\":10115:10119   */\n      dup3\n        /* \"#utility.yul\":10108:10213   */\n      sstore\n        /* \"#utility.yul\":10026:10219   */\n      pop\n        /* \"#utility.yul\":9950:10219   */\n      pop\n      pop\n      pop\n      jump\t// out\n        /* \"#utility.yul\":10225:10298   */\n    tag_134:\n        /* \"#utility.yul\":10270:10273   */\n      0x00\n        /* \"#utility.yul\":10225:10298   */\n      swap1\n      jump\t// out\n        /* \"#utility.yul\":10304:10493   */\n    tag_135:\n        /* \"#utility.yul\":10381:10413   */\n      tag_263\n      tag_134\n      jump\t// in\n    tag_263:\n        /* \"#utility.yul\":10422:10487   */\n      tag_264\n        /* \"#utility.yul\":10480:10486   */\n      dup2\n        /* \"#utility.yul\":10472:10478   */\n      dup5\n        /* \"#utility.yul\":10466:10470   */\n      dup5\n        /* \"#utility.yul\":10422:10487   */\n      tag_133\n      jump\t// in\n    tag_264:\n        /* \"#utility.yul\":10357:10493   */\n      pop\n        /* \"#utility.yul\":10304:10493   */\n      pop\n      pop\n      jump\t// out\n        /* \"#utility.yul\":10499:10685   */\n    tag_136:\n        /* \"#utility.yul\":10559:10679   */\n    tag_266:\n        /* \"#utility.yul\":10576:10579   */\n      dup2\n        /* \"#utility.yul\":10569:10574   */\n      dup2\n        /* \"#utility.yul\":10566:10580   */\n      lt\n        /* \"#utility.yul\":10559:10679   */\n      iszero\n      tag_268\n      jumpi\n        /* \"#utility.yul\":10630:10669   */\n      tag_269\n        /* \"#utility.yul\":10667:10668   */\n      0x00\n        /* \"#utility.yul\":10660:10665   */\n      dup3\n        /* \"#utility.yul\":10630:10669   */\n      tag_135\n      jump\t// in\n    tag_269:\n        /* \"#utility.yul\":10603:10604   */\n      0x01\n        /* \"#utility.yul\":10596:10601   */\n      dup2\n        /* \"#utility.yul\":10592:10605   */\n      add\n        /* \"#utility.yul\":10583:10605   */\n      swap1\n      pop\n        /* \"#utility.yul\":10559:10679   */\n      jump(tag_266)\n    tag_268:\n        /* \"#utility.yul\":10499:10685   */\n      pop\n      pop\n      jump\t// out\n        /* \"#utility.yul\":10691:11234   */\n    tag_137:\n        /* \"#utility.yul\":10792:10794   */\n      0x1f\n        /* \"#utility.yul\":10787:10790   */\n      dup3\n        /* \"#utility.yul\":10784:10795   */\n      gt\n        /* \"#utility.yul\":10781:11227   */\n      iszero\n      tag_271\n      jumpi\n        /* \"#utility.yul\":10826:10864   */\n      tag_272\n        /* \"#utility.yul\":10858:10863   */\n      dup2\n        /* \"#utility.yul\":10826:10864   */\n      tag_126\n      jump\t// in\n    tag_272:\n        /* \"#utility.yul\":10910:10939   */\n      tag_273\n        /* \"#utility.yul\":10928:10938   */\n      dup5\n        /* \"#utility.yul\":10910:10939   */\n      tag_127\n      jump\t// in\n    tag_273:\n        /* \"#utility.yul\":10900:10908   */\n      dup2\n        /* \"#utility.yul\":10896:10940   */\n      add\n        /* \"#utility.yul\":11093:11095   */\n      0x20\n        /* \"#utility.yul\":11081:11091   */\n      dup6\n        /* \"#utility.yul\":11078:11096   */\n      lt\n        /* \"#utility.yul\":11075:11124   */\n      iszero\n      tag_274\n      jumpi\n        /* \"#utility.yul\":11114:11122   */\n      dup2\n        /* \"#utility.yul\":11099:11122   */\n      swap1\n      pop\n        /* \"#utility.yul\":11075:11124   */\n    tag_274:\n        /* \"#utility.yul\":11137:11217   */\n      tag_275\n        /* \"#utility.yul\":11193:11215   */\n      tag_276\n        /* \"#utility.yul\":11211:11214   */\n      dup6\n        /* \"#utility.yul\":11193:11215   */\n      tag_127\n      jump\t// in\n    tag_276:\n        /* \"#utility.yul\":11183:11191   */\n      dup4\n        /* \"#utility.yul\":11179:11216   */\n      add\n        /* \"#utility.yul\":11166:11177   */\n      dup3\n        /* \"#utility.yul\":11137:11217   */\n      tag_136\n      jump\t// in\n    tag_275:\n        /* \"#utility.yul\":10796:11227   */\n      pop\n      pop\n        /* \"#utility.yul\":10781:11227   */\n    tag_271:\n        /* \"#utility.yul\":10691:11234   */\n      pop\n      pop\n      pop\n      jump\t// out\n        /* \"#utility.yul\":11240:11357   */\n    tag_138:\n        /* \"#utility.yul\":11294:11302   */\n      0x00\n        /* \"#utility.yul\":11344:11349   */\n      dup3\n        /* \"#utility.yul\":11338:11342   */\n      dup3\n        /* \"#utility.yul\":11334:11350   */\n      shr\n        /* \"#utility.yul\":11313:11350   */\n      swap1\n      pop\n        /* \"#utility.yul\":11240:11357   */\n      swap3\n      swap2\n      pop\n      pop\n      jump\t// out\n        /* \"#utility.yul\":11363:11532   */\n    tag_139:\n        /* \"#utility.yul\":11407:11413   */\n      0x00\n        /* \"#utility.yul\":11440:11491   */\n      tag_279\n        /* \"#utility.yul\":11488:11489   */\n      0x00\n        /* \"#utility.yul\":11484:11490   */\n      not\n        /* \"#utility.yul\":11476:11481   */\n      dup5\n        /* \"#utility.yul\":11473:11474   */\n      0x08\n        /* \"#utility.yul\":11469:11482   */\n      mul\n        /* \"#utility.yul\":11440:11491   */\n      tag_138\n      jump\t// in\n    tag_279:\n        /* \"#utility.yul\":11436:11492   */\n      not\n        /* \"#utility.yul\":11521:11525   */\n      dup1\n        /* \"#utility.yul\":11515:11519   */\n      dup4\n        /* \"#utility.yul\":11511:11526   */\n      and\n        /* \"#utility.yul\":11501:11526   */\n      swap2\n      pop\n        /* \"#utility.yul\":11414:11532   */\n      pop\n        /* \"#utility.yul\":11363:11532   */\n      swap3\n      swap2\n      pop\n      pop\n      jump\t// out\n        /* \"#utility.yul\":11537:11832   */\n    tag_140:\n        /* \"#utility.yul\":11613:11617   */\n      0x00\n        /* \"#utility.yul\":11759:11788   */\n      tag_281\n        /* \"#utility.yul\":11784:11787   */\n      dup4\n        /* \"#utility.yul\":11778:11782   */\n      dup4\n        /* \"#utility.yul\":11759:11788   */\n      tag_139\n      jump\t// in\n    tag_281:\n        /* \"#utility.yul\":11751:11788   */\n      swap2\n      pop\n        /* \"#utility.yul\":11821:11824   */\n      dup3\n        /* \"#utility.yul\":11818:11819   */\n      0x02\n        /* \"#utility.yul\":11814:11825   */\n      mul\n        /* \"#utility.yul\":11808:11812   */\n      dup3\n        /* \"#utility.yul\":11805:11826   */\n      or\n        /* \"#utility.yul\":11797:11826   */\n      swap1\n      pop\n        /* \"#utility.yul\":11537:11832   */\n      swap3\n      swap2\n      pop\n      pop\n      jump\t// out\n        /* \"#utility.yul\":11837:13232   */\n    tag_79:\n        /* \"#utility.yul\":11954:11991   */\n      tag_283\n        /* \"#utility.yul\":11987:11990   */\n      dup3\n        /* \"#utility.yul\":11954:11991   */\n      tag_119\n      jump\t// in\n    tag_283:\n        /* \"#utility.yul\":12056:12074   */\n      0xffffffffffffffff\n        /* \"#utility.yul\":12048:12054   */\n      dup2\n        /* \"#utility.yul\":12045:12075   */\n      gt\n        /* \"#utility.yul\":12042:12098   */\n      iszero\n      tag_284\n      jumpi\n        /* \"#utility.yul\":12078:12096   */\n      tag_285\n      tag_108\n      jump\t// in\n    tag_285:\n        /* \"#utility.yul\":12042:12098   */\n    tag_284:\n        /* \"#utility.yul\":12122:12160   */\n      tag_286\n        /* \"#utility.yul\":12154:12158   */\n      dup3\n        /* \"#utility.yul\":12148:12159   */\n      sload\n        /* \"#utility.yul\":12122:12160   */\n      tag_37\n      jump\t// in\n    tag_286:\n        /* \"#utility.yul\":12207:12274   */\n      tag_287\n        /* \"#utility.yul\":12267:12273   */\n      dup3\n        /* \"#utility.yul\":12259:12265   */\n      dup3\n        /* \"#utility.yul\":12253:12257   */\n      dup6\n        /* \"#utility.yul\":12207:12274   */\n      tag_137\n      jump\t// in\n    tag_287:\n        /* \"#utility.yul\":12301:12302   */\n      0x00\n        /* \"#utility.yul\":12325:12329   */\n      0x20\n        /* \"#utility.yul\":12312:12329   */\n      swap1\n      pop\n        /* \"#utility.yul\":12357:12359   */\n      0x1f\n        /* \"#utility.yul\":12349:12355   */\n      dup4\n        /* \"#utility.yul\":12346:12360   */\n      gt\n        /* \"#utility.yul\":12374:12375   */\n      0x01\n        /* \"#utility.yul\":12369:12987   */\n      dup2\n      eq\n      tag_289\n      jumpi\n        /* \"#utility.yul\":13031:13032   */\n      0x00\n        /* \"#utility.yul\":13048:13054   */\n      dup5\n        /* \"#utility.yul\":13045:13122   */\n      iszero\n      tag_290\n      jumpi\n        /* \"#utility.yul\":13097:13106   */\n      dup3\n        /* \"#utility.yul\":13092:13095   */\n      dup8\n        /* \"#utility.yul\":13088:13107   */\n      add\n        /* \"#utility.yul\":13082:13108   */\n      mload\n        /* \"#utility.yul\":13073:13108   */\n      swap1\n      pop\n        /* \"#utility.yul\":13045:13122   */\n    tag_290:\n        /* \"#utility.yul\":13148:13215   */\n      tag_291\n        /* \"#utility.yul\":13208:13214   */\n      dup6\n        /* \"#utility.yul\":13201:13206   */\n      dup3\n        /* \"#utility.yul\":13148:13215   */\n      tag_140\n      jump\t// in\n    tag_291:\n        /* \"#utility.yul\":13142:13146   */\n      dup7\n        /* \"#utility.yul\":13135:13216   */\n      sstore\n        /* \"#utility.yul\":13004:13226   */\n      pop\n        /* \"#utility.yul\":12339:13226   */\n      jump(tag_288)\n        /* \"#utility.yul\":12369:12987   */\n    tag_289:\n        /* \"#utility.yul\":12421:12425   */\n      0x1f\n        /* \"#utility.yul\":12417:12426   */\n      not\n        /* \"#utility.yul\":12409:12415   */\n      dup5\n        /* \"#utility.yul\":12405:12427   */\n      and\n        /* \"#utility.yul\":12455:12492   */\n      tag_292\n        /* \"#utility.yul\":12487:12491   */\n      dup7\n        /* \"#utility.yul\":12455:12492   */\n      tag_126\n      jump\t// in\n    tag_292:\n        /* \"#utility.yul\":12514:12515   */\n      0x00\n        /* \"#utility.yul\":12528:12736   */\n    tag_293:\n        /* \"#utility.yul\":12542:12549   */\n      dup3\n        /* \"#utility.yul\":12539:12540   */\n      dup2\n        /* \"#utility.yul\":12536:12550   */\n      lt\n        /* \"#utility.yul\":12528:12736   */\n      iszero\n      tag_295\n      jumpi\n        /* \"#utility.yul\":12621:12630   */\n      dup5\n        /* \"#utility.yul\":12616:12619   */\n      dup10\n        /* \"#utility.yul\":12612:12631   */\n      add\n        /* \"#utility.yul\":12606:12632   */\n      mload\n        /* \"#utility.yul\":12598:12604   */\n      dup3\n        /* \"#utility.yul\":12591:12633   */\n      sstore\n        /* \"#utility.yul\":12672:12673   */\n      0x01\n        /* \"#utility.yul\":12664:12670   */\n      dup3\n        /* \"#utility.yul\":12660:12674   */\n      add\n        /* \"#utility.yul\":12650:12674   */\n      swap2\n      pop\n        /* \"#utility.yul\":12719:12721   */\n      0x20\n        /* \"#utility.yul\":12708:12717   */\n      dup6\n        /* \"#utility.yul\":12704:12722   */\n      add\n        /* \"#utility.yul\":12691:12722   */\n      swap5\n      pop\n        /* \"#utility.yul\":12565:12569   */\n      0x20\n        /* \"#utility.yul\":12562:12563   */\n      dup2\n        /* \"#utility.yul\":12558:12570   */\n      add\n        /* \"#utility.yul\":12553:12570   */\n      swap1\n      pop\n        /* \"#utility.yul\":12528:12736   */\n      jump(tag_293)\n    tag_295:\n        /* \"#utility.yul\":12764:12770   */\n      dup7\n        /* \"#utility.yul\":12755:12762   */\n      dup4\n        /* \"#utility.yul\":12752:12771   */\n      lt\n        /* \"#utility.yul\":12749:12928   */\n      iszero\n      tag_296\n      jumpi\n        /* \"#utility.yul\":12822:12831   */\n      dup5\n        /* \"#utility.yul\":12817:12820   */\n      dup10\n        /* \"#utility.yul\":12813:12832   */\n      add\n        /* \"#utility.yul\":12807:12833   */\n      mload\n        /* \"#utility.yul\":12865:12913   */\n      tag_297\n        /* \"#utility.yul\":12907:12911   */\n      0x1f\n        /* \"#utility.yul\":12899:12905   */\n      dup10\n        /* \"#utility.yul\":12895:12912   */\n      and\n        /* \"#utility.yul\":12884:12893   */\n      dup3\n        /* \"#utility.yul\":12865:12913   */\n      tag_139\n      jump\t// in\n    tag_297:\n        /* \"#utility.yul\":12857:12863   */\n      dup4\n        /* \"#utility.yul\":12850:12914   */\n      sstore\n        /* \"#utility.yul\":12772:12928   */\n      pop\n        /* \"#utility.yul\":12749:12928   */\n    tag_296:\n        /* \"#utility.yul\":12974:12975   */\n      0x01\n        /* \"#utility.yul\":12970:12971   */\n      0x02\n        /* \"#utility.yul\":12962:12968   */\n      dup9\n        /* \"#utility.yul\":12958:12972   */\n      mul\n        /* \"#utility.yul\":12954:12976   */\n      add\n        /* \"#utility.yul\":12948:12952   */\n      dup9\n        /* \"#utility.yul\":12941:12977   */\n      sstore\n        /* \"#utility.yul\":12376:12987   */\n      pop\n      pop\n      pop\n        /* \"#utility.yul\":12339:13226   */\n    tag_288:\n      pop\n        /* \"#utility.yul\":11929:13232   */\n      pop\n      pop\n      pop\n        /* \"#utility.yul\":11837:13232   */\n      pop\n      pop\n      jump\t// out\n\n    auxdata: 0xa26469706673582212207d6b5c2ce2ab4a735f8320a2db9ff4af06f6e6cc729bf2d100c5fe657a54246964736f6c63430008120033\n}\n",
				"bytecode": {
					"linkReferences": {},
					"object": "608060405234801561001057600080fd5b50610dd5806100206000396000f3fe608060405234801561001057600080fd5b50600436106100575760003560e01c8063163e0f461461005c57806351db2e761461008c57806357f2f8ea146100a8578063b1d36506146100d8578063c129ff32146100f4575b600080fd5b6100766004803603810190610071919061068b565b610127565b604051610083919061072f565b60405180910390f35b6100a660048036038101906100a1919061068b565b610289565b005b6100c260048036038101906100bd919061068b565b6102e0565b6040516100cf9190610792565b60405180910390f35b6100f260048036038101906100ed919061093d565b610442565b005b61010e6004803603810190610109919061068b565b610552565b60405161011e9493929190610a46565b60405180910390f35b6000806000838154811061013e5761013d610a92565b5b906000526020600020906002020160405180608001604052908160008201805461016790610af0565b80601f016020809104026020016040519081016040528092919081815260200182805461019390610af0565b80156101e05780601f106101b5576101008083540402835291602001916101e0565b820191906000526020600020905b8154815290600101906020018083116101c357829003601f168201915b505050505081526020016001820160009054906101000a900460ff16600281111561020e5761020d6106b8565b5b60028111156102205761021f6106b8565b5b81526020016001820160019054906101000a900460ff166006811115610249576102486106b8565b5b600681111561025b5761025a6106b8565b5b81526020016001820160029054906101000a900460ff16151515158152505090508060200151915050919050565b600080828154811061029e5761029d610a92565b5b906000526020600020906002020190508060010160029054906101000a900460ff16158160010160026101000a81548160ff0219169083151502179055505050565b600080600083815481106102f7576102f6610a92565b5b906000526020600020906002020160405180608001604052908160008201805461032090610af0565b80601f016020809104026020016040519081016040528092919081815260200182805461034c90610af0565b80156103995780601f1061036e57610100808354040283529160200191610399565b820191906000526020600020905b81548152906001019060200180831161037c57829003601f168201915b505050505081526020016001820160009054906101000a900460ff1660028111156103c7576103c66106b8565b5b60028111156103d9576103d86106b8565b5b81526020016001820160019054906101000a900460ff166006811115610402576104016106b8565b5b6006811115610414576104136106b8565b5b81526020016001820160029054906101000a900460ff16151515158152505090508060400151915050919050565b60006040518060800160405280858152602001836002811115610468576104676106b8565b5b81526020018460068111156104805761047f6106b8565b5b815260200160011515815250908060018154018082558091505060019003906000526020600020906002020160009091909190915060008201518160000190816104ca9190610ccd565b5060208201518160010160006101000a81548160ff021916908360028111156104f6576104f56106b8565b5b021790555060408201518160010160016101000a81548160ff02191690836006811115610526576105256106b8565b5b021790555060608201518160010160026101000a81548160ff0219169083151502179055505050505050565b6000818154811061056257600080fd5b906000526020600020906002020160009150905080600001805461058590610af0565b80601f01602080910402602001604051908101604052809291908181526020018280546105b190610af0565b80156105fe5780601f106105d3576101008083540402835291602001916105fe565b820191906000526020600020905b8154815290600101906020018083116105e157829003601f168201915b5050505050908060010160009054906101000a900460ff16908060010160019054906101000a900460ff16908060010160029054906101000a900460ff16905084565b6000604051905090565b600080fd5b600080fd5b6000819050919050565b61066881610655565b811461067357600080fd5b50565b6000813590506106858161065f565b92915050565b6000602082840312156106a1576106a061064b565b5b60006106af84828501610676565b91505092915050565b7f4e487b7100000000000000000000000000000000000000000000000000000000600052602160045260246000fd5b600381106106f8576106f76106b8565b5b50565b6000819050610709826106e7565b919050565b6000610719826106fb565b9050919050565b6107298161070e565b82525050565b60006020820190506107446000830184610720565b92915050565b6007811061075b5761075a6106b8565b5b50565b600081905061076c8261074a565b919050565b600061077c8261075e565b9050919050565b61078c81610771565b82525050565b60006020820190506107a76000830184610783565b92915050565b600080fd5b600080fd5b6000601f19601f8301169050919050565b7f4e487b7100000000000000000000000000000000000000000000000000000000600052604160045260246000fd5b610800826107b7565b810181811067ffffffffffffffff8211171561081f5761081e6107c8565b5b80604052505050565b6000610832610641565b905061083e82826107f7565b919050565b600067ffffffffffffffff82111561085e5761085d6107c8565b5b610867826107b7565b9050602081019050919050565b82818337600083830152505050565b600061089661089184610843565b610828565b9050828152602081018484840111156108b2576108b16107b2565b5b6108bd848285610874565b509392505050565b600082601f8301126108da576108d96107ad565b5b81356108ea848260208601610883565b91505092915050565b6007811061090057600080fd5b50565b600081359050610912816108f3565b92915050565b6003811061092557600080fd5b50565b60008135905061093781610918565b92915050565b6000806000606084860312156109565761095561064b565b5b600084013567ffffffffffffffff81111561097457610973610650565b5b610980868287016108c5565b935050602061099186828701610903565b92505060406109a286828701610928565b9150509250925092565b600081519050919050565b600082825260208201905092915050565b60005b838110156109e65780820151818401526020810190506109cb565b60008484015250505050565b60006109fd826109ac565b610a0781856109b7565b9350610a178185602086016109c8565b610a20816107b7565b840191505092915050565b60008115159050919050565b610a4081610a2b565b82525050565b60006080820190508181036000830152610a6081876109f2565b9050610a6f6020830186610720565b610a7c6040830185610783565b610a896060830184610a37565b95945050505050565b7f4e487b7100000000000000000000000000000000000000000000000000000000600052603260045260246000fd5b7f4e487b7100000000000000000000000000000000000000000000000000000000600052602260045260246000fd5b60006002820490506001821680610b0857607f821691505b602082108103610b1b57610b1a610ac1565b5b50919050565b60008190508160005260206000209050919050565b60006020601f8301049050919050565b600082821b905092915050565b600060088302610b837fffffffffffffffffffffffffffffffffffffffffffffffffffffffffffffffff82610b46565b610b8d8683610b46565b95508019841693508086168417925050509392505050565b6000819050919050565b6000610bca610bc5610bc084610655565b610ba5565b610655565b9050919050565b6000819050919050565b610be483610baf565b610bf8610bf082610bd1565b848454610b53565b825550505050565b600090565b610c0d610c00565b610c18818484610bdb565b505050565b5b81811015610c3c57610c31600082610c05565b600181019050610c1e565b5050565b601f821115610c8157610c5281610b21565b610c5b84610b36565b81016020851015610c6a578190505b610c7e610c7685610b36565b830182610c1d565b50505b505050565b600082821c905092915050565b6000610ca460001984600802610c86565b1980831691505092915050565b6000610cbd8383610c93565b9150826002028217905092915050565b610cd6826109ac565b67ffffffffffffffff811115610cef57610cee6107c8565b5b610cf98254610af0565b610d04828285610c40565b600060209050601f831160018114610d375760008415610d25578287015190505b610d2f8582610cb1565b865550610d97565b601f198416610d4586610b21565b60005b82811015610d6d57848901518255600182019150602085019450602081019050610d48565b86831015610d8a5784890151610d86601f891682610c93565b8355505b6001600288020188555050505b50505050505056fea26469706673582212207d6b5c2ce2ab4a735f8320a2db9ff4af06f6e6cc729bf2d100c5fe657a54246964736f6c63430008120033",
					"opcodes": "PUSH1 0x80 PUSH1 0x40 MSTORE CALLVALUE DUP1 ISZERO PUSH2 0x10 JUMPI PUSH1 0x0 DUP1 REVERT JUMPDEST POP PUSH2 0xDD5 DUP1 PUSH2 0x20 PUSH1 0x0 CODECOPY PUSH1 0x0 RETURN INVALID PUSH1 0x80 PUSH1 0x40 MSTORE CALLVALUE DUP1 ISZERO PUSH2 0x10 JUMPI PUSH1 0x0 DUP1 REVERT JUMPDEST POP PUSH1 0x4 CALLDATASIZE LT PUSH2 0x57 JUMPI PUSH1 0x0 CALLDATALOAD PUSH1 0xE0 SHR DUP1 PUSH4 0x163E0F46 EQ PUSH2 0x5C JUMPI DUP1 PUSH4 0x51DB2E76 EQ PUSH2 0x8C JUMPI DUP1 PUSH4 0x57F2F8EA EQ PUSH2 0xA8 JUMPI DUP1 PUSH4 0xB1D36506 EQ PUSH2 0xD8 JUMPI DUP1 PUSH4 0xC129FF32 EQ PUSH2 0xF4 JUMPI JUMPDEST PUSH1 0x0 DUP1 REVERT JUMPDEST PUSH2 0x76 PUSH1 0x4 DUP1 CALLDATASIZE SUB DUP2 ADD SWAP1 PUSH2 0x71 SWAP2 SWAP1 PUSH2 0x68B JUMP JUMPDEST PUSH2 0x127 JUMP JUMPDEST PUSH1 0x40 MLOAD PUSH2 0x83 SWAP2 SWAP1 PUSH2 0x72F JUMP JUMPDEST PUSH1 0x40 MLOAD DUP1 SWAP2 SUB SWAP1 RETURN JUMPDEST PUSH2 0xA6 PUSH1 0x4 DUP1 CALLDATASIZE SUB DUP2 ADD SWAP1 PUSH2 0xA1 SWAP2 SWAP1 PUSH2 0x68B JUMP JUMPDEST PUSH2 0x289 JUMP JUMPDEST STOP JUMPDEST PUSH2 0xC2 PUSH1 0x4 DUP1 CALLDATASIZE SUB DUP2 ADD SWAP1 PUSH2 0xBD SWAP2 SWAP1 PUSH2 0x68B JUMP JUMPDEST PUSH2 0x2E0 JUMP JUMPDEST PUSH1 0x40 MLOAD PUSH2 0xCF SWAP2 SWAP1 PUSH2 0x792 JUMP JUMPDEST PUSH1 0x40 MLOAD DUP1 SWAP2 SUB SWAP1 RETURN JUMPDEST PUSH2 0xF2 PUSH1 0x4 DUP1 CALLDATASIZE SUB DUP2 ADD SWAP1 PUSH2 0xED SWAP2 SWAP1 PUSH2 0x93D JUMP JUMPDEST PUSH2 0x442 JUMP JUMPDEST STOP JUMPDEST PUSH2 0x10E PUSH1 0x4 DUP1 CALLDATASIZE SUB DUP2 ADD SWAP1 PUSH2 0x109 SWAP2 SWAP1 PUSH2 0x68B JUMP JUMPDEST PUSH2 0x552 JUMP JUMPDEST PUSH1 0x40 MLOAD PUSH2 0x11E SWAP5 SWAP4 SWAP3 SWAP2 SWAP1 PUSH2 0xA46 JUMP JUMPDEST PUSH1 0x40 MLOAD DUP1 SWAP2 SUB SWAP1 RETURN JUMPDEST PUSH1 0x0 DUP1 PUSH1 0x0 DUP4 DUP2 SLOAD DUP2 LT PUSH2 0x13E JUMPI PUSH2 0x13D PUSH2 0xA92 JUMP JUMPDEST JUMPDEST SWAP1 PUSH1 0x0 MSTORE PUSH1 0x20 PUSH1 0x0 KECCAK256 SWAP1 PUSH1 0x2 MUL ADD PUSH1 0x40 MLOAD DUP1 PUSH1 0x80 ADD PUSH1 0x40 MSTORE SWAP1 DUP2 PUSH1 0x0 DUP3 ADD DUP1 SLOAD PUSH2 0x167 SWAP1 PUSH2 0xAF0 JUMP JUMPDEST DUP1 PUSH1 0x1F ADD PUSH1 0x20 DUP1 SWAP2 DIV MUL PUSH1 0x20 ADD PUSH1 0x40 MLOAD SWAP1 DUP2 ADD PUSH1 0x40 MSTORE DUP1 SWAP3 SWAP2 SWAP1 DUP2 DUP2 MSTORE PUSH1 0x20 ADD DUP3 DUP1 SLOAD PUSH2 0x193 SWAP1 PUSH2 0xAF0 JUMP JUMPDEST DUP1 ISZERO PUSH2 0x1E0 JUMPI DUP1 PUSH1 0x1F LT PUSH2 0x1B5 JUMPI PUSH2 0x100 DUP1 DUP4 SLOAD DIV MUL DUP4 MSTORE SWAP2 PUSH1 0x20 ADD SWAP2 PUSH2 0x1E0 JUMP JUMPDEST DUP3 ADD SWAP2 SWAP1 PUSH1 0x0 MSTORE PUSH1 0x20 PUSH1 0x0 KECCAK256 SWAP1 JUMPDEST DUP2 SLOAD DUP2 MSTORE SWAP1 PUSH1 0x1 ADD SWAP1 PUSH1 0x20 ADD DUP1 DUP4 GT PUSH2 0x1C3 JUMPI DUP3 SWAP1 SUB PUSH1 0x1F AND DUP3 ADD SWAP2 JUMPDEST POP POP POP POP POP DUP2 MSTORE PUSH1 0x20 ADD PUSH1 0x1 DUP3 ADD PUSH1 0x0 SWAP1 SLOAD SWAP1 PUSH2 0x100 EXP SWAP1 DIV PUSH1 0xFF AND PUSH1 0x2 DUP2 GT ISZERO PUSH2 0x20E JUMPI PUSH2 0x20D PUSH2 0x6B8 JUMP JUMPDEST JUMPDEST PUSH1 0x2 DUP2 GT ISZERO PUSH2 0x220 JUMPI PUSH2 0x21F PUSH2 0x6B8 JUMP JUMPDEST JUMPDEST DUP2 MSTORE PUSH1 0x20 ADD PUSH1 0x1 DUP3 ADD PUSH1 0x1 SWAP1 SLOAD SWAP1 PUSH2 0x100 EXP SWAP1 DIV PUSH1 0xFF AND PUSH1 0x6 DUP2 GT ISZERO PUSH2 0x249 JUMPI PUSH2 0x248 PUSH2 0x6B8 JUMP JUMPDEST JUMPDEST PUSH1 0x6 DUP2 GT ISZERO PUSH2 0x25B JUMPI PUSH2 0x25A PUSH2 0x6B8 JUMP JUMPDEST JUMPDEST DUP2 MSTORE PUSH1 0x20 ADD PUSH1 0x1 DUP3 ADD PUSH1 0x2 SWAP1 SLOAD SWAP1 PUSH2 0x100 EXP SWAP1 DIV PUSH1 0xFF AND ISZERO ISZERO ISZERO ISZERO DUP2 MSTORE POP POP SWAP1 POP DUP1 PUSH1 0x20 ADD MLOAD SWAP2 POP POP SWAP2 SWAP1 POP JUMP JUMPDEST PUSH1 0x0 DUP1 DUP3 DUP2 SLOAD DUP2 LT PUSH2 0x29E JUMPI PUSH2 0x29D PUSH2 0xA92 JUMP JUMPDEST JUMPDEST SWAP1 PUSH1 0x0 MSTORE PUSH1 0x20 PUSH1 0x0 KECCAK256 SWAP1 PUSH1 0x2 MUL ADD SWAP1 POP DUP1 PUSH1 0x1 ADD PUSH1 0x2 SWAP1 SLOAD SWAP1 PUSH2 0x100 EXP SWAP1 DIV PUSH1 0xFF AND ISZERO DUP2 PUSH1 0x1 ADD PUSH1 0x2 PUSH2 0x100 EXP DUP2 SLOAD DUP2 PUSH1 0xFF MUL NOT AND SWAP1 DUP4 ISZERO ISZERO MUL OR SWAP1 SSTORE POP POP POP JUMP JUMPDEST PUSH1 0x0 DUP1 PUSH1 0x0 DUP4 DUP2 SLOAD DUP2 LT PUSH2 0x2F7 JUMPI PUSH2 0x2F6 PUSH2 0xA92 JUMP JUMPDEST JUMPDEST SWAP1 PUSH1 0x0 MSTORE PUSH1 0x20 PUSH1 0x0 KECCAK256 SWAP1 PUSH1 0x2 MUL ADD PUSH1 0x40 MLOAD DUP1 PUSH1 0x80 ADD PUSH1 0x40 MSTORE SWAP1 DUP2 PUSH1 0x0 DUP3 ADD DUP1 SLOAD PUSH2 0x320 SWAP1 PUSH2 0xAF0 JUMP JUMPDEST DUP1 PUSH1 0x1F ADD PUSH1 0x20 DUP1 SWAP2 DIV MUL PUSH1 0x20 ADD PUSH1 0x40 MLOAD SWAP1 DUP2 ADD PUSH1 0x40 MSTORE DUP1 SWAP3 SWAP2 SWAP1 DUP2 DUP2 MSTORE PUSH1 0x20 ADD DUP3 DUP1 SLOAD PUSH2 0x34C SWAP1 PUSH2 0xAF0 JUMP JUMPDEST DUP1 ISZERO PUSH2 0x399 JUMPI DUP1 PUSH1 0x1F LT PUSH2 0x36E JUMPI PUSH2 0x100 DUP1 DUP4 SLOAD DIV MUL DUP4 MSTORE SWAP2 PUSH1 0x20 ADD SWAP2 PUSH2 0x399 JUMP JUMPDEST DUP3 ADD SWAP2 SWAP1 PUSH1 0x0 MSTORE PUSH1 0x20 PUSH1 0x0 KECCAK256 SWAP1 JUMPDEST DUP2 SLOAD DUP2 MSTORE SWAP1 PUSH1 0x1 ADD SWAP1 PUSH1 0x20 ADD DUP1 DUP4 GT PUSH2 0x37C JUMPI DUP3 SWAP1 SUB PUSH1 0x1F AND DUP3 ADD SWAP2 JUMPDEST POP POP POP POP POP DUP2 MSTORE PUSH1 0x20 ADD PUSH1 0x1 DUP3 ADD PUSH1 0x0 SWAP1 SLOAD SWAP1 PUSH2 0x100 EXP SWAP1 DIV PUSH1 0xFF AND PUSH1 0x2 DUP2 GT ISZERO PUSH2 0x3C7 JUMPI PUSH2 0x3C6 PUSH2 0x6B8 JUMP JUMPDEST JUMPDEST PUSH1 0x2 DUP2 GT ISZERO PUSH2 0x3D9 JUMPI PUSH2 0x3D8 PUSH2 0x6B8 JUMP JUMPDEST JUMPDEST DUP2 MSTORE PUSH1 0x20 ADD PUSH1 0x1 DUP3 ADD PUSH1 0x1 SWAP1 SLOAD SWAP1 PUSH2 0x100 EXP SWAP1 DIV PUSH1 0xFF AND PUSH1 0x6 DUP2 GT ISZERO PUSH2 0x402 JUMPI PUSH2 0x401 PUSH2 0x6B8 JUMP JUMPDEST JUMPDEST PUSH1 0x6 DUP2 GT ISZERO PUSH2 0x414 JUMPI PUSH2 0x413 PUSH2 0x6B8 JUMP JUMPDEST JUMPDEST DUP2 MSTORE PUSH1 0x20 ADD PUSH1 0x1 DUP3 ADD PUSH1 0x2 SWAP1 SLOAD SWAP1 PUSH2 0x100 EXP SWAP1 DIV PUSH1 0xFF AND ISZERO ISZERO ISZERO ISZERO DUP2 MSTORE POP POP SWAP1 POP DUP1 PUSH1 0x40 ADD MLOAD SWAP2 POP POP SWAP2 SWAP1 POP JUMP JUMPDEST PUSH1 0x0 PUSH1 0x40 MLOAD DUP1 PUSH1 0x80 ADD PUSH1 0x40 MSTORE DUP1 DUP6 DUP2 MSTORE PUSH1 0x20 ADD DUP4 PUSH1 0x2 DUP2 GT ISZERO PUSH2 0x468 JUMPI PUSH2 0x467 PUSH2 0x6B8 JUMP JUMPDEST JUMPDEST DUP2 MSTORE PUSH1 0x20 ADD DUP5 PUSH1 0x6 DUP2 GT ISZERO PUSH2 0x480 JUMPI PUSH2 0x47F PUSH2 0x6B8 JUMP JUMPDEST JUMPDEST DUP2 MSTORE PUSH1 0x20 ADD PUSH1 0x1 ISZERO ISZERO DUP2 MSTORE POP SWAP1 DUP1 PUSH1 0x1 DUP2 SLOAD ADD DUP1 DUP3 SSTORE DUP1 SWAP2 POP POP PUSH1 0x1 SWAP1 SUB SWAP1 PUSH1 0x0 MSTORE PUSH1 0x20 PUSH1 0x0 KECCAK256 SWAP1 PUSH1 0x2 MUL ADD PUSH1 0x0 SWAP1 SWAP2 SWAP1 SWAP2 SWAP1 SWAP2 POP PUSH1 0x0 DUP3 ADD MLOAD DUP2 PUSH1 0x0 ADD SWAP1 DUP2 PUSH2 0x4CA SWAP2 SWAP1 PUSH2 0xCCD JUMP JUMPDEST POP PUSH1 0x20 DUP3 ADD MLOAD DUP2 PUSH1 0x1 ADD PUSH1 0x0 PUSH2 0x100 EXP DUP2 SLOAD DUP2 PUSH1 0xFF MUL NOT AND SWAP1 DUP4 PUSH1 0x2 DUP2 GT ISZERO PUSH2 0x4F6 JUMPI PUSH2 0x4F5 PUSH2 0x6B8 JUMP JUMPDEST JUMPDEST MUL OR SWAP1 SSTORE POP PUSH1 0x40 DUP3 ADD MLOAD DUP2 PUSH1 0x1 ADD PUSH1 0x1 PUSH2 0x100 EXP DUP2 SLOAD DUP2 PUSH1 0xFF MUL NOT AND SWAP1 DUP4 PUSH1 0x6 DUP2 GT ISZERO PUSH2 0x526 JUMPI PUSH2 0x525 PUSH2 0x6B8 JUMP JUMPDEST JUMPDEST MUL OR SWAP1 SSTORE POP PUSH1 0x60 DUP3 ADD MLOAD DUP2 PUSH1 0x1 ADD PUSH1 0x2 PUSH2 0x100 EXP DUP2 SLOAD DUP2 PUSH1 0xFF MUL NOT AND SWAP1 DUP4 ISZERO ISZERO MUL OR SWAP1 SSTORE POP POP POP POP POP POP JUMP JUMPDEST PUSH1 0x0 DUP2 DUP2 SLOAD DUP2 LT PUSH2 0x562 JUMPI PUSH1 0x0 DUP1 REVERT JUMPDEST SWAP1 PUSH1 0x0 MSTORE PUSH1 0x20 PUSH1 0x0 KECCAK256 SWAP1 PUSH1 0x2 MUL ADD PUSH1 0x0 SWAP2 POP SWAP1 POP DUP1 PUSH1 0x0 ADD DUP1 SLOAD PUSH2 0x585 SWAP1 PUSH2 0xAF0 JUMP JUMPDEST DUP1 PUSH1 0x1F ADD PUSH1 0x20 DUP1 SWAP2 DIV MUL PUSH1 0x20 ADD PUSH1 0x40 MLOAD SWAP1 DUP2 ADD PUSH1 0x40 MSTORE DUP1 SWAP3 SWAP2 SWAP1 DUP2 DUP2 MSTORE PUSH1 0x20 ADD DUP3 DUP1 SLOAD PUSH2 0x5B1 SWAP1 PUSH2 0xAF0 JUMP JUMPDEST DUP1 ISZERO PUSH2 0x5FE JUMPI DUP1 PUSH1 0x1F LT PUSH2 0x5D3 JUMPI PUSH2 0x100 DUP1 DUP4 SLOAD DIV MUL DUP4 MSTORE SWAP2 PUSH1 0x20 ADD SWAP2 PUSH2 0x5FE JUMP JUMPDEST DUP3 ADD SWAP2 SWAP1 PUSH1 0x0 MSTORE PUSH1 0x20 PUSH1 0x0 KECCAK256 SWAP1 JUMPDEST DUP2 SLOAD DUP2 MSTORE SWAP1 PUSH1 0x1 ADD SWAP1 PUSH1 0x20 ADD DUP1 DUP4 GT PUSH2 0x5E1 JUMPI DUP3 SWAP1 SUB PUSH1 0x1F AND DUP3 ADD SWAP2 JUMPDEST POP POP POP POP POP SWAP1 DUP1 PUSH1 0x1 ADD PUSH1 0x0 SWAP1 SLOAD SWAP1 PUSH2 0x100 EXP SWAP1 DIV PUSH1 0xFF AND SWAP1 DUP1 PUSH1 0x1 ADD PUSH1 0x1 SWAP1 SLOAD SWAP1 PUSH2 0x100 EXP SWAP1 DIV PUSH1 0xFF AND SWAP1 DUP1 PUSH1 0x1 ADD PUSH1 0x2 SWAP1 SLOAD SWAP1 PUSH2 0x100 EXP SWAP1 DIV PUSH1 0xFF AND SWAP1 POP DUP5 JUMP JUMPDEST PUSH1 0x0 PUSH1 0x40 MLOAD SWAP1 POP SWAP1 JUMP JUMPDEST PUSH1 0x0 DUP1 REVERT JUMPDEST PUSH1 0x0 DUP1 REVERT JUMPDEST PUSH1 0x0 DUP2 SWAP1 POP SWAP2 SWAP1 POP JUMP JUMPDEST PUSH2 0x668 DUP2 PUSH2 0x655 JUMP JUMPDEST DUP2 EQ PUSH2 0x673 JUMPI PUSH1 0x0 DUP1 REVERT JUMPDEST POP JUMP JUMPDEST PUSH1 0x0 DUP2 CALLDATALOAD SWAP1 POP PUSH2 0x685 DUP2 PUSH2 0x65F JUMP JUMPDEST SWAP3 SWAP2 POP POP JUMP JUMPDEST PUSH1 0x0 PUSH1 0x20 DUP3 DUP5 SUB SLT ISZERO PUSH2 0x6A1 JUMPI PUSH2 0x6A0 PUSH2 0x64B JUMP JUMPDEST JUMPDEST PUSH1 0x0 PUSH2 0x6AF DUP5 DUP3 DUP6 ADD PUSH2 0x676 JUMP JUMPDEST SWAP2 POP POP SWAP3 SWAP2 POP POP JUMP JUMPDEST PUSH32 0x4E487B7100000000000000000000000000000000000000000000000000000000 PUSH1 0x0 MSTORE PUSH1 0x21 PUSH1 0x4 MSTORE PUSH1 0x24 PUSH1 0x0 REVERT JUMPDEST PUSH1 0x3 DUP2 LT PUSH2 0x6F8 JUMPI PUSH2 0x6F7 PUSH2 0x6B8 JUMP JUMPDEST JUMPDEST POP JUMP JUMPDEST PUSH1 0x0 DUP2 SWAP1 POP PUSH2 0x709 DUP3 PUSH2 0x6E7 JUMP JUMPDEST SWAP2 SWAP1 POP JUMP JUMPDEST PUSH1 0x0 PUSH2 0x719 DUP3 PUSH2 0x6FB JUMP JUMPDEST SWAP1 POP SWAP2 SWAP1 POP JUMP JUMPDEST PUSH2 0x729 DUP2 PUSH2 0x70E JUMP JUMPDEST DUP3 MSTORE POP POP JUMP JUMPDEST PUSH1 0x0 PUSH1 0x20 DUP3 ADD SWAP1 POP PUSH2 0x744 PUSH1 0x0 DUP4 ADD DUP5 PUSH2 0x720 JUMP JUMPDEST SWAP3 SWAP2 POP POP JUMP JUMPDEST PUSH1 0x7 DUP2 LT PUSH2 0x75B JUMPI PUSH2 0x75A PUSH2 0x6B8 JUMP JUMPDEST JUMPDEST POP JUMP JUMPDEST PUSH1 0x0 DUP2 SWAP1 POP PUSH2 0x76C DUP3 PUSH2 0x74A JUMP JUMPDEST SWAP2 SWAP1 POP JUMP JUMPDEST PUSH1 0x0 PUSH2 0x77C DUP3 PUSH2 0x75E JUMP JUMPDEST SWAP1 POP SWAP2 SWAP1 POP JUMP JUMPDEST PUSH2 0x78C DUP2 PUSH2 0x771 JUMP JUMPDEST DUP3 MSTORE POP POP JUMP JUMPDEST PUSH1 0x0 PUSH1 0x20 DUP3 ADD SWAP1 POP PUSH2 0x7A7 PUSH1 0x0 DUP4 ADD DUP5 PUSH2 0x783 JUMP JUMPDEST SWAP3 SWAP2 POP POP JUMP JUMPDEST PUSH1 0x0 DUP1 REVERT JUMPDEST PUSH1 0x0 DUP1 REVERT JUMPDEST PUSH1 0x0 PUSH1 0x1F NOT PUSH1 0x1F DUP4 ADD AND SWAP1 POP SWAP2 SWAP1 POP JUMP JUMPDEST PUSH32 0x4E487B7100000000000000000000000000000000000000000000000000000000 PUSH1 0x0 MSTORE PUSH1 0x41 PUSH1 0x4 MSTORE PUSH1 0x24 PUSH1 0x0 REVERT JUMPDEST PUSH2 0x800 DUP3 PUSH2 0x7B7 JUMP JUMPDEST DUP2 ADD DUP2 DUP2 LT PUSH8 0xFFFFFFFFFFFFFFFF DUP3 GT OR ISZERO PUSH2 0x81F JUMPI PUSH2 0x81E PUSH2 0x7C8 JUMP JUMPDEST JUMPDEST DUP1 PUSH1 0x40 MSTORE POP POP POP JUMP JUMPDEST PUSH1 0x0 PUSH2 0x832 PUSH2 0x641 JUMP JUMPDEST SWAP1 POP PUSH2 0x83E DUP3 DUP3 PUSH2 0x7F7 JUMP JUMPDEST SWAP2 SWAP1 POP JUMP JUMPDEST PUSH1 0x0 PUSH8 0xFFFFFFFFFFFFFFFF DUP3 GT ISZERO PUSH2 0x85E JUMPI PUSH2 0x85D PUSH2 0x7C8 JUMP JUMPDEST JUMPDEST PUSH2 0x867 DUP3 PUSH2 0x7B7 JUMP JUMPDEST SWAP1 POP PUSH1 0x20 DUP2 ADD SWAP1 POP SWAP2 SWAP1 POP JUMP JUMPDEST DUP3 DUP2 DUP4 CALLDATACOPY PUSH1 0x0 DUP4 DUP4 ADD MSTORE POP POP POP JUMP JUMPDEST PUSH1 0x0 PUSH2 0x896 PUSH2 0x891 DUP5 PUSH2 0x843 JUMP JUMPDEST PUSH2 0x828 JUMP JUMPDEST SWAP1 POP DUP3 DUP2 MSTORE PUSH1 0x20 DUP2 ADD DUP5 DUP5 DUP5 ADD GT ISZERO PUSH2 0x8B2 JUMPI PUSH2 0x8B1 PUSH2 0x7B2 JUMP JUMPDEST JUMPDEST PUSH2 0x8BD DUP5 DUP3 DUP6 PUSH2 0x874 JUMP JUMPDEST POP SWAP4 SWAP3 POP POP POP JUMP JUMPDEST PUSH1 0x0 DUP3 PUSH1 0x1F DUP4 ADD SLT PUSH2 0x8DA JUMPI PUSH2 0x8D9 PUSH2 0x7AD JUMP JUMPDEST JUMPDEST DUP2 CALLDATALOAD PUSH2 0x8EA DUP5 DUP3 PUSH1 0x20 DUP7 ADD PUSH2 0x883 JUMP JUMPDEST SWAP2 POP POP SWAP3 SWAP2 POP POP JUMP JUMPDEST PUSH1 0x7 DUP2 LT PUSH2 0x900 JUMPI PUSH1 0x0 DUP1 REVERT JUMPDEST POP JUMP JUMPDEST PUSH1 0x0 DUP2 CALLDATALOAD SWAP1 POP PUSH2 0x912 DUP2 PUSH2 0x8F3 JUMP JUMPDEST SWAP3 SWAP2 POP POP JUMP JUMPDEST PUSH1 0x3 DUP2 LT PUSH2 0x925 JUMPI PUSH1 0x0 DUP1 REVERT JUMPDEST POP JUMP JUMPDEST PUSH1 0x0 DUP2 CALLDATALOAD SWAP1 POP PUSH2 0x937 DUP2 PUSH2 0x918 JUMP JUMPDEST SWAP3 SWAP2 POP POP JUMP JUMPDEST PUSH1 0x0 DUP1 PUSH1 0x0 PUSH1 0x60 DUP5 DUP7 SUB SLT ISZERO PUSH2 0x956 JUMPI PUSH2 0x955 PUSH2 0x64B JUMP JUMPDEST JUMPDEST PUSH1 0x0 DUP5 ADD CALLDATALOAD PUSH8 0xFFFFFFFFFFFFFFFF DUP2 GT ISZERO PUSH2 0x974 JUMPI PUSH2 0x973 PUSH2 0x650 JUMP JUMPDEST JUMPDEST PUSH2 0x980 DUP7 DUP3 DUP8 ADD PUSH2 0x8C5 JUMP JUMPDEST SWAP4 POP POP PUSH1 0x20 PUSH2 0x991 DUP7 DUP3 DUP8 ADD PUSH2 0x903 JUMP JUMPDEST SWAP3 POP POP PUSH1 0x40 PUSH2 0x9A2 DUP7 DUP3 DUP8 ADD PUSH2 0x928 JUMP JUMPDEST SWAP2 POP POP SWAP3 POP SWAP3 POP SWAP3 JUMP JUMPDEST PUSH1 0x0 DUP2 MLOAD SWAP1 POP SWAP2 SWAP1 POP JUMP JUMPDEST PUSH1 0x0 DUP3 DUP3 MSTORE PUSH1 0x20 DUP3 ADD SWAP1 POP SWAP3 SWAP2 POP POP JUMP JUMPDEST PUSH1 0x0 JUMPDEST DUP4 DUP2 LT ISZERO PUSH2 0x9E6 JUMPI DUP1 DUP3 ADD MLOAD DUP2 DUP5 ADD MSTORE PUSH1 0x20 DUP2 ADD SWAP1 POP PUSH2 0x9CB JUMP JUMPDEST PUSH1 0x0 DUP5 DUP5 ADD MSTORE POP POP POP POP JUMP JUMPDEST PUSH1 0x0 PUSH2 0x9FD DUP3 PUSH2 0x9AC JUMP JUMPDEST PUSH2 0xA07 DUP2 DUP6 PUSH2 0x9B7 JUMP JUMPDEST SWAP4 POP PUSH2 0xA17 DUP2 DUP6 PUSH1 0x20 DUP7 ADD PUSH2 0x9C8 JUMP JUMPDEST PUSH2 0xA20 DUP2 PUSH2 0x7B7 JUMP JUMPDEST DUP5 ADD SWAP2 POP POP SWAP3 SWAP2 POP POP JUMP JUMPDEST PUSH1 0x0 DUP2 ISZERO ISZERO SWAP1 POP SWAP2 SWAP1 POP JUMP JUMPDEST PUSH2 0xA40 DUP2 PUSH2 0xA2B JUMP JUMPDEST DUP3 MSTORE POP POP JUMP JUMPDEST PUSH1 0x0 PUSH1 0x80 DUP3 ADD SWAP1 POP DUP2 DUP2 SUB PUSH1 0x0 DUP4 ADD MSTORE PUSH2 0xA60 DUP2 DUP8 PUSH2 0x9F2 JUMP JUMPDEST SWAP1 POP PUSH2 0xA6F PUSH1 0x20 DUP4 ADD DUP7 PUSH2 0x720 JUMP JUMPDEST PUSH2 0xA7C PUSH1 0x40 DUP4 ADD DUP6 PUSH2 0x783 JUMP JUMPDEST PUSH2 0xA89 PUSH1 0x60 DUP4 ADD DUP5 PUSH2 0xA37 JUMP JUMPDEST SWAP6 SWAP5 POP POP POP POP POP JUMP JUMPDEST PUSH32 0x4E487B7100000000000000000000000000000000000000000000000000000000 PUSH1 0x0 MSTORE PUSH1 0x32 PUSH1 0x4 MSTORE PUSH1 0x24 PUSH1 0x0 REVERT JUMPDEST PUSH32 0x4E487B7100000000000000000000000000000000000000000000000000000000 PUSH1 0x0 MSTORE PUSH1 0x22 PUSH1 0x4 MSTORE PUSH1 0x24 PUSH1 0x0 REVERT JUMPDEST PUSH1 0x0 PUSH1 0x2 DUP3 DIV SWAP1 POP PUSH1 0x1 DUP3 AND DUP1 PUSH2 0xB08 JUMPI PUSH1 0x7F DUP3 AND SWAP2 POP JUMPDEST PUSH1 0x20 DUP3 LT DUP2 SUB PUSH2 0xB1B JUMPI PUSH2 0xB1A PUSH2 0xAC1 JUMP JUMPDEST JUMPDEST POP SWAP2 SWAP1 POP JUMP JUMPDEST PUSH1 0x0 DUP2 SWAP1 POP DUP2 PUSH1 0x0 MSTORE PUSH1 0x20 PUSH1 0x0 KECCAK256 SWAP1 POP SWAP2 SWAP1 POP JUMP JUMPDEST PUSH1 0x0 PUSH1 0x20 PUSH1 0x1F DUP4 ADD DIV SWAP1 POP SWAP2 SWAP1 POP JUMP JUMPDEST PUSH1 0x0 DUP3 DUP3 SHL SWAP1 POP SWAP3 SWAP2 POP POP JUMP JUMPDEST PUSH1 0x0 PUSH1 0x8 DUP4 MUL PUSH2 0xB83 PUSH32 0xFFFFFFFFFFFFFFFFFFFFFFFFFFFFFFFFFFFFFFFFFFFFFFFFFFFFFFFFFFFFFFFF DUP3 PUSH2 0xB46 JUMP JUMPDEST PUSH2 0xB8D DUP7 DUP4 PUSH2 0xB46 JUMP JUMPDEST SWAP6 POP DUP1 NOT DUP5 AND SWAP4 POP DUP1 DUP7 AND DUP5 OR SWAP3 POP POP POP SWAP4 SWAP3 POP POP POP JUMP JUMPDEST PUSH1 0x0 DUP2 SWAP1 POP SWAP2 SWAP1 POP JUMP JUMPDEST PUSH1 0x0 PUSH2 0xBCA PUSH2 0xBC5 PUSH2 0xBC0 DUP5 PUSH2 0x655 JUMP JUMPDEST PUSH2 0xBA5 JUMP JUMPDEST PUSH2 0x655 JUMP JUMPDEST SWAP1 POP SWAP2 SWAP1 POP JUMP JUMPDEST PUSH1 0x0 DUP2 SWAP1 POP SWAP2 SWAP1 POP JUMP JUMPDEST PUSH2 0xBE4 DUP4 PUSH2 0xBAF JUMP JUMPDEST PUSH2 0xBF8 PUSH2 0xBF0 DUP3 PUSH2 0xBD1 JUMP JUMPDEST DUP5 DUP5 SLOAD PUSH2 0xB53 JUMP JUMPDEST DUP3 SSTORE POP POP POP POP JUMP JUMPDEST PUSH1 0x0 SWAP1 JUMP JUMPDEST PUSH2 0xC0D PUSH2 0xC00 JUMP JUMPDEST PUSH2 0xC18 DUP2 DUP5 DUP5 PUSH2 0xBDB JUMP JUMPDEST POP POP POP JUMP JUMPDEST JUMPDEST DUP2 DUP2 LT ISZERO PUSH2 0xC3C JUMPI PUSH2 0xC31 PUSH1 0x0 DUP3 PUSH2 0xC05 JUMP JUMPDEST PUSH1 0x1 DUP2 ADD SWAP1 POP PUSH2 0xC1E JUMP JUMPDEST POP POP JUMP JUMPDEST PUSH1 0x1F DUP3 GT ISZERO PUSH2 0xC81 JUMPI PUSH2 0xC52 DUP2 PUSH2 0xB21 JUMP JUMPDEST PUSH2 0xC5B DUP5 PUSH2 0xB36 JUMP JUMPDEST DUP2 ADD PUSH1 0x20 DUP6 LT ISZERO PUSH2 0xC6A JUMPI DUP2 SWAP1 POP JUMPDEST PUSH2 0xC7E PUSH2 0xC76 DUP6 PUSH2 0xB36 JUMP JUMPDEST DUP4 ADD DUP3 PUSH2 0xC1D JUMP JUMPDEST POP POP JUMPDEST POP POP POP JUMP JUMPDEST PUSH1 0x0 DUP3 DUP3 SHR SWAP1 POP SWAP3 SWAP2 POP POP JUMP JUMPDEST PUSH1 0x0 PUSH2 0xCA4 PUSH1 0x0 NOT DUP5 PUSH1 0x8 MUL PUSH2 0xC86 JUMP JUMPDEST NOT DUP1 DUP4 AND SWAP2 POP POP SWAP3 SWAP2 POP POP JUMP JUMPDEST PUSH1 0x0 PUSH2 0xCBD DUP4 DUP4 PUSH2 0xC93 JUMP JUMPDEST SWAP2 POP DUP3 PUSH1 0x2 MUL DUP3 OR SWAP1 POP SWAP3 SWAP2 POP POP JUMP JUMPDEST PUSH2 0xCD6 DUP3 PUSH2 0x9AC JUMP JUMPDEST PUSH8 0xFFFFFFFFFFFFFFFF DUP2 GT ISZERO PUSH2 0xCEF JUMPI PUSH2 0xCEE PUSH2 0x7C8 JUMP JUMPDEST JUMPDEST PUSH2 0xCF9 DUP3 SLOAD PUSH2 0xAF0 JUMP JUMPDEST PUSH2 0xD04 DUP3 DUP3 DUP6 PUSH2 0xC40 JUMP JUMPDEST PUSH1 0x0 PUSH1 0x20 SWAP1 POP PUSH1 0x1F DUP4 GT PUSH1 0x1 DUP2 EQ PUSH2 0xD37 JUMPI PUSH1 0x0 DUP5 ISZERO PUSH2 0xD25 JUMPI DUP3 DUP8 ADD MLOAD SWAP1 POP JUMPDEST PUSH2 0xD2F DUP6 DUP3 PUSH2 0xCB1 JUMP JUMPDEST DUP7 SSTORE POP PUSH2 0xD97 JUMP JUMPDEST PUSH1 0x1F NOT DUP5 AND PUSH2 0xD45 DUP7 PUSH2 0xB21 JUMP JUMPDEST PUSH1 0x0 JUMPDEST DUP3 DUP2 LT ISZERO PUSH2 0xD6D JUMPI DUP5 DUP10 ADD MLOAD DUP3 SSTORE PUSH1 0x1 DUP3 ADD SWAP2 POP PUSH1 0x20 DUP6 ADD SWAP5 POP PUSH1 0x20 DUP2 ADD SWAP1 POP PUSH2 0xD48 JUMP JUMPDEST DUP7 DUP4 LT ISZERO PUSH2 0xD8A JUMPI DUP5 DUP10 ADD MLOAD PUSH2 0xD86 PUSH1 0x1F DUP10 AND DUP3 PUSH2 0xC93 JUMP JUMPDEST DUP4 SSTORE POP JUMPDEST PUSH1 0x1 PUSH1 0x2 DUP9 MUL ADD DUP9 SSTORE POP POP POP JUMPDEST POP POP POP POP POP POP JUMP INVALID LOG2 PUSH5 0x6970667358 0x22 SLT KECCAK256 PUSH30 0x6B5C2CE2AB4A735F8320A2DB9FF4AF06F6E6CC729BF2D100C5FE657A5424 PUSH10 0x64736F6C634300081200 CALLER "
				},
				"gasEstimates": {
					"creation": {
						"codeDepositCost": "708200",
						"executionCost": "741",
						"totalCost": "708941"
					},
					"external": {
						"bookTicket(string,uint8,uint8)": "infinite",
						"getTicketDay(uint256)": "infinite",
						"getTicketType(uint256)": "infinite",
						"ticket(uint256)": "infinite",
						"toggleStatus(uint256)": "29128"
					}
				},
				"methodIdentifiers": {
					"bookTicket(string,uint8,uint8)": "b1d36506",
					"getTicketDay(uint256)": "57f2f8ea",
					"getTicketType(uint256)": "163e0f46",
					"ticket(uint256)": "c129ff32",
					"toggleStatus(uint256)": "51db2e76"
				}
			},
			"storageLayout": {
				"storage": [
					{
						"astId": 28,
						"contract": "contracts/02-8 TicketBookingSystem.sol:TicketBookingSystem",
						"label": "ticket",
						"offset": 0,
						"slot": "0",
						"type": "t_array(t_struct(Ticket)24_storage)dyn_storage"
					}
				],
				"types": {
					"t_array(t_struct(Ticket)24_storage)dyn_storage": {
						"base": "t_struct(Ticket)24_storage",
						"encoding": "dynamic_array",
						"label": "struct TicketBookingSystem.Ticket[]",
						"numberOfBytes": "32"
					},
					"t_bool": {
						"encoding": "inplace",
						"label": "bool",
						"numberOfBytes": "1"
					},
					"t_enum(Days)13": {
						"encoding": "inplace",
						"label": "enum TicketBookingSystem.Days",
						"numberOfBytes": "1"
					},
					"t_enum(TicketType)5": {
						"encoding": "inplace",
						"label": "enum TicketBookingSystem.TicketType",
						"numberOfBytes": "1"
					},
					"t_string_storage": {
						"encoding": "bytes",
						"label": "string",
						"numberOfBytes": "32"
					},
					"t_struct(Ticket)24_storage": {
						"encoding": "inplace",
						"label": "struct TicketBookingSystem.Ticket",
						"members": [
							{
								"astId": 15,
								"contract": "contracts/02-8 TicketBookingSystem.sol:TicketBookingSystem",
								"label": "passenger",
								"offset": 0,
								"slot": "0",
								"type": "t_string_storage"
							},
							{
								"astId": 18,
								"contract": "contracts/02-8 TicketBookingSystem.sol:TicketBookingSystem",
								"label": "ticketType",
								"offset": 0,
								"slot": "1",
								"type": "t_enum(TicketType)5"
							},
							{
								"astId": 21,
								"contract": "contracts/02-8 TicketBookingSystem.sol:TicketBookingSystem",
								"label": "day",
								"offset": 1,
								"slot": "1",
								"type": "t_enum(Days)13"
							},
							{
								"astId": 23,
								"contract": "contracts/02-8 TicketBookingSystem.sol:TicketBookingSystem",
								"label": "isBooked",
								"offset": 2,
								"slot": "1",
								"type": "t_bool"
							}
						],
						"numberOfBytes": "64"
					}
				}
			},
			"userdoc": {
				"kind": "user",
				"methods": {},
				"version": 1
			}
		}
	}
}