{
	"contracts/10-8 Events2.sol": {
		"Event": {
			"abi": [
				{
					"anonymous": false,
					"inputs": [],
					"name": "AnotherLog",
					"type": "event"
				},
				{
					"anonymous": false,
					"inputs": [
						{
							"indexed": false,
							"internalType": "string",
							"name": "name",
							"type": "string"
						},
						{
							"indexed": false,
							"internalType": "string",
							"name": "ContactAddr",
							"type": "string"
						},
						{
							"indexed": false,
							"internalType": "string",
							"name": "dep",
							"type": "string"
						}
					],
					"name": "Detail",
					"type": "event"
				},
				{
					"anonymous": false,
					"inputs": [
						{
							"indexed": true,
							"internalType": "address",
							"name": "sender",
							"type": "address"
						},
						{
							"indexed": false,
							"internalType": "string",
							"name": "msg",
							"type": "string"
						}
					],
					"name": "Log",
					"type": "event"
				},
				{
					"inputs": [],
					"name": "test",
					"outputs": [],
					"stateMutability": "nonpayable",
					"type": "function"
				}
			],
			"devdoc": {
				"kind": "dev",
				"methods": {},
				"version": 1
			},
			"evm": {
				"assembly": "    /* \"contracts/10-8 Events2.sol\":64:616  contract Event { ... */\n  mstore(0x40, 0x80)\n  callvalue\n  dup1\n  iszero\n  tag_1\n  jumpi\n  0x00\n  dup1\n  revert\ntag_1:\n  pop\n  dataSize(sub_0)\n  dup1\n  dataOffset(sub_0)\n  0x00\n  codecopy\n  0x00\n  return\nstop\n\nsub_0: assembly {\n        /* \"contracts/10-8 Events2.sol\":64:616  contract Event { ... */\n      mstore(0x40, 0x80)\n      callvalue\n      dup1\n      iszero\n      tag_1\n      jumpi\n      0x00\n      dup1\n      revert\n    tag_1:\n      pop\n      jumpi(tag_2, lt(calldatasize, 0x04))\n      shr(0xe0, calldataload(0x00))\n      dup1\n      0xf8a8fd6d\n      eq\n      tag_3\n      jumpi\n    tag_2:\n      0x00\n      dup1\n      revert\n        /* \"contracts/10-8 Events2.sol\":375:612  function test() public { ... */\n    tag_3:\n      tag_4\n      tag_5\n      jump\t// in\n    tag_4:\n      stop\n    tag_5:\n        /* \"contracts/10-8 Events2.sol\":419:429  msg.sender */\n      caller\n        /* \"contracts/10-8 Events2.sol\":415:446  Log(msg.sender, \"Hello Web3.0\") */\n      0xffffffffffffffffffffffffffffffffffffffff\n      and\n      0x0738f4da267a110d810e6e89fc59e46be6de0c37b1d5cd559b267dc3688e74e0\n      mload(0x40)\n      tag_7\n      swap1\n      tag_8\n      jump\t// in\n    tag_7:\n      mload(0x40)\n      dup1\n      swap2\n      sub\n      swap1\n      log2\n        /* \"contracts/10-8 Events2.sol\":467:477  msg.sender */\n      caller\n        /* \"contracts/10-8 Events2.sol\":463:513  Log(msg.sender, \"It's all about Decentralization\") */\n      0xffffffffffffffffffffffffffffffffffffffff\n      and\n      0x0738f4da267a110d810e6e89fc59e46be6de0c37b1d5cd559b267dc3688e74e0\n      mload(0x40)\n      tag_9\n      swap1\n      tag_10\n      jump\t// in\n    tag_9:\n      mload(0x40)\n      dup1\n      swap2\n      sub\n      swap1\n      log2\n        /* \"contracts/10-8 Events2.sol\":530:542  AnotherLog() */\n      0xfe1a3ad11e425db4b8e6af35d11c50118826a496df73006fc724cb27f2b99946\n      mload(0x40)\n      mload(0x40)\n      dup1\n      swap2\n      sub\n      swap1\n      log1\n        /* \"contracts/10-8 Events2.sol\":559:604  Detail(\"Saba\", \"Sabaali3201@gmail.com\", \"CS\") */\n      0xa9506b4ed760b5eca7f45accabec32cef55260048fb6ace1bfb54a1d5938287a\n      mload(0x40)\n      tag_11\n      swap1\n      tag_12\n      jump\t// in\n    tag_11:\n      mload(0x40)\n      dup1\n      swap2\n      sub\n      swap1\n      log1\n        /* \"contracts/10-8 Events2.sol\":375:612  function test() public { ... */\n      jump\t// out\n        /* \"#utility.yul\":7:176   */\n    tag_13:\n        /* \"#utility.yul\":91:102   */\n      0x00\n        /* \"#utility.yul\":125:131   */\n      dup3\n        /* \"#utility.yul\":120:123   */\n      dup3\n        /* \"#utility.yul\":113:132   */\n      mstore\n        /* \"#utility.yul\":165:169   */\n      0x20\n        /* \"#utility.yul\":160:163   */\n      dup3\n        /* \"#utility.yul\":156:170   */\n      add\n        /* \"#utility.yul\":141:170   */\n      swap1\n      pop\n        /* \"#utility.yul\":7:176   */\n      swap3\n      swap2\n      pop\n      pop\n      jump\t// out\n        /* \"#utility.yul\":182:344   */\n    tag_14:\n        /* \"#utility.yul\":322:336   */\n      0x48656c6c6f20576562332e300000000000000000000000000000000000000000\n        /* \"#utility.yul\":318:319   */\n      0x00\n        /* \"#utility.yul\":310:316   */\n      dup3\n        /* \"#utility.yul\":306:320   */\n      add\n        /* \"#utility.yul\":299:337   */\n      mstore\n        /* \"#utility.yul\":182:344   */\n      pop\n      jump\t// out\n        /* \"#utility.yul\":350:716   */\n    tag_15:\n        /* \"#utility.yul\":492:495   */\n      0x00\n        /* \"#utility.yul\":513:580   */\n      tag_28\n        /* \"#utility.yul\":577:579   */\n      0x0c\n        /* \"#utility.yul\":572:575   */\n      dup4\n        /* \"#utility.yul\":513:580   */\n      tag_13\n      jump\t// in\n    tag_28:\n        /* \"#utility.yul\":506:580   */\n      swap2\n      pop\n        /* \"#utility.yul\":589:682   */\n      tag_29\n        /* \"#utility.yul\":678:681   */\n      dup3\n        /* \"#utility.yul\":589:682   */\n      tag_14\n      jump\t// in\n    tag_29:\n        /* \"#utility.yul\":707:709   */\n      0x20\n        /* \"#utility.yul\":702:705   */\n      dup3\n        /* \"#utility.yul\":698:710   */\n      add\n        /* \"#utility.yul\":691:710   */\n      swap1\n      pop\n        /* \"#utility.yul\":350:716   */\n      swap2\n      swap1\n      pop\n      jump\t// out\n        /* \"#utility.yul\":722:1141   */\n    tag_8:\n        /* \"#utility.yul\":888:892   */\n      0x00\n        /* \"#utility.yul\":926:928   */\n      0x20\n        /* \"#utility.yul\":915:924   */\n      dup3\n        /* \"#utility.yul\":911:929   */\n      add\n        /* \"#utility.yul\":903:929   */\n      swap1\n      pop\n        /* \"#utility.yul\":975:984   */\n      dup2\n        /* \"#utility.yul\":969:973   */\n      dup2\n        /* \"#utility.yul\":965:985   */\n      sub\n        /* \"#utility.yul\":961:962   */\n      0x00\n        /* \"#utility.yul\":950:959   */\n      dup4\n        /* \"#utility.yul\":946:963   */\n      add\n        /* \"#utility.yul\":939:986   */\n      mstore\n        /* \"#utility.yul\":1003:1134   */\n      tag_31\n        /* \"#utility.yul\":1129:1133   */\n      dup2\n        /* \"#utility.yul\":1003:1134   */\n      tag_15\n      jump\t// in\n    tag_31:\n        /* \"#utility.yul\":995:1134   */\n      swap1\n      pop\n        /* \"#utility.yul\":722:1141   */\n      swap2\n      swap1\n      pop\n      jump\t// out\n        /* \"#utility.yul\":1147:1328   */\n    tag_16:\n        /* \"#utility.yul\":1287:1320   */\n      0x4974277320616c6c2061626f757420446563656e7472616c697a6174696f6e00\n        /* \"#utility.yul\":1283:1284   */\n      0x00\n        /* \"#utility.yul\":1275:1281   */\n      dup3\n        /* \"#utility.yul\":1271:1285   */\n      add\n        /* \"#utility.yul\":1264:1321   */\n      mstore\n        /* \"#utility.yul\":1147:1328   */\n      pop\n      jump\t// out\n        /* \"#utility.yul\":1334:1700   */\n    tag_17:\n        /* \"#utility.yul\":1476:1479   */\n      0x00\n        /* \"#utility.yul\":1497:1564   */\n      tag_34\n        /* \"#utility.yul\":1561:1563   */\n      0x1f\n        /* \"#utility.yul\":1556:1559   */\n      dup4\n        /* \"#utility.yul\":1497:1564   */\n      tag_13\n      jump\t// in\n    tag_34:\n        /* \"#utility.yul\":1490:1564   */\n      swap2\n      pop\n        /* \"#utility.yul\":1573:1666   */\n      tag_35\n        /* \"#utility.yul\":1662:1665   */\n      dup3\n        /* \"#utility.yul\":1573:1666   */\n      tag_16\n      jump\t// in\n    tag_35:\n        /* \"#utility.yul\":1691:1693   */\n      0x20\n        /* \"#utility.yul\":1686:1689   */\n      dup3\n        /* \"#utility.yul\":1682:1694   */\n      add\n        /* \"#utility.yul\":1675:1694   */\n      swap1\n      pop\n        /* \"#utility.yul\":1334:1700   */\n      swap2\n      swap1\n      pop\n      jump\t// out\n        /* \"#utility.yul\":1706:2125   */\n    tag_10:\n        /* \"#utility.yul\":1872:1876   */\n      0x00\n        /* \"#utility.yul\":1910:1912   */\n      0x20\n        /* \"#utility.yul\":1899:1908   */\n      dup3\n        /* \"#utility.yul\":1895:1913   */\n      add\n        /* \"#utility.yul\":1887:1913   */\n      swap1\n      pop\n        /* \"#utility.yul\":1959:1968   */\n      dup2\n        /* \"#utility.yul\":1953:1957   */\n      dup2\n        /* \"#utility.yul\":1949:1969   */\n      sub\n        /* \"#utility.yul\":1945:1946   */\n      0x00\n        /* \"#utility.yul\":1934:1943   */\n      dup4\n        /* \"#utility.yul\":1930:1947   */\n      add\n        /* \"#utility.yul\":1923:1970   */\n      mstore\n        /* \"#utility.yul\":1987:2118   */\n      tag_37\n        /* \"#utility.yul\":2113:2117   */\n      dup2\n        /* \"#utility.yul\":1987:2118   */\n      tag_17\n      jump\t// in\n    tag_37:\n        /* \"#utility.yul\":1979:2118   */\n      swap1\n      pop\n        /* \"#utility.yul\":1706:2125   */\n      swap2\n      swap1\n      pop\n      jump\t// out\n        /* \"#utility.yul\":2131:2285   */\n    tag_18:\n        /* \"#utility.yul\":2271:2277   */\n      0x5361626100000000000000000000000000000000000000000000000000000000\n        /* \"#utility.yul\":2267:2268   */\n      0x00\n        /* \"#utility.yul\":2259:2265   */\n      dup3\n        /* \"#utility.yul\":2255:2269   */\n      add\n        /* \"#utility.yul\":2248:2278   */\n      mstore\n        /* \"#utility.yul\":2131:2285   */\n      pop\n      jump\t// out\n        /* \"#utility.yul\":2291:2656   */\n    tag_19:\n        /* \"#utility.yul\":2433:2436   */\n      0x00\n        /* \"#utility.yul\":2454:2520   */\n      tag_40\n        /* \"#utility.yul\":2518:2519   */\n      0x04\n        /* \"#utility.yul\":2513:2516   */\n      dup4\n        /* \"#utility.yul\":2454:2520   */\n      tag_13\n      jump\t// in\n    tag_40:\n        /* \"#utility.yul\":2447:2520   */\n      swap2\n      pop\n        /* \"#utility.yul\":2529:2622   */\n      tag_41\n        /* \"#utility.yul\":2618:2621   */\n      dup3\n        /* \"#utility.yul\":2529:2622   */\n      tag_18\n      jump\t// in\n    tag_41:\n        /* \"#utility.yul\":2647:2649   */\n      0x20\n        /* \"#utility.yul\":2642:2645   */\n      dup3\n        /* \"#utility.yul\":2638:2650   */\n      add\n        /* \"#utility.yul\":2631:2650   */\n      swap1\n      pop\n        /* \"#utility.yul\":2291:2656   */\n      swap2\n      swap1\n      pop\n      jump\t// out\n        /* \"#utility.yul\":2662:2833   */\n    tag_20:\n        /* \"#utility.yul\":2802:2825   */\n      0x53616261616c693332303140676d61696c2e636f6d0000000000000000000000\n        /* \"#utility.yul\":2798:2799   */\n      0x00\n        /* \"#utility.yul\":2790:2796   */\n      dup3\n        /* \"#utility.yul\":2786:2800   */\n      add\n        /* \"#utility.yul\":2779:2826   */\n      mstore\n        /* \"#utility.yul\":2662:2833   */\n      pop\n      jump\t// out\n        /* \"#utility.yul\":2839:3205   */\n    tag_21:\n        /* \"#utility.yul\":2981:2984   */\n      0x00\n        /* \"#utility.yul\":3002:3069   */\n      tag_44\n        /* \"#utility.yul\":3066:3068   */\n      0x15\n        /* \"#utility.yul\":3061:3064   */\n      dup4\n        /* \"#utility.yul\":3002:3069   */\n      tag_13\n      jump\t// in\n    tag_44:\n        /* \"#utility.yul\":2995:3069   */\n      swap2\n      pop\n        /* \"#utility.yul\":3078:3171   */\n      tag_45\n        /* \"#utility.yul\":3167:3170   */\n      dup3\n        /* \"#utility.yul\":3078:3171   */\n      tag_20\n      jump\t// in\n    tag_45:\n        /* \"#utility.yul\":3196:3198   */\n      0x20\n        /* \"#utility.yul\":3191:3194   */\n      dup3\n        /* \"#utility.yul\":3187:3199   */\n      add\n        /* \"#utility.yul\":3180:3199   */\n      swap1\n      pop\n        /* \"#utility.yul\":2839:3205   */\n      swap2\n      swap1\n      pop\n      jump\t// out\n        /* \"#utility.yul\":3211:3363   */\n    tag_22:\n        /* \"#utility.yul\":3351:3355   */\n      0x4353000000000000000000000000000000000000000000000000000000000000\n        /* \"#utility.yul\":3347:3348   */\n      0x00\n        /* \"#utility.yul\":3339:3345   */\n      dup3\n        /* \"#utility.yul\":3335:3349   */\n      add\n        /* \"#utility.yul\":3328:3356   */\n      mstore\n        /* \"#utility.yul\":3211:3363   */\n      pop\n      jump\t// out\n        /* \"#utility.yul\":3369:3734   */\n    tag_23:\n        /* \"#utility.yul\":3511:3514   */\n      0x00\n        /* \"#utility.yul\":3532:3598   */\n      tag_48\n        /* \"#utility.yul\":3596:3597   */\n      0x02\n        /* \"#utility.yul\":3591:3594   */\n      dup4\n        /* \"#utility.yul\":3532:3598   */\n      tag_13\n      jump\t// in\n    tag_48:\n        /* \"#utility.yul\":3525:3598   */\n      swap2\n      pop\n        /* \"#utility.yul\":3607:3700   */\n      tag_49\n        /* \"#utility.yul\":3696:3699   */\n      dup3\n        /* \"#utility.yul\":3607:3700   */\n      tag_22\n      jump\t// in\n    tag_49:\n        /* \"#utility.yul\":3725:3727   */\n      0x20\n        /* \"#utility.yul\":3720:3723   */\n      dup3\n        /* \"#utility.yul\":3716:3728   */\n      add\n        /* \"#utility.yul\":3709:3728   */\n      swap1\n      pop\n        /* \"#utility.yul\":3369:3734   */\n      swap2\n      swap1\n      pop\n      jump\t// out\n        /* \"#utility.yul\":3740:4773   */\n    tag_12:\n        /* \"#utility.yul\":4108:4112   */\n      0x00\n        /* \"#utility.yul\":4146:4148   */\n      0x60\n        /* \"#utility.yul\":4135:4144   */\n      dup3\n        /* \"#utility.yul\":4131:4149   */\n      add\n        /* \"#utility.yul\":4123:4149   */\n      swap1\n      pop\n        /* \"#utility.yul\":4195:4204   */\n      dup2\n        /* \"#utility.yul\":4189:4193   */\n      dup2\n        /* \"#utility.yul\":4185:4205   */\n      sub\n        /* \"#utility.yul\":4181:4182   */\n      0x00\n        /* \"#utility.yul\":4170:4179   */\n      dup4\n        /* \"#utility.yul\":4166:4183   */\n      add\n        /* \"#utility.yul\":4159:4206   */\n      mstore\n        /* \"#utility.yul\":4223:4354   */\n      tag_51\n        /* \"#utility.yul\":4349:4353   */\n      dup2\n        /* \"#utility.yul\":4223:4354   */\n      tag_19\n      jump\t// in\n    tag_51:\n        /* \"#utility.yul\":4215:4354   */\n      swap1\n      pop\n        /* \"#utility.yul\":4401:4410   */\n      dup2\n        /* \"#utility.yul\":4395:4399   */\n      dup2\n        /* \"#utility.yul\":4391:4411   */\n      sub\n        /* \"#utility.yul\":4386:4388   */\n      0x20\n        /* \"#utility.yul\":4375:4384   */\n      dup4\n        /* \"#utility.yul\":4371:4389   */\n      add\n        /* \"#utility.yul\":4364:4412   */\n      mstore\n        /* \"#utility.yul\":4429:4560   */\n      tag_52\n        /* \"#utility.yul\":4555:4559   */\n      dup2\n        /* \"#utility.yul\":4429:4560   */\n      tag_21\n      jump\t// in\n    tag_52:\n        /* \"#utility.yul\":4421:4560   */\n      swap1\n      pop\n        /* \"#utility.yul\":4607:4616   */\n      dup2\n        /* \"#utility.yul\":4601:4605   */\n      dup2\n        /* \"#utility.yul\":4597:4617   */\n      sub\n        /* \"#utility.yul\":4592:4594   */\n      0x40\n        /* \"#utility.yul\":4581:4590   */\n      dup4\n        /* \"#utility.yul\":4577:4595   */\n      add\n        /* \"#utility.yul\":4570:4618   */\n      mstore\n        /* \"#utility.yul\":4635:4766   */\n      tag_53\n        /* \"#utility.yul\":4761:4765   */\n      dup2\n        /* \"#utility.yul\":4635:4766   */\n      tag_23\n      jump\t// in\n    tag_53:\n        /* \"#utility.yul\":4627:4766   */\n      swap1\n      pop\n        /* \"#utility.yul\":3740:4773   */\n      swap2\n      swap1\n      pop\n      jump\t// out\n\n    auxdata: 0xa264697066735822122075e61ac35a203d8f7a6bf0cd781c569e3539fd8b88d523aa35337773a58542f464736f6c63430008120033\n}\n",
				"bytecode": {
					"linkReferences": {},
					"object": "608060405234801561001057600080fd5b5061037e806100206000396000f3fe608060405234801561001057600080fd5b506004361061002b5760003560e01c8063f8a8fd6d14610030575b600080fd5b61003861003a565b005b3373ffffffffffffffffffffffffffffffffffffffff167f0738f4da267a110d810e6e89fc59e46be6de0c37b1d5cd559b267dc3688e74e060405161007e90610192565b60405180910390a23373ffffffffffffffffffffffffffffffffffffffff167f0738f4da267a110d810e6e89fc59e46be6de0c37b1d5cd559b267dc3688e74e06040516100ca906101fe565b60405180910390a27ffe1a3ad11e425db4b8e6af35d11c50118826a496df73006fc724cb27f2b9994660405160405180910390a17fa9506b4ed760b5eca7f45accabec32cef55260048fb6ace1bfb54a1d5938287a60405161012b90610302565b60405180910390a1565b600082825260208201905092915050565b7f48656c6c6f20576562332e300000000000000000000000000000000000000000600082015250565b600061017c600c83610135565b915061018782610146565b602082019050919050565b600060208201905081810360008301526101ab8161016f565b9050919050565b7f4974277320616c6c2061626f757420446563656e7472616c697a6174696f6e00600082015250565b60006101e8601f83610135565b91506101f3826101b2565b602082019050919050565b60006020820190508181036000830152610217816101db565b9050919050565b7f5361626100000000000000000000000000000000000000000000000000000000600082015250565b6000610254600483610135565b915061025f8261021e565b602082019050919050565b7f53616261616c693332303140676d61696c2e636f6d0000000000000000000000600082015250565b60006102a0601583610135565b91506102ab8261026a565b602082019050919050565b7f4353000000000000000000000000000000000000000000000000000000000000600082015250565b60006102ec600283610135565b91506102f7826102b6565b602082019050919050565b6000606082019050818103600083015261031b81610247565b9050818103602083015261032e81610293565b90508181036040830152610341816102df565b905091905056fea264697066735822122075e61ac35a203d8f7a6bf0cd781c569e3539fd8b88d523aa35337773a58542f464736f6c63430008120033",
					"opcodes": "PUSH1 0x80 PUSH1 0x40 MSTORE CALLVALUE DUP1 ISZERO PUSH2 0x10 JUMPI PUSH1 0x0 DUP1 REVERT JUMPDEST POP PUSH2 0x37E DUP1 PUSH2 0x20 PUSH1 0x0 CODECOPY PUSH1 0x0 RETURN INVALID PUSH1 0x80 PUSH1 0x40 MSTORE CALLVALUE DUP1 ISZERO PUSH2 0x10 JUMPI PUSH1 0x0 DUP1 REVERT JUMPDEST POP PUSH1 0x4 CALLDATASIZE LT PUSH2 0x2B JUMPI PUSH1 0x0 CALLDATALOAD PUSH1 0xE0 SHR DUP1 PUSH4 0xF8A8FD6D EQ PUSH2 0x30 JUMPI JUMPDEST PUSH1 0x0 DUP1 REVERT JUMPDEST PUSH2 0x38 PUSH2 0x3A JUMP JUMPDEST STOP JUMPDEST CALLER PUSH20 0xFFFFFFFFFFFFFFFFFFFFFFFFFFFFFFFFFFFFFFFF AND PUSH32 0x738F4DA267A110D810E6E89FC59E46BE6DE0C37B1D5CD559B267DC3688E74E0 PUSH1 0x40 MLOAD PUSH2 0x7E SWAP1 PUSH2 0x192 JUMP JUMPDEST PUSH1 0x40 MLOAD DUP1 SWAP2 SUB SWAP1 LOG2 CALLER PUSH20 0xFFFFFFFFFFFFFFFFFFFFFFFFFFFFFFFFFFFFFFFF AND PUSH32 0x738F4DA267A110D810E6E89FC59E46BE6DE0C37B1D5CD559B267DC3688E74E0 PUSH1 0x40 MLOAD PUSH2 0xCA SWAP1 PUSH2 0x1FE JUMP JUMPDEST PUSH1 0x40 MLOAD DUP1 SWAP2 SUB SWAP1 LOG2 PUSH32 0xFE1A3AD11E425DB4B8E6AF35D11C50118826A496DF73006FC724CB27F2B99946 PUSH1 0x40 MLOAD PUSH1 0x40 MLOAD DUP1 SWAP2 SUB SWAP1 LOG1 PUSH32 0xA9506B4ED760B5ECA7F45ACCABEC32CEF55260048FB6ACE1BFB54A1D5938287A PUSH1 0x40 MLOAD PUSH2 0x12B SWAP1 PUSH2 0x302 JUMP JUMPDEST PUSH1 0x40 MLOAD DUP1 SWAP2 SUB SWAP1 LOG1 JUMP JUMPDEST PUSH1 0x0 DUP3 DUP3 MSTORE PUSH1 0x20 DUP3 ADD SWAP1 POP SWAP3 SWAP2 POP POP JUMP JUMPDEST PUSH32 0x48656C6C6F20576562332E300000000000000000000000000000000000000000 PUSH1 0x0 DUP3 ADD MSTORE POP JUMP JUMPDEST PUSH1 0x0 PUSH2 0x17C PUSH1 0xC DUP4 PUSH2 0x135 JUMP JUMPDEST SWAP2 POP PUSH2 0x187 DUP3 PUSH2 0x146 JUMP JUMPDEST PUSH1 0x20 DUP3 ADD SWAP1 POP SWAP2 SWAP1 POP JUMP JUMPDEST PUSH1 0x0 PUSH1 0x20 DUP3 ADD SWAP1 POP DUP2 DUP2 SUB PUSH1 0x0 DUP4 ADD MSTORE PUSH2 0x1AB DUP2 PUSH2 0x16F JUMP JUMPDEST SWAP1 POP SWAP2 SWAP1 POP JUMP JUMPDEST PUSH32 0x4974277320616C6C2061626F757420446563656E7472616C697A6174696F6E00 PUSH1 0x0 DUP3 ADD MSTORE POP JUMP JUMPDEST PUSH1 0x0 PUSH2 0x1E8 PUSH1 0x1F DUP4 PUSH2 0x135 JUMP JUMPDEST SWAP2 POP PUSH2 0x1F3 DUP3 PUSH2 0x1B2 JUMP JUMPDEST PUSH1 0x20 DUP3 ADD SWAP1 POP SWAP2 SWAP1 POP JUMP JUMPDEST PUSH1 0x0 PUSH1 0x20 DUP3 ADD SWAP1 POP DUP2 DUP2 SUB PUSH1 0x0 DUP4 ADD MSTORE PUSH2 0x217 DUP2 PUSH2 0x1DB JUMP JUMPDEST SWAP1 POP SWAP2 SWAP1 POP JUMP JUMPDEST PUSH32 0x5361626100000000000000000000000000000000000000000000000000000000 PUSH1 0x0 DUP3 ADD MSTORE POP JUMP JUMPDEST PUSH1 0x0 PUSH2 0x254 PUSH1 0x4 DUP4 PUSH2 0x135 JUMP JUMPDEST SWAP2 POP PUSH2 0x25F DUP3 PUSH2 0x21E JUMP JUMPDEST PUSH1 0x20 DUP3 ADD SWAP1 POP SWAP2 SWAP1 POP JUMP JUMPDEST PUSH32 0x53616261616C693332303140676D61696C2E636F6D0000000000000000000000 PUSH1 0x0 DUP3 ADD MSTORE POP JUMP JUMPDEST PUSH1 0x0 PUSH2 0x2A0 PUSH1 0x15 DUP4 PUSH2 0x135 JUMP JUMPDEST SWAP2 POP PUSH2 0x2AB DUP3 PUSH2 0x26A JUMP JUMPDEST PUSH1 0x20 DUP3 ADD SWAP1 POP SWAP2 SWAP1 POP JUMP JUMPDEST PUSH32 0x4353000000000000000000000000000000000000000000000000000000000000 PUSH1 0x0 DUP3 ADD MSTORE POP JUMP JUMPDEST PUSH1 0x0 PUSH2 0x2EC PUSH1 0x2 DUP4 PUSH2 0x135 JUMP JUMPDEST SWAP2 POP PUSH2 0x2F7 DUP3 PUSH2 0x2B6 JUMP JUMPDEST PUSH1 0x20 DUP3 ADD SWAP1 POP SWAP2 SWAP1 POP JUMP JUMPDEST PUSH1 0x0 PUSH1 0x60 DUP3 ADD SWAP1 POP DUP2 DUP2 SUB PUSH1 0x0 DUP4 ADD MSTORE PUSH2 0x31B DUP2 PUSH2 0x247 JUMP JUMPDEST SWAP1 POP DUP2 DUP2 SUB PUSH1 0x20 DUP4 ADD MSTORE PUSH2 0x32E DUP2 PUSH2 0x293 JUMP JUMPDEST SWAP1 POP DUP2 DUP2 SUB PUSH1 0x40 DUP4 ADD MSTORE PUSH2 0x341 DUP2 PUSH2 0x2DF JUMP JUMPDEST SWAP1 POP SWAP2 SWAP1 POP JUMP INVALID LOG2 PUSH5 0x6970667358 0x22 SLT KECCAK256 PUSH22 0xE61AC35A203D8F7A6BF0CD781C569E3539FD8B88D523 0xAA CALLDATALOAD CALLER PUSH24 0x73A58542F464736F6C634300081200330000000000000000 "
				},
				"gasEstimates": {
					"creation": {
						"codeDepositCost": "178800",
						"executionCost": "220",
						"totalCost": "179020"
					},
					"external": {
						"test()": "infinite"
					}
				},
				"methodIdentifiers": {
					"test()": "f8a8fd6d"
				}
			},
			"storageLayout": {
				"storage": [],
				"types": null
			},
			"userdoc": {
				"kind": "user",
				"methods": {},
				"version": 1
			}
		}
	}
}