{
	"contracts/01-8 structTask1.sol": {
		"VotingSystem": {
			"abi": [
				{
					"inputs": [
						{
							"internalType": "string",
							"name": "_Name",
							"type": "string"
						},
						{
							"internalType": "address",
							"name": "_addr",
							"type": "address"
						}
					],
					"name": "create1",
					"outputs": [],
					"stateMutability": "nonpayable",
					"type": "function"
				},
				{
					"inputs": [
						{
							"internalType": "string",
							"name": "_Name",
							"type": "string"
						},
						{
							"internalType": "address",
							"name": "_addr",
							"type": "address"
						}
					],
					"name": "create2",
					"outputs": [],
					"stateMutability": "nonpayable",
					"type": "function"
				},
				{
					"inputs": [
						{
							"internalType": "string",
							"name": "_Name",
							"type": "string"
						},
						{
							"internalType": "address",
							"name": "_addr",
							"type": "address"
						}
					],
					"name": "create3",
					"outputs": [],
					"stateMutability": "nonpayable",
					"type": "function"
				},
				{
					"inputs": [
						{
							"internalType": "uint256",
							"name": "_index",
							"type": "uint256"
						}
					],
					"name": "get",
					"outputs": [
						{
							"internalType": "string",
							"name": "Name",
							"type": "string"
						},
						{
							"internalType": "address",
							"name": "addr",
							"type": "address"
						},
						{
							"internalType": "bool",
							"name": "hasVoted",
							"type": "bool"
						}
					],
					"stateMutability": "view",
					"type": "function"
				},
				{
					"inputs": [
						{
							"internalType": "uint256",
							"name": "_index",
							"type": "uint256"
						}
					],
					"name": "togglehasVoted",
					"outputs": [],
					"stateMutability": "nonpayable",
					"type": "function"
				},
				{
					"inputs": [
						{
							"internalType": "uint256",
							"name": "",
							"type": "uint256"
						}
					],
					"name": "voters",
					"outputs": [
						{
							"internalType": "string",
							"name": "Name",
							"type": "string"
						},
						{
							"internalType": "address",
							"name": "addr",
							"type": "address"
						},
						{
							"internalType": "bool",
							"name": "hasVoted",
							"type": "bool"
						}
					],
					"stateMutability": "view",
					"type": "function"
				}
			],
			"devdoc": {
				"kind": "dev",
				"methods": {},
				"version": 1
			},
			"evm": {
				"assembly": "    /* \"contracts/01-8 structTask1.sol\":133:1063  contract VotingSystem {... */\n  mstore(0x40, 0x80)\n  callvalue\n  dup1\n  iszero\n  tag_1\n  jumpi\n  0x00\n  dup1\n  revert\ntag_1:\n  pop\n  dataSize(sub_0)\n  dup1\n  dataOffset(sub_0)\n  0x00\n  codecopy\n  0x00\n  return\nstop\n\nsub_0: assembly {\n        /* \"contracts/01-8 structTask1.sol\":133:1063  contract VotingSystem {... */\n      mstore(0x40, 0x80)\n      callvalue\n      dup1\n      iszero\n      tag_1\n      jumpi\n      0x00\n      dup1\n      revert\n    tag_1:\n      pop\n      jumpi(tag_2, lt(calldatasize, 0x04))\n      shr(0xe0, calldataload(0x00))\n      dup1\n      0x3093117a\n      eq\n      tag_3\n      jumpi\n      dup1\n      0x39fc78bd\n      eq\n      tag_4\n      jumpi\n      dup1\n      0x4654194b\n      eq\n      tag_5\n      jumpi\n      dup1\n      0x5c86d8b9\n      eq\n      tag_6\n      jumpi\n      dup1\n      0x9507d39a\n      eq\n      tag_7\n      jumpi\n      dup1\n      0xda58c7d9\n      eq\n      tag_8\n      jumpi\n    tag_2:\n      0x00\n      dup1\n      revert\n        /* \"contracts/01-8 structTask1.sol\":356:488  function create2(string memory _Name, address _addr) public {... */\n    tag_3:\n      tag_9\n      0x04\n      dup1\n      calldatasize\n      sub\n      dup2\n      add\n      swap1\n      tag_10\n      swap2\n      swap1\n      tag_11\n      jump\t// in\n    tag_10:\n      tag_12\n      jump\t// in\n    tag_9:\n      stop\n        /* \"contracts/01-8 structTask1.sol\":506:700  function create3(string memory _Name, address _addr) public {... */\n    tag_4:\n      tag_13\n      0x04\n      dup1\n      calldatasize\n      sub\n      dup2\n      add\n      swap1\n      tag_14\n      swap2\n      swap1\n      tag_11\n      jump\t// in\n    tag_14:\n      tag_15\n      jump\t// in\n    tag_13:\n      stop\n        /* \"contracts/01-8 structTask1.sol\":935:1060  function togglehasVoted(uint _index) public {... */\n    tag_5:\n      tag_16\n      0x04\n      dup1\n      calldatasize\n      sub\n      dup2\n      add\n      swap1\n      tag_17\n      swap2\n      swap1\n      tag_18\n      jump\t// in\n    tag_17:\n      tag_19\n      jump\t// in\n    tag_16:\n      stop\n        /* \"contracts/01-8 structTask1.sol\":232:339  function create1(string memory _Name, address _addr)public {... */\n    tag_6:\n      tag_20\n      0x04\n      dup1\n      calldatasize\n      sub\n      dup2\n      add\n      swap1\n      tag_21\n      swap2\n      swap1\n      tag_11\n      jump\t// in\n    tag_21:\n      tag_22\n      jump\t// in\n    tag_20:\n      stop\n        /* \"contracts/01-8 structTask1.sol\":718:909  function get(uint _index) public view returns (string memory Name, address addr, bool hasVoted) {... */\n    tag_7:\n      tag_23\n      0x04\n      dup1\n      calldatasize\n      sub\n      dup2\n      add\n      swap1\n      tag_24\n      swap2\n      swap1\n      tag_18\n      jump\t// in\n    tag_24:\n      tag_25\n      jump\t// in\n    tag_23:\n      mload(0x40)\n      tag_26\n      swap4\n      swap3\n      swap2\n      swap1\n      tag_27\n      jump\t// in\n    tag_26:\n      mload(0x40)\n      dup1\n      swap2\n      sub\n      swap1\n      return\n        /* \"contracts/01-8 structTask1.sol\":194:215  Voter[] public voters */\n    tag_8:\n      tag_28\n      0x04\n      dup1\n      calldatasize\n      sub\n      dup2\n      add\n      swap1\n      tag_29\n      swap2\n      swap1\n      tag_18\n      jump\t// in\n    tag_29:\n      tag_30\n      jump\t// in\n    tag_28:\n      mload(0x40)\n      tag_31\n      swap4\n      swap3\n      swap2\n      swap1\n      tag_27\n      jump\t// in\n    tag_31:\n      mload(0x40)\n      dup1\n      swap2\n      sub\n      swap1\n      return\n        /* \"contracts/01-8 structTask1.sol\":356:488  function create2(string memory _Name, address _addr) public {... */\n    tag_12:\n        /* \"contracts/01-8 structTask1.sol\":420:426  voters */\n      0x00\n        /* \"contracts/01-8 structTask1.sol\":432:482  Voter({Name: _Name, addr:_addr, hasVoted:... */\n      mload(0x40)\n      dup1\n      0x60\n      add\n      0x40\n      mstore\n      dup1\n        /* \"contracts/01-8 structTask1.sol\":445:450  _Name */\n      dup5\n        /* \"contracts/01-8 structTask1.sol\":432:482  Voter({Name: _Name, addr:_addr, hasVoted:... */\n      dup2\n      mstore\n      0x20\n      add\n        /* \"contracts/01-8 structTask1.sol\":457:462  _addr */\n      dup4\n        /* \"contracts/01-8 structTask1.sol\":432:482  Voter({Name: _Name, addr:_addr, hasVoted:... */\n      0xffffffffffffffffffffffffffffffffffffffff\n      and\n      dup2\n      mstore\n      0x20\n      add\n        /* \"contracts/01-8 structTask1.sol\":475:480  false */\n      0x00\n        /* \"contracts/01-8 structTask1.sol\":432:482  Voter({Name: _Name, addr:_addr, hasVoted:... */\n      iszero\n      iszero\n      dup2\n      mstore\n      pop\n        /* \"contracts/01-8 structTask1.sol\":420:483  voters.push(Voter({Name: _Name, addr:_addr, hasVoted:... */\n      swap1\n      dup1\n      0x01\n      dup2\n      sload\n      add\n      dup1\n      dup3\n      sstore\n      dup1\n      swap2\n      pop\n      pop\n      0x01\n      swap1\n      sub\n      swap1\n      0x00\n      mstore\n      keccak256(0x00, 0x20)\n      swap1\n      0x02\n      mul\n      add\n      0x00\n      swap1\n      swap2\n      swap1\n      swap2\n      swap1\n      swap2\n      pop\n      0x00\n      dup3\n      add\n      mload\n      dup2\n      0x00\n      add\n      swap1\n      dup2\n      tag_34\n      swap2\n      swap1\n      tag_35\n      jump\t// in\n    tag_34:\n      pop\n      0x20\n      dup3\n      add\n      mload\n      dup2\n      0x01\n      add\n      exp(0x0100, 0x00)\n      dup2\n      sload\n      dup2\n      0xffffffffffffffffffffffffffffffffffffffff\n      mul\n      not\n      and\n      swap1\n      dup4\n      0xffffffffffffffffffffffffffffffffffffffff\n      and\n      mul\n      or\n      swap1\n      sstore\n      pop\n      0x40\n      dup3\n      add\n      mload\n      dup2\n      0x01\n      add\n      exp(0x0100, 0x14)\n      dup2\n      sload\n      dup2\n      0xff\n      mul\n      not\n      and\n      swap1\n      dup4\n      iszero\n      iszero\n      mul\n      or\n      swap1\n      sstore\n      pop\n      pop\n      pop\n        /* \"contracts/01-8 structTask1.sol\":356:488  function create2(string memory _Name, address _addr) public {... */\n      pop\n      pop\n      jump\t// out\n        /* \"contracts/01-8 structTask1.sol\":506:700  function create3(string memory _Name, address _addr) public {... */\n    tag_15:\n        /* \"contracts/01-8 structTask1.sol\":570:588  Voter memory voter */\n      tag_37\n      tag_38\n      jump\t// in\n    tag_37:\n        /* \"contracts/01-8 structTask1.sol\":605:610  _Name */\n      dup3\n        /* \"contracts/01-8 structTask1.sol\":592:597  voter */\n      dup2\n        /* \"contracts/01-8 structTask1.sol\":592:602  voter.Name */\n      0x00\n      add\n        /* \"contracts/01-8 structTask1.sol\":592:610  voter.Name = _Name */\n      dup2\n      swap1\n      mstore\n      pop\n        /* \"contracts/01-8 structTask1.sol\":627:632  _addr */\n      dup2\n        /* \"contracts/01-8 structTask1.sol\":614:619  voter */\n      dup2\n        /* \"contracts/01-8 structTask1.sol\":614:624  voter.addr */\n      0x20\n      add\n        /* \"contracts/01-8 structTask1.sol\":614:632  voter.addr = _addr */\n      swap1\n      0xffffffffffffffffffffffffffffffffffffffff\n      and\n      swap1\n      dup2\n      0xffffffffffffffffffffffffffffffffffffffff\n      and\n      dup2\n      mstore\n      pop\n      pop\n        /* \"contracts/01-8 structTask1.sol\":677:683  voters */\n      0x00\n        /* \"contracts/01-8 structTask1.sol\":689:694  voter */\n      dup2\n        /* \"contracts/01-8 structTask1.sol\":677:695  voters.push(voter) */\n      swap1\n      dup1\n      0x01\n      dup2\n      sload\n      add\n      dup1\n      dup3\n      sstore\n      dup1\n      swap2\n      pop\n      pop\n      0x01\n      swap1\n      sub\n      swap1\n      0x00\n      mstore\n      keccak256(0x00, 0x20)\n      swap1\n      0x02\n      mul\n      add\n      0x00\n      swap1\n      swap2\n      swap1\n      swap2\n      swap1\n      swap2\n      pop\n      0x00\n      dup3\n      add\n      mload\n      dup2\n      0x00\n      add\n      swap1\n      dup2\n      tag_40\n      swap2\n      swap1\n      tag_35\n      jump\t// in\n    tag_40:\n      pop\n      0x20\n      dup3\n      add\n      mload\n      dup2\n      0x01\n      add\n      exp(0x0100, 0x00)\n      dup2\n      sload\n      dup2\n      0xffffffffffffffffffffffffffffffffffffffff\n      mul\n      not\n      and\n      swap1\n      dup4\n      0xffffffffffffffffffffffffffffffffffffffff\n      and\n      mul\n      or\n      swap1\n      sstore\n      pop\n      0x40\n      dup3\n      add\n      mload\n      dup2\n      0x01\n      add\n      exp(0x0100, 0x14)\n      dup2\n      sload\n      dup2\n      0xff\n      mul\n      not\n      and\n      swap1\n      dup4\n      iszero\n      iszero\n      mul\n      or\n      swap1\n      sstore\n      pop\n      pop\n      pop\n        /* \"contracts/01-8 structTask1.sol\":566:700  {... */\n      pop\n        /* \"contracts/01-8 structTask1.sol\":506:700  function create3(string memory _Name, address _addr) public {... */\n      pop\n      pop\n      jump\t// out\n        /* \"contracts/01-8 structTask1.sol\":935:1060  function togglehasVoted(uint _index) public {... */\n    tag_19:\n        /* \"contracts/01-8 structTask1.sol\":983:1002  Voter storage voter */\n      0x00\n        /* \"contracts/01-8 structTask1.sol\":1005:1011  voters */\n      dup1\n        /* \"contracts/01-8 structTask1.sol\":1012:1018  _index */\n      dup3\n        /* \"contracts/01-8 structTask1.sol\":1005:1019  voters[_index] */\n      dup2\n      sload\n      dup2\n      lt\n      tag_42\n      jumpi\n      tag_43\n      tag_44\n      jump\t// in\n    tag_43:\n    tag_42:\n      swap1\n      0x00\n      mstore\n      keccak256(0x00, 0x20)\n      swap1\n      0x02\n      mul\n      add\n        /* \"contracts/01-8 structTask1.sol\":983:1019  Voter storage voter = voters[_index] */\n      swap1\n      pop\n        /* \"contracts/01-8 structTask1.sol\":1041:1046  voter */\n      dup1\n        /* \"contracts/01-8 structTask1.sol\":1041:1055  voter.hasVoted */\n      0x01\n      add\n      0x14\n      swap1\n      sload\n      swap1\n      0x0100\n      exp\n      swap1\n      div\n      0xff\n      and\n        /* \"contracts/01-8 structTask1.sol\":1040:1055  !voter.hasVoted */\n      iszero\n        /* \"contracts/01-8 structTask1.sol\":1023:1028  voter */\n      dup2\n        /* \"contracts/01-8 structTask1.sol\":1023:1037  voter.hasVoted */\n      0x01\n      add\n      0x14\n        /* \"contracts/01-8 structTask1.sol\":1023:1055  voter.hasVoted = !voter.hasVoted */\n      0x0100\n      exp\n      dup2\n      sload\n      dup2\n      0xff\n      mul\n      not\n      and\n      swap1\n      dup4\n      iszero\n      iszero\n      mul\n      or\n      swap1\n      sstore\n      pop\n        /* \"contracts/01-8 structTask1.sol\":979:1060  {... */\n      pop\n        /* \"contracts/01-8 structTask1.sol\":935:1060  function togglehasVoted(uint _index) public {... */\n      pop\n      jump\t// out\n        /* \"contracts/01-8 structTask1.sol\":232:339  function create1(string memory _Name, address _addr)public {... */\n    tag_22:\n        /* \"contracts/01-8 structTask1.sol\":295:301  voters */\n      0x00\n        /* \"contracts/01-8 structTask1.sol\":307:333  Voter(_Name, _addr, false) */\n      mload(0x40)\n      dup1\n      0x60\n      add\n      0x40\n      mstore\n      dup1\n        /* \"contracts/01-8 structTask1.sol\":313:318  _Name */\n      dup5\n        /* \"contracts/01-8 structTask1.sol\":307:333  Voter(_Name, _addr, false) */\n      dup2\n      mstore\n      0x20\n      add\n        /* \"contracts/01-8 structTask1.sol\":320:325  _addr */\n      dup4\n        /* \"contracts/01-8 structTask1.sol\":307:333  Voter(_Name, _addr, false) */\n      0xffffffffffffffffffffffffffffffffffffffff\n      and\n      dup2\n      mstore\n      0x20\n      add\n        /* \"contracts/01-8 structTask1.sol\":327:332  false */\n      0x00\n        /* \"contracts/01-8 structTask1.sol\":307:333  Voter(_Name, _addr, false) */\n      iszero\n      iszero\n      dup2\n      mstore\n      pop\n        /* \"contracts/01-8 structTask1.sol\":295:334  voters.push(Voter(_Name, _addr, false)) */\n      swap1\n      dup1\n      0x01\n      dup2\n      sload\n      add\n      dup1\n      dup3\n      sstore\n      dup1\n      swap2\n      pop\n      pop\n      0x01\n      swap1\n      sub\n      swap1\n      0x00\n      mstore\n      keccak256(0x00, 0x20)\n      swap1\n      0x02\n      mul\n      add\n      0x00\n      swap1\n      swap2\n      swap1\n      swap2\n      swap1\n      swap2\n      pop\n      0x00\n      dup3\n      add\n      mload\n      dup2\n      0x00\n      add\n      swap1\n      dup2\n      tag_48\n      swap2\n      swap1\n      tag_35\n      jump\t// in\n    tag_48:\n      pop\n      0x20\n      dup3\n      add\n      mload\n      dup2\n      0x01\n      add\n      exp(0x0100, 0x00)\n      dup2\n      sload\n      dup2\n      0xffffffffffffffffffffffffffffffffffffffff\n      mul\n      not\n      and\n      swap1\n      dup4\n      0xffffffffffffffffffffffffffffffffffffffff\n      and\n      mul\n      or\n      swap1\n      sstore\n      pop\n      0x40\n      dup3\n      add\n      mload\n      dup2\n      0x01\n      add\n      exp(0x0100, 0x14)\n      dup2\n      sload\n      dup2\n      0xff\n      mul\n      not\n      and\n      swap1\n      dup4\n      iszero\n      iszero\n      mul\n      or\n      swap1\n      sstore\n      pop\n      pop\n      pop\n        /* \"contracts/01-8 structTask1.sol\":232:339  function create1(string memory _Name, address _addr)public {... */\n      pop\n      pop\n      jump\t// out\n        /* \"contracts/01-8 structTask1.sol\":718:909  function get(uint _index) public view returns (string memory Name, address addr, bool hasVoted) {... */\n    tag_25:\n        /* \"contracts/01-8 structTask1.sol\":765:783  string memory Name */\n      0x60\n        /* \"contracts/01-8 structTask1.sol\":785:797  address addr */\n      0x00\n        /* \"contracts/01-8 structTask1.sol\":799:812  bool hasVoted */\n      dup1\n        /* \"contracts/01-8 structTask1.sol\":818:837  Voter storage voter */\n      0x00\n        /* \"contracts/01-8 structTask1.sol\":840:846  voters */\n      dup1\n        /* \"contracts/01-8 structTask1.sol\":847:853  _index */\n      dup6\n        /* \"contracts/01-8 structTask1.sol\":840:854  voters[_index] */\n      dup2\n      sload\n      dup2\n      lt\n      tag_50\n      jumpi\n      tag_51\n      tag_44\n      jump\t// in\n    tag_51:\n    tag_50:\n      swap1\n      0x00\n      mstore\n      keccak256(0x00, 0x20)\n      swap1\n      0x02\n      mul\n      add\n        /* \"contracts/01-8 structTask1.sol\":818:854  Voter storage voter = voters[_index] */\n      swap1\n      pop\n        /* \"contracts/01-8 structTask1.sol\":866:871  voter */\n      dup1\n        /* \"contracts/01-8 structTask1.sol\":866:876  voter.Name */\n      0x00\n      add\n        /* \"contracts/01-8 structTask1.sol\":878:883  voter */\n      dup2\n        /* \"contracts/01-8 structTask1.sol\":878:888  voter.addr */\n      0x01\n      add\n      0x00\n      swap1\n      sload\n      swap1\n      0x0100\n      exp\n      swap1\n      div\n      0xffffffffffffffffffffffffffffffffffffffff\n      and\n        /* \"contracts/01-8 structTask1.sol\":889:894  voter */\n      dup3\n        /* \"contracts/01-8 structTask1.sol\":889:903  voter.hasVoted */\n      0x01\n      add\n      0x14\n      swap1\n      sload\n      swap1\n      0x0100\n      exp\n      swap1\n      div\n      0xff\n      and\n        /* \"contracts/01-8 structTask1.sol\":858:904  return (voter.Name, voter.addr,voter.hasVoted) */\n      dup3\n      dup1\n      sload\n      tag_53\n      swap1\n      tag_54\n      jump\t// in\n    tag_53:\n      dup1\n      0x1f\n      add\n      0x20\n      dup1\n      swap2\n      div\n      mul\n      0x20\n      add\n      mload(0x40)\n      swap1\n      dup2\n      add\n      0x40\n      mstore\n      dup1\n      swap3\n      swap2\n      swap1\n      dup2\n      dup2\n      mstore\n      0x20\n      add\n      dup3\n      dup1\n      sload\n      tag_55\n      swap1\n      tag_54\n      jump\t// in\n    tag_55:\n      dup1\n      iszero\n      tag_56\n      jumpi\n      dup1\n      0x1f\n      lt\n      tag_57\n      jumpi\n      0x0100\n      dup1\n      dup4\n      sload\n      div\n      mul\n      dup4\n      mstore\n      swap2\n      0x20\n      add\n      swap2\n      jump(tag_56)\n    tag_57:\n      dup3\n      add\n      swap2\n      swap1\n      0x00\n      mstore\n      keccak256(0x00, 0x20)\n      swap1\n    tag_58:\n      dup2\n      sload\n      dup2\n      mstore\n      swap1\n      0x01\n      add\n      swap1\n      0x20\n      add\n      dup1\n      dup4\n      gt\n      tag_58\n      jumpi\n      dup3\n      swap1\n      sub\n      0x1f\n      and\n      dup3\n      add\n      swap2\n    tag_56:\n      pop\n      pop\n      pop\n      pop\n      pop\n      swap3\n      pop\n      swap4\n      pop\n      swap4\n      pop\n      swap4\n      pop\n      pop\n        /* \"contracts/01-8 structTask1.sol\":718:909  function get(uint _index) public view returns (string memory Name, address addr, bool hasVoted) {... */\n      swap2\n      swap4\n      swap1\n      swap3\n      pop\n      jump\t// out\n        /* \"contracts/01-8 structTask1.sol\":194:215  Voter[] public voters */\n    tag_30:\n      0x00\n      dup2\n      dup2\n      sload\n      dup2\n      lt\n      tag_59\n      jumpi\n      0x00\n      dup1\n      revert\n    tag_59:\n      swap1\n      0x00\n      mstore\n      keccak256(0x00, 0x20)\n      swap1\n      0x02\n      mul\n      add\n      0x00\n      swap2\n      pop\n      swap1\n      pop\n      dup1\n      0x00\n      add\n      dup1\n      sload\n      tag_61\n      swap1\n      tag_54\n      jump\t// in\n    tag_61:\n      dup1\n      0x1f\n      add\n      0x20\n      dup1\n      swap2\n      div\n      mul\n      0x20\n      add\n      mload(0x40)\n      swap1\n      dup2\n      add\n      0x40\n      mstore\n      dup1\n      swap3\n      swap2\n      swap1\n      dup2\n      dup2\n      mstore\n      0x20\n      add\n      dup3\n      dup1\n      sload\n      tag_62\n      swap1\n      tag_54\n      jump\t// in\n    tag_62:\n      dup1\n      iszero\n      tag_63\n      jumpi\n      dup1\n      0x1f\n      lt\n      tag_64\n      jumpi\n      0x0100\n      dup1\n      dup4\n      sload\n      div\n      mul\n      dup4\n      mstore\n      swap2\n      0x20\n      add\n      swap2\n      jump(tag_63)\n    tag_64:\n      dup3\n      add\n      swap2\n      swap1\n      0x00\n      mstore\n      keccak256(0x00, 0x20)\n      swap1\n    tag_65:\n      dup2\n      sload\n      dup2\n      mstore\n      swap1\n      0x01\n      add\n      swap1\n      0x20\n      add\n      dup1\n      dup4\n      gt\n      tag_65\n      jumpi\n      dup3\n      swap1\n      sub\n      0x1f\n      and\n      dup3\n      add\n      swap2\n    tag_63:\n      pop\n      pop\n      pop\n      pop\n      pop\n      swap1\n      dup1\n      0x01\n      add\n      0x00\n      swap1\n      sload\n      swap1\n      0x0100\n      exp\n      swap1\n      div\n      0xffffffffffffffffffffffffffffffffffffffff\n      and\n      swap1\n      dup1\n      0x01\n      add\n      0x14\n      swap1\n      sload\n      swap1\n      0x0100\n      exp\n      swap1\n      div\n      0xff\n      and\n      swap1\n      pop\n      dup4\n      jump\t// out\n    tag_38:\n      mload(0x40)\n      dup1\n      0x60\n      add\n      0x40\n      mstore\n      dup1\n      0x60\n      dup2\n      mstore\n      0x20\n      add\n      and(0xffffffffffffffffffffffffffffffffffffffff, 0x00)\n      dup2\n      mstore\n      0x20\n      add\n      iszero(iszero(0x00))\n      dup2\n      mstore\n      pop\n      swap1\n      jump\t// out\n        /* \"#utility.yul\":7:82   */\n    tag_66:\n        /* \"#utility.yul\":40:46   */\n      0x00\n        /* \"#utility.yul\":73:75   */\n      0x40\n        /* \"#utility.yul\":67:76   */\n      mload\n        /* \"#utility.yul\":57:76   */\n      swap1\n      pop\n        /* \"#utility.yul\":7:82   */\n      swap1\n      jump\t// out\n        /* \"#utility.yul\":88:205   */\n    tag_67:\n        /* \"#utility.yul\":197:198   */\n      0x00\n        /* \"#utility.yul\":194:195   */\n      dup1\n        /* \"#utility.yul\":187:199   */\n      revert\n        /* \"#utility.yul\":211:328   */\n    tag_68:\n        /* \"#utility.yul\":320:321   */\n      0x00\n        /* \"#utility.yul\":317:318   */\n      dup1\n        /* \"#utility.yul\":310:322   */\n      revert\n        /* \"#utility.yul\":334:451   */\n    tag_69:\n        /* \"#utility.yul\":443:444   */\n      0x00\n        /* \"#utility.yul\":440:441   */\n      dup1\n        /* \"#utility.yul\":433:445   */\n      revert\n        /* \"#utility.yul\":457:574   */\n    tag_70:\n        /* \"#utility.yul\":566:567   */\n      0x00\n        /* \"#utility.yul\":563:564   */\n      dup1\n        /* \"#utility.yul\":556:568   */\n      revert\n        /* \"#utility.yul\":580:682   */\n    tag_71:\n        /* \"#utility.yul\":621:627   */\n      0x00\n        /* \"#utility.yul\":672:674   */\n      0x1f\n        /* \"#utility.yul\":668:675   */\n      not\n        /* \"#utility.yul\":663:665   */\n      0x1f\n        /* \"#utility.yul\":656:661   */\n      dup4\n        /* \"#utility.yul\":652:666   */\n      add\n        /* \"#utility.yul\":648:676   */\n      and\n        /* \"#utility.yul\":638:676   */\n      swap1\n      pop\n        /* \"#utility.yul\":580:682   */\n      swap2\n      swap1\n      pop\n      jump\t// out\n        /* \"#utility.yul\":688:868   */\n    tag_72:\n        /* \"#utility.yul\":736:813   */\n      0x4e487b7100000000000000000000000000000000000000000000000000000000\n        /* \"#utility.yul\":733:734   */\n      0x00\n        /* \"#utility.yul\":726:814   */\n      mstore\n        /* \"#utility.yul\":833:837   */\n      0x41\n        /* \"#utility.yul\":830:831   */\n      0x04\n        /* \"#utility.yul\":823:838   */\n      mstore\n        /* \"#utility.yul\":857:861   */\n      0x24\n        /* \"#utility.yul\":854:855   */\n      0x00\n        /* \"#utility.yul\":847:862   */\n      revert\n        /* \"#utility.yul\":874:1155   */\n    tag_73:\n        /* \"#utility.yul\":957:984   */\n      tag_118\n        /* \"#utility.yul\":979:983   */\n      dup3\n        /* \"#utility.yul\":957:984   */\n      tag_71\n      jump\t// in\n    tag_118:\n        /* \"#utility.yul\":949:955   */\n      dup2\n        /* \"#utility.yul\":945:985   */\n      add\n        /* \"#utility.yul\":1087:1093   */\n      dup2\n        /* \"#utility.yul\":1075:1085   */\n      dup2\n        /* \"#utility.yul\":1072:1094   */\n      lt\n        /* \"#utility.yul\":1051:1069   */\n      0xffffffffffffffff\n        /* \"#utility.yul\":1039:1049   */\n      dup3\n        /* \"#utility.yul\":1036:1070   */\n      gt\n        /* \"#utility.yul\":1033:1095   */\n      or\n        /* \"#utility.yul\":1030:1118   */\n      iszero\n      tag_119\n      jumpi\n        /* \"#utility.yul\":1098:1116   */\n      tag_120\n      tag_72\n      jump\t// in\n    tag_120:\n        /* \"#utility.yul\":1030:1118   */\n    tag_119:\n        /* \"#utility.yul\":1138:1148   */\n      dup1\n        /* \"#utility.yul\":1134:1136   */\n      0x40\n        /* \"#utility.yul\":1127:1149   */\n      mstore\n        /* \"#utility.yul\":917:1155   */\n      pop\n        /* \"#utility.yul\":874:1155   */\n      pop\n      pop\n      jump\t// out\n        /* \"#utility.yul\":1161:1290   */\n    tag_74:\n        /* \"#utility.yul\":1195:1201   */\n      0x00\n        /* \"#utility.yul\":1222:1242   */\n      tag_122\n      tag_66\n      jump\t// in\n    tag_122:\n        /* \"#utility.yul\":1212:1242   */\n      swap1\n      pop\n        /* \"#utility.yul\":1251:1284   */\n      tag_123\n        /* \"#utility.yul\":1279:1283   */\n      dup3\n        /* \"#utility.yul\":1271:1277   */\n      dup3\n        /* \"#utility.yul\":1251:1284   */\n      tag_73\n      jump\t// in\n    tag_123:\n        /* \"#utility.yul\":1161:1290   */\n      swap2\n      swap1\n      pop\n      jump\t// out\n        /* \"#utility.yul\":1296:1604   */\n    tag_75:\n        /* \"#utility.yul\":1358:1362   */\n      0x00\n        /* \"#utility.yul\":1448:1466   */\n      0xffffffffffffffff\n        /* \"#utility.yul\":1440:1446   */\n      dup3\n        /* \"#utility.yul\":1437:1467   */\n      gt\n        /* \"#utility.yul\":1434:1490   */\n      iszero\n      tag_125\n      jumpi\n        /* \"#utility.yul\":1470:1488   */\n      tag_126\n      tag_72\n      jump\t// in\n    tag_126:\n        /* \"#utility.yul\":1434:1490   */\n    tag_125:\n        /* \"#utility.yul\":1508:1537   */\n      tag_127\n        /* \"#utility.yul\":1530:1536   */\n      dup3\n        /* \"#utility.yul\":1508:1537   */\n      tag_71\n      jump\t// in\n    tag_127:\n        /* \"#utility.yul\":1500:1537   */\n      swap1\n      pop\n        /* \"#utility.yul\":1592:1596   */\n      0x20\n        /* \"#utility.yul\":1586:1590   */\n      dup2\n        /* \"#utility.yul\":1582:1597   */\n      add\n        /* \"#utility.yul\":1574:1597   */\n      swap1\n      pop\n        /* \"#utility.yul\":1296:1604   */\n      swap2\n      swap1\n      pop\n      jump\t// out\n        /* \"#utility.yul\":1610:1756   */\n    tag_76:\n        /* \"#utility.yul\":1707:1713   */\n      dup3\n        /* \"#utility.yul\":1702:1705   */\n      dup2\n        /* \"#utility.yul\":1697:1700   */\n      dup4\n        /* \"#utility.yul\":1684:1714   */\n      calldatacopy\n        /* \"#utility.yul\":1748:1749   */\n      0x00\n        /* \"#utility.yul\":1739:1745   */\n      dup4\n        /* \"#utility.yul\":1734:1737   */\n      dup4\n        /* \"#utility.yul\":1730:1746   */\n      add\n        /* \"#utility.yul\":1723:1750   */\n      mstore\n        /* \"#utility.yul\":1610:1756   */\n      pop\n      pop\n      pop\n      jump\t// out\n        /* \"#utility.yul\":1762:2187   */\n    tag_77:\n        /* \"#utility.yul\":1840:1845   */\n      0x00\n        /* \"#utility.yul\":1865:1931   */\n      tag_130\n        /* \"#utility.yul\":1881:1930   */\n      tag_131\n        /* \"#utility.yul\":1923:1929   */\n      dup5\n        /* \"#utility.yul\":1881:1930   */\n      tag_75\n      jump\t// in\n    tag_131:\n        /* \"#utility.yul\":1865:1931   */\n      tag_74\n      jump\t// in\n    tag_130:\n        /* \"#utility.yul\":1856:1931   */\n      swap1\n      pop\n        /* \"#utility.yul\":1954:1960   */\n      dup3\n        /* \"#utility.yul\":1947:1952   */\n      dup2\n        /* \"#utility.yul\":1940:1961   */\n      mstore\n        /* \"#utility.yul\":1992:1996   */\n      0x20\n        /* \"#utility.yul\":1985:1990   */\n      dup2\n        /* \"#utility.yul\":1981:1997   */\n      add\n        /* \"#utility.yul\":2030:2033   */\n      dup5\n        /* \"#utility.yul\":2021:2027   */\n      dup5\n        /* \"#utility.yul\":2016:2019   */\n      dup5\n        /* \"#utility.yul\":2012:2028   */\n      add\n        /* \"#utility.yul\":2009:2034   */\n      gt\n        /* \"#utility.yul\":2006:2118   */\n      iszero\n      tag_132\n      jumpi\n        /* \"#utility.yul\":2037:2116   */\n      tag_133\n      tag_70\n      jump\t// in\n    tag_133:\n        /* \"#utility.yul\":2006:2118   */\n    tag_132:\n        /* \"#utility.yul\":2127:2181   */\n      tag_134\n        /* \"#utility.yul\":2174:2180   */\n      dup5\n        /* \"#utility.yul\":2169:2172   */\n      dup3\n        /* \"#utility.yul\":2164:2167   */\n      dup6\n        /* \"#utility.yul\":2127:2181   */\n      tag_76\n      jump\t// in\n    tag_134:\n        /* \"#utility.yul\":1846:2187   */\n      pop\n        /* \"#utility.yul\":1762:2187   */\n      swap4\n      swap3\n      pop\n      pop\n      pop\n      jump\t// out\n        /* \"#utility.yul\":2207:2547   */\n    tag_78:\n        /* \"#utility.yul\":2263:2268   */\n      0x00\n        /* \"#utility.yul\":2312:2315   */\n      dup3\n        /* \"#utility.yul\":2305:2309   */\n      0x1f\n        /* \"#utility.yul\":2297:2303   */\n      dup4\n        /* \"#utility.yul\":2293:2310   */\n      add\n        /* \"#utility.yul\":2289:2316   */\n      slt\n        /* \"#utility.yul\":2279:2401   */\n      tag_136\n      jumpi\n        /* \"#utility.yul\":2320:2399   */\n      tag_137\n      tag_69\n      jump\t// in\n    tag_137:\n        /* \"#utility.yul\":2279:2401   */\n    tag_136:\n        /* \"#utility.yul\":2437:2443   */\n      dup2\n        /* \"#utility.yul\":2424:2444   */\n      calldataload\n        /* \"#utility.yul\":2462:2541   */\n      tag_138\n        /* \"#utility.yul\":2537:2540   */\n      dup5\n        /* \"#utility.yul\":2529:2535   */\n      dup3\n        /* \"#utility.yul\":2522:2526   */\n      0x20\n        /* \"#utility.yul\":2514:2520   */\n      dup7\n        /* \"#utility.yul\":2510:2527   */\n      add\n        /* \"#utility.yul\":2462:2541   */\n      tag_77\n      jump\t// in\n    tag_138:\n        /* \"#utility.yul\":2453:2541   */\n      swap2\n      pop\n        /* \"#utility.yul\":2269:2547   */\n      pop\n        /* \"#utility.yul\":2207:2547   */\n      swap3\n      swap2\n      pop\n      pop\n      jump\t// out\n        /* \"#utility.yul\":2553:2679   */\n    tag_79:\n        /* \"#utility.yul\":2590:2597   */\n      0x00\n        /* \"#utility.yul\":2630:2672   */\n      0xffffffffffffffffffffffffffffffffffffffff\n        /* \"#utility.yul\":2623:2628   */\n      dup3\n        /* \"#utility.yul\":2619:2673   */\n      and\n        /* \"#utility.yul\":2608:2673   */\n      swap1\n      pop\n        /* \"#utility.yul\":2553:2679   */\n      swap2\n      swap1\n      pop\n      jump\t// out\n        /* \"#utility.yul\":2685:2781   */\n    tag_80:\n        /* \"#utility.yul\":2722:2729   */\n      0x00\n        /* \"#utility.yul\":2751:2775   */\n      tag_141\n        /* \"#utility.yul\":2769:2774   */\n      dup3\n        /* \"#utility.yul\":2751:2775   */\n      tag_79\n      jump\t// in\n    tag_141:\n        /* \"#utility.yul\":2740:2775   */\n      swap1\n      pop\n        /* \"#utility.yul\":2685:2781   */\n      swap2\n      swap1\n      pop\n      jump\t// out\n        /* \"#utility.yul\":2787:2909   */\n    tag_81:\n        /* \"#utility.yul\":2860:2884   */\n      tag_143\n        /* \"#utility.yul\":2878:2883   */\n      dup2\n        /* \"#utility.yul\":2860:2884   */\n      tag_80\n      jump\t// in\n    tag_143:\n        /* \"#utility.yul\":2853:2858   */\n      dup2\n        /* \"#utility.yul\":2850:2885   */\n      eq\n        /* \"#utility.yul\":2840:2903   */\n      tag_144\n      jumpi\n        /* \"#utility.yul\":2899:2900   */\n      0x00\n        /* \"#utility.yul\":2896:2897   */\n      dup1\n        /* \"#utility.yul\":2889:2901   */\n      revert\n        /* \"#utility.yul\":2840:2903   */\n    tag_144:\n        /* \"#utility.yul\":2787:2909   */\n      pop\n      jump\t// out\n        /* \"#utility.yul\":2915:3054   */\n    tag_82:\n        /* \"#utility.yul\":2961:2966   */\n      0x00\n        /* \"#utility.yul\":2999:3005   */\n      dup2\n        /* \"#utility.yul\":2986:3006   */\n      calldataload\n        /* \"#utility.yul\":2977:3006   */\n      swap1\n      pop\n        /* \"#utility.yul\":3015:3048   */\n      tag_146\n        /* \"#utility.yul\":3042:3047   */\n      dup2\n        /* \"#utility.yul\":3015:3048   */\n      tag_81\n      jump\t// in\n    tag_146:\n        /* \"#utility.yul\":2915:3054   */\n      swap3\n      swap2\n      pop\n      pop\n      jump\t// out\n        /* \"#utility.yul\":3060:3714   */\n    tag_11:\n        /* \"#utility.yul\":3138:3144   */\n      0x00\n        /* \"#utility.yul\":3146:3152   */\n      dup1\n        /* \"#utility.yul\":3195:3197   */\n      0x40\n        /* \"#utility.yul\":3183:3192   */\n      dup4\n        /* \"#utility.yul\":3174:3181   */\n      dup6\n        /* \"#utility.yul\":3170:3193   */\n      sub\n        /* \"#utility.yul\":3166:3198   */\n      slt\n        /* \"#utility.yul\":3163:3282   */\n      iszero\n      tag_148\n      jumpi\n        /* \"#utility.yul\":3201:3280   */\n      tag_149\n      tag_67\n      jump\t// in\n    tag_149:\n        /* \"#utility.yul\":3163:3282   */\n    tag_148:\n        /* \"#utility.yul\":3349:3350   */\n      0x00\n        /* \"#utility.yul\":3338:3347   */\n      dup4\n        /* \"#utility.yul\":3334:3351   */\n      add\n        /* \"#utility.yul\":3321:3352   */\n      calldataload\n        /* \"#utility.yul\":3379:3397   */\n      0xffffffffffffffff\n        /* \"#utility.yul\":3371:3377   */\n      dup2\n        /* \"#utility.yul\":3368:3398   */\n      gt\n        /* \"#utility.yul\":3365:3482   */\n      iszero\n      tag_150\n      jumpi\n        /* \"#utility.yul\":3401:3480   */\n      tag_151\n      tag_68\n      jump\t// in\n    tag_151:\n        /* \"#utility.yul\":3365:3482   */\n    tag_150:\n        /* \"#utility.yul\":3506:3569   */\n      tag_152\n        /* \"#utility.yul\":3561:3568   */\n      dup6\n        /* \"#utility.yul\":3552:3558   */\n      dup3\n        /* \"#utility.yul\":3541:3550   */\n      dup7\n        /* \"#utility.yul\":3537:3559   */\n      add\n        /* \"#utility.yul\":3506:3569   */\n      tag_78\n      jump\t// in\n    tag_152:\n        /* \"#utility.yul\":3496:3569   */\n      swap3\n      pop\n        /* \"#utility.yul\":3292:3579   */\n      pop\n        /* \"#utility.yul\":3618:3620   */\n      0x20\n        /* \"#utility.yul\":3644:3697   */\n      tag_153\n        /* \"#utility.yul\":3689:3696   */\n      dup6\n        /* \"#utility.yul\":3680:3686   */\n      dup3\n        /* \"#utility.yul\":3669:3678   */\n      dup7\n        /* \"#utility.yul\":3665:3687   */\n      add\n        /* \"#utility.yul\":3644:3697   */\n      tag_82\n      jump\t// in\n    tag_153:\n        /* \"#utility.yul\":3634:3697   */\n      swap2\n      pop\n        /* \"#utility.yul\":3589:3707   */\n      pop\n        /* \"#utility.yul\":3060:3714   */\n      swap3\n      pop\n      swap3\n      swap1\n      pop\n      jump\t// out\n        /* \"#utility.yul\":3720:3797   */\n    tag_83:\n        /* \"#utility.yul\":3757:3764   */\n      0x00\n        /* \"#utility.yul\":3786:3791   */\n      dup2\n        /* \"#utility.yul\":3775:3791   */\n      swap1\n      pop\n        /* \"#utility.yul\":3720:3797   */\n      swap2\n      swap1\n      pop\n      jump\t// out\n        /* \"#utility.yul\":3803:3925   */\n    tag_84:\n        /* \"#utility.yul\":3876:3900   */\n      tag_156\n        /* \"#utility.yul\":3894:3899   */\n      dup2\n        /* \"#utility.yul\":3876:3900   */\n      tag_83\n      jump\t// in\n    tag_156:\n        /* \"#utility.yul\":3869:3874   */\n      dup2\n        /* \"#utility.yul\":3866:3901   */\n      eq\n        /* \"#utility.yul\":3856:3919   */\n      tag_157\n      jumpi\n        /* \"#utility.yul\":3915:3916   */\n      0x00\n        /* \"#utility.yul\":3912:3913   */\n      dup1\n        /* \"#utility.yul\":3905:3917   */\n      revert\n        /* \"#utility.yul\":3856:3919   */\n    tag_157:\n        /* \"#utility.yul\":3803:3925   */\n      pop\n      jump\t// out\n        /* \"#utility.yul\":3931:4070   */\n    tag_85:\n        /* \"#utility.yul\":3977:3982   */\n      0x00\n        /* \"#utility.yul\":4015:4021   */\n      dup2\n        /* \"#utility.yul\":4002:4022   */\n      calldataload\n        /* \"#utility.yul\":3993:4022   */\n      swap1\n      pop\n        /* \"#utility.yul\":4031:4064   */\n      tag_159\n        /* \"#utility.yul\":4058:4063   */\n      dup2\n        /* \"#utility.yul\":4031:4064   */\n      tag_84\n      jump\t// in\n    tag_159:\n        /* \"#utility.yul\":3931:4070   */\n      swap3\n      swap2\n      pop\n      pop\n      jump\t// out\n        /* \"#utility.yul\":4076:4405   */\n    tag_18:\n        /* \"#utility.yul\":4135:4141   */\n      0x00\n        /* \"#utility.yul\":4184:4186   */\n      0x20\n        /* \"#utility.yul\":4172:4181   */\n      dup3\n        /* \"#utility.yul\":4163:4170   */\n      dup5\n        /* \"#utility.yul\":4159:4182   */\n      sub\n        /* \"#utility.yul\":4155:4187   */\n      slt\n        /* \"#utility.yul\":4152:4271   */\n      iszero\n      tag_161\n      jumpi\n        /* \"#utility.yul\":4190:4269   */\n      tag_162\n      tag_67\n      jump\t// in\n    tag_162:\n        /* \"#utility.yul\":4152:4271   */\n    tag_161:\n        /* \"#utility.yul\":4310:4311   */\n      0x00\n        /* \"#utility.yul\":4335:4388   */\n      tag_163\n        /* \"#utility.yul\":4380:4387   */\n      dup5\n        /* \"#utility.yul\":4371:4377   */\n      dup3\n        /* \"#utility.yul\":4360:4369   */\n      dup6\n        /* \"#utility.yul\":4356:4378   */\n      add\n        /* \"#utility.yul\":4335:4388   */\n      tag_85\n      jump\t// in\n    tag_163:\n        /* \"#utility.yul\":4325:4388   */\n      swap2\n      pop\n        /* \"#utility.yul\":4281:4398   */\n      pop\n        /* \"#utility.yul\":4076:4405   */\n      swap3\n      swap2\n      pop\n      pop\n      jump\t// out\n        /* \"#utility.yul\":4411:4510   */\n    tag_86:\n        /* \"#utility.yul\":4463:4469   */\n      0x00\n        /* \"#utility.yul\":4497:4502   */\n      dup2\n        /* \"#utility.yul\":4491:4503   */\n      mload\n        /* \"#utility.yul\":4481:4503   */\n      swap1\n      pop\n        /* \"#utility.yul\":4411:4510   */\n      swap2\n      swap1\n      pop\n      jump\t// out\n        /* \"#utility.yul\":4516:4685   */\n    tag_87:\n        /* \"#utility.yul\":4600:4611   */\n      0x00\n        /* \"#utility.yul\":4634:4640   */\n      dup3\n        /* \"#utility.yul\":4629:4632   */\n      dup3\n        /* \"#utility.yul\":4622:4641   */\n      mstore\n        /* \"#utility.yul\":4674:4678   */\n      0x20\n        /* \"#utility.yul\":4669:4672   */\n      dup3\n        /* \"#utility.yul\":4665:4679   */\n      add\n        /* \"#utility.yul\":4650:4679   */\n      swap1\n      pop\n        /* \"#utility.yul\":4516:4685   */\n      swap3\n      swap2\n      pop\n      pop\n      jump\t// out\n        /* \"#utility.yul\":4691:4937   */\n    tag_88:\n        /* \"#utility.yul\":4772:4773   */\n      0x00\n        /* \"#utility.yul\":4782:4895   */\n    tag_167:\n        /* \"#utility.yul\":4796:4802   */\n      dup4\n        /* \"#utility.yul\":4793:4794   */\n      dup2\n        /* \"#utility.yul\":4790:4803   */\n      lt\n        /* \"#utility.yul\":4782:4895   */\n      iszero\n      tag_169\n      jumpi\n        /* \"#utility.yul\":4881:4882   */\n      dup1\n        /* \"#utility.yul\":4876:4879   */\n      dup3\n        /* \"#utility.yul\":4872:4883   */\n      add\n        /* \"#utility.yul\":4866:4884   */\n      mload\n        /* \"#utility.yul\":4862:4863   */\n      dup2\n        /* \"#utility.yul\":4857:4860   */\n      dup5\n        /* \"#utility.yul\":4853:4864   */\n      add\n        /* \"#utility.yul\":4846:4885   */\n      mstore\n        /* \"#utility.yul\":4818:4820   */\n      0x20\n        /* \"#utility.yul\":4815:4816   */\n      dup2\n        /* \"#utility.yul\":4811:4821   */\n      add\n        /* \"#utility.yul\":4806:4821   */\n      swap1\n      pop\n        /* \"#utility.yul\":4782:4895   */\n      jump(tag_167)\n    tag_169:\n        /* \"#utility.yul\":4929:4930   */\n      0x00\n        /* \"#utility.yul\":4920:4926   */\n      dup5\n        /* \"#utility.yul\":4915:4918   */\n      dup5\n        /* \"#utility.yul\":4911:4927   */\n      add\n        /* \"#utility.yul\":4904:4931   */\n      mstore\n        /* \"#utility.yul\":4753:4937   */\n      pop\n        /* \"#utility.yul\":4691:4937   */\n      pop\n      pop\n      pop\n      jump\t// out\n        /* \"#utility.yul\":4943:5320   */\n    tag_89:\n        /* \"#utility.yul\":5031:5034   */\n      0x00\n        /* \"#utility.yul\":5059:5098   */\n      tag_171\n        /* \"#utility.yul\":5092:5097   */\n      dup3\n        /* \"#utility.yul\":5059:5098   */\n      tag_86\n      jump\t// in\n    tag_171:\n        /* \"#utility.yul\":5114:5185   */\n      tag_172\n        /* \"#utility.yul\":5178:5184   */\n      dup2\n        /* \"#utility.yul\":5173:5176   */\n      dup6\n        /* \"#utility.yul\":5114:5185   */\n      tag_87\n      jump\t// in\n    tag_172:\n        /* \"#utility.yul\":5107:5185   */\n      swap4\n      pop\n        /* \"#utility.yul\":5194:5259   */\n      tag_173\n        /* \"#utility.yul\":5252:5258   */\n      dup2\n        /* \"#utility.yul\":5247:5250   */\n      dup6\n        /* \"#utility.yul\":5240:5244   */\n      0x20\n        /* \"#utility.yul\":5233:5238   */\n      dup7\n        /* \"#utility.yul\":5229:5245   */\n      add\n        /* \"#utility.yul\":5194:5259   */\n      tag_88\n      jump\t// in\n    tag_173:\n        /* \"#utility.yul\":5284:5313   */\n      tag_174\n        /* \"#utility.yul\":5306:5312   */\n      dup2\n        /* \"#utility.yul\":5284:5313   */\n      tag_71\n      jump\t// in\n    tag_174:\n        /* \"#utility.yul\":5279:5282   */\n      dup5\n        /* \"#utility.yul\":5275:5314   */\n      add\n        /* \"#utility.yul\":5268:5314   */\n      swap2\n      pop\n        /* \"#utility.yul\":5035:5320   */\n      pop\n        /* \"#utility.yul\":4943:5320   */\n      swap3\n      swap2\n      pop\n      pop\n      jump\t// out\n        /* \"#utility.yul\":5326:5444   */\n    tag_90:\n        /* \"#utility.yul\":5413:5437   */\n      tag_176\n        /* \"#utility.yul\":5431:5436   */\n      dup2\n        /* \"#utility.yul\":5413:5437   */\n      tag_80\n      jump\t// in\n    tag_176:\n        /* \"#utility.yul\":5408:5411   */\n      dup3\n        /* \"#utility.yul\":5401:5438   */\n      mstore\n        /* \"#utility.yul\":5326:5444   */\n      pop\n      pop\n      jump\t// out\n        /* \"#utility.yul\":5450:5540   */\n    tag_91:\n        /* \"#utility.yul\":5484:5491   */\n      0x00\n        /* \"#utility.yul\":5527:5532   */\n      dup2\n        /* \"#utility.yul\":5520:5533   */\n      iszero\n        /* \"#utility.yul\":5513:5534   */\n      iszero\n        /* \"#utility.yul\":5502:5534   */\n      swap1\n      pop\n        /* \"#utility.yul\":5450:5540   */\n      swap2\n      swap1\n      pop\n      jump\t// out\n        /* \"#utility.yul\":5546:5655   */\n    tag_92:\n        /* \"#utility.yul\":5627:5648   */\n      tag_179\n        /* \"#utility.yul\":5642:5647   */\n      dup2\n        /* \"#utility.yul\":5627:5648   */\n      tag_91\n      jump\t// in\n    tag_179:\n        /* \"#utility.yul\":5622:5625   */\n      dup3\n        /* \"#utility.yul\":5615:5649   */\n      mstore\n        /* \"#utility.yul\":5546:5655   */\n      pop\n      pop\n      jump\t// out\n        /* \"#utility.yul\":5661:6182   */\n    tag_27:\n        /* \"#utility.yul\":5824:5828   */\n      0x00\n        /* \"#utility.yul\":5862:5864   */\n      0x60\n        /* \"#utility.yul\":5851:5860   */\n      dup3\n        /* \"#utility.yul\":5847:5865   */\n      add\n        /* \"#utility.yul\":5839:5865   */\n      swap1\n      pop\n        /* \"#utility.yul\":5911:5920   */\n      dup2\n        /* \"#utility.yul\":5905:5909   */\n      dup2\n        /* \"#utility.yul\":5901:5921   */\n      sub\n        /* \"#utility.yul\":5897:5898   */\n      0x00\n        /* \"#utility.yul\":5886:5895   */\n      dup4\n        /* \"#utility.yul\":5882:5899   */\n      add\n        /* \"#utility.yul\":5875:5922   */\n      mstore\n        /* \"#utility.yul\":5939:6017   */\n      tag_181\n        /* \"#utility.yul\":6012:6016   */\n      dup2\n        /* \"#utility.yul\":6003:6009   */\n      dup7\n        /* \"#utility.yul\":5939:6017   */\n      tag_89\n      jump\t// in\n    tag_181:\n        /* \"#utility.yul\":5931:6017   */\n      swap1\n      pop\n        /* \"#utility.yul\":6027:6099   */\n      tag_182\n        /* \"#utility.yul\":6095:6097   */\n      0x20\n        /* \"#utility.yul\":6084:6093   */\n      dup4\n        /* \"#utility.yul\":6080:6098   */\n      add\n        /* \"#utility.yul\":6071:6077   */\n      dup6\n        /* \"#utility.yul\":6027:6099   */\n      tag_90\n      jump\t// in\n    tag_182:\n        /* \"#utility.yul\":6109:6175   */\n      tag_183\n        /* \"#utility.yul\":6171:6173   */\n      0x40\n        /* \"#utility.yul\":6160:6169   */\n      dup4\n        /* \"#utility.yul\":6156:6174   */\n      add\n        /* \"#utility.yul\":6147:6153   */\n      dup5\n        /* \"#utility.yul\":6109:6175   */\n      tag_92\n      jump\t// in\n    tag_183:\n        /* \"#utility.yul\":5661:6182   */\n      swap5\n      swap4\n      pop\n      pop\n      pop\n      pop\n      jump\t// out\n        /* \"#utility.yul\":6188:6368   */\n    tag_93:\n        /* \"#utility.yul\":6236:6313   */\n      0x4e487b7100000000000000000000000000000000000000000000000000000000\n        /* \"#utility.yul\":6233:6234   */\n      0x00\n        /* \"#utility.yul\":6226:6314   */\n      mstore\n        /* \"#utility.yul\":6333:6337   */\n      0x22\n        /* \"#utility.yul\":6330:6331   */\n      0x04\n        /* \"#utility.yul\":6323:6338   */\n      mstore\n        /* \"#utility.yul\":6357:6361   */\n      0x24\n        /* \"#utility.yul\":6354:6355   */\n      0x00\n        /* \"#utility.yul\":6347:6362   */\n      revert\n        /* \"#utility.yul\":6374:6694   */\n    tag_54:\n        /* \"#utility.yul\":6418:6424   */\n      0x00\n        /* \"#utility.yul\":6455:6456   */\n      0x02\n        /* \"#utility.yul\":6449:6453   */\n      dup3\n        /* \"#utility.yul\":6445:6457   */\n      div\n        /* \"#utility.yul\":6435:6457   */\n      swap1\n      pop\n        /* \"#utility.yul\":6502:6503   */\n      0x01\n        /* \"#utility.yul\":6496:6500   */\n      dup3\n        /* \"#utility.yul\":6492:6504   */\n      and\n        /* \"#utility.yul\":6523:6541   */\n      dup1\n        /* \"#utility.yul\":6513:6594   */\n      tag_186\n      jumpi\n        /* \"#utility.yul\":6579:6583   */\n      0x7f\n        /* \"#utility.yul\":6571:6577   */\n      dup3\n        /* \"#utility.yul\":6567:6584   */\n      and\n        /* \"#utility.yul\":6557:6584   */\n      swap2\n      pop\n        /* \"#utility.yul\":6513:6594   */\n    tag_186:\n        /* \"#utility.yul\":6641:6643   */\n      0x20\n        /* \"#utility.yul\":6633:6639   */\n      dup3\n        /* \"#utility.yul\":6630:6644   */\n      lt\n        /* \"#utility.yul\":6610:6628   */\n      dup2\n        /* \"#utility.yul\":6607:6645   */\n      sub\n        /* \"#utility.yul\":6604:6688   */\n      tag_187\n      jumpi\n        /* \"#utility.yul\":6660:6678   */\n      tag_188\n      tag_93\n      jump\t// in\n    tag_188:\n        /* \"#utility.yul\":6604:6688   */\n    tag_187:\n        /* \"#utility.yul\":6425:6694   */\n      pop\n        /* \"#utility.yul\":6374:6694   */\n      swap2\n      swap1\n      pop\n      jump\t// out\n        /* \"#utility.yul\":6700:6841   */\n    tag_94:\n        /* \"#utility.yul\":6749:6753   */\n      0x00\n        /* \"#utility.yul\":6772:6775   */\n      dup2\n        /* \"#utility.yul\":6764:6775   */\n      swap1\n      pop\n        /* \"#utility.yul\":6795:6798   */\n      dup2\n        /* \"#utility.yul\":6792:6793   */\n      0x00\n        /* \"#utility.yul\":6785:6799   */\n      mstore\n        /* \"#utility.yul\":6829:6833   */\n      0x20\n        /* \"#utility.yul\":6826:6827   */\n      0x00\n        /* \"#utility.yul\":6816:6834   */\n      keccak256\n        /* \"#utility.yul\":6808:6834   */\n      swap1\n      pop\n        /* \"#utility.yul\":6700:6841   */\n      swap2\n      swap1\n      pop\n      jump\t// out\n        /* \"#utility.yul\":6847:6940   */\n    tag_95:\n        /* \"#utility.yul\":6884:6890   */\n      0x00\n        /* \"#utility.yul\":6931:6933   */\n      0x20\n        /* \"#utility.yul\":6926:6928   */\n      0x1f\n        /* \"#utility.yul\":6919:6924   */\n      dup4\n        /* \"#utility.yul\":6915:6929   */\n      add\n        /* \"#utility.yul\":6911:6934   */\n      div\n        /* \"#utility.yul\":6901:6934   */\n      swap1\n      pop\n        /* \"#utility.yul\":6847:6940   */\n      swap2\n      swap1\n      pop\n      jump\t// out\n        /* \"#utility.yul\":6946:7053   */\n    tag_96:\n        /* \"#utility.yul\":6990:6998   */\n      0x00\n        /* \"#utility.yul\":7040:7045   */\n      dup3\n        /* \"#utility.yul\":7034:7038   */\n      dup3\n        /* \"#utility.yul\":7030:7046   */\n      shl\n        /* \"#utility.yul\":7009:7046   */\n      swap1\n      pop\n        /* \"#utility.yul\":6946:7053   */\n      swap3\n      swap2\n      pop\n      pop\n      jump\t// out\n        /* \"#utility.yul\":7059:7452   */\n    tag_97:\n        /* \"#utility.yul\":7128:7134   */\n      0x00\n        /* \"#utility.yul\":7178:7179   */\n      0x08\n        /* \"#utility.yul\":7166:7176   */\n      dup4\n        /* \"#utility.yul\":7162:7180   */\n      mul\n        /* \"#utility.yul\":7201:7298   */\n      tag_193\n        /* \"#utility.yul\":7231:7297   */\n      0xffffffffffffffffffffffffffffffffffffffffffffffffffffffffffffffff\n        /* \"#utility.yul\":7220:7229   */\n      dup3\n        /* \"#utility.yul\":7201:7298   */\n      tag_96\n      jump\t// in\n    tag_193:\n        /* \"#utility.yul\":7319:7358   */\n      tag_194\n        /* \"#utility.yul\":7349:7357   */\n      dup7\n        /* \"#utility.yul\":7338:7347   */\n      dup4\n        /* \"#utility.yul\":7319:7358   */\n      tag_96\n      jump\t// in\n    tag_194:\n        /* \"#utility.yul\":7307:7358   */\n      swap6\n      pop\n        /* \"#utility.yul\":7391:7395   */\n      dup1\n        /* \"#utility.yul\":7387:7396   */\n      not\n        /* \"#utility.yul\":7380:7385   */\n      dup5\n        /* \"#utility.yul\":7376:7397   */\n      and\n        /* \"#utility.yul\":7367:7397   */\n      swap4\n      pop\n        /* \"#utility.yul\":7440:7444   */\n      dup1\n        /* \"#utility.yul\":7430:7438   */\n      dup7\n        /* \"#utility.yul\":7426:7445   */\n      and\n        /* \"#utility.yul\":7419:7424   */\n      dup5\n        /* \"#utility.yul\":7416:7446   */\n      or\n        /* \"#utility.yul\":7406:7446   */\n      swap3\n      pop\n        /* \"#utility.yul\":7135:7452   */\n      pop\n      pop\n        /* \"#utility.yul\":7059:7452   */\n      swap4\n      swap3\n      pop\n      pop\n      pop\n      jump\t// out\n        /* \"#utility.yul\":7458:7518   */\n    tag_98:\n        /* \"#utility.yul\":7486:7489   */\n      0x00\n        /* \"#utility.yul\":7507:7512   */\n      dup2\n        /* \"#utility.yul\":7500:7512   */\n      swap1\n      pop\n        /* \"#utility.yul\":7458:7518   */\n      swap2\n      swap1\n      pop\n      jump\t// out\n        /* \"#utility.yul\":7524:7666   */\n    tag_99:\n        /* \"#utility.yul\":7574:7583   */\n      0x00\n        /* \"#utility.yul\":7607:7660   */\n      tag_197\n        /* \"#utility.yul\":7625:7659   */\n      tag_198\n        /* \"#utility.yul\":7634:7658   */\n      tag_199\n        /* \"#utility.yul\":7652:7657   */\n      dup5\n        /* \"#utility.yul\":7634:7658   */\n      tag_83\n      jump\t// in\n    tag_199:\n        /* \"#utility.yul\":7625:7659   */\n      tag_98\n      jump\t// in\n    tag_198:\n        /* \"#utility.yul\":7607:7660   */\n      tag_83\n      jump\t// in\n    tag_197:\n        /* \"#utility.yul\":7594:7660   */\n      swap1\n      pop\n        /* \"#utility.yul\":7524:7666   */\n      swap2\n      swap1\n      pop\n      jump\t// out\n        /* \"#utility.yul\":7672:7747   */\n    tag_100:\n        /* \"#utility.yul\":7715:7718   */\n      0x00\n        /* \"#utility.yul\":7736:7741   */\n      dup2\n        /* \"#utility.yul\":7729:7741   */\n      swap1\n      pop\n        /* \"#utility.yul\":7672:7747   */\n      swap2\n      swap1\n      pop\n      jump\t// out\n        /* \"#utility.yul\":7753:8022   */\n    tag_101:\n        /* \"#utility.yul\":7863:7902   */\n      tag_202\n        /* \"#utility.yul\":7894:7901   */\n      dup4\n        /* \"#utility.yul\":7863:7902   */\n      tag_99\n      jump\t// in\n    tag_202:\n        /* \"#utility.yul\":7924:8015   */\n      tag_203\n        /* \"#utility.yul\":7973:8014   */\n      tag_204\n        /* \"#utility.yul\":7997:8013   */\n      dup3\n        /* \"#utility.yul\":7973:8014   */\n      tag_100\n      jump\t// in\n    tag_204:\n        /* \"#utility.yul\":7965:7971   */\n      dup5\n        /* \"#utility.yul\":7958:7962   */\n      dup5\n        /* \"#utility.yul\":7952:7963   */\n      sload\n        /* \"#utility.yul\":7924:8015   */\n      tag_97\n      jump\t// in\n    tag_203:\n        /* \"#utility.yul\":7918:7922   */\n      dup3\n        /* \"#utility.yul\":7911:8016   */\n      sstore\n        /* \"#utility.yul\":7829:8022   */\n      pop\n        /* \"#utility.yul\":7753:8022   */\n      pop\n      pop\n      pop\n      jump\t// out\n        /* \"#utility.yul\":8028:8101   */\n    tag_102:\n        /* \"#utility.yul\":8073:8076   */\n      0x00\n        /* \"#utility.yul\":8028:8101   */\n      swap1\n      jump\t// out\n        /* \"#utility.yul\":8107:8296   */\n    tag_103:\n        /* \"#utility.yul\":8184:8216   */\n      tag_207\n      tag_102\n      jump\t// in\n    tag_207:\n        /* \"#utility.yul\":8225:8290   */\n      tag_208\n        /* \"#utility.yul\":8283:8289   */\n      dup2\n        /* \"#utility.yul\":8275:8281   */\n      dup5\n        /* \"#utility.yul\":8269:8273   */\n      dup5\n        /* \"#utility.yul\":8225:8290   */\n      tag_101\n      jump\t// in\n    tag_208:\n        /* \"#utility.yul\":8160:8296   */\n      pop\n        /* \"#utility.yul\":8107:8296   */\n      pop\n      pop\n      jump\t// out\n        /* \"#utility.yul\":8302:8488   */\n    tag_104:\n        /* \"#utility.yul\":8362:8482   */\n    tag_210:\n        /* \"#utility.yul\":8379:8382   */\n      dup2\n        /* \"#utility.yul\":8372:8377   */\n      dup2\n        /* \"#utility.yul\":8369:8383   */\n      lt\n        /* \"#utility.yul\":8362:8482   */\n      iszero\n      tag_212\n      jumpi\n        /* \"#utility.yul\":8433:8472   */\n      tag_213\n        /* \"#utility.yul\":8470:8471   */\n      0x00\n        /* \"#utility.yul\":8463:8468   */\n      dup3\n        /* \"#utility.yul\":8433:8472   */\n      tag_103\n      jump\t// in\n    tag_213:\n        /* \"#utility.yul\":8406:8407   */\n      0x01\n        /* \"#utility.yul\":8399:8404   */\n      dup2\n        /* \"#utility.yul\":8395:8408   */\n      add\n        /* \"#utility.yul\":8386:8408   */\n      swap1\n      pop\n        /* \"#utility.yul\":8362:8482   */\n      jump(tag_210)\n    tag_212:\n        /* \"#utility.yul\":8302:8488   */\n      pop\n      pop\n      jump\t// out\n        /* \"#utility.yul\":8494:9037   */\n    tag_105:\n        /* \"#utility.yul\":8595:8597   */\n      0x1f\n        /* \"#utility.yul\":8590:8593   */\n      dup3\n        /* \"#utility.yul\":8587:8598   */\n      gt\n        /* \"#utility.yul\":8584:9030   */\n      iszero\n      tag_215\n      jumpi\n        /* \"#utility.yul\":8629:8667   */\n      tag_216\n        /* \"#utility.yul\":8661:8666   */\n      dup2\n        /* \"#utility.yul\":8629:8667   */\n      tag_94\n      jump\t// in\n    tag_216:\n        /* \"#utility.yul\":8713:8742   */\n      tag_217\n        /* \"#utility.yul\":8731:8741   */\n      dup5\n        /* \"#utility.yul\":8713:8742   */\n      tag_95\n      jump\t// in\n    tag_217:\n        /* \"#utility.yul\":8703:8711   */\n      dup2\n        /* \"#utility.yul\":8699:8743   */\n      add\n        /* \"#utility.yul\":8896:8898   */\n      0x20\n        /* \"#utility.yul\":8884:8894   */\n      dup6\n        /* \"#utility.yul\":8881:8899   */\n      lt\n        /* \"#utility.yul\":8878:8927   */\n      iszero\n      tag_218\n      jumpi\n        /* \"#utility.yul\":8917:8925   */\n      dup2\n        /* \"#utility.yul\":8902:8925   */\n      swap1\n      pop\n        /* \"#utility.yul\":8878:8927   */\n    tag_218:\n        /* \"#utility.yul\":8940:9020   */\n      tag_219\n        /* \"#utility.yul\":8996:9018   */\n      tag_220\n        /* \"#utility.yul\":9014:9017   */\n      dup6\n        /* \"#utility.yul\":8996:9018   */\n      tag_95\n      jump\t// in\n    tag_220:\n        /* \"#utility.yul\":8986:8994   */\n      dup4\n        /* \"#utility.yul\":8982:9019   */\n      add\n        /* \"#utility.yul\":8969:8980   */\n      dup3\n        /* \"#utility.yul\":8940:9020   */\n      tag_104\n      jump\t// in\n    tag_219:\n        /* \"#utility.yul\":8599:9030   */\n      pop\n      pop\n        /* \"#utility.yul\":8584:9030   */\n    tag_215:\n        /* \"#utility.yul\":8494:9037   */\n      pop\n      pop\n      pop\n      jump\t// out\n        /* \"#utility.yul\":9043:9160   */\n    tag_106:\n        /* \"#utility.yul\":9097:9105   */\n      0x00\n        /* \"#utility.yul\":9147:9152   */\n      dup3\n        /* \"#utility.yul\":9141:9145   */\n      dup3\n        /* \"#utility.yul\":9137:9153   */\n      shr\n        /* \"#utility.yul\":9116:9153   */\n      swap1\n      pop\n        /* \"#utility.yul\":9043:9160   */\n      swap3\n      swap2\n      pop\n      pop\n      jump\t// out\n        /* \"#utility.yul\":9166:9335   */\n    tag_107:\n        /* \"#utility.yul\":9210:9216   */\n      0x00\n        /* \"#utility.yul\":9243:9294   */\n      tag_223\n        /* \"#utility.yul\":9291:9292   */\n      0x00\n        /* \"#utility.yul\":9287:9293   */\n      not\n        /* \"#utility.yul\":9279:9284   */\n      dup5\n        /* \"#utility.yul\":9276:9277   */\n      0x08\n        /* \"#utility.yul\":9272:9285   */\n      mul\n        /* \"#utility.yul\":9243:9294   */\n      tag_106\n      jump\t// in\n    tag_223:\n        /* \"#utility.yul\":9239:9295   */\n      not\n        /* \"#utility.yul\":9324:9328   */\n      dup1\n        /* \"#utility.yul\":9318:9322   */\n      dup4\n        /* \"#utility.yul\":9314:9329   */\n      and\n        /* \"#utility.yul\":9304:9329   */\n      swap2\n      pop\n        /* \"#utility.yul\":9217:9335   */\n      pop\n        /* \"#utility.yul\":9166:9335   */\n      swap3\n      swap2\n      pop\n      pop\n      jump\t// out\n        /* \"#utility.yul\":9340:9635   */\n    tag_108:\n        /* \"#utility.yul\":9416:9420   */\n      0x00\n        /* \"#utility.yul\":9562:9591   */\n      tag_225\n        /* \"#utility.yul\":9587:9590   */\n      dup4\n        /* \"#utility.yul\":9581:9585   */\n      dup4\n        /* \"#utility.yul\":9562:9591   */\n      tag_107\n      jump\t// in\n    tag_225:\n        /* \"#utility.yul\":9554:9591   */\n      swap2\n      pop\n        /* \"#utility.yul\":9624:9627   */\n      dup3\n        /* \"#utility.yul\":9621:9622   */\n      0x02\n        /* \"#utility.yul\":9617:9628   */\n      mul\n        /* \"#utility.yul\":9611:9615   */\n      dup3\n        /* \"#utility.yul\":9608:9629   */\n      or\n        /* \"#utility.yul\":9600:9629   */\n      swap1\n      pop\n        /* \"#utility.yul\":9340:9635   */\n      swap3\n      swap2\n      pop\n      pop\n      jump\t// out\n        /* \"#utility.yul\":9640:11035   */\n    tag_35:\n        /* \"#utility.yul\":9757:9794   */\n      tag_227\n        /* \"#utility.yul\":9790:9793   */\n      dup3\n        /* \"#utility.yul\":9757:9794   */\n      tag_86\n      jump\t// in\n    tag_227:\n        /* \"#utility.yul\":9859:9877   */\n      0xffffffffffffffff\n        /* \"#utility.yul\":9851:9857   */\n      dup2\n        /* \"#utility.yul\":9848:9878   */\n      gt\n        /* \"#utility.yul\":9845:9901   */\n      iszero\n      tag_228\n      jumpi\n        /* \"#utility.yul\":9881:9899   */\n      tag_229\n      tag_72\n      jump\t// in\n    tag_229:\n        /* \"#utility.yul\":9845:9901   */\n    tag_228:\n        /* \"#utility.yul\":9925:9963   */\n      tag_230\n        /* \"#utility.yul\":9957:9961   */\n      dup3\n        /* \"#utility.yul\":9951:9962   */\n      sload\n        /* \"#utility.yul\":9925:9963   */\n      tag_54\n      jump\t// in\n    tag_230:\n        /* \"#utility.yul\":10010:10077   */\n      tag_231\n        /* \"#utility.yul\":10070:10076   */\n      dup3\n        /* \"#utility.yul\":10062:10068   */\n      dup3\n        /* \"#utility.yul\":10056:10060   */\n      dup6\n        /* \"#utility.yul\":10010:10077   */\n      tag_105\n      jump\t// in\n    tag_231:\n        /* \"#utility.yul\":10104:10105   */\n      0x00\n        /* \"#utility.yul\":10128:10132   */\n      0x20\n        /* \"#utility.yul\":10115:10132   */\n      swap1\n      pop\n        /* \"#utility.yul\":10160:10162   */\n      0x1f\n        /* \"#utility.yul\":10152:10158   */\n      dup4\n        /* \"#utility.yul\":10149:10163   */\n      gt\n        /* \"#utility.yul\":10177:10178   */\n      0x01\n        /* \"#utility.yul\":10172:10790   */\n      dup2\n      eq\n      tag_233\n      jumpi\n        /* \"#utility.yul\":10834:10835   */\n      0x00\n        /* \"#utility.yul\":10851:10857   */\n      dup5\n        /* \"#utility.yul\":10848:10925   */\n      iszero\n      tag_234\n      jumpi\n        /* \"#utility.yul\":10900:10909   */\n      dup3\n        /* \"#utility.yul\":10895:10898   */\n      dup8\n        /* \"#utility.yul\":10891:10910   */\n      add\n        /* \"#utility.yul\":10885:10911   */\n      mload\n        /* \"#utility.yul\":10876:10911   */\n      swap1\n      pop\n        /* \"#utility.yul\":10848:10925   */\n    tag_234:\n        /* \"#utility.yul\":10951:11018   */\n      tag_235\n        /* \"#utility.yul\":11011:11017   */\n      dup6\n        /* \"#utility.yul\":11004:11009   */\n      dup3\n        /* \"#utility.yul\":10951:11018   */\n      tag_108\n      jump\t// in\n    tag_235:\n        /* \"#utility.yul\":10945:10949   */\n      dup7\n        /* \"#utility.yul\":10938:11019   */\n      sstore\n        /* \"#utility.yul\":10807:11029   */\n      pop\n        /* \"#utility.yul\":10142:11029   */\n      jump(tag_232)\n        /* \"#utility.yul\":10172:10790   */\n    tag_233:\n        /* \"#utility.yul\":10224:10228   */\n      0x1f\n        /* \"#utility.yul\":10220:10229   */\n      not\n        /* \"#utility.yul\":10212:10218   */\n      dup5\n        /* \"#utility.yul\":10208:10230   */\n      and\n        /* \"#utility.yul\":10258:10295   */\n      tag_236\n        /* \"#utility.yul\":10290:10294   */\n      dup7\n        /* \"#utility.yul\":10258:10295   */\n      tag_94\n      jump\t// in\n    tag_236:\n        /* \"#utility.yul\":10317:10318   */\n      0x00\n        /* \"#utility.yul\":10331:10539   */\n    tag_237:\n        /* \"#utility.yul\":10345:10352   */\n      dup3\n        /* \"#utility.yul\":10342:10343   */\n      dup2\n        /* \"#utility.yul\":10339:10353   */\n      lt\n        /* \"#utility.yul\":10331:10539   */\n      iszero\n      tag_239\n      jumpi\n        /* \"#utility.yul\":10424:10433   */\n      dup5\n        /* \"#utility.yul\":10419:10422   */\n      dup10\n        /* \"#utility.yul\":10415:10434   */\n      add\n        /* \"#utility.yul\":10409:10435   */\n      mload\n        /* \"#utility.yul\":10401:10407   */\n      dup3\n        /* \"#utility.yul\":10394:10436   */\n      sstore\n        /* \"#utility.yul\":10475:10476   */\n      0x01\n        /* \"#utility.yul\":10467:10473   */\n      dup3\n        /* \"#utility.yul\":10463:10477   */\n      add\n        /* \"#utility.yul\":10453:10477   */\n      swap2\n      pop\n        /* \"#utility.yul\":10522:10524   */\n      0x20\n        /* \"#utility.yul\":10511:10520   */\n      dup6\n        /* \"#utility.yul\":10507:10525   */\n      add\n        /* \"#utility.yul\":10494:10525   */\n      swap5\n      pop\n        /* \"#utility.yul\":10368:10372   */\n      0x20\n        /* \"#utility.yul\":10365:10366   */\n      dup2\n        /* \"#utility.yul\":10361:10373   */\n      add\n        /* \"#utility.yul\":10356:10373   */\n      swap1\n      pop\n        /* \"#utility.yul\":10331:10539   */\n      jump(tag_237)\n    tag_239:\n        /* \"#utility.yul\":10567:10573   */\n      dup7\n        /* \"#utility.yul\":10558:10565   */\n      dup4\n        /* \"#utility.yul\":10555:10574   */\n      lt\n        /* \"#utility.yul\":10552:10731   */\n      iszero\n      tag_240\n      jumpi\n        /* \"#utility.yul\":10625:10634   */\n      dup5\n        /* \"#utility.yul\":10620:10623   */\n      dup10\n        /* \"#utility.yul\":10616:10635   */\n      add\n        /* \"#utility.yul\":10610:10636   */\n      mload\n        /* \"#utility.yul\":10668:10716   */\n      tag_241\n        /* \"#utility.yul\":10710:10714   */\n      0x1f\n        /* \"#utility.yul\":10702:10708   */\n      dup10\n        /* \"#utility.yul\":10698:10715   */\n      and\n        /* \"#utility.yul\":10687:10696   */\n      dup3\n        /* \"#utility.yul\":10668:10716   */\n      tag_107\n      jump\t// in\n    tag_241:\n        /* \"#utility.yul\":10660:10666   */\n      dup4\n        /* \"#utility.yul\":10653:10717   */\n      sstore\n        /* \"#utility.yul\":10575:10731   */\n      pop\n        /* \"#utility.yul\":10552:10731   */\n    tag_240:\n        /* \"#utility.yul\":10777:10778   */\n      0x01\n        /* \"#utility.yul\":10773:10774   */\n      0x02\n        /* \"#utility.yul\":10765:10771   */\n      dup9\n        /* \"#utility.yul\":10761:10775   */\n      mul\n        /* \"#utility.yul\":10757:10779   */\n      add\n        /* \"#utility.yul\":10751:10755   */\n      dup9\n        /* \"#utility.yul\":10744:10780   */\n      sstore\n        /* \"#utility.yul\":10179:10790   */\n      pop\n      pop\n      pop\n        /* \"#utility.yul\":10142:11029   */\n    tag_232:\n      pop\n        /* \"#utility.yul\":9732:11035   */\n      pop\n      pop\n      pop\n        /* \"#utility.yul\":9640:11035   */\n      pop\n      pop\n      jump\t// out\n        /* \"#utility.yul\":11041:11221   */\n    tag_44:\n        /* \"#utility.yul\":11089:11166   */\n      0x4e487b7100000000000000000000000000000000000000000000000000000000\n        /* \"#utility.yul\":11086:11087   */\n      0x00\n        /* \"#utility.yul\":11079:11167   */\n      mstore\n        /* \"#utility.yul\":11186:11190   */\n      0x32\n        /* \"#utility.yul\":11183:11184   */\n      0x04\n        /* \"#utility.yul\":11176:11191   */\n      mstore\n        /* \"#utility.yul\":11210:11214   */\n      0x24\n        /* \"#utility.yul\":11207:11208   */\n      0x00\n        /* \"#utility.yul\":11200:11215   */\n      revert\n\n    auxdata: 0xa26469706673582212205c11c35f35b351d13643264fabd26699c52ecba5b8a3458ca4f048153c7703f764736f6c63430008120033\n}\n",
				"bytecode": {
					"linkReferences": {},
					"object": "608060405234801561001057600080fd5b50610d17806100206000396000f3fe608060405234801561001057600080fd5b50600436106100625760003560e01c80633093117a1461006757806339fc78bd146100835780634654194b1461009f5780635c86d8b9146100bb5780639507d39a146100d7578063da58c7d914610109575b600080fd5b610081600480360381019061007c919061082e565b61013b565b005b61009d6004803603810190610098919061082e565b61021d565b005b6100b960048036038101906100b491906108c0565b610316565b005b6100d560048036038101906100d0919061082e565b61036d565b005b6100f160048036038101906100ec91906108c0565b61044f565b60405161010093929190610996565b60405180910390f35b610123600480360381019061011e91906108c0565b61054e565b60405161013293929190610996565b60405180910390f35b600060405180606001604052808481526020018373ffffffffffffffffffffffffffffffffffffffff16815260200160001515815250908060018154018082558091505060019003906000526020600020906002020160009091909190915060008201518160000190816101af9190610be0565b5060208201518160010160006101000a81548173ffffffffffffffffffffffffffffffffffffffff021916908373ffffffffffffffffffffffffffffffffffffffff16021790555060408201518160010160146101000a81548160ff02191690831515021790555050505050565b61022561063d565b82816000018190525081816020019073ffffffffffffffffffffffffffffffffffffffff16908173ffffffffffffffffffffffffffffffffffffffff1681525050600081908060018154018082558091505060019003906000526020600020906002020160009091909190915060008201518160000190816102a79190610be0565b5060208201518160010160006101000a81548173ffffffffffffffffffffffffffffffffffffffff021916908373ffffffffffffffffffffffffffffffffffffffff16021790555060408201518160010160146101000a81548160ff0219169083151502179055505050505050565b600080828154811061032b5761032a610cb2565b5b906000526020600020906002020190508060010160149054906101000a900460ff16158160010160146101000a81548160ff0219169083151502179055505050565b600060405180606001604052808481526020018373ffffffffffffffffffffffffffffffffffffffff16815260200160001515815250908060018154018082558091505060019003906000526020600020906002020160009091909190915060008201518160000190816103e19190610be0565b5060208201518160010160006101000a81548173ffffffffffffffffffffffffffffffffffffffff021916908373ffffffffffffffffffffffffffffffffffffffff16021790555060408201518160010160146101000a81548160ff02191690831515021790555050505050565b6060600080600080858154811061046957610468610cb2565b5b90600052602060002090600202019050806000018160010160009054906101000a900473ffffffffffffffffffffffffffffffffffffffff168260010160149054906101000a900460ff168280546104c090610a03565b80601f01602080910402602001604051908101604052809291908181526020018280546104ec90610a03565b80156105395780601f1061050e57610100808354040283529160200191610539565b820191906000526020600020905b81548152906001019060200180831161051c57829003601f168201915b50505050509250935093509350509193909250565b6000818154811061055e57600080fd5b906000526020600020906002020160009150905080600001805461058190610a03565b80601f01602080910402602001604051908101604052809291908181526020018280546105ad90610a03565b80156105fa5780601f106105cf576101008083540402835291602001916105fa565b820191906000526020600020905b8154815290600101906020018083116105dd57829003601f168201915b5050505050908060010160009054906101000a900473ffffffffffffffffffffffffffffffffffffffff16908060010160149054906101000a900460ff16905083565b604051806060016040528060608152602001600073ffffffffffffffffffffffffffffffffffffffff1681526020016000151581525090565b6000604051905090565b600080fd5b600080fd5b600080fd5b600080fd5b6000601f19601f8301169050919050565b7f4e487b7100000000000000000000000000000000000000000000000000000000600052604160045260246000fd5b6106dd82610694565b810181811067ffffffffffffffff821117156106fc576106fb6106a5565b5b80604052505050565b600061070f610676565b905061071b82826106d4565b919050565b600067ffffffffffffffff82111561073b5761073a6106a5565b5b61074482610694565b9050602081019050919050565b82818337600083830152505050565b600061077361076e84610720565b610705565b90508281526020810184848401111561078f5761078e61068f565b5b61079a848285610751565b509392505050565b600082601f8301126107b7576107b661068a565b5b81356107c7848260208601610760565b91505092915050565b600073ffffffffffffffffffffffffffffffffffffffff82169050919050565b60006107fb826107d0565b9050919050565b61080b816107f0565b811461081657600080fd5b50565b60008135905061082881610802565b92915050565b6000806040838503121561084557610844610680565b5b600083013567ffffffffffffffff81111561086357610862610685565b5b61086f858286016107a2565b925050602061088085828601610819565b9150509250929050565b6000819050919050565b61089d8161088a565b81146108a857600080fd5b50565b6000813590506108ba81610894565b92915050565b6000602082840312156108d6576108d5610680565b5b60006108e4848285016108ab565b91505092915050565b600081519050919050565b600082825260208201905092915050565b60005b8381101561092757808201518184015260208101905061090c565b60008484015250505050565b600061093e826108ed565b61094881856108f8565b9350610958818560208601610909565b61096181610694565b840191505092915050565b610975816107f0565b82525050565b60008115159050919050565b6109908161097b565b82525050565b600060608201905081810360008301526109b08186610933565b90506109bf602083018561096c565b6109cc6040830184610987565b949350505050565b7f4e487b7100000000000000000000000000000000000000000000000000000000600052602260045260246000fd5b60006002820490506001821680610a1b57607f821691505b602082108103610a2e57610a2d6109d4565b5b50919050565b60008190508160005260206000209050919050565b60006020601f8301049050919050565b600082821b905092915050565b600060088302610a967fffffffffffffffffffffffffffffffffffffffffffffffffffffffffffffffff82610a59565b610aa08683610a59565b95508019841693508086168417925050509392505050565b6000819050919050565b6000610add610ad8610ad38461088a565b610ab8565b61088a565b9050919050565b6000819050919050565b610af783610ac2565b610b0b610b0382610ae4565b848454610a66565b825550505050565b600090565b610b20610b13565b610b2b818484610aee565b505050565b5b81811015610b4f57610b44600082610b18565b600181019050610b31565b5050565b601f821115610b9457610b6581610a34565b610b6e84610a49565b81016020851015610b7d578190505b610b91610b8985610a49565b830182610b30565b50505b505050565b600082821c905092915050565b6000610bb760001984600802610b99565b1980831691505092915050565b6000610bd08383610ba6565b9150826002028217905092915050565b610be9826108ed565b67ffffffffffffffff811115610c0257610c016106a5565b5b610c0c8254610a03565b610c17828285610b53565b600060209050601f831160018114610c4a5760008415610c38578287015190505b610c428582610bc4565b865550610caa565b601f198416610c5886610a34565b60005b82811015610c8057848901518255600182019150602085019450602081019050610c5b565b86831015610c9d5784890151610c99601f891682610ba6565b8355505b6001600288020188555050505b505050505050565b7f4e487b7100000000000000000000000000000000000000000000000000000000600052603260045260246000fdfea26469706673582212205c11c35f35b351d13643264fabd26699c52ecba5b8a3458ca4f048153c7703f764736f6c63430008120033",
					"opcodes": "PUSH1 0x80 PUSH1 0x40 MSTORE CALLVALUE DUP1 ISZERO PUSH2 0x10 JUMPI PUSH1 0x0 DUP1 REVERT JUMPDEST POP PUSH2 0xD17 DUP1 PUSH2 0x20 PUSH1 0x0 CODECOPY PUSH1 0x0 RETURN INVALID PUSH1 0x80 PUSH1 0x40 MSTORE CALLVALUE DUP1 ISZERO PUSH2 0x10 JUMPI PUSH1 0x0 DUP1 REVERT JUMPDEST POP PUSH1 0x4 CALLDATASIZE LT PUSH2 0x62 JUMPI PUSH1 0x0 CALLDATALOAD PUSH1 0xE0 SHR DUP1 PUSH4 0x3093117A EQ PUSH2 0x67 JUMPI DUP1 PUSH4 0x39FC78BD EQ PUSH2 0x83 JUMPI DUP1 PUSH4 0x4654194B EQ PUSH2 0x9F JUMPI DUP1 PUSH4 0x5C86D8B9 EQ PUSH2 0xBB JUMPI DUP1 PUSH4 0x9507D39A EQ PUSH2 0xD7 JUMPI DUP1 PUSH4 0xDA58C7D9 EQ PUSH2 0x109 JUMPI JUMPDEST PUSH1 0x0 DUP1 REVERT JUMPDEST PUSH2 0x81 PUSH1 0x4 DUP1 CALLDATASIZE SUB DUP2 ADD SWAP1 PUSH2 0x7C SWAP2 SWAP1 PUSH2 0x82E JUMP JUMPDEST PUSH2 0x13B JUMP JUMPDEST STOP JUMPDEST PUSH2 0x9D PUSH1 0x4 DUP1 CALLDATASIZE SUB DUP2 ADD SWAP1 PUSH2 0x98 SWAP2 SWAP1 PUSH2 0x82E JUMP JUMPDEST PUSH2 0x21D JUMP JUMPDEST STOP JUMPDEST PUSH2 0xB9 PUSH1 0x4 DUP1 CALLDATASIZE SUB DUP2 ADD SWAP1 PUSH2 0xB4 SWAP2 SWAP1 PUSH2 0x8C0 JUMP JUMPDEST PUSH2 0x316 JUMP JUMPDEST STOP JUMPDEST PUSH2 0xD5 PUSH1 0x4 DUP1 CALLDATASIZE SUB DUP2 ADD SWAP1 PUSH2 0xD0 SWAP2 SWAP1 PUSH2 0x82E JUMP JUMPDEST PUSH2 0x36D JUMP JUMPDEST STOP JUMPDEST PUSH2 0xF1 PUSH1 0x4 DUP1 CALLDATASIZE SUB DUP2 ADD SWAP1 PUSH2 0xEC SWAP2 SWAP1 PUSH2 0x8C0 JUMP JUMPDEST PUSH2 0x44F JUMP JUMPDEST PUSH1 0x40 MLOAD PUSH2 0x100 SWAP4 SWAP3 SWAP2 SWAP1 PUSH2 0x996 JUMP JUMPDEST PUSH1 0x40 MLOAD DUP1 SWAP2 SUB SWAP1 RETURN JUMPDEST PUSH2 0x123 PUSH1 0x4 DUP1 CALLDATASIZE SUB DUP2 ADD SWAP1 PUSH2 0x11E SWAP2 SWAP1 PUSH2 0x8C0 JUMP JUMPDEST PUSH2 0x54E JUMP JUMPDEST PUSH1 0x40 MLOAD PUSH2 0x132 SWAP4 SWAP3 SWAP2 SWAP1 PUSH2 0x996 JUMP JUMPDEST PUSH1 0x40 MLOAD DUP1 SWAP2 SUB SWAP1 RETURN JUMPDEST PUSH1 0x0 PUSH1 0x40 MLOAD DUP1 PUSH1 0x60 ADD PUSH1 0x40 MSTORE DUP1 DUP5 DUP2 MSTORE PUSH1 0x20 ADD DUP4 PUSH20 0xFFFFFFFFFFFFFFFFFFFFFFFFFFFFFFFFFFFFFFFF AND DUP2 MSTORE PUSH1 0x20 ADD PUSH1 0x0 ISZERO ISZERO DUP2 MSTORE POP SWAP1 DUP1 PUSH1 0x1 DUP2 SLOAD ADD DUP1 DUP3 SSTORE DUP1 SWAP2 POP POP PUSH1 0x1 SWAP1 SUB SWAP1 PUSH1 0x0 MSTORE PUSH1 0x20 PUSH1 0x0 KECCAK256 SWAP1 PUSH1 0x2 MUL ADD PUSH1 0x0 SWAP1 SWAP2 SWAP1 SWAP2 SWAP1 SWAP2 POP PUSH1 0x0 DUP3 ADD MLOAD DUP2 PUSH1 0x0 ADD SWAP1 DUP2 PUSH2 0x1AF SWAP2 SWAP1 PUSH2 0xBE0 JUMP JUMPDEST POP PUSH1 0x20 DUP3 ADD MLOAD DUP2 PUSH1 0x1 ADD PUSH1 0x0 PUSH2 0x100 EXP DUP2 SLOAD DUP2 PUSH20 0xFFFFFFFFFFFFFFFFFFFFFFFFFFFFFFFFFFFFFFFF MUL NOT AND SWAP1 DUP4 PUSH20 0xFFFFFFFFFFFFFFFFFFFFFFFFFFFFFFFFFFFFFFFF AND MUL OR SWAP1 SSTORE POP PUSH1 0x40 DUP3 ADD MLOAD DUP2 PUSH1 0x1 ADD PUSH1 0x14 PUSH2 0x100 EXP DUP2 SLOAD DUP2 PUSH1 0xFF MUL NOT AND SWAP1 DUP4 ISZERO ISZERO MUL OR SWAP1 SSTORE POP POP POP POP POP JUMP JUMPDEST PUSH2 0x225 PUSH2 0x63D JUMP JUMPDEST DUP3 DUP2 PUSH1 0x0 ADD DUP2 SWAP1 MSTORE POP DUP2 DUP2 PUSH1 0x20 ADD SWAP1 PUSH20 0xFFFFFFFFFFFFFFFFFFFFFFFFFFFFFFFFFFFFFFFF AND SWAP1 DUP2 PUSH20 0xFFFFFFFFFFFFFFFFFFFFFFFFFFFFFFFFFFFFFFFF AND DUP2 MSTORE POP POP PUSH1 0x0 DUP2 SWAP1 DUP1 PUSH1 0x1 DUP2 SLOAD ADD DUP1 DUP3 SSTORE DUP1 SWAP2 POP POP PUSH1 0x1 SWAP1 SUB SWAP1 PUSH1 0x0 MSTORE PUSH1 0x20 PUSH1 0x0 KECCAK256 SWAP1 PUSH1 0x2 MUL ADD PUSH1 0x0 SWAP1 SWAP2 SWAP1 SWAP2 SWAP1 SWAP2 POP PUSH1 0x0 DUP3 ADD MLOAD DUP2 PUSH1 0x0 ADD SWAP1 DUP2 PUSH2 0x2A7 SWAP2 SWAP1 PUSH2 0xBE0 JUMP JUMPDEST POP PUSH1 0x20 DUP3 ADD MLOAD DUP2 PUSH1 0x1 ADD PUSH1 0x0 PUSH2 0x100 EXP DUP2 SLOAD DUP2 PUSH20 0xFFFFFFFFFFFFFFFFFFFFFFFFFFFFFFFFFFFFFFFF MUL NOT AND SWAP1 DUP4 PUSH20 0xFFFFFFFFFFFFFFFFFFFFFFFFFFFFFFFFFFFFFFFF AND MUL OR SWAP1 SSTORE POP PUSH1 0x40 DUP3 ADD MLOAD DUP2 PUSH1 0x1 ADD PUSH1 0x14 PUSH2 0x100 EXP DUP2 SLOAD DUP2 PUSH1 0xFF MUL NOT AND SWAP1 DUP4 ISZERO ISZERO MUL OR SWAP1 SSTORE POP POP POP POP POP POP JUMP JUMPDEST PUSH1 0x0 DUP1 DUP3 DUP2 SLOAD DUP2 LT PUSH2 0x32B JUMPI PUSH2 0x32A PUSH2 0xCB2 JUMP JUMPDEST JUMPDEST SWAP1 PUSH1 0x0 MSTORE PUSH1 0x20 PUSH1 0x0 KECCAK256 SWAP1 PUSH1 0x2 MUL ADD SWAP1 POP DUP1 PUSH1 0x1 ADD PUSH1 0x14 SWAP1 SLOAD SWAP1 PUSH2 0x100 EXP SWAP1 DIV PUSH1 0xFF AND ISZERO DUP2 PUSH1 0x1 ADD PUSH1 0x14 PUSH2 0x100 EXP DUP2 SLOAD DUP2 PUSH1 0xFF MUL NOT AND SWAP1 DUP4 ISZERO ISZERO MUL OR SWAP1 SSTORE POP POP POP JUMP JUMPDEST PUSH1 0x0 PUSH1 0x40 MLOAD DUP1 PUSH1 0x60 ADD PUSH1 0x40 MSTORE DUP1 DUP5 DUP2 MSTORE PUSH1 0x20 ADD DUP4 PUSH20 0xFFFFFFFFFFFFFFFFFFFFFFFFFFFFFFFFFFFFFFFF AND DUP2 MSTORE PUSH1 0x20 ADD PUSH1 0x0 ISZERO ISZERO DUP2 MSTORE POP SWAP1 DUP1 PUSH1 0x1 DUP2 SLOAD ADD DUP1 DUP3 SSTORE DUP1 SWAP2 POP POP PUSH1 0x1 SWAP1 SUB SWAP1 PUSH1 0x0 MSTORE PUSH1 0x20 PUSH1 0x0 KECCAK256 SWAP1 PUSH1 0x2 MUL ADD PUSH1 0x0 SWAP1 SWAP2 SWAP1 SWAP2 SWAP1 SWAP2 POP PUSH1 0x0 DUP3 ADD MLOAD DUP2 PUSH1 0x0 ADD SWAP1 DUP2 PUSH2 0x3E1 SWAP2 SWAP1 PUSH2 0xBE0 JUMP JUMPDEST POP PUSH1 0x20 DUP3 ADD MLOAD DUP2 PUSH1 0x1 ADD PUSH1 0x0 PUSH2 0x100 EXP DUP2 SLOAD DUP2 PUSH20 0xFFFFFFFFFFFFFFFFFFFFFFFFFFFFFFFFFFFFFFFF MUL NOT AND SWAP1 DUP4 PUSH20 0xFFFFFFFFFFFFFFFFFFFFFFFFFFFFFFFFFFFFFFFF AND MUL OR SWAP1 SSTORE POP PUSH1 0x40 DUP3 ADD MLOAD DUP2 PUSH1 0x1 ADD PUSH1 0x14 PUSH2 0x100 EXP DUP2 SLOAD DUP2 PUSH1 0xFF MUL NOT AND SWAP1 DUP4 ISZERO ISZERO MUL OR SWAP1 SSTORE POP POP POP POP POP JUMP JUMPDEST PUSH1 0x60 PUSH1 0x0 DUP1 PUSH1 0x0 DUP1 DUP6 DUP2 SLOAD DUP2 LT PUSH2 0x469 JUMPI PUSH2 0x468 PUSH2 0xCB2 JUMP JUMPDEST JUMPDEST SWAP1 PUSH1 0x0 MSTORE PUSH1 0x20 PUSH1 0x0 KECCAK256 SWAP1 PUSH1 0x2 MUL ADD SWAP1 POP DUP1 PUSH1 0x0 ADD DUP2 PUSH1 0x1 ADD PUSH1 0x0 SWAP1 SLOAD SWAP1 PUSH2 0x100 EXP SWAP1 DIV PUSH20 0xFFFFFFFFFFFFFFFFFFFFFFFFFFFFFFFFFFFFFFFF AND DUP3 PUSH1 0x1 ADD PUSH1 0x14 SWAP1 SLOAD SWAP1 PUSH2 0x100 EXP SWAP1 DIV PUSH1 0xFF AND DUP3 DUP1 SLOAD PUSH2 0x4C0 SWAP1 PUSH2 0xA03 JUMP JUMPDEST DUP1 PUSH1 0x1F ADD PUSH1 0x20 DUP1 SWAP2 DIV MUL PUSH1 0x20 ADD PUSH1 0x40 MLOAD SWAP1 DUP2 ADD PUSH1 0x40 MSTORE DUP1 SWAP3 SWAP2 SWAP1 DUP2 DUP2 MSTORE PUSH1 0x20 ADD DUP3 DUP1 SLOAD PUSH2 0x4EC SWAP1 PUSH2 0xA03 JUMP JUMPDEST DUP1 ISZERO PUSH2 0x539 JUMPI DUP1 PUSH1 0x1F LT PUSH2 0x50E JUMPI PUSH2 0x100 DUP1 DUP4 SLOAD DIV MUL DUP4 MSTORE SWAP2 PUSH1 0x20 ADD SWAP2 PUSH2 0x539 JUMP JUMPDEST DUP3 ADD SWAP2 SWAP1 PUSH1 0x0 MSTORE PUSH1 0x20 PUSH1 0x0 KECCAK256 SWAP1 JUMPDEST DUP2 SLOAD DUP2 MSTORE SWAP1 PUSH1 0x1 ADD SWAP1 PUSH1 0x20 ADD DUP1 DUP4 GT PUSH2 0x51C JUMPI DUP3 SWAP1 SUB PUSH1 0x1F AND DUP3 ADD SWAP2 JUMPDEST POP POP POP POP POP SWAP3 POP SWAP4 POP SWAP4 POP SWAP4 POP POP SWAP2 SWAP4 SWAP1 SWAP3 POP JUMP JUMPDEST PUSH1 0x0 DUP2 DUP2 SLOAD DUP2 LT PUSH2 0x55E JUMPI PUSH1 0x0 DUP1 REVERT JUMPDEST SWAP1 PUSH1 0x0 MSTORE PUSH1 0x20 PUSH1 0x0 KECCAK256 SWAP1 PUSH1 0x2 MUL ADD PUSH1 0x0 SWAP2 POP SWAP1 POP DUP1 PUSH1 0x0 ADD DUP1 SLOAD PUSH2 0x581 SWAP1 PUSH2 0xA03 JUMP JUMPDEST DUP1 PUSH1 0x1F ADD PUSH1 0x20 DUP1 SWAP2 DIV MUL PUSH1 0x20 ADD PUSH1 0x40 MLOAD SWAP1 DUP2 ADD PUSH1 0x40 MSTORE DUP1 SWAP3 SWAP2 SWAP1 DUP2 DUP2 MSTORE PUSH1 0x20 ADD DUP3 DUP1 SLOAD PUSH2 0x5AD SWAP1 PUSH2 0xA03 JUMP JUMPDEST DUP1 ISZERO PUSH2 0x5FA JUMPI DUP1 PUSH1 0x1F LT PUSH2 0x5CF JUMPI PUSH2 0x100 DUP1 DUP4 SLOAD DIV MUL DUP4 MSTORE SWAP2 PUSH1 0x20 ADD SWAP2 PUSH2 0x5FA JUMP JUMPDEST DUP3 ADD SWAP2 SWAP1 PUSH1 0x0 MSTORE PUSH1 0x20 PUSH1 0x0 KECCAK256 SWAP1 JUMPDEST DUP2 SLOAD DUP2 MSTORE SWAP1 PUSH1 0x1 ADD SWAP1 PUSH1 0x20 ADD DUP1 DUP4 GT PUSH2 0x5DD JUMPI DUP3 SWAP1 SUB PUSH1 0x1F AND DUP3 ADD SWAP2 JUMPDEST POP POP POP POP POP SWAP1 DUP1 PUSH1 0x1 ADD PUSH1 0x0 SWAP1 SLOAD SWAP1 PUSH2 0x100 EXP SWAP1 DIV PUSH20 0xFFFFFFFFFFFFFFFFFFFFFFFFFFFFFFFFFFFFFFFF AND SWAP1 DUP1 PUSH1 0x1 ADD PUSH1 0x14 SWAP1 SLOAD SWAP1 PUSH2 0x100 EXP SWAP1 DIV PUSH1 0xFF AND SWAP1 POP DUP4 JUMP JUMPDEST PUSH1 0x40 MLOAD DUP1 PUSH1 0x60 ADD PUSH1 0x40 MSTORE DUP1 PUSH1 0x60 DUP2 MSTORE PUSH1 0x20 ADD PUSH1 0x0 PUSH20 0xFFFFFFFFFFFFFFFFFFFFFFFFFFFFFFFFFFFFFFFF AND DUP2 MSTORE PUSH1 0x20 ADD PUSH1 0x0 ISZERO ISZERO DUP2 MSTORE POP SWAP1 JUMP JUMPDEST PUSH1 0x0 PUSH1 0x40 MLOAD SWAP1 POP SWAP1 JUMP JUMPDEST PUSH1 0x0 DUP1 REVERT JUMPDEST PUSH1 0x0 DUP1 REVERT JUMPDEST PUSH1 0x0 DUP1 REVERT JUMPDEST PUSH1 0x0 DUP1 REVERT JUMPDEST PUSH1 0x0 PUSH1 0x1F NOT PUSH1 0x1F DUP4 ADD AND SWAP1 POP SWAP2 SWAP1 POP JUMP JUMPDEST PUSH32 0x4E487B7100000000000000000000000000000000000000000000000000000000 PUSH1 0x0 MSTORE PUSH1 0x41 PUSH1 0x4 MSTORE PUSH1 0x24 PUSH1 0x0 REVERT JUMPDEST PUSH2 0x6DD DUP3 PUSH2 0x694 JUMP JUMPDEST DUP2 ADD DUP2 DUP2 LT PUSH8 0xFFFFFFFFFFFFFFFF DUP3 GT OR ISZERO PUSH2 0x6FC JUMPI PUSH2 0x6FB PUSH2 0x6A5 JUMP JUMPDEST JUMPDEST DUP1 PUSH1 0x40 MSTORE POP POP POP JUMP JUMPDEST PUSH1 0x0 PUSH2 0x70F PUSH2 0x676 JUMP JUMPDEST SWAP1 POP PUSH2 0x71B DUP3 DUP3 PUSH2 0x6D4 JUMP JUMPDEST SWAP2 SWAP1 POP JUMP JUMPDEST PUSH1 0x0 PUSH8 0xFFFFFFFFFFFFFFFF DUP3 GT ISZERO PUSH2 0x73B JUMPI PUSH2 0x73A PUSH2 0x6A5 JUMP JUMPDEST JUMPDEST PUSH2 0x744 DUP3 PUSH2 0x694 JUMP JUMPDEST SWAP1 POP PUSH1 0x20 DUP2 ADD SWAP1 POP SWAP2 SWAP1 POP JUMP JUMPDEST DUP3 DUP2 DUP4 CALLDATACOPY PUSH1 0x0 DUP4 DUP4 ADD MSTORE POP POP POP JUMP JUMPDEST PUSH1 0x0 PUSH2 0x773 PUSH2 0x76E DUP5 PUSH2 0x720 JUMP JUMPDEST PUSH2 0x705 JUMP JUMPDEST SWAP1 POP DUP3 DUP2 MSTORE PUSH1 0x20 DUP2 ADD DUP5 DUP5 DUP5 ADD GT ISZERO PUSH2 0x78F JUMPI PUSH2 0x78E PUSH2 0x68F JUMP JUMPDEST JUMPDEST PUSH2 0x79A DUP5 DUP3 DUP6 PUSH2 0x751 JUMP JUMPDEST POP SWAP4 SWAP3 POP POP POP JUMP JUMPDEST PUSH1 0x0 DUP3 PUSH1 0x1F DUP4 ADD SLT PUSH2 0x7B7 JUMPI PUSH2 0x7B6 PUSH2 0x68A JUMP JUMPDEST JUMPDEST DUP2 CALLDATALOAD PUSH2 0x7C7 DUP5 DUP3 PUSH1 0x20 DUP7 ADD PUSH2 0x760 JUMP JUMPDEST SWAP2 POP POP SWAP3 SWAP2 POP POP JUMP JUMPDEST PUSH1 0x0 PUSH20 0xFFFFFFFFFFFFFFFFFFFFFFFFFFFFFFFFFFFFFFFF DUP3 AND SWAP1 POP SWAP2 SWAP1 POP JUMP JUMPDEST PUSH1 0x0 PUSH2 0x7FB DUP3 PUSH2 0x7D0 JUMP JUMPDEST SWAP1 POP SWAP2 SWAP1 POP JUMP JUMPDEST PUSH2 0x80B DUP2 PUSH2 0x7F0 JUMP JUMPDEST DUP2 EQ PUSH2 0x816 JUMPI PUSH1 0x0 DUP1 REVERT JUMPDEST POP JUMP JUMPDEST PUSH1 0x0 DUP2 CALLDATALOAD SWAP1 POP PUSH2 0x828 DUP2 PUSH2 0x802 JUMP JUMPDEST SWAP3 SWAP2 POP POP JUMP JUMPDEST PUSH1 0x0 DUP1 PUSH1 0x40 DUP4 DUP6 SUB SLT ISZERO PUSH2 0x845 JUMPI PUSH2 0x844 PUSH2 0x680 JUMP JUMPDEST JUMPDEST PUSH1 0x0 DUP4 ADD CALLDATALOAD PUSH8 0xFFFFFFFFFFFFFFFF DUP2 GT ISZERO PUSH2 0x863 JUMPI PUSH2 0x862 PUSH2 0x685 JUMP JUMPDEST JUMPDEST PUSH2 0x86F DUP6 DUP3 DUP7 ADD PUSH2 0x7A2 JUMP JUMPDEST SWAP3 POP POP PUSH1 0x20 PUSH2 0x880 DUP6 DUP3 DUP7 ADD PUSH2 0x819 JUMP JUMPDEST SWAP2 POP POP SWAP3 POP SWAP3 SWAP1 POP JUMP JUMPDEST PUSH1 0x0 DUP2 SWAP1 POP SWAP2 SWAP1 POP JUMP JUMPDEST PUSH2 0x89D DUP2 PUSH2 0x88A JUMP JUMPDEST DUP2 EQ PUSH2 0x8A8 JUMPI PUSH1 0x0 DUP1 REVERT JUMPDEST POP JUMP JUMPDEST PUSH1 0x0 DUP2 CALLDATALOAD SWAP1 POP PUSH2 0x8BA DUP2 PUSH2 0x894 JUMP JUMPDEST SWAP3 SWAP2 POP POP JUMP JUMPDEST PUSH1 0x0 PUSH1 0x20 DUP3 DUP5 SUB SLT ISZERO PUSH2 0x8D6 JUMPI PUSH2 0x8D5 PUSH2 0x680 JUMP JUMPDEST JUMPDEST PUSH1 0x0 PUSH2 0x8E4 DUP5 DUP3 DUP6 ADD PUSH2 0x8AB JUMP JUMPDEST SWAP2 POP POP SWAP3 SWAP2 POP POP JUMP JUMPDEST PUSH1 0x0 DUP2 MLOAD SWAP1 POP SWAP2 SWAP1 POP JUMP JUMPDEST PUSH1 0x0 DUP3 DUP3 MSTORE PUSH1 0x20 DUP3 ADD SWAP1 POP SWAP3 SWAP2 POP POP JUMP JUMPDEST PUSH1 0x0 JUMPDEST DUP4 DUP2 LT ISZERO PUSH2 0x927 JUMPI DUP1 DUP3 ADD MLOAD DUP2 DUP5 ADD MSTORE PUSH1 0x20 DUP2 ADD SWAP1 POP PUSH2 0x90C JUMP JUMPDEST PUSH1 0x0 DUP5 DUP5 ADD MSTORE POP POP POP POP JUMP JUMPDEST PUSH1 0x0 PUSH2 0x93E DUP3 PUSH2 0x8ED JUMP JUMPDEST PUSH2 0x948 DUP2 DUP6 PUSH2 0x8F8 JUMP JUMPDEST SWAP4 POP PUSH2 0x958 DUP2 DUP6 PUSH1 0x20 DUP7 ADD PUSH2 0x909 JUMP JUMPDEST PUSH2 0x961 DUP2 PUSH2 0x694 JUMP JUMPDEST DUP5 ADD SWAP2 POP POP SWAP3 SWAP2 POP POP JUMP JUMPDEST PUSH2 0x975 DUP2 PUSH2 0x7F0 JUMP JUMPDEST DUP3 MSTORE POP POP JUMP JUMPDEST PUSH1 0x0 DUP2 ISZERO ISZERO SWAP1 POP SWAP2 SWAP1 POP JUMP JUMPDEST PUSH2 0x990 DUP2 PUSH2 0x97B JUMP JUMPDEST DUP3 MSTORE POP POP JUMP JUMPDEST PUSH1 0x0 PUSH1 0x60 DUP3 ADD SWAP1 POP DUP2 DUP2 SUB PUSH1 0x0 DUP4 ADD MSTORE PUSH2 0x9B0 DUP2 DUP7 PUSH2 0x933 JUMP JUMPDEST SWAP1 POP PUSH2 0x9BF PUSH1 0x20 DUP4 ADD DUP6 PUSH2 0x96C JUMP JUMPDEST PUSH2 0x9CC PUSH1 0x40 DUP4 ADD DUP5 PUSH2 0x987 JUMP JUMPDEST SWAP5 SWAP4 POP POP POP POP JUMP JUMPDEST PUSH32 0x4E487B7100000000000000000000000000000000000000000000000000000000 PUSH1 0x0 MSTORE PUSH1 0x22 PUSH1 0x4 MSTORE PUSH1 0x24 PUSH1 0x0 REVERT JUMPDEST PUSH1 0x0 PUSH1 0x2 DUP3 DIV SWAP1 POP PUSH1 0x1 DUP3 AND DUP1 PUSH2 0xA1B JUMPI PUSH1 0x7F DUP3 AND SWAP2 POP JUMPDEST PUSH1 0x20 DUP3 LT DUP2 SUB PUSH2 0xA2E JUMPI PUSH2 0xA2D PUSH2 0x9D4 JUMP JUMPDEST JUMPDEST POP SWAP2 SWAP1 POP JUMP JUMPDEST PUSH1 0x0 DUP2 SWAP1 POP DUP2 PUSH1 0x0 MSTORE PUSH1 0x20 PUSH1 0x0 KECCAK256 SWAP1 POP SWAP2 SWAP1 POP JUMP JUMPDEST PUSH1 0x0 PUSH1 0x20 PUSH1 0x1F DUP4 ADD DIV SWAP1 POP SWAP2 SWAP1 POP JUMP JUMPDEST PUSH1 0x0 DUP3 DUP3 SHL SWAP1 POP SWAP3 SWAP2 POP POP JUMP JUMPDEST PUSH1 0x0 PUSH1 0x8 DUP4 MUL PUSH2 0xA96 PUSH32 0xFFFFFFFFFFFFFFFFFFFFFFFFFFFFFFFFFFFFFFFFFFFFFFFFFFFFFFFFFFFFFFFF DUP3 PUSH2 0xA59 JUMP JUMPDEST PUSH2 0xAA0 DUP7 DUP4 PUSH2 0xA59 JUMP JUMPDEST SWAP6 POP DUP1 NOT DUP5 AND SWAP4 POP DUP1 DUP7 AND DUP5 OR SWAP3 POP POP POP SWAP4 SWAP3 POP POP POP JUMP JUMPDEST PUSH1 0x0 DUP2 SWAP1 POP SWAP2 SWAP1 POP JUMP JUMPDEST PUSH1 0x0 PUSH2 0xADD PUSH2 0xAD8 PUSH2 0xAD3 DUP5 PUSH2 0x88A JUMP JUMPDEST PUSH2 0xAB8 JUMP JUMPDEST PUSH2 0x88A JUMP JUMPDEST SWAP1 POP SWAP2 SWAP1 POP JUMP JUMPDEST PUSH1 0x0 DUP2 SWAP1 POP SWAP2 SWAP1 POP JUMP JUMPDEST PUSH2 0xAF7 DUP4 PUSH2 0xAC2 JUMP JUMPDEST PUSH2 0xB0B PUSH2 0xB03 DUP3 PUSH2 0xAE4 JUMP JUMPDEST DUP5 DUP5 SLOAD PUSH2 0xA66 JUMP JUMPDEST DUP3 SSTORE POP POP POP POP JUMP JUMPDEST PUSH1 0x0 SWAP1 JUMP JUMPDEST PUSH2 0xB20 PUSH2 0xB13 JUMP JUMPDEST PUSH2 0xB2B DUP2 DUP5 DUP5 PUSH2 0xAEE JUMP JUMPDEST POP POP POP JUMP JUMPDEST JUMPDEST DUP2 DUP2 LT ISZERO PUSH2 0xB4F JUMPI PUSH2 0xB44 PUSH1 0x0 DUP3 PUSH2 0xB18 JUMP JUMPDEST PUSH1 0x1 DUP2 ADD SWAP1 POP PUSH2 0xB31 JUMP JUMPDEST POP POP JUMP JUMPDEST PUSH1 0x1F DUP3 GT ISZERO PUSH2 0xB94 JUMPI PUSH2 0xB65 DUP2 PUSH2 0xA34 JUMP JUMPDEST PUSH2 0xB6E DUP5 PUSH2 0xA49 JUMP JUMPDEST DUP2 ADD PUSH1 0x20 DUP6 LT ISZERO PUSH2 0xB7D JUMPI DUP2 SWAP1 POP JUMPDEST PUSH2 0xB91 PUSH2 0xB89 DUP6 PUSH2 0xA49 JUMP JUMPDEST DUP4 ADD DUP3 PUSH2 0xB30 JUMP JUMPDEST POP POP JUMPDEST POP POP POP JUMP JUMPDEST PUSH1 0x0 DUP3 DUP3 SHR SWAP1 POP SWAP3 SWAP2 POP POP JUMP JUMPDEST PUSH1 0x0 PUSH2 0xBB7 PUSH1 0x0 NOT DUP5 PUSH1 0x8 MUL PUSH2 0xB99 JUMP JUMPDEST NOT DUP1 DUP4 AND SWAP2 POP POP SWAP3 SWAP2 POP POP JUMP JUMPDEST PUSH1 0x0 PUSH2 0xBD0 DUP4 DUP4 PUSH2 0xBA6 JUMP JUMPDEST SWAP2 POP DUP3 PUSH1 0x2 MUL DUP3 OR SWAP1 POP SWAP3 SWAP2 POP POP JUMP JUMPDEST PUSH2 0xBE9 DUP3 PUSH2 0x8ED JUMP JUMPDEST PUSH8 0xFFFFFFFFFFFFFFFF DUP2 GT ISZERO PUSH2 0xC02 JUMPI PUSH2 0xC01 PUSH2 0x6A5 JUMP JUMPDEST JUMPDEST PUSH2 0xC0C DUP3 SLOAD PUSH2 0xA03 JUMP JUMPDEST PUSH2 0xC17 DUP3 DUP3 DUP6 PUSH2 0xB53 JUMP JUMPDEST PUSH1 0x0 PUSH1 0x20 SWAP1 POP PUSH1 0x1F DUP4 GT PUSH1 0x1 DUP2 EQ PUSH2 0xC4A JUMPI PUSH1 0x0 DUP5 ISZERO PUSH2 0xC38 JUMPI DUP3 DUP8 ADD MLOAD SWAP1 POP JUMPDEST PUSH2 0xC42 DUP6 DUP3 PUSH2 0xBC4 JUMP JUMPDEST DUP7 SSTORE POP PUSH2 0xCAA JUMP JUMPDEST PUSH1 0x1F NOT DUP5 AND PUSH2 0xC58 DUP7 PUSH2 0xA34 JUMP JUMPDEST PUSH1 0x0 JUMPDEST DUP3 DUP2 LT ISZERO PUSH2 0xC80 JUMPI DUP5 DUP10 ADD MLOAD DUP3 SSTORE PUSH1 0x1 DUP3 ADD SWAP2 POP PUSH1 0x20 DUP6 ADD SWAP5 POP PUSH1 0x20 DUP2 ADD SWAP1 POP PUSH2 0xC5B JUMP JUMPDEST DUP7 DUP4 LT ISZERO PUSH2 0xC9D JUMPI DUP5 DUP10 ADD MLOAD PUSH2 0xC99 PUSH1 0x1F DUP10 AND DUP3 PUSH2 0xBA6 JUMP JUMPDEST DUP4 SSTORE POP JUMPDEST PUSH1 0x1 PUSH1 0x2 DUP9 MUL ADD DUP9 SSTORE POP POP POP JUMPDEST POP POP POP POP POP POP JUMP JUMPDEST PUSH32 0x4E487B7100000000000000000000000000000000000000000000000000000000 PUSH1 0x0 MSTORE PUSH1 0x32 PUSH1 0x4 MSTORE PUSH1 0x24 PUSH1 0x0 REVERT INVALID LOG2 PUSH5 0x6970667358 0x22 SLT KECCAK256 0x5C GT 0xC3 0x5F CALLDATALOAD 0xB3 MLOAD 0xD1 CALLDATASIZE NUMBER 0x26 0x4F 0xAB 0xD2 PUSH7 0x99C52ECBA5B8A3 GASLIMIT DUP13 LOG4 CREATE BASEFEE ISZERO EXTCODECOPY PUSH24 0x3F764736F6C634300081200330000000000000000000000 "
				},
				"gasEstimates": {
					"creation": {
						"codeDepositCost": "670200",
						"executionCost": "702",
						"totalCost": "670902"
					},
					"external": {
						"create1(string,address)": "infinite",
						"create2(string,address)": "infinite",
						"create3(string,address)": "infinite",
						"get(uint256)": "infinite",
						"togglehasVoted(uint256)": "29150",
						"voters(uint256)": "infinite"
					}
				},
				"methodIdentifiers": {
					"create1(string,address)": "5c86d8b9",
					"create2(string,address)": "3093117a",
					"create3(string,address)": "39fc78bd",
					"get(uint256)": "9507d39a",
					"togglehasVoted(uint256)": "4654194b",
					"voters(uint256)": "da58c7d9"
				}
			},
			"storageLayout": {
				"storage": [
					{
						"astId": 12,
						"contract": "contracts/01-8 structTask1.sol:VotingSystem",
						"label": "voters",
						"offset": 0,
						"slot": "0",
						"type": "t_array(t_struct(Voter)8_storage)dyn_storage"
					}
				],
				"types": {
					"t_address": {
						"encoding": "inplace",
						"label": "address",
						"numberOfBytes": "20"
					},
					"t_array(t_struct(Voter)8_storage)dyn_storage": {
						"base": "t_struct(Voter)8_storage",
						"encoding": "dynamic_array",
						"label": "struct Voter[]",
						"numberOfBytes": "32"
					},
					"t_bool": {
						"encoding": "inplace",
						"label": "bool",
						"numberOfBytes": "1"
					},
					"t_string_storage": {
						"encoding": "bytes",
						"label": "string",
						"numberOfBytes": "32"
					},
					"t_struct(Voter)8_storage": {
						"encoding": "inplace",
						"label": "struct Voter",
						"members": [
							{
								"astId": 3,
								"contract": "contracts/01-8 structTask1.sol:VotingSystem",
								"label": "Name",
								"offset": 0,
								"slot": "0",
								"type": "t_string_storage"
							},
							{
								"astId": 5,
								"contract": "contracts/01-8 structTask1.sol:VotingSystem",
								"label": "addr",
								"offset": 0,
								"slot": "1",
								"type": "t_address"
							},
							{
								"astId": 7,
								"contract": "contracts/01-8 structTask1.sol:VotingSystem",
								"label": "hasVoted",
								"offset": 20,
								"slot": "1",
								"type": "t_bool"
							}
						],
						"numberOfBytes": "64"
					}
				}
			},
			"userdoc": {
				"kind": "user",
				"methods": {},
				"version": 1
			}
		}
	}
}