{
	"contracts/31-7 arrayTask4.sol": {
		"DynamicArray": {
			"abi": [
				{
					"inputs": [
						{
							"internalType": "uint256",
							"name": "_i",
							"type": "uint256"
						}
					],
					"name": "DeleteItem",
					"outputs": [
						{
							"internalType": "int256",
							"name": "",
							"type": "int256"
						}
					],
					"stateMutability": "view",
					"type": "function"
				},
				{
					"inputs": [],
					"name": "PopItem",
					"outputs": [],
					"stateMutability": "nonpayable",
					"type": "function"
				},
				{
					"inputs": [
						{
							"internalType": "uint256",
							"name": "_i",
							"type": "uint256"
						}
					],
					"name": "RetrieveItem",
					"outputs": [
						{
							"internalType": "int256",
							"name": "",
							"type": "int256"
						}
					],
					"stateMutability": "view",
					"type": "function"
				},
				{
					"inputs": [
						{
							"internalType": "int256",
							"name": "_x",
							"type": "int256"
						}
					],
					"name": "add_Item",
					"outputs": [],
					"stateMutability": "nonpayable",
					"type": "function"
				},
				{
					"inputs": [
						{
							"internalType": "uint256",
							"name": "",
							"type": "uint256"
						}
					],
					"name": "arr",
					"outputs": [
						{
							"internalType": "int256",
							"name": "",
							"type": "int256"
						}
					],
					"stateMutability": "view",
					"type": "function"
				}
			],
			"devdoc": {
				"kind": "dev",
				"methods": {},
				"version": 1
			},
			"evm": {
				"assembly": "    /* \"contracts/31-7 arrayTask4.sol\":59:411  contract DynamicArray{... */\n  mstore(0x40, 0x80)\n  callvalue\n  dup1\n  iszero\n  tag_1\n  jumpi\n  0x00\n  dup1\n  revert\ntag_1:\n  pop\n  dataSize(sub_0)\n  dup1\n  dataOffset(sub_0)\n  0x00\n  codecopy\n  0x00\n  return\nstop\n\nsub_0: assembly {\n        /* \"contracts/31-7 arrayTask4.sol\":59:411  contract DynamicArray{... */\n      mstore(0x40, 0x80)\n      callvalue\n      dup1\n      iszero\n      tag_1\n      jumpi\n      0x00\n      dup1\n      revert\n    tag_1:\n      pop\n      jumpi(tag_2, lt(calldatasize, 0x04))\n      shr(0xe0, calldataload(0x00))\n      dup1\n      0x2c199064\n      eq\n      tag_3\n      jumpi\n      dup1\n      0x3845d626\n      eq\n      tag_4\n      jumpi\n      dup1\n      0x71e5ee5f\n      eq\n      tag_5\n      jumpi\n      dup1\n      0xa52f9241\n      eq\n      tag_6\n      jumpi\n      dup1\n      0xe163bed2\n      eq\n      tag_7\n      jumpi\n    tag_2:\n      0x00\n      dup1\n      revert\n        /* \"contracts/31-7 arrayTask4.sol\":270:353  function DeleteItem(uint _i)public view returns (int ){... */\n    tag_3:\n      tag_8\n      0x04\n      dup1\n      calldatasize\n      sub\n      dup2\n      add\n      swap1\n      tag_9\n      swap2\n      swap1\n      tag_10\n      jump\t// in\n    tag_9:\n      tag_11\n      jump\t// in\n    tag_8:\n      mload(0x40)\n      tag_12\n      swap2\n      swap1\n      tag_13\n      jump\t// in\n    tag_12:\n      mload(0x40)\n      dup1\n      swap2\n      sub\n      swap1\n      return\n        /* \"contracts/31-7 arrayTask4.sol\":110:173  function add_Item(int _x)public {... */\n    tag_4:\n      tag_14\n      0x04\n      dup1\n      calldatasize\n      sub\n      dup2\n      add\n      swap1\n      tag_15\n      swap2\n      swap1\n      tag_16\n      jump\t// in\n    tag_15:\n      tag_17\n      jump\t// in\n    tag_14:\n      stop\n        /* \"contracts/31-7 arrayTask4.sol\":87:103  int[] public arr */\n    tag_5:\n      tag_18\n      0x04\n      dup1\n      calldatasize\n      sub\n      dup2\n      add\n      swap1\n      tag_19\n      swap2\n      swap1\n      tag_10\n      jump\t// in\n    tag_19:\n      tag_20\n      jump\t// in\n    tag_18:\n      mload(0x40)\n      tag_21\n      swap2\n      swap1\n      tag_13\n      jump\t// in\n    tag_21:\n      mload(0x40)\n      dup1\n      swap2\n      sub\n      swap1\n      return\n        /* \"contracts/31-7 arrayTask4.sol\":359:408  function PopItem()public {... */\n    tag_6:\n      tag_22\n      tag_23\n      jump\t// in\n    tag_22:\n      stop\n        /* \"contracts/31-7 arrayTask4.sol\":179:264  function RetrieveItem(uint _i)public view returns (int ){... */\n    tag_7:\n      tag_24\n      0x04\n      dup1\n      calldatasize\n      sub\n      dup2\n      add\n      swap1\n      tag_25\n      swap2\n      swap1\n      tag_10\n      jump\t// in\n    tag_25:\n      tag_26\n      jump\t// in\n    tag_24:\n      mload(0x40)\n      tag_27\n      swap2\n      swap1\n      tag_13\n      jump\t// in\n    tag_27:\n      mload(0x40)\n      dup1\n      swap2\n      sub\n      swap1\n      return\n        /* \"contracts/31-7 arrayTask4.sol\":270:353  function DeleteItem(uint _i)public view returns (int ){... */\n    tag_11:\n        /* \"contracts/31-7 arrayTask4.sol\":319:322  int */\n      0x00\n        /* \"contracts/31-7 arrayTask4.sol\":338:341  arr */\n      dup1\n        /* \"contracts/31-7 arrayTask4.sol\":342:344  _i */\n      dup3\n        /* \"contracts/31-7 arrayTask4.sol\":338:345  arr[_i] */\n      dup2\n      sload\n      dup2\n      lt\n      tag_29\n      jumpi\n      tag_30\n      tag_31\n      jump\t// in\n    tag_30:\n    tag_29:\n      swap1\n      0x00\n      mstore\n      keccak256(0x00, 0x20)\n      add\n      sload\n        /* \"contracts/31-7 arrayTask4.sol\":331:345  return arr[_i] */\n      swap1\n      pop\n        /* \"contracts/31-7 arrayTask4.sol\":270:353  function DeleteItem(uint _i)public view returns (int ){... */\n      swap2\n      swap1\n      pop\n      jump\t// out\n        /* \"contracts/31-7 arrayTask4.sol\":110:173  function add_Item(int _x)public {... */\n    tag_17:\n        /* \"contracts/31-7 arrayTask4.sol\":153:156  arr */\n      0x00\n        /* \"contracts/31-7 arrayTask4.sol\":162:164  _x */\n      dup2\n        /* \"contracts/31-7 arrayTask4.sol\":153:165  arr.push(_x) */\n      swap1\n      dup1\n      0x01\n      dup2\n      sload\n      add\n      dup1\n      dup3\n      sstore\n      dup1\n      swap2\n      pop\n      pop\n      0x01\n      swap1\n      sub\n      swap1\n      0x00\n      mstore\n      keccak256(0x00, 0x20)\n      add\n      0x00\n      swap1\n      swap2\n      swap1\n      swap2\n      swap1\n      swap2\n      pop\n      sstore\n        /* \"contracts/31-7 arrayTask4.sol\":110:173  function add_Item(int _x)public {... */\n      pop\n      jump\t// out\n        /* \"contracts/31-7 arrayTask4.sol\":87:103  int[] public arr */\n    tag_20:\n      0x00\n      dup2\n      dup2\n      sload\n      dup2\n      lt\n      tag_35\n      jumpi\n      0x00\n      dup1\n      revert\n    tag_35:\n      swap1\n      0x00\n      mstore\n      keccak256(0x00, 0x20)\n      add\n      0x00\n      swap2\n      pop\n      swap1\n      pop\n      sload\n      dup2\n      jump\t// out\n        /* \"contracts/31-7 arrayTask4.sol\":359:408  function PopItem()public {... */\n    tag_23:\n        /* \"contracts/31-7 arrayTask4.sol\":391:394  arr */\n      0x00\n        /* \"contracts/31-7 arrayTask4.sol\":391:400  arr.pop() */\n      dup1\n      sload\n      dup1\n      tag_38\n      jumpi\n      tag_39\n      tag_40\n      jump\t// in\n    tag_39:\n    tag_38:\n      0x01\n      swap1\n      sub\n      dup2\n      dup2\n      swap1\n      0x00\n      mstore\n      keccak256(0x00, 0x20)\n      add\n      0x00\n      swap1\n      sstore\n      swap1\n      sstore\n        /* \"contracts/31-7 arrayTask4.sol\":359:408  function PopItem()public {... */\n      jump\t// out\n        /* \"contracts/31-7 arrayTask4.sol\":179:264  function RetrieveItem(uint _i)public view returns (int ){... */\n    tag_26:\n        /* \"contracts/31-7 arrayTask4.sol\":230:233  int */\n      0x00\n        /* \"contracts/31-7 arrayTask4.sol\":249:252  arr */\n      dup1\n        /* \"contracts/31-7 arrayTask4.sol\":253:255  _i */\n      dup3\n        /* \"contracts/31-7 arrayTask4.sol\":249:256  arr[_i] */\n      dup2\n      sload\n      dup2\n      lt\n      tag_43\n      jumpi\n      tag_44\n      tag_31\n      jump\t// in\n    tag_44:\n    tag_43:\n      swap1\n      0x00\n      mstore\n      keccak256(0x00, 0x20)\n      add\n      sload\n        /* \"contracts/31-7 arrayTask4.sol\":242:256  return arr[_i] */\n      swap1\n      pop\n        /* \"contracts/31-7 arrayTask4.sol\":179:264  function RetrieveItem(uint _i)public view returns (int ){... */\n      swap2\n      swap1\n      pop\n      jump\t// out\n        /* \"#utility.yul\":88:205   */\n    tag_47:\n        /* \"#utility.yul\":197:198   */\n      0x00\n        /* \"#utility.yul\":194:195   */\n      dup1\n        /* \"#utility.yul\":187:199   */\n      revert\n        /* \"#utility.yul\":334:411   */\n    tag_49:\n        /* \"#utility.yul\":371:378   */\n      0x00\n        /* \"#utility.yul\":400:405   */\n      dup2\n        /* \"#utility.yul\":389:405   */\n      swap1\n      pop\n        /* \"#utility.yul\":334:411   */\n      swap2\n      swap1\n      pop\n      jump\t// out\n        /* \"#utility.yul\":417:539   */\n    tag_50:\n        /* \"#utility.yul\":490:514   */\n      tag_62\n        /* \"#utility.yul\":508:513   */\n      dup2\n        /* \"#utility.yul\":490:514   */\n      tag_49\n      jump\t// in\n    tag_62:\n        /* \"#utility.yul\":483:488   */\n      dup2\n        /* \"#utility.yul\":480:515   */\n      eq\n        /* \"#utility.yul\":470:533   */\n      tag_63\n      jumpi\n        /* \"#utility.yul\":529:530   */\n      0x00\n        /* \"#utility.yul\":526:527   */\n      dup1\n        /* \"#utility.yul\":519:531   */\n      revert\n        /* \"#utility.yul\":470:533   */\n    tag_63:\n        /* \"#utility.yul\":417:539   */\n      pop\n      jump\t// out\n        /* \"#utility.yul\":545:684   */\n    tag_51:\n        /* \"#utility.yul\":591:596   */\n      0x00\n        /* \"#utility.yul\":629:635   */\n      dup2\n        /* \"#utility.yul\":616:636   */\n      calldataload\n        /* \"#utility.yul\":607:636   */\n      swap1\n      pop\n        /* \"#utility.yul\":645:678   */\n      tag_65\n        /* \"#utility.yul\":672:677   */\n      dup2\n        /* \"#utility.yul\":645:678   */\n      tag_50\n      jump\t// in\n    tag_65:\n        /* \"#utility.yul\":545:684   */\n      swap3\n      swap2\n      pop\n      pop\n      jump\t// out\n        /* \"#utility.yul\":690:1019   */\n    tag_10:\n        /* \"#utility.yul\":749:755   */\n      0x00\n        /* \"#utility.yul\":798:800   */\n      0x20\n        /* \"#utility.yul\":786:795   */\n      dup3\n        /* \"#utility.yul\":777:784   */\n      dup5\n        /* \"#utility.yul\":773:796   */\n      sub\n        /* \"#utility.yul\":769:801   */\n      slt\n        /* \"#utility.yul\":766:885   */\n      iszero\n      tag_67\n      jumpi\n        /* \"#utility.yul\":804:883   */\n      tag_68\n      tag_47\n      jump\t// in\n    tag_68:\n        /* \"#utility.yul\":766:885   */\n    tag_67:\n        /* \"#utility.yul\":924:925   */\n      0x00\n        /* \"#utility.yul\":949:1002   */\n      tag_69\n        /* \"#utility.yul\":994:1001   */\n      dup5\n        /* \"#utility.yul\":985:991   */\n      dup3\n        /* \"#utility.yul\":974:983   */\n      dup6\n        /* \"#utility.yul\":970:992   */\n      add\n        /* \"#utility.yul\":949:1002   */\n      tag_51\n      jump\t// in\n    tag_69:\n        /* \"#utility.yul\":939:1002   */\n      swap2\n      pop\n        /* \"#utility.yul\":895:1012   */\n      pop\n        /* \"#utility.yul\":690:1019   */\n      swap3\n      swap2\n      pop\n      pop\n      jump\t// out\n        /* \"#utility.yul\":1025:1101   */\n    tag_52:\n        /* \"#utility.yul\":1061:1068   */\n      0x00\n        /* \"#utility.yul\":1090:1095   */\n      dup2\n        /* \"#utility.yul\":1079:1095   */\n      swap1\n      pop\n        /* \"#utility.yul\":1025:1101   */\n      swap2\n      swap1\n      pop\n      jump\t// out\n        /* \"#utility.yul\":1107:1222   */\n    tag_53:\n        /* \"#utility.yul\":1192:1215   */\n      tag_72\n        /* \"#utility.yul\":1209:1214   */\n      dup2\n        /* \"#utility.yul\":1192:1215   */\n      tag_52\n      jump\t// in\n    tag_72:\n        /* \"#utility.yul\":1187:1190   */\n      dup3\n        /* \"#utility.yul\":1180:1216   */\n      mstore\n        /* \"#utility.yul\":1107:1222   */\n      pop\n      pop\n      jump\t// out\n        /* \"#utility.yul\":1228:1446   */\n    tag_13:\n        /* \"#utility.yul\":1319:1323   */\n      0x00\n        /* \"#utility.yul\":1357:1359   */\n      0x20\n        /* \"#utility.yul\":1346:1355   */\n      dup3\n        /* \"#utility.yul\":1342:1360   */\n      add\n        /* \"#utility.yul\":1334:1360   */\n      swap1\n      pop\n        /* \"#utility.yul\":1370:1439   */\n      tag_74\n        /* \"#utility.yul\":1436:1437   */\n      0x00\n        /* \"#utility.yul\":1425:1434   */\n      dup4\n        /* \"#utility.yul\":1421:1438   */\n      add\n        /* \"#utility.yul\":1412:1418   */\n      dup5\n        /* \"#utility.yul\":1370:1439   */\n      tag_53\n      jump\t// in\n    tag_74:\n        /* \"#utility.yul\":1228:1446   */\n      swap3\n      swap2\n      pop\n      pop\n      jump\t// out\n        /* \"#utility.yul\":1452:1572   */\n    tag_54:\n        /* \"#utility.yul\":1524:1547   */\n      tag_76\n        /* \"#utility.yul\":1541:1546   */\n      dup2\n        /* \"#utility.yul\":1524:1547   */\n      tag_52\n      jump\t// in\n    tag_76:\n        /* \"#utility.yul\":1517:1522   */\n      dup2\n        /* \"#utility.yul\":1514:1548   */\n      eq\n        /* \"#utility.yul\":1504:1566   */\n      tag_77\n      jumpi\n        /* \"#utility.yul\":1562:1563   */\n      0x00\n        /* \"#utility.yul\":1559:1560   */\n      dup1\n        /* \"#utility.yul\":1552:1564   */\n      revert\n        /* \"#utility.yul\":1504:1566   */\n    tag_77:\n        /* \"#utility.yul\":1452:1572   */\n      pop\n      jump\t// out\n        /* \"#utility.yul\":1578:1715   */\n    tag_55:\n        /* \"#utility.yul\":1623:1628   */\n      0x00\n        /* \"#utility.yul\":1661:1667   */\n      dup2\n        /* \"#utility.yul\":1648:1668   */\n      calldataload\n        /* \"#utility.yul\":1639:1668   */\n      swap1\n      pop\n        /* \"#utility.yul\":1677:1709   */\n      tag_79\n        /* \"#utility.yul\":1703:1708   */\n      dup2\n        /* \"#utility.yul\":1677:1709   */\n      tag_54\n      jump\t// in\n    tag_79:\n        /* \"#utility.yul\":1578:1715   */\n      swap3\n      swap2\n      pop\n      pop\n      jump\t// out\n        /* \"#utility.yul\":1721:2048   */\n    tag_16:\n        /* \"#utility.yul\":1779:1785   */\n      0x00\n        /* \"#utility.yul\":1828:1830   */\n      0x20\n        /* \"#utility.yul\":1816:1825   */\n      dup3\n        /* \"#utility.yul\":1807:1814   */\n      dup5\n        /* \"#utility.yul\":1803:1826   */\n      sub\n        /* \"#utility.yul\":1799:1831   */\n      slt\n        /* \"#utility.yul\":1796:1915   */\n      iszero\n      tag_81\n      jumpi\n        /* \"#utility.yul\":1834:1913   */\n      tag_82\n      tag_47\n      jump\t// in\n    tag_82:\n        /* \"#utility.yul\":1796:1915   */\n    tag_81:\n        /* \"#utility.yul\":1954:1955   */\n      0x00\n        /* \"#utility.yul\":1979:2031   */\n      tag_83\n        /* \"#utility.yul\":2023:2030   */\n      dup5\n        /* \"#utility.yul\":2014:2020   */\n      dup3\n        /* \"#utility.yul\":2003:2012   */\n      dup6\n        /* \"#utility.yul\":1999:2021   */\n      add\n        /* \"#utility.yul\":1979:2031   */\n      tag_55\n      jump\t// in\n    tag_83:\n        /* \"#utility.yul\":1969:2031   */\n      swap2\n      pop\n        /* \"#utility.yul\":1925:2041   */\n      pop\n        /* \"#utility.yul\":1721:2048   */\n      swap3\n      swap2\n      pop\n      pop\n      jump\t// out\n        /* \"#utility.yul\":2054:2234   */\n    tag_31:\n        /* \"#utility.yul\":2102:2179   */\n      0x4e487b7100000000000000000000000000000000000000000000000000000000\n        /* \"#utility.yul\":2099:2100   */\n      0x00\n        /* \"#utility.yul\":2092:2180   */\n      mstore\n        /* \"#utility.yul\":2199:2203   */\n      0x32\n        /* \"#utility.yul\":2196:2197   */\n      0x04\n        /* \"#utility.yul\":2189:2204   */\n      mstore\n        /* \"#utility.yul\":2223:2227   */\n      0x24\n        /* \"#utility.yul\":2220:2221   */\n      0x00\n        /* \"#utility.yul\":2213:2228   */\n      revert\n        /* \"#utility.yul\":2240:2420   */\n    tag_40:\n        /* \"#utility.yul\":2288:2365   */\n      0x4e487b7100000000000000000000000000000000000000000000000000000000\n        /* \"#utility.yul\":2285:2286   */\n      0x00\n        /* \"#utility.yul\":2278:2366   */\n      mstore\n        /* \"#utility.yul\":2385:2389   */\n      0x31\n        /* \"#utility.yul\":2382:2383   */\n      0x04\n        /* \"#utility.yul\":2375:2390   */\n      mstore\n        /* \"#utility.yul\":2409:2413   */\n      0x24\n        /* \"#utility.yul\":2406:2407   */\n      0x00\n        /* \"#utility.yul\":2399:2414   */\n      revert\n\n    auxdata: 0xa2646970667358221220c3f8d4785e58100213f110fabff4c8029bc1c7db95e3a543dbcd3c43884be6e364736f6c63430008120033\n}\n",
				"bytecode": {
					"linkReferences": {},
					"object": "608060405234801561001057600080fd5b50610363806100206000396000f3fe608060405234801561001057600080fd5b50600436106100575760003560e01c80632c1990641461005c5780633845d6261461008c57806371e5ee5f146100a8578063a52f9241146100d8578063e163bed2146100e2575b600080fd5b61007660048036038101906100719190610215565b610112565b604051610083919061025b565b60405180910390f35b6100a660048036038101906100a191906102a2565b610139565b005b6100c260048036038101906100bd9190610215565b610165565b6040516100cf919061025b565b60405180910390f35b6100e0610189565b005b6100fc60048036038101906100f79190610215565b6101b3565b604051610109919061025b565b60405180910390f35b6000808281548110610127576101266102cf565b5b90600052602060002001549050919050565b600081908060018154018082558091505060019003906000526020600020016000909190919091505550565b6000818154811061017557600080fd5b906000526020600020016000915090505481565b600080548061019b5761019a6102fe565b5b60019003818190600052602060002001600090559055565b60008082815481106101c8576101c76102cf565b5b90600052602060002001549050919050565b600080fd5b6000819050919050565b6101f2816101df565b81146101fd57600080fd5b50565b60008135905061020f816101e9565b92915050565b60006020828403121561022b5761022a6101da565b5b600061023984828501610200565b91505092915050565b6000819050919050565b61025581610242565b82525050565b6000602082019050610270600083018461024c565b92915050565b61027f81610242565b811461028a57600080fd5b50565b60008135905061029c81610276565b92915050565b6000602082840312156102b8576102b76101da565b5b60006102c68482850161028d565b91505092915050565b7f4e487b7100000000000000000000000000000000000000000000000000000000600052603260045260246000fd5b7f4e487b7100000000000000000000000000000000000000000000000000000000600052603160045260246000fdfea2646970667358221220c3f8d4785e58100213f110fabff4c8029bc1c7db95e3a543dbcd3c43884be6e364736f6c63430008120033",
					"opcodes": "PUSH1 0x80 PUSH1 0x40 MSTORE CALLVALUE DUP1 ISZERO PUSH2 0x10 JUMPI PUSH1 0x0 DUP1 REVERT JUMPDEST POP PUSH2 0x363 DUP1 PUSH2 0x20 PUSH1 0x0 CODECOPY PUSH1 0x0 RETURN INVALID PUSH1 0x80 PUSH1 0x40 MSTORE CALLVALUE DUP1 ISZERO PUSH2 0x10 JUMPI PUSH1 0x0 DUP1 REVERT JUMPDEST POP PUSH1 0x4 CALLDATASIZE LT PUSH2 0x57 JUMPI PUSH1 0x0 CALLDATALOAD PUSH1 0xE0 SHR DUP1 PUSH4 0x2C199064 EQ PUSH2 0x5C JUMPI DUP1 PUSH4 0x3845D626 EQ PUSH2 0x8C JUMPI DUP1 PUSH4 0x71E5EE5F EQ PUSH2 0xA8 JUMPI DUP1 PUSH4 0xA52F9241 EQ PUSH2 0xD8 JUMPI DUP1 PUSH4 0xE163BED2 EQ PUSH2 0xE2 JUMPI JUMPDEST PUSH1 0x0 DUP1 REVERT JUMPDEST PUSH2 0x76 PUSH1 0x4 DUP1 CALLDATASIZE SUB DUP2 ADD SWAP1 PUSH2 0x71 SWAP2 SWAP1 PUSH2 0x215 JUMP JUMPDEST PUSH2 0x112 JUMP JUMPDEST PUSH1 0x40 MLOAD PUSH2 0x83 SWAP2 SWAP1 PUSH2 0x25B JUMP JUMPDEST PUSH1 0x40 MLOAD DUP1 SWAP2 SUB SWAP1 RETURN JUMPDEST PUSH2 0xA6 PUSH1 0x4 DUP1 CALLDATASIZE SUB DUP2 ADD SWAP1 PUSH2 0xA1 SWAP2 SWAP1 PUSH2 0x2A2 JUMP JUMPDEST PUSH2 0x139 JUMP JUMPDEST STOP JUMPDEST PUSH2 0xC2 PUSH1 0x4 DUP1 CALLDATASIZE SUB DUP2 ADD SWAP1 PUSH2 0xBD SWAP2 SWAP1 PUSH2 0x215 JUMP JUMPDEST PUSH2 0x165 JUMP JUMPDEST PUSH1 0x40 MLOAD PUSH2 0xCF SWAP2 SWAP1 PUSH2 0x25B JUMP JUMPDEST PUSH1 0x40 MLOAD DUP1 SWAP2 SUB SWAP1 RETURN JUMPDEST PUSH2 0xE0 PUSH2 0x189 JUMP JUMPDEST STOP JUMPDEST PUSH2 0xFC PUSH1 0x4 DUP1 CALLDATASIZE SUB DUP2 ADD SWAP1 PUSH2 0xF7 SWAP2 SWAP1 PUSH2 0x215 JUMP JUMPDEST PUSH2 0x1B3 JUMP JUMPDEST PUSH1 0x40 MLOAD PUSH2 0x109 SWAP2 SWAP1 PUSH2 0x25B JUMP JUMPDEST PUSH1 0x40 MLOAD DUP1 SWAP2 SUB SWAP1 RETURN JUMPDEST PUSH1 0x0 DUP1 DUP3 DUP2 SLOAD DUP2 LT PUSH2 0x127 JUMPI PUSH2 0x126 PUSH2 0x2CF JUMP JUMPDEST JUMPDEST SWAP1 PUSH1 0x0 MSTORE PUSH1 0x20 PUSH1 0x0 KECCAK256 ADD SLOAD SWAP1 POP SWAP2 SWAP1 POP JUMP JUMPDEST PUSH1 0x0 DUP2 SWAP1 DUP1 PUSH1 0x1 DUP2 SLOAD ADD DUP1 DUP3 SSTORE DUP1 SWAP2 POP POP PUSH1 0x1 SWAP1 SUB SWAP1 PUSH1 0x0 MSTORE PUSH1 0x20 PUSH1 0x0 KECCAK256 ADD PUSH1 0x0 SWAP1 SWAP2 SWAP1 SWAP2 SWAP1 SWAP2 POP SSTORE POP JUMP JUMPDEST PUSH1 0x0 DUP2 DUP2 SLOAD DUP2 LT PUSH2 0x175 JUMPI PUSH1 0x0 DUP1 REVERT JUMPDEST SWAP1 PUSH1 0x0 MSTORE PUSH1 0x20 PUSH1 0x0 KECCAK256 ADD PUSH1 0x0 SWAP2 POP SWAP1 POP SLOAD DUP2 JUMP JUMPDEST PUSH1 0x0 DUP1 SLOAD DUP1 PUSH2 0x19B JUMPI PUSH2 0x19A PUSH2 0x2FE JUMP JUMPDEST JUMPDEST PUSH1 0x1 SWAP1 SUB DUP2 DUP2 SWAP1 PUSH1 0x0 MSTORE PUSH1 0x20 PUSH1 0x0 KECCAK256 ADD PUSH1 0x0 SWAP1 SSTORE SWAP1 SSTORE JUMP JUMPDEST PUSH1 0x0 DUP1 DUP3 DUP2 SLOAD DUP2 LT PUSH2 0x1C8 JUMPI PUSH2 0x1C7 PUSH2 0x2CF JUMP JUMPDEST JUMPDEST SWAP1 PUSH1 0x0 MSTORE PUSH1 0x20 PUSH1 0x0 KECCAK256 ADD SLOAD SWAP1 POP SWAP2 SWAP1 POP JUMP JUMPDEST PUSH1 0x0 DUP1 REVERT JUMPDEST PUSH1 0x0 DUP2 SWAP1 POP SWAP2 SWAP1 POP JUMP JUMPDEST PUSH2 0x1F2 DUP2 PUSH2 0x1DF JUMP JUMPDEST DUP2 EQ PUSH2 0x1FD JUMPI PUSH1 0x0 DUP1 REVERT JUMPDEST POP JUMP JUMPDEST PUSH1 0x0 DUP2 CALLDATALOAD SWAP1 POP PUSH2 0x20F DUP2 PUSH2 0x1E9 JUMP JUMPDEST SWAP3 SWAP2 POP POP JUMP JUMPDEST PUSH1 0x0 PUSH1 0x20 DUP3 DUP5 SUB SLT ISZERO PUSH2 0x22B JUMPI PUSH2 0x22A PUSH2 0x1DA JUMP JUMPDEST JUMPDEST PUSH1 0x0 PUSH2 0x239 DUP5 DUP3 DUP6 ADD PUSH2 0x200 JUMP JUMPDEST SWAP2 POP POP SWAP3 SWAP2 POP POP JUMP JUMPDEST PUSH1 0x0 DUP2 SWAP1 POP SWAP2 SWAP1 POP JUMP JUMPDEST PUSH2 0x255 DUP2 PUSH2 0x242 JUMP JUMPDEST DUP3 MSTORE POP POP JUMP JUMPDEST PUSH1 0x0 PUSH1 0x20 DUP3 ADD SWAP1 POP PUSH2 0x270 PUSH1 0x0 DUP4 ADD DUP5 PUSH2 0x24C JUMP JUMPDEST SWAP3 SWAP2 POP POP JUMP JUMPDEST PUSH2 0x27F DUP2 PUSH2 0x242 JUMP JUMPDEST DUP2 EQ PUSH2 0x28A JUMPI PUSH1 0x0 DUP1 REVERT JUMPDEST POP JUMP JUMPDEST PUSH1 0x0 DUP2 CALLDATALOAD SWAP1 POP PUSH2 0x29C DUP2 PUSH2 0x276 JUMP JUMPDEST SWAP3 SWAP2 POP POP JUMP JUMPDEST PUSH1 0x0 PUSH1 0x20 DUP3 DUP5 SUB SLT ISZERO PUSH2 0x2B8 JUMPI PUSH2 0x2B7 PUSH2 0x1DA JUMP JUMPDEST JUMPDEST PUSH1 0x0 PUSH2 0x2C6 DUP5 DUP3 DUP6 ADD PUSH2 0x28D JUMP JUMPDEST SWAP2 POP POP SWAP3 SWAP2 POP POP JUMP JUMPDEST PUSH32 0x4E487B7100000000000000000000000000000000000000000000000000000000 PUSH1 0x0 MSTORE PUSH1 0x32 PUSH1 0x4 MSTORE PUSH1 0x24 PUSH1 0x0 REVERT JUMPDEST PUSH32 0x4E487B7100000000000000000000000000000000000000000000000000000000 PUSH1 0x0 MSTORE PUSH1 0x31 PUSH1 0x4 MSTORE PUSH1 0x24 PUSH1 0x0 REVERT INVALID LOG2 PUSH5 0x6970667358 0x22 SLT KECCAK256 0xC3 0xF8 0xD4 PUSH25 0x5E58100213F110FABFF4C8029BC1C7DB95E3A543DBCD3C4388 0x4B 0xE6 0xE3 PUSH5 0x736F6C6343 STOP ADDMOD SLT STOP CALLER "
				},
				"gasEstimates": {
					"creation": {
						"codeDepositCost": "173400",
						"executionCost": "220",
						"totalCost": "173620"
					},
					"external": {
						"DeleteItem(uint256)": "4860",
						"PopItem()": "29489",
						"RetrieveItem(uint256)": "4948",
						"add_Item(int256)": "46829",
						"arr(uint256)": "4904"
					}
				},
				"methodIdentifiers": {
					"DeleteItem(uint256)": "2c199064",
					"PopItem()": "a52f9241",
					"RetrieveItem(uint256)": "e163bed2",
					"add_Item(int256)": "3845d626",
					"arr(uint256)": "71e5ee5f"
				}
			},
			"storageLayout": {
				"storage": [
					{
						"astId": 4,
						"contract": "contracts/31-7 arrayTask4.sol:DynamicArray",
						"label": "arr",
						"offset": 0,
						"slot": "0",
						"type": "t_array(t_int256)dyn_storage"
					}
				],
				"types": {
					"t_array(t_int256)dyn_storage": {
						"base": "t_int256",
						"encoding": "dynamic_array",
						"label": "int256[]",
						"numberOfBytes": "32"
					},
					"t_int256": {
						"encoding": "inplace",
						"label": "int256",
						"numberOfBytes": "32"
					}
				}
			},
			"userdoc": {
				"kind": "user",
				"methods": {},
				"version": 1
			}
		}
	}
}