{
	"contracts/01-8 enumTask1  1.sol": {
		"PizzaDeli": {
			"abi": [
				{
					"inputs": [],
					"name": "P1",
					"outputs": [
						{
							"internalType": "enum PizzaDeli.PizzaOrder",
							"name": "",
							"type": "uint8"
						}
					],
					"stateMutability": "view",
					"type": "function"
				},
				{
					"inputs": [],
					"name": "P2",
					"outputs": [
						{
							"internalType": "enum PizzaDeli.PizzaOrder",
							"name": "",
							"type": "uint8"
						}
					],
					"stateMutability": "view",
					"type": "function"
				},
				{
					"inputs": [],
					"name": "P3",
					"outputs": [
						{
							"internalType": "enum PizzaDeli.PizzaOrder",
							"name": "",
							"type": "uint8"
						}
					],
					"stateMutability": "view",
					"type": "function"
				},
				{
					"inputs": [],
					"name": "getter",
					"outputs": [
						{
							"internalType": "enum PizzaDeli.PizzaOrder",
							"name": "",
							"type": "uint8"
						},
						{
							"internalType": "enum PizzaDeli.PizzaOrder",
							"name": "",
							"type": "uint8"
						},
						{
							"internalType": "enum PizzaDeli.PizzaOrder",
							"name": "",
							"type": "uint8"
						}
					],
					"stateMutability": "view",
					"type": "function"
				},
				{
					"inputs": [
						{
							"internalType": "enum PizzaDeli.PizzaOrder",
							"name": "_i",
							"type": "uint8"
						}
					],
					"name": "set_P1",
					"outputs": [],
					"stateMutability": "nonpayable",
					"type": "function"
				}
			],
			"devdoc": {
				"kind": "dev",
				"methods": {},
				"version": 1
			},
			"evm": {
				"assembly": "    /* \"contracts/01-8 enumTask1\\xc2\\xa0 1.sol\":59:417  contract PizzaDeli{... */\n  mstore(0x40, 0x80)\n    /* \"contracts/01-8 enumTask1\\xc2\\xa0 1.sol\":198:218  PizzaOrder.Preparing */\n  0x01\n    /* \"contracts/01-8 enumTask1\\xc2\\xa0 1.sol\":177:218  PizzaOrder public P2=PizzaOrder.Preparing */\n  0x00\n  exp(0x0100, 0x01)\n  dup2\n  sload\n  dup2\n  0xff\n  mul\n  not\n  and\n  swap1\n  dup4\n  0x03\n  dup2\n  gt\n  iszero\n  tag_1\n  jumpi\n  tag_2\n  tag_3\n  jump\t// in\ntag_2:\ntag_1:\n  mul\n  or\n  swap1\n  sstore\n  pop\n    /* \"contracts/01-8 enumTask1\\xc2\\xa0 1.sol\":253:254  3 */\n  0x03\n    /* \"contracts/01-8 enumTask1\\xc2\\xa0 1.sol\":242:255  PizzaOrder(3) */\n  dup1\n  dup2\n  gt\n  iszero\n  tag_4\n  jumpi\n  tag_5\n  tag_3\n  jump\t// in\ntag_5:\ntag_4:\n    /* \"contracts/01-8 enumTask1\\xc2\\xa0 1.sol\":221:255  PizzaOrder public P3=PizzaOrder(3) */\n  0x00\n  exp(0x0100, 0x02)\n  dup2\n  sload\n  dup2\n  0xff\n  mul\n  not\n  and\n  swap1\n  dup4\n  0x03\n  dup2\n  gt\n  iszero\n  tag_6\n  jumpi\n  tag_7\n  tag_3\n  jump\t// in\ntag_7:\ntag_6:\n  mul\n  or\n  swap1\n  sstore\n  pop\n    /* \"contracts/01-8 enumTask1\\xc2\\xa0 1.sol\":59:417  contract PizzaDeli{... */\n  callvalue\n  dup1\n  iszero\n  tag_8\n  jumpi\n  0x00\n  dup1\n  revert\ntag_8:\n  pop\n  jump(tag_9)\n    /* \"#utility.yul\":7:187   */\ntag_3:\n    /* \"#utility.yul\":55:132   */\n  0x4e487b7100000000000000000000000000000000000000000000000000000000\n    /* \"#utility.yul\":52:53   */\n  0x00\n    /* \"#utility.yul\":45:133   */\n  mstore\n    /* \"#utility.yul\":152:156   */\n  0x21\n    /* \"#utility.yul\":149:150   */\n  0x04\n    /* \"#utility.yul\":142:157   */\n  mstore\n    /* \"#utility.yul\":176:180   */\n  0x24\n    /* \"#utility.yul\":173:174   */\n  0x00\n    /* \"#utility.yul\":166:181   */\n  revert\n    /* \"contracts/01-8 enumTask1\\xc2\\xa0 1.sol\":59:417  contract PizzaDeli{... */\ntag_9:\n  dataSize(sub_0)\n  dup1\n  dataOffset(sub_0)\n  0x00\n  codecopy\n  0x00\n  return\nstop\n\nsub_0: assembly {\n        /* \"contracts/01-8 enumTask1\\xc2\\xa0 1.sol\":59:417  contract PizzaDeli{... */\n      mstore(0x40, 0x80)\n      callvalue\n      dup1\n      iszero\n      tag_1\n      jumpi\n      0x00\n      dup1\n      revert\n    tag_1:\n      pop\n      jumpi(tag_2, lt(calldatasize, 0x04))\n      shr(0xe0, calldataload(0x00))\n      dup1\n      0x1de21b76\n      eq\n      tag_3\n      jumpi\n      dup1\n      0x30332aea\n      eq\n      tag_4\n      jumpi\n      dup1\n      0x993a04b7\n      eq\n      tag_5\n      jumpi\n      dup1\n      0xa85e9c83\n      eq\n      tag_6\n      jumpi\n      dup1\n      0xb9b275c1\n      eq\n      tag_7\n      jumpi\n    tag_2:\n      0x00\n      dup1\n      revert\n        /* \"contracts/01-8 enumTask1\\xc2\\xa0 1.sol\":154:174  PizzaOrder public P1 */\n    tag_3:\n      tag_8\n      tag_9\n      jump\t// in\n    tag_8:\n      mload(0x40)\n      tag_10\n      swap2\n      swap1\n      tag_11\n      jump\t// in\n    tag_10:\n      mload(0x40)\n      dup1\n      swap2\n      sub\n      swap1\n      return\n        /* \"contracts/01-8 enumTask1\\xc2\\xa0 1.sol\":177:218  PizzaOrder public P2=PizzaOrder.Preparing */\n    tag_4:\n      tag_12\n      tag_13\n      jump\t// in\n    tag_12:\n      mload(0x40)\n      tag_14\n      swap2\n      swap1\n      tag_11\n      jump\t// in\n    tag_14:\n      mload(0x40)\n      dup1\n      swap2\n      sub\n      swap1\n      return\n        /* \"contracts/01-8 enumTask1\\xc2\\xa0 1.sol\":317:412  function getter() public view returns(PizzaOrder,PizzaOrder,PizzaOrder){... */\n    tag_5:\n      tag_15\n      tag_16\n      jump\t// in\n    tag_15:\n      mload(0x40)\n      tag_17\n      swap4\n      swap3\n      swap2\n      swap1\n      tag_18\n      jump\t// in\n    tag_17:\n      mload(0x40)\n      dup1\n      swap2\n      sub\n      swap1\n      return\n        /* \"contracts/01-8 enumTask1\\xc2\\xa0 1.sol\":221:255  PizzaOrder public P3=PizzaOrder(3) */\n    tag_6:\n      tag_19\n      tag_20\n      jump\t// in\n    tag_19:\n      mload(0x40)\n      tag_21\n      swap2\n      swap1\n      tag_11\n      jump\t// in\n    tag_21:\n      mload(0x40)\n      dup1\n      swap2\n      sub\n      swap1\n      return\n        /* \"contracts/01-8 enumTask1\\xc2\\xa0 1.sol\":260:312  function set_P1(PizzaOrder _i)public{... */\n    tag_7:\n      tag_22\n      0x04\n      dup1\n      calldatasize\n      sub\n      dup2\n      add\n      swap1\n      tag_23\n      swap2\n      swap1\n      tag_24\n      jump\t// in\n    tag_23:\n      tag_25\n      jump\t// in\n    tag_22:\n      stop\n        /* \"contracts/01-8 enumTask1\\xc2\\xa0 1.sol\":154:174  PizzaOrder public P1 */\n    tag_9:\n      0x00\n      dup1\n      sload\n      swap1\n      0x0100\n      exp\n      swap1\n      div\n      0xff\n      and\n      dup2\n      jump\t// out\n        /* \"contracts/01-8 enumTask1\\xc2\\xa0 1.sol\":177:218  PizzaOrder public P2=PizzaOrder.Preparing */\n    tag_13:\n      0x00\n      0x01\n      swap1\n      sload\n      swap1\n      0x0100\n      exp\n      swap1\n      div\n      0xff\n      and\n      dup2\n      jump\t// out\n        /* \"contracts/01-8 enumTask1\\xc2\\xa0 1.sol\":317:412  function getter() public view returns(PizzaOrder,PizzaOrder,PizzaOrder){... */\n    tag_16:\n        /* \"contracts/01-8 enumTask1\\xc2\\xa0 1.sol\":355:365  PizzaOrder */\n      0x00\n        /* \"contracts/01-8 enumTask1\\xc2\\xa0 1.sol\":366:376  PizzaOrder */\n      dup1\n        /* \"contracts/01-8 enumTask1\\xc2\\xa0 1.sol\":377:387  PizzaOrder */\n      0x00\n        /* \"contracts/01-8 enumTask1\\xc2\\xa0 1.sol\":399:401  P1 */\n      dup1\n      0x00\n      swap1\n      sload\n      swap1\n      0x0100\n      exp\n      swap1\n      div\n      0xff\n      and\n        /* \"contracts/01-8 enumTask1\\xc2\\xa0 1.sol\":402:404  P2 */\n      0x00\n      0x01\n      swap1\n      sload\n      swap1\n      0x0100\n      exp\n      swap1\n      div\n      0xff\n      and\n        /* \"contracts/01-8 enumTask1\\xc2\\xa0 1.sol\":405:407  P3 */\n      0x00\n      0x02\n      swap1\n      sload\n      swap1\n      0x0100\n      exp\n      swap1\n      div\n      0xff\n      and\n        /* \"contracts/01-8 enumTask1\\xc2\\xa0 1.sol\":391:408  return (P1,P2,P3) */\n      swap3\n      pop\n      swap3\n      pop\n      swap3\n      pop\n        /* \"contracts/01-8 enumTask1\\xc2\\xa0 1.sol\":317:412  function getter() public view returns(PizzaOrder,PizzaOrder,PizzaOrder){... */\n      swap1\n      swap2\n      swap3\n      jump\t// out\n        /* \"contracts/01-8 enumTask1\\xc2\\xa0 1.sol\":221:255  PizzaOrder public P3=PizzaOrder(3) */\n    tag_20:\n      0x00\n      0x02\n      swap1\n      sload\n      swap1\n      0x0100\n      exp\n      swap1\n      div\n      0xff\n      and\n      dup2\n      jump\t// out\n        /* \"contracts/01-8 enumTask1\\xc2\\xa0 1.sol\":260:312  function set_P1(PizzaOrder _i)public{... */\n    tag_25:\n        /* \"contracts/01-8 enumTask1\\xc2\\xa0 1.sol\":306:308  _i */\n      dup1\n        /* \"contracts/01-8 enumTask1\\xc2\\xa0 1.sol\":303:305  P1 */\n      0x00\n      dup1\n        /* \"contracts/01-8 enumTask1\\xc2\\xa0 1.sol\":303:308  P1=_i */\n      0x0100\n      exp\n      dup2\n      sload\n      dup2\n      0xff\n      mul\n      not\n      and\n      swap1\n      dup4\n      0x03\n      dup2\n      gt\n      iszero\n      tag_28\n      jumpi\n      tag_29\n      tag_30\n      jump\t// in\n    tag_29:\n    tag_28:\n      mul\n      or\n      swap1\n      sstore\n      pop\n        /* \"contracts/01-8 enumTask1\\xc2\\xa0 1.sol\":260:312  function set_P1(PizzaOrder _i)public{... */\n      pop\n      jump\t// out\n        /* \"#utility.yul\":7:187   */\n    tag_30:\n        /* \"#utility.yul\":55:132   */\n      0x4e487b7100000000000000000000000000000000000000000000000000000000\n        /* \"#utility.yul\":52:53   */\n      0x00\n        /* \"#utility.yul\":45:133   */\n      mstore\n        /* \"#utility.yul\":152:156   */\n      0x21\n        /* \"#utility.yul\":149:150   */\n      0x04\n        /* \"#utility.yul\":142:157   */\n      mstore\n        /* \"#utility.yul\":176:180   */\n      0x24\n        /* \"#utility.yul\":173:174   */\n      0x00\n        /* \"#utility.yul\":166:181   */\n      revert\n        /* \"#utility.yul\":193:310   */\n    tag_31:\n        /* \"#utility.yul\":278:279   */\n      0x04\n        /* \"#utility.yul\":271:276   */\n      dup2\n        /* \"#utility.yul\":268:280   */\n      lt\n        /* \"#utility.yul\":258:304   */\n      tag_43\n      jumpi\n        /* \"#utility.yul\":284:302   */\n      tag_44\n      tag_30\n      jump\t// in\n    tag_44:\n        /* \"#utility.yul\":258:304   */\n    tag_43:\n        /* \"#utility.yul\":193:310   */\n      pop\n      jump\t// out\n        /* \"#utility.yul\":316:451   */\n    tag_32:\n        /* \"#utility.yul\":365:372   */\n      0x00\n        /* \"#utility.yul\":394:399   */\n      dup2\n        /* \"#utility.yul\":383:399   */\n      swap1\n      pop\n        /* \"#utility.yul\":400:445   */\n      tag_46\n        /* \"#utility.yul\":439:444   */\n      dup3\n        /* \"#utility.yul\":400:445   */\n      tag_31\n      jump\t// in\n    tag_46:\n        /* \"#utility.yul\":316:451   */\n      swap2\n      swap1\n      pop\n      jump\t// out\n        /* \"#utility.yul\":457:592   */\n    tag_33:\n        /* \"#utility.yul\":517:526   */\n      0x00\n        /* \"#utility.yul\":550:586   */\n      tag_48\n        /* \"#utility.yul\":580:585   */\n      dup3\n        /* \"#utility.yul\":550:586   */\n      tag_32\n      jump\t// in\n    tag_48:\n        /* \"#utility.yul\":537:586   */\n      swap1\n      pop\n        /* \"#utility.yul\":457:592   */\n      swap2\n      swap1\n      pop\n      jump\t// out\n        /* \"#utility.yul\":598:749   */\n    tag_34:\n        /* \"#utility.yul\":695:742   */\n      tag_50\n        /* \"#utility.yul\":736:741   */\n      dup2\n        /* \"#utility.yul\":695:742   */\n      tag_33\n      jump\t// in\n    tag_50:\n        /* \"#utility.yul\":690:693   */\n      dup3\n        /* \"#utility.yul\":683:743   */\n      mstore\n        /* \"#utility.yul\":598:749   */\n      pop\n      pop\n      jump\t// out\n        /* \"#utility.yul\":755:997   */\n    tag_11:\n        /* \"#utility.yul\":858:862   */\n      0x00\n        /* \"#utility.yul\":896:898   */\n      0x20\n        /* \"#utility.yul\":885:894   */\n      dup3\n        /* \"#utility.yul\":881:899   */\n      add\n        /* \"#utility.yul\":873:899   */\n      swap1\n      pop\n        /* \"#utility.yul\":909:990   */\n      tag_52\n        /* \"#utility.yul\":987:988   */\n      0x00\n        /* \"#utility.yul\":976:985   */\n      dup4\n        /* \"#utility.yul\":972:989   */\n      add\n        /* \"#utility.yul\":963:969   */\n      dup5\n        /* \"#utility.yul\":909:990   */\n      tag_34\n      jump\t// in\n    tag_52:\n        /* \"#utility.yul\":755:997   */\n      swap3\n      swap2\n      pop\n      pop\n      jump\t// out\n        /* \"#utility.yul\":1003:1505   */\n    tag_18:\n        /* \"#utility.yul\":1182:1186   */\n      0x00\n        /* \"#utility.yul\":1220:1222   */\n      0x60\n        /* \"#utility.yul\":1209:1218   */\n      dup3\n        /* \"#utility.yul\":1205:1223   */\n      add\n        /* \"#utility.yul\":1197:1223   */\n      swap1\n      pop\n        /* \"#utility.yul\":1233:1314   */\n      tag_54\n        /* \"#utility.yul\":1311:1312   */\n      0x00\n        /* \"#utility.yul\":1300:1309   */\n      dup4\n        /* \"#utility.yul\":1296:1313   */\n      add\n        /* \"#utility.yul\":1287:1293   */\n      dup7\n        /* \"#utility.yul\":1233:1314   */\n      tag_34\n      jump\t// in\n    tag_54:\n        /* \"#utility.yul\":1324:1406   */\n      tag_55\n        /* \"#utility.yul\":1402:1404   */\n      0x20\n        /* \"#utility.yul\":1391:1400   */\n      dup4\n        /* \"#utility.yul\":1387:1405   */\n      add\n        /* \"#utility.yul\":1378:1384   */\n      dup6\n        /* \"#utility.yul\":1324:1406   */\n      tag_34\n      jump\t// in\n    tag_55:\n        /* \"#utility.yul\":1416:1498   */\n      tag_56\n        /* \"#utility.yul\":1494:1496   */\n      0x40\n        /* \"#utility.yul\":1483:1492   */\n      dup4\n        /* \"#utility.yul\":1479:1497   */\n      add\n        /* \"#utility.yul\":1470:1476   */\n      dup5\n        /* \"#utility.yul\":1416:1498   */\n      tag_34\n      jump\t// in\n    tag_56:\n        /* \"#utility.yul\":1003:1505   */\n      swap5\n      swap4\n      pop\n      pop\n      pop\n      pop\n      jump\t// out\n        /* \"#utility.yul\":1592:1709   */\n    tag_36:\n        /* \"#utility.yul\":1701:1702   */\n      0x00\n        /* \"#utility.yul\":1698:1699   */\n      dup1\n        /* \"#utility.yul\":1691:1703   */\n      revert\n        /* \"#utility.yul\":1838:1949   */\n    tag_38:\n        /* \"#utility.yul\":1923:1924   */\n      0x04\n        /* \"#utility.yul\":1916:1921   */\n      dup2\n        /* \"#utility.yul\":1913:1925   */\n      lt\n        /* \"#utility.yul\":1903:1943   */\n      tag_61\n      jumpi\n        /* \"#utility.yul\":1939:1940   */\n      0x00\n        /* \"#utility.yul\":1936:1937   */\n      dup1\n        /* \"#utility.yul\":1929:1941   */\n      revert\n        /* \"#utility.yul\":1903:1943   */\n    tag_61:\n        /* \"#utility.yul\":1838:1949   */\n      pop\n      jump\t// out\n        /* \"#utility.yul\":1955:2118   */\n    tag_39:\n        /* \"#utility.yul\":2013:2018   */\n      0x00\n        /* \"#utility.yul\":2051:2057   */\n      dup2\n        /* \"#utility.yul\":2038:2058   */\n      calldataload\n        /* \"#utility.yul\":2029:2058   */\n      swap1\n      pop\n        /* \"#utility.yul\":2067:2112   */\n      tag_63\n        /* \"#utility.yul\":2106:2111   */\n      dup2\n        /* \"#utility.yul\":2067:2112   */\n      tag_38\n      jump\t// in\n    tag_63:\n        /* \"#utility.yul\":1955:2118   */\n      swap3\n      swap2\n      pop\n      pop\n      jump\t// out\n        /* \"#utility.yul\":2124:2477   */\n    tag_24:\n        /* \"#utility.yul\":2195:2201   */\n      0x00\n        /* \"#utility.yul\":2244:2246   */\n      0x20\n        /* \"#utility.yul\":2232:2241   */\n      dup3\n        /* \"#utility.yul\":2223:2230   */\n      dup5\n        /* \"#utility.yul\":2219:2242   */\n      sub\n        /* \"#utility.yul\":2215:2247   */\n      slt\n        /* \"#utility.yul\":2212:2331   */\n      iszero\n      tag_65\n      jumpi\n        /* \"#utility.yul\":2250:2329   */\n      tag_66\n      tag_36\n      jump\t// in\n    tag_66:\n        /* \"#utility.yul\":2212:2331   */\n    tag_65:\n        /* \"#utility.yul\":2370:2371   */\n      0x00\n        /* \"#utility.yul\":2395:2460   */\n      tag_67\n        /* \"#utility.yul\":2452:2459   */\n      dup5\n        /* \"#utility.yul\":2443:2449   */\n      dup3\n        /* \"#utility.yul\":2432:2441   */\n      dup6\n        /* \"#utility.yul\":2428:2450   */\n      add\n        /* \"#utility.yul\":2395:2460   */\n      tag_39\n      jump\t// in\n    tag_67:\n        /* \"#utility.yul\":2385:2460   */\n      swap2\n      pop\n        /* \"#utility.yul\":2341:2470   */\n      pop\n        /* \"#utility.yul\":2124:2477   */\n      swap3\n      swap2\n      pop\n      pop\n      jump\t// out\n\n    auxdata: 0xa26469706673582212205c08e26b362eefe9a18eb4aaac6e9a04cdb6606f0bc7022df3056a67c81f5fe264736f6c63430008120033\n}\n",
				"bytecode": {
					"linkReferences": {},
					"object": "60806040526001600060016101000a81548160ff0219169083600381111561002a5761002961007d565b5b02179055506003808111156100425761004161007d565b5b600060026101000a81548160ff021916908360038111156100665761006561007d565b5b021790555034801561007757600080fd5b506100ac565b7f4e487b7100000000000000000000000000000000000000000000000000000000600052602160045260246000fd5b6102ea806100bb6000396000f3fe608060405234801561001057600080fd5b50600436106100575760003560e01c80631de21b761461005c57806330332aea1461007a578063993a04b714610098578063a85e9c83146100b8578063b9b275c1146100d6575b600080fd5b6100646100f2565b604051610071919061020b565b60405180910390f35b610082610103565b60405161008f919061020b565b60405180910390f35b6100a0610116565b6040516100af93929190610226565b60405180910390f35b6100c0610155565b6040516100cd919061020b565b60405180910390f35b6100f060048036038101906100eb9190610287565b610168565b005b60008054906101000a900460ff1681565b600060019054906101000a900460ff1681565b60008060008060009054906101000a900460ff16600060019054906101000a900460ff16600060029054906101000a900460ff16925092509250909192565b600060029054906101000a900460ff1681565b806000806101000a81548160ff0219169083600381111561018c5761018b610194565b5b021790555050565b7f4e487b7100000000000000000000000000000000000000000000000000000000600052602160045260246000fd5b600481106101d4576101d3610194565b5b50565b60008190506101e5826101c3565b919050565b60006101f5826101d7565b9050919050565b610205816101ea565b82525050565b600060208201905061022060008301846101fc565b92915050565b600060608201905061023b60008301866101fc565b61024860208301856101fc565b61025560408301846101fc565b949350505050565b600080fd5b6004811061026f57600080fd5b50565b60008135905061028181610262565b92915050565b60006020828403121561029d5761029c61025d565b5b60006102ab84828501610272565b9150509291505056fea26469706673582212205c08e26b362eefe9a18eb4aaac6e9a04cdb6606f0bc7022df3056a67c81f5fe264736f6c63430008120033",
					"opcodes": "PUSH1 0x80 PUSH1 0x40 MSTORE PUSH1 0x1 PUSH1 0x0 PUSH1 0x1 PUSH2 0x100 EXP DUP2 SLOAD DUP2 PUSH1 0xFF MUL NOT AND SWAP1 DUP4 PUSH1 0x3 DUP2 GT ISZERO PUSH2 0x2A JUMPI PUSH2 0x29 PUSH2 0x7D JUMP JUMPDEST JUMPDEST MUL OR SWAP1 SSTORE POP PUSH1 0x3 DUP1 DUP2 GT ISZERO PUSH2 0x42 JUMPI PUSH2 0x41 PUSH2 0x7D JUMP JUMPDEST JUMPDEST PUSH1 0x0 PUSH1 0x2 PUSH2 0x100 EXP DUP2 SLOAD DUP2 PUSH1 0xFF MUL NOT AND SWAP1 DUP4 PUSH1 0x3 DUP2 GT ISZERO PUSH2 0x66 JUMPI PUSH2 0x65 PUSH2 0x7D JUMP JUMPDEST JUMPDEST MUL OR SWAP1 SSTORE POP CALLVALUE DUP1 ISZERO PUSH2 0x77 JUMPI PUSH1 0x0 DUP1 REVERT JUMPDEST POP PUSH2 0xAC JUMP JUMPDEST PUSH32 0x4E487B7100000000000000000000000000000000000000000000000000000000 PUSH1 0x0 MSTORE PUSH1 0x21 PUSH1 0x4 MSTORE PUSH1 0x24 PUSH1 0x0 REVERT JUMPDEST PUSH2 0x2EA DUP1 PUSH2 0xBB PUSH1 0x0 CODECOPY PUSH1 0x0 RETURN INVALID PUSH1 0x80 PUSH1 0x40 MSTORE CALLVALUE DUP1 ISZERO PUSH2 0x10 JUMPI PUSH1 0x0 DUP1 REVERT JUMPDEST POP PUSH1 0x4 CALLDATASIZE LT PUSH2 0x57 JUMPI PUSH1 0x0 CALLDATALOAD PUSH1 0xE0 SHR DUP1 PUSH4 0x1DE21B76 EQ PUSH2 0x5C JUMPI DUP1 PUSH4 0x30332AEA EQ PUSH2 0x7A JUMPI DUP1 PUSH4 0x993A04B7 EQ PUSH2 0x98 JUMPI DUP1 PUSH4 0xA85E9C83 EQ PUSH2 0xB8 JUMPI DUP1 PUSH4 0xB9B275C1 EQ PUSH2 0xD6 JUMPI JUMPDEST PUSH1 0x0 DUP1 REVERT JUMPDEST PUSH2 0x64 PUSH2 0xF2 JUMP JUMPDEST PUSH1 0x40 MLOAD PUSH2 0x71 SWAP2 SWAP1 PUSH2 0x20B JUMP JUMPDEST PUSH1 0x40 MLOAD DUP1 SWAP2 SUB SWAP1 RETURN JUMPDEST PUSH2 0x82 PUSH2 0x103 JUMP JUMPDEST PUSH1 0x40 MLOAD PUSH2 0x8F SWAP2 SWAP1 PUSH2 0x20B JUMP JUMPDEST PUSH1 0x40 MLOAD DUP1 SWAP2 SUB SWAP1 RETURN JUMPDEST PUSH2 0xA0 PUSH2 0x116 JUMP JUMPDEST PUSH1 0x40 MLOAD PUSH2 0xAF SWAP4 SWAP3 SWAP2 SWAP1 PUSH2 0x226 JUMP JUMPDEST PUSH1 0x40 MLOAD DUP1 SWAP2 SUB SWAP1 RETURN JUMPDEST PUSH2 0xC0 PUSH2 0x155 JUMP JUMPDEST PUSH1 0x40 MLOAD PUSH2 0xCD SWAP2 SWAP1 PUSH2 0x20B JUMP JUMPDEST PUSH1 0x40 MLOAD DUP1 SWAP2 SUB SWAP1 RETURN JUMPDEST PUSH2 0xF0 PUSH1 0x4 DUP1 CALLDATASIZE SUB DUP2 ADD SWAP1 PUSH2 0xEB SWAP2 SWAP1 PUSH2 0x287 JUMP JUMPDEST PUSH2 0x168 JUMP JUMPDEST STOP JUMPDEST PUSH1 0x0 DUP1 SLOAD SWAP1 PUSH2 0x100 EXP SWAP1 DIV PUSH1 0xFF AND DUP2 JUMP JUMPDEST PUSH1 0x0 PUSH1 0x1 SWAP1 SLOAD SWAP1 PUSH2 0x100 EXP SWAP1 DIV PUSH1 0xFF AND DUP2 JUMP JUMPDEST PUSH1 0x0 DUP1 PUSH1 0x0 DUP1 PUSH1 0x0 SWAP1 SLOAD SWAP1 PUSH2 0x100 EXP SWAP1 DIV PUSH1 0xFF AND PUSH1 0x0 PUSH1 0x1 SWAP1 SLOAD SWAP1 PUSH2 0x100 EXP SWAP1 DIV PUSH1 0xFF AND PUSH1 0x0 PUSH1 0x2 SWAP1 SLOAD SWAP1 PUSH2 0x100 EXP SWAP1 DIV PUSH1 0xFF AND SWAP3 POP SWAP3 POP SWAP3 POP SWAP1 SWAP2 SWAP3 JUMP JUMPDEST PUSH1 0x0 PUSH1 0x2 SWAP1 SLOAD SWAP1 PUSH2 0x100 EXP SWAP1 DIV PUSH1 0xFF AND DUP2 JUMP JUMPDEST DUP1 PUSH1 0x0 DUP1 PUSH2 0x100 EXP DUP2 SLOAD DUP2 PUSH1 0xFF MUL NOT AND SWAP1 DUP4 PUSH1 0x3 DUP2 GT ISZERO PUSH2 0x18C JUMPI PUSH2 0x18B PUSH2 0x194 JUMP JUMPDEST JUMPDEST MUL OR SWAP1 SSTORE POP POP JUMP JUMPDEST PUSH32 0x4E487B7100000000000000000000000000000000000000000000000000000000 PUSH1 0x0 MSTORE PUSH1 0x21 PUSH1 0x4 MSTORE PUSH1 0x24 PUSH1 0x0 REVERT JUMPDEST PUSH1 0x4 DUP2 LT PUSH2 0x1D4 JUMPI PUSH2 0x1D3 PUSH2 0x194 JUMP JUMPDEST JUMPDEST POP JUMP JUMPDEST PUSH1 0x0 DUP2 SWAP1 POP PUSH2 0x1E5 DUP3 PUSH2 0x1C3 JUMP JUMPDEST SWAP2 SWAP1 POP JUMP JUMPDEST PUSH1 0x0 PUSH2 0x1F5 DUP3 PUSH2 0x1D7 JUMP JUMPDEST SWAP1 POP SWAP2 SWAP1 POP JUMP JUMPDEST PUSH2 0x205 DUP2 PUSH2 0x1EA JUMP JUMPDEST DUP3 MSTORE POP POP JUMP JUMPDEST PUSH1 0x0 PUSH1 0x20 DUP3 ADD SWAP1 POP PUSH2 0x220 PUSH1 0x0 DUP4 ADD DUP5 PUSH2 0x1FC JUMP JUMPDEST SWAP3 SWAP2 POP POP JUMP JUMPDEST PUSH1 0x0 PUSH1 0x60 DUP3 ADD SWAP1 POP PUSH2 0x23B PUSH1 0x0 DUP4 ADD DUP7 PUSH2 0x1FC JUMP JUMPDEST PUSH2 0x248 PUSH1 0x20 DUP4 ADD DUP6 PUSH2 0x1FC JUMP JUMPDEST PUSH2 0x255 PUSH1 0x40 DUP4 ADD DUP5 PUSH2 0x1FC JUMP JUMPDEST SWAP5 SWAP4 POP POP POP POP JUMP JUMPDEST PUSH1 0x0 DUP1 REVERT JUMPDEST PUSH1 0x4 DUP2 LT PUSH2 0x26F JUMPI PUSH1 0x0 DUP1 REVERT JUMPDEST POP JUMP JUMPDEST PUSH1 0x0 DUP2 CALLDATALOAD SWAP1 POP PUSH2 0x281 DUP2 PUSH2 0x262 JUMP JUMPDEST SWAP3 SWAP2 POP POP JUMP JUMPDEST PUSH1 0x0 PUSH1 0x20 DUP3 DUP5 SUB SLT ISZERO PUSH2 0x29D JUMPI PUSH2 0x29C PUSH2 0x25D JUMP JUMPDEST JUMPDEST PUSH1 0x0 PUSH2 0x2AB DUP5 DUP3 DUP6 ADD PUSH2 0x272 JUMP JUMPDEST SWAP2 POP POP SWAP3 SWAP2 POP POP JUMP INVALID LOG2 PUSH5 0x6970667358 0x22 SLT KECCAK256 0x5C ADDMOD 0xE2 PUSH12 0x362EEFE9A18EB4AAAC6E9A04 0xCD 0xB6 PUSH1 0x6F SIGNEXTEND 0xC7 MUL 0x2D RETURN SDIV PUSH11 0x67C81F5FE264736F6C6343 STOP ADDMOD SLT STOP CALLER "
				},
				"gasEstimates": {
					"creation": {
						"codeDepositCost": "149200",
						"executionCost": "48908",
						"totalCost": "198108"
					},
					"external": {
						"P1()": "2535",
						"P2()": "2610",
						"P3()": "2654",
						"getter()": "infinite",
						"set_P1(uint8)": "24716"
					}
				},
				"methodIdentifiers": {
					"P1()": "1de21b76",
					"P2()": "30332aea",
					"P3()": "a85e9c83",
					"getter()": "993a04b7",
					"set_P1(uint8)": "b9b275c1"
				}
			},
			"storageLayout": {
				"storage": [
					{
						"astId": 9,
						"contract": "contracts/01-8 enumTask1  1.sol:PizzaDeli",
						"label": "P1",
						"offset": 0,
						"slot": "0",
						"type": "t_enum(PizzaOrder)6"
					},
					{
						"astId": 14,
						"contract": "contracts/01-8 enumTask1  1.sol:PizzaDeli",
						"label": "P2",
						"offset": 1,
						"slot": "0",
						"type": "t_enum(PizzaOrder)6"
					},
					{
						"astId": 20,
						"contract": "contracts/01-8 enumTask1  1.sol:PizzaDeli",
						"label": "P3",
						"offset": 2,
						"slot": "0",
						"type": "t_enum(PizzaOrder)6"
					}
				],
				"types": {
					"t_enum(PizzaOrder)6": {
						"encoding": "inplace",
						"label": "enum PizzaDeli.PizzaOrder",
						"numberOfBytes": "1"
					}
				}
			},
			"userdoc": {
				"kind": "user",
				"methods": {},
				"version": 1
			}
		}
	}
}