{
	"contracts/minmax.sol": {
		"minmax": {
			"abi": [
				{
					"inputs": [],
					"name": "max16",
					"outputs": [
						{
							"internalType": "int16",
							"name": "",
							"type": "int16"
						}
					],
					"stateMutability": "view",
					"type": "function"
				},
				{
					"inputs": [],
					"name": "max24",
					"outputs": [
						{
							"internalType": "int24",
							"name": "",
							"type": "int24"
						}
					],
					"stateMutability": "view",
					"type": "function"
				},
				{
					"inputs": [],
					"name": "max32",
					"outputs": [
						{
							"internalType": "int32",
							"name": "",
							"type": "int32"
						}
					],
					"stateMutability": "view",
					"type": "function"
				},
				{
					"inputs": [],
					"name": "max8",
					"outputs": [
						{
							"internalType": "int8",
							"name": "",
							"type": "int8"
						}
					],
					"stateMutability": "view",
					"type": "function"
				},
				{
					"inputs": [],
					"name": "min16",
					"outputs": [
						{
							"internalType": "int16",
							"name": "",
							"type": "int16"
						}
					],
					"stateMutability": "view",
					"type": "function"
				},
				{
					"inputs": [],
					"name": "min24",
					"outputs": [
						{
							"internalType": "int24",
							"name": "",
							"type": "int24"
						}
					],
					"stateMutability": "view",
					"type": "function"
				},
				{
					"inputs": [],
					"name": "min32",
					"outputs": [
						{
							"internalType": "int32",
							"name": "",
							"type": "int32"
						}
					],
					"stateMutability": "view",
					"type": "function"
				},
				{
					"inputs": [],
					"name": "min8",
					"outputs": [
						{
							"internalType": "int8",
							"name": "",
							"type": "int8"
						}
					],
					"stateMutability": "view",
					"type": "function"
				},
				{
					"inputs": [],
					"name": "umax16",
					"outputs": [
						{
							"internalType": "uint16",
							"name": "",
							"type": "uint16"
						}
					],
					"stateMutability": "view",
					"type": "function"
				},
				{
					"inputs": [],
					"name": "umax24",
					"outputs": [
						{
							"internalType": "uint24",
							"name": "",
							"type": "uint24"
						}
					],
					"stateMutability": "view",
					"type": "function"
				},
				{
					"inputs": [],
					"name": "umax32",
					"outputs": [
						{
							"internalType": "uint32",
							"name": "",
							"type": "uint32"
						}
					],
					"stateMutability": "view",
					"type": "function"
				},
				{
					"inputs": [],
					"name": "umax8",
					"outputs": [
						{
							"internalType": "uint8",
							"name": "",
							"type": "uint8"
						}
					],
					"stateMutability": "view",
					"type": "function"
				},
				{
					"inputs": [],
					"name": "umin16",
					"outputs": [
						{
							"internalType": "uint16",
							"name": "",
							"type": "uint16"
						}
					],
					"stateMutability": "view",
					"type": "function"
				},
				{
					"inputs": [],
					"name": "umin24",
					"outputs": [
						{
							"internalType": "uint24",
							"name": "",
							"type": "uint24"
						}
					],
					"stateMutability": "view",
					"type": "function"
				},
				{
					"inputs": [],
					"name": "umin32",
					"outputs": [
						{
							"internalType": "uint32",
							"name": "",
							"type": "uint32"
						}
					],
					"stateMutability": "view",
					"type": "function"
				},
				{
					"inputs": [],
					"name": "umin8",
					"outputs": [
						{
							"internalType": "uint8",
							"name": "",
							"type": "uint8"
						}
					],
					"stateMutability": "view",
					"type": "function"
				}
			],
			"devdoc": {
				"kind": "dev",
				"methods": {},
				"version": 1
			},
			"evm": {
				"assembly": "    /* \"contracts/minmax.sol\":59:702  contract minmax{... */\n  mstore(0x40, 0x80)\n    /* \"contracts/minmax.sol\":96:110  type(int8).min */\n  0xffffffffffffffffffffffffffffffffffffffffffffffffffffffffffffff80\n    /* \"contracts/minmax.sol\":77:110  int8 public min8 = type(int8).min */\n  0x00\n  dup1\n  0x0100\n  exp\n  dup2\n  sload\n  dup2\n  0xff\n  mul\n  not\n  and\n  swap1\n  dup4\n  0x00\n  signextend\n  0xff\n  and\n  mul\n  or\n  swap1\n  sstore\n  pop\n    /* \"contracts/minmax.sol\":130:144  type(int8).max */\n  0x7f\n    /* \"contracts/minmax.sol\":113:144  int8 public max8=type(int8).max */\n  0x00\n  exp(0x0100, 0x01)\n  dup2\n  sload\n  dup2\n  0xff\n  mul\n  not\n  and\n  swap1\n  dup4\n  0x00\n  signextend\n  0xff\n  and\n  mul\n  or\n  swap1\n  sstore\n  pop\n    /* \"contracts/minmax.sol\":168:183  type(int16).min */\n  0xffffffffffffffffffffffffffffffffffffffffffffffffffffffffffff8000\n    /* \"contracts/minmax.sol\":147:183  int16 public min16 = type(int16).min */\n  0x00\n  exp(0x0100, 0x02)\n  dup2\n  sload\n  dup2\n  0xffff\n  mul\n  not\n  and\n  swap1\n  dup4\n  0x01\n  signextend\n  0xffff\n  and\n  mul\n  or\n  swap1\n  sstore\n  pop\n    /* \"contracts/minmax.sol\":205:220  type(int16).max */\n  0x7fff\n    /* \"contracts/minmax.sol\":186:220  int16 public max16=type(int16).max */\n  0x00\n  exp(0x0100, 0x04)\n  dup2\n  sload\n  dup2\n  0xffff\n  mul\n  not\n  and\n  swap1\n  dup4\n  0x01\n  signextend\n  0xffff\n  and\n  mul\n  or\n  swap1\n  sstore\n  pop\n    /* \"contracts/minmax.sol\":244:259  type(uint8).min */\n  0x00\n    /* \"contracts/minmax.sol\":223:259  uint8 public umin8 = type(uint8).min */\n  dup1\n  exp(0x0100, 0x06)\n  dup2\n  sload\n  dup2\n  0xff\n  mul\n  not\n  and\n  swap1\n  dup4\n  0xff\n  and\n  mul\n  or\n  swap1\n  sstore\n  pop\n    /* \"contracts/minmax.sol\":281:296  type(uint8).max */\n  0xff\n    /* \"contracts/minmax.sol\":262:296  uint8 public umax8=type(uint8).max */\n  0x00\n  exp(0x0100, 0x07)\n  dup2\n  sload\n  dup2\n  0xff\n  mul\n  not\n  and\n  swap1\n  dup4\n  0xff\n  and\n  mul\n  or\n  swap1\n  sstore\n  pop\n    /* \"contracts/minmax.sol\":322:338  type(uint16).min */\n  0x00\n    /* \"contracts/minmax.sol\":299:338  uint16 public umin16 = type(uint16).min */\n  dup1\n  exp(0x0100, 0x08)\n  dup2\n  sload\n  dup2\n  0xffff\n  mul\n  not\n  and\n  swap1\n  dup4\n  0xffff\n  and\n  mul\n  or\n  swap1\n  sstore\n  pop\n    /* \"contracts/minmax.sol\":362:378  type(uint16).max */\n  0xffff\n    /* \"contracts/minmax.sol\":341:378  uint16 public umax16=type(uint16).max */\n  0x00\n  exp(0x0100, 0x0a)\n  dup2\n  sload\n  dup2\n  0xffff\n  mul\n  not\n  and\n  swap1\n  dup4\n  0xffff\n  and\n  mul\n  or\n  swap1\n  sstore\n  pop\n    /* \"contracts/minmax.sol\":402:417  type(int24).min */\n  0xffffffffffffffffffffffffffffffffffffffffffffffffffffffffff800000\n    /* \"contracts/minmax.sol\":381:417  int24 public min24 = type(int24).min */\n  0x00\n  exp(0x0100, 0x0c)\n  dup2\n  sload\n  dup2\n  0xffffff\n  mul\n  not\n  and\n  swap1\n  dup4\n  0x02\n  signextend\n  0xffffff\n  and\n  mul\n  or\n  swap1\n  sstore\n  pop\n    /* \"contracts/minmax.sol\":439:454  type(int24).max */\n  0x7fffff\n    /* \"contracts/minmax.sol\":420:454  int24 public max24=type(int24).max */\n  0x00\n  exp(0x0100, 0x0f)\n  dup2\n  sload\n  dup2\n  0xffffff\n  mul\n  not\n  and\n  swap1\n  dup4\n  0x02\n  signextend\n  0xffffff\n  and\n  mul\n  or\n  swap1\n  sstore\n  pop\n    /* \"contracts/minmax.sol\":478:493  type(int32).min */\n  0xffffffffffffffffffffffffffffffffffffffffffffffffffffffff80000000\n    /* \"contracts/minmax.sol\":457:493  int32 public min32 = type(int32).min */\n  0x00\n  exp(0x0100, 0x12)\n  dup2\n  sload\n  dup2\n  0xffffffff\n  mul\n  not\n  and\n  swap1\n  dup4\n  0x03\n  signextend\n  0xffffffff\n  and\n  mul\n  or\n  swap1\n  sstore\n  pop\n    /* \"contracts/minmax.sol\":515:530  type(int32).max */\n  0x7fffffff\n    /* \"contracts/minmax.sol\":496:530  int32 public max32=type(int32).max */\n  0x00\n  exp(0x0100, 0x16)\n  dup2\n  sload\n  dup2\n  0xffffffff\n  mul\n  not\n  and\n  swap1\n  dup4\n  0x03\n  signextend\n  0xffffffff\n  and\n  mul\n  or\n  swap1\n  sstore\n  pop\n    /* \"contracts/minmax.sol\":556:572  type(uint24).min */\n  0x00\n    /* \"contracts/minmax.sol\":533:572  uint24 public umin24 = type(uint24).min */\n  dup1\n  exp(0x0100, 0x1a)\n  dup2\n  sload\n  dup2\n  0xffffff\n  mul\n  not\n  and\n  swap1\n  dup4\n  0xffffff\n  and\n  mul\n  or\n  swap1\n  sstore\n  pop\n    /* \"contracts/minmax.sol\":596:612  type(uint24).max */\n  0xffffff\n    /* \"contracts/minmax.sol\":575:612  uint24 public umax24=type(uint24).max */\n  0x00\n  exp(0x0100, 0x1d)\n  dup2\n  sload\n  dup2\n  0xffffff\n  mul\n  not\n  and\n  swap1\n  dup4\n  0xffffff\n  and\n  mul\n  or\n  swap1\n  sstore\n  pop\n    /* \"contracts/minmax.sol\":638:654  type(uint32).min */\n  0x00\n    /* \"contracts/minmax.sol\":615:654  uint32 public umin32 = type(uint32).min */\n  0x01\n  exp(0x0100, 0x00)\n  dup2\n  sload\n  dup2\n  0xffffffff\n  mul\n  not\n  and\n  swap1\n  dup4\n  0xffffffff\n  and\n  mul\n  or\n  swap1\n  sstore\n  pop\n    /* \"contracts/minmax.sol\":678:694  type(uint32).max */\n  0xffffffff\n    /* \"contracts/minmax.sol\":657:694  uint32 public umax32=type(uint32).max */\n  0x01\n  exp(0x0100, 0x04)\n  dup2\n  sload\n  dup2\n  0xffffffff\n  mul\n  not\n  and\n  swap1\n  dup4\n  0xffffffff\n  and\n  mul\n  or\n  swap1\n  sstore\n  pop\n    /* \"contracts/minmax.sol\":59:702  contract minmax{... */\n  callvalue\n  dup1\n  iszero\n  tag_1\n  jumpi\n  0x00\n  dup1\n  revert\ntag_1:\n  pop\n  dataSize(sub_0)\n  dup1\n  dataOffset(sub_0)\n  0x00\n  codecopy\n  0x00\n  return\nstop\n\nsub_0: assembly {\n        /* \"contracts/minmax.sol\":59:702  contract minmax{... */\n      mstore(0x40, 0x80)\n      callvalue\n      dup1\n      iszero\n      tag_1\n      jumpi\n      0x00\n      dup1\n      revert\n    tag_1:\n      pop\n      jumpi(tag_2, lt(calldatasize, 0x04))\n      shr(0xe0, calldataload(0x00))\n      dup1\n      0x6b8d9d79\n      gt\n      tag_19\n      jumpi\n      dup1\n      0x9be4516c\n      gt\n      tag_20\n      jumpi\n      dup1\n      0x9be4516c\n      eq\n      tag_15\n      jumpi\n      dup1\n      0x9d17eff8\n      eq\n      tag_16\n      jumpi\n      dup1\n      0x9e8cd403\n      eq\n      tag_17\n      jumpi\n      dup1\n      0xa2785213\n      eq\n      tag_18\n      jumpi\n      jump(tag_2)\n    tag_20:\n      dup1\n      0x6b8d9d79\n      eq\n      tag_11\n      jumpi\n      dup1\n      0x7f2ac5df\n      eq\n      tag_12\n      jumpi\n      dup1\n      0x8bbb52bc\n      eq\n      tag_13\n      jumpi\n      dup1\n      0x8f2b0e6c\n      eq\n      tag_14\n      jumpi\n      jump(tag_2)\n    tag_19:\n      dup1\n      0x40a22992\n      gt\n      tag_21\n      jumpi\n      dup1\n      0x40a22992\n      eq\n      tag_7\n      jumpi\n      dup1\n      0x42403ad0\n      eq\n      tag_8\n      jumpi\n      dup1\n      0x43868877\n      eq\n      tag_9\n      jumpi\n      dup1\n      0x59d4c25c\n      eq\n      tag_10\n      jumpi\n      jump(tag_2)\n    tag_21:\n      dup1\n      0x166bcda5\n      eq\n      tag_3\n      jumpi\n      dup1\n      0x1fe554ff\n      eq\n      tag_4\n      jumpi\n      dup1\n      0x32096f2a\n      eq\n      tag_5\n      jumpi\n      dup1\n      0x3c0edbfe\n      eq\n      tag_6\n      jumpi\n    tag_2:\n      0x00\n      dup1\n      revert\n        /* \"contracts/minmax.sol\":147:183  int16 public min16 = type(int16).min */\n    tag_3:\n      tag_22\n      tag_23\n      jump\t// in\n    tag_22:\n      mload(0x40)\n      tag_24\n      swap2\n      swap1\n      tag_25\n      jump\t// in\n    tag_24:\n      mload(0x40)\n      dup1\n      swap2\n      sub\n      swap1\n      return\n        /* \"contracts/minmax.sol\":615:654  uint32 public umin32 = type(uint32).min */\n    tag_4:\n      tag_26\n      tag_27\n      jump\t// in\n    tag_26:\n      mload(0x40)\n      tag_28\n      swap2\n      swap1\n      tag_29\n      jump\t// in\n    tag_28:\n      mload(0x40)\n      dup1\n      swap2\n      sub\n      swap1\n      return\n        /* \"contracts/minmax.sol\":457:493  int32 public min32 = type(int32).min */\n    tag_5:\n      tag_30\n      tag_31\n      jump\t// in\n    tag_30:\n      mload(0x40)\n      tag_32\n      swap2\n      swap1\n      tag_33\n      jump\t// in\n    tag_32:\n      mload(0x40)\n      dup1\n      swap2\n      sub\n      swap1\n      return\n        /* \"contracts/minmax.sol\":575:612  uint24 public umax24=type(uint24).max */\n    tag_6:\n      tag_34\n      tag_35\n      jump\t// in\n    tag_34:\n      mload(0x40)\n      tag_36\n      swap2\n      swap1\n      tag_37\n      jump\t// in\n    tag_36:\n      mload(0x40)\n      dup1\n      swap2\n      sub\n      swap1\n      return\n        /* \"contracts/minmax.sol\":299:338  uint16 public umin16 = type(uint16).min */\n    tag_7:\n      tag_38\n      tag_39\n      jump\t// in\n    tag_38:\n      mload(0x40)\n      tag_40\n      swap2\n      swap1\n      tag_41\n      jump\t// in\n    tag_40:\n      mload(0x40)\n      dup1\n      swap2\n      sub\n      swap1\n      return\n        /* \"contracts/minmax.sol\":186:220  int16 public max16=type(int16).max */\n    tag_8:\n      tag_42\n      tag_43\n      jump\t// in\n    tag_42:\n      mload(0x40)\n      tag_44\n      swap2\n      swap1\n      tag_25\n      jump\t// in\n    tag_44:\n      mload(0x40)\n      dup1\n      swap2\n      sub\n      swap1\n      return\n        /* \"contracts/minmax.sol\":113:144  int8 public max8=type(int8).max */\n    tag_9:\n      tag_45\n      tag_46\n      jump\t// in\n    tag_45:\n      mload(0x40)\n      tag_47\n      swap2\n      swap1\n      tag_48\n      jump\t// in\n    tag_47:\n      mload(0x40)\n      dup1\n      swap2\n      sub\n      swap1\n      return\n        /* \"contracts/minmax.sol\":341:378  uint16 public umax16=type(uint16).max */\n    tag_10:\n      tag_49\n      tag_50\n      jump\t// in\n    tag_49:\n      mload(0x40)\n      tag_51\n      swap2\n      swap1\n      tag_41\n      jump\t// in\n    tag_51:\n      mload(0x40)\n      dup1\n      swap2\n      sub\n      swap1\n      return\n        /* \"contracts/minmax.sol\":223:259  uint8 public umin8 = type(uint8).min */\n    tag_11:\n      tag_52\n      tag_53\n      jump\t// in\n    tag_52:\n      mload(0x40)\n      tag_54\n      swap2\n      swap1\n      tag_55\n      jump\t// in\n    tag_54:\n      mload(0x40)\n      dup1\n      swap2\n      sub\n      swap1\n      return\n        /* \"contracts/minmax.sol\":420:454  int24 public max24=type(int24).max */\n    tag_12:\n      tag_56\n      tag_57\n      jump\t// in\n    tag_56:\n      mload(0x40)\n      tag_58\n      swap2\n      swap1\n      tag_59\n      jump\t// in\n    tag_58:\n      mload(0x40)\n      dup1\n      swap2\n      sub\n      swap1\n      return\n        /* \"contracts/minmax.sol\":657:694  uint32 public umax32=type(uint32).max */\n    tag_13:\n      tag_60\n      tag_61\n      jump\t// in\n    tag_60:\n      mload(0x40)\n      tag_62\n      swap2\n      swap1\n      tag_29\n      jump\t// in\n    tag_62:\n      mload(0x40)\n      dup1\n      swap2\n      sub\n      swap1\n      return\n        /* \"contracts/minmax.sol\":381:417  int24 public min24 = type(int24).min */\n    tag_14:\n      tag_63\n      tag_64\n      jump\t// in\n    tag_63:\n      mload(0x40)\n      tag_65\n      swap2\n      swap1\n      tag_59\n      jump\t// in\n    tag_65:\n      mload(0x40)\n      dup1\n      swap2\n      sub\n      swap1\n      return\n        /* \"contracts/minmax.sol\":262:296  uint8 public umax8=type(uint8).max */\n    tag_15:\n      tag_66\n      tag_67\n      jump\t// in\n    tag_66:\n      mload(0x40)\n      tag_68\n      swap2\n      swap1\n      tag_55\n      jump\t// in\n    tag_68:\n      mload(0x40)\n      dup1\n      swap2\n      sub\n      swap1\n      return\n        /* \"contracts/minmax.sol\":496:530  int32 public max32=type(int32).max */\n    tag_16:\n      tag_69\n      tag_70\n      jump\t// in\n    tag_69:\n      mload(0x40)\n      tag_71\n      swap2\n      swap1\n      tag_33\n      jump\t// in\n    tag_71:\n      mload(0x40)\n      dup1\n      swap2\n      sub\n      swap1\n      return\n        /* \"contracts/minmax.sol\":533:572  uint24 public umin24 = type(uint24).min */\n    tag_17:\n      tag_72\n      tag_73\n      jump\t// in\n    tag_72:\n      mload(0x40)\n      tag_74\n      swap2\n      swap1\n      tag_37\n      jump\t// in\n    tag_74:\n      mload(0x40)\n      dup1\n      swap2\n      sub\n      swap1\n      return\n        /* \"contracts/minmax.sol\":77:110  int8 public min8 = type(int8).min */\n    tag_18:\n      tag_75\n      tag_76\n      jump\t// in\n    tag_75:\n      mload(0x40)\n      tag_77\n      swap2\n      swap1\n      tag_48\n      jump\t// in\n    tag_77:\n      mload(0x40)\n      dup1\n      swap2\n      sub\n      swap1\n      return\n        /* \"contracts/minmax.sol\":147:183  int16 public min16 = type(int16).min */\n    tag_23:\n      0x00\n      0x02\n      swap1\n      sload\n      swap1\n      0x0100\n      exp\n      swap1\n      div\n      0x01\n      signextend\n      dup2\n      jump\t// out\n        /* \"contracts/minmax.sol\":615:654  uint32 public umin32 = type(uint32).min */\n    tag_27:\n      0x01\n      0x00\n      swap1\n      sload\n      swap1\n      0x0100\n      exp\n      swap1\n      div\n      0xffffffff\n      and\n      dup2\n      jump\t// out\n        /* \"contracts/minmax.sol\":457:493  int32 public min32 = type(int32).min */\n    tag_31:\n      0x00\n      0x12\n      swap1\n      sload\n      swap1\n      0x0100\n      exp\n      swap1\n      div\n      0x03\n      signextend\n      dup2\n      jump\t// out\n        /* \"contracts/minmax.sol\":575:612  uint24 public umax24=type(uint24).max */\n    tag_35:\n      0x00\n      0x1d\n      swap1\n      sload\n      swap1\n      0x0100\n      exp\n      swap1\n      div\n      0xffffff\n      and\n      dup2\n      jump\t// out\n        /* \"contracts/minmax.sol\":299:338  uint16 public umin16 = type(uint16).min */\n    tag_39:\n      0x00\n      0x08\n      swap1\n      sload\n      swap1\n      0x0100\n      exp\n      swap1\n      div\n      0xffff\n      and\n      dup2\n      jump\t// out\n        /* \"contracts/minmax.sol\":186:220  int16 public max16=type(int16).max */\n    tag_43:\n      0x00\n      0x04\n      swap1\n      sload\n      swap1\n      0x0100\n      exp\n      swap1\n      div\n      0x01\n      signextend\n      dup2\n      jump\t// out\n        /* \"contracts/minmax.sol\":113:144  int8 public max8=type(int8).max */\n    tag_46:\n      0x00\n      0x01\n      swap1\n      sload\n      swap1\n      0x0100\n      exp\n      swap1\n      div\n      0x00\n      signextend\n      dup2\n      jump\t// out\n        /* \"contracts/minmax.sol\":341:378  uint16 public umax16=type(uint16).max */\n    tag_50:\n      0x00\n      0x0a\n      swap1\n      sload\n      swap1\n      0x0100\n      exp\n      swap1\n      div\n      0xffff\n      and\n      dup2\n      jump\t// out\n        /* \"contracts/minmax.sol\":223:259  uint8 public umin8 = type(uint8).min */\n    tag_53:\n      0x00\n      0x06\n      swap1\n      sload\n      swap1\n      0x0100\n      exp\n      swap1\n      div\n      0xff\n      and\n      dup2\n      jump\t// out\n        /* \"contracts/minmax.sol\":420:454  int24 public max24=type(int24).max */\n    tag_57:\n      0x00\n      0x0f\n      swap1\n      sload\n      swap1\n      0x0100\n      exp\n      swap1\n      div\n      0x02\n      signextend\n      dup2\n      jump\t// out\n        /* \"contracts/minmax.sol\":657:694  uint32 public umax32=type(uint32).max */\n    tag_61:\n      0x01\n      0x04\n      swap1\n      sload\n      swap1\n      0x0100\n      exp\n      swap1\n      div\n      0xffffffff\n      and\n      dup2\n      jump\t// out\n        /* \"contracts/minmax.sol\":381:417  int24 public min24 = type(int24).min */\n    tag_64:\n      0x00\n      0x0c\n      swap1\n      sload\n      swap1\n      0x0100\n      exp\n      swap1\n      div\n      0x02\n      signextend\n      dup2\n      jump\t// out\n        /* \"contracts/minmax.sol\":262:296  uint8 public umax8=type(uint8).max */\n    tag_67:\n      0x00\n      0x07\n      swap1\n      sload\n      swap1\n      0x0100\n      exp\n      swap1\n      div\n      0xff\n      and\n      dup2\n      jump\t// out\n        /* \"contracts/minmax.sol\":496:530  int32 public max32=type(int32).max */\n    tag_70:\n      0x00\n      0x16\n      swap1\n      sload\n      swap1\n      0x0100\n      exp\n      swap1\n      div\n      0x03\n      signextend\n      dup2\n      jump\t// out\n        /* \"contracts/minmax.sol\":533:572  uint24 public umin24 = type(uint24).min */\n    tag_73:\n      0x00\n      0x1a\n      swap1\n      sload\n      swap1\n      0x0100\n      exp\n      swap1\n      div\n      0xffffff\n      and\n      dup2\n      jump\t// out\n        /* \"contracts/minmax.sol\":77:110  int8 public min8 = type(int8).min */\n    tag_76:\n      0x00\n      dup1\n      sload\n      swap1\n      0x0100\n      exp\n      swap1\n      div\n      0x00\n      signextend\n      dup2\n      jump\t// out\n        /* \"#utility.yul\":7:97   */\n    tag_78:\n        /* \"#utility.yul\":42:49   */\n      0x00\n        /* \"#utility.yul\":85:90   */\n      dup2\n        /* \"#utility.yul\":82:83   */\n      0x01\n        /* \"#utility.yul\":71:91   */\n      signextend\n        /* \"#utility.yul\":60:91   */\n      swap1\n      pop\n        /* \"#utility.yul\":7:97   */\n      swap2\n      swap1\n      pop\n      jump\t// out\n        /* \"#utility.yul\":103:215   */\n    tag_79:\n        /* \"#utility.yul\":186:208   */\n      tag_97\n        /* \"#utility.yul\":202:207   */\n      dup2\n        /* \"#utility.yul\":186:208   */\n      tag_78\n      jump\t// in\n    tag_97:\n        /* \"#utility.yul\":181:184   */\n      dup3\n        /* \"#utility.yul\":174:209   */\n      mstore\n        /* \"#utility.yul\":103:215   */\n      pop\n      pop\n      jump\t// out\n        /* \"#utility.yul\":221:435   */\n    tag_25:\n        /* \"#utility.yul\":310:314   */\n      0x00\n        /* \"#utility.yul\":348:350   */\n      0x20\n        /* \"#utility.yul\":337:346   */\n      dup3\n        /* \"#utility.yul\":333:351   */\n      add\n        /* \"#utility.yul\":325:351   */\n      swap1\n      pop\n        /* \"#utility.yul\":361:428   */\n      tag_99\n        /* \"#utility.yul\":425:426   */\n      0x00\n        /* \"#utility.yul\":414:423   */\n      dup4\n        /* \"#utility.yul\":410:427   */\n      add\n        /* \"#utility.yul\":401:407   */\n      dup5\n        /* \"#utility.yul\":361:428   */\n      tag_79\n      jump\t// in\n    tag_99:\n        /* \"#utility.yul\":221:435   */\n      swap3\n      swap2\n      pop\n      pop\n      jump\t// out\n        /* \"#utility.yul\":441:534   */\n    tag_80:\n        /* \"#utility.yul\":477:484   */\n      0x00\n        /* \"#utility.yul\":517:527   */\n      0xffffffff\n        /* \"#utility.yul\":510:515   */\n      dup3\n        /* \"#utility.yul\":506:528   */\n      and\n        /* \"#utility.yul\":495:528   */\n      swap1\n      pop\n        /* \"#utility.yul\":441:534   */\n      swap2\n      swap1\n      pop\n      jump\t// out\n        /* \"#utility.yul\":540:655   */\n    tag_81:\n        /* \"#utility.yul\":625:648   */\n      tag_102\n        /* \"#utility.yul\":642:647   */\n      dup2\n        /* \"#utility.yul\":625:648   */\n      tag_80\n      jump\t// in\n    tag_102:\n        /* \"#utility.yul\":620:623   */\n      dup3\n        /* \"#utility.yul\":613:649   */\n      mstore\n        /* \"#utility.yul\":540:655   */\n      pop\n      pop\n      jump\t// out\n        /* \"#utility.yul\":661:879   */\n    tag_29:\n        /* \"#utility.yul\":752:756   */\n      0x00\n        /* \"#utility.yul\":790:792   */\n      0x20\n        /* \"#utility.yul\":779:788   */\n      dup3\n        /* \"#utility.yul\":775:793   */\n      add\n        /* \"#utility.yul\":767:793   */\n      swap1\n      pop\n        /* \"#utility.yul\":803:872   */\n      tag_104\n        /* \"#utility.yul\":869:870   */\n      0x00\n        /* \"#utility.yul\":858:867   */\n      dup4\n        /* \"#utility.yul\":854:871   */\n      add\n        /* \"#utility.yul\":845:851   */\n      dup5\n        /* \"#utility.yul\":803:872   */\n      tag_81\n      jump\t// in\n    tag_104:\n        /* \"#utility.yul\":661:879   */\n      swap3\n      swap2\n      pop\n      pop\n      jump\t// out\n        /* \"#utility.yul\":885:975   */\n    tag_82:\n        /* \"#utility.yul\":920:927   */\n      0x00\n        /* \"#utility.yul\":963:968   */\n      dup2\n        /* \"#utility.yul\":960:961   */\n      0x03\n        /* \"#utility.yul\":949:969   */\n      signextend\n        /* \"#utility.yul\":938:969   */\n      swap1\n      pop\n        /* \"#utility.yul\":885:975   */\n      swap2\n      swap1\n      pop\n      jump\t// out\n        /* \"#utility.yul\":981:1093   */\n    tag_83:\n        /* \"#utility.yul\":1064:1086   */\n      tag_107\n        /* \"#utility.yul\":1080:1085   */\n      dup2\n        /* \"#utility.yul\":1064:1086   */\n      tag_82\n      jump\t// in\n    tag_107:\n        /* \"#utility.yul\":1059:1062   */\n      dup3\n        /* \"#utility.yul\":1052:1087   */\n      mstore\n        /* \"#utility.yul\":981:1093   */\n      pop\n      pop\n      jump\t// out\n        /* \"#utility.yul\":1099:1313   */\n    tag_33:\n        /* \"#utility.yul\":1188:1192   */\n      0x00\n        /* \"#utility.yul\":1226:1228   */\n      0x20\n        /* \"#utility.yul\":1215:1224   */\n      dup3\n        /* \"#utility.yul\":1211:1229   */\n      add\n        /* \"#utility.yul\":1203:1229   */\n      swap1\n      pop\n        /* \"#utility.yul\":1239:1306   */\n      tag_109\n        /* \"#utility.yul\":1303:1304   */\n      0x00\n        /* \"#utility.yul\":1292:1301   */\n      dup4\n        /* \"#utility.yul\":1288:1305   */\n      add\n        /* \"#utility.yul\":1279:1285   */\n      dup5\n        /* \"#utility.yul\":1239:1306   */\n      tag_83\n      jump\t// in\n    tag_109:\n        /* \"#utility.yul\":1099:1313   */\n      swap3\n      swap2\n      pop\n      pop\n      jump\t// out\n        /* \"#utility.yul\":1319:1410   */\n    tag_84:\n        /* \"#utility.yul\":1355:1362   */\n      0x00\n        /* \"#utility.yul\":1395:1403   */\n      0xffffff\n        /* \"#utility.yul\":1388:1393   */\n      dup3\n        /* \"#utility.yul\":1384:1404   */\n      and\n        /* \"#utility.yul\":1373:1404   */\n      swap1\n      pop\n        /* \"#utility.yul\":1319:1410   */\n      swap2\n      swap1\n      pop\n      jump\t// out\n        /* \"#utility.yul\":1416:1531   */\n    tag_85:\n        /* \"#utility.yul\":1501:1524   */\n      tag_112\n        /* \"#utility.yul\":1518:1523   */\n      dup2\n        /* \"#utility.yul\":1501:1524   */\n      tag_84\n      jump\t// in\n    tag_112:\n        /* \"#utility.yul\":1496:1499   */\n      dup3\n        /* \"#utility.yul\":1489:1525   */\n      mstore\n        /* \"#utility.yul\":1416:1531   */\n      pop\n      pop\n      jump\t// out\n        /* \"#utility.yul\":1537:1755   */\n    tag_37:\n        /* \"#utility.yul\":1628:1632   */\n      0x00\n        /* \"#utility.yul\":1666:1668   */\n      0x20\n        /* \"#utility.yul\":1655:1664   */\n      dup3\n        /* \"#utility.yul\":1651:1669   */\n      add\n        /* \"#utility.yul\":1643:1669   */\n      swap1\n      pop\n        /* \"#utility.yul\":1679:1748   */\n      tag_114\n        /* \"#utility.yul\":1745:1746   */\n      0x00\n        /* \"#utility.yul\":1734:1743   */\n      dup4\n        /* \"#utility.yul\":1730:1747   */\n      add\n        /* \"#utility.yul\":1721:1727   */\n      dup5\n        /* \"#utility.yul\":1679:1748   */\n      tag_85\n      jump\t// in\n    tag_114:\n        /* \"#utility.yul\":1537:1755   */\n      swap3\n      swap2\n      pop\n      pop\n      jump\t// out\n        /* \"#utility.yul\":1761:1850   */\n    tag_86:\n        /* \"#utility.yul\":1797:1804   */\n      0x00\n        /* \"#utility.yul\":1837:1843   */\n      0xffff\n        /* \"#utility.yul\":1830:1835   */\n      dup3\n        /* \"#utility.yul\":1826:1844   */\n      and\n        /* \"#utility.yul\":1815:1844   */\n      swap1\n      pop\n        /* \"#utility.yul\":1761:1850   */\n      swap2\n      swap1\n      pop\n      jump\t// out\n        /* \"#utility.yul\":1856:1971   */\n    tag_87:\n        /* \"#utility.yul\":1941:1964   */\n      tag_117\n        /* \"#utility.yul\":1958:1963   */\n      dup2\n        /* \"#utility.yul\":1941:1964   */\n      tag_86\n      jump\t// in\n    tag_117:\n        /* \"#utility.yul\":1936:1939   */\n      dup3\n        /* \"#utility.yul\":1929:1965   */\n      mstore\n        /* \"#utility.yul\":1856:1971   */\n      pop\n      pop\n      jump\t// out\n        /* \"#utility.yul\":1977:2195   */\n    tag_41:\n        /* \"#utility.yul\":2068:2072   */\n      0x00\n        /* \"#utility.yul\":2106:2108   */\n      0x20\n        /* \"#utility.yul\":2095:2104   */\n      dup3\n        /* \"#utility.yul\":2091:2109   */\n      add\n        /* \"#utility.yul\":2083:2109   */\n      swap1\n      pop\n        /* \"#utility.yul\":2119:2188   */\n      tag_119\n        /* \"#utility.yul\":2185:2186   */\n      0x00\n        /* \"#utility.yul\":2174:2183   */\n      dup4\n        /* \"#utility.yul\":2170:2187   */\n      add\n        /* \"#utility.yul\":2161:2167   */\n      dup5\n        /* \"#utility.yul\":2119:2188   */\n      tag_87\n      jump\t// in\n    tag_119:\n        /* \"#utility.yul\":1977:2195   */\n      swap3\n      swap2\n      pop\n      pop\n      jump\t// out\n        /* \"#utility.yul\":2201:2290   */\n    tag_88:\n        /* \"#utility.yul\":2235:2242   */\n      0x00\n        /* \"#utility.yul\":2278:2283   */\n      dup2\n        /* \"#utility.yul\":2275:2276   */\n      0x00\n        /* \"#utility.yul\":2264:2284   */\n      signextend\n        /* \"#utility.yul\":2253:2284   */\n      swap1\n      pop\n        /* \"#utility.yul\":2201:2290   */\n      swap2\n      swap1\n      pop\n      jump\t// out\n        /* \"#utility.yul\":2296:2405   */\n    tag_89:\n        /* \"#utility.yul\":2377:2398   */\n      tag_122\n        /* \"#utility.yul\":2392:2397   */\n      dup2\n        /* \"#utility.yul\":2377:2398   */\n      tag_88\n      jump\t// in\n    tag_122:\n        /* \"#utility.yul\":2372:2375   */\n      dup3\n        /* \"#utility.yul\":2365:2399   */\n      mstore\n        /* \"#utility.yul\":2296:2405   */\n      pop\n      pop\n      jump\t// out\n        /* \"#utility.yul\":2411:2621   */\n    tag_48:\n        /* \"#utility.yul\":2498:2502   */\n      0x00\n        /* \"#utility.yul\":2536:2538   */\n      0x20\n        /* \"#utility.yul\":2525:2534   */\n      dup3\n        /* \"#utility.yul\":2521:2539   */\n      add\n        /* \"#utility.yul\":2513:2539   */\n      swap1\n      pop\n        /* \"#utility.yul\":2549:2614   */\n      tag_124\n        /* \"#utility.yul\":2611:2612   */\n      0x00\n        /* \"#utility.yul\":2600:2609   */\n      dup4\n        /* \"#utility.yul\":2596:2613   */\n      add\n        /* \"#utility.yul\":2587:2593   */\n      dup5\n        /* \"#utility.yul\":2549:2614   */\n      tag_89\n      jump\t// in\n    tag_124:\n        /* \"#utility.yul\":2411:2621   */\n      swap3\n      swap2\n      pop\n      pop\n      jump\t// out\n        /* \"#utility.yul\":2627:2713   */\n    tag_90:\n        /* \"#utility.yul\":2662:2669   */\n      0x00\n        /* \"#utility.yul\":2702:2706   */\n      0xff\n        /* \"#utility.yul\":2695:2700   */\n      dup3\n        /* \"#utility.yul\":2691:2707   */\n      and\n        /* \"#utility.yul\":2680:2707   */\n      swap1\n      pop\n        /* \"#utility.yul\":2627:2713   */\n      swap2\n      swap1\n      pop\n      jump\t// out\n        /* \"#utility.yul\":2719:2831   */\n    tag_91:\n        /* \"#utility.yul\":2802:2824   */\n      tag_127\n        /* \"#utility.yul\":2818:2823   */\n      dup2\n        /* \"#utility.yul\":2802:2824   */\n      tag_90\n      jump\t// in\n    tag_127:\n        /* \"#utility.yul\":2797:2800   */\n      dup3\n        /* \"#utility.yul\":2790:2825   */\n      mstore\n        /* \"#utility.yul\":2719:2831   */\n      pop\n      pop\n      jump\t// out\n        /* \"#utility.yul\":2837:3051   */\n    tag_55:\n        /* \"#utility.yul\":2926:2930   */\n      0x00\n        /* \"#utility.yul\":2964:2966   */\n      0x20\n        /* \"#utility.yul\":2953:2962   */\n      dup3\n        /* \"#utility.yul\":2949:2967   */\n      add\n        /* \"#utility.yul\":2941:2967   */\n      swap1\n      pop\n        /* \"#utility.yul\":2977:3044   */\n      tag_129\n        /* \"#utility.yul\":3041:3042   */\n      0x00\n        /* \"#utility.yul\":3030:3039   */\n      dup4\n        /* \"#utility.yul\":3026:3043   */\n      add\n        /* \"#utility.yul\":3017:3023   */\n      dup5\n        /* \"#utility.yul\":2977:3044   */\n      tag_91\n      jump\t// in\n    tag_129:\n        /* \"#utility.yul\":2837:3051   */\n      swap3\n      swap2\n      pop\n      pop\n      jump\t// out\n        /* \"#utility.yul\":3057:3147   */\n    tag_92:\n        /* \"#utility.yul\":3092:3099   */\n      0x00\n        /* \"#utility.yul\":3135:3140   */\n      dup2\n        /* \"#utility.yul\":3132:3133   */\n      0x02\n        /* \"#utility.yul\":3121:3141   */\n      signextend\n        /* \"#utility.yul\":3110:3141   */\n      swap1\n      pop\n        /* \"#utility.yul\":3057:3147   */\n      swap2\n      swap1\n      pop\n      jump\t// out\n        /* \"#utility.yul\":3153:3265   */\n    tag_93:\n        /* \"#utility.yul\":3236:3258   */\n      tag_132\n        /* \"#utility.yul\":3252:3257   */\n      dup2\n        /* \"#utility.yul\":3236:3258   */\n      tag_92\n      jump\t// in\n    tag_132:\n        /* \"#utility.yul\":3231:3234   */\n      dup3\n        /* \"#utility.yul\":3224:3259   */\n      mstore\n        /* \"#utility.yul\":3153:3265   */\n      pop\n      pop\n      jump\t// out\n        /* \"#utility.yul\":3271:3485   */\n    tag_59:\n        /* \"#utility.yul\":3360:3364   */\n      0x00\n        /* \"#utility.yul\":3398:3400   */\n      0x20\n        /* \"#utility.yul\":3387:3396   */\n      dup3\n        /* \"#utility.yul\":3383:3401   */\n      add\n        /* \"#utility.yul\":3375:3401   */\n      swap1\n      pop\n        /* \"#utility.yul\":3411:3478   */\n      tag_134\n        /* \"#utility.yul\":3475:3476   */\n      0x00\n        /* \"#utility.yul\":3464:3473   */\n      dup4\n        /* \"#utility.yul\":3460:3477   */\n      add\n        /* \"#utility.yul\":3451:3457   */\n      dup5\n        /* \"#utility.yul\":3411:3478   */\n      tag_93\n      jump\t// in\n    tag_134:\n        /* \"#utility.yul\":3271:3485   */\n      swap3\n      swap2\n      pop\n      pop\n      jump\t// out\n\n    auxdata: 0xa264697066735822122021f45e119b8e9d298baa5d08fe08f69c367cab015aa9eadd6a304f97611d35e864736f6c63430008110033\n}\n",
				"bytecode": {
					"linkReferences": {},
					"object": "60806040527fffffffffffffffffffffffffffffffffffffffffffffffffffffffffffffff806000806101000a81548160ff021916908360000b60ff160217905550607f600060016101000a81548160ff021916908360000b60ff1602179055507fffffffffffffffffffffffffffffffffffffffffffffffffffffffffffff8000600060026101000a81548161ffff021916908360010b61ffff160217905550617fff600060046101000a81548161ffff021916908360010b61ffff16021790555060008060066101000a81548160ff021916908360ff16021790555060ff600060076101000a81548160ff021916908360ff16021790555060008060086101000a81548161ffff021916908361ffff16021790555061ffff6000600a6101000a81548161ffff021916908361ffff1602179055507fffffffffffffffffffffffffffffffffffffffffffffffffffffffffff8000006000600c6101000a81548162ffffff021916908360020b62ffffff160217905550627fffff6000600f6101000a81548162ffffff021916908360020b62ffffff1602179055507fffffffffffffffffffffffffffffffffffffffffffffffffffffffff80000000600060126101000a81548163ffffffff021916908360030b63ffffffff160217905550637fffffff600060166101000a81548163ffffffff021916908360030b63ffffffff160217905550600080601a6101000a81548162ffffff021916908362ffffff16021790555062ffffff6000601d6101000a81548162ffffff021916908362ffffff1602179055506000600160006101000a81548163ffffffff021916908363ffffffff16021790555063ffffffff600160046101000a81548163ffffffff021916908363ffffffff16021790555034801561029c57600080fd5b50610613806102ac6000396000f3fe608060405234801561001057600080fd5b50600436106101005760003560e01c80636b8d9d79116100975780639be4516c116100665780639be4516c1461026d5780639d17eff81461028b5780639e8cd403146102a9578063a2785213146102c757610100565b80636b8d9d79146101f55780637f2ac5df146102135780638bbb52bc146102315780638f2b0e6c1461024f57610100565b806340a22992116100d357806340a229921461017d57806342403ad01461019b57806343868877146101b957806359d4c25c146101d757610100565b8063166bcda5146101055780631fe554ff1461012357806332096f2a146101415780633c0edbfe1461015f575b600080fd5b61010d6102e5565b60405161011a919061043b565b60405180910390f35b61012b6102f8565b6040516101389190610475565b60405180910390f35b61014961030e565b60405161015691906104ac565b60405180910390f35b610167610321565b60405161017491906104e5565b60405180910390f35b610185610336565b604051610192919061051d565b60405180910390f35b6101a361034a565b6040516101b0919061043b565b60405180910390f35b6101c161035d565b6040516101ce9190610554565b60405180910390f35b6101df610370565b6040516101ec919061051d565b60405180910390f35b6101fd610384565b60405161020a919061058b565b60405180910390f35b61021b610397565b60405161022891906105c2565b60405180910390f35b6102396103aa565b6040516102469190610475565b60405180910390f35b6102576103c0565b60405161026491906105c2565b60405180910390f35b6102756103d3565b604051610282919061058b565b60405180910390f35b6102936103e6565b6040516102a091906104ac565b60405180910390f35b6102b16103f9565b6040516102be91906104e5565b60405180910390f35b6102cf61040e565b6040516102dc9190610554565b60405180910390f35b600060029054906101000a900460010b81565b600160009054906101000a900463ffffffff1681565b600060129054906101000a900460030b81565b6000601d9054906101000a900462ffffff1681565b600060089054906101000a900461ffff1681565b600060049054906101000a900460010b81565b600060019054906101000a900460000b81565b6000600a9054906101000a900461ffff1681565b600060069054906101000a900460ff1681565b6000600f9054906101000a900460020b81565b600160049054906101000a900463ffffffff1681565b6000600c9054906101000a900460020b81565b600060079054906101000a900460ff1681565b600060169054906101000a900460030b81565b6000601a9054906101000a900462ffffff1681565b60008054906101000a900460000b81565b60008160010b9050919050565b6104358161041f565b82525050565b6000602082019050610450600083018461042c565b92915050565b600063ffffffff82169050919050565b61046f81610456565b82525050565b600060208201905061048a6000830184610466565b92915050565b60008160030b9050919050565b6104a681610490565b82525050565b60006020820190506104c1600083018461049d565b92915050565b600062ffffff82169050919050565b6104df816104c7565b82525050565b60006020820190506104fa60008301846104d6565b92915050565b600061ffff82169050919050565b61051781610500565b82525050565b6000602082019050610532600083018461050e565b92915050565b60008160000b9050919050565b61054e81610538565b82525050565b60006020820190506105696000830184610545565b92915050565b600060ff82169050919050565b6105858161056f565b82525050565b60006020820190506105a0600083018461057c565b92915050565b60008160020b9050919050565b6105bc816105a6565b82525050565b60006020820190506105d760008301846105b3565b9291505056fea264697066735822122021f45e119b8e9d298baa5d08fe08f69c367cab015aa9eadd6a304f97611d35e864736f6c63430008110033",
					"opcodes": "PUSH1 0x80 PUSH1 0x40 MSTORE PUSH32 0xFFFFFFFFFFFFFFFFFFFFFFFFFFFFFFFFFFFFFFFFFFFFFFFFFFFFFFFFFFFFFF80 PUSH1 0x0 DUP1 PUSH2 0x100 EXP DUP2 SLOAD DUP2 PUSH1 0xFF MUL NOT AND SWAP1 DUP4 PUSH1 0x0 SIGNEXTEND PUSH1 0xFF AND MUL OR SWAP1 SSTORE POP PUSH1 0x7F PUSH1 0x0 PUSH1 0x1 PUSH2 0x100 EXP DUP2 SLOAD DUP2 PUSH1 0xFF MUL NOT AND SWAP1 DUP4 PUSH1 0x0 SIGNEXTEND PUSH1 0xFF AND MUL OR SWAP1 SSTORE POP PUSH32 0xFFFFFFFFFFFFFFFFFFFFFFFFFFFFFFFFFFFFFFFFFFFFFFFFFFFFFFFFFFFF8000 PUSH1 0x0 PUSH1 0x2 PUSH2 0x100 EXP DUP2 SLOAD DUP2 PUSH2 0xFFFF MUL NOT AND SWAP1 DUP4 PUSH1 0x1 SIGNEXTEND PUSH2 0xFFFF AND MUL OR SWAP1 SSTORE POP PUSH2 0x7FFF PUSH1 0x0 PUSH1 0x4 PUSH2 0x100 EXP DUP2 SLOAD DUP2 PUSH2 0xFFFF MUL NOT AND SWAP1 DUP4 PUSH1 0x1 SIGNEXTEND PUSH2 0xFFFF AND MUL OR SWAP1 SSTORE POP PUSH1 0x0 DUP1 PUSH1 0x6 PUSH2 0x100 EXP DUP2 SLOAD DUP2 PUSH1 0xFF MUL NOT AND SWAP1 DUP4 PUSH1 0xFF AND MUL OR SWAP1 SSTORE POP PUSH1 0xFF PUSH1 0x0 PUSH1 0x7 PUSH2 0x100 EXP DUP2 SLOAD DUP2 PUSH1 0xFF MUL NOT AND SWAP1 DUP4 PUSH1 0xFF AND MUL OR SWAP1 SSTORE POP PUSH1 0x0 DUP1 PUSH1 0x8 PUSH2 0x100 EXP DUP2 SLOAD DUP2 PUSH2 0xFFFF MUL NOT AND SWAP1 DUP4 PUSH2 0xFFFF AND MUL OR SWAP1 SSTORE POP PUSH2 0xFFFF PUSH1 0x0 PUSH1 0xA PUSH2 0x100 EXP DUP2 SLOAD DUP2 PUSH2 0xFFFF MUL NOT AND SWAP1 DUP4 PUSH2 0xFFFF AND MUL OR SWAP1 SSTORE POP PUSH32 0xFFFFFFFFFFFFFFFFFFFFFFFFFFFFFFFFFFFFFFFFFFFFFFFFFFFFFFFFFF800000 PUSH1 0x0 PUSH1 0xC PUSH2 0x100 EXP DUP2 SLOAD DUP2 PUSH3 0xFFFFFF MUL NOT AND SWAP1 DUP4 PUSH1 0x2 SIGNEXTEND PUSH3 0xFFFFFF AND MUL OR SWAP1 SSTORE POP PUSH3 0x7FFFFF PUSH1 0x0 PUSH1 0xF PUSH2 0x100 EXP DUP2 SLOAD DUP2 PUSH3 0xFFFFFF MUL NOT AND SWAP1 DUP4 PUSH1 0x2 SIGNEXTEND PUSH3 0xFFFFFF AND MUL OR SWAP1 SSTORE POP PUSH32 0xFFFFFFFFFFFFFFFFFFFFFFFFFFFFFFFFFFFFFFFFFFFFFFFFFFFFFFFF80000000 PUSH1 0x0 PUSH1 0x12 PUSH2 0x100 EXP DUP2 SLOAD DUP2 PUSH4 0xFFFFFFFF MUL NOT AND SWAP1 DUP4 PUSH1 0x3 SIGNEXTEND PUSH4 0xFFFFFFFF AND MUL OR SWAP1 SSTORE POP PUSH4 0x7FFFFFFF PUSH1 0x0 PUSH1 0x16 PUSH2 0x100 EXP DUP2 SLOAD DUP2 PUSH4 0xFFFFFFFF MUL NOT AND SWAP1 DUP4 PUSH1 0x3 SIGNEXTEND PUSH4 0xFFFFFFFF AND MUL OR SWAP1 SSTORE POP PUSH1 0x0 DUP1 PUSH1 0x1A PUSH2 0x100 EXP DUP2 SLOAD DUP2 PUSH3 0xFFFFFF MUL NOT AND SWAP1 DUP4 PUSH3 0xFFFFFF AND MUL OR SWAP1 SSTORE POP PUSH3 0xFFFFFF PUSH1 0x0 PUSH1 0x1D PUSH2 0x100 EXP DUP2 SLOAD DUP2 PUSH3 0xFFFFFF MUL NOT AND SWAP1 DUP4 PUSH3 0xFFFFFF AND MUL OR SWAP1 SSTORE POP PUSH1 0x0 PUSH1 0x1 PUSH1 0x0 PUSH2 0x100 EXP DUP2 SLOAD DUP2 PUSH4 0xFFFFFFFF MUL NOT AND SWAP1 DUP4 PUSH4 0xFFFFFFFF AND MUL OR SWAP1 SSTORE POP PUSH4 0xFFFFFFFF PUSH1 0x1 PUSH1 0x4 PUSH2 0x100 EXP DUP2 SLOAD DUP2 PUSH4 0xFFFFFFFF MUL NOT AND SWAP1 DUP4 PUSH4 0xFFFFFFFF AND MUL OR SWAP1 SSTORE POP CALLVALUE DUP1 ISZERO PUSH2 0x29C JUMPI PUSH1 0x0 DUP1 REVERT JUMPDEST POP PUSH2 0x613 DUP1 PUSH2 0x2AC PUSH1 0x0 CODECOPY PUSH1 0x0 RETURN INVALID PUSH1 0x80 PUSH1 0x40 MSTORE CALLVALUE DUP1 ISZERO PUSH2 0x10 JUMPI PUSH1 0x0 DUP1 REVERT JUMPDEST POP PUSH1 0x4 CALLDATASIZE LT PUSH2 0x100 JUMPI PUSH1 0x0 CALLDATALOAD PUSH1 0xE0 SHR DUP1 PUSH4 0x6B8D9D79 GT PUSH2 0x97 JUMPI DUP1 PUSH4 0x9BE4516C GT PUSH2 0x66 JUMPI DUP1 PUSH4 0x9BE4516C EQ PUSH2 0x26D JUMPI DUP1 PUSH4 0x9D17EFF8 EQ PUSH2 0x28B JUMPI DUP1 PUSH4 0x9E8CD403 EQ PUSH2 0x2A9 JUMPI DUP1 PUSH4 0xA2785213 EQ PUSH2 0x2C7 JUMPI PUSH2 0x100 JUMP JUMPDEST DUP1 PUSH4 0x6B8D9D79 EQ PUSH2 0x1F5 JUMPI DUP1 PUSH4 0x7F2AC5DF EQ PUSH2 0x213 JUMPI DUP1 PUSH4 0x8BBB52BC EQ PUSH2 0x231 JUMPI DUP1 PUSH4 0x8F2B0E6C EQ PUSH2 0x24F JUMPI PUSH2 0x100 JUMP JUMPDEST DUP1 PUSH4 0x40A22992 GT PUSH2 0xD3 JUMPI DUP1 PUSH4 0x40A22992 EQ PUSH2 0x17D JUMPI DUP1 PUSH4 0x42403AD0 EQ PUSH2 0x19B JUMPI DUP1 PUSH4 0x43868877 EQ PUSH2 0x1B9 JUMPI DUP1 PUSH4 0x59D4C25C EQ PUSH2 0x1D7 JUMPI PUSH2 0x100 JUMP JUMPDEST DUP1 PUSH4 0x166BCDA5 EQ PUSH2 0x105 JUMPI DUP1 PUSH4 0x1FE554FF EQ PUSH2 0x123 JUMPI DUP1 PUSH4 0x32096F2A EQ PUSH2 0x141 JUMPI DUP1 PUSH4 0x3C0EDBFE EQ PUSH2 0x15F JUMPI JUMPDEST PUSH1 0x0 DUP1 REVERT JUMPDEST PUSH2 0x10D PUSH2 0x2E5 JUMP JUMPDEST PUSH1 0x40 MLOAD PUSH2 0x11A SWAP2 SWAP1 PUSH2 0x43B JUMP JUMPDEST PUSH1 0x40 MLOAD DUP1 SWAP2 SUB SWAP1 RETURN JUMPDEST PUSH2 0x12B PUSH2 0x2F8 JUMP JUMPDEST PUSH1 0x40 MLOAD PUSH2 0x138 SWAP2 SWAP1 PUSH2 0x475 JUMP JUMPDEST PUSH1 0x40 MLOAD DUP1 SWAP2 SUB SWAP1 RETURN JUMPDEST PUSH2 0x149 PUSH2 0x30E JUMP JUMPDEST PUSH1 0x40 MLOAD PUSH2 0x156 SWAP2 SWAP1 PUSH2 0x4AC JUMP JUMPDEST PUSH1 0x40 MLOAD DUP1 SWAP2 SUB SWAP1 RETURN JUMPDEST PUSH2 0x167 PUSH2 0x321 JUMP JUMPDEST PUSH1 0x40 MLOAD PUSH2 0x174 SWAP2 SWAP1 PUSH2 0x4E5 JUMP JUMPDEST PUSH1 0x40 MLOAD DUP1 SWAP2 SUB SWAP1 RETURN JUMPDEST PUSH2 0x185 PUSH2 0x336 JUMP JUMPDEST PUSH1 0x40 MLOAD PUSH2 0x192 SWAP2 SWAP1 PUSH2 0x51D JUMP JUMPDEST PUSH1 0x40 MLOAD DUP1 SWAP2 SUB SWAP1 RETURN JUMPDEST PUSH2 0x1A3 PUSH2 0x34A JUMP JUMPDEST PUSH1 0x40 MLOAD PUSH2 0x1B0 SWAP2 SWAP1 PUSH2 0x43B JUMP JUMPDEST PUSH1 0x40 MLOAD DUP1 SWAP2 SUB SWAP1 RETURN JUMPDEST PUSH2 0x1C1 PUSH2 0x35D JUMP JUMPDEST PUSH1 0x40 MLOAD PUSH2 0x1CE SWAP2 SWAP1 PUSH2 0x554 JUMP JUMPDEST PUSH1 0x40 MLOAD DUP1 SWAP2 SUB SWAP1 RETURN JUMPDEST PUSH2 0x1DF PUSH2 0x370 JUMP JUMPDEST PUSH1 0x40 MLOAD PUSH2 0x1EC SWAP2 SWAP1 PUSH2 0x51D JUMP JUMPDEST PUSH1 0x40 MLOAD DUP1 SWAP2 SUB SWAP1 RETURN JUMPDEST PUSH2 0x1FD PUSH2 0x384 JUMP JUMPDEST PUSH1 0x40 MLOAD PUSH2 0x20A SWAP2 SWAP1 PUSH2 0x58B JUMP JUMPDEST PUSH1 0x40 MLOAD DUP1 SWAP2 SUB SWAP1 RETURN JUMPDEST PUSH2 0x21B PUSH2 0x397 JUMP JUMPDEST PUSH1 0x40 MLOAD PUSH2 0x228 SWAP2 SWAP1 PUSH2 0x5C2 JUMP JUMPDEST PUSH1 0x40 MLOAD DUP1 SWAP2 SUB SWAP1 RETURN JUMPDEST PUSH2 0x239 PUSH2 0x3AA JUMP JUMPDEST PUSH1 0x40 MLOAD PUSH2 0x246 SWAP2 SWAP1 PUSH2 0x475 JUMP JUMPDEST PUSH1 0x40 MLOAD DUP1 SWAP2 SUB SWAP1 RETURN JUMPDEST PUSH2 0x257 PUSH2 0x3C0 JUMP JUMPDEST PUSH1 0x40 MLOAD PUSH2 0x264 SWAP2 SWAP1 PUSH2 0x5C2 JUMP JUMPDEST PUSH1 0x40 MLOAD DUP1 SWAP2 SUB SWAP1 RETURN JUMPDEST PUSH2 0x275 PUSH2 0x3D3 JUMP JUMPDEST PUSH1 0x40 MLOAD PUSH2 0x282 SWAP2 SWAP1 PUSH2 0x58B JUMP JUMPDEST PUSH1 0x40 MLOAD DUP1 SWAP2 SUB SWAP1 RETURN JUMPDEST PUSH2 0x293 PUSH2 0x3E6 JUMP JUMPDEST PUSH1 0x40 MLOAD PUSH2 0x2A0 SWAP2 SWAP1 PUSH2 0x4AC JUMP JUMPDEST PUSH1 0x40 MLOAD DUP1 SWAP2 SUB SWAP1 RETURN JUMPDEST PUSH2 0x2B1 PUSH2 0x3F9 JUMP JUMPDEST PUSH1 0x40 MLOAD PUSH2 0x2BE SWAP2 SWAP1 PUSH2 0x4E5 JUMP JUMPDEST PUSH1 0x40 MLOAD DUP1 SWAP2 SUB SWAP1 RETURN JUMPDEST PUSH2 0x2CF PUSH2 0x40E JUMP JUMPDEST PUSH1 0x40 MLOAD PUSH2 0x2DC SWAP2 SWAP1 PUSH2 0x554 JUMP JUMPDEST PUSH1 0x40 MLOAD DUP1 SWAP2 SUB SWAP1 RETURN JUMPDEST PUSH1 0x0 PUSH1 0x2 SWAP1 SLOAD SWAP1 PUSH2 0x100 EXP SWAP1 DIV PUSH1 0x1 SIGNEXTEND DUP2 JUMP JUMPDEST PUSH1 0x1 PUSH1 0x0 SWAP1 SLOAD SWAP1 PUSH2 0x100 EXP SWAP1 DIV PUSH4 0xFFFFFFFF AND DUP2 JUMP JUMPDEST PUSH1 0x0 PUSH1 0x12 SWAP1 SLOAD SWAP1 PUSH2 0x100 EXP SWAP1 DIV PUSH1 0x3 SIGNEXTEND DUP2 JUMP JUMPDEST PUSH1 0x0 PUSH1 0x1D SWAP1 SLOAD SWAP1 PUSH2 0x100 EXP SWAP1 DIV PUSH3 0xFFFFFF AND DUP2 JUMP JUMPDEST PUSH1 0x0 PUSH1 0x8 SWAP1 SLOAD SWAP1 PUSH2 0x100 EXP SWAP1 DIV PUSH2 0xFFFF AND DUP2 JUMP JUMPDEST PUSH1 0x0 PUSH1 0x4 SWAP1 SLOAD SWAP1 PUSH2 0x100 EXP SWAP1 DIV PUSH1 0x1 SIGNEXTEND DUP2 JUMP JUMPDEST PUSH1 0x0 PUSH1 0x1 SWAP1 SLOAD SWAP1 PUSH2 0x100 EXP SWAP1 DIV PUSH1 0x0 SIGNEXTEND DUP2 JUMP JUMPDEST PUSH1 0x0 PUSH1 0xA SWAP1 SLOAD SWAP1 PUSH2 0x100 EXP SWAP1 DIV PUSH2 0xFFFF AND DUP2 JUMP JUMPDEST PUSH1 0x0 PUSH1 0x6 SWAP1 SLOAD SWAP1 PUSH2 0x100 EXP SWAP1 DIV PUSH1 0xFF AND DUP2 JUMP JUMPDEST PUSH1 0x0 PUSH1 0xF SWAP1 SLOAD SWAP1 PUSH2 0x100 EXP SWAP1 DIV PUSH1 0x2 SIGNEXTEND DUP2 JUMP JUMPDEST PUSH1 0x1 PUSH1 0x4 SWAP1 SLOAD SWAP1 PUSH2 0x100 EXP SWAP1 DIV PUSH4 0xFFFFFFFF AND DUP2 JUMP JUMPDEST PUSH1 0x0 PUSH1 0xC SWAP1 SLOAD SWAP1 PUSH2 0x100 EXP SWAP1 DIV PUSH1 0x2 SIGNEXTEND DUP2 JUMP JUMPDEST PUSH1 0x0 PUSH1 0x7 SWAP1 SLOAD SWAP1 PUSH2 0x100 EXP SWAP1 DIV PUSH1 0xFF AND DUP2 JUMP JUMPDEST PUSH1 0x0 PUSH1 0x16 SWAP1 SLOAD SWAP1 PUSH2 0x100 EXP SWAP1 DIV PUSH1 0x3 SIGNEXTEND DUP2 JUMP JUMPDEST PUSH1 0x0 PUSH1 0x1A SWAP1 SLOAD SWAP1 PUSH2 0x100 EXP SWAP1 DIV PUSH3 0xFFFFFF AND DUP2 JUMP JUMPDEST PUSH1 0x0 DUP1 SLOAD SWAP1 PUSH2 0x100 EXP SWAP1 DIV PUSH1 0x0 SIGNEXTEND DUP2 JUMP JUMPDEST PUSH1 0x0 DUP2 PUSH1 0x1 SIGNEXTEND SWAP1 POP SWAP2 SWAP1 POP JUMP JUMPDEST PUSH2 0x435 DUP2 PUSH2 0x41F JUMP JUMPDEST DUP3 MSTORE POP POP JUMP JUMPDEST PUSH1 0x0 PUSH1 0x20 DUP3 ADD SWAP1 POP PUSH2 0x450 PUSH1 0x0 DUP4 ADD DUP5 PUSH2 0x42C JUMP JUMPDEST SWAP3 SWAP2 POP POP JUMP JUMPDEST PUSH1 0x0 PUSH4 0xFFFFFFFF DUP3 AND SWAP1 POP SWAP2 SWAP1 POP JUMP JUMPDEST PUSH2 0x46F DUP2 PUSH2 0x456 JUMP JUMPDEST DUP3 MSTORE POP POP JUMP JUMPDEST PUSH1 0x0 PUSH1 0x20 DUP3 ADD SWAP1 POP PUSH2 0x48A PUSH1 0x0 DUP4 ADD DUP5 PUSH2 0x466 JUMP JUMPDEST SWAP3 SWAP2 POP POP JUMP JUMPDEST PUSH1 0x0 DUP2 PUSH1 0x3 SIGNEXTEND SWAP1 POP SWAP2 SWAP1 POP JUMP JUMPDEST PUSH2 0x4A6 DUP2 PUSH2 0x490 JUMP JUMPDEST DUP3 MSTORE POP POP JUMP JUMPDEST PUSH1 0x0 PUSH1 0x20 DUP3 ADD SWAP1 POP PUSH2 0x4C1 PUSH1 0x0 DUP4 ADD DUP5 PUSH2 0x49D JUMP JUMPDEST SWAP3 SWAP2 POP POP JUMP JUMPDEST PUSH1 0x0 PUSH3 0xFFFFFF DUP3 AND SWAP1 POP SWAP2 SWAP1 POP JUMP JUMPDEST PUSH2 0x4DF DUP2 PUSH2 0x4C7 JUMP JUMPDEST DUP3 MSTORE POP POP JUMP JUMPDEST PUSH1 0x0 PUSH1 0x20 DUP3 ADD SWAP1 POP PUSH2 0x4FA PUSH1 0x0 DUP4 ADD DUP5 PUSH2 0x4D6 JUMP JUMPDEST SWAP3 SWAP2 POP POP JUMP JUMPDEST PUSH1 0x0 PUSH2 0xFFFF DUP3 AND SWAP1 POP SWAP2 SWAP1 POP JUMP JUMPDEST PUSH2 0x517 DUP2 PUSH2 0x500 JUMP JUMPDEST DUP3 MSTORE POP POP JUMP JUMPDEST PUSH1 0x0 PUSH1 0x20 DUP3 ADD SWAP1 POP PUSH2 0x532 PUSH1 0x0 DUP4 ADD DUP5 PUSH2 0x50E JUMP JUMPDEST SWAP3 SWAP2 POP POP JUMP JUMPDEST PUSH1 0x0 DUP2 PUSH1 0x0 SIGNEXTEND SWAP1 POP SWAP2 SWAP1 POP JUMP JUMPDEST PUSH2 0x54E DUP2 PUSH2 0x538 JUMP JUMPDEST DUP3 MSTORE POP POP JUMP JUMPDEST PUSH1 0x0 PUSH1 0x20 DUP3 ADD SWAP1 POP PUSH2 0x569 PUSH1 0x0 DUP4 ADD DUP5 PUSH2 0x545 JUMP JUMPDEST SWAP3 SWAP2 POP POP JUMP JUMPDEST PUSH1 0x0 PUSH1 0xFF DUP3 AND SWAP1 POP SWAP2 SWAP1 POP JUMP JUMPDEST PUSH2 0x585 DUP2 PUSH2 0x56F JUMP JUMPDEST DUP3 MSTORE POP POP JUMP JUMPDEST PUSH1 0x0 PUSH1 0x20 DUP3 ADD SWAP1 POP PUSH2 0x5A0 PUSH1 0x0 DUP4 ADD DUP5 PUSH2 0x57C JUMP JUMPDEST SWAP3 SWAP2 POP POP JUMP JUMPDEST PUSH1 0x0 DUP2 PUSH1 0x2 SIGNEXTEND SWAP1 POP SWAP2 SWAP1 POP JUMP JUMPDEST PUSH2 0x5BC DUP2 PUSH2 0x5A6 JUMP JUMPDEST DUP3 MSTORE POP POP JUMP JUMPDEST PUSH1 0x0 PUSH1 0x20 DUP3 ADD SWAP1 POP PUSH2 0x5D7 PUSH1 0x0 DUP4 ADD DUP5 PUSH2 0x5B3 JUMP JUMPDEST SWAP3 SWAP2 POP POP JUMP INVALID LOG2 PUSH5 0x6970667358 0x22 SLT KECCAK256 0x21 DELEGATECALL 0x5E GT SWAP12 DUP15 SWAP14 0x29 DUP12 0xAA 0x5D ADDMOD INVALID ADDMOD 0xF6 SWAP13 CALLDATASIZE PUSH29 0xAB015AA9EADD6A304F97611D35E864736F6C6343000811003300000000 "
				},
				"gasEstimates": {
					"creation": {
						"codeDepositCost": "311000",
						"executionCost": "389385",
						"totalCost": "700385"
					},
					"external": {
						"max16()": "2570",
						"max24()": "2570",
						"max32()": "2569",
						"max8()": "2592",
						"min16()": "2549",
						"min24()": "2614",
						"min32()": "2593",
						"min8()": "2560",
						"umax16()": "2610",
						"umax24()": "2611",
						"umax32()": "2588",
						"umax8()": "2543",
						"umin16()": "2544",
						"umin24()": "2587",
						"umin32()": "2517",
						"umin8()": "2544"
					}
				},
				"methodIdentifiers": {
					"max16()": "42403ad0",
					"max24()": "7f2ac5df",
					"max32()": "9d17eff8",
					"max8()": "43868877",
					"min16()": "166bcda5",
					"min24()": "8f2b0e6c",
					"min32()": "32096f2a",
					"min8()": "a2785213",
					"umax16()": "59d4c25c",
					"umax24()": "3c0edbfe",
					"umax32()": "8bbb52bc",
					"umax8()": "9be4516c",
					"umin16()": "40a22992",
					"umin24()": "9e8cd403",
					"umin32()": "1fe554ff",
					"umin8()": "6b8d9d79"
				}
			},
			"storageLayout": {
				"storage": [
					{
						"astId": 8,
						"contract": "contracts/minmax.sol:minmax",
						"label": "min8",
						"offset": 0,
						"slot": "0",
						"type": "t_int8"
					},
					{
						"astId": 15,
						"contract": "contracts/minmax.sol:minmax",
						"label": "max8",
						"offset": 1,
						"slot": "0",
						"type": "t_int8"
					},
					{
						"astId": 22,
						"contract": "contracts/minmax.sol:minmax",
						"label": "min16",
						"offset": 2,
						"slot": "0",
						"type": "t_int16"
					},
					{
						"astId": 29,
						"contract": "contracts/minmax.sol:minmax",
						"label": "max16",
						"offset": 4,
						"slot": "0",
						"type": "t_int16"
					},
					{
						"astId": 36,
						"contract": "contracts/minmax.sol:minmax",
						"label": "umin8",
						"offset": 6,
						"slot": "0",
						"type": "t_uint8"
					},
					{
						"astId": 43,
						"contract": "contracts/minmax.sol:minmax",
						"label": "umax8",
						"offset": 7,
						"slot": "0",
						"type": "t_uint8"
					},
					{
						"astId": 50,
						"contract": "contracts/minmax.sol:minmax",
						"label": "umin16",
						"offset": 8,
						"slot": "0",
						"type": "t_uint16"
					},
					{
						"astId": 57,
						"contract": "contracts/minmax.sol:minmax",
						"label": "umax16",
						"offset": 10,
						"slot": "0",
						"type": "t_uint16"
					},
					{
						"astId": 64,
						"contract": "contracts/minmax.sol:minmax",
						"label": "min24",
						"offset": 12,
						"slot": "0",
						"type": "t_int24"
					},
					{
						"astId": 71,
						"contract": "contracts/minmax.sol:minmax",
						"label": "max24",
						"offset": 15,
						"slot": "0",
						"type": "t_int24"
					},
					{
						"astId": 78,
						"contract": "contracts/minmax.sol:minmax",
						"label": "min32",
						"offset": 18,
						"slot": "0",
						"type": "t_int32"
					},
					{
						"astId": 85,
						"contract": "contracts/minmax.sol:minmax",
						"label": "max32",
						"offset": 22,
						"slot": "0",
						"type": "t_int32"
					},
					{
						"astId": 92,
						"contract": "contracts/minmax.sol:minmax",
						"label": "umin24",
						"offset": 26,
						"slot": "0",
						"type": "t_uint24"
					},
					{
						"astId": 99,
						"contract": "contracts/minmax.sol:minmax",
						"label": "umax24",
						"offset": 29,
						"slot": "0",
						"type": "t_uint24"
					},
					{
						"astId": 106,
						"contract": "contracts/minmax.sol:minmax",
						"label": "umin32",
						"offset": 0,
						"slot": "1",
						"type": "t_uint32"
					},
					{
						"astId": 113,
						"contract": "contracts/minmax.sol:minmax",
						"label": "umax32",
						"offset": 4,
						"slot": "1",
						"type": "t_uint32"
					}
				],
				"types": {
					"t_int16": {
						"encoding": "inplace",
						"label": "int16",
						"numberOfBytes": "2"
					},
					"t_int24": {
						"encoding": "inplace",
						"label": "int24",
						"numberOfBytes": "3"
					},
					"t_int32": {
						"encoding": "inplace",
						"label": "int32",
						"numberOfBytes": "4"
					},
					"t_int8": {
						"encoding": "inplace",
						"label": "int8",
						"numberOfBytes": "1"
					},
					"t_uint16": {
						"encoding": "inplace",
						"label": "uint16",
						"numberOfBytes": "2"
					},
					"t_uint24": {
						"encoding": "inplace",
						"label": "uint24",
						"numberOfBytes": "3"
					},
					"t_uint32": {
						"encoding": "inplace",
						"label": "uint32",
						"numberOfBytes": "4"
					},
					"t_uint8": {
						"encoding": "inplace",
						"label": "uint8",
						"numberOfBytes": "1"
					}
				}
			},
			"userdoc": {
				"kind": "user",
				"methods": {},
				"version": 1
			}
		}
	}
}