{
	"contracts/01-8 enumTask1.sol": {
		"Enum": {
			"abi": [
				{
					"inputs": [],
					"name": "Fail",
					"outputs": [],
					"stateMutability": "nonpayable",
					"type": "function"
				},
				{
					"inputs": [],
					"name": "Pass",
					"outputs": [],
					"stateMutability": "nonpayable",
					"type": "function"
				},
				{
					"inputs": [],
					"name": "Scholarships",
					"outputs": [],
					"stateMutability": "nonpayable",
					"type": "function"
				},
				{
					"inputs": [],
					"name": "e1",
					"outputs": [
						{
							"internalType": "enum Enum.Exam",
							"name": "",
							"type": "uint8"
						}
					],
					"stateMutability": "view",
					"type": "function"
				},
				{
					"inputs": [],
					"name": "idelete",
					"outputs": [],
					"stateMutability": "nonpayable",
					"type": "function"
				}
			],
			"devdoc": {
				"kind": "dev",
				"methods": {},
				"version": 1
			},
			"evm": {
				"assembly": "    /* \"contracts/01-8 enumTask1.sol\":58:462  contract Enum{... */\n  mstore(0x40, 0x80)\n  callvalue\n  dup1\n  iszero\n  tag_1\n  jumpi\n  0x00\n  dup1\n  revert\ntag_1:\n  pop\n  dataSize(sub_0)\n  dup1\n  dataOffset(sub_0)\n  0x00\n  codecopy\n  0x00\n  return\nstop\n\nsub_0: assembly {\n        /* \"contracts/01-8 enumTask1.sol\":58:462  contract Enum{... */\n      mstore(0x40, 0x80)\n      callvalue\n      dup1\n      iszero\n      tag_1\n      jumpi\n      0x00\n      dup1\n      revert\n    tag_1:\n      pop\n      jumpi(tag_2, lt(calldatasize, 0x04))\n      shr(0xe0, calldataload(0x00))\n      dup1\n      0x2ac279af\n      eq\n      tag_3\n      jumpi\n      dup1\n      0x552670ff\n      eq\n      tag_4\n      jumpi\n      dup1\n      0x60595433\n      eq\n      tag_5\n      jumpi\n      dup1\n      0xa2c2d666\n      eq\n      tag_6\n      jumpi\n      dup1\n      0xea70a017\n      eq\n      tag_7\n      jumpi\n    tag_2:\n      0x00\n      dup1\n      revert\n        /* \"contracts/01-8 enumTask1.sol\":326:410  function Scholarships() public {... */\n    tag_3:\n      tag_8\n      tag_9\n      jump\t// in\n    tag_8:\n      stop\n        /* \"contracts/01-8 enumTask1.sol\":258:324  function Fail()public {... */\n    tag_4:\n      tag_10\n      tag_11\n      jump\t// in\n    tag_10:\n      stop\n        /* \"contracts/01-8 enumTask1.sol\":147:255  function Pass() public{... */\n    tag_5:\n      tag_12\n      tag_13\n      jump\t// in\n    tag_12:\n      stop\n        /* \"contracts/01-8 enumTask1.sol\":129:143  Exam public e1 */\n    tag_6:\n      tag_14\n      tag_15\n      jump\t// in\n    tag_14:\n      mload(0x40)\n      tag_16\n      swap2\n      swap1\n      tag_17\n      jump\t// in\n    tag_16:\n      mload(0x40)\n      dup1\n      swap2\n      sub\n      swap1\n      return\n        /* \"contracts/01-8 enumTask1.sol\":412:457  function idelete()public {... */\n    tag_7:\n      tag_18\n      tag_19\n      jump\t// in\n    tag_18:\n      stop\n        /* \"contracts/01-8 enumTask1.sol\":326:410  function Scholarships() public {... */\n    tag_9:\n        /* \"contracts/01-8 enumTask1.sol\":367:376  Exam.Pass */\n      0x01\n        /* \"contracts/01-8 enumTask1.sol\":363:376  e1==Exam.Pass */\n      0x03\n      dup2\n      gt\n      iszero\n      tag_21\n      jumpi\n      tag_22\n      tag_23\n      jump\t// in\n    tag_22:\n    tag_21:\n        /* \"contracts/01-8 enumTask1.sol\":363:365  e1 */\n      0x00\n      dup1\n      sload\n      swap1\n      0x0100\n      exp\n      swap1\n      div\n      0xff\n      and\n        /* \"contracts/01-8 enumTask1.sol\":363:376  e1==Exam.Pass */\n      0x03\n      dup2\n      gt\n      iszero\n      tag_24\n      jumpi\n      tag_25\n      tag_23\n      jump\t// in\n    tag_25:\n    tag_24:\n      sub\n        /* \"contracts/01-8 enumTask1.sol\":360:407  if(e1==Exam.Pass){... */\n      tag_26\n      jumpi\n        /* \"contracts/01-8 enumTask1.sol\":387:403  Exam.Scholarship */\n      0x03\n        /* \"contracts/01-8 enumTask1.sol\":384:386  e1 */\n      0x00\n      dup1\n        /* \"contracts/01-8 enumTask1.sol\":384:403  e1=Exam.Scholarship */\n      0x0100\n      exp\n      dup2\n      sload\n      dup2\n      0xff\n      mul\n      not\n      and\n      swap1\n      dup4\n      0x03\n      dup2\n      gt\n      iszero\n      tag_27\n      jumpi\n      tag_28\n      tag_23\n      jump\t// in\n    tag_28:\n    tag_27:\n      mul\n      or\n      swap1\n      sstore\n      pop\n        /* \"contracts/01-8 enumTask1.sol\":360:407  if(e1==Exam.Pass){... */\n    tag_26:\n        /* \"contracts/01-8 enumTask1.sol\":326:410  function Scholarships() public {... */\n      jump\t// out\n        /* \"contracts/01-8 enumTask1.sol\":258:324  function Fail()public {... */\n    tag_11:\n        /* \"contracts/01-8 enumTask1.sol\":290:303  Exam.Checking */\n      0x00\n        /* \"contracts/01-8 enumTask1.sol\":286:303  e1==Exam.Checking */\n      0x03\n      dup2\n      gt\n      iszero\n      tag_30\n      jumpi\n      tag_31\n      tag_23\n      jump\t// in\n    tag_31:\n    tag_30:\n        /* \"contracts/01-8 enumTask1.sol\":286:288  e1 */\n      0x00\n      dup1\n      sload\n      swap1\n      0x0100\n      exp\n      swap1\n      div\n      0xff\n      and\n        /* \"contracts/01-8 enumTask1.sol\":286:303  e1==Exam.Checking */\n      0x03\n      dup2\n      gt\n      iszero\n      tag_32\n      jumpi\n      tag_33\n      tag_23\n      jump\t// in\n    tag_33:\n    tag_32:\n      sub\n        /* \"contracts/01-8 enumTask1.sol\":283:323  if(e1==Exam.Checking){... */\n      tag_34\n      jumpi\n        /* \"contracts/01-8 enumTask1.sol\":310:319  Exam.Fail */\n      0x02\n        /* \"contracts/01-8 enumTask1.sol\":307:309  e1 */\n      0x00\n      dup1\n        /* \"contracts/01-8 enumTask1.sol\":307:319  e1=Exam.Fail */\n      0x0100\n      exp\n      dup2\n      sload\n      dup2\n      0xff\n      mul\n      not\n      and\n      swap1\n      dup4\n      0x03\n      dup2\n      gt\n      iszero\n      tag_35\n      jumpi\n      tag_36\n      tag_23\n      jump\t// in\n    tag_36:\n    tag_35:\n      mul\n      or\n      swap1\n      sstore\n      pop\n        /* \"contracts/01-8 enumTask1.sol\":283:323  if(e1==Exam.Checking){... */\n    tag_34:\n        /* \"contracts/01-8 enumTask1.sol\":258:324  function Fail()public {... */\n      jump\t// out\n        /* \"contracts/01-8 enumTask1.sol\":147:255  function Pass() public{... */\n    tag_13:\n        /* \"contracts/01-8 enumTask1.sol\":182:195  Exam.Checking */\n      0x00\n        /* \"contracts/01-8 enumTask1.sol\":176:195  e1 == Exam.Checking */\n      0x03\n      dup2\n      gt\n      iszero\n      tag_38\n      jumpi\n      tag_39\n      tag_23\n      jump\t// in\n    tag_39:\n    tag_38:\n        /* \"contracts/01-8 enumTask1.sol\":176:178  e1 */\n      0x00\n      dup1\n      sload\n      swap1\n      0x0100\n      exp\n      swap1\n      div\n      0xff\n      and\n        /* \"contracts/01-8 enumTask1.sol\":176:195  e1 == Exam.Checking */\n      0x03\n      dup2\n      gt\n      iszero\n      tag_40\n      jumpi\n      tag_41\n      tag_23\n      jump\t// in\n    tag_41:\n    tag_40:\n      sub\n        /* \"contracts/01-8 enumTask1.sol\":173:254  if(e1 == Exam.Checking){... */\n      tag_42\n      jumpi\n        /* \"contracts/01-8 enumTask1.sol\":205:214  Exam.Pass */\n      0x01\n        /* \"contracts/01-8 enumTask1.sol\":200:202  e1 */\n      0x00\n      dup1\n        /* \"contracts/01-8 enumTask1.sol\":200:214  e1 = Exam.Pass */\n      0x0100\n      exp\n      dup2\n      sload\n      dup2\n      0xff\n      mul\n      not\n      and\n      swap1\n      dup4\n      0x03\n      dup2\n      gt\n      iszero\n      tag_43\n      jumpi\n      tag_44\n      tag_23\n      jump\t// in\n    tag_44:\n    tag_43:\n      mul\n      or\n      swap1\n      sstore\n      pop\n        /* \"contracts/01-8 enumTask1.sol\":173:254  if(e1 == Exam.Checking){... */\n    tag_42:\n        /* \"contracts/01-8 enumTask1.sol\":147:255  function Pass() public{... */\n      jump\t// out\n        /* \"contracts/01-8 enumTask1.sol\":129:143  Exam public e1 */\n    tag_15:\n      0x00\n      dup1\n      sload\n      swap1\n      0x0100\n      exp\n      swap1\n      div\n      0xff\n      and\n      dup2\n      jump\t// out\n        /* \"contracts/01-8 enumTask1.sol\":412:457  function idelete()public {... */\n    tag_19:\n        /* \"contracts/01-8 enumTask1.sol\":451:453  e1 */\n      0x00\n      dup1\n        /* \"contracts/01-8 enumTask1.sol\":444:453  delete e1 */\n      0x0100\n      exp\n      dup2\n      sload\n      swap1\n      0xff\n      mul\n      not\n      and\n      swap1\n      sstore\n        /* \"contracts/01-8 enumTask1.sol\":412:457  function idelete()public {... */\n      jump\t// out\n        /* \"#utility.yul\":7:187   */\n    tag_23:\n        /* \"#utility.yul\":55:132   */\n      0x4e487b7100000000000000000000000000000000000000000000000000000000\n        /* \"#utility.yul\":52:53   */\n      0x00\n        /* \"#utility.yul\":45:133   */\n      mstore\n        /* \"#utility.yul\":152:156   */\n      0x21\n        /* \"#utility.yul\":149:150   */\n      0x04\n        /* \"#utility.yul\":142:157   */\n      mstore\n        /* \"#utility.yul\":176:180   */\n      0x24\n        /* \"#utility.yul\":173:174   */\n      0x00\n        /* \"#utility.yul\":166:181   */\n      revert\n        /* \"#utility.yul\":193:304   */\n    tag_46:\n        /* \"#utility.yul\":272:273   */\n      0x04\n        /* \"#utility.yul\":265:270   */\n      dup2\n        /* \"#utility.yul\":262:274   */\n      lt\n        /* \"#utility.yul\":252:298   */\n      tag_53\n      jumpi\n        /* \"#utility.yul\":278:296   */\n      tag_54\n      tag_23\n      jump\t// in\n    tag_54:\n        /* \"#utility.yul\":252:298   */\n    tag_53:\n        /* \"#utility.yul\":193:304   */\n      pop\n      jump\t// out\n        /* \"#utility.yul\":310:433   */\n    tag_47:\n        /* \"#utility.yul\":353:360   */\n      0x00\n        /* \"#utility.yul\":382:387   */\n      dup2\n        /* \"#utility.yul\":371:387   */\n      swap1\n      pop\n        /* \"#utility.yul\":388:427   */\n      tag_56\n        /* \"#utility.yul\":421:426   */\n      dup3\n        /* \"#utility.yul\":388:427   */\n      tag_46\n      jump\t// in\n    tag_56:\n        /* \"#utility.yul\":310:433   */\n      swap2\n      swap1\n      pop\n      jump\t// out\n        /* \"#utility.yul\":439:562   */\n    tag_48:\n        /* \"#utility.yul\":493:502   */\n      0x00\n        /* \"#utility.yul\":526:556   */\n      tag_58\n        /* \"#utility.yul\":550:555   */\n      dup3\n        /* \"#utility.yul\":526:556   */\n      tag_47\n      jump\t// in\n    tag_58:\n        /* \"#utility.yul\":513:556   */\n      swap1\n      pop\n        /* \"#utility.yul\":439:562   */\n      swap2\n      swap1\n      pop\n      jump\t// out\n        /* \"#utility.yul\":568:707   */\n    tag_49:\n        /* \"#utility.yul\":659:700   */\n      tag_60\n        /* \"#utility.yul\":694:699   */\n      dup2\n        /* \"#utility.yul\":659:700   */\n      tag_48\n      jump\t// in\n    tag_60:\n        /* \"#utility.yul\":654:657   */\n      dup3\n        /* \"#utility.yul\":647:701   */\n      mstore\n        /* \"#utility.yul\":568:707   */\n      pop\n      pop\n      jump\t// out\n        /* \"#utility.yul\":713:943   */\n    tag_17:\n        /* \"#utility.yul\":810:814   */\n      0x00\n        /* \"#utility.yul\":848:850   */\n      0x20\n        /* \"#utility.yul\":837:846   */\n      dup3\n        /* \"#utility.yul\":833:851   */\n      add\n        /* \"#utility.yul\":825:851   */\n      swap1\n      pop\n        /* \"#utility.yul\":861:936   */\n      tag_62\n        /* \"#utility.yul\":933:934   */\n      0x00\n        /* \"#utility.yul\":922:931   */\n      dup4\n        /* \"#utility.yul\":918:935   */\n      add\n        /* \"#utility.yul\":909:915   */\n      dup5\n        /* \"#utility.yul\":861:936   */\n      tag_49\n      jump\t// in\n    tag_62:\n        /* \"#utility.yul\":713:943   */\n      swap3\n      swap2\n      pop\n      pop\n      jump\t// out\n\n    auxdata: 0xa26469706673582212207473ca3292ea24f77a825b35563d12c0957d3d51b5391469c929573ae707da9364736f6c63430008110033\n}\n",
				"bytecode": {
					"linkReferences": {},
					"object": "608060405234801561001057600080fd5b506102c0806100206000396000f3fe608060405234801561001057600080fd5b50600436106100575760003560e01c80632ac279af1461005c578063552670ff146100665780636059543314610070578063a2c2d6661461007a578063ea70a01714610098575b600080fd5b6100646100a2565b005b61006e610108565b005b61007861016e565b005b6100826101d4565b60405161008f919061026f565b60405180910390f35b6100a06101e5565b005b600160038111156100b6576100b56101f8565b5b60008054906101000a900460ff1660038111156100d6576100d56101f8565b5b036101065760036000806101000a81548160ff02191690836003811115610100576100ff6101f8565b5b02179055505b565b6000600381111561011c5761011b6101f8565b5b60008054906101000a900460ff16600381111561013c5761013b6101f8565b5b0361016c5760026000806101000a81548160ff02191690836003811115610166576101656101f8565b5b02179055505b565b60006003811115610182576101816101f8565b5b60008054906101000a900460ff1660038111156101a2576101a16101f8565b5b036101d25760016000806101000a81548160ff021916908360038111156101cc576101cb6101f8565b5b02179055505b565b60008054906101000a900460ff1681565b6000806101000a81549060ff0219169055565b7f4e487b7100000000000000000000000000000000000000000000000000000000600052602160045260246000fd5b60048110610238576102376101f8565b5b50565b600081905061024982610227565b919050565b60006102598261023b565b9050919050565b6102698161024e565b82525050565b60006020820190506102846000830184610260565b9291505056fea26469706673582212207473ca3292ea24f77a825b35563d12c0957d3d51b5391469c929573ae707da9364736f6c63430008110033",
					"opcodes": "PUSH1 0x80 PUSH1 0x40 MSTORE CALLVALUE DUP1 ISZERO PUSH2 0x10 JUMPI PUSH1 0x0 DUP1 REVERT JUMPDEST POP PUSH2 0x2C0 DUP1 PUSH2 0x20 PUSH1 0x0 CODECOPY PUSH1 0x0 RETURN INVALID PUSH1 0x80 PUSH1 0x40 MSTORE CALLVALUE DUP1 ISZERO PUSH2 0x10 JUMPI PUSH1 0x0 DUP1 REVERT JUMPDEST POP PUSH1 0x4 CALLDATASIZE LT PUSH2 0x57 JUMPI PUSH1 0x0 CALLDATALOAD PUSH1 0xE0 SHR DUP1 PUSH4 0x2AC279AF EQ PUSH2 0x5C JUMPI DUP1 PUSH4 0x552670FF EQ PUSH2 0x66 JUMPI DUP1 PUSH4 0x60595433 EQ PUSH2 0x70 JUMPI DUP1 PUSH4 0xA2C2D666 EQ PUSH2 0x7A JUMPI DUP1 PUSH4 0xEA70A017 EQ PUSH2 0x98 JUMPI JUMPDEST PUSH1 0x0 DUP1 REVERT JUMPDEST PUSH2 0x64 PUSH2 0xA2 JUMP JUMPDEST STOP JUMPDEST PUSH2 0x6E PUSH2 0x108 JUMP JUMPDEST STOP JUMPDEST PUSH2 0x78 PUSH2 0x16E JUMP JUMPDEST STOP JUMPDEST PUSH2 0x82 PUSH2 0x1D4 JUMP JUMPDEST PUSH1 0x40 MLOAD PUSH2 0x8F SWAP2 SWAP1 PUSH2 0x26F JUMP JUMPDEST PUSH1 0x40 MLOAD DUP1 SWAP2 SUB SWAP1 RETURN JUMPDEST PUSH2 0xA0 PUSH2 0x1E5 JUMP JUMPDEST STOP JUMPDEST PUSH1 0x1 PUSH1 0x3 DUP2 GT ISZERO PUSH2 0xB6 JUMPI PUSH2 0xB5 PUSH2 0x1F8 JUMP JUMPDEST JUMPDEST PUSH1 0x0 DUP1 SLOAD SWAP1 PUSH2 0x100 EXP SWAP1 DIV PUSH1 0xFF AND PUSH1 0x3 DUP2 GT ISZERO PUSH2 0xD6 JUMPI PUSH2 0xD5 PUSH2 0x1F8 JUMP JUMPDEST JUMPDEST SUB PUSH2 0x106 JUMPI PUSH1 0x3 PUSH1 0x0 DUP1 PUSH2 0x100 EXP DUP2 SLOAD DUP2 PUSH1 0xFF MUL NOT AND SWAP1 DUP4 PUSH1 0x3 DUP2 GT ISZERO PUSH2 0x100 JUMPI PUSH2 0xFF PUSH2 0x1F8 JUMP JUMPDEST JUMPDEST MUL OR SWAP1 SSTORE POP JUMPDEST JUMP JUMPDEST PUSH1 0x0 PUSH1 0x3 DUP2 GT ISZERO PUSH2 0x11C JUMPI PUSH2 0x11B PUSH2 0x1F8 JUMP JUMPDEST JUMPDEST PUSH1 0x0 DUP1 SLOAD SWAP1 PUSH2 0x100 EXP SWAP1 DIV PUSH1 0xFF AND PUSH1 0x3 DUP2 GT ISZERO PUSH2 0x13C JUMPI PUSH2 0x13B PUSH2 0x1F8 JUMP JUMPDEST JUMPDEST SUB PUSH2 0x16C JUMPI PUSH1 0x2 PUSH1 0x0 DUP1 PUSH2 0x100 EXP DUP2 SLOAD DUP2 PUSH1 0xFF MUL NOT AND SWAP1 DUP4 PUSH1 0x3 DUP2 GT ISZERO PUSH2 0x166 JUMPI PUSH2 0x165 PUSH2 0x1F8 JUMP JUMPDEST JUMPDEST MUL OR SWAP1 SSTORE POP JUMPDEST JUMP JUMPDEST PUSH1 0x0 PUSH1 0x3 DUP2 GT ISZERO PUSH2 0x182 JUMPI PUSH2 0x181 PUSH2 0x1F8 JUMP JUMPDEST JUMPDEST PUSH1 0x0 DUP1 SLOAD SWAP1 PUSH2 0x100 EXP SWAP1 DIV PUSH1 0xFF AND PUSH1 0x3 DUP2 GT ISZERO PUSH2 0x1A2 JUMPI PUSH2 0x1A1 PUSH2 0x1F8 JUMP JUMPDEST JUMPDEST SUB PUSH2 0x1D2 JUMPI PUSH1 0x1 PUSH1 0x0 DUP1 PUSH2 0x100 EXP DUP2 SLOAD DUP2 PUSH1 0xFF MUL NOT AND SWAP1 DUP4 PUSH1 0x3 DUP2 GT ISZERO PUSH2 0x1CC JUMPI PUSH2 0x1CB PUSH2 0x1F8 JUMP JUMPDEST JUMPDEST MUL OR SWAP1 SSTORE POP JUMPDEST JUMP JUMPDEST PUSH1 0x0 DUP1 SLOAD SWAP1 PUSH2 0x100 EXP SWAP1 DIV PUSH1 0xFF AND DUP2 JUMP JUMPDEST PUSH1 0x0 DUP1 PUSH2 0x100 EXP DUP2 SLOAD SWAP1 PUSH1 0xFF MUL NOT AND SWAP1 SSTORE JUMP JUMPDEST PUSH32 0x4E487B7100000000000000000000000000000000000000000000000000000000 PUSH1 0x0 MSTORE PUSH1 0x21 PUSH1 0x4 MSTORE PUSH1 0x24 PUSH1 0x0 REVERT JUMPDEST PUSH1 0x4 DUP2 LT PUSH2 0x238 JUMPI PUSH2 0x237 PUSH2 0x1F8 JUMP JUMPDEST JUMPDEST POP JUMP JUMPDEST PUSH1 0x0 DUP2 SWAP1 POP PUSH2 0x249 DUP3 PUSH2 0x227 JUMP JUMPDEST SWAP2 SWAP1 POP JUMP JUMPDEST PUSH1 0x0 PUSH2 0x259 DUP3 PUSH2 0x23B JUMP JUMPDEST SWAP1 POP SWAP2 SWAP1 POP JUMP JUMPDEST PUSH2 0x269 DUP2 PUSH2 0x24E JUMP JUMPDEST DUP3 MSTORE POP POP JUMP JUMPDEST PUSH1 0x0 PUSH1 0x20 DUP3 ADD SWAP1 POP PUSH2 0x284 PUSH1 0x0 DUP4 ADD DUP5 PUSH2 0x260 JUMP JUMPDEST SWAP3 SWAP2 POP POP JUMP INVALID LOG2 PUSH5 0x6970667358 0x22 SLT KECCAK256 PUSH21 0x73CA3292EA24F77A825B35563D12C0957D3D51B539 EQ PUSH10 0xC929573AE707DA936473 PUSH16 0x6C634300081100330000000000000000 "
				},
				"gasEstimates": {
					"creation": {
						"codeDepositCost": "140800",
						"executionCost": "183",
						"totalCost": "140983"
					},
					"external": {
						"Fail()": "26639",
						"Pass()": "26661",
						"Scholarships()": "26617",
						"e1()": "2601",
						"idelete()": "24452"
					}
				},
				"methodIdentifiers": {
					"Fail()": "552670ff",
					"Pass()": "60595433",
					"Scholarships()": "2ac279af",
					"e1()": "a2c2d666",
					"idelete()": "ea70a017"
				}
			},
			"storageLayout": {
				"storage": [
					{
						"astId": 9,
						"contract": "contracts/01-8 enumTask1.sol:Enum",
						"label": "e1",
						"offset": 0,
						"slot": "0",
						"type": "t_enum(Exam)6"
					}
				],
				"types": {
					"t_enum(Exam)6": {
						"encoding": "inplace",
						"label": "enum Enum.Exam",
						"numberOfBytes": "1"
					}
				}
			},
			"userdoc": {
				"kind": "user",
				"methods": {},
				"version": 1
			}
		}
	}
}