{
	"contracts/04-8 whileloop3.sol": {
		"FibonacciSeries": {
			"abi": [
				{
					"inputs": [
						{
							"internalType": "uint256",
							"name": "n",
							"type": "uint256"
						}
					],
					"name": "generateFibonacci",
					"outputs": [
						{
							"internalType": "uint256[]",
							"name": "",
							"type": "uint256[]"
						}
					],
					"stateMutability": "pure",
					"type": "function"
				}
			],
			"devdoc": {
				"kind": "dev",
				"methods": {},
				"version": 1
			},
			"evm": {
				"assembly": "    /* \"contracts/04-8 whileloop3.sol\":59:613  contract FibonacciSeries {... */\n  mstore(0x40, 0x80)\n  callvalue\n  dup1\n  iszero\n  tag_1\n  jumpi\n  0x00\n  dup1\n  revert\ntag_1:\n  pop\n  dataSize(sub_0)\n  dup1\n  dataOffset(sub_0)\n  0x00\n  codecopy\n  0x00\n  return\nstop\n\nsub_0: assembly {\n        /* \"contracts/04-8 whileloop3.sol\":59:613  contract FibonacciSeries {... */\n      mstore(0x40, 0x80)\n      callvalue\n      dup1\n      iszero\n      tag_1\n      jumpi\n      0x00\n      dup1\n      revert\n    tag_1:\n      pop\n      jumpi(tag_2, lt(calldatasize, 0x04))\n      shr(0xe0, calldataload(0x00))\n      dup1\n      0xe2000b99\n      eq\n      tag_3\n      jumpi\n    tag_2:\n      0x00\n      dup1\n      revert\n        /* \"contracts/04-8 whileloop3.sol\":90:610  function generateFibonacci(uint256 n) public pure returns (uint256[] memory) {... */\n    tag_3:\n      tag_4\n      0x04\n      dup1\n      calldatasize\n      sub\n      dup2\n      add\n      swap1\n      tag_5\n      swap2\n      swap1\n      tag_6\n      jump\t// in\n    tag_5:\n      tag_7\n      jump\t// in\n    tag_4:\n      mload(0x40)\n      tag_8\n      swap2\n      swap1\n      tag_9\n      jump\t// in\n    tag_8:\n      mload(0x40)\n      dup1\n      swap2\n      sub\n      swap1\n      return\n    tag_7:\n        /* \"contracts/04-8 whileloop3.sol\":149:165  uint256[] memory */\n      0x60\n        /* \"contracts/04-8 whileloop3.sol\":171:203  uint256[] memory fibonacciSeries */\n      0x00\n        /* \"contracts/04-8 whileloop3.sol\":220:221  n */\n      dup3\n        /* \"contracts/04-8 whileloop3.sol\":206:222  new uint256[](n) */\n      0xffffffffffffffff\n      dup2\n      gt\n      iszero\n      tag_11\n      jumpi\n      tag_12\n      tag_13\n      jump\t// in\n    tag_12:\n    tag_11:\n      mload(0x40)\n      swap1\n      dup1\n      dup3\n      mstore\n      dup1\n      0x20\n      mul\n      0x20\n      add\n      dup3\n      add\n      0x40\n      mstore\n      dup1\n      iszero\n      tag_14\n      jumpi\n      dup2\n      0x20\n      add\n      0x20\n      dup3\n      mul\n      dup1\n      calldatasize\n      dup4\n      calldatacopy\n      dup1\n      dup3\n      add\n      swap2\n      pop\n      pop\n      swap1\n      pop\n    tag_14:\n      pop\n        /* \"contracts/04-8 whileloop3.sol\":171:222  uint256[] memory fibonacciSeries = new uint256[](n) */\n      swap1\n      pop\n        /* \"contracts/04-8 whileloop3.sol\":235:236  1 */\n      0x01\n        /* \"contracts/04-8 whileloop3.sol\":230:231  n */\n      dup4\n        /* \"contracts/04-8 whileloop3.sol\":230:236  n >= 1 */\n      lt\n        /* \"contracts/04-8 whileloop3.sol\":226:267  if (n >= 1) {... */\n      tag_15\n      jumpi\n        /* \"contracts/04-8 whileloop3.sol\":263:264  0 */\n      0x00\n        /* \"contracts/04-8 whileloop3.sol\":242:257  fibonacciSeries */\n      dup2\n        /* \"contracts/04-8 whileloop3.sol\":258:259  0 */\n      0x00\n        /* \"contracts/04-8 whileloop3.sol\":242:260  fibonacciSeries[0] */\n      dup2\n      mload\n      dup2\n      lt\n      tag_16\n      jumpi\n      tag_17\n      tag_18\n      jump\t// in\n    tag_17:\n    tag_16:\n      0x20\n      mul\n      0x20\n      add\n      add\n        /* \"contracts/04-8 whileloop3.sol\":242:264  fibonacciSeries[0] = 0 */\n      dup2\n      dup2\n      mstore\n      pop\n      pop\n        /* \"contracts/04-8 whileloop3.sol\":226:267  if (n >= 1) {... */\n    tag_15:\n        /* \"contracts/04-8 whileloop3.sol\":279:280  2 */\n      0x02\n        /* \"contracts/04-8 whileloop3.sol\":274:275  n */\n      dup4\n        /* \"contracts/04-8 whileloop3.sol\":274:280  n >= 2 */\n      lt\n        /* \"contracts/04-8 whileloop3.sol\":270:311  if (n >= 2) {... */\n      tag_19\n      jumpi\n        /* \"contracts/04-8 whileloop3.sol\":307:308  1 */\n      0x01\n        /* \"contracts/04-8 whileloop3.sol\":286:301  fibonacciSeries */\n      dup2\n        /* \"contracts/04-8 whileloop3.sol\":302:303  1 */\n      0x01\n        /* \"contracts/04-8 whileloop3.sol\":286:304  fibonacciSeries[1] */\n      dup2\n      mload\n      dup2\n      lt\n      tag_20\n      jumpi\n      tag_21\n      tag_18\n      jump\t// in\n    tag_21:\n    tag_20:\n      0x20\n      mul\n      0x20\n      add\n      add\n        /* \"contracts/04-8 whileloop3.sol\":286:308  fibonacciSeries[1] = 1 */\n      dup2\n      dup2\n      mstore\n      pop\n      pop\n        /* \"contracts/04-8 whileloop3.sol\":270:311  if (n >= 2) {... */\n    tag_19:\n        /* \"contracts/04-8 whileloop3.sol\":396:402  uint i */\n      0x00\n        /* \"contracts/04-8 whileloop3.sol\":405:406  2 */\n      0x02\n        /* \"contracts/04-8 whileloop3.sol\":396:406  uint i = 2 */\n      swap1\n      pop\n        /* \"contracts/04-8 whileloop3.sol\":409:500  while(i<n){... */\n    tag_22:\n        /* \"contracts/04-8 whileloop3.sol\":417:418  n */\n      dup4\n        /* \"contracts/04-8 whileloop3.sol\":415:416  i */\n      dup2\n        /* \"contracts/04-8 whileloop3.sol\":415:418  i<n */\n      lt\n        /* \"contracts/04-8 whileloop3.sol\":409:500  while(i<n){... */\n      iszero\n      tag_23\n      jumpi\n        /* \"contracts/04-8 whileloop3.sol\":468:483  fibonacciSeries */\n      dup2\n        /* \"contracts/04-8 whileloop3.sol\":488:489  2 */\n      0x02\n        /* \"contracts/04-8 whileloop3.sol\":484:485  i */\n      dup3\n        /* \"contracts/04-8 whileloop3.sol\":484:489  i - 2 */\n      tag_24\n      swap2\n      swap1\n      tag_25\n      jump\t// in\n    tag_24:\n        /* \"contracts/04-8 whileloop3.sol\":468:490  fibonacciSeries[i - 2] */\n      dup2\n      mload\n      dup2\n      lt\n      tag_26\n      jumpi\n      tag_27\n      tag_18\n      jump\t// in\n    tag_27:\n    tag_26:\n      0x20\n      mul\n      0x20\n      add\n      add\n      mload\n        /* \"contracts/04-8 whileloop3.sol\":444:459  fibonacciSeries */\n      dup3\n        /* \"contracts/04-8 whileloop3.sol\":464:465  1 */\n      0x01\n        /* \"contracts/04-8 whileloop3.sol\":460:461  i */\n      dup4\n        /* \"contracts/04-8 whileloop3.sol\":460:465  i - 1 */\n      tag_28\n      swap2\n      swap1\n      tag_25\n      jump\t// in\n    tag_28:\n        /* \"contracts/04-8 whileloop3.sol\":444:466  fibonacciSeries[i - 1] */\n      dup2\n      mload\n      dup2\n      lt\n      tag_29\n      jumpi\n      tag_30\n      tag_18\n      jump\t// in\n    tag_30:\n    tag_29:\n      0x20\n      mul\n      0x20\n      add\n      add\n      mload\n        /* \"contracts/04-8 whileloop3.sol\":444:490  fibonacciSeries[i - 1] +fibonacciSeries[i - 2] */\n      tag_31\n      swap2\n      swap1\n      tag_32\n      jump\t// in\n    tag_31:\n        /* \"contracts/04-8 whileloop3.sol\":423:438  fibonacciSeries */\n      dup3\n        /* \"contracts/04-8 whileloop3.sol\":439:440  i */\n      dup3\n        /* \"contracts/04-8 whileloop3.sol\":423:441  fibonacciSeries[i] */\n      dup2\n      mload\n      dup2\n      lt\n      tag_33\n      jumpi\n      tag_34\n      tag_18\n      jump\t// in\n    tag_34:\n    tag_33:\n      0x20\n      mul\n      0x20\n      add\n      add\n        /* \"contracts/04-8 whileloop3.sol\":423:490  fibonacciSeries[i] = fibonacciSeries[i - 1] +fibonacciSeries[i - 2] */\n      dup2\n      dup2\n      mstore\n      pop\n      pop\n        /* \"contracts/04-8 whileloop3.sol\":493:496  i++ */\n      dup1\n      dup1\n      tag_35\n      swap1\n      tag_36\n      jump\t// in\n    tag_35:\n      swap2\n      pop\n      pop\n        /* \"contracts/04-8 whileloop3.sol\":409:500  while(i<n){... */\n      jump(tag_22)\n    tag_23:\n        /* \"contracts/04-8 whileloop3.sol\":592:607  fibonacciSeries */\n      dup2\n        /* \"contracts/04-8 whileloop3.sol\":585:607  return fibonacciSeries */\n      swap3\n      pop\n      pop\n      pop\n        /* \"contracts/04-8 whileloop3.sol\":90:610  function generateFibonacci(uint256 n) public pure returns (uint256[] memory) {... */\n      swap2\n      swap1\n      pop\n      jump\t// out\n        /* \"#utility.yul\":88:205   */\n    tag_38:\n        /* \"#utility.yul\":197:198   */\n      0x00\n        /* \"#utility.yul\":194:195   */\n      dup1\n        /* \"#utility.yul\":187:199   */\n      revert\n        /* \"#utility.yul\":334:411   */\n    tag_40:\n        /* \"#utility.yul\":371:378   */\n      0x00\n        /* \"#utility.yul\":400:405   */\n      dup2\n        /* \"#utility.yul\":389:405   */\n      swap1\n      pop\n        /* \"#utility.yul\":334:411   */\n      swap2\n      swap1\n      pop\n      jump\t// out\n        /* \"#utility.yul\":417:539   */\n    tag_41:\n        /* \"#utility.yul\":490:514   */\n      tag_57\n        /* \"#utility.yul\":508:513   */\n      dup2\n        /* \"#utility.yul\":490:514   */\n      tag_40\n      jump\t// in\n    tag_57:\n        /* \"#utility.yul\":483:488   */\n      dup2\n        /* \"#utility.yul\":480:515   */\n      eq\n        /* \"#utility.yul\":470:533   */\n      tag_58\n      jumpi\n        /* \"#utility.yul\":529:530   */\n      0x00\n        /* \"#utility.yul\":526:527   */\n      dup1\n        /* \"#utility.yul\":519:531   */\n      revert\n        /* \"#utility.yul\":470:533   */\n    tag_58:\n        /* \"#utility.yul\":417:539   */\n      pop\n      jump\t// out\n        /* \"#utility.yul\":545:684   */\n    tag_42:\n        /* \"#utility.yul\":591:596   */\n      0x00\n        /* \"#utility.yul\":629:635   */\n      dup2\n        /* \"#utility.yul\":616:636   */\n      calldataload\n        /* \"#utility.yul\":607:636   */\n      swap1\n      pop\n        /* \"#utility.yul\":645:678   */\n      tag_60\n        /* \"#utility.yul\":672:677   */\n      dup2\n        /* \"#utility.yul\":645:678   */\n      tag_41\n      jump\t// in\n    tag_60:\n        /* \"#utility.yul\":545:684   */\n      swap3\n      swap2\n      pop\n      pop\n      jump\t// out\n        /* \"#utility.yul\":690:1019   */\n    tag_6:\n        /* \"#utility.yul\":749:755   */\n      0x00\n        /* \"#utility.yul\":798:800   */\n      0x20\n        /* \"#utility.yul\":786:795   */\n      dup3\n        /* \"#utility.yul\":777:784   */\n      dup5\n        /* \"#utility.yul\":773:796   */\n      sub\n        /* \"#utility.yul\":769:801   */\n      slt\n        /* \"#utility.yul\":766:885   */\n      iszero\n      tag_62\n      jumpi\n        /* \"#utility.yul\":804:883   */\n      tag_63\n      tag_38\n      jump\t// in\n    tag_63:\n        /* \"#utility.yul\":766:885   */\n    tag_62:\n        /* \"#utility.yul\":924:925   */\n      0x00\n        /* \"#utility.yul\":949:1002   */\n      tag_64\n        /* \"#utility.yul\":994:1001   */\n      dup5\n        /* \"#utility.yul\":985:991   */\n      dup3\n        /* \"#utility.yul\":974:983   */\n      dup6\n        /* \"#utility.yul\":970:992   */\n      add\n        /* \"#utility.yul\":949:1002   */\n      tag_42\n      jump\t// in\n    tag_64:\n        /* \"#utility.yul\":939:1002   */\n      swap2\n      pop\n        /* \"#utility.yul\":895:1012   */\n      pop\n        /* \"#utility.yul\":690:1019   */\n      swap3\n      swap2\n      pop\n      pop\n      jump\t// out\n        /* \"#utility.yul\":1025:1139   */\n    tag_43:\n        /* \"#utility.yul\":1092:1098   */\n      0x00\n        /* \"#utility.yul\":1126:1131   */\n      dup2\n        /* \"#utility.yul\":1120:1132   */\n      mload\n        /* \"#utility.yul\":1110:1132   */\n      swap1\n      pop\n        /* \"#utility.yul\":1025:1139   */\n      swap2\n      swap1\n      pop\n      jump\t// out\n        /* \"#utility.yul\":1145:1329   */\n    tag_44:\n        /* \"#utility.yul\":1244:1255   */\n      0x00\n        /* \"#utility.yul\":1278:1284   */\n      dup3\n        /* \"#utility.yul\":1273:1276   */\n      dup3\n        /* \"#utility.yul\":1266:1285   */\n      mstore\n        /* \"#utility.yul\":1318:1322   */\n      0x20\n        /* \"#utility.yul\":1313:1316   */\n      dup3\n        /* \"#utility.yul\":1309:1323   */\n      add\n        /* \"#utility.yul\":1294:1323   */\n      swap1\n      pop\n        /* \"#utility.yul\":1145:1329   */\n      swap3\n      swap2\n      pop\n      pop\n      jump\t// out\n        /* \"#utility.yul\":1335:1467   */\n    tag_45:\n        /* \"#utility.yul\":1402:1406   */\n      0x00\n        /* \"#utility.yul\":1425:1428   */\n      dup2\n        /* \"#utility.yul\":1417:1428   */\n      swap1\n      pop\n        /* \"#utility.yul\":1455:1459   */\n      0x20\n        /* \"#utility.yul\":1450:1453   */\n      dup3\n        /* \"#utility.yul\":1446:1460   */\n      add\n        /* \"#utility.yul\":1438:1460   */\n      swap1\n      pop\n        /* \"#utility.yul\":1335:1467   */\n      swap2\n      swap1\n      pop\n      jump\t// out\n        /* \"#utility.yul\":1473:1581   */\n    tag_46:\n        /* \"#utility.yul\":1550:1574   */\n      tag_69\n        /* \"#utility.yul\":1568:1573   */\n      dup2\n        /* \"#utility.yul\":1550:1574   */\n      tag_40\n      jump\t// in\n    tag_69:\n        /* \"#utility.yul\":1545:1548   */\n      dup3\n        /* \"#utility.yul\":1538:1575   */\n      mstore\n        /* \"#utility.yul\":1473:1581   */\n      pop\n      pop\n      jump\t// out\n        /* \"#utility.yul\":1587:1766   */\n    tag_47:\n        /* \"#utility.yul\":1656:1666   */\n      0x00\n        /* \"#utility.yul\":1677:1723   */\n      tag_71\n        /* \"#utility.yul\":1719:1722   */\n      dup4\n        /* \"#utility.yul\":1711:1717   */\n      dup4\n        /* \"#utility.yul\":1677:1723   */\n      tag_46\n      jump\t// in\n    tag_71:\n        /* \"#utility.yul\":1755:1759   */\n      0x20\n        /* \"#utility.yul\":1750:1753   */\n      dup4\n        /* \"#utility.yul\":1746:1760   */\n      add\n        /* \"#utility.yul\":1732:1760   */\n      swap1\n      pop\n        /* \"#utility.yul\":1587:1766   */\n      swap3\n      swap2\n      pop\n      pop\n      jump\t// out\n        /* \"#utility.yul\":1772:1885   */\n    tag_48:\n        /* \"#utility.yul\":1842:1846   */\n      0x00\n        /* \"#utility.yul\":1874:1878   */\n      0x20\n        /* \"#utility.yul\":1869:1872   */\n      dup3\n        /* \"#utility.yul\":1865:1879   */\n      add\n        /* \"#utility.yul\":1857:1879   */\n      swap1\n      pop\n        /* \"#utility.yul\":1772:1885   */\n      swap2\n      swap1\n      pop\n      jump\t// out\n        /* \"#utility.yul\":1921:2653   */\n    tag_49:\n        /* \"#utility.yul\":2040:2043   */\n      0x00\n        /* \"#utility.yul\":2069:2123   */\n      tag_74\n        /* \"#utility.yul\":2117:2122   */\n      dup3\n        /* \"#utility.yul\":2069:2123   */\n      tag_43\n      jump\t// in\n    tag_74:\n        /* \"#utility.yul\":2139:2225   */\n      tag_75\n        /* \"#utility.yul\":2218:2224   */\n      dup2\n        /* \"#utility.yul\":2213:2216   */\n      dup6\n        /* \"#utility.yul\":2139:2225   */\n      tag_44\n      jump\t// in\n    tag_75:\n        /* \"#utility.yul\":2132:2225   */\n      swap4\n      pop\n        /* \"#utility.yul\":2249:2305   */\n      tag_76\n        /* \"#utility.yul\":2299:2304   */\n      dup4\n        /* \"#utility.yul\":2249:2305   */\n      tag_45\n      jump\t// in\n    tag_76:\n        /* \"#utility.yul\":2328:2335   */\n      dup1\n        /* \"#utility.yul\":2359:2360   */\n      0x00\n        /* \"#utility.yul\":2344:2628   */\n    tag_77:\n        /* \"#utility.yul\":2369:2375   */\n      dup4\n        /* \"#utility.yul\":2366:2367   */\n      dup2\n        /* \"#utility.yul\":2363:2376   */\n      lt\n        /* \"#utility.yul\":2344:2628   */\n      iszero\n      tag_79\n      jumpi\n        /* \"#utility.yul\":2445:2451   */\n      dup2\n        /* \"#utility.yul\":2439:2452   */\n      mload\n        /* \"#utility.yul\":2472:2535   */\n      tag_80\n        /* \"#utility.yul\":2531:2534   */\n      dup9\n        /* \"#utility.yul\":2516:2529   */\n      dup3\n        /* \"#utility.yul\":2472:2535   */\n      tag_47\n      jump\t// in\n    tag_80:\n        /* \"#utility.yul\":2465:2535   */\n      swap8\n      pop\n        /* \"#utility.yul\":2558:2618   */\n      tag_81\n        /* \"#utility.yul\":2611:2617   */\n      dup4\n        /* \"#utility.yul\":2558:2618   */\n      tag_48\n      jump\t// in\n    tag_81:\n        /* \"#utility.yul\":2548:2618   */\n      swap3\n      pop\n        /* \"#utility.yul\":2404:2628   */\n      pop\n        /* \"#utility.yul\":2391:2392   */\n      0x01\n        /* \"#utility.yul\":2388:2389   */\n      dup2\n        /* \"#utility.yul\":2384:2393   */\n      add\n        /* \"#utility.yul\":2379:2393   */\n      swap1\n      pop\n        /* \"#utility.yul\":2344:2628   */\n      jump(tag_77)\n    tag_79:\n        /* \"#utility.yul\":2348:2362   */\n      pop\n        /* \"#utility.yul\":2644:2647   */\n      dup6\n        /* \"#utility.yul\":2637:2647   */\n      swap4\n      pop\n        /* \"#utility.yul\":2045:2653   */\n      pop\n      pop\n      pop\n        /* \"#utility.yul\":1921:2653   */\n      swap3\n      swap2\n      pop\n      pop\n      jump\t// out\n        /* \"#utility.yul\":2659:3032   */\n    tag_9:\n        /* \"#utility.yul\":2802:2806   */\n      0x00\n        /* \"#utility.yul\":2840:2842   */\n      0x20\n        /* \"#utility.yul\":2829:2838   */\n      dup3\n        /* \"#utility.yul\":2825:2843   */\n      add\n        /* \"#utility.yul\":2817:2843   */\n      swap1\n      pop\n        /* \"#utility.yul\":2889:2898   */\n      dup2\n        /* \"#utility.yul\":2883:2887   */\n      dup2\n        /* \"#utility.yul\":2879:2899   */\n      sub\n        /* \"#utility.yul\":2875:2876   */\n      0x00\n        /* \"#utility.yul\":2864:2873   */\n      dup4\n        /* \"#utility.yul\":2860:2877   */\n      add\n        /* \"#utility.yul\":2853:2900   */\n      mstore\n        /* \"#utility.yul\":2917:3025   */\n      tag_83\n        /* \"#utility.yul\":3020:3024   */\n      dup2\n        /* \"#utility.yul\":3011:3017   */\n      dup5\n        /* \"#utility.yul\":2917:3025   */\n      tag_49\n      jump\t// in\n    tag_83:\n        /* \"#utility.yul\":2909:3025   */\n      swap1\n      pop\n        /* \"#utility.yul\":2659:3032   */\n      swap3\n      swap2\n      pop\n      pop\n      jump\t// out\n        /* \"#utility.yul\":3038:3218   */\n    tag_13:\n        /* \"#utility.yul\":3086:3163   */\n      0x4e487b7100000000000000000000000000000000000000000000000000000000\n        /* \"#utility.yul\":3083:3084   */\n      0x00\n        /* \"#utility.yul\":3076:3164   */\n      mstore\n        /* \"#utility.yul\":3183:3187   */\n      0x41\n        /* \"#utility.yul\":3180:3181   */\n      0x04\n        /* \"#utility.yul\":3173:3188   */\n      mstore\n        /* \"#utility.yul\":3207:3211   */\n      0x24\n        /* \"#utility.yul\":3204:3205   */\n      0x00\n        /* \"#utility.yul\":3197:3212   */\n      revert\n        /* \"#utility.yul\":3224:3404   */\n    tag_18:\n        /* \"#utility.yul\":3272:3349   */\n      0x4e487b7100000000000000000000000000000000000000000000000000000000\n        /* \"#utility.yul\":3269:3270   */\n      0x00\n        /* \"#utility.yul\":3262:3350   */\n      mstore\n        /* \"#utility.yul\":3369:3373   */\n      0x32\n        /* \"#utility.yul\":3366:3367   */\n      0x04\n        /* \"#utility.yul\":3359:3374   */\n      mstore\n        /* \"#utility.yul\":3393:3397   */\n      0x24\n        /* \"#utility.yul\":3390:3391   */\n      0x00\n        /* \"#utility.yul\":3383:3398   */\n      revert\n        /* \"#utility.yul\":3410:3590   */\n    tag_50:\n        /* \"#utility.yul\":3458:3535   */\n      0x4e487b7100000000000000000000000000000000000000000000000000000000\n        /* \"#utility.yul\":3455:3456   */\n      0x00\n        /* \"#utility.yul\":3448:3536   */\n      mstore\n        /* \"#utility.yul\":3555:3559   */\n      0x11\n        /* \"#utility.yul\":3552:3553   */\n      0x04\n        /* \"#utility.yul\":3545:3560   */\n      mstore\n        /* \"#utility.yul\":3579:3583   */\n      0x24\n        /* \"#utility.yul\":3576:3577   */\n      0x00\n        /* \"#utility.yul\":3569:3584   */\n      revert\n        /* \"#utility.yul\":3596:3790   */\n    tag_25:\n        /* \"#utility.yul\":3636:3640   */\n      0x00\n        /* \"#utility.yul\":3656:3676   */\n      tag_88\n        /* \"#utility.yul\":3674:3675   */\n      dup3\n        /* \"#utility.yul\":3656:3676   */\n      tag_40\n      jump\t// in\n    tag_88:\n        /* \"#utility.yul\":3651:3676   */\n      swap2\n      pop\n        /* \"#utility.yul\":3690:3710   */\n      tag_89\n        /* \"#utility.yul\":3708:3709   */\n      dup4\n        /* \"#utility.yul\":3690:3710   */\n      tag_40\n      jump\t// in\n    tag_89:\n        /* \"#utility.yul\":3685:3710   */\n      swap3\n      pop\n        /* \"#utility.yul\":3734:3735   */\n      dup3\n        /* \"#utility.yul\":3731:3732   */\n      dup3\n        /* \"#utility.yul\":3727:3736   */\n      sub\n        /* \"#utility.yul\":3719:3736   */\n      swap1\n      pop\n        /* \"#utility.yul\":3758:3759   */\n      dup2\n        /* \"#utility.yul\":3752:3756   */\n      dup2\n        /* \"#utility.yul\":3749:3760   */\n      gt\n        /* \"#utility.yul\":3746:3783   */\n      iszero\n      tag_90\n      jumpi\n        /* \"#utility.yul\":3763:3781   */\n      tag_91\n      tag_50\n      jump\t// in\n    tag_91:\n        /* \"#utility.yul\":3746:3783   */\n    tag_90:\n        /* \"#utility.yul\":3596:3790   */\n      swap3\n      swap2\n      pop\n      pop\n      jump\t// out\n        /* \"#utility.yul\":3796:3987   */\n    tag_32:\n        /* \"#utility.yul\":3836:3839   */\n      0x00\n        /* \"#utility.yul\":3855:3875   */\n      tag_93\n        /* \"#utility.yul\":3873:3874   */\n      dup3\n        /* \"#utility.yul\":3855:3875   */\n      tag_40\n      jump\t// in\n    tag_93:\n        /* \"#utility.yul\":3850:3875   */\n      swap2\n      pop\n        /* \"#utility.yul\":3889:3909   */\n      tag_94\n        /* \"#utility.yul\":3907:3908   */\n      dup4\n        /* \"#utility.yul\":3889:3909   */\n      tag_40\n      jump\t// in\n    tag_94:\n        /* \"#utility.yul\":3884:3909   */\n      swap3\n      pop\n        /* \"#utility.yul\":3932:3933   */\n      dup3\n        /* \"#utility.yul\":3929:3930   */\n      dup3\n        /* \"#utility.yul\":3925:3934   */\n      add\n        /* \"#utility.yul\":3918:3934   */\n      swap1\n      pop\n        /* \"#utility.yul\":3953:3956   */\n      dup1\n        /* \"#utility.yul\":3950:3951   */\n      dup3\n        /* \"#utility.yul\":3947:3957   */\n      gt\n        /* \"#utility.yul\":3944:3980   */\n      iszero\n      tag_95\n      jumpi\n        /* \"#utility.yul\":3960:3978   */\n      tag_96\n      tag_50\n      jump\t// in\n    tag_96:\n        /* \"#utility.yul\":3944:3980   */\n    tag_95:\n        /* \"#utility.yul\":3796:3987   */\n      swap3\n      swap2\n      pop\n      pop\n      jump\t// out\n        /* \"#utility.yul\":3993:4226   */\n    tag_36:\n        /* \"#utility.yul\":4032:4035   */\n      0x00\n        /* \"#utility.yul\":4055:4079   */\n      tag_98\n        /* \"#utility.yul\":4073:4078   */\n      dup3\n        /* \"#utility.yul\":4055:4079   */\n      tag_40\n      jump\t// in\n    tag_98:\n        /* \"#utility.yul\":4046:4079   */\n      swap2\n      pop\n        /* \"#utility.yul\":4101:4167   */\n      0xffffffffffffffffffffffffffffffffffffffffffffffffffffffffffffffff\n        /* \"#utility.yul\":4094:4099   */\n      dup3\n        /* \"#utility.yul\":4091:4168   */\n      sub\n        /* \"#utility.yul\":4088:4191   */\n      tag_99\n      jumpi\n        /* \"#utility.yul\":4171:4189   */\n      tag_100\n      tag_50\n      jump\t// in\n    tag_100:\n        /* \"#utility.yul\":4088:4191   */\n    tag_99:\n        /* \"#utility.yul\":4218:4219   */\n      0x01\n        /* \"#utility.yul\":4211:4216   */\n      dup3\n        /* \"#utility.yul\":4207:4220   */\n      add\n        /* \"#utility.yul\":4200:4220   */\n      swap1\n      pop\n        /* \"#utility.yul\":3993:4226   */\n      swap2\n      swap1\n      pop\n      jump\t// out\n\n    auxdata: 0xa26469706673582212203238423e4f45d8e3daf9677666bec56483b0d91da5980e6709beeeb349bd70c764736f6c63430008120033\n}\n",
				"bytecode": {
					"linkReferences": {},
					"object": "608060405234801561001057600080fd5b50610463806100206000396000f3fe608060405234801561001057600080fd5b506004361061002b5760003560e01c8063e2000b9914610030575b600080fd5b61004a600480360381019061004591906101e3565b610060565b60405161005791906102ce565b60405180910390f35b606060008267ffffffffffffffff81111561007e5761007d6102f0565b5b6040519080825280602002602001820160405280156100ac5781602001602082028036833780820191505090505b509050600183106100da576000816000815181106100cd576100cc61031f565b5b6020026020010181815250505b60028310610105576001816001815181106100f8576100f761031f565b5b6020026020010181815250505b6000600290505b8381101561019e5781600282610122919061037d565b815181106101335761013261031f565b5b602002602001015182600183610149919061037d565b8151811061015a5761015961031f565b5b602002602001015161016c91906103b1565b82828151811061017f5761017e61031f565b5b6020026020010181815250508080610196906103e5565b91505061010c565b8192505050919050565b600080fd5b6000819050919050565b6101c0816101ad565b81146101cb57600080fd5b50565b6000813590506101dd816101b7565b92915050565b6000602082840312156101f9576101f86101a8565b5b6000610207848285016101ce565b91505092915050565b600081519050919050565b600082825260208201905092915050565b6000819050602082019050919050565b610245816101ad565b82525050565b6000610257838361023c565b60208301905092915050565b6000602082019050919050565b600061027b82610210565b610285818561021b565b93506102908361022c565b8060005b838110156102c15781516102a8888261024b565b97506102b383610263565b925050600181019050610294565b5085935050505092915050565b600060208201905081810360008301526102e88184610270565b905092915050565b7f4e487b7100000000000000000000000000000000000000000000000000000000600052604160045260246000fd5b7f4e487b7100000000000000000000000000000000000000000000000000000000600052603260045260246000fd5b7f4e487b7100000000000000000000000000000000000000000000000000000000600052601160045260246000fd5b6000610388826101ad565b9150610393836101ad565b92508282039050818111156103ab576103aa61034e565b5b92915050565b60006103bc826101ad565b91506103c7836101ad565b92508282019050808211156103df576103de61034e565b5b92915050565b60006103f0826101ad565b91507fffffffffffffffffffffffffffffffffffffffffffffffffffffffffffffffff82036104225761042161034e565b5b60018201905091905056fea26469706673582212203238423e4f45d8e3daf9677666bec56483b0d91da5980e6709beeeb349bd70c764736f6c63430008120033",
					"opcodes": "PUSH1 0x80 PUSH1 0x40 MSTORE CALLVALUE DUP1 ISZERO PUSH2 0x10 JUMPI PUSH1 0x0 DUP1 REVERT JUMPDEST POP PUSH2 0x463 DUP1 PUSH2 0x20 PUSH1 0x0 CODECOPY PUSH1 0x0 RETURN INVALID PUSH1 0x80 PUSH1 0x40 MSTORE CALLVALUE DUP1 ISZERO PUSH2 0x10 JUMPI PUSH1 0x0 DUP1 REVERT JUMPDEST POP PUSH1 0x4 CALLDATASIZE LT PUSH2 0x2B JUMPI PUSH1 0x0 CALLDATALOAD PUSH1 0xE0 SHR DUP1 PUSH4 0xE2000B99 EQ PUSH2 0x30 JUMPI JUMPDEST PUSH1 0x0 DUP1 REVERT JUMPDEST PUSH2 0x4A PUSH1 0x4 DUP1 CALLDATASIZE SUB DUP2 ADD SWAP1 PUSH2 0x45 SWAP2 SWAP1 PUSH2 0x1E3 JUMP JUMPDEST PUSH2 0x60 JUMP JUMPDEST PUSH1 0x40 MLOAD PUSH2 0x57 SWAP2 SWAP1 PUSH2 0x2CE JUMP JUMPDEST PUSH1 0x40 MLOAD DUP1 SWAP2 SUB SWAP1 RETURN JUMPDEST PUSH1 0x60 PUSH1 0x0 DUP3 PUSH8 0xFFFFFFFFFFFFFFFF DUP2 GT ISZERO PUSH2 0x7E JUMPI PUSH2 0x7D PUSH2 0x2F0 JUMP JUMPDEST JUMPDEST PUSH1 0x40 MLOAD SWAP1 DUP1 DUP3 MSTORE DUP1 PUSH1 0x20 MUL PUSH1 0x20 ADD DUP3 ADD PUSH1 0x40 MSTORE DUP1 ISZERO PUSH2 0xAC JUMPI DUP2 PUSH1 0x20 ADD PUSH1 0x20 DUP3 MUL DUP1 CALLDATASIZE DUP4 CALLDATACOPY DUP1 DUP3 ADD SWAP2 POP POP SWAP1 POP JUMPDEST POP SWAP1 POP PUSH1 0x1 DUP4 LT PUSH2 0xDA JUMPI PUSH1 0x0 DUP2 PUSH1 0x0 DUP2 MLOAD DUP2 LT PUSH2 0xCD JUMPI PUSH2 0xCC PUSH2 0x31F JUMP JUMPDEST JUMPDEST PUSH1 0x20 MUL PUSH1 0x20 ADD ADD DUP2 DUP2 MSTORE POP POP JUMPDEST PUSH1 0x2 DUP4 LT PUSH2 0x105 JUMPI PUSH1 0x1 DUP2 PUSH1 0x1 DUP2 MLOAD DUP2 LT PUSH2 0xF8 JUMPI PUSH2 0xF7 PUSH2 0x31F JUMP JUMPDEST JUMPDEST PUSH1 0x20 MUL PUSH1 0x20 ADD ADD DUP2 DUP2 MSTORE POP POP JUMPDEST PUSH1 0x0 PUSH1 0x2 SWAP1 POP JUMPDEST DUP4 DUP2 LT ISZERO PUSH2 0x19E JUMPI DUP2 PUSH1 0x2 DUP3 PUSH2 0x122 SWAP2 SWAP1 PUSH2 0x37D JUMP JUMPDEST DUP2 MLOAD DUP2 LT PUSH2 0x133 JUMPI PUSH2 0x132 PUSH2 0x31F JUMP JUMPDEST JUMPDEST PUSH1 0x20 MUL PUSH1 0x20 ADD ADD MLOAD DUP3 PUSH1 0x1 DUP4 PUSH2 0x149 SWAP2 SWAP1 PUSH2 0x37D JUMP JUMPDEST DUP2 MLOAD DUP2 LT PUSH2 0x15A JUMPI PUSH2 0x159 PUSH2 0x31F JUMP JUMPDEST JUMPDEST PUSH1 0x20 MUL PUSH1 0x20 ADD ADD MLOAD PUSH2 0x16C SWAP2 SWAP1 PUSH2 0x3B1 JUMP JUMPDEST DUP3 DUP3 DUP2 MLOAD DUP2 LT PUSH2 0x17F JUMPI PUSH2 0x17E PUSH2 0x31F JUMP JUMPDEST JUMPDEST PUSH1 0x20 MUL PUSH1 0x20 ADD ADD DUP2 DUP2 MSTORE POP POP DUP1 DUP1 PUSH2 0x196 SWAP1 PUSH2 0x3E5 JUMP JUMPDEST SWAP2 POP POP PUSH2 0x10C JUMP JUMPDEST DUP2 SWAP3 POP POP POP SWAP2 SWAP1 POP JUMP JUMPDEST PUSH1 0x0 DUP1 REVERT JUMPDEST PUSH1 0x0 DUP2 SWAP1 POP SWAP2 SWAP1 POP JUMP JUMPDEST PUSH2 0x1C0 DUP2 PUSH2 0x1AD JUMP JUMPDEST DUP2 EQ PUSH2 0x1CB JUMPI PUSH1 0x0 DUP1 REVERT JUMPDEST POP JUMP JUMPDEST PUSH1 0x0 DUP2 CALLDATALOAD SWAP1 POP PUSH2 0x1DD DUP2 PUSH2 0x1B7 JUMP JUMPDEST SWAP3 SWAP2 POP POP JUMP JUMPDEST PUSH1 0x0 PUSH1 0x20 DUP3 DUP5 SUB SLT ISZERO PUSH2 0x1F9 JUMPI PUSH2 0x1F8 PUSH2 0x1A8 JUMP JUMPDEST JUMPDEST PUSH1 0x0 PUSH2 0x207 DUP5 DUP3 DUP6 ADD PUSH2 0x1CE JUMP JUMPDEST SWAP2 POP POP SWAP3 SWAP2 POP POP JUMP JUMPDEST PUSH1 0x0 DUP2 MLOAD SWAP1 POP SWAP2 SWAP1 POP JUMP JUMPDEST PUSH1 0x0 DUP3 DUP3 MSTORE PUSH1 0x20 DUP3 ADD SWAP1 POP SWAP3 SWAP2 POP POP JUMP JUMPDEST PUSH1 0x0 DUP2 SWAP1 POP PUSH1 0x20 DUP3 ADD SWAP1 POP SWAP2 SWAP1 POP JUMP JUMPDEST PUSH2 0x245 DUP2 PUSH2 0x1AD JUMP JUMPDEST DUP3 MSTORE POP POP JUMP JUMPDEST PUSH1 0x0 PUSH2 0x257 DUP4 DUP4 PUSH2 0x23C JUMP JUMPDEST PUSH1 0x20 DUP4 ADD SWAP1 POP SWAP3 SWAP2 POP POP JUMP JUMPDEST PUSH1 0x0 PUSH1 0x20 DUP3 ADD SWAP1 POP SWAP2 SWAP1 POP JUMP JUMPDEST PUSH1 0x0 PUSH2 0x27B DUP3 PUSH2 0x210 JUMP JUMPDEST PUSH2 0x285 DUP2 DUP6 PUSH2 0x21B JUMP JUMPDEST SWAP4 POP PUSH2 0x290 DUP4 PUSH2 0x22C JUMP JUMPDEST DUP1 PUSH1 0x0 JUMPDEST DUP4 DUP2 LT ISZERO PUSH2 0x2C1 JUMPI DUP2 MLOAD PUSH2 0x2A8 DUP9 DUP3 PUSH2 0x24B JUMP JUMPDEST SWAP8 POP PUSH2 0x2B3 DUP4 PUSH2 0x263 JUMP JUMPDEST SWAP3 POP POP PUSH1 0x1 DUP2 ADD SWAP1 POP PUSH2 0x294 JUMP JUMPDEST POP DUP6 SWAP4 POP POP POP POP SWAP3 SWAP2 POP POP JUMP JUMPDEST PUSH1 0x0 PUSH1 0x20 DUP3 ADD SWAP1 POP DUP2 DUP2 SUB PUSH1 0x0 DUP4 ADD MSTORE PUSH2 0x2E8 DUP2 DUP5 PUSH2 0x270 JUMP JUMPDEST SWAP1 POP SWAP3 SWAP2 POP POP JUMP JUMPDEST PUSH32 0x4E487B7100000000000000000000000000000000000000000000000000000000 PUSH1 0x0 MSTORE PUSH1 0x41 PUSH1 0x4 MSTORE PUSH1 0x24 PUSH1 0x0 REVERT JUMPDEST PUSH32 0x4E487B7100000000000000000000000000000000000000000000000000000000 PUSH1 0x0 MSTORE PUSH1 0x32 PUSH1 0x4 MSTORE PUSH1 0x24 PUSH1 0x0 REVERT JUMPDEST PUSH32 0x4E487B7100000000000000000000000000000000000000000000000000000000 PUSH1 0x0 MSTORE PUSH1 0x11 PUSH1 0x4 MSTORE PUSH1 0x24 PUSH1 0x0 REVERT JUMPDEST PUSH1 0x0 PUSH2 0x388 DUP3 PUSH2 0x1AD JUMP JUMPDEST SWAP2 POP PUSH2 0x393 DUP4 PUSH2 0x1AD JUMP JUMPDEST SWAP3 POP DUP3 DUP3 SUB SWAP1 POP DUP2 DUP2 GT ISZERO PUSH2 0x3AB JUMPI PUSH2 0x3AA PUSH2 0x34E JUMP JUMPDEST JUMPDEST SWAP3 SWAP2 POP POP JUMP JUMPDEST PUSH1 0x0 PUSH2 0x3BC DUP3 PUSH2 0x1AD JUMP JUMPDEST SWAP2 POP PUSH2 0x3C7 DUP4 PUSH2 0x1AD JUMP JUMPDEST SWAP3 POP DUP3 DUP3 ADD SWAP1 POP DUP1 DUP3 GT ISZERO PUSH2 0x3DF JUMPI PUSH2 0x3DE PUSH2 0x34E JUMP JUMPDEST JUMPDEST SWAP3 SWAP2 POP POP JUMP JUMPDEST PUSH1 0x0 PUSH2 0x3F0 DUP3 PUSH2 0x1AD JUMP JUMPDEST SWAP2 POP PUSH32 0xFFFFFFFFFFFFFFFFFFFFFFFFFFFFFFFFFFFFFFFFFFFFFFFFFFFFFFFFFFFFFFFF DUP3 SUB PUSH2 0x422 JUMPI PUSH2 0x421 PUSH2 0x34E JUMP JUMPDEST JUMPDEST PUSH1 0x1 DUP3 ADD SWAP1 POP SWAP2 SWAP1 POP JUMP INVALID LOG2 PUSH5 0x6970667358 0x22 SLT KECCAK256 ORIGIN CODESIZE TIMESTAMP RETURNDATACOPY 0x4F GASLIMIT 0xD8 0xE3 0xDA 0xF9 PUSH8 0x7666BEC56483B0D9 SAR 0xA5 SWAP9 0xE PUSH8 0x9BEEEB349BD70C7 PUSH5 0x736F6C6343 STOP ADDMOD SLT STOP CALLER "
				},
				"gasEstimates": {
					"creation": {
						"codeDepositCost": "224600",
						"executionCost": "269",
						"totalCost": "224869"
					},
					"external": {
						"generateFibonacci(uint256)": "infinite"
					}
				},
				"methodIdentifiers": {
					"generateFibonacci(uint256)": "e2000b99"
				}
			},
			"storageLayout": {
				"storage": [],
				"types": null
			},
			"userdoc": {
				"kind": "user",
				"methods": {},
				"version": 1
			}
		}
	}
}