{
	"contracts/04-8 forloop2.sol": {
		"ForLoop": {
			"abi": [
				{
					"inputs": [
						{
							"internalType": "uint256",
							"name": "",
							"type": "uint256"
						}
					],
					"name": "arr",
					"outputs": [
						{
							"internalType": "int256",
							"name": "",
							"type": "int256"
						}
					],
					"stateMutability": "view",
					"type": "function"
				},
				{
					"inputs": [],
					"name": "getnegative",
					"outputs": [
						{
							"internalType": "int256[]",
							"name": "",
							"type": "int256[]"
						}
					],
					"stateMutability": "view",
					"type": "function"
				},
				{
					"inputs": [],
					"name": "getposit",
					"outputs": [
						{
							"internalType": "int256[]",
							"name": "",
							"type": "int256[]"
						}
					],
					"stateMutability": "view",
					"type": "function"
				},
				{
					"inputs": [
						{
							"internalType": "uint256",
							"name": "",
							"type": "uint256"
						}
					],
					"name": "negarr",
					"outputs": [
						{
							"internalType": "int256",
							"name": "",
							"type": "int256"
						}
					],
					"stateMutability": "view",
					"type": "function"
				},
				{
					"inputs": [],
					"name": "negativepart",
					"outputs": [],
					"stateMutability": "nonpayable",
					"type": "function"
				},
				{
					"inputs": [
						{
							"internalType": "uint256",
							"name": "",
							"type": "uint256"
						}
					],
					"name": "positarr",
					"outputs": [
						{
							"internalType": "int256",
							"name": "",
							"type": "int256"
						}
					],
					"stateMutability": "view",
					"type": "function"
				},
				{
					"inputs": [],
					"name": "positivepart",
					"outputs": [],
					"stateMutability": "nonpayable",
					"type": "function"
				}
			],
			"devdoc": {
				"kind": "dev",
				"methods": {},
				"version": 1
			},
			"evm": {
				"assembly": "    /* \"contracts/04-8 forloop2.sol\":59:607  contract ForLoop{... */\n  mstore(0x40, 0x80)\n    /* \"contracts/04-8 forloop2.sol\":80:117  int[5] public arr = [-9, 8, 7, -2, 1] */\n  mload(0x40)\n  dup1\n  0xa0\n  add\n  0x40\n  mstore\n  dup1\n    /* \"contracts/04-8 forloop2.sol\":101:103  -9 */\n  0xfffffffffffffffffffffffffffffffffffffffffffffffffffffffffffffff7\n    /* \"contracts/04-8 forloop2.sol\":80:117  int[5] public arr = [-9, 8, 7, -2, 1] */\n  0x00\n  signextend\n  dup2\n  mstore\n  0x20\n  add\n    /* \"contracts/04-8 forloop2.sol\":105:106  8 */\n  0x08\n    /* \"contracts/04-8 forloop2.sol\":80:117  int[5] public arr = [-9, 8, 7, -2, 1] */\n  0x00\n  signextend\n  dup2\n  mstore\n  0x20\n  add\n    /* \"contracts/04-8 forloop2.sol\":108:109  7 */\n  0x07\n    /* \"contracts/04-8 forloop2.sol\":80:117  int[5] public arr = [-9, 8, 7, -2, 1] */\n  0x00\n  signextend\n  dup2\n  mstore\n  0x20\n  add\n    /* \"contracts/04-8 forloop2.sol\":111:113  -2 */\n  0xfffffffffffffffffffffffffffffffffffffffffffffffffffffffffffffffe\n    /* \"contracts/04-8 forloop2.sol\":80:117  int[5] public arr = [-9, 8, 7, -2, 1] */\n  0x00\n  signextend\n  dup2\n  mstore\n  0x20\n  add\n    /* \"contracts/04-8 forloop2.sol\":115:116  1 */\n  0x01\n    /* \"contracts/04-8 forloop2.sol\":80:117  int[5] public arr = [-9, 8, 7, -2, 1] */\n  0x00\n  signextend\n  dup2\n  mstore\n  pop\n  0x00\n  swap1\n  0x05\n  tag_1\n  swap3\n  swap2\n  swap1\n  tag_2\n  jump\t// in\ntag_1:\n  pop\n    /* \"contracts/04-8 forloop2.sol\":59:607  contract ForLoop{... */\n  callvalue\n  dup1\n  iszero\n  tag_3\n  jumpi\n  0x00\n  dup1\n  revert\ntag_3:\n  pop\n  jump(tag_4)\ntag_2:\n  dup3\n  0x05\n  dup2\n  add\n  swap3\n  dup3\n  iszero\n  tag_5\n  jumpi\n  swap2\n  0x20\n  mul\n  dup3\n  add\ntag_6:\n  dup3\n  dup2\n  gt\n  iszero\n  tag_7\n  jumpi\n  dup3\n  mload\n  dup3\n  swap1\n  0x00\n  signextend\n  swap1\n  sstore\n  swap2\n  0x20\n  add\n  swap2\n  swap1\n  0x01\n  add\n  swap1\n  jump(tag_6)\ntag_7:\ntag_5:\n  pop\n  swap1\n  pop\n  tag_8\n  swap2\n  swap1\n  tag_9\n  jump\t// in\ntag_8:\n  pop\n  swap1\n  jump\t// out\ntag_9:\ntag_10:\n  dup1\n  dup3\n  gt\n  iszero\n  tag_11\n  jumpi\n  0x00\n  dup2\n  0x00\n  swap1\n  sstore\n  pop\n  0x01\n  add\n  jump(tag_10)\ntag_11:\n  pop\n  swap1\n  jump\t// out\ntag_4:\n  dataSize(sub_0)\n  dup1\n  dataOffset(sub_0)\n  0x00\n  codecopy\n  0x00\n  return\nstop\n\nsub_0: assembly {\n        /* \"contracts/04-8 forloop2.sol\":59:607  contract ForLoop{... */\n      mstore(0x40, 0x80)\n      callvalue\n      dup1\n      iszero\n      tag_1\n      jumpi\n      0x00\n      dup1\n      revert\n    tag_1:\n      pop\n      jumpi(tag_2, lt(calldatasize, 0x04))\n      shr(0xe0, calldataload(0x00))\n      dup1\n      0x78c63112\n      gt\n      tag_10\n      jumpi\n      dup1\n      0x78c63112\n      eq\n      tag_6\n      jumpi\n      dup1\n      0xa80f7f05\n      eq\n      tag_7\n      jumpi\n      dup1\n      0xaf7a5369\n      eq\n      tag_8\n      jumpi\n      dup1\n      0xd285f537\n      eq\n      tag_9\n      jumpi\n      jump(tag_2)\n    tag_10:\n      dup1\n      0x4feb2216\n      eq\n      tag_3\n      jumpi\n      dup1\n      0x52af25ce\n      eq\n      tag_4\n      jumpi\n      dup1\n      0x71e5ee5f\n      eq\n      tag_5\n      jumpi\n    tag_2:\n      0x00\n      dup1\n      revert\n        /* \"contracts/04-8 forloop2.sol\":120:141  int[] public positarr */\n    tag_3:\n      tag_11\n      0x04\n      dup1\n      calldatasize\n      sub\n      dup2\n      add\n      swap1\n      tag_12\n      swap2\n      swap1\n      tag_13\n      jump\t// in\n    tag_12:\n      tag_14\n      jump\t// in\n    tag_11:\n      mload(0x40)\n      tag_15\n      swap2\n      swap1\n      tag_16\n      jump\t// in\n    tag_15:\n      mload(0x40)\n      dup1\n      swap2\n      sub\n      swap1\n      return\n        /* \"contracts/04-8 forloop2.sol\":273:348  function getposit() public view returns(int[] memory){... */\n    tag_4:\n      tag_17\n      tag_18\n      jump\t// in\n    tag_17:\n      mload(0x40)\n      tag_19\n      swap2\n      swap1\n      tag_20\n      jump\t// in\n    tag_19:\n      mload(0x40)\n      dup1\n      swap2\n      sub\n      swap1\n      return\n        /* \"contracts/04-8 forloop2.sol\":80:117  int[5] public arr = [-9, 8, 7, -2, 1] */\n    tag_5:\n      tag_21\n      0x04\n      dup1\n      calldatasize\n      sub\n      dup2\n      add\n      swap1\n      tag_22\n      swap2\n      swap1\n      tag_13\n      jump\t// in\n    tag_22:\n      tag_23\n      jump\t// in\n    tag_21:\n      mload(0x40)\n      tag_24\n      swap2\n      swap1\n      tag_16\n      jump\t// in\n    tag_24:\n      mload(0x40)\n      dup1\n      swap2\n      sub\n      swap1\n      return\n        /* \"contracts/04-8 forloop2.sol\":352:371  int[] public negarr */\n    tag_6:\n      tag_25\n      0x04\n      dup1\n      calldatasize\n      sub\n      dup2\n      add\n      swap1\n      tag_26\n      swap2\n      swap1\n      tag_13\n      jump\t// in\n    tag_26:\n      tag_27\n      jump\t// in\n    tag_25:\n      mload(0x40)\n      tag_28\n      swap2\n      swap1\n      tag_16\n      jump\t// in\n    tag_28:\n      mload(0x40)\n      dup1\n      swap2\n      sub\n      swap1\n      return\n        /* \"contracts/04-8 forloop2.sol\":146:271  function positivepart() public{... */\n    tag_7:\n      tag_29\n      tag_30\n      jump\t// in\n    tag_29:\n      stop\n        /* \"contracts/04-8 forloop2.sol\":376:522  function negativepart()public {... */\n    tag_8:\n      tag_31\n      tag_32\n      jump\t// in\n    tag_31:\n      stop\n        /* \"contracts/04-8 forloop2.sol\":526:602  function getnegative() public view returns(int[] memory){... */\n    tag_9:\n      tag_33\n      tag_34\n      jump\t// in\n    tag_33:\n      mload(0x40)\n      tag_35\n      swap2\n      swap1\n      tag_20\n      jump\t// in\n    tag_35:\n      mload(0x40)\n      dup1\n      swap2\n      sub\n      swap1\n      return\n        /* \"contracts/04-8 forloop2.sol\":120:141  int[] public positarr */\n    tag_14:\n      0x05\n      dup2\n      dup2\n      sload\n      dup2\n      lt\n      tag_36\n      jumpi\n      0x00\n      dup1\n      revert\n    tag_36:\n      swap1\n      0x00\n      mstore\n      keccak256(0x00, 0x20)\n      add\n      0x00\n      swap2\n      pop\n      swap1\n      pop\n      sload\n      dup2\n      jump\t// out\n        /* \"contracts/04-8 forloop2.sol\":273:348  function getposit() public view returns(int[] memory){... */\n    tag_18:\n        /* \"contracts/04-8 forloop2.sol\":313:325  int[] memory */\n      0x60\n        /* \"contracts/04-8 forloop2.sol\":336:344  positarr */\n      0x05\n        /* \"contracts/04-8 forloop2.sol\":329:344  return positarr */\n      dup1\n      sload\n      dup1\n      0x20\n      mul\n      0x20\n      add\n      mload(0x40)\n      swap1\n      dup2\n      add\n      0x40\n      mstore\n      dup1\n      swap3\n      swap2\n      swap1\n      dup2\n      dup2\n      mstore\n      0x20\n      add\n      dup3\n      dup1\n      sload\n      dup1\n      iszero\n      tag_39\n      jumpi\n      0x20\n      mul\n      dup3\n      add\n      swap2\n      swap1\n      0x00\n      mstore\n      keccak256(0x00, 0x20)\n      swap1\n    tag_40:\n      dup2\n      sload\n      dup2\n      mstore\n      0x20\n      add\n      swap1\n      0x01\n      add\n      swap1\n      dup1\n      dup4\n      gt\n      tag_40\n      jumpi\n    tag_39:\n      pop\n      pop\n      pop\n      pop\n      pop\n      swap1\n      pop\n        /* \"contracts/04-8 forloop2.sol\":273:348  function getposit() public view returns(int[] memory){... */\n      swap1\n      jump\t// out\n        /* \"contracts/04-8 forloop2.sol\":80:117  int[5] public arr = [-9, 8, 7, -2, 1] */\n    tag_23:\n      0x00\n      dup2\n      0x05\n      dup2\n      lt\n      tag_41\n      jumpi\n      0x00\n      dup1\n      revert\n    tag_41:\n      add\n      0x00\n      swap2\n      pop\n      swap1\n      pop\n      sload\n      dup2\n      jump\t// out\n        /* \"contracts/04-8 forloop2.sol\":352:371  int[] public negarr */\n    tag_27:\n      0x06\n      dup2\n      dup2\n      sload\n      dup2\n      lt\n      tag_43\n      jumpi\n      0x00\n      dup1\n      revert\n    tag_43:\n      swap1\n      0x00\n      mstore\n      keccak256(0x00, 0x20)\n      add\n      0x00\n      swap2\n      pop\n      swap1\n      pop\n      sload\n      dup2\n      jump\t// out\n        /* \"contracts/04-8 forloop2.sol\":146:271  function positivepart() public{... */\n    tag_30:\n        /* \"contracts/04-8 forloop2.sol\":185:191  uint i */\n      0x00\n        /* \"contracts/04-8 forloop2.sol\":181:268  for(uint i = 0; i < arr.length; i++){... */\n    tag_46:\n        /* \"contracts/04-8 forloop2.sol\":201:211  arr.length */\n      0x05\n        /* \"contracts/04-8 forloop2.sol\":197:198  i */\n      dup2\n        /* \"contracts/04-8 forloop2.sol\":197:211  i < arr.length */\n      lt\n        /* \"contracts/04-8 forloop2.sol\":181:268  for(uint i = 0; i < arr.length; i++){... */\n      iszero\n      tag_47\n      jumpi\n        /* \"contracts/04-8 forloop2.sol\":235:236  0 */\n      0x00\n        /* \"contracts/04-8 forloop2.sol\":225:228  arr */\n      dup1\n        /* \"contracts/04-8 forloop2.sol\":229:230  i */\n      dup3\n        /* \"contracts/04-8 forloop2.sol\":225:231  arr[i] */\n      0x05\n      dup2\n      lt\n      tag_49\n      jumpi\n      tag_50\n      tag_51\n      jump\t// in\n    tag_50:\n    tag_49:\n      add\n      sload\n        /* \"contracts/04-8 forloop2.sol\":225:236  arr[i] >= 0 */\n      slt\n        /* \"contracts/04-8 forloop2.sol\":222:265  if(arr[i] >= 0){... */\n      tag_53\n      jumpi\n        /* \"contracts/04-8 forloop2.sol\":240:248  positarr */\n      0x05\n        /* \"contracts/04-8 forloop2.sol\":254:257  arr */\n      0x00\n        /* \"contracts/04-8 forloop2.sol\":258:259  i */\n      dup3\n        /* \"contracts/04-8 forloop2.sol\":254:260  arr[i] */\n      0x05\n      dup2\n      lt\n      tag_54\n      jumpi\n      tag_55\n      tag_51\n      jump\t// in\n    tag_55:\n    tag_54:\n      add\n      sload\n        /* \"contracts/04-8 forloop2.sol\":240:261  positarr.push(arr[i]) */\n      swap1\n      dup1\n      0x01\n      dup2\n      sload\n      add\n      dup1\n      dup3\n      sstore\n      dup1\n      swap2\n      pop\n      pop\n      0x01\n      swap1\n      sub\n      swap1\n      0x00\n      mstore\n      keccak256(0x00, 0x20)\n      add\n      0x00\n      swap1\n      swap2\n      swap1\n      swap2\n      swap1\n      swap2\n      pop\n      sstore\n        /* \"contracts/04-8 forloop2.sol\":222:265  if(arr[i] >= 0){... */\n    tag_53:\n        /* \"contracts/04-8 forloop2.sol\":213:216  i++ */\n      dup1\n      dup1\n      tag_58\n      swap1\n      tag_59\n      jump\t// in\n    tag_58:\n      swap2\n      pop\n      pop\n        /* \"contracts/04-8 forloop2.sol\":181:268  for(uint i = 0; i < arr.length; i++){... */\n      jump(tag_46)\n    tag_47:\n      pop\n        /* \"contracts/04-8 forloop2.sol\":146:271  function positivepart() public{... */\n      jump\t// out\n        /* \"contracts/04-8 forloop2.sol\":376:522  function negativepart()public {... */\n    tag_32:\n        /* \"contracts/04-8 forloop2.sol\":417:423  uint i */\n      0x00\n        /* \"contracts/04-8 forloop2.sol\":413:519  for(uint i=0;i<arr.length;i++){... */\n    tag_61:\n        /* \"contracts/04-8 forloop2.sol\":428:438  arr.length */\n      0x05\n        /* \"contracts/04-8 forloop2.sol\":426:427  i */\n      dup2\n        /* \"contracts/04-8 forloop2.sol\":426:438  i<arr.length */\n      lt\n        /* \"contracts/04-8 forloop2.sol\":413:519  for(uint i=0;i<arr.length;i++){... */\n      iszero\n      tag_62\n      jumpi\n        /* \"contracts/04-8 forloop2.sol\":464:465  0 */\n      0x00\n        /* \"contracts/04-8 forloop2.sol\":457:460  arr */\n      dup1\n        /* \"contracts/04-8 forloop2.sol\":461:462  i */\n      dup3\n        /* \"contracts/04-8 forloop2.sol\":457:463  arr[i] */\n      0x05\n      dup2\n      lt\n      tag_64\n      jumpi\n      tag_65\n      tag_51\n      jump\t// in\n    tag_65:\n    tag_64:\n      add\n      sload\n        /* \"contracts/04-8 forloop2.sol\":457:465  arr[i]<0 */\n      slt\n        /* \"contracts/04-8 forloop2.sol\":454:512  if(arr[i]<0){... */\n      iszero\n      tag_67\n      jumpi\n        /* \"contracts/04-8 forloop2.sol\":481:487  negarr */\n      0x06\n        /* \"contracts/04-8 forloop2.sol\":493:496  arr */\n      0x00\n        /* \"contracts/04-8 forloop2.sol\":497:498  i */\n      dup3\n        /* \"contracts/04-8 forloop2.sol\":493:499  arr[i] */\n      0x05\n      dup2\n      lt\n      tag_68\n      jumpi\n      tag_69\n      tag_51\n      jump\t// in\n    tag_69:\n    tag_68:\n      add\n      sload\n        /* \"contracts/04-8 forloop2.sol\":481:500  negarr.push(arr[i]) */\n      swap1\n      dup1\n      0x01\n      dup2\n      sload\n      add\n      dup1\n      dup3\n      sstore\n      dup1\n      swap2\n      pop\n      pop\n      0x01\n      swap1\n      sub\n      swap1\n      0x00\n      mstore\n      keccak256(0x00, 0x20)\n      add\n      0x00\n      swap1\n      swap2\n      swap1\n      swap2\n      swap1\n      swap2\n      pop\n      sstore\n        /* \"contracts/04-8 forloop2.sol\":454:512  if(arr[i]<0){... */\n    tag_67:\n        /* \"contracts/04-8 forloop2.sol\":439:442  i++ */\n      dup1\n      dup1\n      tag_72\n      swap1\n      tag_59\n      jump\t// in\n    tag_72:\n      swap2\n      pop\n      pop\n        /* \"contracts/04-8 forloop2.sol\":413:519  for(uint i=0;i<arr.length;i++){... */\n      jump(tag_61)\n    tag_62:\n      pop\n        /* \"contracts/04-8 forloop2.sol\":376:522  function negativepart()public {... */\n      jump\t// out\n        /* \"contracts/04-8 forloop2.sol\":526:602  function getnegative() public view returns(int[] memory){... */\n    tag_34:\n        /* \"contracts/04-8 forloop2.sol\":569:581  int[] memory */\n      0x60\n        /* \"contracts/04-8 forloop2.sol\":592:598  negarr */\n      0x06\n        /* \"contracts/04-8 forloop2.sol\":585:598  return negarr */\n      dup1\n      sload\n      dup1\n      0x20\n      mul\n      0x20\n      add\n      mload(0x40)\n      swap1\n      dup2\n      add\n      0x40\n      mstore\n      dup1\n      swap3\n      swap2\n      swap1\n      dup2\n      dup2\n      mstore\n      0x20\n      add\n      dup3\n      dup1\n      sload\n      dup1\n      iszero\n      tag_74\n      jumpi\n      0x20\n      mul\n      dup3\n      add\n      swap2\n      swap1\n      0x00\n      mstore\n      keccak256(0x00, 0x20)\n      swap1\n    tag_75:\n      dup2\n      sload\n      dup2\n      mstore\n      0x20\n      add\n      swap1\n      0x01\n      add\n      swap1\n      dup1\n      dup4\n      gt\n      tag_75\n      jumpi\n    tag_74:\n      pop\n      pop\n      pop\n      pop\n      pop\n      swap1\n      pop\n        /* \"contracts/04-8 forloop2.sol\":526:602  function getnegative() public view returns(int[] memory){... */\n      swap1\n      jump\t// out\n        /* \"#utility.yul\":88:205   */\n    tag_77:\n        /* \"#utility.yul\":197:198   */\n      0x00\n        /* \"#utility.yul\":194:195   */\n      dup1\n        /* \"#utility.yul\":187:199   */\n      revert\n        /* \"#utility.yul\":334:411   */\n    tag_79:\n        /* \"#utility.yul\":371:378   */\n      0x00\n        /* \"#utility.yul\":400:405   */\n      dup2\n        /* \"#utility.yul\":389:405   */\n      swap1\n      pop\n        /* \"#utility.yul\":334:411   */\n      swap2\n      swap1\n      pop\n      jump\t// out\n        /* \"#utility.yul\":417:539   */\n    tag_80:\n        /* \"#utility.yul\":490:514   */\n      tag_98\n        /* \"#utility.yul\":508:513   */\n      dup2\n        /* \"#utility.yul\":490:514   */\n      tag_79\n      jump\t// in\n    tag_98:\n        /* \"#utility.yul\":483:488   */\n      dup2\n        /* \"#utility.yul\":480:515   */\n      eq\n        /* \"#utility.yul\":470:533   */\n      tag_99\n      jumpi\n        /* \"#utility.yul\":529:530   */\n      0x00\n        /* \"#utility.yul\":526:527   */\n      dup1\n        /* \"#utility.yul\":519:531   */\n      revert\n        /* \"#utility.yul\":470:533   */\n    tag_99:\n        /* \"#utility.yul\":417:539   */\n      pop\n      jump\t// out\n        /* \"#utility.yul\":545:684   */\n    tag_81:\n        /* \"#utility.yul\":591:596   */\n      0x00\n        /* \"#utility.yul\":629:635   */\n      dup2\n        /* \"#utility.yul\":616:636   */\n      calldataload\n        /* \"#utility.yul\":607:636   */\n      swap1\n      pop\n        /* \"#utility.yul\":645:678   */\n      tag_101\n        /* \"#utility.yul\":672:677   */\n      dup2\n        /* \"#utility.yul\":645:678   */\n      tag_80\n      jump\t// in\n    tag_101:\n        /* \"#utility.yul\":545:684   */\n      swap3\n      swap2\n      pop\n      pop\n      jump\t// out\n        /* \"#utility.yul\":690:1019   */\n    tag_13:\n        /* \"#utility.yul\":749:755   */\n      0x00\n        /* \"#utility.yul\":798:800   */\n      0x20\n        /* \"#utility.yul\":786:795   */\n      dup3\n        /* \"#utility.yul\":777:784   */\n      dup5\n        /* \"#utility.yul\":773:796   */\n      sub\n        /* \"#utility.yul\":769:801   */\n      slt\n        /* \"#utility.yul\":766:885   */\n      iszero\n      tag_103\n      jumpi\n        /* \"#utility.yul\":804:883   */\n      tag_104\n      tag_77\n      jump\t// in\n    tag_104:\n        /* \"#utility.yul\":766:885   */\n    tag_103:\n        /* \"#utility.yul\":924:925   */\n      0x00\n        /* \"#utility.yul\":949:1002   */\n      tag_105\n        /* \"#utility.yul\":994:1001   */\n      dup5\n        /* \"#utility.yul\":985:991   */\n      dup3\n        /* \"#utility.yul\":974:983   */\n      dup6\n        /* \"#utility.yul\":970:992   */\n      add\n        /* \"#utility.yul\":949:1002   */\n      tag_81\n      jump\t// in\n    tag_105:\n        /* \"#utility.yul\":939:1002   */\n      swap2\n      pop\n        /* \"#utility.yul\":895:1012   */\n      pop\n        /* \"#utility.yul\":690:1019   */\n      swap3\n      swap2\n      pop\n      pop\n      jump\t// out\n        /* \"#utility.yul\":1025:1101   */\n    tag_82:\n        /* \"#utility.yul\":1061:1068   */\n      0x00\n        /* \"#utility.yul\":1090:1095   */\n      dup2\n        /* \"#utility.yul\":1079:1095   */\n      swap1\n      pop\n        /* \"#utility.yul\":1025:1101   */\n      swap2\n      swap1\n      pop\n      jump\t// out\n        /* \"#utility.yul\":1107:1222   */\n    tag_83:\n        /* \"#utility.yul\":1192:1215   */\n      tag_108\n        /* \"#utility.yul\":1209:1214   */\n      dup2\n        /* \"#utility.yul\":1192:1215   */\n      tag_82\n      jump\t// in\n    tag_108:\n        /* \"#utility.yul\":1187:1190   */\n      dup3\n        /* \"#utility.yul\":1180:1216   */\n      mstore\n        /* \"#utility.yul\":1107:1222   */\n      pop\n      pop\n      jump\t// out\n        /* \"#utility.yul\":1228:1446   */\n    tag_16:\n        /* \"#utility.yul\":1319:1323   */\n      0x00\n        /* \"#utility.yul\":1357:1359   */\n      0x20\n        /* \"#utility.yul\":1346:1355   */\n      dup3\n        /* \"#utility.yul\":1342:1360   */\n      add\n        /* \"#utility.yul\":1334:1360   */\n      swap1\n      pop\n        /* \"#utility.yul\":1370:1439   */\n      tag_110\n        /* \"#utility.yul\":1436:1437   */\n      0x00\n        /* \"#utility.yul\":1425:1434   */\n      dup4\n        /* \"#utility.yul\":1421:1438   */\n      add\n        /* \"#utility.yul\":1412:1418   */\n      dup5\n        /* \"#utility.yul\":1370:1439   */\n      tag_83\n      jump\t// in\n    tag_110:\n        /* \"#utility.yul\":1228:1446   */\n      swap3\n      swap2\n      pop\n      pop\n      jump\t// out\n        /* \"#utility.yul\":1452:1565   */\n    tag_84:\n        /* \"#utility.yul\":1518:1524   */\n      0x00\n        /* \"#utility.yul\":1552:1557   */\n      dup2\n        /* \"#utility.yul\":1546:1558   */\n      mload\n        /* \"#utility.yul\":1536:1558   */\n      swap1\n      pop\n        /* \"#utility.yul\":1452:1565   */\n      swap2\n      swap1\n      pop\n      jump\t// out\n        /* \"#utility.yul\":1571:1754   */\n    tag_85:\n        /* \"#utility.yul\":1669:1680   */\n      0x00\n        /* \"#utility.yul\":1703:1709   */\n      dup3\n        /* \"#utility.yul\":1698:1701   */\n      dup3\n        /* \"#utility.yul\":1691:1710   */\n      mstore\n        /* \"#utility.yul\":1743:1747   */\n      0x20\n        /* \"#utility.yul\":1738:1741   */\n      dup3\n        /* \"#utility.yul\":1734:1748   */\n      add\n        /* \"#utility.yul\":1719:1748   */\n      swap1\n      pop\n        /* \"#utility.yul\":1571:1754   */\n      swap3\n      swap2\n      pop\n      pop\n      jump\t// out\n        /* \"#utility.yul\":1760:1891   */\n    tag_86:\n        /* \"#utility.yul\":1826:1830   */\n      0x00\n        /* \"#utility.yul\":1849:1852   */\n      dup2\n        /* \"#utility.yul\":1841:1852   */\n      swap1\n      pop\n        /* \"#utility.yul\":1879:1883   */\n      0x20\n        /* \"#utility.yul\":1874:1877   */\n      dup3\n        /* \"#utility.yul\":1870:1884   */\n      add\n        /* \"#utility.yul\":1862:1884   */\n      swap1\n      pop\n        /* \"#utility.yul\":1760:1891   */\n      swap2\n      swap1\n      pop\n      jump\t// out\n        /* \"#utility.yul\":1897:2002   */\n    tag_87:\n        /* \"#utility.yul\":1972:1995   */\n      tag_115\n        /* \"#utility.yul\":1989:1994   */\n      dup2\n        /* \"#utility.yul\":1972:1995   */\n      tag_82\n      jump\t// in\n    tag_115:\n        /* \"#utility.yul\":1967:1970   */\n      dup3\n        /* \"#utility.yul\":1960:1996   */\n      mstore\n        /* \"#utility.yul\":1897:2002   */\n      pop\n      pop\n      jump\t// out\n        /* \"#utility.yul\":2008:2183   */\n    tag_88:\n        /* \"#utility.yul\":2075:2085   */\n      0x00\n        /* \"#utility.yul\":2096:2140   */\n      tag_117\n        /* \"#utility.yul\":2136:2139   */\n      dup4\n        /* \"#utility.yul\":2128:2134   */\n      dup4\n        /* \"#utility.yul\":2096:2140   */\n      tag_87\n      jump\t// in\n    tag_117:\n        /* \"#utility.yul\":2172:2176   */\n      0x20\n        /* \"#utility.yul\":2167:2170   */\n      dup4\n        /* \"#utility.yul\":2163:2177   */\n      add\n        /* \"#utility.yul\":2149:2177   */\n      swap1\n      pop\n        /* \"#utility.yul\":2008:2183   */\n      swap3\n      swap2\n      pop\n      pop\n      jump\t// out\n        /* \"#utility.yul\":2189:2301   */\n    tag_89:\n        /* \"#utility.yul\":2258:2262   */\n      0x00\n        /* \"#utility.yul\":2290:2294   */\n      0x20\n        /* \"#utility.yul\":2285:2288   */\n      dup3\n        /* \"#utility.yul\":2281:2295   */\n      add\n        /* \"#utility.yul\":2273:2295   */\n      swap1\n      pop\n        /* \"#utility.yul\":2189:2301   */\n      swap2\n      swap1\n      pop\n      jump\t// out\n        /* \"#utility.yul\":2335:3059   */\n    tag_90:\n        /* \"#utility.yul\":2452:2455   */\n      0x00\n        /* \"#utility.yul\":2481:2534   */\n      tag_120\n        /* \"#utility.yul\":2528:2533   */\n      dup3\n        /* \"#utility.yul\":2481:2534   */\n      tag_84\n      jump\t// in\n    tag_120:\n        /* \"#utility.yul\":2550:2635   */\n      tag_121\n        /* \"#utility.yul\":2628:2634   */\n      dup2\n        /* \"#utility.yul\":2623:2626   */\n      dup6\n        /* \"#utility.yul\":2550:2635   */\n      tag_85\n      jump\t// in\n    tag_121:\n        /* \"#utility.yul\":2543:2635   */\n      swap4\n      pop\n        /* \"#utility.yul\":2659:2714   */\n      tag_122\n        /* \"#utility.yul\":2708:2713   */\n      dup4\n        /* \"#utility.yul\":2659:2714   */\n      tag_86\n      jump\t// in\n    tag_122:\n        /* \"#utility.yul\":2737:2744   */\n      dup1\n        /* \"#utility.yul\":2768:2769   */\n      0x00\n        /* \"#utility.yul\":2753:3034   */\n    tag_123:\n        /* \"#utility.yul\":2778:2784   */\n      dup4\n        /* \"#utility.yul\":2775:2776   */\n      dup2\n        /* \"#utility.yul\":2772:2785   */\n      lt\n        /* \"#utility.yul\":2753:3034   */\n      iszero\n      tag_125\n      jumpi\n        /* \"#utility.yul\":2854:2860   */\n      dup2\n        /* \"#utility.yul\":2848:2861   */\n      mload\n        /* \"#utility.yul\":2881:2942   */\n      tag_126\n        /* \"#utility.yul\":2938:2941   */\n      dup9\n        /* \"#utility.yul\":2923:2936   */\n      dup3\n        /* \"#utility.yul\":2881:2942   */\n      tag_88\n      jump\t// in\n    tag_126:\n        /* \"#utility.yul\":2874:2942   */\n      swap8\n      pop\n        /* \"#utility.yul\":2965:3024   */\n      tag_127\n        /* \"#utility.yul\":3017:3023   */\n      dup4\n        /* \"#utility.yul\":2965:3024   */\n      tag_89\n      jump\t// in\n    tag_127:\n        /* \"#utility.yul\":2955:3024   */\n      swap3\n      pop\n        /* \"#utility.yul\":2813:3034   */\n      pop\n        /* \"#utility.yul\":2800:2801   */\n      0x01\n        /* \"#utility.yul\":2797:2798   */\n      dup2\n        /* \"#utility.yul\":2793:2802   */\n      add\n        /* \"#utility.yul\":2788:2802   */\n      swap1\n      pop\n        /* \"#utility.yul\":2753:3034   */\n      jump(tag_123)\n    tag_125:\n        /* \"#utility.yul\":2757:2771   */\n      pop\n        /* \"#utility.yul\":3050:3053   */\n      dup6\n        /* \"#utility.yul\":3043:3053   */\n      swap4\n      pop\n        /* \"#utility.yul\":2457:3059   */\n      pop\n      pop\n      pop\n        /* \"#utility.yul\":2335:3059   */\n      swap3\n      swap2\n      pop\n      pop\n      jump\t// out\n        /* \"#utility.yul\":3065:3434   */\n    tag_20:\n        /* \"#utility.yul\":3206:3210   */\n      0x00\n        /* \"#utility.yul\":3244:3246   */\n      0x20\n        /* \"#utility.yul\":3233:3242   */\n      dup3\n        /* \"#utility.yul\":3229:3247   */\n      add\n        /* \"#utility.yul\":3221:3247   */\n      swap1\n      pop\n        /* \"#utility.yul\":3293:3302   */\n      dup2\n        /* \"#utility.yul\":3287:3291   */\n      dup2\n        /* \"#utility.yul\":3283:3303   */\n      sub\n        /* \"#utility.yul\":3279:3280   */\n      0x00\n        /* \"#utility.yul\":3268:3277   */\n      dup4\n        /* \"#utility.yul\":3264:3281   */\n      add\n        /* \"#utility.yul\":3257:3304   */\n      mstore\n        /* \"#utility.yul\":3321:3427   */\n      tag_129\n        /* \"#utility.yul\":3422:3426   */\n      dup2\n        /* \"#utility.yul\":3413:3419   */\n      dup5\n        /* \"#utility.yul\":3321:3427   */\n      tag_90\n      jump\t// in\n    tag_129:\n        /* \"#utility.yul\":3313:3427   */\n      swap1\n      pop\n        /* \"#utility.yul\":3065:3434   */\n      swap3\n      swap2\n      pop\n      pop\n      jump\t// out\n        /* \"#utility.yul\":3440:3620   */\n    tag_51:\n        /* \"#utility.yul\":3488:3565   */\n      0x4e487b7100000000000000000000000000000000000000000000000000000000\n        /* \"#utility.yul\":3485:3486   */\n      0x00\n        /* \"#utility.yul\":3478:3566   */\n      mstore\n        /* \"#utility.yul\":3585:3589   */\n      0x32\n        /* \"#utility.yul\":3582:3583   */\n      0x04\n        /* \"#utility.yul\":3575:3590   */\n      mstore\n        /* \"#utility.yul\":3609:3613   */\n      0x24\n        /* \"#utility.yul\":3606:3607   */\n      0x00\n        /* \"#utility.yul\":3599:3614   */\n      revert\n        /* \"#utility.yul\":3626:3806   */\n    tag_91:\n        /* \"#utility.yul\":3674:3751   */\n      0x4e487b7100000000000000000000000000000000000000000000000000000000\n        /* \"#utility.yul\":3671:3672   */\n      0x00\n        /* \"#utility.yul\":3664:3752   */\n      mstore\n        /* \"#utility.yul\":3771:3775   */\n      0x11\n        /* \"#utility.yul\":3768:3769   */\n      0x04\n        /* \"#utility.yul\":3761:3776   */\n      mstore\n        /* \"#utility.yul\":3795:3799   */\n      0x24\n        /* \"#utility.yul\":3792:3793   */\n      0x00\n        /* \"#utility.yul\":3785:3800   */\n      revert\n        /* \"#utility.yul\":3812:4045   */\n    tag_59:\n        /* \"#utility.yul\":3851:3854   */\n      0x00\n        /* \"#utility.yul\":3874:3898   */\n      tag_133\n        /* \"#utility.yul\":3892:3897   */\n      dup3\n        /* \"#utility.yul\":3874:3898   */\n      tag_79\n      jump\t// in\n    tag_133:\n        /* \"#utility.yul\":3865:3898   */\n      swap2\n      pop\n        /* \"#utility.yul\":3920:3986   */\n      0xffffffffffffffffffffffffffffffffffffffffffffffffffffffffffffffff\n        /* \"#utility.yul\":3913:3918   */\n      dup3\n        /* \"#utility.yul\":3910:3987   */\n      sub\n        /* \"#utility.yul\":3907:4010   */\n      tag_134\n      jumpi\n        /* \"#utility.yul\":3990:4008   */\n      tag_135\n      tag_91\n      jump\t// in\n    tag_135:\n        /* \"#utility.yul\":3907:4010   */\n    tag_134:\n        /* \"#utility.yul\":4037:4038   */\n      0x01\n        /* \"#utility.yul\":4030:4035   */\n      dup3\n        /* \"#utility.yul\":4026:4039   */\n      add\n        /* \"#utility.yul\":4019:4039   */\n      swap1\n      pop\n        /* \"#utility.yul\":3812:4045   */\n      swap2\n      swap1\n      pop\n      jump\t// out\n\n    auxdata: 0xa26469706673582212204aae6fcf1d0f4d21880f2bfdd9d11f3c2fa091394ad01bd3ebdd3ae48688f3a664736f6c63430008120033\n}\n",
				"bytecode": {
					"linkReferences": {},
					"object": "60806040526040518060a001604052807ffffffffffffffffffffffffffffffffffffffffffffffffffffffffffffffff760000b8152602001600860000b8152602001600760000b81526020017ffffffffffffffffffffffffffffffffffffffffffffffffffffffffffffffffe60000b8152602001600160000b815250600090600561008d9291906100a0565b5034801561009a57600080fd5b50610102565b82600581019282156100d4579160200282015b828111156100d3578251829060000b9055916020019190600101906100b3565b5b5090506100e191906100e5565b5090565b5b808211156100fe5760008160009055506001016100e6565b5090565b6105c8806101116000396000f3fe608060405234801561001057600080fd5b506004361061007d5760003560e01c806378c631121161005b57806378c6311214610100578063a80f7f0514610130578063af7a53691461013a578063d285f537146101445761007d565b80634feb22161461008257806352af25ce146100b257806371e5ee5f146100d0575b600080fd5b61009c600480360381019061009791906103ab565b610162565b6040516100a991906103f1565b60405180910390f35b6100ba610186565b6040516100c791906104ca565b60405180910390f35b6100ea60048036038101906100e591906103ab565b6101de565b6040516100f791906103f1565b60405180910390f35b61011a600480360381019061011591906103ab565b6101f9565b60405161012791906103f1565b60405180910390f35b61013861021d565b005b61014261029a565b005b61014c610318565b60405161015991906104ca565b60405180910390f35b6005818154811061017257600080fd5b906000526020600020016000915090505481565b606060058054806020026020016040519081016040528092919081815260200182805480156101d457602002820191906000526020600020905b8154815260200190600101908083116101c0575b5050505050905090565b600081600581106101ee57600080fd5b016000915090505481565b6006818154811061020957600080fd5b906000526020600020016000915090505481565b60005b600581101561029757600080826005811061023e5761023d6104ec565b5b0154126102845760056000826005811061025b5761025a6104ec565b5b015490806001815401808255809150506001900390600052602060002001600090919091909150555b808061028f9061054a565b915050610220565b50565b60005b60058110156103155760008082600581106102bb576102ba6104ec565b5b01541215610302576006600082600581106102d9576102d86104ec565b5b015490806001815401808255809150506001900390600052602060002001600090919091909150555b808061030d9061054a565b91505061029d565b50565b6060600680548060200260200160405190810160405280929190818152602001828054801561036657602002820191906000526020600020905b815481526020019060010190808311610352575b5050505050905090565b600080fd5b6000819050919050565b61038881610375565b811461039357600080fd5b50565b6000813590506103a58161037f565b92915050565b6000602082840312156103c1576103c0610370565b5b60006103cf84828501610396565b91505092915050565b6000819050919050565b6103eb816103d8565b82525050565b600060208201905061040660008301846103e2565b92915050565b600081519050919050565b600082825260208201905092915050565b6000819050602082019050919050565b610441816103d8565b82525050565b60006104538383610438565b60208301905092915050565b6000602082019050919050565b60006104778261040c565b6104818185610417565b935061048c83610428565b8060005b838110156104bd5781516104a48882610447565b97506104af8361045f565b925050600181019050610490565b5085935050505092915050565b600060208201905081810360008301526104e4818461046c565b905092915050565b7f4e487b7100000000000000000000000000000000000000000000000000000000600052603260045260246000fd5b7f4e487b7100000000000000000000000000000000000000000000000000000000600052601160045260246000fd5b600061055582610375565b91507fffffffffffffffffffffffffffffffffffffffffffffffffffffffffffffffff82036105875761058661051b565b5b60018201905091905056fea26469706673582212204aae6fcf1d0f4d21880f2bfdd9d11f3c2fa091394ad01bd3ebdd3ae48688f3a664736f6c63430008120033",
					"opcodes": "PUSH1 0x80 PUSH1 0x40 MSTORE PUSH1 0x40 MLOAD DUP1 PUSH1 0xA0 ADD PUSH1 0x40 MSTORE DUP1 PUSH32 0xFFFFFFFFFFFFFFFFFFFFFFFFFFFFFFFFFFFFFFFFFFFFFFFFFFFFFFFFFFFFFFF7 PUSH1 0x0 SIGNEXTEND DUP2 MSTORE PUSH1 0x20 ADD PUSH1 0x8 PUSH1 0x0 SIGNEXTEND DUP2 MSTORE PUSH1 0x20 ADD PUSH1 0x7 PUSH1 0x0 SIGNEXTEND DUP2 MSTORE PUSH1 0x20 ADD PUSH32 0xFFFFFFFFFFFFFFFFFFFFFFFFFFFFFFFFFFFFFFFFFFFFFFFFFFFFFFFFFFFFFFFE PUSH1 0x0 SIGNEXTEND DUP2 MSTORE PUSH1 0x20 ADD PUSH1 0x1 PUSH1 0x0 SIGNEXTEND DUP2 MSTORE POP PUSH1 0x0 SWAP1 PUSH1 0x5 PUSH2 0x8D SWAP3 SWAP2 SWAP1 PUSH2 0xA0 JUMP JUMPDEST POP CALLVALUE DUP1 ISZERO PUSH2 0x9A JUMPI PUSH1 0x0 DUP1 REVERT JUMPDEST POP PUSH2 0x102 JUMP JUMPDEST DUP3 PUSH1 0x5 DUP2 ADD SWAP3 DUP3 ISZERO PUSH2 0xD4 JUMPI SWAP2 PUSH1 0x20 MUL DUP3 ADD JUMPDEST DUP3 DUP2 GT ISZERO PUSH2 0xD3 JUMPI DUP3 MLOAD DUP3 SWAP1 PUSH1 0x0 SIGNEXTEND SWAP1 SSTORE SWAP2 PUSH1 0x20 ADD SWAP2 SWAP1 PUSH1 0x1 ADD SWAP1 PUSH2 0xB3 JUMP JUMPDEST JUMPDEST POP SWAP1 POP PUSH2 0xE1 SWAP2 SWAP1 PUSH2 0xE5 JUMP JUMPDEST POP SWAP1 JUMP JUMPDEST JUMPDEST DUP1 DUP3 GT ISZERO PUSH2 0xFE JUMPI PUSH1 0x0 DUP2 PUSH1 0x0 SWAP1 SSTORE POP PUSH1 0x1 ADD PUSH2 0xE6 JUMP JUMPDEST POP SWAP1 JUMP JUMPDEST PUSH2 0x5C8 DUP1 PUSH2 0x111 PUSH1 0x0 CODECOPY PUSH1 0x0 RETURN INVALID PUSH1 0x80 PUSH1 0x40 MSTORE CALLVALUE DUP1 ISZERO PUSH2 0x10 JUMPI PUSH1 0x0 DUP1 REVERT JUMPDEST POP PUSH1 0x4 CALLDATASIZE LT PUSH2 0x7D JUMPI PUSH1 0x0 CALLDATALOAD PUSH1 0xE0 SHR DUP1 PUSH4 0x78C63112 GT PUSH2 0x5B JUMPI DUP1 PUSH4 0x78C63112 EQ PUSH2 0x100 JUMPI DUP1 PUSH4 0xA80F7F05 EQ PUSH2 0x130 JUMPI DUP1 PUSH4 0xAF7A5369 EQ PUSH2 0x13A JUMPI DUP1 PUSH4 0xD285F537 EQ PUSH2 0x144 JUMPI PUSH2 0x7D JUMP JUMPDEST DUP1 PUSH4 0x4FEB2216 EQ PUSH2 0x82 JUMPI DUP1 PUSH4 0x52AF25CE EQ PUSH2 0xB2 JUMPI DUP1 PUSH4 0x71E5EE5F EQ PUSH2 0xD0 JUMPI JUMPDEST PUSH1 0x0 DUP1 REVERT JUMPDEST PUSH2 0x9C PUSH1 0x4 DUP1 CALLDATASIZE SUB DUP2 ADD SWAP1 PUSH2 0x97 SWAP2 SWAP1 PUSH2 0x3AB JUMP JUMPDEST PUSH2 0x162 JUMP JUMPDEST PUSH1 0x40 MLOAD PUSH2 0xA9 SWAP2 SWAP1 PUSH2 0x3F1 JUMP JUMPDEST PUSH1 0x40 MLOAD DUP1 SWAP2 SUB SWAP1 RETURN JUMPDEST PUSH2 0xBA PUSH2 0x186 JUMP JUMPDEST PUSH1 0x40 MLOAD PUSH2 0xC7 SWAP2 SWAP1 PUSH2 0x4CA JUMP JUMPDEST PUSH1 0x40 MLOAD DUP1 SWAP2 SUB SWAP1 RETURN JUMPDEST PUSH2 0xEA PUSH1 0x4 DUP1 CALLDATASIZE SUB DUP2 ADD SWAP1 PUSH2 0xE5 SWAP2 SWAP1 PUSH2 0x3AB JUMP JUMPDEST PUSH2 0x1DE JUMP JUMPDEST PUSH1 0x40 MLOAD PUSH2 0xF7 SWAP2 SWAP1 PUSH2 0x3F1 JUMP JUMPDEST PUSH1 0x40 MLOAD DUP1 SWAP2 SUB SWAP1 RETURN JUMPDEST PUSH2 0x11A PUSH1 0x4 DUP1 CALLDATASIZE SUB DUP2 ADD SWAP1 PUSH2 0x115 SWAP2 SWAP1 PUSH2 0x3AB JUMP JUMPDEST PUSH2 0x1F9 JUMP JUMPDEST PUSH1 0x40 MLOAD PUSH2 0x127 SWAP2 SWAP1 PUSH2 0x3F1 JUMP JUMPDEST PUSH1 0x40 MLOAD DUP1 SWAP2 SUB SWAP1 RETURN JUMPDEST PUSH2 0x138 PUSH2 0x21D JUMP JUMPDEST STOP JUMPDEST PUSH2 0x142 PUSH2 0x29A JUMP JUMPDEST STOP JUMPDEST PUSH2 0x14C PUSH2 0x318 JUMP JUMPDEST PUSH1 0x40 MLOAD PUSH2 0x159 SWAP2 SWAP1 PUSH2 0x4CA JUMP JUMPDEST PUSH1 0x40 MLOAD DUP1 SWAP2 SUB SWAP1 RETURN JUMPDEST PUSH1 0x5 DUP2 DUP2 SLOAD DUP2 LT PUSH2 0x172 JUMPI PUSH1 0x0 DUP1 REVERT JUMPDEST SWAP1 PUSH1 0x0 MSTORE PUSH1 0x20 PUSH1 0x0 KECCAK256 ADD PUSH1 0x0 SWAP2 POP SWAP1 POP SLOAD DUP2 JUMP JUMPDEST PUSH1 0x60 PUSH1 0x5 DUP1 SLOAD DUP1 PUSH1 0x20 MUL PUSH1 0x20 ADD PUSH1 0x40 MLOAD SWAP1 DUP2 ADD PUSH1 0x40 MSTORE DUP1 SWAP3 SWAP2 SWAP1 DUP2 DUP2 MSTORE PUSH1 0x20 ADD DUP3 DUP1 SLOAD DUP1 ISZERO PUSH2 0x1D4 JUMPI PUSH1 0x20 MUL DUP3 ADD SWAP2 SWAP1 PUSH1 0x0 MSTORE PUSH1 0x20 PUSH1 0x0 KECCAK256 SWAP1 JUMPDEST DUP2 SLOAD DUP2 MSTORE PUSH1 0x20 ADD SWAP1 PUSH1 0x1 ADD SWAP1 DUP1 DUP4 GT PUSH2 0x1C0 JUMPI JUMPDEST POP POP POP POP POP SWAP1 POP SWAP1 JUMP JUMPDEST PUSH1 0x0 DUP2 PUSH1 0x5 DUP2 LT PUSH2 0x1EE JUMPI PUSH1 0x0 DUP1 REVERT JUMPDEST ADD PUSH1 0x0 SWAP2 POP SWAP1 POP SLOAD DUP2 JUMP JUMPDEST PUSH1 0x6 DUP2 DUP2 SLOAD DUP2 LT PUSH2 0x209 JUMPI PUSH1 0x0 DUP1 REVERT JUMPDEST SWAP1 PUSH1 0x0 MSTORE PUSH1 0x20 PUSH1 0x0 KECCAK256 ADD PUSH1 0x0 SWAP2 POP SWAP1 POP SLOAD DUP2 JUMP JUMPDEST PUSH1 0x0 JUMPDEST PUSH1 0x5 DUP2 LT ISZERO PUSH2 0x297 JUMPI PUSH1 0x0 DUP1 DUP3 PUSH1 0x5 DUP2 LT PUSH2 0x23E JUMPI PUSH2 0x23D PUSH2 0x4EC JUMP JUMPDEST JUMPDEST ADD SLOAD SLT PUSH2 0x284 JUMPI PUSH1 0x5 PUSH1 0x0 DUP3 PUSH1 0x5 DUP2 LT PUSH2 0x25B JUMPI PUSH2 0x25A PUSH2 0x4EC JUMP JUMPDEST JUMPDEST ADD SLOAD SWAP1 DUP1 PUSH1 0x1 DUP2 SLOAD ADD DUP1 DUP3 SSTORE DUP1 SWAP2 POP POP PUSH1 0x1 SWAP1 SUB SWAP1 PUSH1 0x0 MSTORE PUSH1 0x20 PUSH1 0x0 KECCAK256 ADD PUSH1 0x0 SWAP1 SWAP2 SWAP1 SWAP2 SWAP1 SWAP2 POP SSTORE JUMPDEST DUP1 DUP1 PUSH2 0x28F SWAP1 PUSH2 0x54A JUMP JUMPDEST SWAP2 POP POP PUSH2 0x220 JUMP JUMPDEST POP JUMP JUMPDEST PUSH1 0x0 JUMPDEST PUSH1 0x5 DUP2 LT ISZERO PUSH2 0x315 JUMPI PUSH1 0x0 DUP1 DUP3 PUSH1 0x5 DUP2 LT PUSH2 0x2BB JUMPI PUSH2 0x2BA PUSH2 0x4EC JUMP JUMPDEST JUMPDEST ADD SLOAD SLT ISZERO PUSH2 0x302 JUMPI PUSH1 0x6 PUSH1 0x0 DUP3 PUSH1 0x5 DUP2 LT PUSH2 0x2D9 JUMPI PUSH2 0x2D8 PUSH2 0x4EC JUMP JUMPDEST JUMPDEST ADD SLOAD SWAP1 DUP1 PUSH1 0x1 DUP2 SLOAD ADD DUP1 DUP3 SSTORE DUP1 SWAP2 POP POP PUSH1 0x1 SWAP1 SUB SWAP1 PUSH1 0x0 MSTORE PUSH1 0x20 PUSH1 0x0 KECCAK256 ADD PUSH1 0x0 SWAP1 SWAP2 SWAP1 SWAP2 SWAP1 SWAP2 POP SSTORE JUMPDEST DUP1 DUP1 PUSH2 0x30D SWAP1 PUSH2 0x54A JUMP JUMPDEST SWAP2 POP POP PUSH2 0x29D JUMP JUMPDEST POP JUMP JUMPDEST PUSH1 0x60 PUSH1 0x6 DUP1 SLOAD DUP1 PUSH1 0x20 MUL PUSH1 0x20 ADD PUSH1 0x40 MLOAD SWAP1 DUP2 ADD PUSH1 0x40 MSTORE DUP1 SWAP3 SWAP2 SWAP1 DUP2 DUP2 MSTORE PUSH1 0x20 ADD DUP3 DUP1 SLOAD DUP1 ISZERO PUSH2 0x366 JUMPI PUSH1 0x20 MUL DUP3 ADD SWAP2 SWAP1 PUSH1 0x0 MSTORE PUSH1 0x20 PUSH1 0x0 KECCAK256 SWAP1 JUMPDEST DUP2 SLOAD DUP2 MSTORE PUSH1 0x20 ADD SWAP1 PUSH1 0x1 ADD SWAP1 DUP1 DUP4 GT PUSH2 0x352 JUMPI JUMPDEST POP POP POP POP POP SWAP1 POP SWAP1 JUMP JUMPDEST PUSH1 0x0 DUP1 REVERT JUMPDEST PUSH1 0x0 DUP2 SWAP1 POP SWAP2 SWAP1 POP JUMP JUMPDEST PUSH2 0x388 DUP2 PUSH2 0x375 JUMP JUMPDEST DUP2 EQ PUSH2 0x393 JUMPI PUSH1 0x0 DUP1 REVERT JUMPDEST POP JUMP JUMPDEST PUSH1 0x0 DUP2 CALLDATALOAD SWAP1 POP PUSH2 0x3A5 DUP2 PUSH2 0x37F JUMP JUMPDEST SWAP3 SWAP2 POP POP JUMP JUMPDEST PUSH1 0x0 PUSH1 0x20 DUP3 DUP5 SUB SLT ISZERO PUSH2 0x3C1 JUMPI PUSH2 0x3C0 PUSH2 0x370 JUMP JUMPDEST JUMPDEST PUSH1 0x0 PUSH2 0x3CF DUP5 DUP3 DUP6 ADD PUSH2 0x396 JUMP JUMPDEST SWAP2 POP POP SWAP3 SWAP2 POP POP JUMP JUMPDEST PUSH1 0x0 DUP2 SWAP1 POP SWAP2 SWAP1 POP JUMP JUMPDEST PUSH2 0x3EB DUP2 PUSH2 0x3D8 JUMP JUMPDEST DUP3 MSTORE POP POP JUMP JUMPDEST PUSH1 0x0 PUSH1 0x20 DUP3 ADD SWAP1 POP PUSH2 0x406 PUSH1 0x0 DUP4 ADD DUP5 PUSH2 0x3E2 JUMP JUMPDEST SWAP3 SWAP2 POP POP JUMP JUMPDEST PUSH1 0x0 DUP2 MLOAD SWAP1 POP SWAP2 SWAP1 POP JUMP JUMPDEST PUSH1 0x0 DUP3 DUP3 MSTORE PUSH1 0x20 DUP3 ADD SWAP1 POP SWAP3 SWAP2 POP POP JUMP JUMPDEST PUSH1 0x0 DUP2 SWAP1 POP PUSH1 0x20 DUP3 ADD SWAP1 POP SWAP2 SWAP1 POP JUMP JUMPDEST PUSH2 0x441 DUP2 PUSH2 0x3D8 JUMP JUMPDEST DUP3 MSTORE POP POP JUMP JUMPDEST PUSH1 0x0 PUSH2 0x453 DUP4 DUP4 PUSH2 0x438 JUMP JUMPDEST PUSH1 0x20 DUP4 ADD SWAP1 POP SWAP3 SWAP2 POP POP JUMP JUMPDEST PUSH1 0x0 PUSH1 0x20 DUP3 ADD SWAP1 POP SWAP2 SWAP1 POP JUMP JUMPDEST PUSH1 0x0 PUSH2 0x477 DUP3 PUSH2 0x40C JUMP JUMPDEST PUSH2 0x481 DUP2 DUP6 PUSH2 0x417 JUMP JUMPDEST SWAP4 POP PUSH2 0x48C DUP4 PUSH2 0x428 JUMP JUMPDEST DUP1 PUSH1 0x0 JUMPDEST DUP4 DUP2 LT ISZERO PUSH2 0x4BD JUMPI DUP2 MLOAD PUSH2 0x4A4 DUP9 DUP3 PUSH2 0x447 JUMP JUMPDEST SWAP8 POP PUSH2 0x4AF DUP4 PUSH2 0x45F JUMP JUMPDEST SWAP3 POP POP PUSH1 0x1 DUP2 ADD SWAP1 POP PUSH2 0x490 JUMP JUMPDEST POP DUP6 SWAP4 POP POP POP POP SWAP3 SWAP2 POP POP JUMP JUMPDEST PUSH1 0x0 PUSH1 0x20 DUP3 ADD SWAP1 POP DUP2 DUP2 SUB PUSH1 0x0 DUP4 ADD MSTORE PUSH2 0x4E4 DUP2 DUP5 PUSH2 0x46C JUMP JUMPDEST SWAP1 POP SWAP3 SWAP2 POP POP JUMP JUMPDEST PUSH32 0x4E487B7100000000000000000000000000000000000000000000000000000000 PUSH1 0x0 MSTORE PUSH1 0x32 PUSH1 0x4 MSTORE PUSH1 0x24 PUSH1 0x0 REVERT JUMPDEST PUSH32 0x4E487B7100000000000000000000000000000000000000000000000000000000 PUSH1 0x0 MSTORE PUSH1 0x11 PUSH1 0x4 MSTORE PUSH1 0x24 PUSH1 0x0 REVERT JUMPDEST PUSH1 0x0 PUSH2 0x555 DUP3 PUSH2 0x375 JUMP JUMPDEST SWAP2 POP PUSH32 0xFFFFFFFFFFFFFFFFFFFFFFFFFFFFFFFFFFFFFFFFFFFFFFFFFFFFFFFFFFFFFFFF DUP3 SUB PUSH2 0x587 JUMPI PUSH2 0x586 PUSH2 0x51B JUMP JUMPDEST JUMPDEST PUSH1 0x1 DUP3 ADD SWAP1 POP SWAP2 SWAP1 POP JUMP INVALID LOG2 PUSH5 0x6970667358 0x22 SLT KECCAK256 0x4A 0xAE PUSH16 0xCF1D0F4D21880F2BFDD9D11F3C2FA091 CODECOPY 0x4A 0xD0 SHL 0xD3 0xEB 0xDD GASPRICE 0xE4 DUP7 DUP9 RETURN 0xA6 PUSH5 0x736F6C6343 STOP ADDMOD SLT STOP CALLER "
				},
				"gasEstimates": {
					"creation": {
						"codeDepositCost": "296000",
						"executionCost": "infinite",
						"totalCost": "infinite"
					},
					"external": {
						"arr(uint256)": "2776",
						"getnegative()": "infinite",
						"getposit()": "infinite",
						"negarr(uint256)": "4882",
						"negativepart()": "infinite",
						"positarr(uint256)": "4883",
						"positivepart()": "infinite"
					}
				},
				"methodIdentifiers": {
					"arr(uint256)": "71e5ee5f",
					"getnegative()": "d285f537",
					"getposit()": "52af25ce",
					"negarr(uint256)": "78c63112",
					"negativepart()": "af7a5369",
					"positarr(uint256)": "4feb2216",
					"positivepart()": "a80f7f05"
				}
			},
			"storageLayout": {
				"storage": [
					{
						"astId": 13,
						"contract": "contracts/04-8 forloop2.sol:ForLoop",
						"label": "arr",
						"offset": 0,
						"slot": "0",
						"type": "t_array(t_int256)5_storage"
					},
					{
						"astId": 16,
						"contract": "contracts/04-8 forloop2.sol:ForLoop",
						"label": "positarr",
						"offset": 0,
						"slot": "5",
						"type": "t_array(t_int256)dyn_storage"
					},
					{
						"astId": 60,
						"contract": "contracts/04-8 forloop2.sol:ForLoop",
						"label": "negarr",
						"offset": 0,
						"slot": "6",
						"type": "t_array(t_int256)dyn_storage"
					}
				],
				"types": {
					"t_array(t_int256)5_storage": {
						"base": "t_int256",
						"encoding": "inplace",
						"label": "int256[5]",
						"numberOfBytes": "160"
					},
					"t_array(t_int256)dyn_storage": {
						"base": "t_int256",
						"encoding": "dynamic_array",
						"label": "int256[]",
						"numberOfBytes": "32"
					},
					"t_int256": {
						"encoding": "inplace",
						"label": "int256",
						"numberOfBytes": "32"
					}
				}
			},
			"userdoc": {
				"kind": "user",
				"methods": {},
				"version": 1
			}
		}
	}
}