{
	"contracts/07-8 dataLocation4.sol": {
		"Last": {
			"abi": [
				{
					"inputs": [
						{
							"internalType": "uint256",
							"name": "",
							"type": "uint256"
						}
					],
					"name": "car",
					"outputs": [
						{
							"internalType": "string",
							"name": "Make",
							"type": "string"
						},
						{
							"internalType": "string",
							"name": "Model",
							"type": "string"
						},
						{
							"internalType": "uint256",
							"name": "Variant",
							"type": "uint256"
						}
					],
					"stateMutability": "view",
					"type": "function"
				},
				{
					"inputs": [],
					"name": "cars",
					"outputs": [
						{
							"internalType": "string",
							"name": "Make",
							"type": "string"
						},
						{
							"internalType": "string",
							"name": "Model",
							"type": "string"
						},
						{
							"internalType": "uint256",
							"name": "Variant",
							"type": "uint256"
						}
					],
					"stateMutability": "view",
					"type": "function"
				},
				{
					"inputs": [],
					"name": "initCar1",
					"outputs": [],
					"stateMutability": "nonpayable",
					"type": "function"
				},
				{
					"inputs": [],
					"name": "initCar2",
					"outputs": [],
					"stateMutability": "nonpayable",
					"type": "function"
				}
			],
			"devdoc": {
				"kind": "dev",
				"methods": {},
				"version": 1
			},
			"evm": {
				"assembly": "    /* \"contracts/07-8 dataLocation4.sol\":61:582  contract Last {... */\n  mstore(0x40, 0x80)\n  callvalue\n  dup1\n  iszero\n  tag_1\n  jumpi\n  0x00\n  dup1\n  revert\ntag_1:\n  pop\n  dataSize(sub_0)\n  dup1\n  dataOffset(sub_0)\n  0x00\n  codecopy\n  0x00\n  return\nstop\n\nsub_0: assembly {\n        /* \"contracts/07-8 dataLocation4.sol\":61:582  contract Last {... */\n      mstore(0x40, 0x80)\n      callvalue\n      dup1\n      iszero\n      tag_1\n      jumpi\n      0x00\n      dup1\n      revert\n    tag_1:\n      pop\n      jumpi(tag_2, lt(calldatasize, 0x04))\n      shr(0xe0, calldataload(0x00))\n      dup1\n      0x1d2aec85\n      eq\n      tag_3\n      jumpi\n      dup1\n      0x6f674521\n      eq\n      tag_4\n      jumpi\n      dup1\n      0x91ebc320\n      eq\n      tag_5\n      jumpi\n      dup1\n      0x9a7ffc57\n      eq\n      tag_6\n      jumpi\n    tag_2:\n      0x00\n      dup1\n      revert\n        /* \"contracts/07-8 dataLocation4.sol\":226:390  function initCar1() public {... */\n    tag_3:\n      tag_7\n      tag_8\n      jump\t// in\n    tag_7:\n      stop\n        /* \"contracts/07-8 dataLocation4.sol\":398:579  function initCar2() public {... */\n    tag_4:\n      tag_9\n      tag_10\n      jump\t// in\n    tag_9:\n      stop\n        /* \"contracts/07-8 dataLocation4.sol\":179:195  CAR[] public car */\n    tag_5:\n      tag_11\n      0x04\n      dup1\n      calldatasize\n      sub\n      dup2\n      add\n      swap1\n      tag_12\n      swap2\n      swap1\n      tag_13\n      jump\t// in\n    tag_12:\n      tag_14\n      jump\t// in\n    tag_11:\n      mload(0x40)\n      tag_15\n      swap4\n      swap3\n      swap2\n      swap1\n      tag_16\n      jump\t// in\n    tag_15:\n      mload(0x40)\n      dup1\n      swap2\n      sub\n      swap1\n      return\n        /* \"contracts/07-8 dataLocation4.sol\":202:217  CAR public cars */\n    tag_6:\n      tag_17\n      tag_18\n      jump\t// in\n    tag_17:\n      mload(0x40)\n      tag_19\n      swap4\n      swap3\n      swap2\n      swap1\n      tag_16\n      jump\t// in\n    tag_19:\n      mload(0x40)\n      dup1\n      swap2\n      sub\n      swap1\n      return\n        /* \"contracts/07-8 dataLocation4.sol\":226:390  function initCar1() public {... */\n    tag_8:\n        /* \"contracts/07-8 dataLocation4.sol\":264:283  CAR storage new_car */\n      0x00\n        /* \"contracts/07-8 dataLocation4.sol\":284:288  cars */\n      0x01\n        /* \"contracts/07-8 dataLocation4.sol\":264:288  CAR storage new_car=cars */\n      swap1\n      pop\n        /* \"contracts/07-8 dataLocation4.sol\":299:318  new_car.Make = \"ee\" */\n      mload(0x40)\n      dup1\n      0x40\n      add\n      0x40\n      mstore\n      dup1\n      0x02\n      dup2\n      mstore\n      0x20\n      add\n      0x6565000000000000000000000000000000000000000000000000000000000000\n      dup2\n      mstore\n      pop\n        /* \"contracts/07-8 dataLocation4.sol\":299:306  new_car */\n      dup2\n        /* \"contracts/07-8 dataLocation4.sol\":299:311  new_car.Make */\n      0x00\n      add\n        /* \"contracts/07-8 dataLocation4.sol\":299:318  new_car.Make = \"ee\" */\n      swap1\n      dup2\n      tag_21\n      swap2\n      swap1\n      tag_22\n      jump\t// in\n    tag_21:\n      pop\n        /* \"contracts/07-8 dataLocation4.sol\":329:350  new_car.Model = \"ABC\" */\n      mload(0x40)\n      dup1\n      0x40\n      add\n      0x40\n      mstore\n      dup1\n      0x03\n      dup2\n      mstore\n      0x20\n      add\n      0x4142430000000000000000000000000000000000000000000000000000000000\n      dup2\n      mstore\n      pop\n        /* \"contracts/07-8 dataLocation4.sol\":329:336  new_car */\n      dup2\n        /* \"contracts/07-8 dataLocation4.sol\":329:342  new_car.Model */\n      0x01\n      add\n        /* \"contracts/07-8 dataLocation4.sol\":329:350  new_car.Model = \"ABC\" */\n      swap1\n      dup2\n      tag_23\n      swap2\n      swap1\n      tag_22\n      jump\t// in\n    tag_23:\n      pop\n        /* \"contracts/07-8 dataLocation4.sol\":379:382  123 */\n      0x7b\n        /* \"contracts/07-8 dataLocation4.sol\":361:368  new_car */\n      dup2\n        /* \"contracts/07-8 dataLocation4.sol\":361:376  new_car.Variant */\n      0x02\n      add\n        /* \"contracts/07-8 dataLocation4.sol\":361:382  new_car.Variant = 123 */\n      dup2\n      swap1\n      sstore\n      pop\n        /* \"contracts/07-8 dataLocation4.sol\":253:390  {... */\n      pop\n        /* \"contracts/07-8 dataLocation4.sol\":226:390  function initCar1() public {... */\n      jump\t// out\n        /* \"contracts/07-8 dataLocation4.sol\":398:579  function initCar2() public {... */\n    tag_10:\n        /* \"contracts/07-8 dataLocation4.sol\":436:453  CAR memory newCar */\n      tag_25\n      tag_26\n      jump\t// in\n    tag_25:\n        /* \"contracts/07-8 dataLocation4.sol\":464:482  newCar.Make = \"ee\" */\n      mload(0x40)\n      dup1\n      0x40\n      add\n      0x40\n      mstore\n      dup1\n      0x02\n      dup2\n      mstore\n      0x20\n      add\n      0x6565000000000000000000000000000000000000000000000000000000000000\n      dup2\n      mstore\n      pop\n        /* \"contracts/07-8 dataLocation4.sol\":464:470  newCar */\n      dup2\n        /* \"contracts/07-8 dataLocation4.sol\":464:475  newCar.Make */\n      0x00\n      add\n        /* \"contracts/07-8 dataLocation4.sol\":464:482  newCar.Make = \"ee\" */\n      dup2\n      swap1\n      mstore\n      pop\n        /* \"contracts/07-8 dataLocation4.sol\":493:513  newCar.Model = \"ABC\" */\n      mload(0x40)\n      dup1\n      0x40\n      add\n      0x40\n      mstore\n      dup1\n      0x03\n      dup2\n      mstore\n      0x20\n      add\n      0x4142430000000000000000000000000000000000000000000000000000000000\n      dup2\n      mstore\n      pop\n        /* \"contracts/07-8 dataLocation4.sol\":493:499  newCar */\n      dup2\n        /* \"contracts/07-8 dataLocation4.sol\":493:505  newCar.Model */\n      0x20\n      add\n        /* \"contracts/07-8 dataLocation4.sol\":493:513  newCar.Model = \"ABC\" */\n      dup2\n      swap1\n      mstore\n      pop\n        /* \"contracts/07-8 dataLocation4.sol\":541:544  123 */\n      0x7b\n        /* \"contracts/07-8 dataLocation4.sol\":524:530  newCar */\n      dup2\n        /* \"contracts/07-8 dataLocation4.sol\":524:538  newCar.Variant */\n      0x40\n      add\n        /* \"contracts/07-8 dataLocation4.sol\":524:544  newCar.Variant = 123 */\n      dup2\n      dup2\n      mstore\n      pop\n      pop\n        /* \"contracts/07-8 dataLocation4.sol\":555:558  car */\n      0x00\n        /* \"contracts/07-8 dataLocation4.sol\":564:570  newCar */\n      dup2\n        /* \"contracts/07-8 dataLocation4.sol\":555:571  car.push(newCar) */\n      swap1\n      dup1\n      0x01\n      dup2\n      sload\n      add\n      dup1\n      dup3\n      sstore\n      dup1\n      swap2\n      pop\n      pop\n      0x01\n      swap1\n      sub\n      swap1\n      0x00\n      mstore\n      keccak256(0x00, 0x20)\n      swap1\n      0x03\n      mul\n      add\n      0x00\n      swap1\n      swap2\n      swap1\n      swap2\n      swap1\n      swap2\n      pop\n      0x00\n      dup3\n      add\n      mload\n      dup2\n      0x00\n      add\n      swap1\n      dup2\n      tag_28\n      swap2\n      swap1\n      tag_22\n      jump\t// in\n    tag_28:\n      pop\n      0x20\n      dup3\n      add\n      mload\n      dup2\n      0x01\n      add\n      swap1\n      dup2\n      tag_29\n      swap2\n      swap1\n      tag_22\n      jump\t// in\n    tag_29:\n      pop\n      0x40\n      dup3\n      add\n      mload\n      dup2\n      0x02\n      add\n      sstore\n      pop\n      pop\n        /* \"contracts/07-8 dataLocation4.sol\":425:579  {... */\n      pop\n        /* \"contracts/07-8 dataLocation4.sol\":398:579  function initCar2() public {... */\n      jump\t// out\n        /* \"contracts/07-8 dataLocation4.sol\":179:195  CAR[] public car */\n    tag_14:\n      0x00\n      dup2\n      dup2\n      sload\n      dup2\n      lt\n      tag_30\n      jumpi\n      0x00\n      dup1\n      revert\n    tag_30:\n      swap1\n      0x00\n      mstore\n      keccak256(0x00, 0x20)\n      swap1\n      0x03\n      mul\n      add\n      0x00\n      swap2\n      pop\n      swap1\n      pop\n      dup1\n      0x00\n      add\n      dup1\n      sload\n      tag_32\n      swap1\n      tag_33\n      jump\t// in\n    tag_32:\n      dup1\n      0x1f\n      add\n      0x20\n      dup1\n      swap2\n      div\n      mul\n      0x20\n      add\n      mload(0x40)\n      swap1\n      dup2\n      add\n      0x40\n      mstore\n      dup1\n      swap3\n      swap2\n      swap1\n      dup2\n      dup2\n      mstore\n      0x20\n      add\n      dup3\n      dup1\n      sload\n      tag_34\n      swap1\n      tag_33\n      jump\t// in\n    tag_34:\n      dup1\n      iszero\n      tag_35\n      jumpi\n      dup1\n      0x1f\n      lt\n      tag_36\n      jumpi\n      0x0100\n      dup1\n      dup4\n      sload\n      div\n      mul\n      dup4\n      mstore\n      swap2\n      0x20\n      add\n      swap2\n      jump(tag_35)\n    tag_36:\n      dup3\n      add\n      swap2\n      swap1\n      0x00\n      mstore\n      keccak256(0x00, 0x20)\n      swap1\n    tag_37:\n      dup2\n      sload\n      dup2\n      mstore\n      swap1\n      0x01\n      add\n      swap1\n      0x20\n      add\n      dup1\n      dup4\n      gt\n      tag_37\n      jumpi\n      dup3\n      swap1\n      sub\n      0x1f\n      and\n      dup3\n      add\n      swap2\n    tag_35:\n      pop\n      pop\n      pop\n      pop\n      pop\n      swap1\n      dup1\n      0x01\n      add\n      dup1\n      sload\n      tag_38\n      swap1\n      tag_33\n      jump\t// in\n    tag_38:\n      dup1\n      0x1f\n      add\n      0x20\n      dup1\n      swap2\n      div\n      mul\n      0x20\n      add\n      mload(0x40)\n      swap1\n      dup2\n      add\n      0x40\n      mstore\n      dup1\n      swap3\n      swap2\n      swap1\n      dup2\n      dup2\n      mstore\n      0x20\n      add\n      dup3\n      dup1\n      sload\n      tag_39\n      swap1\n      tag_33\n      jump\t// in\n    tag_39:\n      dup1\n      iszero\n      tag_40\n      jumpi\n      dup1\n      0x1f\n      lt\n      tag_41\n      jumpi\n      0x0100\n      dup1\n      dup4\n      sload\n      div\n      mul\n      dup4\n      mstore\n      swap2\n      0x20\n      add\n      swap2\n      jump(tag_40)\n    tag_41:\n      dup3\n      add\n      swap2\n      swap1\n      0x00\n      mstore\n      keccak256(0x00, 0x20)\n      swap1\n    tag_42:\n      dup2\n      sload\n      dup2\n      mstore\n      swap1\n      0x01\n      add\n      swap1\n      0x20\n      add\n      dup1\n      dup4\n      gt\n      tag_42\n      jumpi\n      dup3\n      swap1\n      sub\n      0x1f\n      and\n      dup3\n      add\n      swap2\n    tag_40:\n      pop\n      pop\n      pop\n      pop\n      pop\n      swap1\n      dup1\n      0x02\n      add\n      sload\n      swap1\n      pop\n      dup4\n      jump\t// out\n        /* \"contracts/07-8 dataLocation4.sol\":202:217  CAR public cars */\n    tag_18:\n      0x01\n      dup1\n      0x00\n      add\n      dup1\n      sload\n      tag_43\n      swap1\n      tag_33\n      jump\t// in\n    tag_43:\n      dup1\n      0x1f\n      add\n      0x20\n      dup1\n      swap2\n      div\n      mul\n      0x20\n      add\n      mload(0x40)\n      swap1\n      dup2\n      add\n      0x40\n      mstore\n      dup1\n      swap3\n      swap2\n      swap1\n      dup2\n      dup2\n      mstore\n      0x20\n      add\n      dup3\n      dup1\n      sload\n      tag_44\n      swap1\n      tag_33\n      jump\t// in\n    tag_44:\n      dup1\n      iszero\n      tag_45\n      jumpi\n      dup1\n      0x1f\n      lt\n      tag_46\n      jumpi\n      0x0100\n      dup1\n      dup4\n      sload\n      div\n      mul\n      dup4\n      mstore\n      swap2\n      0x20\n      add\n      swap2\n      jump(tag_45)\n    tag_46:\n      dup3\n      add\n      swap2\n      swap1\n      0x00\n      mstore\n      keccak256(0x00, 0x20)\n      swap1\n    tag_47:\n      dup2\n      sload\n      dup2\n      mstore\n      swap1\n      0x01\n      add\n      swap1\n      0x20\n      add\n      dup1\n      dup4\n      gt\n      tag_47\n      jumpi\n      dup3\n      swap1\n      sub\n      0x1f\n      and\n      dup3\n      add\n      swap2\n    tag_45:\n      pop\n      pop\n      pop\n      pop\n      pop\n      swap1\n      dup1\n      0x01\n      add\n      dup1\n      sload\n      tag_48\n      swap1\n      tag_33\n      jump\t// in\n    tag_48:\n      dup1\n      0x1f\n      add\n      0x20\n      dup1\n      swap2\n      div\n      mul\n      0x20\n      add\n      mload(0x40)\n      swap1\n      dup2\n      add\n      0x40\n      mstore\n      dup1\n      swap3\n      swap2\n      swap1\n      dup2\n      dup2\n      mstore\n      0x20\n      add\n      dup3\n      dup1\n      sload\n      tag_49\n      swap1\n      tag_33\n      jump\t// in\n    tag_49:\n      dup1\n      iszero\n      tag_50\n      jumpi\n      dup1\n      0x1f\n      lt\n      tag_51\n      jumpi\n      0x0100\n      dup1\n      dup4\n      sload\n      div\n      mul\n      dup4\n      mstore\n      swap2\n      0x20\n      add\n      swap2\n      jump(tag_50)\n    tag_51:\n      dup3\n      add\n      swap2\n      swap1\n      0x00\n      mstore\n      keccak256(0x00, 0x20)\n      swap1\n    tag_52:\n      dup2\n      sload\n      dup2\n      mstore\n      swap1\n      0x01\n      add\n      swap1\n      0x20\n      add\n      dup1\n      dup4\n      gt\n      tag_52\n      jumpi\n      dup3\n      swap1\n      sub\n      0x1f\n      and\n      dup3\n      add\n      swap2\n    tag_50:\n      pop\n      pop\n      pop\n      pop\n      pop\n      swap1\n      dup1\n      0x02\n      add\n      sload\n      swap1\n      pop\n      dup4\n      jump\t// out\n    tag_26:\n      mload(0x40)\n      dup1\n      0x60\n      add\n      0x40\n      mstore\n      dup1\n      0x60\n      dup2\n      mstore\n      0x20\n      add\n      0x60\n      dup2\n      mstore\n      0x20\n      add\n      0x00\n      dup2\n      mstore\n      pop\n      swap1\n      jump\t// out\n        /* \"#utility.yul\":88:205   */\n    tag_54:\n        /* \"#utility.yul\":197:198   */\n      0x00\n        /* \"#utility.yul\":194:195   */\n      dup1\n        /* \"#utility.yul\":187:199   */\n      revert\n        /* \"#utility.yul\":334:411   */\n    tag_56:\n        /* \"#utility.yul\":371:378   */\n      0x00\n        /* \"#utility.yul\":400:405   */\n      dup2\n        /* \"#utility.yul\":389:405   */\n      swap1\n      pop\n        /* \"#utility.yul\":334:411   */\n      swap2\n      swap1\n      pop\n      jump\t// out\n        /* \"#utility.yul\":417:539   */\n    tag_57:\n        /* \"#utility.yul\":490:514   */\n      tag_88\n        /* \"#utility.yul\":508:513   */\n      dup2\n        /* \"#utility.yul\":490:514   */\n      tag_56\n      jump\t// in\n    tag_88:\n        /* \"#utility.yul\":483:488   */\n      dup2\n        /* \"#utility.yul\":480:515   */\n      eq\n        /* \"#utility.yul\":470:533   */\n      tag_89\n      jumpi\n        /* \"#utility.yul\":529:530   */\n      0x00\n        /* \"#utility.yul\":526:527   */\n      dup1\n        /* \"#utility.yul\":519:531   */\n      revert\n        /* \"#utility.yul\":470:533   */\n    tag_89:\n        /* \"#utility.yul\":417:539   */\n      pop\n      jump\t// out\n        /* \"#utility.yul\":545:684   */\n    tag_58:\n        /* \"#utility.yul\":591:596   */\n      0x00\n        /* \"#utility.yul\":629:635   */\n      dup2\n        /* \"#utility.yul\":616:636   */\n      calldataload\n        /* \"#utility.yul\":607:636   */\n      swap1\n      pop\n        /* \"#utility.yul\":645:678   */\n      tag_91\n        /* \"#utility.yul\":672:677   */\n      dup2\n        /* \"#utility.yul\":645:678   */\n      tag_57\n      jump\t// in\n    tag_91:\n        /* \"#utility.yul\":545:684   */\n      swap3\n      swap2\n      pop\n      pop\n      jump\t// out\n        /* \"#utility.yul\":690:1019   */\n    tag_13:\n        /* \"#utility.yul\":749:755   */\n      0x00\n        /* \"#utility.yul\":798:800   */\n      0x20\n        /* \"#utility.yul\":786:795   */\n      dup3\n        /* \"#utility.yul\":777:784   */\n      dup5\n        /* \"#utility.yul\":773:796   */\n      sub\n        /* \"#utility.yul\":769:801   */\n      slt\n        /* \"#utility.yul\":766:885   */\n      iszero\n      tag_93\n      jumpi\n        /* \"#utility.yul\":804:883   */\n      tag_94\n      tag_54\n      jump\t// in\n    tag_94:\n        /* \"#utility.yul\":766:885   */\n    tag_93:\n        /* \"#utility.yul\":924:925   */\n      0x00\n        /* \"#utility.yul\":949:1002   */\n      tag_95\n        /* \"#utility.yul\":994:1001   */\n      dup5\n        /* \"#utility.yul\":985:991   */\n      dup3\n        /* \"#utility.yul\":974:983   */\n      dup6\n        /* \"#utility.yul\":970:992   */\n      add\n        /* \"#utility.yul\":949:1002   */\n      tag_58\n      jump\t// in\n    tag_95:\n        /* \"#utility.yul\":939:1002   */\n      swap2\n      pop\n        /* \"#utility.yul\":895:1012   */\n      pop\n        /* \"#utility.yul\":690:1019   */\n      swap3\n      swap2\n      pop\n      pop\n      jump\t// out\n        /* \"#utility.yul\":1025:1124   */\n    tag_59:\n        /* \"#utility.yul\":1077:1083   */\n      0x00\n        /* \"#utility.yul\":1111:1116   */\n      dup2\n        /* \"#utility.yul\":1105:1117   */\n      mload\n        /* \"#utility.yul\":1095:1117   */\n      swap1\n      pop\n        /* \"#utility.yul\":1025:1124   */\n      swap2\n      swap1\n      pop\n      jump\t// out\n        /* \"#utility.yul\":1130:1299   */\n    tag_60:\n        /* \"#utility.yul\":1214:1225   */\n      0x00\n        /* \"#utility.yul\":1248:1254   */\n      dup3\n        /* \"#utility.yul\":1243:1246   */\n      dup3\n        /* \"#utility.yul\":1236:1255   */\n      mstore\n        /* \"#utility.yul\":1288:1292   */\n      0x20\n        /* \"#utility.yul\":1283:1286   */\n      dup3\n        /* \"#utility.yul\":1279:1293   */\n      add\n        /* \"#utility.yul\":1264:1293   */\n      swap1\n      pop\n        /* \"#utility.yul\":1130:1299   */\n      swap3\n      swap2\n      pop\n      pop\n      jump\t// out\n        /* \"#utility.yul\":1305:1551   */\n    tag_61:\n        /* \"#utility.yul\":1386:1387   */\n      0x00\n        /* \"#utility.yul\":1396:1509   */\n    tag_99:\n        /* \"#utility.yul\":1410:1416   */\n      dup4\n        /* \"#utility.yul\":1407:1408   */\n      dup2\n        /* \"#utility.yul\":1404:1417   */\n      lt\n        /* \"#utility.yul\":1396:1509   */\n      iszero\n      tag_101\n      jumpi\n        /* \"#utility.yul\":1495:1496   */\n      dup1\n        /* \"#utility.yul\":1490:1493   */\n      dup3\n        /* \"#utility.yul\":1486:1497   */\n      add\n        /* \"#utility.yul\":1480:1498   */\n      mload\n        /* \"#utility.yul\":1476:1477   */\n      dup2\n        /* \"#utility.yul\":1471:1474   */\n      dup5\n        /* \"#utility.yul\":1467:1478   */\n      add\n        /* \"#utility.yul\":1460:1499   */\n      mstore\n        /* \"#utility.yul\":1432:1434   */\n      0x20\n        /* \"#utility.yul\":1429:1430   */\n      dup2\n        /* \"#utility.yul\":1425:1435   */\n      add\n        /* \"#utility.yul\":1420:1435   */\n      swap1\n      pop\n        /* \"#utility.yul\":1396:1509   */\n      jump(tag_99)\n    tag_101:\n        /* \"#utility.yul\":1543:1544   */\n      0x00\n        /* \"#utility.yul\":1534:1540   */\n      dup5\n        /* \"#utility.yul\":1529:1532   */\n      dup5\n        /* \"#utility.yul\":1525:1541   */\n      add\n        /* \"#utility.yul\":1518:1545   */\n      mstore\n        /* \"#utility.yul\":1367:1551   */\n      pop\n        /* \"#utility.yul\":1305:1551   */\n      pop\n      pop\n      pop\n      jump\t// out\n        /* \"#utility.yul\":1557:1659   */\n    tag_62:\n        /* \"#utility.yul\":1598:1604   */\n      0x00\n        /* \"#utility.yul\":1649:1651   */\n      0x1f\n        /* \"#utility.yul\":1645:1652   */\n      not\n        /* \"#utility.yul\":1640:1642   */\n      0x1f\n        /* \"#utility.yul\":1633:1638   */\n      dup4\n        /* \"#utility.yul\":1629:1643   */\n      add\n        /* \"#utility.yul\":1625:1653   */\n      and\n        /* \"#utility.yul\":1615:1653   */\n      swap1\n      pop\n        /* \"#utility.yul\":1557:1659   */\n      swap2\n      swap1\n      pop\n      jump\t// out\n        /* \"#utility.yul\":1665:2042   */\n    tag_63:\n        /* \"#utility.yul\":1753:1756   */\n      0x00\n        /* \"#utility.yul\":1781:1820   */\n      tag_104\n        /* \"#utility.yul\":1814:1819   */\n      dup3\n        /* \"#utility.yul\":1781:1820   */\n      tag_59\n      jump\t// in\n    tag_104:\n        /* \"#utility.yul\":1836:1907   */\n      tag_105\n        /* \"#utility.yul\":1900:1906   */\n      dup2\n        /* \"#utility.yul\":1895:1898   */\n      dup6\n        /* \"#utility.yul\":1836:1907   */\n      tag_60\n      jump\t// in\n    tag_105:\n        /* \"#utility.yul\":1829:1907   */\n      swap4\n      pop\n        /* \"#utility.yul\":1916:1981   */\n      tag_106\n        /* \"#utility.yul\":1974:1980   */\n      dup2\n        /* \"#utility.yul\":1969:1972   */\n      dup6\n        /* \"#utility.yul\":1962:1966   */\n      0x20\n        /* \"#utility.yul\":1955:1960   */\n      dup7\n        /* \"#utility.yul\":1951:1967   */\n      add\n        /* \"#utility.yul\":1916:1981   */\n      tag_61\n      jump\t// in\n    tag_106:\n        /* \"#utility.yul\":2006:2035   */\n      tag_107\n        /* \"#utility.yul\":2028:2034   */\n      dup2\n        /* \"#utility.yul\":2006:2035   */\n      tag_62\n      jump\t// in\n    tag_107:\n        /* \"#utility.yul\":2001:2004   */\n      dup5\n        /* \"#utility.yul\":1997:2036   */\n      add\n        /* \"#utility.yul\":1990:2036   */\n      swap2\n      pop\n        /* \"#utility.yul\":1757:2042   */\n      pop\n        /* \"#utility.yul\":1665:2042   */\n      swap3\n      swap2\n      pop\n      pop\n      jump\t// out\n        /* \"#utility.yul\":2048:2166   */\n    tag_64:\n        /* \"#utility.yul\":2135:2159   */\n      tag_109\n        /* \"#utility.yul\":2153:2158   */\n      dup2\n        /* \"#utility.yul\":2135:2159   */\n      tag_56\n      jump\t// in\n    tag_109:\n        /* \"#utility.yul\":2130:2133   */\n      dup3\n        /* \"#utility.yul\":2123:2160   */\n      mstore\n        /* \"#utility.yul\":2048:2166   */\n      pop\n      pop\n      jump\t// out\n        /* \"#utility.yul\":2172:2796   */\n    tag_16:\n        /* \"#utility.yul\":2361:2365   */\n      0x00\n        /* \"#utility.yul\":2399:2401   */\n      0x60\n        /* \"#utility.yul\":2388:2397   */\n      dup3\n        /* \"#utility.yul\":2384:2402   */\n      add\n        /* \"#utility.yul\":2376:2402   */\n      swap1\n      pop\n        /* \"#utility.yul\":2448:2457   */\n      dup2\n        /* \"#utility.yul\":2442:2446   */\n      dup2\n        /* \"#utility.yul\":2438:2458   */\n      sub\n        /* \"#utility.yul\":2434:2435   */\n      0x00\n        /* \"#utility.yul\":2423:2432   */\n      dup4\n        /* \"#utility.yul\":2419:2436   */\n      add\n        /* \"#utility.yul\":2412:2459   */\n      mstore\n        /* \"#utility.yul\":2476:2554   */\n      tag_111\n        /* \"#utility.yul\":2549:2553   */\n      dup2\n        /* \"#utility.yul\":2540:2546   */\n      dup7\n        /* \"#utility.yul\":2476:2554   */\n      tag_63\n      jump\t// in\n    tag_111:\n        /* \"#utility.yul\":2468:2554   */\n      swap1\n      pop\n        /* \"#utility.yul\":2601:2610   */\n      dup2\n        /* \"#utility.yul\":2595:2599   */\n      dup2\n        /* \"#utility.yul\":2591:2611   */\n      sub\n        /* \"#utility.yul\":2586:2588   */\n      0x20\n        /* \"#utility.yul\":2575:2584   */\n      dup4\n        /* \"#utility.yul\":2571:2589   */\n      add\n        /* \"#utility.yul\":2564:2612   */\n      mstore\n        /* \"#utility.yul\":2629:2707   */\n      tag_112\n        /* \"#utility.yul\":2702:2706   */\n      dup2\n        /* \"#utility.yul\":2693:2699   */\n      dup6\n        /* \"#utility.yul\":2629:2707   */\n      tag_63\n      jump\t// in\n    tag_112:\n        /* \"#utility.yul\":2621:2707   */\n      swap1\n      pop\n        /* \"#utility.yul\":2717:2789   */\n      tag_113\n        /* \"#utility.yul\":2785:2787   */\n      0x40\n        /* \"#utility.yul\":2774:2783   */\n      dup4\n        /* \"#utility.yul\":2770:2788   */\n      add\n        /* \"#utility.yul\":2761:2767   */\n      dup5\n        /* \"#utility.yul\":2717:2789   */\n      tag_64\n      jump\t// in\n    tag_113:\n        /* \"#utility.yul\":2172:2796   */\n      swap5\n      swap4\n      pop\n      pop\n      pop\n      pop\n      jump\t// out\n        /* \"#utility.yul\":2802:2982   */\n    tag_65:\n        /* \"#utility.yul\":2850:2927   */\n      0x4e487b7100000000000000000000000000000000000000000000000000000000\n        /* \"#utility.yul\":2847:2848   */\n      0x00\n        /* \"#utility.yul\":2840:2928   */\n      mstore\n        /* \"#utility.yul\":2947:2951   */\n      0x41\n        /* \"#utility.yul\":2944:2945   */\n      0x04\n        /* \"#utility.yul\":2937:2952   */\n      mstore\n        /* \"#utility.yul\":2971:2975   */\n      0x24\n        /* \"#utility.yul\":2968:2969   */\n      0x00\n        /* \"#utility.yul\":2961:2976   */\n      revert\n        /* \"#utility.yul\":2988:3168   */\n    tag_66:\n        /* \"#utility.yul\":3036:3113   */\n      0x4e487b7100000000000000000000000000000000000000000000000000000000\n        /* \"#utility.yul\":3033:3034   */\n      0x00\n        /* \"#utility.yul\":3026:3114   */\n      mstore\n        /* \"#utility.yul\":3133:3137   */\n      0x22\n        /* \"#utility.yul\":3130:3131   */\n      0x04\n        /* \"#utility.yul\":3123:3138   */\n      mstore\n        /* \"#utility.yul\":3157:3161   */\n      0x24\n        /* \"#utility.yul\":3154:3155   */\n      0x00\n        /* \"#utility.yul\":3147:3162   */\n      revert\n        /* \"#utility.yul\":3174:3494   */\n    tag_33:\n        /* \"#utility.yul\":3218:3224   */\n      0x00\n        /* \"#utility.yul\":3255:3256   */\n      0x02\n        /* \"#utility.yul\":3249:3253   */\n      dup3\n        /* \"#utility.yul\":3245:3257   */\n      div\n        /* \"#utility.yul\":3235:3257   */\n      swap1\n      pop\n        /* \"#utility.yul\":3302:3303   */\n      0x01\n        /* \"#utility.yul\":3296:3300   */\n      dup3\n        /* \"#utility.yul\":3292:3304   */\n      and\n        /* \"#utility.yul\":3323:3341   */\n      dup1\n        /* \"#utility.yul\":3313:3394   */\n      tag_117\n      jumpi\n        /* \"#utility.yul\":3379:3383   */\n      0x7f\n        /* \"#utility.yul\":3371:3377   */\n      dup3\n        /* \"#utility.yul\":3367:3384   */\n      and\n        /* \"#utility.yul\":3357:3384   */\n      swap2\n      pop\n        /* \"#utility.yul\":3313:3394   */\n    tag_117:\n        /* \"#utility.yul\":3441:3443   */\n      0x20\n        /* \"#utility.yul\":3433:3439   */\n      dup3\n        /* \"#utility.yul\":3430:3444   */\n      lt\n        /* \"#utility.yul\":3410:3428   */\n      dup2\n        /* \"#utility.yul\":3407:3445   */\n      sub\n        /* \"#utility.yul\":3404:3488   */\n      tag_118\n      jumpi\n        /* \"#utility.yul\":3460:3478   */\n      tag_119\n      tag_66\n      jump\t// in\n    tag_119:\n        /* \"#utility.yul\":3404:3488   */\n    tag_118:\n        /* \"#utility.yul\":3225:3494   */\n      pop\n        /* \"#utility.yul\":3174:3494   */\n      swap2\n      swap1\n      pop\n      jump\t// out\n        /* \"#utility.yul\":3500:3641   */\n    tag_67:\n        /* \"#utility.yul\":3549:3553   */\n      0x00\n        /* \"#utility.yul\":3572:3575   */\n      dup2\n        /* \"#utility.yul\":3564:3575   */\n      swap1\n      pop\n        /* \"#utility.yul\":3595:3598   */\n      dup2\n        /* \"#utility.yul\":3592:3593   */\n      0x00\n        /* \"#utility.yul\":3585:3599   */\n      mstore\n        /* \"#utility.yul\":3629:3633   */\n      0x20\n        /* \"#utility.yul\":3626:3627   */\n      0x00\n        /* \"#utility.yul\":3616:3634   */\n      keccak256\n        /* \"#utility.yul\":3608:3634   */\n      swap1\n      pop\n        /* \"#utility.yul\":3500:3641   */\n      swap2\n      swap1\n      pop\n      jump\t// out\n        /* \"#utility.yul\":3647:3740   */\n    tag_68:\n        /* \"#utility.yul\":3684:3690   */\n      0x00\n        /* \"#utility.yul\":3731:3733   */\n      0x20\n        /* \"#utility.yul\":3726:3728   */\n      0x1f\n        /* \"#utility.yul\":3719:3724   */\n      dup4\n        /* \"#utility.yul\":3715:3729   */\n      add\n        /* \"#utility.yul\":3711:3734   */\n      div\n        /* \"#utility.yul\":3701:3734   */\n      swap1\n      pop\n        /* \"#utility.yul\":3647:3740   */\n      swap2\n      swap1\n      pop\n      jump\t// out\n        /* \"#utility.yul\":3746:3853   */\n    tag_69:\n        /* \"#utility.yul\":3790:3798   */\n      0x00\n        /* \"#utility.yul\":3840:3845   */\n      dup3\n        /* \"#utility.yul\":3834:3838   */\n      dup3\n        /* \"#utility.yul\":3830:3846   */\n      shl\n        /* \"#utility.yul\":3809:3846   */\n      swap1\n      pop\n        /* \"#utility.yul\":3746:3853   */\n      swap3\n      swap2\n      pop\n      pop\n      jump\t// out\n        /* \"#utility.yul\":3859:4252   */\n    tag_70:\n        /* \"#utility.yul\":3928:3934   */\n      0x00\n        /* \"#utility.yul\":3978:3979   */\n      0x08\n        /* \"#utility.yul\":3966:3976   */\n      dup4\n        /* \"#utility.yul\":3962:3980   */\n      mul\n        /* \"#utility.yul\":4001:4098   */\n      tag_124\n        /* \"#utility.yul\":4031:4097   */\n      0xffffffffffffffffffffffffffffffffffffffffffffffffffffffffffffffff\n        /* \"#utility.yul\":4020:4029   */\n      dup3\n        /* \"#utility.yul\":4001:4098   */\n      tag_69\n      jump\t// in\n    tag_124:\n        /* \"#utility.yul\":4119:4158   */\n      tag_125\n        /* \"#utility.yul\":4149:4157   */\n      dup7\n        /* \"#utility.yul\":4138:4147   */\n      dup4\n        /* \"#utility.yul\":4119:4158   */\n      tag_69\n      jump\t// in\n    tag_125:\n        /* \"#utility.yul\":4107:4158   */\n      swap6\n      pop\n        /* \"#utility.yul\":4191:4195   */\n      dup1\n        /* \"#utility.yul\":4187:4196   */\n      not\n        /* \"#utility.yul\":4180:4185   */\n      dup5\n        /* \"#utility.yul\":4176:4197   */\n      and\n        /* \"#utility.yul\":4167:4197   */\n      swap4\n      pop\n        /* \"#utility.yul\":4240:4244   */\n      dup1\n        /* \"#utility.yul\":4230:4238   */\n      dup7\n        /* \"#utility.yul\":4226:4245   */\n      and\n        /* \"#utility.yul\":4219:4224   */\n      dup5\n        /* \"#utility.yul\":4216:4246   */\n      or\n        /* \"#utility.yul\":4206:4246   */\n      swap3\n      pop\n        /* \"#utility.yul\":3935:4252   */\n      pop\n      pop\n        /* \"#utility.yul\":3859:4252   */\n      swap4\n      swap3\n      pop\n      pop\n      pop\n      jump\t// out\n        /* \"#utility.yul\":4258:4318   */\n    tag_71:\n        /* \"#utility.yul\":4286:4289   */\n      0x00\n        /* \"#utility.yul\":4307:4312   */\n      dup2\n        /* \"#utility.yul\":4300:4312   */\n      swap1\n      pop\n        /* \"#utility.yul\":4258:4318   */\n      swap2\n      swap1\n      pop\n      jump\t// out\n        /* \"#utility.yul\":4324:4466   */\n    tag_72:\n        /* \"#utility.yul\":4374:4383   */\n      0x00\n        /* \"#utility.yul\":4407:4460   */\n      tag_128\n        /* \"#utility.yul\":4425:4459   */\n      tag_129\n        /* \"#utility.yul\":4434:4458   */\n      tag_130\n        /* \"#utility.yul\":4452:4457   */\n      dup5\n        /* \"#utility.yul\":4434:4458   */\n      tag_56\n      jump\t// in\n    tag_130:\n        /* \"#utility.yul\":4425:4459   */\n      tag_71\n      jump\t// in\n    tag_129:\n        /* \"#utility.yul\":4407:4460   */\n      tag_56\n      jump\t// in\n    tag_128:\n        /* \"#utility.yul\":4394:4460   */\n      swap1\n      pop\n        /* \"#utility.yul\":4324:4466   */\n      swap2\n      swap1\n      pop\n      jump\t// out\n        /* \"#utility.yul\":4472:4547   */\n    tag_73:\n        /* \"#utility.yul\":4515:4518   */\n      0x00\n        /* \"#utility.yul\":4536:4541   */\n      dup2\n        /* \"#utility.yul\":4529:4541   */\n      swap1\n      pop\n        /* \"#utility.yul\":4472:4547   */\n      swap2\n      swap1\n      pop\n      jump\t// out\n        /* \"#utility.yul\":4553:4822   */\n    tag_74:\n        /* \"#utility.yul\":4663:4702   */\n      tag_133\n        /* \"#utility.yul\":4694:4701   */\n      dup4\n        /* \"#utility.yul\":4663:4702   */\n      tag_72\n      jump\t// in\n    tag_133:\n        /* \"#utility.yul\":4724:4815   */\n      tag_134\n        /* \"#utility.yul\":4773:4814   */\n      tag_135\n        /* \"#utility.yul\":4797:4813   */\n      dup3\n        /* \"#utility.yul\":4773:4814   */\n      tag_73\n      jump\t// in\n    tag_135:\n        /* \"#utility.yul\":4765:4771   */\n      dup5\n        /* \"#utility.yul\":4758:4762   */\n      dup5\n        /* \"#utility.yul\":4752:4763   */\n      sload\n        /* \"#utility.yul\":4724:4815   */\n      tag_70\n      jump\t// in\n    tag_134:\n        /* \"#utility.yul\":4718:4722   */\n      dup3\n        /* \"#utility.yul\":4711:4816   */\n      sstore\n        /* \"#utility.yul\":4629:4822   */\n      pop\n        /* \"#utility.yul\":4553:4822   */\n      pop\n      pop\n      pop\n      jump\t// out\n        /* \"#utility.yul\":4828:4901   */\n    tag_75:\n        /* \"#utility.yul\":4873:4876   */\n      0x00\n        /* \"#utility.yul\":4828:4901   */\n      swap1\n      jump\t// out\n        /* \"#utility.yul\":4907:5096   */\n    tag_76:\n        /* \"#utility.yul\":4984:5016   */\n      tag_138\n      tag_75\n      jump\t// in\n    tag_138:\n        /* \"#utility.yul\":5025:5090   */\n      tag_139\n        /* \"#utility.yul\":5083:5089   */\n      dup2\n        /* \"#utility.yul\":5075:5081   */\n      dup5\n        /* \"#utility.yul\":5069:5073   */\n      dup5\n        /* \"#utility.yul\":5025:5090   */\n      tag_74\n      jump\t// in\n    tag_139:\n        /* \"#utility.yul\":4960:5096   */\n      pop\n        /* \"#utility.yul\":4907:5096   */\n      pop\n      pop\n      jump\t// out\n        /* \"#utility.yul\":5102:5288   */\n    tag_77:\n        /* \"#utility.yul\":5162:5282   */\n    tag_141:\n        /* \"#utility.yul\":5179:5182   */\n      dup2\n        /* \"#utility.yul\":5172:5177   */\n      dup2\n        /* \"#utility.yul\":5169:5183   */\n      lt\n        /* \"#utility.yul\":5162:5282   */\n      iszero\n      tag_143\n      jumpi\n        /* \"#utility.yul\":5233:5272   */\n      tag_144\n        /* \"#utility.yul\":5270:5271   */\n      0x00\n        /* \"#utility.yul\":5263:5268   */\n      dup3\n        /* \"#utility.yul\":5233:5272   */\n      tag_76\n      jump\t// in\n    tag_144:\n        /* \"#utility.yul\":5206:5207   */\n      0x01\n        /* \"#utility.yul\":5199:5204   */\n      dup2\n        /* \"#utility.yul\":5195:5208   */\n      add\n        /* \"#utility.yul\":5186:5208   */\n      swap1\n      pop\n        /* \"#utility.yul\":5162:5282   */\n      jump(tag_141)\n    tag_143:\n        /* \"#utility.yul\":5102:5288   */\n      pop\n      pop\n      jump\t// out\n        /* \"#utility.yul\":5294:5837   */\n    tag_78:\n        /* \"#utility.yul\":5395:5397   */\n      0x1f\n        /* \"#utility.yul\":5390:5393   */\n      dup3\n        /* \"#utility.yul\":5387:5398   */\n      gt\n        /* \"#utility.yul\":5384:5830   */\n      iszero\n      tag_146\n      jumpi\n        /* \"#utility.yul\":5429:5467   */\n      tag_147\n        /* \"#utility.yul\":5461:5466   */\n      dup2\n        /* \"#utility.yul\":5429:5467   */\n      tag_67\n      jump\t// in\n    tag_147:\n        /* \"#utility.yul\":5513:5542   */\n      tag_148\n        /* \"#utility.yul\":5531:5541   */\n      dup5\n        /* \"#utility.yul\":5513:5542   */\n      tag_68\n      jump\t// in\n    tag_148:\n        /* \"#utility.yul\":5503:5511   */\n      dup2\n        /* \"#utility.yul\":5499:5543   */\n      add\n        /* \"#utility.yul\":5696:5698   */\n      0x20\n        /* \"#utility.yul\":5684:5694   */\n      dup6\n        /* \"#utility.yul\":5681:5699   */\n      lt\n        /* \"#utility.yul\":5678:5727   */\n      iszero\n      tag_149\n      jumpi\n        /* \"#utility.yul\":5717:5725   */\n      dup2\n        /* \"#utility.yul\":5702:5725   */\n      swap1\n      pop\n        /* \"#utility.yul\":5678:5727   */\n    tag_149:\n        /* \"#utility.yul\":5740:5820   */\n      tag_150\n        /* \"#utility.yul\":5796:5818   */\n      tag_151\n        /* \"#utility.yul\":5814:5817   */\n      dup6\n        /* \"#utility.yul\":5796:5818   */\n      tag_68\n      jump\t// in\n    tag_151:\n        /* \"#utility.yul\":5786:5794   */\n      dup4\n        /* \"#utility.yul\":5782:5819   */\n      add\n        /* \"#utility.yul\":5769:5780   */\n      dup3\n        /* \"#utility.yul\":5740:5820   */\n      tag_77\n      jump\t// in\n    tag_150:\n        /* \"#utility.yul\":5399:5830   */\n      pop\n      pop\n        /* \"#utility.yul\":5384:5830   */\n    tag_146:\n        /* \"#utility.yul\":5294:5837   */\n      pop\n      pop\n      pop\n      jump\t// out\n        /* \"#utility.yul\":5843:5960   */\n    tag_79:\n        /* \"#utility.yul\":5897:5905   */\n      0x00\n        /* \"#utility.yul\":5947:5952   */\n      dup3\n        /* \"#utility.yul\":5941:5945   */\n      dup3\n        /* \"#utility.yul\":5937:5953   */\n      shr\n        /* \"#utility.yul\":5916:5953   */\n      swap1\n      pop\n        /* \"#utility.yul\":5843:5960   */\n      swap3\n      swap2\n      pop\n      pop\n      jump\t// out\n        /* \"#utility.yul\":5966:6135   */\n    tag_80:\n        /* \"#utility.yul\":6010:6016   */\n      0x00\n        /* \"#utility.yul\":6043:6094   */\n      tag_154\n        /* \"#utility.yul\":6091:6092   */\n      0x00\n        /* \"#utility.yul\":6087:6093   */\n      not\n        /* \"#utility.yul\":6079:6084   */\n      dup5\n        /* \"#utility.yul\":6076:6077   */\n      0x08\n        /* \"#utility.yul\":6072:6085   */\n      mul\n        /* \"#utility.yul\":6043:6094   */\n      tag_79\n      jump\t// in\n    tag_154:\n        /* \"#utility.yul\":6039:6095   */\n      not\n        /* \"#utility.yul\":6124:6128   */\n      dup1\n        /* \"#utility.yul\":6118:6122   */\n      dup4\n        /* \"#utility.yul\":6114:6129   */\n      and\n        /* \"#utility.yul\":6104:6129   */\n      swap2\n      pop\n        /* \"#utility.yul\":6017:6135   */\n      pop\n        /* \"#utility.yul\":5966:6135   */\n      swap3\n      swap2\n      pop\n      pop\n      jump\t// out\n        /* \"#utility.yul\":6140:6435   */\n    tag_81:\n        /* \"#utility.yul\":6216:6220   */\n      0x00\n        /* \"#utility.yul\":6362:6391   */\n      tag_156\n        /* \"#utility.yul\":6387:6390   */\n      dup4\n        /* \"#utility.yul\":6381:6385   */\n      dup4\n        /* \"#utility.yul\":6362:6391   */\n      tag_80\n      jump\t// in\n    tag_156:\n        /* \"#utility.yul\":6354:6391   */\n      swap2\n      pop\n        /* \"#utility.yul\":6424:6427   */\n      dup3\n        /* \"#utility.yul\":6421:6422   */\n      0x02\n        /* \"#utility.yul\":6417:6428   */\n      mul\n        /* \"#utility.yul\":6411:6415   */\n      dup3\n        /* \"#utility.yul\":6408:6429   */\n      or\n        /* \"#utility.yul\":6400:6429   */\n      swap1\n      pop\n        /* \"#utility.yul\":6140:6435   */\n      swap3\n      swap2\n      pop\n      pop\n      jump\t// out\n        /* \"#utility.yul\":6440:7835   */\n    tag_22:\n        /* \"#utility.yul\":6557:6594   */\n      tag_158\n        /* \"#utility.yul\":6590:6593   */\n      dup3\n        /* \"#utility.yul\":6557:6594   */\n      tag_59\n      jump\t// in\n    tag_158:\n        /* \"#utility.yul\":6659:6677   */\n      0xffffffffffffffff\n        /* \"#utility.yul\":6651:6657   */\n      dup2\n        /* \"#utility.yul\":6648:6678   */\n      gt\n        /* \"#utility.yul\":6645:6701   */\n      iszero\n      tag_159\n      jumpi\n        /* \"#utility.yul\":6681:6699   */\n      tag_160\n      tag_65\n      jump\t// in\n    tag_160:\n        /* \"#utility.yul\":6645:6701   */\n    tag_159:\n        /* \"#utility.yul\":6725:6763   */\n      tag_161\n        /* \"#utility.yul\":6757:6761   */\n      dup3\n        /* \"#utility.yul\":6751:6762   */\n      sload\n        /* \"#utility.yul\":6725:6763   */\n      tag_33\n      jump\t// in\n    tag_161:\n        /* \"#utility.yul\":6810:6877   */\n      tag_162\n        /* \"#utility.yul\":6870:6876   */\n      dup3\n        /* \"#utility.yul\":6862:6868   */\n      dup3\n        /* \"#utility.yul\":6856:6860   */\n      dup6\n        /* \"#utility.yul\":6810:6877   */\n      tag_78\n      jump\t// in\n    tag_162:\n        /* \"#utility.yul\":6904:6905   */\n      0x00\n        /* \"#utility.yul\":6928:6932   */\n      0x20\n        /* \"#utility.yul\":6915:6932   */\n      swap1\n      pop\n        /* \"#utility.yul\":6960:6962   */\n      0x1f\n        /* \"#utility.yul\":6952:6958   */\n      dup4\n        /* \"#utility.yul\":6949:6963   */\n      gt\n        /* \"#utility.yul\":6977:6978   */\n      0x01\n        /* \"#utility.yul\":6972:7590   */\n      dup2\n      eq\n      tag_164\n      jumpi\n        /* \"#utility.yul\":7634:7635   */\n      0x00\n        /* \"#utility.yul\":7651:7657   */\n      dup5\n        /* \"#utility.yul\":7648:7725   */\n      iszero\n      tag_165\n      jumpi\n        /* \"#utility.yul\":7700:7709   */\n      dup3\n        /* \"#utility.yul\":7695:7698   */\n      dup8\n        /* \"#utility.yul\":7691:7710   */\n      add\n        /* \"#utility.yul\":7685:7711   */\n      mload\n        /* \"#utility.yul\":7676:7711   */\n      swap1\n      pop\n        /* \"#utility.yul\":7648:7725   */\n    tag_165:\n        /* \"#utility.yul\":7751:7818   */\n      tag_166\n        /* \"#utility.yul\":7811:7817   */\n      dup6\n        /* \"#utility.yul\":7804:7809   */\n      dup3\n        /* \"#utility.yul\":7751:7818   */\n      tag_81\n      jump\t// in\n    tag_166:\n        /* \"#utility.yul\":7745:7749   */\n      dup7\n        /* \"#utility.yul\":7738:7819   */\n      sstore\n        /* \"#utility.yul\":7607:7829   */\n      pop\n        /* \"#utility.yul\":6942:7829   */\n      jump(tag_163)\n        /* \"#utility.yul\":6972:7590   */\n    tag_164:\n        /* \"#utility.yul\":7024:7028   */\n      0x1f\n        /* \"#utility.yul\":7020:7029   */\n      not\n        /* \"#utility.yul\":7012:7018   */\n      dup5\n        /* \"#utility.yul\":7008:7030   */\n      and\n        /* \"#utility.yul\":7058:7095   */\n      tag_167\n        /* \"#utility.yul\":7090:7094   */\n      dup7\n        /* \"#utility.yul\":7058:7095   */\n      tag_67\n      jump\t// in\n    tag_167:\n        /* \"#utility.yul\":7117:7118   */\n      0x00\n        /* \"#utility.yul\":7131:7339   */\n    tag_168:\n        /* \"#utility.yul\":7145:7152   */\n      dup3\n        /* \"#utility.yul\":7142:7143   */\n      dup2\n        /* \"#utility.yul\":7139:7153   */\n      lt\n        /* \"#utility.yul\":7131:7339   */\n      iszero\n      tag_170\n      jumpi\n        /* \"#utility.yul\":7224:7233   */\n      dup5\n        /* \"#utility.yul\":7219:7222   */\n      dup10\n        /* \"#utility.yul\":7215:7234   */\n      add\n        /* \"#utility.yul\":7209:7235   */\n      mload\n        /* \"#utility.yul\":7201:7207   */\n      dup3\n        /* \"#utility.yul\":7194:7236   */\n      sstore\n        /* \"#utility.yul\":7275:7276   */\n      0x01\n        /* \"#utility.yul\":7267:7273   */\n      dup3\n        /* \"#utility.yul\":7263:7277   */\n      add\n        /* \"#utility.yul\":7253:7277   */\n      swap2\n      pop\n        /* \"#utility.yul\":7322:7324   */\n      0x20\n        /* \"#utility.yul\":7311:7320   */\n      dup6\n        /* \"#utility.yul\":7307:7325   */\n      add\n        /* \"#utility.yul\":7294:7325   */\n      swap5\n      pop\n        /* \"#utility.yul\":7168:7172   */\n      0x20\n        /* \"#utility.yul\":7165:7166   */\n      dup2\n        /* \"#utility.yul\":7161:7173   */\n      add\n        /* \"#utility.yul\":7156:7173   */\n      swap1\n      pop\n        /* \"#utility.yul\":7131:7339   */\n      jump(tag_168)\n    tag_170:\n        /* \"#utility.yul\":7367:7373   */\n      dup7\n        /* \"#utility.yul\":7358:7365   */\n      dup4\n        /* \"#utility.yul\":7355:7374   */\n      lt\n        /* \"#utility.yul\":7352:7531   */\n      iszero\n      tag_171\n      jumpi\n        /* \"#utility.yul\":7425:7434   */\n      dup5\n        /* \"#utility.yul\":7420:7423   */\n      dup10\n        /* \"#utility.yul\":7416:7435   */\n      add\n        /* \"#utility.yul\":7410:7436   */\n      mload\n        /* \"#utility.yul\":7468:7516   */\n      tag_172\n        /* \"#utility.yul\":7510:7514   */\n      0x1f\n        /* \"#utility.yul\":7502:7508   */\n      dup10\n        /* \"#utility.yul\":7498:7515   */\n      and\n        /* \"#utility.yul\":7487:7496   */\n      dup3\n        /* \"#utility.yul\":7468:7516   */\n      tag_80\n      jump\t// in\n    tag_172:\n        /* \"#utility.yul\":7460:7466   */\n      dup4\n        /* \"#utility.yul\":7453:7517   */\n      sstore\n        /* \"#utility.yul\":7375:7531   */\n      pop\n        /* \"#utility.yul\":7352:7531   */\n    tag_171:\n        /* \"#utility.yul\":7577:7578   */\n      0x01\n        /* \"#utility.yul\":7573:7574   */\n      0x02\n        /* \"#utility.yul\":7565:7571   */\n      dup9\n        /* \"#utility.yul\":7561:7575   */\n      mul\n        /* \"#utility.yul\":7557:7579   */\n      add\n        /* \"#utility.yul\":7551:7555   */\n      dup9\n        /* \"#utility.yul\":7544:7580   */\n      sstore\n        /* \"#utility.yul\":6979:7590   */\n      pop\n      pop\n      pop\n        /* \"#utility.yul\":6942:7829   */\n    tag_163:\n      pop\n        /* \"#utility.yul\":6532:7835   */\n      pop\n      pop\n      pop\n        /* \"#utility.yul\":6440:7835   */\n      pop\n      pop\n      jump\t// out\n\n    auxdata: 0xa26469706673582212203207ec5b5e5932b42205a359a08b210aedee6dac6145286ab5d08a69ba32a8e564736f6c63430008120033\n}\n",
				"bytecode": {
					"linkReferences": {},
					"object": "608060405234801561001057600080fd5b50610970806100206000396000f3fe608060405234801561001057600080fd5b506004361061004c5760003560e01c80631d2aec85146100515780636f6745211461005b57806391ebc320146100655780639a7ffc5714610097575b600080fd5b6100596100b7565b005b610063610158565b005b61007f600480360381019061007a919061051c565b61024e565b60405161008e939291906105e8565b60405180910390f35b61009f610398565b6040516100ae939291906105e8565b60405180910390f35b6000600190506040518060400160405280600281526020017f65650000000000000000000000000000000000000000000000000000000000008152508160000190816101039190610868565b506040518060400160405280600381526020017f414243000000000000000000000000000000000000000000000000000000000081525081600101908161014a9190610868565b50607b816002018190555050565b6101606104c0565b6040518060400160405280600281526020017f656500000000000000000000000000000000000000000000000000000000000081525081600001819052506040518060400160405280600381526020017f41424300000000000000000000000000000000000000000000000000000000008152508160200181905250607b816040018181525050600081908060018154018082558091505060019003906000526020600020906003020160009091909190915060008201518160000190816102289190610868565b50602082015181600101908161023e9190610868565b5060408201518160020155505050565b6000818154811061025e57600080fd5b90600052602060002090600302016000915090508060000180546102819061068b565b80601f01602080910402602001604051908101604052809291908181526020018280546102ad9061068b565b80156102fa5780601f106102cf576101008083540402835291602001916102fa565b820191906000526020600020905b8154815290600101906020018083116102dd57829003601f168201915b50505050509080600101805461030f9061068b565b80601f016020809104026020016040519081016040528092919081815260200182805461033b9061068b565b80156103885780601f1061035d57610100808354040283529160200191610388565b820191906000526020600020905b81548152906001019060200180831161036b57829003601f168201915b5050505050908060020154905083565b60018060000180546103a99061068b565b80601f01602080910402602001604051908101604052809291908181526020018280546103d59061068b565b80156104225780601f106103f757610100808354040283529160200191610422565b820191906000526020600020905b81548152906001019060200180831161040557829003601f168201915b5050505050908060010180546104379061068b565b80601f01602080910402602001604051908101604052809291908181526020018280546104639061068b565b80156104b05780601f10610485576101008083540402835291602001916104b0565b820191906000526020600020905b81548152906001019060200180831161049357829003601f168201915b5050505050908060020154905083565b60405180606001604052806060815260200160608152602001600081525090565b600080fd5b6000819050919050565b6104f9816104e6565b811461050457600080fd5b50565b600081359050610516816104f0565b92915050565b600060208284031215610532576105316104e1565b5b600061054084828501610507565b91505092915050565b600081519050919050565b600082825260208201905092915050565b60005b83811015610583578082015181840152602081019050610568565b60008484015250505050565b6000601f19601f8301169050919050565b60006105ab82610549565b6105b58185610554565b93506105c5818560208601610565565b6105ce8161058f565b840191505092915050565b6105e2816104e6565b82525050565b6000606082019050818103600083015261060281866105a0565b9050818103602083015261061681856105a0565b905061062560408301846105d9565b949350505050565b7f4e487b7100000000000000000000000000000000000000000000000000000000600052604160045260246000fd5b7f4e487b7100000000000000000000000000000000000000000000000000000000600052602260045260246000fd5b600060028204905060018216806106a357607f821691505b6020821081036106b6576106b561065c565b5b50919050565b60008190508160005260206000209050919050565b60006020601f8301049050919050565b600082821b905092915050565b60006008830261071e7fffffffffffffffffffffffffffffffffffffffffffffffffffffffffffffffff826106e1565b61072886836106e1565b95508019841693508086168417925050509392505050565b6000819050919050565b600061076561076061075b846104e6565b610740565b6104e6565b9050919050565b6000819050919050565b61077f8361074a565b61079361078b8261076c565b8484546106ee565b825550505050565b600090565b6107a861079b565b6107b3818484610776565b505050565b5b818110156107d7576107cc6000826107a0565b6001810190506107b9565b5050565b601f82111561081c576107ed816106bc565b6107f6846106d1565b81016020851015610805578190505b610819610811856106d1565b8301826107b8565b50505b505050565b600082821c905092915050565b600061083f60001984600802610821565b1980831691505092915050565b6000610858838361082e565b9150826002028217905092915050565b61087182610549565b67ffffffffffffffff81111561088a5761088961062d565b5b610894825461068b565b61089f8282856107db565b600060209050601f8311600181146108d257600084156108c0578287015190505b6108ca858261084c565b865550610932565b601f1984166108e0866106bc565b60005b82811015610908578489015182556001820191506020850194506020810190506108e3565b868310156109255784890151610921601f89168261082e565b8355505b6001600288020188555050505b50505050505056fea26469706673582212203207ec5b5e5932b42205a359a08b210aedee6dac6145286ab5d08a69ba32a8e564736f6c63430008120033",
					"opcodes": "PUSH1 0x80 PUSH1 0x40 MSTORE CALLVALUE DUP1 ISZERO PUSH2 0x10 JUMPI PUSH1 0x0 DUP1 REVERT JUMPDEST POP PUSH2 0x970 DUP1 PUSH2 0x20 PUSH1 0x0 CODECOPY PUSH1 0x0 RETURN INVALID PUSH1 0x80 PUSH1 0x40 MSTORE CALLVALUE DUP1 ISZERO PUSH2 0x10 JUMPI PUSH1 0x0 DUP1 REVERT JUMPDEST POP PUSH1 0x4 CALLDATASIZE LT PUSH2 0x4C JUMPI PUSH1 0x0 CALLDATALOAD PUSH1 0xE0 SHR DUP1 PUSH4 0x1D2AEC85 EQ PUSH2 0x51 JUMPI DUP1 PUSH4 0x6F674521 EQ PUSH2 0x5B JUMPI DUP1 PUSH4 0x91EBC320 EQ PUSH2 0x65 JUMPI DUP1 PUSH4 0x9A7FFC57 EQ PUSH2 0x97 JUMPI JUMPDEST PUSH1 0x0 DUP1 REVERT JUMPDEST PUSH2 0x59 PUSH2 0xB7 JUMP JUMPDEST STOP JUMPDEST PUSH2 0x63 PUSH2 0x158 JUMP JUMPDEST STOP JUMPDEST PUSH2 0x7F PUSH1 0x4 DUP1 CALLDATASIZE SUB DUP2 ADD SWAP1 PUSH2 0x7A SWAP2 SWAP1 PUSH2 0x51C JUMP JUMPDEST PUSH2 0x24E JUMP JUMPDEST PUSH1 0x40 MLOAD PUSH2 0x8E SWAP4 SWAP3 SWAP2 SWAP1 PUSH2 0x5E8 JUMP JUMPDEST PUSH1 0x40 MLOAD DUP1 SWAP2 SUB SWAP1 RETURN JUMPDEST PUSH2 0x9F PUSH2 0x398 JUMP JUMPDEST PUSH1 0x40 MLOAD PUSH2 0xAE SWAP4 SWAP3 SWAP2 SWAP1 PUSH2 0x5E8 JUMP JUMPDEST PUSH1 0x40 MLOAD DUP1 SWAP2 SUB SWAP1 RETURN JUMPDEST PUSH1 0x0 PUSH1 0x1 SWAP1 POP PUSH1 0x40 MLOAD DUP1 PUSH1 0x40 ADD PUSH1 0x40 MSTORE DUP1 PUSH1 0x2 DUP2 MSTORE PUSH1 0x20 ADD PUSH32 0x6565000000000000000000000000000000000000000000000000000000000000 DUP2 MSTORE POP DUP2 PUSH1 0x0 ADD SWAP1 DUP2 PUSH2 0x103 SWAP2 SWAP1 PUSH2 0x868 JUMP JUMPDEST POP PUSH1 0x40 MLOAD DUP1 PUSH1 0x40 ADD PUSH1 0x40 MSTORE DUP1 PUSH1 0x3 DUP2 MSTORE PUSH1 0x20 ADD PUSH32 0x4142430000000000000000000000000000000000000000000000000000000000 DUP2 MSTORE POP DUP2 PUSH1 0x1 ADD SWAP1 DUP2 PUSH2 0x14A SWAP2 SWAP1 PUSH2 0x868 JUMP JUMPDEST POP PUSH1 0x7B DUP2 PUSH1 0x2 ADD DUP2 SWAP1 SSTORE POP POP JUMP JUMPDEST PUSH2 0x160 PUSH2 0x4C0 JUMP JUMPDEST PUSH1 0x40 MLOAD DUP1 PUSH1 0x40 ADD PUSH1 0x40 MSTORE DUP1 PUSH1 0x2 DUP2 MSTORE PUSH1 0x20 ADD PUSH32 0x6565000000000000000000000000000000000000000000000000000000000000 DUP2 MSTORE POP DUP2 PUSH1 0x0 ADD DUP2 SWAP1 MSTORE POP PUSH1 0x40 MLOAD DUP1 PUSH1 0x40 ADD PUSH1 0x40 MSTORE DUP1 PUSH1 0x3 DUP2 MSTORE PUSH1 0x20 ADD PUSH32 0x4142430000000000000000000000000000000000000000000000000000000000 DUP2 MSTORE POP DUP2 PUSH1 0x20 ADD DUP2 SWAP1 MSTORE POP PUSH1 0x7B DUP2 PUSH1 0x40 ADD DUP2 DUP2 MSTORE POP POP PUSH1 0x0 DUP2 SWAP1 DUP1 PUSH1 0x1 DUP2 SLOAD ADD DUP1 DUP3 SSTORE DUP1 SWAP2 POP POP PUSH1 0x1 SWAP1 SUB SWAP1 PUSH1 0x0 MSTORE PUSH1 0x20 PUSH1 0x0 KECCAK256 SWAP1 PUSH1 0x3 MUL ADD PUSH1 0x0 SWAP1 SWAP2 SWAP1 SWAP2 SWAP1 SWAP2 POP PUSH1 0x0 DUP3 ADD MLOAD DUP2 PUSH1 0x0 ADD SWAP1 DUP2 PUSH2 0x228 SWAP2 SWAP1 PUSH2 0x868 JUMP JUMPDEST POP PUSH1 0x20 DUP3 ADD MLOAD DUP2 PUSH1 0x1 ADD SWAP1 DUP2 PUSH2 0x23E SWAP2 SWAP1 PUSH2 0x868 JUMP JUMPDEST POP PUSH1 0x40 DUP3 ADD MLOAD DUP2 PUSH1 0x2 ADD SSTORE POP POP POP JUMP JUMPDEST PUSH1 0x0 DUP2 DUP2 SLOAD DUP2 LT PUSH2 0x25E JUMPI PUSH1 0x0 DUP1 REVERT JUMPDEST SWAP1 PUSH1 0x0 MSTORE PUSH1 0x20 PUSH1 0x0 KECCAK256 SWAP1 PUSH1 0x3 MUL ADD PUSH1 0x0 SWAP2 POP SWAP1 POP DUP1 PUSH1 0x0 ADD DUP1 SLOAD PUSH2 0x281 SWAP1 PUSH2 0x68B JUMP JUMPDEST DUP1 PUSH1 0x1F ADD PUSH1 0x20 DUP1 SWAP2 DIV MUL PUSH1 0x20 ADD PUSH1 0x40 MLOAD SWAP1 DUP2 ADD PUSH1 0x40 MSTORE DUP1 SWAP3 SWAP2 SWAP1 DUP2 DUP2 MSTORE PUSH1 0x20 ADD DUP3 DUP1 SLOAD PUSH2 0x2AD SWAP1 PUSH2 0x68B JUMP JUMPDEST DUP1 ISZERO PUSH2 0x2FA JUMPI DUP1 PUSH1 0x1F LT PUSH2 0x2CF JUMPI PUSH2 0x100 DUP1 DUP4 SLOAD DIV MUL DUP4 MSTORE SWAP2 PUSH1 0x20 ADD SWAP2 PUSH2 0x2FA JUMP JUMPDEST DUP3 ADD SWAP2 SWAP1 PUSH1 0x0 MSTORE PUSH1 0x20 PUSH1 0x0 KECCAK256 SWAP1 JUMPDEST DUP2 SLOAD DUP2 MSTORE SWAP1 PUSH1 0x1 ADD SWAP1 PUSH1 0x20 ADD DUP1 DUP4 GT PUSH2 0x2DD JUMPI DUP3 SWAP1 SUB PUSH1 0x1F AND DUP3 ADD SWAP2 JUMPDEST POP POP POP POP POP SWAP1 DUP1 PUSH1 0x1 ADD DUP1 SLOAD PUSH2 0x30F SWAP1 PUSH2 0x68B JUMP JUMPDEST DUP1 PUSH1 0x1F ADD PUSH1 0x20 DUP1 SWAP2 DIV MUL PUSH1 0x20 ADD PUSH1 0x40 MLOAD SWAP1 DUP2 ADD PUSH1 0x40 MSTORE DUP1 SWAP3 SWAP2 SWAP1 DUP2 DUP2 MSTORE PUSH1 0x20 ADD DUP3 DUP1 SLOAD PUSH2 0x33B SWAP1 PUSH2 0x68B JUMP JUMPDEST DUP1 ISZERO PUSH2 0x388 JUMPI DUP1 PUSH1 0x1F LT PUSH2 0x35D JUMPI PUSH2 0x100 DUP1 DUP4 SLOAD DIV MUL DUP4 MSTORE SWAP2 PUSH1 0x20 ADD SWAP2 PUSH2 0x388 JUMP JUMPDEST DUP3 ADD SWAP2 SWAP1 PUSH1 0x0 MSTORE PUSH1 0x20 PUSH1 0x0 KECCAK256 SWAP1 JUMPDEST DUP2 SLOAD DUP2 MSTORE SWAP1 PUSH1 0x1 ADD SWAP1 PUSH1 0x20 ADD DUP1 DUP4 GT PUSH2 0x36B JUMPI DUP3 SWAP1 SUB PUSH1 0x1F AND DUP3 ADD SWAP2 JUMPDEST POP POP POP POP POP SWAP1 DUP1 PUSH1 0x2 ADD SLOAD SWAP1 POP DUP4 JUMP JUMPDEST PUSH1 0x1 DUP1 PUSH1 0x0 ADD DUP1 SLOAD PUSH2 0x3A9 SWAP1 PUSH2 0x68B JUMP JUMPDEST DUP1 PUSH1 0x1F ADD PUSH1 0x20 DUP1 SWAP2 DIV MUL PUSH1 0x20 ADD PUSH1 0x40 MLOAD SWAP1 DUP2 ADD PUSH1 0x40 MSTORE DUP1 SWAP3 SWAP2 SWAP1 DUP2 DUP2 MSTORE PUSH1 0x20 ADD DUP3 DUP1 SLOAD PUSH2 0x3D5 SWAP1 PUSH2 0x68B JUMP JUMPDEST DUP1 ISZERO PUSH2 0x422 JUMPI DUP1 PUSH1 0x1F LT PUSH2 0x3F7 JUMPI PUSH2 0x100 DUP1 DUP4 SLOAD DIV MUL DUP4 MSTORE SWAP2 PUSH1 0x20 ADD SWAP2 PUSH2 0x422 JUMP JUMPDEST DUP3 ADD SWAP2 SWAP1 PUSH1 0x0 MSTORE PUSH1 0x20 PUSH1 0x0 KECCAK256 SWAP1 JUMPDEST DUP2 SLOAD DUP2 MSTORE SWAP1 PUSH1 0x1 ADD SWAP1 PUSH1 0x20 ADD DUP1 DUP4 GT PUSH2 0x405 JUMPI DUP3 SWAP1 SUB PUSH1 0x1F AND DUP3 ADD SWAP2 JUMPDEST POP POP POP POP POP SWAP1 DUP1 PUSH1 0x1 ADD DUP1 SLOAD PUSH2 0x437 SWAP1 PUSH2 0x68B JUMP JUMPDEST DUP1 PUSH1 0x1F ADD PUSH1 0x20 DUP1 SWAP2 DIV MUL PUSH1 0x20 ADD PUSH1 0x40 MLOAD SWAP1 DUP2 ADD PUSH1 0x40 MSTORE DUP1 SWAP3 SWAP2 SWAP1 DUP2 DUP2 MSTORE PUSH1 0x20 ADD DUP3 DUP1 SLOAD PUSH2 0x463 SWAP1 PUSH2 0x68B JUMP JUMPDEST DUP1 ISZERO PUSH2 0x4B0 JUMPI DUP1 PUSH1 0x1F LT PUSH2 0x485 JUMPI PUSH2 0x100 DUP1 DUP4 SLOAD DIV MUL DUP4 MSTORE SWAP2 PUSH1 0x20 ADD SWAP2 PUSH2 0x4B0 JUMP JUMPDEST DUP3 ADD SWAP2 SWAP1 PUSH1 0x0 MSTORE PUSH1 0x20 PUSH1 0x0 KECCAK256 SWAP1 JUMPDEST DUP2 SLOAD DUP2 MSTORE SWAP1 PUSH1 0x1 ADD SWAP1 PUSH1 0x20 ADD DUP1 DUP4 GT PUSH2 0x493 JUMPI DUP3 SWAP1 SUB PUSH1 0x1F AND DUP3 ADD SWAP2 JUMPDEST POP POP POP POP POP SWAP1 DUP1 PUSH1 0x2 ADD SLOAD SWAP1 POP DUP4 JUMP JUMPDEST PUSH1 0x40 MLOAD DUP1 PUSH1 0x60 ADD PUSH1 0x40 MSTORE DUP1 PUSH1 0x60 DUP2 MSTORE PUSH1 0x20 ADD PUSH1 0x60 DUP2 MSTORE PUSH1 0x20 ADD PUSH1 0x0 DUP2 MSTORE POP SWAP1 JUMP JUMPDEST PUSH1 0x0 DUP1 REVERT JUMPDEST PUSH1 0x0 DUP2 SWAP1 POP SWAP2 SWAP1 POP JUMP JUMPDEST PUSH2 0x4F9 DUP2 PUSH2 0x4E6 JUMP JUMPDEST DUP2 EQ PUSH2 0x504 JUMPI PUSH1 0x0 DUP1 REVERT JUMPDEST POP JUMP JUMPDEST PUSH1 0x0 DUP2 CALLDATALOAD SWAP1 POP PUSH2 0x516 DUP2 PUSH2 0x4F0 JUMP JUMPDEST SWAP3 SWAP2 POP POP JUMP JUMPDEST PUSH1 0x0 PUSH1 0x20 DUP3 DUP5 SUB SLT ISZERO PUSH2 0x532 JUMPI PUSH2 0x531 PUSH2 0x4E1 JUMP JUMPDEST JUMPDEST PUSH1 0x0 PUSH2 0x540 DUP5 DUP3 DUP6 ADD PUSH2 0x507 JUMP JUMPDEST SWAP2 POP POP SWAP3 SWAP2 POP POP JUMP JUMPDEST PUSH1 0x0 DUP2 MLOAD SWAP1 POP SWAP2 SWAP1 POP JUMP JUMPDEST PUSH1 0x0 DUP3 DUP3 MSTORE PUSH1 0x20 DUP3 ADD SWAP1 POP SWAP3 SWAP2 POP POP JUMP JUMPDEST PUSH1 0x0 JUMPDEST DUP4 DUP2 LT ISZERO PUSH2 0x583 JUMPI DUP1 DUP3 ADD MLOAD DUP2 DUP5 ADD MSTORE PUSH1 0x20 DUP2 ADD SWAP1 POP PUSH2 0x568 JUMP JUMPDEST PUSH1 0x0 DUP5 DUP5 ADD MSTORE POP POP POP POP JUMP JUMPDEST PUSH1 0x0 PUSH1 0x1F NOT PUSH1 0x1F DUP4 ADD AND SWAP1 POP SWAP2 SWAP1 POP JUMP JUMPDEST PUSH1 0x0 PUSH2 0x5AB DUP3 PUSH2 0x549 JUMP JUMPDEST PUSH2 0x5B5 DUP2 DUP6 PUSH2 0x554 JUMP JUMPDEST SWAP4 POP PUSH2 0x5C5 DUP2 DUP6 PUSH1 0x20 DUP7 ADD PUSH2 0x565 JUMP JUMPDEST PUSH2 0x5CE DUP2 PUSH2 0x58F JUMP JUMPDEST DUP5 ADD SWAP2 POP POP SWAP3 SWAP2 POP POP JUMP JUMPDEST PUSH2 0x5E2 DUP2 PUSH2 0x4E6 JUMP JUMPDEST DUP3 MSTORE POP POP JUMP JUMPDEST PUSH1 0x0 PUSH1 0x60 DUP3 ADD SWAP1 POP DUP2 DUP2 SUB PUSH1 0x0 DUP4 ADD MSTORE PUSH2 0x602 DUP2 DUP7 PUSH2 0x5A0 JUMP JUMPDEST SWAP1 POP DUP2 DUP2 SUB PUSH1 0x20 DUP4 ADD MSTORE PUSH2 0x616 DUP2 DUP6 PUSH2 0x5A0 JUMP JUMPDEST SWAP1 POP PUSH2 0x625 PUSH1 0x40 DUP4 ADD DUP5 PUSH2 0x5D9 JUMP JUMPDEST SWAP5 SWAP4 POP POP POP POP JUMP JUMPDEST PUSH32 0x4E487B7100000000000000000000000000000000000000000000000000000000 PUSH1 0x0 MSTORE PUSH1 0x41 PUSH1 0x4 MSTORE PUSH1 0x24 PUSH1 0x0 REVERT JUMPDEST PUSH32 0x4E487B7100000000000000000000000000000000000000000000000000000000 PUSH1 0x0 MSTORE PUSH1 0x22 PUSH1 0x4 MSTORE PUSH1 0x24 PUSH1 0x0 REVERT JUMPDEST PUSH1 0x0 PUSH1 0x2 DUP3 DIV SWAP1 POP PUSH1 0x1 DUP3 AND DUP1 PUSH2 0x6A3 JUMPI PUSH1 0x7F DUP3 AND SWAP2 POP JUMPDEST PUSH1 0x20 DUP3 LT DUP2 SUB PUSH2 0x6B6 JUMPI PUSH2 0x6B5 PUSH2 0x65C JUMP JUMPDEST JUMPDEST POP SWAP2 SWAP1 POP JUMP JUMPDEST PUSH1 0x0 DUP2 SWAP1 POP DUP2 PUSH1 0x0 MSTORE PUSH1 0x20 PUSH1 0x0 KECCAK256 SWAP1 POP SWAP2 SWAP1 POP JUMP JUMPDEST PUSH1 0x0 PUSH1 0x20 PUSH1 0x1F DUP4 ADD DIV SWAP1 POP SWAP2 SWAP1 POP JUMP JUMPDEST PUSH1 0x0 DUP3 DUP3 SHL SWAP1 POP SWAP3 SWAP2 POP POP JUMP JUMPDEST PUSH1 0x0 PUSH1 0x8 DUP4 MUL PUSH2 0x71E PUSH32 0xFFFFFFFFFFFFFFFFFFFFFFFFFFFFFFFFFFFFFFFFFFFFFFFFFFFFFFFFFFFFFFFF DUP3 PUSH2 0x6E1 JUMP JUMPDEST PUSH2 0x728 DUP7 DUP4 PUSH2 0x6E1 JUMP JUMPDEST SWAP6 POP DUP1 NOT DUP5 AND SWAP4 POP DUP1 DUP7 AND DUP5 OR SWAP3 POP POP POP SWAP4 SWAP3 POP POP POP JUMP JUMPDEST PUSH1 0x0 DUP2 SWAP1 POP SWAP2 SWAP1 POP JUMP JUMPDEST PUSH1 0x0 PUSH2 0x765 PUSH2 0x760 PUSH2 0x75B DUP5 PUSH2 0x4E6 JUMP JUMPDEST PUSH2 0x740 JUMP JUMPDEST PUSH2 0x4E6 JUMP JUMPDEST SWAP1 POP SWAP2 SWAP1 POP JUMP JUMPDEST PUSH1 0x0 DUP2 SWAP1 POP SWAP2 SWAP1 POP JUMP JUMPDEST PUSH2 0x77F DUP4 PUSH2 0x74A JUMP JUMPDEST PUSH2 0x793 PUSH2 0x78B DUP3 PUSH2 0x76C JUMP JUMPDEST DUP5 DUP5 SLOAD PUSH2 0x6EE JUMP JUMPDEST DUP3 SSTORE POP POP POP POP JUMP JUMPDEST PUSH1 0x0 SWAP1 JUMP JUMPDEST PUSH2 0x7A8 PUSH2 0x79B JUMP JUMPDEST PUSH2 0x7B3 DUP2 DUP5 DUP5 PUSH2 0x776 JUMP JUMPDEST POP POP POP JUMP JUMPDEST JUMPDEST DUP2 DUP2 LT ISZERO PUSH2 0x7D7 JUMPI PUSH2 0x7CC PUSH1 0x0 DUP3 PUSH2 0x7A0 JUMP JUMPDEST PUSH1 0x1 DUP2 ADD SWAP1 POP PUSH2 0x7B9 JUMP JUMPDEST POP POP JUMP JUMPDEST PUSH1 0x1F DUP3 GT ISZERO PUSH2 0x81C JUMPI PUSH2 0x7ED DUP2 PUSH2 0x6BC JUMP JUMPDEST PUSH2 0x7F6 DUP5 PUSH2 0x6D1 JUMP JUMPDEST DUP2 ADD PUSH1 0x20 DUP6 LT ISZERO PUSH2 0x805 JUMPI DUP2 SWAP1 POP JUMPDEST PUSH2 0x819 PUSH2 0x811 DUP6 PUSH2 0x6D1 JUMP JUMPDEST DUP4 ADD DUP3 PUSH2 0x7B8 JUMP JUMPDEST POP POP JUMPDEST POP POP POP JUMP JUMPDEST PUSH1 0x0 DUP3 DUP3 SHR SWAP1 POP SWAP3 SWAP2 POP POP JUMP JUMPDEST PUSH1 0x0 PUSH2 0x83F PUSH1 0x0 NOT DUP5 PUSH1 0x8 MUL PUSH2 0x821 JUMP JUMPDEST NOT DUP1 DUP4 AND SWAP2 POP POP SWAP3 SWAP2 POP POP JUMP JUMPDEST PUSH1 0x0 PUSH2 0x858 DUP4 DUP4 PUSH2 0x82E JUMP JUMPDEST SWAP2 POP DUP3 PUSH1 0x2 MUL DUP3 OR SWAP1 POP SWAP3 SWAP2 POP POP JUMP JUMPDEST PUSH2 0x871 DUP3 PUSH2 0x549 JUMP JUMPDEST PUSH8 0xFFFFFFFFFFFFFFFF DUP2 GT ISZERO PUSH2 0x88A JUMPI PUSH2 0x889 PUSH2 0x62D JUMP JUMPDEST JUMPDEST PUSH2 0x894 DUP3 SLOAD PUSH2 0x68B JUMP JUMPDEST PUSH2 0x89F DUP3 DUP3 DUP6 PUSH2 0x7DB JUMP JUMPDEST PUSH1 0x0 PUSH1 0x20 SWAP1 POP PUSH1 0x1F DUP4 GT PUSH1 0x1 DUP2 EQ PUSH2 0x8D2 JUMPI PUSH1 0x0 DUP5 ISZERO PUSH2 0x8C0 JUMPI DUP3 DUP8 ADD MLOAD SWAP1 POP JUMPDEST PUSH2 0x8CA DUP6 DUP3 PUSH2 0x84C JUMP JUMPDEST DUP7 SSTORE POP PUSH2 0x932 JUMP JUMPDEST PUSH1 0x1F NOT DUP5 AND PUSH2 0x8E0 DUP7 PUSH2 0x6BC JUMP JUMPDEST PUSH1 0x0 JUMPDEST DUP3 DUP2 LT ISZERO PUSH2 0x908 JUMPI DUP5 DUP10 ADD MLOAD DUP3 SSTORE PUSH1 0x1 DUP3 ADD SWAP2 POP PUSH1 0x20 DUP6 ADD SWAP5 POP PUSH1 0x20 DUP2 ADD SWAP1 POP PUSH2 0x8E3 JUMP JUMPDEST DUP7 DUP4 LT ISZERO PUSH2 0x925 JUMPI DUP5 DUP10 ADD MLOAD PUSH2 0x921 PUSH1 0x1F DUP10 AND DUP3 PUSH2 0x82E JUMP JUMPDEST DUP4 SSTORE POP JUMPDEST PUSH1 0x1 PUSH1 0x2 DUP9 MUL ADD DUP9 SSTORE POP POP POP JUMPDEST POP POP POP POP POP POP JUMP INVALID LOG2 PUSH5 0x6970667358 0x22 SLT KECCAK256 ORIGIN SMOD 0xEC JUMPDEST 0x5E MSIZE ORIGIN 0xB4 0x22 SDIV LOG3 MSIZE LOG0 DUP12 0x21 EXP 0xED 0xEE PUSH14 0xAC6145286AB5D08A69BA32A8E564 PUSH20 0x6F6C634300081200330000000000000000000000 "
				},
				"gasEstimates": {
					"creation": {
						"codeDepositCost": "483200",
						"executionCost": "518",
						"totalCost": "483718"
					},
					"external": {
						"car(uint256)": "infinite",
						"cars()": "infinite",
						"initCar1()": "infinite",
						"initCar2()": "infinite"
					}
				},
				"methodIdentifiers": {
					"car(uint256)": "91ebc320",
					"cars()": "9a7ffc57",
					"initCar1()": "1d2aec85",
					"initCar2()": "6f674521"
				}
			},
			"storageLayout": {
				"storage": [
					{
						"astId": 12,
						"contract": "contracts/07-8 dataLocation4.sol:Last",
						"label": "car",
						"offset": 0,
						"slot": "0",
						"type": "t_array(t_struct(CAR)8_storage)dyn_storage"
					},
					{
						"astId": 15,
						"contract": "contracts/07-8 dataLocation4.sol:Last",
						"label": "cars",
						"offset": 0,
						"slot": "1",
						"type": "t_struct(CAR)8_storage"
					}
				],
				"types": {
					"t_array(t_struct(CAR)8_storage)dyn_storage": {
						"base": "t_struct(CAR)8_storage",
						"encoding": "dynamic_array",
						"label": "struct Last.CAR[]",
						"numberOfBytes": "32"
					},
					"t_string_storage": {
						"encoding": "bytes",
						"label": "string",
						"numberOfBytes": "32"
					},
					"t_struct(CAR)8_storage": {
						"encoding": "inplace",
						"label": "struct Last.CAR",
						"members": [
							{
								"astId": 3,
								"contract": "contracts/07-8 dataLocation4.sol:Last",
								"label": "Make",
								"offset": 0,
								"slot": "0",
								"type": "t_string_storage"
							},
							{
								"astId": 5,
								"contract": "contracts/07-8 dataLocation4.sol:Last",
								"label": "Model",
								"offset": 0,
								"slot": "1",
								"type": "t_string_storage"
							},
							{
								"astId": 7,
								"contract": "contracts/07-8 dataLocation4.sol:Last",
								"label": "Variant",
								"offset": 0,
								"slot": "2",
								"type": "t_uint256"
							}
						],
						"numberOfBytes": "96"
					},
					"t_uint256": {
						"encoding": "inplace",
						"label": "uint256",
						"numberOfBytes": "32"
					}
				}
			},
			"userdoc": {
				"kind": "user",
				"methods": {},
				"version": 1
			}
		}
	}
}