{
	"contracts/11-8 Events8.sol": {
		"PersonContract": {
			"abi": [
				{
					"anonymous": false,
					"inputs": [
						{
							"components": [
								{
									"internalType": "string",
									"name": "name",
									"type": "string"
								},
								{
									"internalType": "uint256",
									"name": "age",
									"type": "uint256"
								},
								{
									"internalType": "string",
									"name": "department",
									"type": "string"
								},
								{
									"internalType": "uint256",
									"name": "Timestamp",
									"type": "uint256"
								},
								{
									"internalType": "uint256",
									"name": "blockNo",
									"type": "uint256"
								}
							],
							"indexed": false,
							"internalType": "struct PersonContract.PersonInfo",
							"name": "oldValue",
							"type": "tuple"
						},
						{
							"components": [
								{
									"internalType": "string",
									"name": "name",
									"type": "string"
								},
								{
									"internalType": "uint256",
									"name": "age",
									"type": "uint256"
								},
								{
									"internalType": "string",
									"name": "department",
									"type": "string"
								},
								{
									"internalType": "uint256",
									"name": "Timestamp",
									"type": "uint256"
								},
								{
									"internalType": "uint256",
									"name": "blockNo",
									"type": "uint256"
								}
							],
							"indexed": false,
							"internalType": "struct PersonContract.PersonInfo",
							"name": "newValue",
							"type": "tuple"
						},
						{
							"indexed": false,
							"internalType": "uint256",
							"name": "timestamp",
							"type": "uint256"
						},
						{
							"indexed": false,
							"internalType": "uint256",
							"name": "blockNumber",
							"type": "uint256"
						}
					],
					"name": "Update",
					"type": "event"
				},
				{
					"inputs": [],
					"name": "P1",
					"outputs": [
						{
							"internalType": "string",
							"name": "name",
							"type": "string"
						},
						{
							"internalType": "uint256",
							"name": "age",
							"type": "uint256"
						},
						{
							"internalType": "string",
							"name": "department",
							"type": "string"
						},
						{
							"internalType": "uint256",
							"name": "Timestamp",
							"type": "uint256"
						},
						{
							"internalType": "uint256",
							"name": "blockNo",
							"type": "uint256"
						}
					],
					"stateMutability": "view",
					"type": "function"
				},
				{
					"inputs": [
						{
							"internalType": "string",
							"name": "_name",
							"type": "string"
						},
						{
							"internalType": "uint256",
							"name": "_age",
							"type": "uint256"
						},
						{
							"internalType": "string",
							"name": "_department",
							"type": "string"
						}
					],
					"name": "setPersonInfo",
					"outputs": [],
					"stateMutability": "nonpayable",
					"type": "function"
				}
			],
			"devdoc": {
				"kind": "dev",
				"methods": {},
				"version": 1
			},
			"evm": {
				"assembly": "    /* \"contracts/11-8 Events8.sol\":63:617  contract PersonContract { ... */\n  mstore(0x40, 0x80)\n  callvalue\n  dup1\n  iszero\n  tag_1\n  jumpi\n  0x00\n  dup1\n  revert\ntag_1:\n  pop\n  dataSize(sub_0)\n  dup1\n  dataOffset(sub_0)\n  0x00\n  codecopy\n  0x00\n  return\nstop\n\nsub_0: assembly {\n        /* \"contracts/11-8 Events8.sol\":63:617  contract PersonContract { ... */\n      mstore(0x40, 0x80)\n      callvalue\n      dup1\n      iszero\n      tag_1\n      jumpi\n      0x00\n      dup1\n      revert\n    tag_1:\n      pop\n      jumpi(tag_2, lt(calldatasize, 0x04))\n      shr(0xe0, calldataload(0x00))\n      dup1\n      0x1de21b76\n      eq\n      tag_3\n      jumpi\n      dup1\n      0xa665fc76\n      eq\n      tag_4\n      jumpi\n    tag_2:\n      0x00\n      dup1\n      revert\n        /* \"contracts/11-8 Events8.sol\":223:243  PersonInfo public P1 */\n    tag_3:\n      tag_5\n      tag_6\n      jump\t// in\n    tag_5:\n      mload(0x40)\n      tag_7\n      swap6\n      swap5\n      swap4\n      swap3\n      swap2\n      swap1\n      tag_8\n      jump\t// in\n    tag_7:\n      mload(0x40)\n      dup1\n      swap2\n      sub\n      swap1\n      return\n        /* \"contracts/11-8 Events8.sol\":347:613  function setPersonInfo(string memory _name,uint _age,string memory _department) public { ... */\n    tag_4:\n      tag_9\n      0x04\n      dup1\n      calldatasize\n      sub\n      dup2\n      add\n      swap1\n      tag_10\n      swap2\n      swap1\n      tag_11\n      jump\t// in\n    tag_10:\n      tag_12\n      jump\t// in\n    tag_9:\n      stop\n        /* \"contracts/11-8 Events8.sol\":223:243  PersonInfo public P1 */\n    tag_6:\n      0x00\n      dup1\n      0x00\n      add\n      dup1\n      sload\n      tag_13\n      swap1\n      tag_14\n      jump\t// in\n    tag_13:\n      dup1\n      0x1f\n      add\n      0x20\n      dup1\n      swap2\n      div\n      mul\n      0x20\n      add\n      mload(0x40)\n      swap1\n      dup2\n      add\n      0x40\n      mstore\n      dup1\n      swap3\n      swap2\n      swap1\n      dup2\n      dup2\n      mstore\n      0x20\n      add\n      dup3\n      dup1\n      sload\n      tag_15\n      swap1\n      tag_14\n      jump\t// in\n    tag_15:\n      dup1\n      iszero\n      tag_16\n      jumpi\n      dup1\n      0x1f\n      lt\n      tag_17\n      jumpi\n      0x0100\n      dup1\n      dup4\n      sload\n      div\n      mul\n      dup4\n      mstore\n      swap2\n      0x20\n      add\n      swap2\n      jump(tag_16)\n    tag_17:\n      dup3\n      add\n      swap2\n      swap1\n      0x00\n      mstore\n      keccak256(0x00, 0x20)\n      swap1\n    tag_18:\n      dup2\n      sload\n      dup2\n      mstore\n      swap1\n      0x01\n      add\n      swap1\n      0x20\n      add\n      dup1\n      dup4\n      gt\n      tag_18\n      jumpi\n      dup3\n      swap1\n      sub\n      0x1f\n      and\n      dup3\n      add\n      swap2\n    tag_16:\n      pop\n      pop\n      pop\n      pop\n      pop\n      swap1\n      dup1\n      0x01\n      add\n      sload\n      swap1\n      dup1\n      0x02\n      add\n      dup1\n      sload\n      tag_19\n      swap1\n      tag_14\n      jump\t// in\n    tag_19:\n      dup1\n      0x1f\n      add\n      0x20\n      dup1\n      swap2\n      div\n      mul\n      0x20\n      add\n      mload(0x40)\n      swap1\n      dup2\n      add\n      0x40\n      mstore\n      dup1\n      swap3\n      swap2\n      swap1\n      dup2\n      dup2\n      mstore\n      0x20\n      add\n      dup3\n      dup1\n      sload\n      tag_20\n      swap1\n      tag_14\n      jump\t// in\n    tag_20:\n      dup1\n      iszero\n      tag_21\n      jumpi\n      dup1\n      0x1f\n      lt\n      tag_22\n      jumpi\n      0x0100\n      dup1\n      dup4\n      sload\n      div\n      mul\n      dup4\n      mstore\n      swap2\n      0x20\n      add\n      swap2\n      jump(tag_21)\n    tag_22:\n      dup3\n      add\n      swap2\n      swap1\n      0x00\n      mstore\n      keccak256(0x00, 0x20)\n      swap1\n    tag_23:\n      dup2\n      sload\n      dup2\n      mstore\n      swap1\n      0x01\n      add\n      swap1\n      0x20\n      add\n      dup1\n      dup4\n      gt\n      tag_23\n      jumpi\n      dup3\n      swap1\n      sub\n      0x1f\n      and\n      dup3\n      add\n      swap2\n    tag_21:\n      pop\n      pop\n      pop\n      pop\n      pop\n      swap1\n      dup1\n      0x03\n      add\n      sload\n      swap1\n      dup1\n      0x04\n      add\n      sload\n      swap1\n      pop\n      dup6\n      jump\t// out\n        /* \"contracts/11-8 Events8.sol\":347:613  function setPersonInfo(string memory _name,uint _age,string memory _department) public { ... */\n    tag_12:\n        /* \"contracts/11-8 Events8.sol\":442:468  PersonInfo memory oldValue */\n      0x00\n        /* \"contracts/11-8 Events8.sol\":471:473  P1 */\n      dup1\n        /* \"contracts/11-8 Events8.sol\":442:473  PersonInfo memory oldValue = P1 */\n      mload(0x40)\n      dup1\n      0xa0\n      add\n      0x40\n      mstore\n      swap1\n      dup2\n      0x00\n      dup3\n      add\n      dup1\n      sload\n      tag_25\n      swap1\n      tag_14\n      jump\t// in\n    tag_25:\n      dup1\n      0x1f\n      add\n      0x20\n      dup1\n      swap2\n      div\n      mul\n      0x20\n      add\n      mload(0x40)\n      swap1\n      dup2\n      add\n      0x40\n      mstore\n      dup1\n      swap3\n      swap2\n      swap1\n      dup2\n      dup2\n      mstore\n      0x20\n      add\n      dup3\n      dup1\n      sload\n      tag_26\n      swap1\n      tag_14\n      jump\t// in\n    tag_26:\n      dup1\n      iszero\n      tag_27\n      jumpi\n      dup1\n      0x1f\n      lt\n      tag_28\n      jumpi\n      0x0100\n      dup1\n      dup4\n      sload\n      div\n      mul\n      dup4\n      mstore\n      swap2\n      0x20\n      add\n      swap2\n      jump(tag_27)\n    tag_28:\n      dup3\n      add\n      swap2\n      swap1\n      0x00\n      mstore\n      keccak256(0x00, 0x20)\n      swap1\n    tag_29:\n      dup2\n      sload\n      dup2\n      mstore\n      swap1\n      0x01\n      add\n      swap1\n      0x20\n      add\n      dup1\n      dup4\n      gt\n      tag_29\n      jumpi\n      dup3\n      swap1\n      sub\n      0x1f\n      and\n      dup3\n      add\n      swap2\n    tag_27:\n      pop\n      pop\n      pop\n      pop\n      pop\n      dup2\n      mstore\n      0x20\n      add\n      0x01\n      dup3\n      add\n      sload\n      dup2\n      mstore\n      0x20\n      add\n      0x02\n      dup3\n      add\n      dup1\n      sload\n      tag_30\n      swap1\n      tag_14\n      jump\t// in\n    tag_30:\n      dup1\n      0x1f\n      add\n      0x20\n      dup1\n      swap2\n      div\n      mul\n      0x20\n      add\n      mload(0x40)\n      swap1\n      dup2\n      add\n      0x40\n      mstore\n      dup1\n      swap3\n      swap2\n      swap1\n      dup2\n      dup2\n      mstore\n      0x20\n      add\n      dup3\n      dup1\n      sload\n      tag_31\n      swap1\n      tag_14\n      jump\t// in\n    tag_31:\n      dup1\n      iszero\n      tag_32\n      jumpi\n      dup1\n      0x1f\n      lt\n      tag_33\n      jumpi\n      0x0100\n      dup1\n      dup4\n      sload\n      div\n      mul\n      dup4\n      mstore\n      swap2\n      0x20\n      add\n      swap2\n      jump(tag_32)\n    tag_33:\n      dup3\n      add\n      swap2\n      swap1\n      0x00\n      mstore\n      keccak256(0x00, 0x20)\n      swap1\n    tag_34:\n      dup2\n      sload\n      dup2\n      mstore\n      swap1\n      0x01\n      add\n      swap1\n      0x20\n      add\n      dup1\n      dup4\n      gt\n      tag_34\n      jumpi\n      dup3\n      swap1\n      sub\n      0x1f\n      and\n      dup3\n      add\n      swap2\n    tag_32:\n      pop\n      pop\n      pop\n      pop\n      pop\n      dup2\n      mstore\n      0x20\n      add\n      0x03\n      dup3\n      add\n      sload\n      dup2\n      mstore\n      0x20\n      add\n      0x04\n      dup3\n      add\n      sload\n      dup2\n      mstore\n      pop\n      pop\n      swap1\n      pop\n        /* \"contracts/11-8 Events8.sol\":484:547  PersonInfo(_name,_age,_department,block.timestamp,block.number) */\n      mload(0x40)\n      dup1\n      0xa0\n      add\n      0x40\n      mstore\n      dup1\n        /* \"contracts/11-8 Events8.sol\":495:500  _name */\n      dup6\n        /* \"contracts/11-8 Events8.sol\":484:547  PersonInfo(_name,_age,_department,block.timestamp,block.number) */\n      dup2\n      mstore\n      0x20\n      add\n        /* \"contracts/11-8 Events8.sol\":501:505  _age */\n      dup5\n        /* \"contracts/11-8 Events8.sol\":484:547  PersonInfo(_name,_age,_department,block.timestamp,block.number) */\n      dup2\n      mstore\n      0x20\n      add\n        /* \"contracts/11-8 Events8.sol\":506:517  _department */\n      dup4\n        /* \"contracts/11-8 Events8.sol\":484:547  PersonInfo(_name,_age,_department,block.timestamp,block.number) */\n      dup2\n      mstore\n      0x20\n      add\n        /* \"contracts/11-8 Events8.sol\":518:533  block.timestamp */\n      timestamp\n        /* \"contracts/11-8 Events8.sol\":484:547  PersonInfo(_name,_age,_department,block.timestamp,block.number) */\n      dup2\n      mstore\n      0x20\n      add\n        /* \"contracts/11-8 Events8.sol\":534:546  block.number */\n      number\n        /* \"contracts/11-8 Events8.sol\":484:547  PersonInfo(_name,_age,_department,block.timestamp,block.number) */\n      dup2\n      mstore\n      pop\n        /* \"contracts/11-8 Events8.sol\":481:483  P1 */\n      0x00\n        /* \"contracts/11-8 Events8.sol\":481:547  P1=PersonInfo(_name,_age,_department,block.timestamp,block.number) */\n      dup1\n      dup3\n      add\n      mload\n      dup2\n      0x00\n      add\n      swap1\n      dup2\n      tag_35\n      swap2\n      swap1\n      tag_36\n      jump\t// in\n    tag_35:\n      pop\n      0x20\n      dup3\n      add\n      mload\n      dup2\n      0x01\n      add\n      sstore\n      0x40\n      dup3\n      add\n      mload\n      dup2\n      0x02\n      add\n      swap1\n      dup2\n      tag_37\n      swap2\n      swap1\n      tag_36\n      jump\t// in\n    tag_37:\n      pop\n      0x60\n      dup3\n      add\n      mload\n      dup2\n      0x03\n      add\n      sstore\n      0x80\n      dup3\n      add\n      mload\n      dup2\n      0x04\n      add\n      sstore\n      swap1\n      pop\n      pop\n        /* \"contracts/11-8 Events8.sol\":559:610  Update(oldValue, P1, block.timestamp, block.number) */\n      0x4a1cbfa04eace479eb13d28f6867709d037921777d59df22460479084ac9216e\n        /* \"contracts/11-8 Events8.sol\":566:574  oldValue */\n      dup2\n        /* \"contracts/11-8 Events8.sol\":576:578  P1 */\n      0x00\n        /* \"contracts/11-8 Events8.sol\":580:595  block.timestamp */\n      timestamp\n        /* \"contracts/11-8 Events8.sol\":597:609  block.number */\n      number\n        /* \"contracts/11-8 Events8.sol\":559:610  Update(oldValue, P1, block.timestamp, block.number) */\n      mload(0x40)\n      tag_38\n      swap5\n      swap4\n      swap3\n      swap2\n      swap1\n      tag_39\n      jump\t// in\n    tag_38:\n      mload(0x40)\n      dup1\n      swap2\n      sub\n      swap1\n      log1\n        /* \"contracts/11-8 Events8.sol\":434:613  { ... */\n      pop\n        /* \"contracts/11-8 Events8.sol\":347:613  function setPersonInfo(string memory _name,uint _age,string memory _department) public { ... */\n      pop\n      pop\n      pop\n      jump\t// out\n        /* \"#utility.yul\":7:106   */\n    tag_40:\n        /* \"#utility.yul\":59:65   */\n      0x00\n        /* \"#utility.yul\":93:98   */\n      dup2\n        /* \"#utility.yul\":87:99   */\n      mload\n        /* \"#utility.yul\":77:99   */\n      swap1\n      pop\n        /* \"#utility.yul\":7:106   */\n      swap2\n      swap1\n      pop\n      jump\t// out\n        /* \"#utility.yul\":112:281   */\n    tag_41:\n        /* \"#utility.yul\":196:207   */\n      0x00\n        /* \"#utility.yul\":230:236   */\n      dup3\n        /* \"#utility.yul\":225:228   */\n      dup3\n        /* \"#utility.yul\":218:237   */\n      mstore\n        /* \"#utility.yul\":270:274   */\n      0x20\n        /* \"#utility.yul\":265:268   */\n      dup3\n        /* \"#utility.yul\":261:275   */\n      add\n        /* \"#utility.yul\":246:275   */\n      swap1\n      pop\n        /* \"#utility.yul\":112:281   */\n      swap3\n      swap2\n      pop\n      pop\n      jump\t// out\n        /* \"#utility.yul\":287:533   */\n    tag_42:\n        /* \"#utility.yul\":368:369   */\n      0x00\n        /* \"#utility.yul\":378:491   */\n    tag_90:\n        /* \"#utility.yul\":392:398   */\n      dup4\n        /* \"#utility.yul\":389:390   */\n      dup2\n        /* \"#utility.yul\":386:399   */\n      lt\n        /* \"#utility.yul\":378:491   */\n      iszero\n      tag_92\n      jumpi\n        /* \"#utility.yul\":477:478   */\n      dup1\n        /* \"#utility.yul\":472:475   */\n      dup3\n        /* \"#utility.yul\":468:479   */\n      add\n        /* \"#utility.yul\":462:480   */\n      mload\n        /* \"#utility.yul\":458:459   */\n      dup2\n        /* \"#utility.yul\":453:456   */\n      dup5\n        /* \"#utility.yul\":449:460   */\n      add\n        /* \"#utility.yul\":442:481   */\n      mstore\n        /* \"#utility.yul\":414:416   */\n      0x20\n        /* \"#utility.yul\":411:412   */\n      dup2\n        /* \"#utility.yul\":407:417   */\n      add\n        /* \"#utility.yul\":402:417   */\n      swap1\n      pop\n        /* \"#utility.yul\":378:491   */\n      jump(tag_90)\n    tag_92:\n        /* \"#utility.yul\":525:526   */\n      0x00\n        /* \"#utility.yul\":516:522   */\n      dup5\n        /* \"#utility.yul\":511:514   */\n      dup5\n        /* \"#utility.yul\":507:523   */\n      add\n        /* \"#utility.yul\":500:527   */\n      mstore\n        /* \"#utility.yul\":349:533   */\n      pop\n        /* \"#utility.yul\":287:533   */\n      pop\n      pop\n      pop\n      jump\t// out\n        /* \"#utility.yul\":539:641   */\n    tag_43:\n        /* \"#utility.yul\":580:586   */\n      0x00\n        /* \"#utility.yul\":631:633   */\n      0x1f\n        /* \"#utility.yul\":627:634   */\n      not\n        /* \"#utility.yul\":622:624   */\n      0x1f\n        /* \"#utility.yul\":615:620   */\n      dup4\n        /* \"#utility.yul\":611:625   */\n      add\n        /* \"#utility.yul\":607:635   */\n      and\n        /* \"#utility.yul\":597:635   */\n      swap1\n      pop\n        /* \"#utility.yul\":539:641   */\n      swap2\n      swap1\n      pop\n      jump\t// out\n        /* \"#utility.yul\":647:1024   */\n    tag_44:\n        /* \"#utility.yul\":735:738   */\n      0x00\n        /* \"#utility.yul\":763:802   */\n      tag_95\n        /* \"#utility.yul\":796:801   */\n      dup3\n        /* \"#utility.yul\":763:802   */\n      tag_40\n      jump\t// in\n    tag_95:\n        /* \"#utility.yul\":818:889   */\n      tag_96\n        /* \"#utility.yul\":882:888   */\n      dup2\n        /* \"#utility.yul\":877:880   */\n      dup6\n        /* \"#utility.yul\":818:889   */\n      tag_41\n      jump\t// in\n    tag_96:\n        /* \"#utility.yul\":811:889   */\n      swap4\n      pop\n        /* \"#utility.yul\":898:963   */\n      tag_97\n        /* \"#utility.yul\":956:962   */\n      dup2\n        /* \"#utility.yul\":951:954   */\n      dup6\n        /* \"#utility.yul\":944:948   */\n      0x20\n        /* \"#utility.yul\":937:942   */\n      dup7\n        /* \"#utility.yul\":933:949   */\n      add\n        /* \"#utility.yul\":898:963   */\n      tag_42\n      jump\t// in\n    tag_97:\n        /* \"#utility.yul\":988:1017   */\n      tag_98\n        /* \"#utility.yul\":1010:1016   */\n      dup2\n        /* \"#utility.yul\":988:1017   */\n      tag_43\n      jump\t// in\n    tag_98:\n        /* \"#utility.yul\":983:986   */\n      dup5\n        /* \"#utility.yul\":979:1018   */\n      add\n        /* \"#utility.yul\":972:1018   */\n      swap2\n      pop\n        /* \"#utility.yul\":739:1024   */\n      pop\n        /* \"#utility.yul\":647:1024   */\n      swap3\n      swap2\n      pop\n      pop\n      jump\t// out\n        /* \"#utility.yul\":1030:1107   */\n    tag_45:\n        /* \"#utility.yul\":1067:1074   */\n      0x00\n        /* \"#utility.yul\":1096:1101   */\n      dup2\n        /* \"#utility.yul\":1085:1101   */\n      swap1\n      pop\n        /* \"#utility.yul\":1030:1107   */\n      swap2\n      swap1\n      pop\n      jump\t// out\n        /* \"#utility.yul\":1113:1231   */\n    tag_46:\n        /* \"#utility.yul\":1200:1224   */\n      tag_101\n        /* \"#utility.yul\":1218:1223   */\n      dup2\n        /* \"#utility.yul\":1200:1224   */\n      tag_45\n      jump\t// in\n    tag_101:\n        /* \"#utility.yul\":1195:1198   */\n      dup3\n        /* \"#utility.yul\":1188:1225   */\n      mstore\n        /* \"#utility.yul\":1113:1231   */\n      pop\n      pop\n      jump\t// out\n        /* \"#utility.yul\":1237:2083   */\n    tag_8:\n        /* \"#utility.yul\":1482:1486   */\n      0x00\n        /* \"#utility.yul\":1520:1523   */\n      0xa0\n        /* \"#utility.yul\":1509:1518   */\n      dup3\n        /* \"#utility.yul\":1505:1524   */\n      add\n        /* \"#utility.yul\":1497:1524   */\n      swap1\n      pop\n        /* \"#utility.yul\":1570:1579   */\n      dup2\n        /* \"#utility.yul\":1564:1568   */\n      dup2\n        /* \"#utility.yul\":1560:1580   */\n      sub\n        /* \"#utility.yul\":1556:1557   */\n      0x00\n        /* \"#utility.yul\":1545:1554   */\n      dup4\n        /* \"#utility.yul\":1541:1558   */\n      add\n        /* \"#utility.yul\":1534:1581   */\n      mstore\n        /* \"#utility.yul\":1598:1676   */\n      tag_103\n        /* \"#utility.yul\":1671:1675   */\n      dup2\n        /* \"#utility.yul\":1662:1668   */\n      dup9\n        /* \"#utility.yul\":1598:1676   */\n      tag_44\n      jump\t// in\n    tag_103:\n        /* \"#utility.yul\":1590:1676   */\n      swap1\n      pop\n        /* \"#utility.yul\":1686:1758   */\n      tag_104\n        /* \"#utility.yul\":1754:1756   */\n      0x20\n        /* \"#utility.yul\":1743:1752   */\n      dup4\n        /* \"#utility.yul\":1739:1757   */\n      add\n        /* \"#utility.yul\":1730:1736   */\n      dup8\n        /* \"#utility.yul\":1686:1758   */\n      tag_46\n      jump\t// in\n    tag_104:\n        /* \"#utility.yul\":1805:1814   */\n      dup2\n        /* \"#utility.yul\":1799:1803   */\n      dup2\n        /* \"#utility.yul\":1795:1815   */\n      sub\n        /* \"#utility.yul\":1790:1792   */\n      0x40\n        /* \"#utility.yul\":1779:1788   */\n      dup4\n        /* \"#utility.yul\":1775:1793   */\n      add\n        /* \"#utility.yul\":1768:1816   */\n      mstore\n        /* \"#utility.yul\":1833:1911   */\n      tag_105\n        /* \"#utility.yul\":1906:1910   */\n      dup2\n        /* \"#utility.yul\":1897:1903   */\n      dup7\n        /* \"#utility.yul\":1833:1911   */\n      tag_44\n      jump\t// in\n    tag_105:\n        /* \"#utility.yul\":1825:1911   */\n      swap1\n      pop\n        /* \"#utility.yul\":1921:1993   */\n      tag_106\n        /* \"#utility.yul\":1989:1991   */\n      0x60\n        /* \"#utility.yul\":1978:1987   */\n      dup4\n        /* \"#utility.yul\":1974:1992   */\n      add\n        /* \"#utility.yul\":1965:1971   */\n      dup6\n        /* \"#utility.yul\":1921:1993   */\n      tag_46\n      jump\t// in\n    tag_106:\n        /* \"#utility.yul\":2003:2076   */\n      tag_107\n        /* \"#utility.yul\":2071:2074   */\n      0x80\n        /* \"#utility.yul\":2060:2069   */\n      dup4\n        /* \"#utility.yul\":2056:2075   */\n      add\n        /* \"#utility.yul\":2047:2053   */\n      dup5\n        /* \"#utility.yul\":2003:2076   */\n      tag_46\n      jump\t// in\n    tag_107:\n        /* \"#utility.yul\":1237:2083   */\n      swap7\n      swap6\n      pop\n      pop\n      pop\n      pop\n      pop\n      pop\n      jump\t// out\n        /* \"#utility.yul\":2089:2164   */\n    tag_47:\n        /* \"#utility.yul\":2122:2128   */\n      0x00\n        /* \"#utility.yul\":2155:2157   */\n      0x40\n        /* \"#utility.yul\":2149:2158   */\n      mload\n        /* \"#utility.yul\":2139:2158   */\n      swap1\n      pop\n        /* \"#utility.yul\":2089:2164   */\n      swap1\n      jump\t// out\n        /* \"#utility.yul\":2170:2287   */\n    tag_48:\n        /* \"#utility.yul\":2279:2280   */\n      0x00\n        /* \"#utility.yul\":2276:2277   */\n      dup1\n        /* \"#utility.yul\":2269:2281   */\n      revert\n        /* \"#utility.yul\":2293:2410   */\n    tag_49:\n        /* \"#utility.yul\":2402:2403   */\n      0x00\n        /* \"#utility.yul\":2399:2400   */\n      dup1\n        /* \"#utility.yul\":2392:2404   */\n      revert\n        /* \"#utility.yul\":2416:2533   */\n    tag_50:\n        /* \"#utility.yul\":2525:2526   */\n      0x00\n        /* \"#utility.yul\":2522:2523   */\n      dup1\n        /* \"#utility.yul\":2515:2527   */\n      revert\n        /* \"#utility.yul\":2539:2656   */\n    tag_51:\n        /* \"#utility.yul\":2648:2649   */\n      0x00\n        /* \"#utility.yul\":2645:2646   */\n      dup1\n        /* \"#utility.yul\":2638:2650   */\n      revert\n        /* \"#utility.yul\":2662:2842   */\n    tag_52:\n        /* \"#utility.yul\":2710:2787   */\n      0x4e487b7100000000000000000000000000000000000000000000000000000000\n        /* \"#utility.yul\":2707:2708   */\n      0x00\n        /* \"#utility.yul\":2700:2788   */\n      mstore\n        /* \"#utility.yul\":2807:2811   */\n      0x41\n        /* \"#utility.yul\":2804:2805   */\n      0x04\n        /* \"#utility.yul\":2797:2812   */\n      mstore\n        /* \"#utility.yul\":2831:2835   */\n      0x24\n        /* \"#utility.yul\":2828:2829   */\n      0x00\n        /* \"#utility.yul\":2821:2836   */\n      revert\n        /* \"#utility.yul\":2848:3129   */\n    tag_53:\n        /* \"#utility.yul\":2931:2958   */\n      tag_115\n        /* \"#utility.yul\":2953:2957   */\n      dup3\n        /* \"#utility.yul\":2931:2958   */\n      tag_43\n      jump\t// in\n    tag_115:\n        /* \"#utility.yul\":2923:2929   */\n      dup2\n        /* \"#utility.yul\":2919:2959   */\n      add\n        /* \"#utility.yul\":3061:3067   */\n      dup2\n        /* \"#utility.yul\":3049:3059   */\n      dup2\n        /* \"#utility.yul\":3046:3068   */\n      lt\n        /* \"#utility.yul\":3025:3043   */\n      0xffffffffffffffff\n        /* \"#utility.yul\":3013:3023   */\n      dup3\n        /* \"#utility.yul\":3010:3044   */\n      gt\n        /* \"#utility.yul\":3007:3069   */\n      or\n        /* \"#utility.yul\":3004:3092   */\n      iszero\n      tag_116\n      jumpi\n        /* \"#utility.yul\":3072:3090   */\n      tag_117\n      tag_52\n      jump\t// in\n    tag_117:\n        /* \"#utility.yul\":3004:3092   */\n    tag_116:\n        /* \"#utility.yul\":3112:3122   */\n      dup1\n        /* \"#utility.yul\":3108:3110   */\n      0x40\n        /* \"#utility.yul\":3101:3123   */\n      mstore\n        /* \"#utility.yul\":2891:3129   */\n      pop\n        /* \"#utility.yul\":2848:3129   */\n      pop\n      pop\n      jump\t// out\n        /* \"#utility.yul\":3135:3264   */\n    tag_54:\n        /* \"#utility.yul\":3169:3175   */\n      0x00\n        /* \"#utility.yul\":3196:3216   */\n      tag_119\n      tag_47\n      jump\t// in\n    tag_119:\n        /* \"#utility.yul\":3186:3216   */\n      swap1\n      pop\n        /* \"#utility.yul\":3225:3258   */\n      tag_120\n        /* \"#utility.yul\":3253:3257   */\n      dup3\n        /* \"#utility.yul\":3245:3251   */\n      dup3\n        /* \"#utility.yul\":3225:3258   */\n      tag_53\n      jump\t// in\n    tag_120:\n        /* \"#utility.yul\":3135:3264   */\n      swap2\n      swap1\n      pop\n      jump\t// out\n        /* \"#utility.yul\":3270:3578   */\n    tag_55:\n        /* \"#utility.yul\":3332:3336   */\n      0x00\n        /* \"#utility.yul\":3422:3440   */\n      0xffffffffffffffff\n        /* \"#utility.yul\":3414:3420   */\n      dup3\n        /* \"#utility.yul\":3411:3441   */\n      gt\n        /* \"#utility.yul\":3408:3464   */\n      iszero\n      tag_122\n      jumpi\n        /* \"#utility.yul\":3444:3462   */\n      tag_123\n      tag_52\n      jump\t// in\n    tag_123:\n        /* \"#utility.yul\":3408:3464   */\n    tag_122:\n        /* \"#utility.yul\":3482:3511   */\n      tag_124\n        /* \"#utility.yul\":3504:3510   */\n      dup3\n        /* \"#utility.yul\":3482:3511   */\n      tag_43\n      jump\t// in\n    tag_124:\n        /* \"#utility.yul\":3474:3511   */\n      swap1\n      pop\n        /* \"#utility.yul\":3566:3570   */\n      0x20\n        /* \"#utility.yul\":3560:3564   */\n      dup2\n        /* \"#utility.yul\":3556:3571   */\n      add\n        /* \"#utility.yul\":3548:3571   */\n      swap1\n      pop\n        /* \"#utility.yul\":3270:3578   */\n      swap2\n      swap1\n      pop\n      jump\t// out\n        /* \"#utility.yul\":3584:3730   */\n    tag_56:\n        /* \"#utility.yul\":3681:3687   */\n      dup3\n        /* \"#utility.yul\":3676:3679   */\n      dup2\n        /* \"#utility.yul\":3671:3674   */\n      dup4\n        /* \"#utility.yul\":3658:3688   */\n      calldatacopy\n        /* \"#utility.yul\":3722:3723   */\n      0x00\n        /* \"#utility.yul\":3713:3719   */\n      dup4\n        /* \"#utility.yul\":3708:3711   */\n      dup4\n        /* \"#utility.yul\":3704:3720   */\n      add\n        /* \"#utility.yul\":3697:3724   */\n      mstore\n        /* \"#utility.yul\":3584:3730   */\n      pop\n      pop\n      pop\n      jump\t// out\n        /* \"#utility.yul\":3736:4161   */\n    tag_57:\n        /* \"#utility.yul\":3814:3819   */\n      0x00\n        /* \"#utility.yul\":3839:3905   */\n      tag_127\n        /* \"#utility.yul\":3855:3904   */\n      tag_128\n        /* \"#utility.yul\":3897:3903   */\n      dup5\n        /* \"#utility.yul\":3855:3904   */\n      tag_55\n      jump\t// in\n    tag_128:\n        /* \"#utility.yul\":3839:3905   */\n      tag_54\n      jump\t// in\n    tag_127:\n        /* \"#utility.yul\":3830:3905   */\n      swap1\n      pop\n        /* \"#utility.yul\":3928:3934   */\n      dup3\n        /* \"#utility.yul\":3921:3926   */\n      dup2\n        /* \"#utility.yul\":3914:3935   */\n      mstore\n        /* \"#utility.yul\":3966:3970   */\n      0x20\n        /* \"#utility.yul\":3959:3964   */\n      dup2\n        /* \"#utility.yul\":3955:3971   */\n      add\n        /* \"#utility.yul\":4004:4007   */\n      dup5\n        /* \"#utility.yul\":3995:4001   */\n      dup5\n        /* \"#utility.yul\":3990:3993   */\n      dup5\n        /* \"#utility.yul\":3986:4002   */\n      add\n        /* \"#utility.yul\":3983:4008   */\n      gt\n        /* \"#utility.yul\":3980:4092   */\n      iszero\n      tag_129\n      jumpi\n        /* \"#utility.yul\":4011:4090   */\n      tag_130\n      tag_51\n      jump\t// in\n    tag_130:\n        /* \"#utility.yul\":3980:4092   */\n    tag_129:\n        /* \"#utility.yul\":4101:4155   */\n      tag_131\n        /* \"#utility.yul\":4148:4154   */\n      dup5\n        /* \"#utility.yul\":4143:4146   */\n      dup3\n        /* \"#utility.yul\":4138:4141   */\n      dup6\n        /* \"#utility.yul\":4101:4155   */\n      tag_56\n      jump\t// in\n    tag_131:\n        /* \"#utility.yul\":3820:4161   */\n      pop\n        /* \"#utility.yul\":3736:4161   */\n      swap4\n      swap3\n      pop\n      pop\n      pop\n      jump\t// out\n        /* \"#utility.yul\":4181:4521   */\n    tag_58:\n        /* \"#utility.yul\":4237:4242   */\n      0x00\n        /* \"#utility.yul\":4286:4289   */\n      dup3\n        /* \"#utility.yul\":4279:4283   */\n      0x1f\n        /* \"#utility.yul\":4271:4277   */\n      dup4\n        /* \"#utility.yul\":4267:4284   */\n      add\n        /* \"#utility.yul\":4263:4290   */\n      slt\n        /* \"#utility.yul\":4253:4375   */\n      tag_133\n      jumpi\n        /* \"#utility.yul\":4294:4373   */\n      tag_134\n      tag_50\n      jump\t// in\n    tag_134:\n        /* \"#utility.yul\":4253:4375   */\n    tag_133:\n        /* \"#utility.yul\":4411:4417   */\n      dup2\n        /* \"#utility.yul\":4398:4418   */\n      calldataload\n        /* \"#utility.yul\":4436:4515   */\n      tag_135\n        /* \"#utility.yul\":4511:4514   */\n      dup5\n        /* \"#utility.yul\":4503:4509   */\n      dup3\n        /* \"#utility.yul\":4496:4500   */\n      0x20\n        /* \"#utility.yul\":4488:4494   */\n      dup7\n        /* \"#utility.yul\":4484:4501   */\n      add\n        /* \"#utility.yul\":4436:4515   */\n      tag_57\n      jump\t// in\n    tag_135:\n        /* \"#utility.yul\":4427:4515   */\n      swap2\n      pop\n        /* \"#utility.yul\":4243:4521   */\n      pop\n        /* \"#utility.yul\":4181:4521   */\n      swap3\n      swap2\n      pop\n      pop\n      jump\t// out\n        /* \"#utility.yul\":4527:4649   */\n    tag_59:\n        /* \"#utility.yul\":4600:4624   */\n      tag_137\n        /* \"#utility.yul\":4618:4623   */\n      dup2\n        /* \"#utility.yul\":4600:4624   */\n      tag_45\n      jump\t// in\n    tag_137:\n        /* \"#utility.yul\":4593:4598   */\n      dup2\n        /* \"#utility.yul\":4590:4625   */\n      eq\n        /* \"#utility.yul\":4580:4643   */\n      tag_138\n      jumpi\n        /* \"#utility.yul\":4639:4640   */\n      0x00\n        /* \"#utility.yul\":4636:4637   */\n      dup1\n        /* \"#utility.yul\":4629:4641   */\n      revert\n        /* \"#utility.yul\":4580:4643   */\n    tag_138:\n        /* \"#utility.yul\":4527:4649   */\n      pop\n      jump\t// out\n        /* \"#utility.yul\":4655:4794   */\n    tag_60:\n        /* \"#utility.yul\":4701:4706   */\n      0x00\n        /* \"#utility.yul\":4739:4745   */\n      dup2\n        /* \"#utility.yul\":4726:4746   */\n      calldataload\n        /* \"#utility.yul\":4717:4746   */\n      swap1\n      pop\n        /* \"#utility.yul\":4755:4788   */\n      tag_140\n        /* \"#utility.yul\":4782:4787   */\n      dup2\n        /* \"#utility.yul\":4755:4788   */\n      tag_59\n      jump\t// in\n    tag_140:\n        /* \"#utility.yul\":4655:4794   */\n      swap3\n      swap2\n      pop\n      pop\n      jump\t// out\n        /* \"#utility.yul\":4800:5779   */\n    tag_11:\n        /* \"#utility.yul\":4897:4903   */\n      0x00\n        /* \"#utility.yul\":4905:4911   */\n      dup1\n        /* \"#utility.yul\":4913:4919   */\n      0x00\n        /* \"#utility.yul\":4962:4964   */\n      0x60\n        /* \"#utility.yul\":4950:4959   */\n      dup5\n        /* \"#utility.yul\":4941:4948   */\n      dup7\n        /* \"#utility.yul\":4937:4960   */\n      sub\n        /* \"#utility.yul\":4933:4965   */\n      slt\n        /* \"#utility.yul\":4930:5049   */\n      iszero\n      tag_142\n      jumpi\n        /* \"#utility.yul\":4968:5047   */\n      tag_143\n      tag_48\n      jump\t// in\n    tag_143:\n        /* \"#utility.yul\":4930:5049   */\n    tag_142:\n        /* \"#utility.yul\":5116:5117   */\n      0x00\n        /* \"#utility.yul\":5105:5114   */\n      dup5\n        /* \"#utility.yul\":5101:5118   */\n      add\n        /* \"#utility.yul\":5088:5119   */\n      calldataload\n        /* \"#utility.yul\":5146:5164   */\n      0xffffffffffffffff\n        /* \"#utility.yul\":5138:5144   */\n      dup2\n        /* \"#utility.yul\":5135:5165   */\n      gt\n        /* \"#utility.yul\":5132:5249   */\n      iszero\n      tag_144\n      jumpi\n        /* \"#utility.yul\":5168:5247   */\n      tag_145\n      tag_49\n      jump\t// in\n    tag_145:\n        /* \"#utility.yul\":5132:5249   */\n    tag_144:\n        /* \"#utility.yul\":5273:5336   */\n      tag_146\n        /* \"#utility.yul\":5328:5335   */\n      dup7\n        /* \"#utility.yul\":5319:5325   */\n      dup3\n        /* \"#utility.yul\":5308:5317   */\n      dup8\n        /* \"#utility.yul\":5304:5326   */\n      add\n        /* \"#utility.yul\":5273:5336   */\n      tag_58\n      jump\t// in\n    tag_146:\n        /* \"#utility.yul\":5263:5336   */\n      swap4\n      pop\n        /* \"#utility.yul\":5059:5346   */\n      pop\n        /* \"#utility.yul\":5385:5387   */\n      0x20\n        /* \"#utility.yul\":5411:5464   */\n      tag_147\n        /* \"#utility.yul\":5456:5463   */\n      dup7\n        /* \"#utility.yul\":5447:5453   */\n      dup3\n        /* \"#utility.yul\":5436:5445   */\n      dup8\n        /* \"#utility.yul\":5432:5454   */\n      add\n        /* \"#utility.yul\":5411:5464   */\n      tag_60\n      jump\t// in\n    tag_147:\n        /* \"#utility.yul\":5401:5464   */\n      swap3\n      pop\n        /* \"#utility.yul\":5356:5474   */\n      pop\n        /* \"#utility.yul\":5541:5543   */\n      0x40\n        /* \"#utility.yul\":5530:5539   */\n      dup5\n        /* \"#utility.yul\":5526:5544   */\n      add\n        /* \"#utility.yul\":5513:5545   */\n      calldataload\n        /* \"#utility.yul\":5572:5590   */\n      0xffffffffffffffff\n        /* \"#utility.yul\":5564:5570   */\n      dup2\n        /* \"#utility.yul\":5561:5591   */\n      gt\n        /* \"#utility.yul\":5558:5675   */\n      iszero\n      tag_148\n      jumpi\n        /* \"#utility.yul\":5594:5673   */\n      tag_149\n      tag_49\n      jump\t// in\n    tag_149:\n        /* \"#utility.yul\":5558:5675   */\n    tag_148:\n        /* \"#utility.yul\":5699:5762   */\n      tag_150\n        /* \"#utility.yul\":5754:5761   */\n      dup7\n        /* \"#utility.yul\":5745:5751   */\n      dup3\n        /* \"#utility.yul\":5734:5743   */\n      dup8\n        /* \"#utility.yul\":5730:5752   */\n      add\n        /* \"#utility.yul\":5699:5762   */\n      tag_58\n      jump\t// in\n    tag_150:\n        /* \"#utility.yul\":5689:5762   */\n      swap2\n      pop\n        /* \"#utility.yul\":5484:5772   */\n      pop\n        /* \"#utility.yul\":4800:5779   */\n      swap3\n      pop\n      swap3\n      pop\n      swap3\n      jump\t// out\n        /* \"#utility.yul\":5785:5965   */\n    tag_61:\n        /* \"#utility.yul\":5833:5910   */\n      0x4e487b7100000000000000000000000000000000000000000000000000000000\n        /* \"#utility.yul\":5830:5831   */\n      0x00\n        /* \"#utility.yul\":5823:5911   */\n      mstore\n        /* \"#utility.yul\":5930:5934   */\n      0x22\n        /* \"#utility.yul\":5927:5928   */\n      0x04\n        /* \"#utility.yul\":5920:5935   */\n      mstore\n        /* \"#utility.yul\":5954:5958   */\n      0x24\n        /* \"#utility.yul\":5951:5952   */\n      0x00\n        /* \"#utility.yul\":5944:5959   */\n      revert\n        /* \"#utility.yul\":5971:6291   */\n    tag_14:\n        /* \"#utility.yul\":6015:6021   */\n      0x00\n        /* \"#utility.yul\":6052:6053   */\n      0x02\n        /* \"#utility.yul\":6046:6050   */\n      dup3\n        /* \"#utility.yul\":6042:6054   */\n      div\n        /* \"#utility.yul\":6032:6054   */\n      swap1\n      pop\n        /* \"#utility.yul\":6099:6100   */\n      0x01\n        /* \"#utility.yul\":6093:6097   */\n      dup3\n        /* \"#utility.yul\":6089:6101   */\n      and\n        /* \"#utility.yul\":6120:6138   */\n      dup1\n        /* \"#utility.yul\":6110:6191   */\n      tag_153\n      jumpi\n        /* \"#utility.yul\":6176:6180   */\n      0x7f\n        /* \"#utility.yul\":6168:6174   */\n      dup3\n        /* \"#utility.yul\":6164:6181   */\n      and\n        /* \"#utility.yul\":6154:6181   */\n      swap2\n      pop\n        /* \"#utility.yul\":6110:6191   */\n    tag_153:\n        /* \"#utility.yul\":6238:6240   */\n      0x20\n        /* \"#utility.yul\":6230:6236   */\n      dup3\n        /* \"#utility.yul\":6227:6241   */\n      lt\n        /* \"#utility.yul\":6207:6225   */\n      dup2\n        /* \"#utility.yul\":6204:6242   */\n      sub\n        /* \"#utility.yul\":6201:6285   */\n      tag_154\n      jumpi\n        /* \"#utility.yul\":6257:6275   */\n      tag_155\n      tag_61\n      jump\t// in\n    tag_155:\n        /* \"#utility.yul\":6201:6285   */\n    tag_154:\n        /* \"#utility.yul\":6022:6291   */\n      pop\n        /* \"#utility.yul\":5971:6291   */\n      swap2\n      swap1\n      pop\n      jump\t// out\n        /* \"#utility.yul\":6297:6438   */\n    tag_62:\n        /* \"#utility.yul\":6346:6350   */\n      0x00\n        /* \"#utility.yul\":6369:6372   */\n      dup2\n        /* \"#utility.yul\":6361:6372   */\n      swap1\n      pop\n        /* \"#utility.yul\":6392:6395   */\n      dup2\n        /* \"#utility.yul\":6389:6390   */\n      0x00\n        /* \"#utility.yul\":6382:6396   */\n      mstore\n        /* \"#utility.yul\":6426:6430   */\n      0x20\n        /* \"#utility.yul\":6423:6424   */\n      0x00\n        /* \"#utility.yul\":6413:6431   */\n      keccak256\n        /* \"#utility.yul\":6405:6431   */\n      swap1\n      pop\n        /* \"#utility.yul\":6297:6438   */\n      swap2\n      swap1\n      pop\n      jump\t// out\n        /* \"#utility.yul\":6444:6537   */\n    tag_63:\n        /* \"#utility.yul\":6481:6487   */\n      0x00\n        /* \"#utility.yul\":6528:6530   */\n      0x20\n        /* \"#utility.yul\":6523:6525   */\n      0x1f\n        /* \"#utility.yul\":6516:6521   */\n      dup4\n        /* \"#utility.yul\":6512:6526   */\n      add\n        /* \"#utility.yul\":6508:6531   */\n      div\n        /* \"#utility.yul\":6498:6531   */\n      swap1\n      pop\n        /* \"#utility.yul\":6444:6537   */\n      swap2\n      swap1\n      pop\n      jump\t// out\n        /* \"#utility.yul\":6543:6650   */\n    tag_64:\n        /* \"#utility.yul\":6587:6595   */\n      0x00\n        /* \"#utility.yul\":6637:6642   */\n      dup3\n        /* \"#utility.yul\":6631:6635   */\n      dup3\n        /* \"#utility.yul\":6627:6643   */\n      shl\n        /* \"#utility.yul\":6606:6643   */\n      swap1\n      pop\n        /* \"#utility.yul\":6543:6650   */\n      swap3\n      swap2\n      pop\n      pop\n      jump\t// out\n        /* \"#utility.yul\":6656:7049   */\n    tag_65:\n        /* \"#utility.yul\":6725:6731   */\n      0x00\n        /* \"#utility.yul\":6775:6776   */\n      0x08\n        /* \"#utility.yul\":6763:6773   */\n      dup4\n        /* \"#utility.yul\":6759:6777   */\n      mul\n        /* \"#utility.yul\":6798:6895   */\n      tag_160\n        /* \"#utility.yul\":6828:6894   */\n      0xffffffffffffffffffffffffffffffffffffffffffffffffffffffffffffffff\n        /* \"#utility.yul\":6817:6826   */\n      dup3\n        /* \"#utility.yul\":6798:6895   */\n      tag_64\n      jump\t// in\n    tag_160:\n        /* \"#utility.yul\":6916:6955   */\n      tag_161\n        /* \"#utility.yul\":6946:6954   */\n      dup7\n        /* \"#utility.yul\":6935:6944   */\n      dup4\n        /* \"#utility.yul\":6916:6955   */\n      tag_64\n      jump\t// in\n    tag_161:\n        /* \"#utility.yul\":6904:6955   */\n      swap6\n      pop\n        /* \"#utility.yul\":6988:6992   */\n      dup1\n        /* \"#utility.yul\":6984:6993   */\n      not\n        /* \"#utility.yul\":6977:6982   */\n      dup5\n        /* \"#utility.yul\":6973:6994   */\n      and\n        /* \"#utility.yul\":6964:6994   */\n      swap4\n      pop\n        /* \"#utility.yul\":7037:7041   */\n      dup1\n        /* \"#utility.yul\":7027:7035   */\n      dup7\n        /* \"#utility.yul\":7023:7042   */\n      and\n        /* \"#utility.yul\":7016:7021   */\n      dup5\n        /* \"#utility.yul\":7013:7043   */\n      or\n        /* \"#utility.yul\":7003:7043   */\n      swap3\n      pop\n        /* \"#utility.yul\":6732:7049   */\n      pop\n      pop\n        /* \"#utility.yul\":6656:7049   */\n      swap4\n      swap3\n      pop\n      pop\n      pop\n      jump\t// out\n        /* \"#utility.yul\":7055:7115   */\n    tag_66:\n        /* \"#utility.yul\":7083:7086   */\n      0x00\n        /* \"#utility.yul\":7104:7109   */\n      dup2\n        /* \"#utility.yul\":7097:7109   */\n      swap1\n      pop\n        /* \"#utility.yul\":7055:7115   */\n      swap2\n      swap1\n      pop\n      jump\t// out\n        /* \"#utility.yul\":7121:7263   */\n    tag_67:\n        /* \"#utility.yul\":7171:7180   */\n      0x00\n        /* \"#utility.yul\":7204:7257   */\n      tag_164\n        /* \"#utility.yul\":7222:7256   */\n      tag_165\n        /* \"#utility.yul\":7231:7255   */\n      tag_166\n        /* \"#utility.yul\":7249:7254   */\n      dup5\n        /* \"#utility.yul\":7231:7255   */\n      tag_45\n      jump\t// in\n    tag_166:\n        /* \"#utility.yul\":7222:7256   */\n      tag_66\n      jump\t// in\n    tag_165:\n        /* \"#utility.yul\":7204:7257   */\n      tag_45\n      jump\t// in\n    tag_164:\n        /* \"#utility.yul\":7191:7257   */\n      swap1\n      pop\n        /* \"#utility.yul\":7121:7263   */\n      swap2\n      swap1\n      pop\n      jump\t// out\n        /* \"#utility.yul\":7269:7344   */\n    tag_68:\n        /* \"#utility.yul\":7312:7315   */\n      0x00\n        /* \"#utility.yul\":7333:7338   */\n      dup2\n        /* \"#utility.yul\":7326:7338   */\n      swap1\n      pop\n        /* \"#utility.yul\":7269:7344   */\n      swap2\n      swap1\n      pop\n      jump\t// out\n        /* \"#utility.yul\":7350:7619   */\n    tag_69:\n        /* \"#utility.yul\":7460:7499   */\n      tag_169\n        /* \"#utility.yul\":7491:7498   */\n      dup4\n        /* \"#utility.yul\":7460:7499   */\n      tag_67\n      jump\t// in\n    tag_169:\n        /* \"#utility.yul\":7521:7612   */\n      tag_170\n        /* \"#utility.yul\":7570:7611   */\n      tag_171\n        /* \"#utility.yul\":7594:7610   */\n      dup3\n        /* \"#utility.yul\":7570:7611   */\n      tag_68\n      jump\t// in\n    tag_171:\n        /* \"#utility.yul\":7562:7568   */\n      dup5\n        /* \"#utility.yul\":7555:7559   */\n      dup5\n        /* \"#utility.yul\":7549:7560   */\n      sload\n        /* \"#utility.yul\":7521:7612   */\n      tag_65\n      jump\t// in\n    tag_170:\n        /* \"#utility.yul\":7515:7519   */\n      dup3\n        /* \"#utility.yul\":7508:7613   */\n      sstore\n        /* \"#utility.yul\":7426:7619   */\n      pop\n        /* \"#utility.yul\":7350:7619   */\n      pop\n      pop\n      pop\n      jump\t// out\n        /* \"#utility.yul\":7625:7698   */\n    tag_70:\n        /* \"#utility.yul\":7670:7673   */\n      0x00\n        /* \"#utility.yul\":7625:7698   */\n      swap1\n      jump\t// out\n        /* \"#utility.yul\":7704:7893   */\n    tag_71:\n        /* \"#utility.yul\":7781:7813   */\n      tag_174\n      tag_70\n      jump\t// in\n    tag_174:\n        /* \"#utility.yul\":7822:7887   */\n      tag_175\n        /* \"#utility.yul\":7880:7886   */\n      dup2\n        /* \"#utility.yul\":7872:7878   */\n      dup5\n        /* \"#utility.yul\":7866:7870   */\n      dup5\n        /* \"#utility.yul\":7822:7887   */\n      tag_69\n      jump\t// in\n    tag_175:\n        /* \"#utility.yul\":7757:7893   */\n      pop\n        /* \"#utility.yul\":7704:7893   */\n      pop\n      pop\n      jump\t// out\n        /* \"#utility.yul\":7899:8085   */\n    tag_72:\n        /* \"#utility.yul\":7959:8079   */\n    tag_177:\n        /* \"#utility.yul\":7976:7979   */\n      dup2\n        /* \"#utility.yul\":7969:7974   */\n      dup2\n        /* \"#utility.yul\":7966:7980   */\n      lt\n        /* \"#utility.yul\":7959:8079   */\n      iszero\n      tag_179\n      jumpi\n        /* \"#utility.yul\":8030:8069   */\n      tag_180\n        /* \"#utility.yul\":8067:8068   */\n      0x00\n        /* \"#utility.yul\":8060:8065   */\n      dup3\n        /* \"#utility.yul\":8030:8069   */\n      tag_71\n      jump\t// in\n    tag_180:\n        /* \"#utility.yul\":8003:8004   */\n      0x01\n        /* \"#utility.yul\":7996:8001   */\n      dup2\n        /* \"#utility.yul\":7992:8005   */\n      add\n        /* \"#utility.yul\":7983:8005   */\n      swap1\n      pop\n        /* \"#utility.yul\":7959:8079   */\n      jump(tag_177)\n    tag_179:\n        /* \"#utility.yul\":7899:8085   */\n      pop\n      pop\n      jump\t// out\n        /* \"#utility.yul\":8091:8634   */\n    tag_73:\n        /* \"#utility.yul\":8192:8194   */\n      0x1f\n        /* \"#utility.yul\":8187:8190   */\n      dup3\n        /* \"#utility.yul\":8184:8195   */\n      gt\n        /* \"#utility.yul\":8181:8627   */\n      iszero\n      tag_182\n      jumpi\n        /* \"#utility.yul\":8226:8264   */\n      tag_183\n        /* \"#utility.yul\":8258:8263   */\n      dup2\n        /* \"#utility.yul\":8226:8264   */\n      tag_62\n      jump\t// in\n    tag_183:\n        /* \"#utility.yul\":8310:8339   */\n      tag_184\n        /* \"#utility.yul\":8328:8338   */\n      dup5\n        /* \"#utility.yul\":8310:8339   */\n      tag_63\n      jump\t// in\n    tag_184:\n        /* \"#utility.yul\":8300:8308   */\n      dup2\n        /* \"#utility.yul\":8296:8340   */\n      add\n        /* \"#utility.yul\":8493:8495   */\n      0x20\n        /* \"#utility.yul\":8481:8491   */\n      dup6\n        /* \"#utility.yul\":8478:8496   */\n      lt\n        /* \"#utility.yul\":8475:8524   */\n      iszero\n      tag_185\n      jumpi\n        /* \"#utility.yul\":8514:8522   */\n      dup2\n        /* \"#utility.yul\":8499:8522   */\n      swap1\n      pop\n        /* \"#utility.yul\":8475:8524   */\n    tag_185:\n        /* \"#utility.yul\":8537:8617   */\n      tag_186\n        /* \"#utility.yul\":8593:8615   */\n      tag_187\n        /* \"#utility.yul\":8611:8614   */\n      dup6\n        /* \"#utility.yul\":8593:8615   */\n      tag_63\n      jump\t// in\n    tag_187:\n        /* \"#utility.yul\":8583:8591   */\n      dup4\n        /* \"#utility.yul\":8579:8616   */\n      add\n        /* \"#utility.yul\":8566:8577   */\n      dup3\n        /* \"#utility.yul\":8537:8617   */\n      tag_72\n      jump\t// in\n    tag_186:\n        /* \"#utility.yul\":8196:8627   */\n      pop\n      pop\n        /* \"#utility.yul\":8181:8627   */\n    tag_182:\n        /* \"#utility.yul\":8091:8634   */\n      pop\n      pop\n      pop\n      jump\t// out\n        /* \"#utility.yul\":8640:8757   */\n    tag_74:\n        /* \"#utility.yul\":8694:8702   */\n      0x00\n        /* \"#utility.yul\":8744:8749   */\n      dup3\n        /* \"#utility.yul\":8738:8742   */\n      dup3\n        /* \"#utility.yul\":8734:8750   */\n      shr\n        /* \"#utility.yul\":8713:8750   */\n      swap1\n      pop\n        /* \"#utility.yul\":8640:8757   */\n      swap3\n      swap2\n      pop\n      pop\n      jump\t// out\n        /* \"#utility.yul\":8763:8932   */\n    tag_75:\n        /* \"#utility.yul\":8807:8813   */\n      0x00\n        /* \"#utility.yul\":8840:8891   */\n      tag_190\n        /* \"#utility.yul\":8888:8889   */\n      0x00\n        /* \"#utility.yul\":8884:8890   */\n      not\n        /* \"#utility.yul\":8876:8881   */\n      dup5\n        /* \"#utility.yul\":8873:8874   */\n      0x08\n        /* \"#utility.yul\":8869:8882   */\n      mul\n        /* \"#utility.yul\":8840:8891   */\n      tag_74\n      jump\t// in\n    tag_190:\n        /* \"#utility.yul\":8836:8892   */\n      not\n        /* \"#utility.yul\":8921:8925   */\n      dup1\n        /* \"#utility.yul\":8915:8919   */\n      dup4\n        /* \"#utility.yul\":8911:8926   */\n      and\n        /* \"#utility.yul\":8901:8926   */\n      swap2\n      pop\n        /* \"#utility.yul\":8814:8932   */\n      pop\n        /* \"#utility.yul\":8763:8932   */\n      swap3\n      swap2\n      pop\n      pop\n      jump\t// out\n        /* \"#utility.yul\":8937:9232   */\n    tag_76:\n        /* \"#utility.yul\":9013:9017   */\n      0x00\n        /* \"#utility.yul\":9159:9188   */\n      tag_192\n        /* \"#utility.yul\":9184:9187   */\n      dup4\n        /* \"#utility.yul\":9178:9182   */\n      dup4\n        /* \"#utility.yul\":9159:9188   */\n      tag_75\n      jump\t// in\n    tag_192:\n        /* \"#utility.yul\":9151:9188   */\n      swap2\n      pop\n        /* \"#utility.yul\":9221:9224   */\n      dup3\n        /* \"#utility.yul\":9218:9219   */\n      0x02\n        /* \"#utility.yul\":9214:9225   */\n      mul\n        /* \"#utility.yul\":9208:9212   */\n      dup3\n        /* \"#utility.yul\":9205:9226   */\n      or\n        /* \"#utility.yul\":9197:9226   */\n      swap1\n      pop\n        /* \"#utility.yul\":8937:9232   */\n      swap3\n      swap2\n      pop\n      pop\n      jump\t// out\n        /* \"#utility.yul\":9237:10632   */\n    tag_36:\n        /* \"#utility.yul\":9354:9391   */\n      tag_194\n        /* \"#utility.yul\":9387:9390   */\n      dup3\n        /* \"#utility.yul\":9354:9391   */\n      tag_40\n      jump\t// in\n    tag_194:\n        /* \"#utility.yul\":9456:9474   */\n      0xffffffffffffffff\n        /* \"#utility.yul\":9448:9454   */\n      dup2\n        /* \"#utility.yul\":9445:9475   */\n      gt\n        /* \"#utility.yul\":9442:9498   */\n      iszero\n      tag_195\n      jumpi\n        /* \"#utility.yul\":9478:9496   */\n      tag_196\n      tag_52\n      jump\t// in\n    tag_196:\n        /* \"#utility.yul\":9442:9498   */\n    tag_195:\n        /* \"#utility.yul\":9522:9560   */\n      tag_197\n        /* \"#utility.yul\":9554:9558   */\n      dup3\n        /* \"#utility.yul\":9548:9559   */\n      sload\n        /* \"#utility.yul\":9522:9560   */\n      tag_14\n      jump\t// in\n    tag_197:\n        /* \"#utility.yul\":9607:9674   */\n      tag_198\n        /* \"#utility.yul\":9667:9673   */\n      dup3\n        /* \"#utility.yul\":9659:9665   */\n      dup3\n        /* \"#utility.yul\":9653:9657   */\n      dup6\n        /* \"#utility.yul\":9607:9674   */\n      tag_73\n      jump\t// in\n    tag_198:\n        /* \"#utility.yul\":9701:9702   */\n      0x00\n        /* \"#utility.yul\":9725:9729   */\n      0x20\n        /* \"#utility.yul\":9712:9729   */\n      swap1\n      pop\n        /* \"#utility.yul\":9757:9759   */\n      0x1f\n        /* \"#utility.yul\":9749:9755   */\n      dup4\n        /* \"#utility.yul\":9746:9760   */\n      gt\n        /* \"#utility.yul\":9774:9775   */\n      0x01\n        /* \"#utility.yul\":9769:10387   */\n      dup2\n      eq\n      tag_200\n      jumpi\n        /* \"#utility.yul\":10431:10432   */\n      0x00\n        /* \"#utility.yul\":10448:10454   */\n      dup5\n        /* \"#utility.yul\":10445:10522   */\n      iszero\n      tag_201\n      jumpi\n        /* \"#utility.yul\":10497:10506   */\n      dup3\n        /* \"#utility.yul\":10492:10495   */\n      dup8\n        /* \"#utility.yul\":10488:10507   */\n      add\n        /* \"#utility.yul\":10482:10508   */\n      mload\n        /* \"#utility.yul\":10473:10508   */\n      swap1\n      pop\n        /* \"#utility.yul\":10445:10522   */\n    tag_201:\n        /* \"#utility.yul\":10548:10615   */\n      tag_202\n        /* \"#utility.yul\":10608:10614   */\n      dup6\n        /* \"#utility.yul\":10601:10606   */\n      dup3\n        /* \"#utility.yul\":10548:10615   */\n      tag_76\n      jump\t// in\n    tag_202:\n        /* \"#utility.yul\":10542:10546   */\n      dup7\n        /* \"#utility.yul\":10535:10616   */\n      sstore\n        /* \"#utility.yul\":10404:10626   */\n      pop\n        /* \"#utility.yul\":9739:10626   */\n      jump(tag_199)\n        /* \"#utility.yul\":9769:10387   */\n    tag_200:\n        /* \"#utility.yul\":9821:9825   */\n      0x1f\n        /* \"#utility.yul\":9817:9826   */\n      not\n        /* \"#utility.yul\":9809:9815   */\n      dup5\n        /* \"#utility.yul\":9805:9827   */\n      and\n        /* \"#utility.yul\":9855:9892   */\n      tag_203\n        /* \"#utility.yul\":9887:9891   */\n      dup7\n        /* \"#utility.yul\":9855:9892   */\n      tag_62\n      jump\t// in\n    tag_203:\n        /* \"#utility.yul\":9914:9915   */\n      0x00\n        /* \"#utility.yul\":9928:10136   */\n    tag_204:\n        /* \"#utility.yul\":9942:9949   */\n      dup3\n        /* \"#utility.yul\":9939:9940   */\n      dup2\n        /* \"#utility.yul\":9936:9950   */\n      lt\n        /* \"#utility.yul\":9928:10136   */\n      iszero\n      tag_206\n      jumpi\n        /* \"#utility.yul\":10021:10030   */\n      dup5\n        /* \"#utility.yul\":10016:10019   */\n      dup10\n        /* \"#utility.yul\":10012:10031   */\n      add\n        /* \"#utility.yul\":10006:10032   */\n      mload\n        /* \"#utility.yul\":9998:10004   */\n      dup3\n        /* \"#utility.yul\":9991:10033   */\n      sstore\n        /* \"#utility.yul\":10072:10073   */\n      0x01\n        /* \"#utility.yul\":10064:10070   */\n      dup3\n        /* \"#utility.yul\":10060:10074   */\n      add\n        /* \"#utility.yul\":10050:10074   */\n      swap2\n      pop\n        /* \"#utility.yul\":10119:10121   */\n      0x20\n        /* \"#utility.yul\":10108:10117   */\n      dup6\n        /* \"#utility.yul\":10104:10122   */\n      add\n        /* \"#utility.yul\":10091:10122   */\n      swap5\n      pop\n        /* \"#utility.yul\":9965:9969   */\n      0x20\n        /* \"#utility.yul\":9962:9963   */\n      dup2\n        /* \"#utility.yul\":9958:9970   */\n      add\n        /* \"#utility.yul\":9953:9970   */\n      swap1\n      pop\n        /* \"#utility.yul\":9928:10136   */\n      jump(tag_204)\n    tag_206:\n        /* \"#utility.yul\":10164:10170   */\n      dup7\n        /* \"#utility.yul\":10155:10162   */\n      dup4\n        /* \"#utility.yul\":10152:10171   */\n      lt\n        /* \"#utility.yul\":10149:10328   */\n      iszero\n      tag_207\n      jumpi\n        /* \"#utility.yul\":10222:10231   */\n      dup5\n        /* \"#utility.yul\":10217:10220   */\n      dup10\n        /* \"#utility.yul\":10213:10232   */\n      add\n        /* \"#utility.yul\":10207:10233   */\n      mload\n        /* \"#utility.yul\":10265:10313   */\n      tag_208\n        /* \"#utility.yul\":10307:10311   */\n      0x1f\n        /* \"#utility.yul\":10299:10305   */\n      dup10\n        /* \"#utility.yul\":10295:10312   */\n      and\n        /* \"#utility.yul\":10284:10293   */\n      dup3\n        /* \"#utility.yul\":10265:10313   */\n      tag_75\n      jump\t// in\n    tag_208:\n        /* \"#utility.yul\":10257:10263   */\n      dup4\n        /* \"#utility.yul\":10250:10314   */\n      sstore\n        /* \"#utility.yul\":10172:10328   */\n      pop\n        /* \"#utility.yul\":10149:10328   */\n    tag_207:\n        /* \"#utility.yul\":10374:10375   */\n      0x01\n        /* \"#utility.yul\":10370:10371   */\n      0x02\n        /* \"#utility.yul\":10362:10368   */\n      dup9\n        /* \"#utility.yul\":10358:10372   */\n      mul\n        /* \"#utility.yul\":10354:10376   */\n      add\n        /* \"#utility.yul\":10348:10352   */\n      dup9\n        /* \"#utility.yul\":10341:10377   */\n      sstore\n        /* \"#utility.yul\":9776:10387   */\n      pop\n      pop\n      pop\n        /* \"#utility.yul\":9739:10626   */\n    tag_199:\n      pop\n        /* \"#utility.yul\":9329:10632   */\n      pop\n      pop\n      pop\n        /* \"#utility.yul\":9237:10632   */\n      pop\n      pop\n      jump\t// out\n        /* \"#utility.yul\":10638:10797   */\n    tag_77:\n        /* \"#utility.yul\":10712:10723   */\n      0x00\n        /* \"#utility.yul\":10746:10752   */\n      dup3\n        /* \"#utility.yul\":10741:10744   */\n      dup3\n        /* \"#utility.yul\":10734:10753   */\n      mstore\n        /* \"#utility.yul\":10786:10790   */\n      0x20\n        /* \"#utility.yul\":10781:10784   */\n      dup3\n        /* \"#utility.yul\":10777:10791   */\n      add\n        /* \"#utility.yul\":10762:10791   */\n      swap1\n      pop\n        /* \"#utility.yul\":10638:10797   */\n      swap3\n      swap2\n      pop\n      pop\n      jump\t// out\n        /* \"#utility.yul\":10803:11160   */\n    tag_78:\n        /* \"#utility.yul\":10881:10884   */\n      0x00\n        /* \"#utility.yul\":10909:10948   */\n      tag_211\n        /* \"#utility.yul\":10942:10947   */\n      dup3\n        /* \"#utility.yul\":10909:10948   */\n      tag_40\n      jump\t// in\n    tag_211:\n        /* \"#utility.yul\":10964:11025   */\n      tag_212\n        /* \"#utility.yul\":11018:11024   */\n      dup2\n        /* \"#utility.yul\":11013:11016   */\n      dup6\n        /* \"#utility.yul\":10964:11025   */\n      tag_77\n      jump\t// in\n    tag_212:\n        /* \"#utility.yul\":10957:11025   */\n      swap4\n      pop\n        /* \"#utility.yul\":11034:11099   */\n      tag_213\n        /* \"#utility.yul\":11092:11098   */\n      dup2\n        /* \"#utility.yul\":11087:11090   */\n      dup6\n        /* \"#utility.yul\":11080:11084   */\n      0x20\n        /* \"#utility.yul\":11073:11078   */\n      dup7\n        /* \"#utility.yul\":11069:11085   */\n      add\n        /* \"#utility.yul\":11034:11099   */\n      tag_42\n      jump\t// in\n    tag_213:\n        /* \"#utility.yul\":11124:11153   */\n      tag_214\n        /* \"#utility.yul\":11146:11152   */\n      dup2\n        /* \"#utility.yul\":11124:11153   */\n      tag_43\n      jump\t// in\n    tag_214:\n        /* \"#utility.yul\":11119:11122   */\n      dup5\n        /* \"#utility.yul\":11115:11154   */\n      add\n        /* \"#utility.yul\":11108:11154   */\n      swap2\n      pop\n        /* \"#utility.yul\":10885:11160   */\n      pop\n        /* \"#utility.yul\":10803:11160   */\n      swap3\n      swap2\n      pop\n      pop\n      jump\t// out\n        /* \"#utility.yul\":11166:11274   */\n    tag_79:\n        /* \"#utility.yul\":11243:11267   */\n      tag_216\n        /* \"#utility.yul\":11261:11266   */\n      dup2\n        /* \"#utility.yul\":11243:11267   */\n      tag_45\n      jump\t// in\n    tag_216:\n        /* \"#utility.yul\":11238:11241   */\n      dup3\n        /* \"#utility.yul\":11231:11268   */\n      mstore\n        /* \"#utility.yul\":11166:11274   */\n      pop\n      pop\n      jump\t// out\n        /* \"#utility.yul\":11356:12570   */\n    tag_80:\n        /* \"#utility.yul\":11477:11480   */\n      0x00\n        /* \"#utility.yul\":11513:11517   */\n      0xa0\n        /* \"#utility.yul\":11508:11511   */\n      dup4\n        /* \"#utility.yul\":11504:11518   */\n      add\n        /* \"#utility.yul\":11600:11604   */\n      0x00\n        /* \"#utility.yul\":11593:11598   */\n      dup4\n        /* \"#utility.yul\":11589:11605   */\n      add\n        /* \"#utility.yul\":11583:11606   */\n      mload\n        /* \"#utility.yul\":11653:11656   */\n      dup5\n        /* \"#utility.yul\":11647:11651   */\n      dup3\n        /* \"#utility.yul\":11643:11657   */\n      sub\n        /* \"#utility.yul\":11636:11640   */\n      0x00\n        /* \"#utility.yul\":11631:11634   */\n      dup7\n        /* \"#utility.yul\":11627:11641   */\n      add\n        /* \"#utility.yul\":11620:11658   */\n      mstore\n        /* \"#utility.yul\":11679:11752   */\n      tag_218\n        /* \"#utility.yul\":11747:11751   */\n      dup3\n        /* \"#utility.yul\":11733:11745   */\n      dup3\n        /* \"#utility.yul\":11679:11752   */\n      tag_78\n      jump\t// in\n    tag_218:\n        /* \"#utility.yul\":11671:11752   */\n      swap2\n      pop\n        /* \"#utility.yul\":11528:11763   */\n      pop\n        /* \"#utility.yul\":11844:11848   */\n      0x20\n        /* \"#utility.yul\":11837:11842   */\n      dup4\n        /* \"#utility.yul\":11833:11849   */\n      add\n        /* \"#utility.yul\":11827:11850   */\n      mload\n        /* \"#utility.yul\":11863:11926   */\n      tag_219\n        /* \"#utility.yul\":11920:11924   */\n      0x20\n        /* \"#utility.yul\":11915:11918   */\n      dup7\n        /* \"#utility.yul\":11911:11925   */\n      add\n        /* \"#utility.yul\":11897:11909   */\n      dup3\n        /* \"#utility.yul\":11863:11926   */\n      tag_79\n      jump\t// in\n    tag_219:\n        /* \"#utility.yul\":11773:11936   */\n      pop\n        /* \"#utility.yul\":12024:12028   */\n      0x40\n        /* \"#utility.yul\":12017:12022   */\n      dup4\n        /* \"#utility.yul\":12013:12029   */\n      add\n        /* \"#utility.yul\":12007:12030   */\n      mload\n        /* \"#utility.yul\":12077:12080   */\n      dup5\n        /* \"#utility.yul\":12071:12075   */\n      dup3\n        /* \"#utility.yul\":12067:12081   */\n      sub\n        /* \"#utility.yul\":12060:12064   */\n      0x40\n        /* \"#utility.yul\":12055:12058   */\n      dup7\n        /* \"#utility.yul\":12051:12065   */\n      add\n        /* \"#utility.yul\":12044:12082   */\n      mstore\n        /* \"#utility.yul\":12103:12176   */\n      tag_220\n        /* \"#utility.yul\":12171:12175   */\n      dup3\n        /* \"#utility.yul\":12157:12169   */\n      dup3\n        /* \"#utility.yul\":12103:12176   */\n      tag_78\n      jump\t// in\n    tag_220:\n        /* \"#utility.yul\":12095:12176   */\n      swap2\n      pop\n        /* \"#utility.yul\":11946:12187   */\n      pop\n        /* \"#utility.yul\":12274:12278   */\n      0x60\n        /* \"#utility.yul\":12267:12272   */\n      dup4\n        /* \"#utility.yul\":12263:12279   */\n      add\n        /* \"#utility.yul\":12257:12280   */\n      mload\n        /* \"#utility.yul\":12293:12356   */\n      tag_221\n        /* \"#utility.yul\":12350:12354   */\n      0x60\n        /* \"#utility.yul\":12345:12348   */\n      dup7\n        /* \"#utility.yul\":12341:12355   */\n      add\n        /* \"#utility.yul\":12327:12339   */\n      dup3\n        /* \"#utility.yul\":12293:12356   */\n      tag_79\n      jump\t// in\n    tag_221:\n        /* \"#utility.yul\":12197:12366   */\n      pop\n        /* \"#utility.yul\":12451:12455   */\n      0x80\n        /* \"#utility.yul\":12444:12449   */\n      dup4\n        /* \"#utility.yul\":12440:12456   */\n      add\n        /* \"#utility.yul\":12434:12457   */\n      mload\n        /* \"#utility.yul\":12470:12533   */\n      tag_222\n        /* \"#utility.yul\":12527:12531   */\n      0x80\n        /* \"#utility.yul\":12522:12525   */\n      dup7\n        /* \"#utility.yul\":12518:12532   */\n      add\n        /* \"#utility.yul\":12504:12516   */\n      dup3\n        /* \"#utility.yul\":12470:12533   */\n      tag_79\n      jump\t// in\n    tag_222:\n        /* \"#utility.yul\":12376:12543   */\n      pop\n        /* \"#utility.yul\":12560:12564   */\n      dup1\n        /* \"#utility.yul\":12553:12564   */\n      swap2\n      pop\n        /* \"#utility.yul\":11482:12570   */\n      pop\n        /* \"#utility.yul\":11356:12570   */\n      swap3\n      swap2\n      pop\n      pop\n      jump\t// out\n        /* \"#utility.yul\":12600:13411   */\n    tag_81:\n        /* \"#utility.yul\":12675:12678   */\n      0x00\n        /* \"#utility.yul\":12712:12717   */\n      dup2\n        /* \"#utility.yul\":12706:12718   */\n      sload\n        /* \"#utility.yul\":12741:12777   */\n      tag_224\n        /* \"#utility.yul\":12767:12776   */\n      dup2\n        /* \"#utility.yul\":12741:12777   */\n      tag_14\n      jump\t// in\n    tag_224:\n        /* \"#utility.yul\":12793:12854   */\n      tag_225\n        /* \"#utility.yul\":12847:12853   */\n      dup2\n        /* \"#utility.yul\":12842:12845   */\n      dup7\n        /* \"#utility.yul\":12793:12854   */\n      tag_77\n      jump\t// in\n    tag_225:\n        /* \"#utility.yul\":12786:12854   */\n      swap5\n      pop\n        /* \"#utility.yul\":12885:12886   */\n      0x01\n        /* \"#utility.yul\":12874:12883   */\n      dup3\n        /* \"#utility.yul\":12870:12887   */\n      and\n        /* \"#utility.yul\":12901:12902   */\n      0x00\n        /* \"#utility.yul\":12896:13060   */\n      dup2\n      eq\n      tag_227\n      jumpi\n        /* \"#utility.yul\":13074:13075   */\n      0x01\n        /* \"#utility.yul\":13069:13405   */\n      dup2\n      eq\n      tag_228\n      jumpi\n        /* \"#utility.yul\":12863:13405   */\n      jump(tag_226)\n        /* \"#utility.yul\":12896:13060   */\n    tag_227:\n        /* \"#utility.yul\":12980:12984   */\n      0xff\n        /* \"#utility.yul\":12976:12985   */\n      not\n        /* \"#utility.yul\":12965:12974   */\n      dup4\n        /* \"#utility.yul\":12961:12986   */\n      and\n        /* \"#utility.yul\":12956:12959   */\n      dup7\n        /* \"#utility.yul\":12949:12987   */\n      mstore\n        /* \"#utility.yul\":13040:13046   */\n      dup2\n        /* \"#utility.yul\":13033:13047   */\n      iszero\n        /* \"#utility.yul\":13026:13048   */\n      iszero\n        /* \"#utility.yul\":13020:13024   */\n      0x20\n        /* \"#utility.yul\":13016:13049   */\n      mul\n        /* \"#utility.yul\":13011:13014   */\n      dup7\n        /* \"#utility.yul\":13007:13050   */\n      add\n        /* \"#utility.yul\":13000:13050   */\n      swap4\n      pop\n        /* \"#utility.yul\":12896:13060   */\n      jump(tag_226)\n        /* \"#utility.yul\":13069:13405   */\n    tag_228:\n        /* \"#utility.yul\":13136:13174   */\n      tag_229\n        /* \"#utility.yul\":13168:13173   */\n      dup6\n        /* \"#utility.yul\":13136:13174   */\n      tag_62\n      jump\t// in\n    tag_229:\n        /* \"#utility.yul\":13196:13197   */\n      0x00\n        /* \"#utility.yul\":13210:13364   */\n    tag_230:\n        /* \"#utility.yul\":13224:13230   */\n      dup4\n        /* \"#utility.yul\":13221:13222   */\n      dup2\n        /* \"#utility.yul\":13218:13231   */\n      lt\n        /* \"#utility.yul\":13210:13364   */\n      iszero\n      tag_232\n      jumpi\n        /* \"#utility.yul\":13298:13305   */\n      dup2\n        /* \"#utility.yul\":13292:13306   */\n      sload\n        /* \"#utility.yul\":13288:13289   */\n      dup2\n        /* \"#utility.yul\":13283:13286   */\n      dup10\n        /* \"#utility.yul\":13279:13290   */\n      add\n        /* \"#utility.yul\":13272:13307   */\n      mstore\n        /* \"#utility.yul\":13348:13349   */\n      0x01\n        /* \"#utility.yul\":13339:13346   */\n      dup3\n        /* \"#utility.yul\":13335:13350   */\n      add\n        /* \"#utility.yul\":13324:13350   */\n      swap2\n      pop\n        /* \"#utility.yul\":13246:13250   */\n      0x20\n        /* \"#utility.yul\":13243:13244   */\n      dup2\n        /* \"#utility.yul\":13239:13251   */\n      add\n        /* \"#utility.yul\":13234:13251   */\n      swap1\n      pop\n        /* \"#utility.yul\":13210:13364   */\n      jump(tag_230)\n    tag_232:\n        /* \"#utility.yul\":13393:13394   */\n      dup1\n        /* \"#utility.yul\":13388:13391   */\n      dup9\n        /* \"#utility.yul\":13384:13395   */\n      add\n        /* \"#utility.yul\":13377:13395   */\n      swap6\n      pop\n        /* \"#utility.yul\":13076:13405   */\n      pop\n      pop\n        /* \"#utility.yul\":12863:13405   */\n    tag_226:\n      pop\n        /* \"#utility.yul\":12679:13411   */\n      pop\n      pop\n        /* \"#utility.yul\":12600:13411   */\n      swap3\n      swap2\n      pop\n      pop\n      jump\t// out\n        /* \"#utility.yul\":13417:13519   */\n    tag_82:\n        /* \"#utility.yul\":13459:13467   */\n      0x00\n        /* \"#utility.yul\":13506:13511   */\n      dup2\n        /* \"#utility.yul\":13503:13504   */\n      0x00\n        /* \"#utility.yul\":13499:13512   */\n      shr\n        /* \"#utility.yul\":13478:13512   */\n      swap1\n      pop\n        /* \"#utility.yul\":13417:13519   */\n      swap2\n      swap1\n      pop\n      jump\t// out\n        /* \"#utility.yul\":13525:13615   */\n    tag_83:\n        /* \"#utility.yul\":13575:13582   */\n      0x00\n        /* \"#utility.yul\":13604:13609   */\n      dup2\n        /* \"#utility.yul\":13593:13609   */\n      swap1\n      pop\n        /* \"#utility.yul\":13525:13615   */\n      swap2\n      swap1\n      pop\n      jump\t// out\n        /* \"#utility.yul\":13621:13787   */\n    tag_84:\n        /* \"#utility.yul\":13690:13695   */\n      0x00\n        /* \"#utility.yul\":13715:13781   */\n      tag_236\n        /* \"#utility.yul\":13746:13780   */\n      tag_237\n        /* \"#utility.yul\":13769:13779   */\n      dup4\n        /* \"#utility.yul\":13746:13780   */\n      tag_82\n      jump\t// in\n    tag_237:\n        /* \"#utility.yul\":13715:13781   */\n      tag_83\n      jump\t// in\n    tag_236:\n        /* \"#utility.yul\":13706:13781   */\n      swap1\n      pop\n        /* \"#utility.yul\":13621:13787   */\n      swap2\n      swap1\n      pop\n      jump\t// out\n        /* \"#utility.yul\":13869:15327   */\n    tag_85:\n        /* \"#utility.yul\":13987:13990   */\n      0x00\n        /* \"#utility.yul\":14023:14027   */\n      0xa0\n        /* \"#utility.yul\":14018:14021   */\n      dup4\n        /* \"#utility.yul\":14014:14028   */\n      add\n        /* \"#utility.yul\":14054:14055   */\n      0x00\n        /* \"#utility.yul\":14131:14135   */\n      dup1\n        /* \"#utility.yul\":14124:14129   */\n      dup5\n        /* \"#utility.yul\":14120:14136   */\n      add\n        /* \"#utility.yul\":14183:14186   */\n      dup6\n        /* \"#utility.yul\":14177:14181   */\n      dup4\n        /* \"#utility.yul\":14173:14187   */\n      sub\n        /* \"#utility.yul\":14166:14170   */\n      0x00\n        /* \"#utility.yul\":14161:14164   */\n      dup8\n        /* \"#utility.yul\":14157:14171   */\n      add\n        /* \"#utility.yul\":14150:14188   */\n      mstore\n        /* \"#utility.yul\":14209:14279   */\n      tag_239\n        /* \"#utility.yul\":14274:14278   */\n      dup4\n        /* \"#utility.yul\":14260:14272   */\n      dup3\n        /* \"#utility.yul\":14209:14279   */\n      tag_81\n      jump\t// in\n    tag_239:\n        /* \"#utility.yul\":14201:14279   */\n      swap3\n      pop\n        /* \"#utility.yul\":14065:14290   */\n      pop\n        /* \"#utility.yul\":14363:14367   */\n      0x01\n        /* \"#utility.yul\":14356:14361   */\n      dup5\n        /* \"#utility.yul\":14352:14368   */\n      add\n        /* \"#utility.yul\":14346:14369   */\n      sload\n        /* \"#utility.yul\":14333:14369   */\n      swap1\n      pop\n        /* \"#utility.yul\":14402:14457   */\n      tag_240\n        /* \"#utility.yul\":14447:14456   */\n      dup2\n        /* \"#utility.yul\":14402:14457   */\n      tag_84\n      jump\t// in\n    tag_240:\n        /* \"#utility.yul\":14470:14533   */\n      tag_241\n        /* \"#utility.yul\":14527:14531   */\n      0x20\n        /* \"#utility.yul\":14522:14525   */\n      dup8\n        /* \"#utility.yul\":14518:14532   */\n      add\n        /* \"#utility.yul\":14504:14516   */\n      dup3\n        /* \"#utility.yul\":14470:14533   */\n      tag_79\n      jump\t// in\n    tag_241:\n        /* \"#utility.yul\":14300:14543   */\n      pop\n        /* \"#utility.yul\":14625:14629   */\n      0x02\n        /* \"#utility.yul\":14618:14623   */\n      dup5\n        /* \"#utility.yul\":14614:14630   */\n      add\n        /* \"#utility.yul\":14677:14680   */\n      dup6\n        /* \"#utility.yul\":14671:14675   */\n      dup4\n        /* \"#utility.yul\":14667:14681   */\n      sub\n        /* \"#utility.yul\":14660:14664   */\n      0x40\n        /* \"#utility.yul\":14655:14658   */\n      dup8\n        /* \"#utility.yul\":14651:14665   */\n      add\n        /* \"#utility.yul\":14644:14682   */\n      mstore\n        /* \"#utility.yul\":14703:14773   */\n      tag_242\n        /* \"#utility.yul\":14768:14772   */\n      dup4\n        /* \"#utility.yul\":14754:14766   */\n      dup3\n        /* \"#utility.yul\":14703:14773   */\n      tag_81\n      jump\t// in\n    tag_242:\n        /* \"#utility.yul\":14695:14773   */\n      swap3\n      pop\n        /* \"#utility.yul\":14553:14784   */\n      pop\n        /* \"#utility.yul\":14863:14867   */\n      0x03\n        /* \"#utility.yul\":14856:14861   */\n      dup5\n        /* \"#utility.yul\":14852:14868   */\n      add\n        /* \"#utility.yul\":14846:14869   */\n      sload\n        /* \"#utility.yul\":14833:14869   */\n      swap1\n      pop\n        /* \"#utility.yul\":14902:14957   */\n      tag_243\n        /* \"#utility.yul\":14947:14956   */\n      dup2\n        /* \"#utility.yul\":14902:14957   */\n      tag_84\n      jump\t// in\n    tag_243:\n        /* \"#utility.yul\":14970:15033   */\n      tag_244\n        /* \"#utility.yul\":15027:15031   */\n      0x60\n        /* \"#utility.yul\":15022:15025   */\n      dup8\n        /* \"#utility.yul\":15018:15032   */\n      add\n        /* \"#utility.yul\":15004:15016   */\n      dup3\n        /* \"#utility.yul\":14970:15033   */\n      tag_79\n      jump\t// in\n    tag_244:\n        /* \"#utility.yul\":14794:15043   */\n      pop\n        /* \"#utility.yul\":15120:15124   */\n      0x04\n        /* \"#utility.yul\":15113:15118   */\n      dup5\n        /* \"#utility.yul\":15109:15125   */\n      add\n        /* \"#utility.yul\":15103:15126   */\n      sload\n        /* \"#utility.yul\":15090:15126   */\n      swap1\n      pop\n        /* \"#utility.yul\":15159:15214   */\n      tag_245\n        /* \"#utility.yul\":15204:15213   */\n      dup2\n        /* \"#utility.yul\":15159:15214   */\n      tag_84\n      jump\t// in\n    tag_245:\n        /* \"#utility.yul\":15227:15290   */\n      tag_246\n        /* \"#utility.yul\":15284:15288   */\n      0x80\n        /* \"#utility.yul\":15279:15282   */\n      dup8\n        /* \"#utility.yul\":15275:15289   */\n      add\n        /* \"#utility.yul\":15261:15273   */\n      dup3\n        /* \"#utility.yul\":15227:15290   */\n      tag_79\n      jump\t// in\n    tag_246:\n        /* \"#utility.yul\":15053:15300   */\n      pop\n        /* \"#utility.yul\":15317:15321   */\n      dup2\n        /* \"#utility.yul\":15310:15321   */\n      swap3\n      pop\n        /* \"#utility.yul\":13992:15327   */\n      pop\n      pop\n        /* \"#utility.yul\":13869:15327   */\n      swap3\n      swap2\n      pop\n      pop\n      jump\t// out\n        /* \"#utility.yul\":15333:16190   */\n    tag_39:\n        /* \"#utility.yul\":15611:15615   */\n      0x00\n        /* \"#utility.yul\":15649:15652   */\n      0x80\n        /* \"#utility.yul\":15638:15647   */\n      dup3\n        /* \"#utility.yul\":15634:15653   */\n      add\n        /* \"#utility.yul\":15626:15653   */\n      swap1\n      pop\n        /* \"#utility.yul\":15699:15708   */\n      dup2\n        /* \"#utility.yul\":15693:15697   */\n      dup2\n        /* \"#utility.yul\":15689:15709   */\n      sub\n        /* \"#utility.yul\":15685:15686   */\n      0x00\n        /* \"#utility.yul\":15674:15683   */\n      dup4\n        /* \"#utility.yul\":15670:15687   */\n      add\n        /* \"#utility.yul\":15663:15710   */\n      mstore\n        /* \"#utility.yul\":15727:15837   */\n      tag_248\n        /* \"#utility.yul\":15832:15836   */\n      dup2\n        /* \"#utility.yul\":15823:15829   */\n      dup8\n        /* \"#utility.yul\":15727:15837   */\n      tag_80\n      jump\t// in\n    tag_248:\n        /* \"#utility.yul\":15719:15837   */\n      swap1\n      pop\n        /* \"#utility.yul\":15884:15893   */\n      dup2\n        /* \"#utility.yul\":15878:15882   */\n      dup2\n        /* \"#utility.yul\":15874:15894   */\n      sub\n        /* \"#utility.yul\":15869:15871   */\n      0x20\n        /* \"#utility.yul\":15858:15867   */\n      dup4\n        /* \"#utility.yul\":15854:15872   */\n      add\n        /* \"#utility.yul\":15847:15895   */\n      mstore\n        /* \"#utility.yul\":15912:16019   */\n      tag_249\n        /* \"#utility.yul\":16014:16018   */\n      dup2\n        /* \"#utility.yul\":16005:16011   */\n      dup7\n        /* \"#utility.yul\":15912:16019   */\n      tag_85\n      jump\t// in\n    tag_249:\n        /* \"#utility.yul\":15904:16019   */\n      swap1\n      pop\n        /* \"#utility.yul\":16029:16101   */\n      tag_250\n        /* \"#utility.yul\":16097:16099   */\n      0x40\n        /* \"#utility.yul\":16086:16095   */\n      dup4\n        /* \"#utility.yul\":16082:16100   */\n      add\n        /* \"#utility.yul\":16073:16079   */\n      dup6\n        /* \"#utility.yul\":16029:16101   */\n      tag_46\n      jump\t// in\n    tag_250:\n        /* \"#utility.yul\":16111:16183   */\n      tag_251\n        /* \"#utility.yul\":16179:16181   */\n      0x60\n        /* \"#utility.yul\":16168:16177   */\n      dup4\n        /* \"#utility.yul\":16164:16182   */\n      add\n        /* \"#utility.yul\":16155:16161   */\n      dup5\n        /* \"#utility.yul\":16111:16183   */\n      tag_46\n      jump\t// in\n    tag_251:\n        /* \"#utility.yul\":15333:16190   */\n      swap6\n      swap5\n      pop\n      pop\n      pop\n      pop\n      pop\n      jump\t// out\n\n    auxdata: 0xa26469706673582212202bb1a0b3f30d6d8d31b6de12780d6c7e3236e3d334da87e688de98196a2f68f664736f6c63430008120033\n}\n",
				"bytecode": {
					"linkReferences": {},
					"object": "608060405234801561001057600080fd5b50610c52806100206000396000f3fe608060405234801561001057600080fd5b50600436106100365760003560e01c80631de21b761461003b578063a665fc761461005d575b600080fd5b610043610079565b604051610054959493929190610461565b60405180910390f35b61007760048036038101906100729190610637565b6101ad565b005b600080600001805461008a906106f1565b80601f01602080910402602001604051908101604052809291908181526020018280546100b6906106f1565b80156101035780601f106100d857610100808354040283529160200191610103565b820191906000526020600020905b8154815290600101906020018083116100e657829003601f168201915b50505050509080600101549080600201805461011e906106f1565b80601f016020809104026020016040519081016040528092919081815260200182805461014a906106f1565b80156101975780601f1061016c57610100808354040283529160200191610197565b820191906000526020600020905b81548152906001019060200180831161017a57829003601f168201915b5050505050908060030154908060040154905085565b6000806040518060a00160405290816000820180546101cb906106f1565b80601f01602080910402602001604051908101604052809291908181526020018280546101f7906106f1565b80156102445780601f1061021957610100808354040283529160200191610244565b820191906000526020600020905b81548152906001019060200180831161022757829003601f168201915b5050505050815260200160018201548152602001600282018054610267906106f1565b80601f0160208091040260200160405190810160405280929190818152602001828054610293906106f1565b80156102e05780601f106102b5576101008083540402835291602001916102e0565b820191906000526020600020905b8154815290600101906020018083116102c357829003601f168201915b505050505081526020016003820154815260200160048201548152505090506040518060a001604052808581526020018481526020018381526020014281526020014381525060008082015181600001908161033c91906108ce565b5060208201518160010155604082015181600201908161035c91906108ce565b5060608201518160030155608082015181600401559050507f4a1cbfa04eace479eb13d28f6867709d037921777d59df22460479084ac9216e81600042436040516103aa9493929190610bc9565b60405180910390a150505050565b600081519050919050565b600082825260208201905092915050565b60005b838110156103f25780820151818401526020810190506103d7565b60008484015250505050565b6000601f19601f8301169050919050565b600061041a826103b8565b61042481856103c3565b93506104348185602086016103d4565b61043d816103fe565b840191505092915050565b6000819050919050565b61045b81610448565b82525050565b600060a082019050818103600083015261047b818861040f565b905061048a6020830187610452565b818103604083015261049c818661040f565b90506104ab6060830185610452565b6104b86080830184610452565b9695505050505050565b6000604051905090565b600080fd5b600080fd5b600080fd5b600080fd5b7f4e487b7100000000000000000000000000000000000000000000000000000000600052604160045260246000fd5b610518826103fe565b810181811067ffffffffffffffff82111715610537576105366104e0565b5b80604052505050565b600061054a6104c2565b9050610556828261050f565b919050565b600067ffffffffffffffff821115610576576105756104e0565b5b61057f826103fe565b9050602081019050919050565b82818337600083830152505050565b60006105ae6105a98461055b565b610540565b9050828152602081018484840111156105ca576105c96104db565b5b6105d584828561058c565b509392505050565b600082601f8301126105f2576105f16104d6565b5b813561060284826020860161059b565b91505092915050565b61061481610448565b811461061f57600080fd5b50565b6000813590506106318161060b565b92915050565b6000806000606084860312156106505761064f6104cc565b5b600084013567ffffffffffffffff81111561066e5761066d6104d1565b5b61067a868287016105dd565b935050602061068b86828701610622565b925050604084013567ffffffffffffffff8111156106ac576106ab6104d1565b5b6106b8868287016105dd565b9150509250925092565b7f4e487b7100000000000000000000000000000000000000000000000000000000600052602260045260246000fd5b6000600282049050600182168061070957607f821691505b60208210810361071c5761071b6106c2565b5b50919050565b60008190508160005260206000209050919050565b60006020601f8301049050919050565b600082821b905092915050565b6000600883026107847fffffffffffffffffffffffffffffffffffffffffffffffffffffffffffffffff82610747565b61078e8683610747565b95508019841693508086168417925050509392505050565b6000819050919050565b60006107cb6107c66107c184610448565b6107a6565b610448565b9050919050565b6000819050919050565b6107e5836107b0565b6107f96107f1826107d2565b848454610754565b825550505050565b600090565b61080e610801565b6108198184846107dc565b505050565b5b8181101561083d57610832600082610806565b60018101905061081f565b5050565b601f8211156108825761085381610722565b61085c84610737565b8101602085101561086b578190505b61087f61087785610737565b83018261081e565b50505b505050565b600082821c905092915050565b60006108a560001984600802610887565b1980831691505092915050565b60006108be8383610894565b9150826002028217905092915050565b6108d7826103b8565b67ffffffffffffffff8111156108f0576108ef6104e0565b5b6108fa82546106f1565b610905828285610841565b600060209050601f8311600181146109385760008415610926578287015190505b61093085826108b2565b865550610998565b601f19841661094686610722565b60005b8281101561096e57848901518255600182019150602085019450602081019050610949565b8683101561098b5784890151610987601f891682610894565b8355505b6001600288020188555050505b505050505050565b600082825260208201905092915050565b60006109bc826103b8565b6109c681856109a0565b93506109d68185602086016103d4565b6109df816103fe565b840191505092915050565b6109f381610448565b82525050565b600060a0830160008301518482036000860152610a1682826109b1565b9150506020830151610a2b60208601826109ea565b5060408301518482036040860152610a4382826109b1565b9150506060830151610a5860608601826109ea565b506080830151610a6b60808601826109ea565b508091505092915050565b60008154610a83816106f1565b610a8d81866109a0565b94506001821660008114610aa85760018114610abe57610af1565b60ff198316865281151560200286019350610af1565b610ac785610722565b60005b83811015610ae957815481890152600182019150602081019050610aca565b808801955050505b50505092915050565b60008160001c9050919050565b6000819050919050565b6000610b24610b1f83610afa565b610b07565b9050919050565b600060a0830160008084018583036000870152610b488382610a76565b92505060018401549050610b5b81610b11565b610b6860208701826109ea565b50600284018583036040870152610b7f8382610a76565b92505060038401549050610b9281610b11565b610b9f60608701826109ea565b5060048401549050610bb081610b11565b610bbd60808701826109ea565b50819250505092915050565b60006080820190508181036000830152610be381876109f9565b90508181036020830152610bf78186610b2b565b9050610c066040830185610452565b610c136060830184610452565b9594505050505056fea26469706673582212202bb1a0b3f30d6d8d31b6de12780d6c7e3236e3d334da87e688de98196a2f68f664736f6c63430008120033",
					"opcodes": "PUSH1 0x80 PUSH1 0x40 MSTORE CALLVALUE DUP1 ISZERO PUSH2 0x10 JUMPI PUSH1 0x0 DUP1 REVERT JUMPDEST POP PUSH2 0xC52 DUP1 PUSH2 0x20 PUSH1 0x0 CODECOPY PUSH1 0x0 RETURN INVALID PUSH1 0x80 PUSH1 0x40 MSTORE CALLVALUE DUP1 ISZERO PUSH2 0x10 JUMPI PUSH1 0x0 DUP1 REVERT JUMPDEST POP PUSH1 0x4 CALLDATASIZE LT PUSH2 0x36 JUMPI PUSH1 0x0 CALLDATALOAD PUSH1 0xE0 SHR DUP1 PUSH4 0x1DE21B76 EQ PUSH2 0x3B JUMPI DUP1 PUSH4 0xA665FC76 EQ PUSH2 0x5D JUMPI JUMPDEST PUSH1 0x0 DUP1 REVERT JUMPDEST PUSH2 0x43 PUSH2 0x79 JUMP JUMPDEST PUSH1 0x40 MLOAD PUSH2 0x54 SWAP6 SWAP5 SWAP4 SWAP3 SWAP2 SWAP1 PUSH2 0x461 JUMP JUMPDEST PUSH1 0x40 MLOAD DUP1 SWAP2 SUB SWAP1 RETURN JUMPDEST PUSH2 0x77 PUSH1 0x4 DUP1 CALLDATASIZE SUB DUP2 ADD SWAP1 PUSH2 0x72 SWAP2 SWAP1 PUSH2 0x637 JUMP JUMPDEST PUSH2 0x1AD JUMP JUMPDEST STOP JUMPDEST PUSH1 0x0 DUP1 PUSH1 0x0 ADD DUP1 SLOAD PUSH2 0x8A SWAP1 PUSH2 0x6F1 JUMP JUMPDEST DUP1 PUSH1 0x1F ADD PUSH1 0x20 DUP1 SWAP2 DIV MUL PUSH1 0x20 ADD PUSH1 0x40 MLOAD SWAP1 DUP2 ADD PUSH1 0x40 MSTORE DUP1 SWAP3 SWAP2 SWAP1 DUP2 DUP2 MSTORE PUSH1 0x20 ADD DUP3 DUP1 SLOAD PUSH2 0xB6 SWAP1 PUSH2 0x6F1 JUMP JUMPDEST DUP1 ISZERO PUSH2 0x103 JUMPI DUP1 PUSH1 0x1F LT PUSH2 0xD8 JUMPI PUSH2 0x100 DUP1 DUP4 SLOAD DIV MUL DUP4 MSTORE SWAP2 PUSH1 0x20 ADD SWAP2 PUSH2 0x103 JUMP JUMPDEST DUP3 ADD SWAP2 SWAP1 PUSH1 0x0 MSTORE PUSH1 0x20 PUSH1 0x0 KECCAK256 SWAP1 JUMPDEST DUP2 SLOAD DUP2 MSTORE SWAP1 PUSH1 0x1 ADD SWAP1 PUSH1 0x20 ADD DUP1 DUP4 GT PUSH2 0xE6 JUMPI DUP3 SWAP1 SUB PUSH1 0x1F AND DUP3 ADD SWAP2 JUMPDEST POP POP POP POP POP SWAP1 DUP1 PUSH1 0x1 ADD SLOAD SWAP1 DUP1 PUSH1 0x2 ADD DUP1 SLOAD PUSH2 0x11E SWAP1 PUSH2 0x6F1 JUMP JUMPDEST DUP1 PUSH1 0x1F ADD PUSH1 0x20 DUP1 SWAP2 DIV MUL PUSH1 0x20 ADD PUSH1 0x40 MLOAD SWAP1 DUP2 ADD PUSH1 0x40 MSTORE DUP1 SWAP3 SWAP2 SWAP1 DUP2 DUP2 MSTORE PUSH1 0x20 ADD DUP3 DUP1 SLOAD PUSH2 0x14A SWAP1 PUSH2 0x6F1 JUMP JUMPDEST DUP1 ISZERO PUSH2 0x197 JUMPI DUP1 PUSH1 0x1F LT PUSH2 0x16C JUMPI PUSH2 0x100 DUP1 DUP4 SLOAD DIV MUL DUP4 MSTORE SWAP2 PUSH1 0x20 ADD SWAP2 PUSH2 0x197 JUMP JUMPDEST DUP3 ADD SWAP2 SWAP1 PUSH1 0x0 MSTORE PUSH1 0x20 PUSH1 0x0 KECCAK256 SWAP1 JUMPDEST DUP2 SLOAD DUP2 MSTORE SWAP1 PUSH1 0x1 ADD SWAP1 PUSH1 0x20 ADD DUP1 DUP4 GT PUSH2 0x17A JUMPI DUP3 SWAP1 SUB PUSH1 0x1F AND DUP3 ADD SWAP2 JUMPDEST POP POP POP POP POP SWAP1 DUP1 PUSH1 0x3 ADD SLOAD SWAP1 DUP1 PUSH1 0x4 ADD SLOAD SWAP1 POP DUP6 JUMP JUMPDEST PUSH1 0x0 DUP1 PUSH1 0x40 MLOAD DUP1 PUSH1 0xA0 ADD PUSH1 0x40 MSTORE SWAP1 DUP2 PUSH1 0x0 DUP3 ADD DUP1 SLOAD PUSH2 0x1CB SWAP1 PUSH2 0x6F1 JUMP JUMPDEST DUP1 PUSH1 0x1F ADD PUSH1 0x20 DUP1 SWAP2 DIV MUL PUSH1 0x20 ADD PUSH1 0x40 MLOAD SWAP1 DUP2 ADD PUSH1 0x40 MSTORE DUP1 SWAP3 SWAP2 SWAP1 DUP2 DUP2 MSTORE PUSH1 0x20 ADD DUP3 DUP1 SLOAD PUSH2 0x1F7 SWAP1 PUSH2 0x6F1 JUMP JUMPDEST DUP1 ISZERO PUSH2 0x244 JUMPI DUP1 PUSH1 0x1F LT PUSH2 0x219 JUMPI PUSH2 0x100 DUP1 DUP4 SLOAD DIV MUL DUP4 MSTORE SWAP2 PUSH1 0x20 ADD SWAP2 PUSH2 0x244 JUMP JUMPDEST DUP3 ADD SWAP2 SWAP1 PUSH1 0x0 MSTORE PUSH1 0x20 PUSH1 0x0 KECCAK256 SWAP1 JUMPDEST DUP2 SLOAD DUP2 MSTORE SWAP1 PUSH1 0x1 ADD SWAP1 PUSH1 0x20 ADD DUP1 DUP4 GT PUSH2 0x227 JUMPI DUP3 SWAP1 SUB PUSH1 0x1F AND DUP3 ADD SWAP2 JUMPDEST POP POP POP POP POP DUP2 MSTORE PUSH1 0x20 ADD PUSH1 0x1 DUP3 ADD SLOAD DUP2 MSTORE PUSH1 0x20 ADD PUSH1 0x2 DUP3 ADD DUP1 SLOAD PUSH2 0x267 SWAP1 PUSH2 0x6F1 JUMP JUMPDEST DUP1 PUSH1 0x1F ADD PUSH1 0x20 DUP1 SWAP2 DIV MUL PUSH1 0x20 ADD PUSH1 0x40 MLOAD SWAP1 DUP2 ADD PUSH1 0x40 MSTORE DUP1 SWAP3 SWAP2 SWAP1 DUP2 DUP2 MSTORE PUSH1 0x20 ADD DUP3 DUP1 SLOAD PUSH2 0x293 SWAP1 PUSH2 0x6F1 JUMP JUMPDEST DUP1 ISZERO PUSH2 0x2E0 JUMPI DUP1 PUSH1 0x1F LT PUSH2 0x2B5 JUMPI PUSH2 0x100 DUP1 DUP4 SLOAD DIV MUL DUP4 MSTORE SWAP2 PUSH1 0x20 ADD SWAP2 PUSH2 0x2E0 JUMP JUMPDEST DUP3 ADD SWAP2 SWAP1 PUSH1 0x0 MSTORE PUSH1 0x20 PUSH1 0x0 KECCAK256 SWAP1 JUMPDEST DUP2 SLOAD DUP2 MSTORE SWAP1 PUSH1 0x1 ADD SWAP1 PUSH1 0x20 ADD DUP1 DUP4 GT PUSH2 0x2C3 JUMPI DUP3 SWAP1 SUB PUSH1 0x1F AND DUP3 ADD SWAP2 JUMPDEST POP POP POP POP POP DUP2 MSTORE PUSH1 0x20 ADD PUSH1 0x3 DUP3 ADD SLOAD DUP2 MSTORE PUSH1 0x20 ADD PUSH1 0x4 DUP3 ADD SLOAD DUP2 MSTORE POP POP SWAP1 POP PUSH1 0x40 MLOAD DUP1 PUSH1 0xA0 ADD PUSH1 0x40 MSTORE DUP1 DUP6 DUP2 MSTORE PUSH1 0x20 ADD DUP5 DUP2 MSTORE PUSH1 0x20 ADD DUP4 DUP2 MSTORE PUSH1 0x20 ADD TIMESTAMP DUP2 MSTORE PUSH1 0x20 ADD NUMBER DUP2 MSTORE POP PUSH1 0x0 DUP1 DUP3 ADD MLOAD DUP2 PUSH1 0x0 ADD SWAP1 DUP2 PUSH2 0x33C SWAP2 SWAP1 PUSH2 0x8CE JUMP JUMPDEST POP PUSH1 0x20 DUP3 ADD MLOAD DUP2 PUSH1 0x1 ADD SSTORE PUSH1 0x40 DUP3 ADD MLOAD DUP2 PUSH1 0x2 ADD SWAP1 DUP2 PUSH2 0x35C SWAP2 SWAP1 PUSH2 0x8CE JUMP JUMPDEST POP PUSH1 0x60 DUP3 ADD MLOAD DUP2 PUSH1 0x3 ADD SSTORE PUSH1 0x80 DUP3 ADD MLOAD DUP2 PUSH1 0x4 ADD SSTORE SWAP1 POP POP PUSH32 0x4A1CBFA04EACE479EB13D28F6867709D037921777D59DF22460479084AC9216E DUP2 PUSH1 0x0 TIMESTAMP NUMBER PUSH1 0x40 MLOAD PUSH2 0x3AA SWAP5 SWAP4 SWAP3 SWAP2 SWAP1 PUSH2 0xBC9 JUMP JUMPDEST PUSH1 0x40 MLOAD DUP1 SWAP2 SUB SWAP1 LOG1 POP POP POP POP JUMP JUMPDEST PUSH1 0x0 DUP2 MLOAD SWAP1 POP SWAP2 SWAP1 POP JUMP JUMPDEST PUSH1 0x0 DUP3 DUP3 MSTORE PUSH1 0x20 DUP3 ADD SWAP1 POP SWAP3 SWAP2 POP POP JUMP JUMPDEST PUSH1 0x0 JUMPDEST DUP4 DUP2 LT ISZERO PUSH2 0x3F2 JUMPI DUP1 DUP3 ADD MLOAD DUP2 DUP5 ADD MSTORE PUSH1 0x20 DUP2 ADD SWAP1 POP PUSH2 0x3D7 JUMP JUMPDEST PUSH1 0x0 DUP5 DUP5 ADD MSTORE POP POP POP POP JUMP JUMPDEST PUSH1 0x0 PUSH1 0x1F NOT PUSH1 0x1F DUP4 ADD AND SWAP1 POP SWAP2 SWAP1 POP JUMP JUMPDEST PUSH1 0x0 PUSH2 0x41A DUP3 PUSH2 0x3B8 JUMP JUMPDEST PUSH2 0x424 DUP2 DUP6 PUSH2 0x3C3 JUMP JUMPDEST SWAP4 POP PUSH2 0x434 DUP2 DUP6 PUSH1 0x20 DUP7 ADD PUSH2 0x3D4 JUMP JUMPDEST PUSH2 0x43D DUP2 PUSH2 0x3FE JUMP JUMPDEST DUP5 ADD SWAP2 POP POP SWAP3 SWAP2 POP POP JUMP JUMPDEST PUSH1 0x0 DUP2 SWAP1 POP SWAP2 SWAP1 POP JUMP JUMPDEST PUSH2 0x45B DUP2 PUSH2 0x448 JUMP JUMPDEST DUP3 MSTORE POP POP JUMP JUMPDEST PUSH1 0x0 PUSH1 0xA0 DUP3 ADD SWAP1 POP DUP2 DUP2 SUB PUSH1 0x0 DUP4 ADD MSTORE PUSH2 0x47B DUP2 DUP9 PUSH2 0x40F JUMP JUMPDEST SWAP1 POP PUSH2 0x48A PUSH1 0x20 DUP4 ADD DUP8 PUSH2 0x452 JUMP JUMPDEST DUP2 DUP2 SUB PUSH1 0x40 DUP4 ADD MSTORE PUSH2 0x49C DUP2 DUP7 PUSH2 0x40F JUMP JUMPDEST SWAP1 POP PUSH2 0x4AB PUSH1 0x60 DUP4 ADD DUP6 PUSH2 0x452 JUMP JUMPDEST PUSH2 0x4B8 PUSH1 0x80 DUP4 ADD DUP5 PUSH2 0x452 JUMP JUMPDEST SWAP7 SWAP6 POP POP POP POP POP POP JUMP JUMPDEST PUSH1 0x0 PUSH1 0x40 MLOAD SWAP1 POP SWAP1 JUMP JUMPDEST PUSH1 0x0 DUP1 REVERT JUMPDEST PUSH1 0x0 DUP1 REVERT JUMPDEST PUSH1 0x0 DUP1 REVERT JUMPDEST PUSH1 0x0 DUP1 REVERT JUMPDEST PUSH32 0x4E487B7100000000000000000000000000000000000000000000000000000000 PUSH1 0x0 MSTORE PUSH1 0x41 PUSH1 0x4 MSTORE PUSH1 0x24 PUSH1 0x0 REVERT JUMPDEST PUSH2 0x518 DUP3 PUSH2 0x3FE JUMP JUMPDEST DUP2 ADD DUP2 DUP2 LT PUSH8 0xFFFFFFFFFFFFFFFF DUP3 GT OR ISZERO PUSH2 0x537 JUMPI PUSH2 0x536 PUSH2 0x4E0 JUMP JUMPDEST JUMPDEST DUP1 PUSH1 0x40 MSTORE POP POP POP JUMP JUMPDEST PUSH1 0x0 PUSH2 0x54A PUSH2 0x4C2 JUMP JUMPDEST SWAP1 POP PUSH2 0x556 DUP3 DUP3 PUSH2 0x50F JUMP JUMPDEST SWAP2 SWAP1 POP JUMP JUMPDEST PUSH1 0x0 PUSH8 0xFFFFFFFFFFFFFFFF DUP3 GT ISZERO PUSH2 0x576 JUMPI PUSH2 0x575 PUSH2 0x4E0 JUMP JUMPDEST JUMPDEST PUSH2 0x57F DUP3 PUSH2 0x3FE JUMP JUMPDEST SWAP1 POP PUSH1 0x20 DUP2 ADD SWAP1 POP SWAP2 SWAP1 POP JUMP JUMPDEST DUP3 DUP2 DUP4 CALLDATACOPY PUSH1 0x0 DUP4 DUP4 ADD MSTORE POP POP POP JUMP JUMPDEST PUSH1 0x0 PUSH2 0x5AE PUSH2 0x5A9 DUP5 PUSH2 0x55B JUMP JUMPDEST PUSH2 0x540 JUMP JUMPDEST SWAP1 POP DUP3 DUP2 MSTORE PUSH1 0x20 DUP2 ADD DUP5 DUP5 DUP5 ADD GT ISZERO PUSH2 0x5CA JUMPI PUSH2 0x5C9 PUSH2 0x4DB JUMP JUMPDEST JUMPDEST PUSH2 0x5D5 DUP5 DUP3 DUP6 PUSH2 0x58C JUMP JUMPDEST POP SWAP4 SWAP3 POP POP POP JUMP JUMPDEST PUSH1 0x0 DUP3 PUSH1 0x1F DUP4 ADD SLT PUSH2 0x5F2 JUMPI PUSH2 0x5F1 PUSH2 0x4D6 JUMP JUMPDEST JUMPDEST DUP2 CALLDATALOAD PUSH2 0x602 DUP5 DUP3 PUSH1 0x20 DUP7 ADD PUSH2 0x59B JUMP JUMPDEST SWAP2 POP POP SWAP3 SWAP2 POP POP JUMP JUMPDEST PUSH2 0x614 DUP2 PUSH2 0x448 JUMP JUMPDEST DUP2 EQ PUSH2 0x61F JUMPI PUSH1 0x0 DUP1 REVERT JUMPDEST POP JUMP JUMPDEST PUSH1 0x0 DUP2 CALLDATALOAD SWAP1 POP PUSH2 0x631 DUP2 PUSH2 0x60B JUMP JUMPDEST SWAP3 SWAP2 POP POP JUMP JUMPDEST PUSH1 0x0 DUP1 PUSH1 0x0 PUSH1 0x60 DUP5 DUP7 SUB SLT ISZERO PUSH2 0x650 JUMPI PUSH2 0x64F PUSH2 0x4CC JUMP JUMPDEST JUMPDEST PUSH1 0x0 DUP5 ADD CALLDATALOAD PUSH8 0xFFFFFFFFFFFFFFFF DUP2 GT ISZERO PUSH2 0x66E JUMPI PUSH2 0x66D PUSH2 0x4D1 JUMP JUMPDEST JUMPDEST PUSH2 0x67A DUP7 DUP3 DUP8 ADD PUSH2 0x5DD JUMP JUMPDEST SWAP4 POP POP PUSH1 0x20 PUSH2 0x68B DUP7 DUP3 DUP8 ADD PUSH2 0x622 JUMP JUMPDEST SWAP3 POP POP PUSH1 0x40 DUP5 ADD CALLDATALOAD PUSH8 0xFFFFFFFFFFFFFFFF DUP2 GT ISZERO PUSH2 0x6AC JUMPI PUSH2 0x6AB PUSH2 0x4D1 JUMP JUMPDEST JUMPDEST PUSH2 0x6B8 DUP7 DUP3 DUP8 ADD PUSH2 0x5DD JUMP JUMPDEST SWAP2 POP POP SWAP3 POP SWAP3 POP SWAP3 JUMP JUMPDEST PUSH32 0x4E487B7100000000000000000000000000000000000000000000000000000000 PUSH1 0x0 MSTORE PUSH1 0x22 PUSH1 0x4 MSTORE PUSH1 0x24 PUSH1 0x0 REVERT JUMPDEST PUSH1 0x0 PUSH1 0x2 DUP3 DIV SWAP1 POP PUSH1 0x1 DUP3 AND DUP1 PUSH2 0x709 JUMPI PUSH1 0x7F DUP3 AND SWAP2 POP JUMPDEST PUSH1 0x20 DUP3 LT DUP2 SUB PUSH2 0x71C JUMPI PUSH2 0x71B PUSH2 0x6C2 JUMP JUMPDEST JUMPDEST POP SWAP2 SWAP1 POP JUMP JUMPDEST PUSH1 0x0 DUP2 SWAP1 POP DUP2 PUSH1 0x0 MSTORE PUSH1 0x20 PUSH1 0x0 KECCAK256 SWAP1 POP SWAP2 SWAP1 POP JUMP JUMPDEST PUSH1 0x0 PUSH1 0x20 PUSH1 0x1F DUP4 ADD DIV SWAP1 POP SWAP2 SWAP1 POP JUMP JUMPDEST PUSH1 0x0 DUP3 DUP3 SHL SWAP1 POP SWAP3 SWAP2 POP POP JUMP JUMPDEST PUSH1 0x0 PUSH1 0x8 DUP4 MUL PUSH2 0x784 PUSH32 0xFFFFFFFFFFFFFFFFFFFFFFFFFFFFFFFFFFFFFFFFFFFFFFFFFFFFFFFFFFFFFFFF DUP3 PUSH2 0x747 JUMP JUMPDEST PUSH2 0x78E DUP7 DUP4 PUSH2 0x747 JUMP JUMPDEST SWAP6 POP DUP1 NOT DUP5 AND SWAP4 POP DUP1 DUP7 AND DUP5 OR SWAP3 POP POP POP SWAP4 SWAP3 POP POP POP JUMP JUMPDEST PUSH1 0x0 DUP2 SWAP1 POP SWAP2 SWAP1 POP JUMP JUMPDEST PUSH1 0x0 PUSH2 0x7CB PUSH2 0x7C6 PUSH2 0x7C1 DUP5 PUSH2 0x448 JUMP JUMPDEST PUSH2 0x7A6 JUMP JUMPDEST PUSH2 0x448 JUMP JUMPDEST SWAP1 POP SWAP2 SWAP1 POP JUMP JUMPDEST PUSH1 0x0 DUP2 SWAP1 POP SWAP2 SWAP1 POP JUMP JUMPDEST PUSH2 0x7E5 DUP4 PUSH2 0x7B0 JUMP JUMPDEST PUSH2 0x7F9 PUSH2 0x7F1 DUP3 PUSH2 0x7D2 JUMP JUMPDEST DUP5 DUP5 SLOAD PUSH2 0x754 JUMP JUMPDEST DUP3 SSTORE POP POP POP POP JUMP JUMPDEST PUSH1 0x0 SWAP1 JUMP JUMPDEST PUSH2 0x80E PUSH2 0x801 JUMP JUMPDEST PUSH2 0x819 DUP2 DUP5 DUP5 PUSH2 0x7DC JUMP JUMPDEST POP POP POP JUMP JUMPDEST JUMPDEST DUP2 DUP2 LT ISZERO PUSH2 0x83D JUMPI PUSH2 0x832 PUSH1 0x0 DUP3 PUSH2 0x806 JUMP JUMPDEST PUSH1 0x1 DUP2 ADD SWAP1 POP PUSH2 0x81F JUMP JUMPDEST POP POP JUMP JUMPDEST PUSH1 0x1F DUP3 GT ISZERO PUSH2 0x882 JUMPI PUSH2 0x853 DUP2 PUSH2 0x722 JUMP JUMPDEST PUSH2 0x85C DUP5 PUSH2 0x737 JUMP JUMPDEST DUP2 ADD PUSH1 0x20 DUP6 LT ISZERO PUSH2 0x86B JUMPI DUP2 SWAP1 POP JUMPDEST PUSH2 0x87F PUSH2 0x877 DUP6 PUSH2 0x737 JUMP JUMPDEST DUP4 ADD DUP3 PUSH2 0x81E JUMP JUMPDEST POP POP JUMPDEST POP POP POP JUMP JUMPDEST PUSH1 0x0 DUP3 DUP3 SHR SWAP1 POP SWAP3 SWAP2 POP POP JUMP JUMPDEST PUSH1 0x0 PUSH2 0x8A5 PUSH1 0x0 NOT DUP5 PUSH1 0x8 MUL PUSH2 0x887 JUMP JUMPDEST NOT DUP1 DUP4 AND SWAP2 POP POP SWAP3 SWAP2 POP POP JUMP JUMPDEST PUSH1 0x0 PUSH2 0x8BE DUP4 DUP4 PUSH2 0x894 JUMP JUMPDEST SWAP2 POP DUP3 PUSH1 0x2 MUL DUP3 OR SWAP1 POP SWAP3 SWAP2 POP POP JUMP JUMPDEST PUSH2 0x8D7 DUP3 PUSH2 0x3B8 JUMP JUMPDEST PUSH8 0xFFFFFFFFFFFFFFFF DUP2 GT ISZERO PUSH2 0x8F0 JUMPI PUSH2 0x8EF PUSH2 0x4E0 JUMP JUMPDEST JUMPDEST PUSH2 0x8FA DUP3 SLOAD PUSH2 0x6F1 JUMP JUMPDEST PUSH2 0x905 DUP3 DUP3 DUP6 PUSH2 0x841 JUMP JUMPDEST PUSH1 0x0 PUSH1 0x20 SWAP1 POP PUSH1 0x1F DUP4 GT PUSH1 0x1 DUP2 EQ PUSH2 0x938 JUMPI PUSH1 0x0 DUP5 ISZERO PUSH2 0x926 JUMPI DUP3 DUP8 ADD MLOAD SWAP1 POP JUMPDEST PUSH2 0x930 DUP6 DUP3 PUSH2 0x8B2 JUMP JUMPDEST DUP7 SSTORE POP PUSH2 0x998 JUMP JUMPDEST PUSH1 0x1F NOT DUP5 AND PUSH2 0x946 DUP7 PUSH2 0x722 JUMP JUMPDEST PUSH1 0x0 JUMPDEST DUP3 DUP2 LT ISZERO PUSH2 0x96E JUMPI DUP5 DUP10 ADD MLOAD DUP3 SSTORE PUSH1 0x1 DUP3 ADD SWAP2 POP PUSH1 0x20 DUP6 ADD SWAP5 POP PUSH1 0x20 DUP2 ADD SWAP1 POP PUSH2 0x949 JUMP JUMPDEST DUP7 DUP4 LT ISZERO PUSH2 0x98B JUMPI DUP5 DUP10 ADD MLOAD PUSH2 0x987 PUSH1 0x1F DUP10 AND DUP3 PUSH2 0x894 JUMP JUMPDEST DUP4 SSTORE POP JUMPDEST PUSH1 0x1 PUSH1 0x2 DUP9 MUL ADD DUP9 SSTORE POP POP POP JUMPDEST POP POP POP POP POP POP JUMP JUMPDEST PUSH1 0x0 DUP3 DUP3 MSTORE PUSH1 0x20 DUP3 ADD SWAP1 POP SWAP3 SWAP2 POP POP JUMP JUMPDEST PUSH1 0x0 PUSH2 0x9BC DUP3 PUSH2 0x3B8 JUMP JUMPDEST PUSH2 0x9C6 DUP2 DUP6 PUSH2 0x9A0 JUMP JUMPDEST SWAP4 POP PUSH2 0x9D6 DUP2 DUP6 PUSH1 0x20 DUP7 ADD PUSH2 0x3D4 JUMP JUMPDEST PUSH2 0x9DF DUP2 PUSH2 0x3FE JUMP JUMPDEST DUP5 ADD SWAP2 POP POP SWAP3 SWAP2 POP POP JUMP JUMPDEST PUSH2 0x9F3 DUP2 PUSH2 0x448 JUMP JUMPDEST DUP3 MSTORE POP POP JUMP JUMPDEST PUSH1 0x0 PUSH1 0xA0 DUP4 ADD PUSH1 0x0 DUP4 ADD MLOAD DUP5 DUP3 SUB PUSH1 0x0 DUP7 ADD MSTORE PUSH2 0xA16 DUP3 DUP3 PUSH2 0x9B1 JUMP JUMPDEST SWAP2 POP POP PUSH1 0x20 DUP4 ADD MLOAD PUSH2 0xA2B PUSH1 0x20 DUP7 ADD DUP3 PUSH2 0x9EA JUMP JUMPDEST POP PUSH1 0x40 DUP4 ADD MLOAD DUP5 DUP3 SUB PUSH1 0x40 DUP7 ADD MSTORE PUSH2 0xA43 DUP3 DUP3 PUSH2 0x9B1 JUMP JUMPDEST SWAP2 POP POP PUSH1 0x60 DUP4 ADD MLOAD PUSH2 0xA58 PUSH1 0x60 DUP7 ADD DUP3 PUSH2 0x9EA JUMP JUMPDEST POP PUSH1 0x80 DUP4 ADD MLOAD PUSH2 0xA6B PUSH1 0x80 DUP7 ADD DUP3 PUSH2 0x9EA JUMP JUMPDEST POP DUP1 SWAP2 POP POP SWAP3 SWAP2 POP POP JUMP JUMPDEST PUSH1 0x0 DUP2 SLOAD PUSH2 0xA83 DUP2 PUSH2 0x6F1 JUMP JUMPDEST PUSH2 0xA8D DUP2 DUP7 PUSH2 0x9A0 JUMP JUMPDEST SWAP5 POP PUSH1 0x1 DUP3 AND PUSH1 0x0 DUP2 EQ PUSH2 0xAA8 JUMPI PUSH1 0x1 DUP2 EQ PUSH2 0xABE JUMPI PUSH2 0xAF1 JUMP JUMPDEST PUSH1 0xFF NOT DUP4 AND DUP7 MSTORE DUP2 ISZERO ISZERO PUSH1 0x20 MUL DUP7 ADD SWAP4 POP PUSH2 0xAF1 JUMP JUMPDEST PUSH2 0xAC7 DUP6 PUSH2 0x722 JUMP JUMPDEST PUSH1 0x0 JUMPDEST DUP4 DUP2 LT ISZERO PUSH2 0xAE9 JUMPI DUP2 SLOAD DUP2 DUP10 ADD MSTORE PUSH1 0x1 DUP3 ADD SWAP2 POP PUSH1 0x20 DUP2 ADD SWAP1 POP PUSH2 0xACA JUMP JUMPDEST DUP1 DUP9 ADD SWAP6 POP POP POP JUMPDEST POP POP POP SWAP3 SWAP2 POP POP JUMP JUMPDEST PUSH1 0x0 DUP2 PUSH1 0x0 SHR SWAP1 POP SWAP2 SWAP1 POP JUMP JUMPDEST PUSH1 0x0 DUP2 SWAP1 POP SWAP2 SWAP1 POP JUMP JUMPDEST PUSH1 0x0 PUSH2 0xB24 PUSH2 0xB1F DUP4 PUSH2 0xAFA JUMP JUMPDEST PUSH2 0xB07 JUMP JUMPDEST SWAP1 POP SWAP2 SWAP1 POP JUMP JUMPDEST PUSH1 0x0 PUSH1 0xA0 DUP4 ADD PUSH1 0x0 DUP1 DUP5 ADD DUP6 DUP4 SUB PUSH1 0x0 DUP8 ADD MSTORE PUSH2 0xB48 DUP4 DUP3 PUSH2 0xA76 JUMP JUMPDEST SWAP3 POP POP PUSH1 0x1 DUP5 ADD SLOAD SWAP1 POP PUSH2 0xB5B DUP2 PUSH2 0xB11 JUMP JUMPDEST PUSH2 0xB68 PUSH1 0x20 DUP8 ADD DUP3 PUSH2 0x9EA JUMP JUMPDEST POP PUSH1 0x2 DUP5 ADD DUP6 DUP4 SUB PUSH1 0x40 DUP8 ADD MSTORE PUSH2 0xB7F DUP4 DUP3 PUSH2 0xA76 JUMP JUMPDEST SWAP3 POP POP PUSH1 0x3 DUP5 ADD SLOAD SWAP1 POP PUSH2 0xB92 DUP2 PUSH2 0xB11 JUMP JUMPDEST PUSH2 0xB9F PUSH1 0x60 DUP8 ADD DUP3 PUSH2 0x9EA JUMP JUMPDEST POP PUSH1 0x4 DUP5 ADD SLOAD SWAP1 POP PUSH2 0xBB0 DUP2 PUSH2 0xB11 JUMP JUMPDEST PUSH2 0xBBD PUSH1 0x80 DUP8 ADD DUP3 PUSH2 0x9EA JUMP JUMPDEST POP DUP2 SWAP3 POP POP POP SWAP3 SWAP2 POP POP JUMP JUMPDEST PUSH1 0x0 PUSH1 0x80 DUP3 ADD SWAP1 POP DUP2 DUP2 SUB PUSH1 0x0 DUP4 ADD MSTORE PUSH2 0xBE3 DUP2 DUP8 PUSH2 0x9F9 JUMP JUMPDEST SWAP1 POP DUP2 DUP2 SUB PUSH1 0x20 DUP4 ADD MSTORE PUSH2 0xBF7 DUP2 DUP7 PUSH2 0xB2B JUMP JUMPDEST SWAP1 POP PUSH2 0xC06 PUSH1 0x40 DUP4 ADD DUP6 PUSH2 0x452 JUMP JUMPDEST PUSH2 0xC13 PUSH1 0x60 DUP4 ADD DUP5 PUSH2 0x452 JUMP JUMPDEST SWAP6 SWAP5 POP POP POP POP POP JUMP INVALID LOG2 PUSH5 0x6970667358 0x22 SLT KECCAK256 0x2B 0xB1 LOG0 0xB3 RETURN 0xD PUSH14 0x8D31B6DE12780D6C7E3236E3D334 0xDA DUP8 0xE6 DUP9 0xDE SWAP9 NOT PUSH11 0x2F68F664736F6C63430008 SLT STOP CALLER "
				},
				"gasEstimates": {
					"creation": {
						"codeDepositCost": "630800",
						"executionCost": "664",
						"totalCost": "631464"
					},
					"external": {
						"P1()": "infinite",
						"setPersonInfo(string,uint256,string)": "infinite"
					}
				},
				"methodIdentifiers": {
					"P1()": "1de21b76",
					"setPersonInfo(string,uint256,string)": "a665fc76"
				}
			},
			"storageLayout": {
				"storage": [
					{
						"astId": 15,
						"contract": "contracts/11-8 Events8.sol:PersonContract",
						"label": "P1",
						"offset": 0,
						"slot": "0",
						"type": "t_struct(PersonInfo)12_storage"
					}
				],
				"types": {
					"t_string_storage": {
						"encoding": "bytes",
						"label": "string",
						"numberOfBytes": "32"
					},
					"t_struct(PersonInfo)12_storage": {
						"encoding": "inplace",
						"label": "struct PersonContract.PersonInfo",
						"members": [
							{
								"astId": 3,
								"contract": "contracts/11-8 Events8.sol:PersonContract",
								"label": "name",
								"offset": 0,
								"slot": "0",
								"type": "t_string_storage"
							},
							{
								"astId": 5,
								"contract": "contracts/11-8 Events8.sol:PersonContract",
								"label": "age",
								"offset": 0,
								"slot": "1",
								"type": "t_uint256"
							},
							{
								"astId": 7,
								"contract": "contracts/11-8 Events8.sol:PersonContract",
								"label": "department",
								"offset": 0,
								"slot": "2",
								"type": "t_string_storage"
							},
							{
								"astId": 9,
								"contract": "contracts/11-8 Events8.sol:PersonContract",
								"label": "Timestamp",
								"offset": 0,
								"slot": "3",
								"type": "t_uint256"
							},
							{
								"astId": 11,
								"contract": "contracts/11-8 Events8.sol:PersonContract",
								"label": "blockNo",
								"offset": 0,
								"slot": "4",
								"type": "t_uint256"
							}
						],
						"numberOfBytes": "160"
					},
					"t_uint256": {
						"encoding": "inplace",
						"label": "uint256",
						"numberOfBytes": "32"
					}
				}
			},
			"userdoc": {
				"kind": "user",
				"methods": {},
				"version": 1
			}
		}
	}
}