{
	"contracts/andGate.sol": {
		"andGate": {
			"abi": [
				{
					"inputs": [],
					"name": "AndOneFF",
					"outputs": [
						{
							"internalType": "bool",
							"name": "",
							"type": "bool"
						}
					],
					"stateMutability": "view",
					"type": "function"
				},
				{
					"inputs": [],
					"name": "AndOneFT",
					"outputs": [
						{
							"internalType": "bool",
							"name": "",
							"type": "bool"
						}
					],
					"stateMutability": "view",
					"type": "function"
				},
				{
					"inputs": [],
					"name": "AndOneTOneF",
					"outputs": [
						{
							"internalType": "bool",
							"name": "",
							"type": "bool"
						}
					],
					"stateMutability": "view",
					"type": "function"
				},
				{
					"inputs": [],
					"name": "AndOneTT",
					"outputs": [
						{
							"internalType": "bool",
							"name": "",
							"type": "bool"
						}
					],
					"stateMutability": "view",
					"type": "function"
				},
				{
					"inputs": [],
					"name": "_bool",
					"outputs": [
						{
							"internalType": "bool",
							"name": "",
							"type": "bool"
						}
					],
					"stateMutability": "view",
					"type": "function"
				}
			],
			"devdoc": {
				"kind": "dev",
				"methods": {},
				"version": 1
			},
			"evm": {
				"assembly": "    /* \"contracts/andGate.sol\":59:420  contract andGate {... */\n  mstore(0x40, 0x80)\n    /* \"contracts/andGate.sol\":99:103  true */\n  0x01\n    /* \"contracts/andGate.sol\":79:103  bool public _bool = true */\n  0x00\n  dup1\n  0x0100\n  exp\n  dup2\n  sload\n  dup2\n  0xff\n  mul\n  not\n  and\n  swap1\n  dup4\n  iszero\n  iszero\n  mul\n  or\n  swap1\n  sstore\n  pop\n    /* \"contracts/andGate.sol\":59:420  contract andGate {... */\n  callvalue\n  dup1\n  iszero\n  tag_1\n  jumpi\n  0x00\n  dup1\n  revert\ntag_1:\n  pop\n  dataSize(sub_0)\n  dup1\n  dataOffset(sub_0)\n  0x00\n  codecopy\n  0x00\n  return\nstop\n\nsub_0: assembly {\n        /* \"contracts/andGate.sol\":59:420  contract andGate {... */\n      mstore(0x40, 0x80)\n      callvalue\n      dup1\n      iszero\n      tag_1\n      jumpi\n      0x00\n      dup1\n      revert\n    tag_1:\n      pop\n      jumpi(tag_2, lt(calldatasize, 0x04))\n      shr(0xe0, calldataload(0x00))\n      dup1\n      0x14bf5835\n      eq\n      tag_3\n      jumpi\n      dup1\n      0x26451f09\n      eq\n      tag_4\n      jumpi\n      dup1\n      0x9e6ba9c2\n      eq\n      tag_5\n      jumpi\n      dup1\n      0xbb07caa9\n      eq\n      tag_6\n      jumpi\n      dup1\n      0xed91fb9b\n      eq\n      tag_7\n      jumpi\n    tag_2:\n      0x00\n      dup1\n      revert\n        /* \"contracts/andGate.sol\":266:340  function AndOneTT() public view returns (bool) {... */\n    tag_3:\n      tag_8\n      tag_9\n      jump\t// in\n    tag_8:\n      mload(0x40)\n      tag_10\n      swap2\n      swap1\n      tag_11\n      jump\t// in\n    tag_10:\n      mload(0x40)\n      dup1\n      swap2\n      sub\n      swap1\n      return\n        /* \"contracts/andGate.sol\":188:264  function AndOneFF() public view returns (bool) {... */\n    tag_4:\n      tag_12\n      tag_13\n      jump\t// in\n    tag_12:\n      mload(0x40)\n      tag_14\n      swap2\n      swap1\n      tag_11\n      jump\t// in\n    tag_14:\n      mload(0x40)\n      dup1\n      swap2\n      sub\n      swap1\n      return\n        /* \"contracts/andGate.sol\":79:103  bool public _bool = true */\n    tag_5:\n      tag_15\n      tag_16\n      jump\t// in\n    tag_15:\n      mload(0x40)\n      tag_17\n      swap2\n      swap1\n      tag_11\n      jump\t// in\n    tag_17:\n      mload(0x40)\n      dup1\n      swap2\n      sub\n      swap1\n      return\n        /* \"contracts/andGate.sol\":342:417  function AndOneFT() public view returns (bool) {... */\n    tag_6:\n      tag_18\n      tag_19\n      jump\t// in\n    tag_18:\n      mload(0x40)\n      tag_20\n      swap2\n      swap1\n      tag_11\n      jump\t// in\n    tag_20:\n      mload(0x40)\n      dup1\n      swap2\n      sub\n      swap1\n      return\n        /* \"contracts/andGate.sol\":108:186  function AndOneTOneF() public view returns (bool) {... */\n    tag_7:\n      tag_21\n      tag_22\n      jump\t// in\n    tag_21:\n      mload(0x40)\n      tag_23\n      swap2\n      swap1\n      tag_11\n      jump\t// in\n    tag_23:\n      mload(0x40)\n      dup1\n      swap2\n      sub\n      swap1\n      return\n        /* \"contracts/andGate.sol\":266:340  function AndOneTT() public view returns (bool) {... */\n    tag_9:\n        /* \"contracts/andGate.sol\":307:311  bool */\n      0x00\n        /* \"contracts/andGate.sol\":323:328  _bool */\n      dup1\n      0x00\n      swap1\n      sload\n      swap1\n      0x0100\n      exp\n      swap1\n      div\n      0xff\n      and\n        /* \"contracts/andGate.sol\":323:337  _bool && _bool */\n      dup1\n      iszero\n      tag_25\n      jumpi\n      pop\n        /* \"contracts/andGate.sol\":332:337  _bool */\n      0x00\n      dup1\n      sload\n      swap1\n      0x0100\n      exp\n      swap1\n      div\n      0xff\n      and\n        /* \"contracts/andGate.sol\":323:337  _bool && _bool */\n    tag_25:\n        /* \"contracts/andGate.sol\":316:337  return _bool && _bool */\n      swap1\n      pop\n        /* \"contracts/andGate.sol\":266:340  function AndOneTT() public view returns (bool) {... */\n      swap1\n      jump\t// out\n        /* \"contracts/andGate.sol\":188:264  function AndOneFF() public view returns (bool) {... */\n    tag_13:\n        /* \"contracts/andGate.sol\":229:233  bool */\n      0x00\n        /* \"contracts/andGate.sol\":246:251  _bool */\n      dup1\n      0x00\n      swap1\n      sload\n      swap1\n      0x0100\n      exp\n      swap1\n      div\n      0xff\n      and\n        /* \"contracts/andGate.sol\":245:251  !_bool */\n      iszero\n        /* \"contracts/andGate.sol\":245:261  !_bool && !_bool */\n      dup1\n      iszero\n      tag_27\n      jumpi\n      pop\n        /* \"contracts/andGate.sol\":256:261  _bool */\n      0x00\n      dup1\n      sload\n      swap1\n      0x0100\n      exp\n      swap1\n      div\n      0xff\n      and\n        /* \"contracts/andGate.sol\":255:261  !_bool */\n      iszero\n        /* \"contracts/andGate.sol\":245:261  !_bool && !_bool */\n    tag_27:\n        /* \"contracts/andGate.sol\":238:261  return !_bool && !_bool */\n      swap1\n      pop\n        /* \"contracts/andGate.sol\":188:264  function AndOneFF() public view returns (bool) {... */\n      swap1\n      jump\t// out\n        /* \"contracts/andGate.sol\":79:103  bool public _bool = true */\n    tag_16:\n      0x00\n      dup1\n      sload\n      swap1\n      0x0100\n      exp\n      swap1\n      div\n      0xff\n      and\n      dup2\n      jump\t// out\n        /* \"contracts/andGate.sol\":342:417  function AndOneFT() public view returns (bool) {... */\n    tag_19:\n        /* \"contracts/andGate.sol\":383:387  bool */\n      0x00\n        /* \"contracts/andGate.sol\":400:405  _bool */\n      dup1\n      0x00\n      swap1\n      sload\n      swap1\n      0x0100\n      exp\n      swap1\n      div\n      0xff\n      and\n        /* \"contracts/andGate.sol\":399:405  !_bool */\n      iszero\n        /* \"contracts/andGate.sol\":399:414  !_bool && _bool */\n      dup1\n      iszero\n      tag_29\n      jumpi\n      pop\n        /* \"contracts/andGate.sol\":409:414  _bool */\n      0x00\n      dup1\n      sload\n      swap1\n      0x0100\n      exp\n      swap1\n      div\n      0xff\n      and\n        /* \"contracts/andGate.sol\":399:414  !_bool && _bool */\n    tag_29:\n        /* \"contracts/andGate.sol\":392:414  return !_bool && _bool */\n      swap1\n      pop\n        /* \"contracts/andGate.sol\":342:417  function AndOneFT() public view returns (bool) {... */\n      swap1\n      jump\t// out\n        /* \"contracts/andGate.sol\":108:186  function AndOneTOneF() public view returns (bool) {... */\n    tag_22:\n        /* \"contracts/andGate.sol\":152:156  bool */\n      0x00\n        /* \"contracts/andGate.sol\":168:173  _bool */\n      dup1\n      0x00\n      swap1\n      sload\n      swap1\n      0x0100\n      exp\n      swap1\n      div\n      0xff\n      and\n        /* \"contracts/andGate.sol\":168:183  _bool && !_bool */\n      dup1\n      iszero\n      tag_31\n      jumpi\n      pop\n        /* \"contracts/andGate.sol\":178:183  _bool */\n      0x00\n      dup1\n      sload\n      swap1\n      0x0100\n      exp\n      swap1\n      div\n      0xff\n      and\n        /* \"contracts/andGate.sol\":177:183  !_bool */\n      iszero\n        /* \"contracts/andGate.sol\":168:183  _bool && !_bool */\n    tag_31:\n        /* \"contracts/andGate.sol\":161:183  return _bool && !_bool */\n      swap1\n      pop\n        /* \"contracts/andGate.sol\":108:186  function AndOneTOneF() public view returns (bool) {... */\n      swap1\n      jump\t// out\n        /* \"#utility.yul\":7:97   */\n    tag_32:\n        /* \"#utility.yul\":41:48   */\n      0x00\n        /* \"#utility.yul\":84:89   */\n      dup2\n        /* \"#utility.yul\":77:90   */\n      iszero\n        /* \"#utility.yul\":70:91   */\n      iszero\n        /* \"#utility.yul\":59:91   */\n      swap1\n      pop\n        /* \"#utility.yul\":7:97   */\n      swap2\n      swap1\n      pop\n      jump\t// out\n        /* \"#utility.yul\":103:212   */\n    tag_33:\n        /* \"#utility.yul\":184:205   */\n      tag_37\n        /* \"#utility.yul\":199:204   */\n      dup2\n        /* \"#utility.yul\":184:205   */\n      tag_32\n      jump\t// in\n    tag_37:\n        /* \"#utility.yul\":179:182   */\n      dup3\n        /* \"#utility.yul\":172:206   */\n      mstore\n        /* \"#utility.yul\":103:212   */\n      pop\n      pop\n      jump\t// out\n        /* \"#utility.yul\":218:428   */\n    tag_11:\n        /* \"#utility.yul\":305:309   */\n      0x00\n        /* \"#utility.yul\":343:345   */\n      0x20\n        /* \"#utility.yul\":332:341   */\n      dup3\n        /* \"#utility.yul\":328:346   */\n      add\n        /* \"#utility.yul\":320:346   */\n      swap1\n      pop\n        /* \"#utility.yul\":356:421   */\n      tag_39\n        /* \"#utility.yul\":418:419   */\n      0x00\n        /* \"#utility.yul\":407:416   */\n      dup4\n        /* \"#utility.yul\":403:420   */\n      add\n        /* \"#utility.yul\":394:400   */\n      dup5\n        /* \"#utility.yul\":356:421   */\n      tag_33\n      jump\t// in\n    tag_39:\n        /* \"#utility.yul\":218:428   */\n      swap3\n      swap2\n      pop\n      pop\n      jump\t// out\n\n    auxdata: 0xa26469706673582212207be384010a16c083a1bd5286065984ba343dd86cbcaceaba9dc8199d1cfb010e64736f6c63430008120033\n}\n",
				"bytecode": {
					"linkReferences": {},
					"object": "608060405260016000806101000a81548160ff02191690831515021790555034801561002a57600080fd5b506102238061003a6000396000f3fe608060405234801561001057600080fd5b50600436106100575760003560e01c806314bf58351461005c57806326451f091461007a5780639e6ba9c214610098578063bb07caa9146100b6578063ed91fb9b146100d4575b600080fd5b6100646100f2565b60405161007191906101d2565b60405180910390f35b61008261011e565b60405161008f91906101d2565b60405180910390f35b6100a061014c565b6040516100ad91906101d2565b60405180910390f35b6100be61015d565b6040516100cb91906101d2565b60405180910390f35b6100dc61018a565b6040516100e991906101d2565b60405180910390f35b60008060009054906101000a900460ff168015610119575060008054906101000a900460ff165b905090565b60008060009054906101000a900460ff16158015610147575060008054906101000a900460ff16155b905090565b60008054906101000a900460ff1681565b60008060009054906101000a900460ff16158015610185575060008054906101000a900460ff165b905090565b60008060009054906101000a900460ff1680156101b2575060008054906101000a900460ff16155b905090565b60008115159050919050565b6101cc816101b7565b82525050565b60006020820190506101e760008301846101c3565b9291505056fea26469706673582212207be384010a16c083a1bd5286065984ba343dd86cbcaceaba9dc8199d1cfb010e64736f6c63430008120033",
					"opcodes": "PUSH1 0x80 PUSH1 0x40 MSTORE PUSH1 0x1 PUSH1 0x0 DUP1 PUSH2 0x100 EXP DUP2 SLOAD DUP2 PUSH1 0xFF MUL NOT AND SWAP1 DUP4 ISZERO ISZERO MUL OR SWAP1 SSTORE POP CALLVALUE DUP1 ISZERO PUSH2 0x2A JUMPI PUSH1 0x0 DUP1 REVERT JUMPDEST POP PUSH2 0x223 DUP1 PUSH2 0x3A PUSH1 0x0 CODECOPY PUSH1 0x0 RETURN INVALID PUSH1 0x80 PUSH1 0x40 MSTORE CALLVALUE DUP1 ISZERO PUSH2 0x10 JUMPI PUSH1 0x0 DUP1 REVERT JUMPDEST POP PUSH1 0x4 CALLDATASIZE LT PUSH2 0x57 JUMPI PUSH1 0x0 CALLDATALOAD PUSH1 0xE0 SHR DUP1 PUSH4 0x14BF5835 EQ PUSH2 0x5C JUMPI DUP1 PUSH4 0x26451F09 EQ PUSH2 0x7A JUMPI DUP1 PUSH4 0x9E6BA9C2 EQ PUSH2 0x98 JUMPI DUP1 PUSH4 0xBB07CAA9 EQ PUSH2 0xB6 JUMPI DUP1 PUSH4 0xED91FB9B EQ PUSH2 0xD4 JUMPI JUMPDEST PUSH1 0x0 DUP1 REVERT JUMPDEST PUSH2 0x64 PUSH2 0xF2 JUMP JUMPDEST PUSH1 0x40 MLOAD PUSH2 0x71 SWAP2 SWAP1 PUSH2 0x1D2 JUMP JUMPDEST PUSH1 0x40 MLOAD DUP1 SWAP2 SUB SWAP1 RETURN JUMPDEST PUSH2 0x82 PUSH2 0x11E JUMP JUMPDEST PUSH1 0x40 MLOAD PUSH2 0x8F SWAP2 SWAP1 PUSH2 0x1D2 JUMP JUMPDEST PUSH1 0x40 MLOAD DUP1 SWAP2 SUB SWAP1 RETURN JUMPDEST PUSH2 0xA0 PUSH2 0x14C JUMP JUMPDEST PUSH1 0x40 MLOAD PUSH2 0xAD SWAP2 SWAP1 PUSH2 0x1D2 JUMP JUMPDEST PUSH1 0x40 MLOAD DUP1 SWAP2 SUB SWAP1 RETURN JUMPDEST PUSH2 0xBE PUSH2 0x15D JUMP JUMPDEST PUSH1 0x40 MLOAD PUSH2 0xCB SWAP2 SWAP1 PUSH2 0x1D2 JUMP JUMPDEST PUSH1 0x40 MLOAD DUP1 SWAP2 SUB SWAP1 RETURN JUMPDEST PUSH2 0xDC PUSH2 0x18A JUMP JUMPDEST PUSH1 0x40 MLOAD PUSH2 0xE9 SWAP2 SWAP1 PUSH2 0x1D2 JUMP JUMPDEST PUSH1 0x40 MLOAD DUP1 SWAP2 SUB SWAP1 RETURN JUMPDEST PUSH1 0x0 DUP1 PUSH1 0x0 SWAP1 SLOAD SWAP1 PUSH2 0x100 EXP SWAP1 DIV PUSH1 0xFF AND DUP1 ISZERO PUSH2 0x119 JUMPI POP PUSH1 0x0 DUP1 SLOAD SWAP1 PUSH2 0x100 EXP SWAP1 DIV PUSH1 0xFF AND JUMPDEST SWAP1 POP SWAP1 JUMP JUMPDEST PUSH1 0x0 DUP1 PUSH1 0x0 SWAP1 SLOAD SWAP1 PUSH2 0x100 EXP SWAP1 DIV PUSH1 0xFF AND ISZERO DUP1 ISZERO PUSH2 0x147 JUMPI POP PUSH1 0x0 DUP1 SLOAD SWAP1 PUSH2 0x100 EXP SWAP1 DIV PUSH1 0xFF AND ISZERO JUMPDEST SWAP1 POP SWAP1 JUMP JUMPDEST PUSH1 0x0 DUP1 SLOAD SWAP1 PUSH2 0x100 EXP SWAP1 DIV PUSH1 0xFF AND DUP2 JUMP JUMPDEST PUSH1 0x0 DUP1 PUSH1 0x0 SWAP1 SLOAD SWAP1 PUSH2 0x100 EXP SWAP1 DIV PUSH1 0xFF AND ISZERO DUP1 ISZERO PUSH2 0x185 JUMPI POP PUSH1 0x0 DUP1 SLOAD SWAP1 PUSH2 0x100 EXP SWAP1 DIV PUSH1 0xFF AND JUMPDEST SWAP1 POP SWAP1 JUMP JUMPDEST PUSH1 0x0 DUP1 PUSH1 0x0 SWAP1 SLOAD SWAP1 PUSH2 0x100 EXP SWAP1 DIV PUSH1 0xFF AND DUP1 ISZERO PUSH2 0x1B2 JUMPI POP PUSH1 0x0 DUP1 SLOAD SWAP1 PUSH2 0x100 EXP SWAP1 DIV PUSH1 0xFF AND ISZERO JUMPDEST SWAP1 POP SWAP1 JUMP JUMPDEST PUSH1 0x0 DUP2 ISZERO ISZERO SWAP1 POP SWAP2 SWAP1 POP JUMP JUMPDEST PUSH2 0x1CC DUP2 PUSH2 0x1B7 JUMP JUMPDEST DUP3 MSTORE POP POP JUMP JUMPDEST PUSH1 0x0 PUSH1 0x20 DUP3 ADD SWAP1 POP PUSH2 0x1E7 PUSH1 0x0 DUP4 ADD DUP5 PUSH2 0x1C3 JUMP JUMPDEST SWAP3 SWAP2 POP POP JUMP INVALID LOG2 PUSH5 0x6970667358 0x22 SLT KECCAK256 PUSH28 0xE384010A16C083A1BD5286065984BA343DD86CBCACEABA9DC8199D1C 0xFB ADD 0xE PUSH5 0x736F6C6343 STOP ADDMOD SLT STOP CALLER "
				},
				"gasEstimates": {
					"creation": {
						"codeDepositCost": "109400",
						"executionCost": "24426",
						"totalCost": "133826"
					},
					"external": {
						"AndOneFF()": "4643",
						"AndOneFT()": "4684",
						"AndOneTOneF()": "4706",
						"AndOneTT()": "4615",
						"_bool()": "2490"
					}
				},
				"methodIdentifiers": {
					"AndOneFF()": "26451f09",
					"AndOneFT()": "bb07caa9",
					"AndOneTOneF()": "ed91fb9b",
					"AndOneTT()": "14bf5835",
					"_bool()": "9e6ba9c2"
				}
			},
			"storageLayout": {
				"storage": [
					{
						"astId": 4,
						"contract": "contracts/andGate.sol:andGate",
						"label": "_bool",
						"offset": 0,
						"slot": "0",
						"type": "t_bool"
					}
				],
				"types": {
					"t_bool": {
						"encoding": "inplace",
						"label": "bool",
						"numberOfBytes": "1"
					}
				}
			},
			"userdoc": {
				"kind": "user",
				"methods": {},
				"version": 1
			}
		}
	}
}