{
	"contracts/10-8 Events3.sol": {
		"eventsLab": {
			"abi": [
				{
					"anonymous": false,
					"inputs": [
						{
							"components": [
								{
									"internalType": "string",
									"name": "name",
									"type": "string"
								},
								{
									"internalType": "uint256",
									"name": "age",
									"type": "uint256"
								},
								{
									"internalType": "address",
									"name": "WalletAdr",
									"type": "address"
								}
							],
							"indexed": false,
							"internalType": "struct eventsLab.PersonInfo",
							"name": "oldValue",
							"type": "tuple"
						},
						{
							"components": [
								{
									"internalType": "string",
									"name": "name",
									"type": "string"
								},
								{
									"internalType": "uint256",
									"name": "age",
									"type": "uint256"
								},
								{
									"internalType": "address",
									"name": "WalletAdr",
									"type": "address"
								}
							],
							"indexed": false,
							"internalType": "struct eventsLab.PersonInfo",
							"name": "newValue",
							"type": "tuple"
						},
						{
							"indexed": false,
							"internalType": "uint256",
							"name": "timestamp",
							"type": "uint256"
						},
						{
							"indexed": false,
							"internalType": "uint256",
							"name": "blockNumber",
							"type": "uint256"
						}
					],
					"name": "Update",
					"type": "event"
				},
				{
					"inputs": [],
					"name": "P1",
					"outputs": [
						{
							"internalType": "string",
							"name": "name",
							"type": "string"
						},
						{
							"internalType": "uint256",
							"name": "age",
							"type": "uint256"
						},
						{
							"internalType": "address",
							"name": "WalletAdr",
							"type": "address"
						}
					],
					"stateMutability": "view",
					"type": "function"
				},
				{
					"inputs": [
						{
							"internalType": "string",
							"name": "_n",
							"type": "string"
						},
						{
							"internalType": "uint256",
							"name": "_a",
							"type": "uint256"
						},
						{
							"internalType": "address",
							"name": "_addr",
							"type": "address"
						}
					],
					"name": "setPersonInfo",
					"outputs": [],
					"stateMutability": "nonpayable",
					"type": "function"
				}
			],
			"devdoc": {
				"kind": "dev",
				"methods": {},
				"version": 1
			},
			"evm": {
				"assembly": "    /* \"contracts/10-8 Events3.sol\":59:557  contract eventsLab{... */\n  mstore(0x40, 0x80)\n  callvalue\n  dup1\n  iszero\n  tag_1\n  jumpi\n  0x00\n  dup1\n  revert\ntag_1:\n  pop\n  dataSize(sub_0)\n  dup1\n  dataOffset(sub_0)\n  0x00\n  codecopy\n  0x00\n  return\nstop\n\nsub_0: assembly {\n        /* \"contracts/10-8 Events3.sol\":59:557  contract eventsLab{... */\n      mstore(0x40, 0x80)\n      callvalue\n      dup1\n      iszero\n      tag_1\n      jumpi\n      0x00\n      dup1\n      revert\n    tag_1:\n      pop\n      jumpi(tag_2, lt(calldatasize, 0x04))\n      shr(0xe0, calldataload(0x00))\n      dup1\n      0x1de21b76\n      eq\n      tag_3\n      jumpi\n      dup1\n      0x463bbb12\n      eq\n      tag_4\n      jumpi\n    tag_2:\n      0x00\n      dup1\n      revert\n        /* \"contracts/10-8 Events3.sol\":160:180  PersonInfo public P1 */\n    tag_3:\n      tag_5\n      tag_6\n      jump\t// in\n    tag_5:\n      mload(0x40)\n      tag_7\n      swap4\n      swap3\n      swap2\n      swap1\n      tag_8\n      jump\t// in\n    tag_7:\n      mload(0x40)\n      dup1\n      swap2\n      sub\n      swap1\n      return\n        /* \"contracts/10-8 Events3.sol\":334:553  function setPersonInfo(string memory _n,uint _a,address _addr) public { ... */\n    tag_4:\n      tag_9\n      0x04\n      dup1\n      calldatasize\n      sub\n      dup2\n      add\n      swap1\n      tag_10\n      swap2\n      swap1\n      tag_11\n      jump\t// in\n    tag_10:\n      tag_12\n      jump\t// in\n    tag_9:\n      stop\n        /* \"contracts/10-8 Events3.sol\":160:180  PersonInfo public P1 */\n    tag_6:\n      0x00\n      dup1\n      0x00\n      add\n      dup1\n      sload\n      tag_13\n      swap1\n      tag_14\n      jump\t// in\n    tag_13:\n      dup1\n      0x1f\n      add\n      0x20\n      dup1\n      swap2\n      div\n      mul\n      0x20\n      add\n      mload(0x40)\n      swap1\n      dup2\n      add\n      0x40\n      mstore\n      dup1\n      swap3\n      swap2\n      swap1\n      dup2\n      dup2\n      mstore\n      0x20\n      add\n      dup3\n      dup1\n      sload\n      tag_15\n      swap1\n      tag_14\n      jump\t// in\n    tag_15:\n      dup1\n      iszero\n      tag_16\n      jumpi\n      dup1\n      0x1f\n      lt\n      tag_17\n      jumpi\n      0x0100\n      dup1\n      dup4\n      sload\n      div\n      mul\n      dup4\n      mstore\n      swap2\n      0x20\n      add\n      swap2\n      jump(tag_16)\n    tag_17:\n      dup3\n      add\n      swap2\n      swap1\n      0x00\n      mstore\n      keccak256(0x00, 0x20)\n      swap1\n    tag_18:\n      dup2\n      sload\n      dup2\n      mstore\n      swap1\n      0x01\n      add\n      swap1\n      0x20\n      add\n      dup1\n      dup4\n      gt\n      tag_18\n      jumpi\n      dup3\n      swap1\n      sub\n      0x1f\n      and\n      dup3\n      add\n      swap2\n    tag_16:\n      pop\n      pop\n      pop\n      pop\n      pop\n      swap1\n      dup1\n      0x01\n      add\n      sload\n      swap1\n      dup1\n      0x02\n      add\n      0x00\n      swap1\n      sload\n      swap1\n      0x0100\n      exp\n      swap1\n      div\n      0xffffffffffffffffffffffffffffffffffffffff\n      and\n      swap1\n      pop\n      dup4\n      jump\t// out\n        /* \"contracts/10-8 Events3.sol\":334:553  function setPersonInfo(string memory _n,uint _a,address _addr) public { ... */\n    tag_12:\n        /* \"contracts/10-8 Events3.sol\":416:442  PersonInfo memory oldValue */\n      0x00\n        /* \"contracts/10-8 Events3.sol\":445:447  P1 */\n      dup1\n        /* \"contracts/10-8 Events3.sol\":416:447  PersonInfo memory oldValue = P1 */\n      mload(0x40)\n      dup1\n      0x60\n      add\n      0x40\n      mstore\n      swap1\n      dup2\n      0x00\n      dup3\n      add\n      dup1\n      sload\n      tag_20\n      swap1\n      tag_14\n      jump\t// in\n    tag_20:\n      dup1\n      0x1f\n      add\n      0x20\n      dup1\n      swap2\n      div\n      mul\n      0x20\n      add\n      mload(0x40)\n      swap1\n      dup2\n      add\n      0x40\n      mstore\n      dup1\n      swap3\n      swap2\n      swap1\n      dup2\n      dup2\n      mstore\n      0x20\n      add\n      dup3\n      dup1\n      sload\n      tag_21\n      swap1\n      tag_14\n      jump\t// in\n    tag_21:\n      dup1\n      iszero\n      tag_22\n      jumpi\n      dup1\n      0x1f\n      lt\n      tag_23\n      jumpi\n      0x0100\n      dup1\n      dup4\n      sload\n      div\n      mul\n      dup4\n      mstore\n      swap2\n      0x20\n      add\n      swap2\n      jump(tag_22)\n    tag_23:\n      dup3\n      add\n      swap2\n      swap1\n      0x00\n      mstore\n      keccak256(0x00, 0x20)\n      swap1\n    tag_24:\n      dup2\n      sload\n      dup2\n      mstore\n      swap1\n      0x01\n      add\n      swap1\n      0x20\n      add\n      dup1\n      dup4\n      gt\n      tag_24\n      jumpi\n      dup3\n      swap1\n      sub\n      0x1f\n      and\n      dup3\n      add\n      swap2\n    tag_22:\n      pop\n      pop\n      pop\n      pop\n      pop\n      dup2\n      mstore\n      0x20\n      add\n      0x01\n      dup3\n      add\n      sload\n      dup2\n      mstore\n      0x20\n      add\n      0x02\n      dup3\n      add\n      0x00\n      swap1\n      sload\n      swap1\n      0x0100\n      exp\n      swap1\n      div\n      0xffffffffffffffffffffffffffffffffffffffff\n      and\n      0xffffffffffffffffffffffffffffffffffffffff\n      and\n      0xffffffffffffffffffffffffffffffffffffffff\n      and\n      dup2\n      mstore\n      pop\n      pop\n      swap1\n      pop\n        /* \"contracts/10-8 Events3.sol\":462:485  PersonInfo(_n,_a,_addr) */\n      mload(0x40)\n      dup1\n      0x60\n      add\n      0x40\n      mstore\n      dup1\n        /* \"contracts/10-8 Events3.sol\":473:475  _n */\n      dup6\n        /* \"contracts/10-8 Events3.sol\":462:485  PersonInfo(_n,_a,_addr) */\n      dup2\n      mstore\n      0x20\n      add\n        /* \"contracts/10-8 Events3.sol\":476:478  _a */\n      dup5\n        /* \"contracts/10-8 Events3.sol\":462:485  PersonInfo(_n,_a,_addr) */\n      dup2\n      mstore\n      0x20\n      add\n        /* \"contracts/10-8 Events3.sol\":479:484  _addr */\n      dup4\n        /* \"contracts/10-8 Events3.sol\":462:485  PersonInfo(_n,_a,_addr) */\n      0xffffffffffffffffffffffffffffffffffffffff\n      and\n      dup2\n      mstore\n      pop\n        /* \"contracts/10-8 Events3.sol\":459:461  P1 */\n      0x00\n        /* \"contracts/10-8 Events3.sol\":459:485  P1=PersonInfo(_n,_a,_addr) */\n      dup1\n      dup3\n      add\n      mload\n      dup2\n      0x00\n      add\n      swap1\n      dup2\n      tag_25\n      swap2\n      swap1\n      tag_26\n      jump\t// in\n    tag_25:\n      pop\n      0x20\n      dup3\n      add\n      mload\n      dup2\n      0x01\n      add\n      sstore\n      0x40\n      dup3\n      add\n      mload\n      dup2\n      0x02\n      add\n      exp(0x0100, 0x00)\n      dup2\n      sload\n      dup2\n      0xffffffffffffffffffffffffffffffffffffffff\n      mul\n      not\n      and\n      swap1\n      dup4\n      0xffffffffffffffffffffffffffffffffffffffff\n      and\n      mul\n      or\n      swap1\n      sstore\n      pop\n      swap1\n      pop\n      pop\n        /* \"contracts/10-8 Events3.sol\":497:548  Update(oldValue, P1, block.timestamp, block.number) */\n      0x032523892b5c148afc3b7d70d5f8028d5d2091114003a2674c88e907fba08537\n        /* \"contracts/10-8 Events3.sol\":504:512  oldValue */\n      dup2\n        /* \"contracts/10-8 Events3.sol\":514:516  P1 */\n      0x00\n        /* \"contracts/10-8 Events3.sol\":518:533  block.timestamp */\n      timestamp\n        /* \"contracts/10-8 Events3.sol\":535:547  block.number */\n      number\n        /* \"contracts/10-8 Events3.sol\":497:548  Update(oldValue, P1, block.timestamp, block.number) */\n      mload(0x40)\n      tag_27\n      swap5\n      swap4\n      swap3\n      swap2\n      swap1\n      tag_28\n      jump\t// in\n    tag_27:\n      mload(0x40)\n      dup1\n      swap2\n      sub\n      swap1\n      log1\n        /* \"contracts/10-8 Events3.sol\":404:553  { ... */\n      pop\n        /* \"contracts/10-8 Events3.sol\":334:553  function setPersonInfo(string memory _n,uint _a,address _addr) public { ... */\n      pop\n      pop\n      pop\n      jump\t// out\n        /* \"#utility.yul\":7:106   */\n    tag_29:\n        /* \"#utility.yul\":59:65   */\n      0x00\n        /* \"#utility.yul\":93:98   */\n      dup2\n        /* \"#utility.yul\":87:99   */\n      mload\n        /* \"#utility.yul\":77:99   */\n      swap1\n      pop\n        /* \"#utility.yul\":7:106   */\n      swap2\n      swap1\n      pop\n      jump\t// out\n        /* \"#utility.yul\":112:281   */\n    tag_30:\n        /* \"#utility.yul\":196:207   */\n      0x00\n        /* \"#utility.yul\":230:236   */\n      dup3\n        /* \"#utility.yul\":225:228   */\n      dup3\n        /* \"#utility.yul\":218:237   */\n      mstore\n        /* \"#utility.yul\":270:274   */\n      0x20\n        /* \"#utility.yul\":265:268   */\n      dup3\n        /* \"#utility.yul\":261:275   */\n      add\n        /* \"#utility.yul\":246:275   */\n      swap1\n      pop\n        /* \"#utility.yul\":112:281   */\n      swap3\n      swap2\n      pop\n      pop\n      jump\t// out\n        /* \"#utility.yul\":287:533   */\n    tag_31:\n        /* \"#utility.yul\":368:369   */\n      0x00\n        /* \"#utility.yul\":378:491   */\n    tag_87:\n        /* \"#utility.yul\":392:398   */\n      dup4\n        /* \"#utility.yul\":389:390   */\n      dup2\n        /* \"#utility.yul\":386:399   */\n      lt\n        /* \"#utility.yul\":378:491   */\n      iszero\n      tag_89\n      jumpi\n        /* \"#utility.yul\":477:478   */\n      dup1\n        /* \"#utility.yul\":472:475   */\n      dup3\n        /* \"#utility.yul\":468:479   */\n      add\n        /* \"#utility.yul\":462:480   */\n      mload\n        /* \"#utility.yul\":458:459   */\n      dup2\n        /* \"#utility.yul\":453:456   */\n      dup5\n        /* \"#utility.yul\":449:460   */\n      add\n        /* \"#utility.yul\":442:481   */\n      mstore\n        /* \"#utility.yul\":414:416   */\n      0x20\n        /* \"#utility.yul\":411:412   */\n      dup2\n        /* \"#utility.yul\":407:417   */\n      add\n        /* \"#utility.yul\":402:417   */\n      swap1\n      pop\n        /* \"#utility.yul\":378:491   */\n      jump(tag_87)\n    tag_89:\n        /* \"#utility.yul\":525:526   */\n      0x00\n        /* \"#utility.yul\":516:522   */\n      dup5\n        /* \"#utility.yul\":511:514   */\n      dup5\n        /* \"#utility.yul\":507:523   */\n      add\n        /* \"#utility.yul\":500:527   */\n      mstore\n        /* \"#utility.yul\":349:533   */\n      pop\n        /* \"#utility.yul\":287:533   */\n      pop\n      pop\n      pop\n      jump\t// out\n        /* \"#utility.yul\":539:641   */\n    tag_32:\n        /* \"#utility.yul\":580:586   */\n      0x00\n        /* \"#utility.yul\":631:633   */\n      0x1f\n        /* \"#utility.yul\":627:634   */\n      not\n        /* \"#utility.yul\":622:624   */\n      0x1f\n        /* \"#utility.yul\":615:620   */\n      dup4\n        /* \"#utility.yul\":611:625   */\n      add\n        /* \"#utility.yul\":607:635   */\n      and\n        /* \"#utility.yul\":597:635   */\n      swap1\n      pop\n        /* \"#utility.yul\":539:641   */\n      swap2\n      swap1\n      pop\n      jump\t// out\n        /* \"#utility.yul\":647:1024   */\n    tag_33:\n        /* \"#utility.yul\":735:738   */\n      0x00\n        /* \"#utility.yul\":763:802   */\n      tag_92\n        /* \"#utility.yul\":796:801   */\n      dup3\n        /* \"#utility.yul\":763:802   */\n      tag_29\n      jump\t// in\n    tag_92:\n        /* \"#utility.yul\":818:889   */\n      tag_93\n        /* \"#utility.yul\":882:888   */\n      dup2\n        /* \"#utility.yul\":877:880   */\n      dup6\n        /* \"#utility.yul\":818:889   */\n      tag_30\n      jump\t// in\n    tag_93:\n        /* \"#utility.yul\":811:889   */\n      swap4\n      pop\n        /* \"#utility.yul\":898:963   */\n      tag_94\n        /* \"#utility.yul\":956:962   */\n      dup2\n        /* \"#utility.yul\":951:954   */\n      dup6\n        /* \"#utility.yul\":944:948   */\n      0x20\n        /* \"#utility.yul\":937:942   */\n      dup7\n        /* \"#utility.yul\":933:949   */\n      add\n        /* \"#utility.yul\":898:963   */\n      tag_31\n      jump\t// in\n    tag_94:\n        /* \"#utility.yul\":988:1017   */\n      tag_95\n        /* \"#utility.yul\":1010:1016   */\n      dup2\n        /* \"#utility.yul\":988:1017   */\n      tag_32\n      jump\t// in\n    tag_95:\n        /* \"#utility.yul\":983:986   */\n      dup5\n        /* \"#utility.yul\":979:1018   */\n      add\n        /* \"#utility.yul\":972:1018   */\n      swap2\n      pop\n        /* \"#utility.yul\":739:1024   */\n      pop\n        /* \"#utility.yul\":647:1024   */\n      swap3\n      swap2\n      pop\n      pop\n      jump\t// out\n        /* \"#utility.yul\":1030:1107   */\n    tag_34:\n        /* \"#utility.yul\":1067:1074   */\n      0x00\n        /* \"#utility.yul\":1096:1101   */\n      dup2\n        /* \"#utility.yul\":1085:1101   */\n      swap1\n      pop\n        /* \"#utility.yul\":1030:1107   */\n      swap2\n      swap1\n      pop\n      jump\t// out\n        /* \"#utility.yul\":1113:1231   */\n    tag_35:\n        /* \"#utility.yul\":1200:1224   */\n      tag_98\n        /* \"#utility.yul\":1218:1223   */\n      dup2\n        /* \"#utility.yul\":1200:1224   */\n      tag_34\n      jump\t// in\n    tag_98:\n        /* \"#utility.yul\":1195:1198   */\n      dup3\n        /* \"#utility.yul\":1188:1225   */\n      mstore\n        /* \"#utility.yul\":1113:1231   */\n      pop\n      pop\n      jump\t// out\n        /* \"#utility.yul\":1237:1363   */\n    tag_36:\n        /* \"#utility.yul\":1274:1281   */\n      0x00\n        /* \"#utility.yul\":1314:1356   */\n      0xffffffffffffffffffffffffffffffffffffffff\n        /* \"#utility.yul\":1307:1312   */\n      dup3\n        /* \"#utility.yul\":1303:1357   */\n      and\n        /* \"#utility.yul\":1292:1357   */\n      swap1\n      pop\n        /* \"#utility.yul\":1237:1363   */\n      swap2\n      swap1\n      pop\n      jump\t// out\n        /* \"#utility.yul\":1369:1465   */\n    tag_37:\n        /* \"#utility.yul\":1406:1413   */\n      0x00\n        /* \"#utility.yul\":1435:1459   */\n      tag_101\n        /* \"#utility.yul\":1453:1458   */\n      dup3\n        /* \"#utility.yul\":1435:1459   */\n      tag_36\n      jump\t// in\n    tag_101:\n        /* \"#utility.yul\":1424:1459   */\n      swap1\n      pop\n        /* \"#utility.yul\":1369:1465   */\n      swap2\n      swap1\n      pop\n      jump\t// out\n        /* \"#utility.yul\":1471:1589   */\n    tag_38:\n        /* \"#utility.yul\":1558:1582   */\n      tag_103\n        /* \"#utility.yul\":1576:1581   */\n      dup2\n        /* \"#utility.yul\":1558:1582   */\n      tag_37\n      jump\t// in\n    tag_103:\n        /* \"#utility.yul\":1553:1556   */\n      dup3\n        /* \"#utility.yul\":1546:1583   */\n      mstore\n        /* \"#utility.yul\":1471:1589   */\n      pop\n      pop\n      jump\t// out\n        /* \"#utility.yul\":1595:2128   */\n    tag_8:\n        /* \"#utility.yul\":1764:1768   */\n      0x00\n        /* \"#utility.yul\":1802:1804   */\n      0x60\n        /* \"#utility.yul\":1791:1800   */\n      dup3\n        /* \"#utility.yul\":1787:1805   */\n      add\n        /* \"#utility.yul\":1779:1805   */\n      swap1\n      pop\n        /* \"#utility.yul\":1851:1860   */\n      dup2\n        /* \"#utility.yul\":1845:1849   */\n      dup2\n        /* \"#utility.yul\":1841:1861   */\n      sub\n        /* \"#utility.yul\":1837:1838   */\n      0x00\n        /* \"#utility.yul\":1826:1835   */\n      dup4\n        /* \"#utility.yul\":1822:1839   */\n      add\n        /* \"#utility.yul\":1815:1862   */\n      mstore\n        /* \"#utility.yul\":1879:1957   */\n      tag_105\n        /* \"#utility.yul\":1952:1956   */\n      dup2\n        /* \"#utility.yul\":1943:1949   */\n      dup7\n        /* \"#utility.yul\":1879:1957   */\n      tag_33\n      jump\t// in\n    tag_105:\n        /* \"#utility.yul\":1871:1957   */\n      swap1\n      pop\n        /* \"#utility.yul\":1967:2039   */\n      tag_106\n        /* \"#utility.yul\":2035:2037   */\n      0x20\n        /* \"#utility.yul\":2024:2033   */\n      dup4\n        /* \"#utility.yul\":2020:2038   */\n      add\n        /* \"#utility.yul\":2011:2017   */\n      dup6\n        /* \"#utility.yul\":1967:2039   */\n      tag_35\n      jump\t// in\n    tag_106:\n        /* \"#utility.yul\":2049:2121   */\n      tag_107\n        /* \"#utility.yul\":2117:2119   */\n      0x40\n        /* \"#utility.yul\":2106:2115   */\n      dup4\n        /* \"#utility.yul\":2102:2120   */\n      add\n        /* \"#utility.yul\":2093:2099   */\n      dup5\n        /* \"#utility.yul\":2049:2121   */\n      tag_38\n      jump\t// in\n    tag_107:\n        /* \"#utility.yul\":1595:2128   */\n      swap5\n      swap4\n      pop\n      pop\n      pop\n      pop\n      jump\t// out\n        /* \"#utility.yul\":2134:2209   */\n    tag_39:\n        /* \"#utility.yul\":2167:2173   */\n      0x00\n        /* \"#utility.yul\":2200:2202   */\n      0x40\n        /* \"#utility.yul\":2194:2203   */\n      mload\n        /* \"#utility.yul\":2184:2203   */\n      swap1\n      pop\n        /* \"#utility.yul\":2134:2209   */\n      swap1\n      jump\t// out\n        /* \"#utility.yul\":2215:2332   */\n    tag_40:\n        /* \"#utility.yul\":2324:2325   */\n      0x00\n        /* \"#utility.yul\":2321:2322   */\n      dup1\n        /* \"#utility.yul\":2314:2326   */\n      revert\n        /* \"#utility.yul\":2338:2455   */\n    tag_41:\n        /* \"#utility.yul\":2447:2448   */\n      0x00\n        /* \"#utility.yul\":2444:2445   */\n      dup1\n        /* \"#utility.yul\":2437:2449   */\n      revert\n        /* \"#utility.yul\":2461:2578   */\n    tag_42:\n        /* \"#utility.yul\":2570:2571   */\n      0x00\n        /* \"#utility.yul\":2567:2568   */\n      dup1\n        /* \"#utility.yul\":2560:2572   */\n      revert\n        /* \"#utility.yul\":2584:2701   */\n    tag_43:\n        /* \"#utility.yul\":2693:2694   */\n      0x00\n        /* \"#utility.yul\":2690:2691   */\n      dup1\n        /* \"#utility.yul\":2683:2695   */\n      revert\n        /* \"#utility.yul\":2707:2887   */\n    tag_44:\n        /* \"#utility.yul\":2755:2832   */\n      0x4e487b7100000000000000000000000000000000000000000000000000000000\n        /* \"#utility.yul\":2752:2753   */\n      0x00\n        /* \"#utility.yul\":2745:2833   */\n      mstore\n        /* \"#utility.yul\":2852:2856   */\n      0x41\n        /* \"#utility.yul\":2849:2850   */\n      0x04\n        /* \"#utility.yul\":2842:2857   */\n      mstore\n        /* \"#utility.yul\":2876:2880   */\n      0x24\n        /* \"#utility.yul\":2873:2874   */\n      0x00\n        /* \"#utility.yul\":2866:2881   */\n      revert\n        /* \"#utility.yul\":2893:3174   */\n    tag_45:\n        /* \"#utility.yul\":2976:3003   */\n      tag_115\n        /* \"#utility.yul\":2998:3002   */\n      dup3\n        /* \"#utility.yul\":2976:3003   */\n      tag_32\n      jump\t// in\n    tag_115:\n        /* \"#utility.yul\":2968:2974   */\n      dup2\n        /* \"#utility.yul\":2964:3004   */\n      add\n        /* \"#utility.yul\":3106:3112   */\n      dup2\n        /* \"#utility.yul\":3094:3104   */\n      dup2\n        /* \"#utility.yul\":3091:3113   */\n      lt\n        /* \"#utility.yul\":3070:3088   */\n      0xffffffffffffffff\n        /* \"#utility.yul\":3058:3068   */\n      dup3\n        /* \"#utility.yul\":3055:3089   */\n      gt\n        /* \"#utility.yul\":3052:3114   */\n      or\n        /* \"#utility.yul\":3049:3137   */\n      iszero\n      tag_116\n      jumpi\n        /* \"#utility.yul\":3117:3135   */\n      tag_117\n      tag_44\n      jump\t// in\n    tag_117:\n        /* \"#utility.yul\":3049:3137   */\n    tag_116:\n        /* \"#utility.yul\":3157:3167   */\n      dup1\n        /* \"#utility.yul\":3153:3155   */\n      0x40\n        /* \"#utility.yul\":3146:3168   */\n      mstore\n        /* \"#utility.yul\":2936:3174   */\n      pop\n        /* \"#utility.yul\":2893:3174   */\n      pop\n      pop\n      jump\t// out\n        /* \"#utility.yul\":3180:3309   */\n    tag_46:\n        /* \"#utility.yul\":3214:3220   */\n      0x00\n        /* \"#utility.yul\":3241:3261   */\n      tag_119\n      tag_39\n      jump\t// in\n    tag_119:\n        /* \"#utility.yul\":3231:3261   */\n      swap1\n      pop\n        /* \"#utility.yul\":3270:3303   */\n      tag_120\n        /* \"#utility.yul\":3298:3302   */\n      dup3\n        /* \"#utility.yul\":3290:3296   */\n      dup3\n        /* \"#utility.yul\":3270:3303   */\n      tag_45\n      jump\t// in\n    tag_120:\n        /* \"#utility.yul\":3180:3309   */\n      swap2\n      swap1\n      pop\n      jump\t// out\n        /* \"#utility.yul\":3315:3623   */\n    tag_47:\n        /* \"#utility.yul\":3377:3381   */\n      0x00\n        /* \"#utility.yul\":3467:3485   */\n      0xffffffffffffffff\n        /* \"#utility.yul\":3459:3465   */\n      dup3\n        /* \"#utility.yul\":3456:3486   */\n      gt\n        /* \"#utility.yul\":3453:3509   */\n      iszero\n      tag_122\n      jumpi\n        /* \"#utility.yul\":3489:3507   */\n      tag_123\n      tag_44\n      jump\t// in\n    tag_123:\n        /* \"#utility.yul\":3453:3509   */\n    tag_122:\n        /* \"#utility.yul\":3527:3556   */\n      tag_124\n        /* \"#utility.yul\":3549:3555   */\n      dup3\n        /* \"#utility.yul\":3527:3556   */\n      tag_32\n      jump\t// in\n    tag_124:\n        /* \"#utility.yul\":3519:3556   */\n      swap1\n      pop\n        /* \"#utility.yul\":3611:3615   */\n      0x20\n        /* \"#utility.yul\":3605:3609   */\n      dup2\n        /* \"#utility.yul\":3601:3616   */\n      add\n        /* \"#utility.yul\":3593:3616   */\n      swap1\n      pop\n        /* \"#utility.yul\":3315:3623   */\n      swap2\n      swap1\n      pop\n      jump\t// out\n        /* \"#utility.yul\":3629:3775   */\n    tag_48:\n        /* \"#utility.yul\":3726:3732   */\n      dup3\n        /* \"#utility.yul\":3721:3724   */\n      dup2\n        /* \"#utility.yul\":3716:3719   */\n      dup4\n        /* \"#utility.yul\":3703:3733   */\n      calldatacopy\n        /* \"#utility.yul\":3767:3768   */\n      0x00\n        /* \"#utility.yul\":3758:3764   */\n      dup4\n        /* \"#utility.yul\":3753:3756   */\n      dup4\n        /* \"#utility.yul\":3749:3765   */\n      add\n        /* \"#utility.yul\":3742:3769   */\n      mstore\n        /* \"#utility.yul\":3629:3775   */\n      pop\n      pop\n      pop\n      jump\t// out\n        /* \"#utility.yul\":3781:4206   */\n    tag_49:\n        /* \"#utility.yul\":3859:3864   */\n      0x00\n        /* \"#utility.yul\":3884:3950   */\n      tag_127\n        /* \"#utility.yul\":3900:3949   */\n      tag_128\n        /* \"#utility.yul\":3942:3948   */\n      dup5\n        /* \"#utility.yul\":3900:3949   */\n      tag_47\n      jump\t// in\n    tag_128:\n        /* \"#utility.yul\":3884:3950   */\n      tag_46\n      jump\t// in\n    tag_127:\n        /* \"#utility.yul\":3875:3950   */\n      swap1\n      pop\n        /* \"#utility.yul\":3973:3979   */\n      dup3\n        /* \"#utility.yul\":3966:3971   */\n      dup2\n        /* \"#utility.yul\":3959:3980   */\n      mstore\n        /* \"#utility.yul\":4011:4015   */\n      0x20\n        /* \"#utility.yul\":4004:4009   */\n      dup2\n        /* \"#utility.yul\":4000:4016   */\n      add\n        /* \"#utility.yul\":4049:4052   */\n      dup5\n        /* \"#utility.yul\":4040:4046   */\n      dup5\n        /* \"#utility.yul\":4035:4038   */\n      dup5\n        /* \"#utility.yul\":4031:4047   */\n      add\n        /* \"#utility.yul\":4028:4053   */\n      gt\n        /* \"#utility.yul\":4025:4137   */\n      iszero\n      tag_129\n      jumpi\n        /* \"#utility.yul\":4056:4135   */\n      tag_130\n      tag_43\n      jump\t// in\n    tag_130:\n        /* \"#utility.yul\":4025:4137   */\n    tag_129:\n        /* \"#utility.yul\":4146:4200   */\n      tag_131\n        /* \"#utility.yul\":4193:4199   */\n      dup5\n        /* \"#utility.yul\":4188:4191   */\n      dup3\n        /* \"#utility.yul\":4183:4186   */\n      dup6\n        /* \"#utility.yul\":4146:4200   */\n      tag_48\n      jump\t// in\n    tag_131:\n        /* \"#utility.yul\":3865:4206   */\n      pop\n        /* \"#utility.yul\":3781:4206   */\n      swap4\n      swap3\n      pop\n      pop\n      pop\n      jump\t// out\n        /* \"#utility.yul\":4226:4566   */\n    tag_50:\n        /* \"#utility.yul\":4282:4287   */\n      0x00\n        /* \"#utility.yul\":4331:4334   */\n      dup3\n        /* \"#utility.yul\":4324:4328   */\n      0x1f\n        /* \"#utility.yul\":4316:4322   */\n      dup4\n        /* \"#utility.yul\":4312:4329   */\n      add\n        /* \"#utility.yul\":4308:4335   */\n      slt\n        /* \"#utility.yul\":4298:4420   */\n      tag_133\n      jumpi\n        /* \"#utility.yul\":4339:4418   */\n      tag_134\n      tag_42\n      jump\t// in\n    tag_134:\n        /* \"#utility.yul\":4298:4420   */\n    tag_133:\n        /* \"#utility.yul\":4456:4462   */\n      dup2\n        /* \"#utility.yul\":4443:4463   */\n      calldataload\n        /* \"#utility.yul\":4481:4560   */\n      tag_135\n        /* \"#utility.yul\":4556:4559   */\n      dup5\n        /* \"#utility.yul\":4548:4554   */\n      dup3\n        /* \"#utility.yul\":4541:4545   */\n      0x20\n        /* \"#utility.yul\":4533:4539   */\n      dup7\n        /* \"#utility.yul\":4529:4546   */\n      add\n        /* \"#utility.yul\":4481:4560   */\n      tag_49\n      jump\t// in\n    tag_135:\n        /* \"#utility.yul\":4472:4560   */\n      swap2\n      pop\n        /* \"#utility.yul\":4288:4566   */\n      pop\n        /* \"#utility.yul\":4226:4566   */\n      swap3\n      swap2\n      pop\n      pop\n      jump\t// out\n        /* \"#utility.yul\":4572:4694   */\n    tag_51:\n        /* \"#utility.yul\":4645:4669   */\n      tag_137\n        /* \"#utility.yul\":4663:4668   */\n      dup2\n        /* \"#utility.yul\":4645:4669   */\n      tag_34\n      jump\t// in\n    tag_137:\n        /* \"#utility.yul\":4638:4643   */\n      dup2\n        /* \"#utility.yul\":4635:4670   */\n      eq\n        /* \"#utility.yul\":4625:4688   */\n      tag_138\n      jumpi\n        /* \"#utility.yul\":4684:4685   */\n      0x00\n        /* \"#utility.yul\":4681:4682   */\n      dup1\n        /* \"#utility.yul\":4674:4686   */\n      revert\n        /* \"#utility.yul\":4625:4688   */\n    tag_138:\n        /* \"#utility.yul\":4572:4694   */\n      pop\n      jump\t// out\n        /* \"#utility.yul\":4700:4839   */\n    tag_52:\n        /* \"#utility.yul\":4746:4751   */\n      0x00\n        /* \"#utility.yul\":4784:4790   */\n      dup2\n        /* \"#utility.yul\":4771:4791   */\n      calldataload\n        /* \"#utility.yul\":4762:4791   */\n      swap1\n      pop\n        /* \"#utility.yul\":4800:4833   */\n      tag_140\n        /* \"#utility.yul\":4827:4832   */\n      dup2\n        /* \"#utility.yul\":4800:4833   */\n      tag_51\n      jump\t// in\n    tag_140:\n        /* \"#utility.yul\":4700:4839   */\n      swap3\n      swap2\n      pop\n      pop\n      jump\t// out\n        /* \"#utility.yul\":4845:4967   */\n    tag_53:\n        /* \"#utility.yul\":4918:4942   */\n      tag_142\n        /* \"#utility.yul\":4936:4941   */\n      dup2\n        /* \"#utility.yul\":4918:4942   */\n      tag_37\n      jump\t// in\n    tag_142:\n        /* \"#utility.yul\":4911:4916   */\n      dup2\n        /* \"#utility.yul\":4908:4943   */\n      eq\n        /* \"#utility.yul\":4898:4961   */\n      tag_143\n      jumpi\n        /* \"#utility.yul\":4957:4958   */\n      0x00\n        /* \"#utility.yul\":4954:4955   */\n      dup1\n        /* \"#utility.yul\":4947:4959   */\n      revert\n        /* \"#utility.yul\":4898:4961   */\n    tag_143:\n        /* \"#utility.yul\":4845:4967   */\n      pop\n      jump\t// out\n        /* \"#utility.yul\":4973:5112   */\n    tag_54:\n        /* \"#utility.yul\":5019:5024   */\n      0x00\n        /* \"#utility.yul\":5057:5063   */\n      dup2\n        /* \"#utility.yul\":5044:5064   */\n      calldataload\n        /* \"#utility.yul\":5035:5064   */\n      swap1\n      pop\n        /* \"#utility.yul\":5073:5106   */\n      tag_145\n        /* \"#utility.yul\":5100:5105   */\n      dup2\n        /* \"#utility.yul\":5073:5106   */\n      tag_53\n      jump\t// in\n    tag_145:\n        /* \"#utility.yul\":4973:5112   */\n      swap3\n      swap2\n      pop\n      pop\n      jump\t// out\n        /* \"#utility.yul\":5118:5917   */\n    tag_11:\n        /* \"#utility.yul\":5205:5211   */\n      0x00\n        /* \"#utility.yul\":5213:5219   */\n      dup1\n        /* \"#utility.yul\":5221:5227   */\n      0x00\n        /* \"#utility.yul\":5270:5272   */\n      0x60\n        /* \"#utility.yul\":5258:5267   */\n      dup5\n        /* \"#utility.yul\":5249:5256   */\n      dup7\n        /* \"#utility.yul\":5245:5268   */\n      sub\n        /* \"#utility.yul\":5241:5273   */\n      slt\n        /* \"#utility.yul\":5238:5357   */\n      iszero\n      tag_147\n      jumpi\n        /* \"#utility.yul\":5276:5355   */\n      tag_148\n      tag_40\n      jump\t// in\n    tag_148:\n        /* \"#utility.yul\":5238:5357   */\n    tag_147:\n        /* \"#utility.yul\":5424:5425   */\n      0x00\n        /* \"#utility.yul\":5413:5422   */\n      dup5\n        /* \"#utility.yul\":5409:5426   */\n      add\n        /* \"#utility.yul\":5396:5427   */\n      calldataload\n        /* \"#utility.yul\":5454:5472   */\n      0xffffffffffffffff\n        /* \"#utility.yul\":5446:5452   */\n      dup2\n        /* \"#utility.yul\":5443:5473   */\n      gt\n        /* \"#utility.yul\":5440:5557   */\n      iszero\n      tag_149\n      jumpi\n        /* \"#utility.yul\":5476:5555   */\n      tag_150\n      tag_41\n      jump\t// in\n    tag_150:\n        /* \"#utility.yul\":5440:5557   */\n    tag_149:\n        /* \"#utility.yul\":5581:5644   */\n      tag_151\n        /* \"#utility.yul\":5636:5643   */\n      dup7\n        /* \"#utility.yul\":5627:5633   */\n      dup3\n        /* \"#utility.yul\":5616:5625   */\n      dup8\n        /* \"#utility.yul\":5612:5634   */\n      add\n        /* \"#utility.yul\":5581:5644   */\n      tag_50\n      jump\t// in\n    tag_151:\n        /* \"#utility.yul\":5571:5644   */\n      swap4\n      pop\n        /* \"#utility.yul\":5367:5654   */\n      pop\n        /* \"#utility.yul\":5693:5695   */\n      0x20\n        /* \"#utility.yul\":5719:5772   */\n      tag_152\n        /* \"#utility.yul\":5764:5771   */\n      dup7\n        /* \"#utility.yul\":5755:5761   */\n      dup3\n        /* \"#utility.yul\":5744:5753   */\n      dup8\n        /* \"#utility.yul\":5740:5762   */\n      add\n        /* \"#utility.yul\":5719:5772   */\n      tag_52\n      jump\t// in\n    tag_152:\n        /* \"#utility.yul\":5709:5772   */\n      swap3\n      pop\n        /* \"#utility.yul\":5664:5782   */\n      pop\n        /* \"#utility.yul\":5821:5823   */\n      0x40\n        /* \"#utility.yul\":5847:5900   */\n      tag_153\n        /* \"#utility.yul\":5892:5899   */\n      dup7\n        /* \"#utility.yul\":5883:5889   */\n      dup3\n        /* \"#utility.yul\":5872:5881   */\n      dup8\n        /* \"#utility.yul\":5868:5890   */\n      add\n        /* \"#utility.yul\":5847:5900   */\n      tag_54\n      jump\t// in\n    tag_153:\n        /* \"#utility.yul\":5837:5900   */\n      swap2\n      pop\n        /* \"#utility.yul\":5792:5910   */\n      pop\n        /* \"#utility.yul\":5118:5917   */\n      swap3\n      pop\n      swap3\n      pop\n      swap3\n      jump\t// out\n        /* \"#utility.yul\":5923:6103   */\n    tag_55:\n        /* \"#utility.yul\":5971:6048   */\n      0x4e487b7100000000000000000000000000000000000000000000000000000000\n        /* \"#utility.yul\":5968:5969   */\n      0x00\n        /* \"#utility.yul\":5961:6049   */\n      mstore\n        /* \"#utility.yul\":6068:6072   */\n      0x22\n        /* \"#utility.yul\":6065:6066   */\n      0x04\n        /* \"#utility.yul\":6058:6073   */\n      mstore\n        /* \"#utility.yul\":6092:6096   */\n      0x24\n        /* \"#utility.yul\":6089:6090   */\n      0x00\n        /* \"#utility.yul\":6082:6097   */\n      revert\n        /* \"#utility.yul\":6109:6429   */\n    tag_14:\n        /* \"#utility.yul\":6153:6159   */\n      0x00\n        /* \"#utility.yul\":6190:6191   */\n      0x02\n        /* \"#utility.yul\":6184:6188   */\n      dup3\n        /* \"#utility.yul\":6180:6192   */\n      div\n        /* \"#utility.yul\":6170:6192   */\n      swap1\n      pop\n        /* \"#utility.yul\":6237:6238   */\n      0x01\n        /* \"#utility.yul\":6231:6235   */\n      dup3\n        /* \"#utility.yul\":6227:6239   */\n      and\n        /* \"#utility.yul\":6258:6276   */\n      dup1\n        /* \"#utility.yul\":6248:6329   */\n      tag_156\n      jumpi\n        /* \"#utility.yul\":6314:6318   */\n      0x7f\n        /* \"#utility.yul\":6306:6312   */\n      dup3\n        /* \"#utility.yul\":6302:6319   */\n      and\n        /* \"#utility.yul\":6292:6319   */\n      swap2\n      pop\n        /* \"#utility.yul\":6248:6329   */\n    tag_156:\n        /* \"#utility.yul\":6376:6378   */\n      0x20\n        /* \"#utility.yul\":6368:6374   */\n      dup3\n        /* \"#utility.yul\":6365:6379   */\n      lt\n        /* \"#utility.yul\":6345:6363   */\n      dup2\n        /* \"#utility.yul\":6342:6380   */\n      sub\n        /* \"#utility.yul\":6339:6423   */\n      tag_157\n      jumpi\n        /* \"#utility.yul\":6395:6413   */\n      tag_158\n      tag_55\n      jump\t// in\n    tag_158:\n        /* \"#utility.yul\":6339:6423   */\n    tag_157:\n        /* \"#utility.yul\":6160:6429   */\n      pop\n        /* \"#utility.yul\":6109:6429   */\n      swap2\n      swap1\n      pop\n      jump\t// out\n        /* \"#utility.yul\":6435:6576   */\n    tag_56:\n        /* \"#utility.yul\":6484:6488   */\n      0x00\n        /* \"#utility.yul\":6507:6510   */\n      dup2\n        /* \"#utility.yul\":6499:6510   */\n      swap1\n      pop\n        /* \"#utility.yul\":6530:6533   */\n      dup2\n        /* \"#utility.yul\":6527:6528   */\n      0x00\n        /* \"#utility.yul\":6520:6534   */\n      mstore\n        /* \"#utility.yul\":6564:6568   */\n      0x20\n        /* \"#utility.yul\":6561:6562   */\n      0x00\n        /* \"#utility.yul\":6551:6569   */\n      keccak256\n        /* \"#utility.yul\":6543:6569   */\n      swap1\n      pop\n        /* \"#utility.yul\":6435:6576   */\n      swap2\n      swap1\n      pop\n      jump\t// out\n        /* \"#utility.yul\":6582:6675   */\n    tag_57:\n        /* \"#utility.yul\":6619:6625   */\n      0x00\n        /* \"#utility.yul\":6666:6668   */\n      0x20\n        /* \"#utility.yul\":6661:6663   */\n      0x1f\n        /* \"#utility.yul\":6654:6659   */\n      dup4\n        /* \"#utility.yul\":6650:6664   */\n      add\n        /* \"#utility.yul\":6646:6669   */\n      div\n        /* \"#utility.yul\":6636:6669   */\n      swap1\n      pop\n        /* \"#utility.yul\":6582:6675   */\n      swap2\n      swap1\n      pop\n      jump\t// out\n        /* \"#utility.yul\":6681:6788   */\n    tag_58:\n        /* \"#utility.yul\":6725:6733   */\n      0x00\n        /* \"#utility.yul\":6775:6780   */\n      dup3\n        /* \"#utility.yul\":6769:6773   */\n      dup3\n        /* \"#utility.yul\":6765:6781   */\n      shl\n        /* \"#utility.yul\":6744:6781   */\n      swap1\n      pop\n        /* \"#utility.yul\":6681:6788   */\n      swap3\n      swap2\n      pop\n      pop\n      jump\t// out\n        /* \"#utility.yul\":6794:7187   */\n    tag_59:\n        /* \"#utility.yul\":6863:6869   */\n      0x00\n        /* \"#utility.yul\":6913:6914   */\n      0x08\n        /* \"#utility.yul\":6901:6911   */\n      dup4\n        /* \"#utility.yul\":6897:6915   */\n      mul\n        /* \"#utility.yul\":6936:7033   */\n      tag_163\n        /* \"#utility.yul\":6966:7032   */\n      0xffffffffffffffffffffffffffffffffffffffffffffffffffffffffffffffff\n        /* \"#utility.yul\":6955:6964   */\n      dup3\n        /* \"#utility.yul\":6936:7033   */\n      tag_58\n      jump\t// in\n    tag_163:\n        /* \"#utility.yul\":7054:7093   */\n      tag_164\n        /* \"#utility.yul\":7084:7092   */\n      dup7\n        /* \"#utility.yul\":7073:7082   */\n      dup4\n        /* \"#utility.yul\":7054:7093   */\n      tag_58\n      jump\t// in\n    tag_164:\n        /* \"#utility.yul\":7042:7093   */\n      swap6\n      pop\n        /* \"#utility.yul\":7126:7130   */\n      dup1\n        /* \"#utility.yul\":7122:7131   */\n      not\n        /* \"#utility.yul\":7115:7120   */\n      dup5\n        /* \"#utility.yul\":7111:7132   */\n      and\n        /* \"#utility.yul\":7102:7132   */\n      swap4\n      pop\n        /* \"#utility.yul\":7175:7179   */\n      dup1\n        /* \"#utility.yul\":7165:7173   */\n      dup7\n        /* \"#utility.yul\":7161:7180   */\n      and\n        /* \"#utility.yul\":7154:7159   */\n      dup5\n        /* \"#utility.yul\":7151:7181   */\n      or\n        /* \"#utility.yul\":7141:7181   */\n      swap3\n      pop\n        /* \"#utility.yul\":6870:7187   */\n      pop\n      pop\n        /* \"#utility.yul\":6794:7187   */\n      swap4\n      swap3\n      pop\n      pop\n      pop\n      jump\t// out\n        /* \"#utility.yul\":7193:7253   */\n    tag_60:\n        /* \"#utility.yul\":7221:7224   */\n      0x00\n        /* \"#utility.yul\":7242:7247   */\n      dup2\n        /* \"#utility.yul\":7235:7247   */\n      swap1\n      pop\n        /* \"#utility.yul\":7193:7253   */\n      swap2\n      swap1\n      pop\n      jump\t// out\n        /* \"#utility.yul\":7259:7401   */\n    tag_61:\n        /* \"#utility.yul\":7309:7318   */\n      0x00\n        /* \"#utility.yul\":7342:7395   */\n      tag_167\n        /* \"#utility.yul\":7360:7394   */\n      tag_168\n        /* \"#utility.yul\":7369:7393   */\n      tag_169\n        /* \"#utility.yul\":7387:7392   */\n      dup5\n        /* \"#utility.yul\":7369:7393   */\n      tag_34\n      jump\t// in\n    tag_169:\n        /* \"#utility.yul\":7360:7394   */\n      tag_60\n      jump\t// in\n    tag_168:\n        /* \"#utility.yul\":7342:7395   */\n      tag_34\n      jump\t// in\n    tag_167:\n        /* \"#utility.yul\":7329:7395   */\n      swap1\n      pop\n        /* \"#utility.yul\":7259:7401   */\n      swap2\n      swap1\n      pop\n      jump\t// out\n        /* \"#utility.yul\":7407:7482   */\n    tag_62:\n        /* \"#utility.yul\":7450:7453   */\n      0x00\n        /* \"#utility.yul\":7471:7476   */\n      dup2\n        /* \"#utility.yul\":7464:7476   */\n      swap1\n      pop\n        /* \"#utility.yul\":7407:7482   */\n      swap2\n      swap1\n      pop\n      jump\t// out\n        /* \"#utility.yul\":7488:7757   */\n    tag_63:\n        /* \"#utility.yul\":7598:7637   */\n      tag_172\n        /* \"#utility.yul\":7629:7636   */\n      dup4\n        /* \"#utility.yul\":7598:7637   */\n      tag_61\n      jump\t// in\n    tag_172:\n        /* \"#utility.yul\":7659:7750   */\n      tag_173\n        /* \"#utility.yul\":7708:7749   */\n      tag_174\n        /* \"#utility.yul\":7732:7748   */\n      dup3\n        /* \"#utility.yul\":7708:7749   */\n      tag_62\n      jump\t// in\n    tag_174:\n        /* \"#utility.yul\":7700:7706   */\n      dup5\n        /* \"#utility.yul\":7693:7697   */\n      dup5\n        /* \"#utility.yul\":7687:7698   */\n      sload\n        /* \"#utility.yul\":7659:7750   */\n      tag_59\n      jump\t// in\n    tag_173:\n        /* \"#utility.yul\":7653:7657   */\n      dup3\n        /* \"#utility.yul\":7646:7751   */\n      sstore\n        /* \"#utility.yul\":7564:7757   */\n      pop\n        /* \"#utility.yul\":7488:7757   */\n      pop\n      pop\n      pop\n      jump\t// out\n        /* \"#utility.yul\":7763:7836   */\n    tag_64:\n        /* \"#utility.yul\":7808:7811   */\n      0x00\n        /* \"#utility.yul\":7763:7836   */\n      swap1\n      jump\t// out\n        /* \"#utility.yul\":7842:8031   */\n    tag_65:\n        /* \"#utility.yul\":7919:7951   */\n      tag_177\n      tag_64\n      jump\t// in\n    tag_177:\n        /* \"#utility.yul\":7960:8025   */\n      tag_178\n        /* \"#utility.yul\":8018:8024   */\n      dup2\n        /* \"#utility.yul\":8010:8016   */\n      dup5\n        /* \"#utility.yul\":8004:8008   */\n      dup5\n        /* \"#utility.yul\":7960:8025   */\n      tag_63\n      jump\t// in\n    tag_178:\n        /* \"#utility.yul\":7895:8031   */\n      pop\n        /* \"#utility.yul\":7842:8031   */\n      pop\n      pop\n      jump\t// out\n        /* \"#utility.yul\":8037:8223   */\n    tag_66:\n        /* \"#utility.yul\":8097:8217   */\n    tag_180:\n        /* \"#utility.yul\":8114:8117   */\n      dup2\n        /* \"#utility.yul\":8107:8112   */\n      dup2\n        /* \"#utility.yul\":8104:8118   */\n      lt\n        /* \"#utility.yul\":8097:8217   */\n      iszero\n      tag_182\n      jumpi\n        /* \"#utility.yul\":8168:8207   */\n      tag_183\n        /* \"#utility.yul\":8205:8206   */\n      0x00\n        /* \"#utility.yul\":8198:8203   */\n      dup3\n        /* \"#utility.yul\":8168:8207   */\n      tag_65\n      jump\t// in\n    tag_183:\n        /* \"#utility.yul\":8141:8142   */\n      0x01\n        /* \"#utility.yul\":8134:8139   */\n      dup2\n        /* \"#utility.yul\":8130:8143   */\n      add\n        /* \"#utility.yul\":8121:8143   */\n      swap1\n      pop\n        /* \"#utility.yul\":8097:8217   */\n      jump(tag_180)\n    tag_182:\n        /* \"#utility.yul\":8037:8223   */\n      pop\n      pop\n      jump\t// out\n        /* \"#utility.yul\":8229:8772   */\n    tag_67:\n        /* \"#utility.yul\":8330:8332   */\n      0x1f\n        /* \"#utility.yul\":8325:8328   */\n      dup3\n        /* \"#utility.yul\":8322:8333   */\n      gt\n        /* \"#utility.yul\":8319:8765   */\n      iszero\n      tag_185\n      jumpi\n        /* \"#utility.yul\":8364:8402   */\n      tag_186\n        /* \"#utility.yul\":8396:8401   */\n      dup2\n        /* \"#utility.yul\":8364:8402   */\n      tag_56\n      jump\t// in\n    tag_186:\n        /* \"#utility.yul\":8448:8477   */\n      tag_187\n        /* \"#utility.yul\":8466:8476   */\n      dup5\n        /* \"#utility.yul\":8448:8477   */\n      tag_57\n      jump\t// in\n    tag_187:\n        /* \"#utility.yul\":8438:8446   */\n      dup2\n        /* \"#utility.yul\":8434:8478   */\n      add\n        /* \"#utility.yul\":8631:8633   */\n      0x20\n        /* \"#utility.yul\":8619:8629   */\n      dup6\n        /* \"#utility.yul\":8616:8634   */\n      lt\n        /* \"#utility.yul\":8613:8662   */\n      iszero\n      tag_188\n      jumpi\n        /* \"#utility.yul\":8652:8660   */\n      dup2\n        /* \"#utility.yul\":8637:8660   */\n      swap1\n      pop\n        /* \"#utility.yul\":8613:8662   */\n    tag_188:\n        /* \"#utility.yul\":8675:8755   */\n      tag_189\n        /* \"#utility.yul\":8731:8753   */\n      tag_190\n        /* \"#utility.yul\":8749:8752   */\n      dup6\n        /* \"#utility.yul\":8731:8753   */\n      tag_57\n      jump\t// in\n    tag_190:\n        /* \"#utility.yul\":8721:8729   */\n      dup4\n        /* \"#utility.yul\":8717:8754   */\n      add\n        /* \"#utility.yul\":8704:8715   */\n      dup3\n        /* \"#utility.yul\":8675:8755   */\n      tag_66\n      jump\t// in\n    tag_189:\n        /* \"#utility.yul\":8334:8765   */\n      pop\n      pop\n        /* \"#utility.yul\":8319:8765   */\n    tag_185:\n        /* \"#utility.yul\":8229:8772   */\n      pop\n      pop\n      pop\n      jump\t// out\n        /* \"#utility.yul\":8778:8895   */\n    tag_68:\n        /* \"#utility.yul\":8832:8840   */\n      0x00\n        /* \"#utility.yul\":8882:8887   */\n      dup3\n        /* \"#utility.yul\":8876:8880   */\n      dup3\n        /* \"#utility.yul\":8872:8888   */\n      shr\n        /* \"#utility.yul\":8851:8888   */\n      swap1\n      pop\n        /* \"#utility.yul\":8778:8895   */\n      swap3\n      swap2\n      pop\n      pop\n      jump\t// out\n        /* \"#utility.yul\":8901:9070   */\n    tag_69:\n        /* \"#utility.yul\":8945:8951   */\n      0x00\n        /* \"#utility.yul\":8978:9029   */\n      tag_193\n        /* \"#utility.yul\":9026:9027   */\n      0x00\n        /* \"#utility.yul\":9022:9028   */\n      not\n        /* \"#utility.yul\":9014:9019   */\n      dup5\n        /* \"#utility.yul\":9011:9012   */\n      0x08\n        /* \"#utility.yul\":9007:9020   */\n      mul\n        /* \"#utility.yul\":8978:9029   */\n      tag_68\n      jump\t// in\n    tag_193:\n        /* \"#utility.yul\":8974:9030   */\n      not\n        /* \"#utility.yul\":9059:9063   */\n      dup1\n        /* \"#utility.yul\":9053:9057   */\n      dup4\n        /* \"#utility.yul\":9049:9064   */\n      and\n        /* \"#utility.yul\":9039:9064   */\n      swap2\n      pop\n        /* \"#utility.yul\":8952:9070   */\n      pop\n        /* \"#utility.yul\":8901:9070   */\n      swap3\n      swap2\n      pop\n      pop\n      jump\t// out\n        /* \"#utility.yul\":9075:9370   */\n    tag_70:\n        /* \"#utility.yul\":9151:9155   */\n      0x00\n        /* \"#utility.yul\":9297:9326   */\n      tag_195\n        /* \"#utility.yul\":9322:9325   */\n      dup4\n        /* \"#utility.yul\":9316:9320   */\n      dup4\n        /* \"#utility.yul\":9297:9326   */\n      tag_69\n      jump\t// in\n    tag_195:\n        /* \"#utility.yul\":9289:9326   */\n      swap2\n      pop\n        /* \"#utility.yul\":9359:9362   */\n      dup3\n        /* \"#utility.yul\":9356:9357   */\n      0x02\n        /* \"#utility.yul\":9352:9363   */\n      mul\n        /* \"#utility.yul\":9346:9350   */\n      dup3\n        /* \"#utility.yul\":9343:9364   */\n      or\n        /* \"#utility.yul\":9335:9364   */\n      swap1\n      pop\n        /* \"#utility.yul\":9075:9370   */\n      swap3\n      swap2\n      pop\n      pop\n      jump\t// out\n        /* \"#utility.yul\":9375:10770   */\n    tag_26:\n        /* \"#utility.yul\":9492:9529   */\n      tag_197\n        /* \"#utility.yul\":9525:9528   */\n      dup3\n        /* \"#utility.yul\":9492:9529   */\n      tag_29\n      jump\t// in\n    tag_197:\n        /* \"#utility.yul\":9594:9612   */\n      0xffffffffffffffff\n        /* \"#utility.yul\":9586:9592   */\n      dup2\n        /* \"#utility.yul\":9583:9613   */\n      gt\n        /* \"#utility.yul\":9580:9636   */\n      iszero\n      tag_198\n      jumpi\n        /* \"#utility.yul\":9616:9634   */\n      tag_199\n      tag_44\n      jump\t// in\n    tag_199:\n        /* \"#utility.yul\":9580:9636   */\n    tag_198:\n        /* \"#utility.yul\":9660:9698   */\n      tag_200\n        /* \"#utility.yul\":9692:9696   */\n      dup3\n        /* \"#utility.yul\":9686:9697   */\n      sload\n        /* \"#utility.yul\":9660:9698   */\n      tag_14\n      jump\t// in\n    tag_200:\n        /* \"#utility.yul\":9745:9812   */\n      tag_201\n        /* \"#utility.yul\":9805:9811   */\n      dup3\n        /* \"#utility.yul\":9797:9803   */\n      dup3\n        /* \"#utility.yul\":9791:9795   */\n      dup6\n        /* \"#utility.yul\":9745:9812   */\n      tag_67\n      jump\t// in\n    tag_201:\n        /* \"#utility.yul\":9839:9840   */\n      0x00\n        /* \"#utility.yul\":9863:9867   */\n      0x20\n        /* \"#utility.yul\":9850:9867   */\n      swap1\n      pop\n        /* \"#utility.yul\":9895:9897   */\n      0x1f\n        /* \"#utility.yul\":9887:9893   */\n      dup4\n        /* \"#utility.yul\":9884:9898   */\n      gt\n        /* \"#utility.yul\":9912:9913   */\n      0x01\n        /* \"#utility.yul\":9907:10525   */\n      dup2\n      eq\n      tag_203\n      jumpi\n        /* \"#utility.yul\":10569:10570   */\n      0x00\n        /* \"#utility.yul\":10586:10592   */\n      dup5\n        /* \"#utility.yul\":10583:10660   */\n      iszero\n      tag_204\n      jumpi\n        /* \"#utility.yul\":10635:10644   */\n      dup3\n        /* \"#utility.yul\":10630:10633   */\n      dup8\n        /* \"#utility.yul\":10626:10645   */\n      add\n        /* \"#utility.yul\":10620:10646   */\n      mload\n        /* \"#utility.yul\":10611:10646   */\n      swap1\n      pop\n        /* \"#utility.yul\":10583:10660   */\n    tag_204:\n        /* \"#utility.yul\":10686:10753   */\n      tag_205\n        /* \"#utility.yul\":10746:10752   */\n      dup6\n        /* \"#utility.yul\":10739:10744   */\n      dup3\n        /* \"#utility.yul\":10686:10753   */\n      tag_70\n      jump\t// in\n    tag_205:\n        /* \"#utility.yul\":10680:10684   */\n      dup7\n        /* \"#utility.yul\":10673:10754   */\n      sstore\n        /* \"#utility.yul\":10542:10764   */\n      pop\n        /* \"#utility.yul\":9877:10764   */\n      jump(tag_202)\n        /* \"#utility.yul\":9907:10525   */\n    tag_203:\n        /* \"#utility.yul\":9959:9963   */\n      0x1f\n        /* \"#utility.yul\":9955:9964   */\n      not\n        /* \"#utility.yul\":9947:9953   */\n      dup5\n        /* \"#utility.yul\":9943:9965   */\n      and\n        /* \"#utility.yul\":9993:10030   */\n      tag_206\n        /* \"#utility.yul\":10025:10029   */\n      dup7\n        /* \"#utility.yul\":9993:10030   */\n      tag_56\n      jump\t// in\n    tag_206:\n        /* \"#utility.yul\":10052:10053   */\n      0x00\n        /* \"#utility.yul\":10066:10274   */\n    tag_207:\n        /* \"#utility.yul\":10080:10087   */\n      dup3\n        /* \"#utility.yul\":10077:10078   */\n      dup2\n        /* \"#utility.yul\":10074:10088   */\n      lt\n        /* \"#utility.yul\":10066:10274   */\n      iszero\n      tag_209\n      jumpi\n        /* \"#utility.yul\":10159:10168   */\n      dup5\n        /* \"#utility.yul\":10154:10157   */\n      dup10\n        /* \"#utility.yul\":10150:10169   */\n      add\n        /* \"#utility.yul\":10144:10170   */\n      mload\n        /* \"#utility.yul\":10136:10142   */\n      dup3\n        /* \"#utility.yul\":10129:10171   */\n      sstore\n        /* \"#utility.yul\":10210:10211   */\n      0x01\n        /* \"#utility.yul\":10202:10208   */\n      dup3\n        /* \"#utility.yul\":10198:10212   */\n      add\n        /* \"#utility.yul\":10188:10212   */\n      swap2\n      pop\n        /* \"#utility.yul\":10257:10259   */\n      0x20\n        /* \"#utility.yul\":10246:10255   */\n      dup6\n        /* \"#utility.yul\":10242:10260   */\n      add\n        /* \"#utility.yul\":10229:10260   */\n      swap5\n      pop\n        /* \"#utility.yul\":10103:10107   */\n      0x20\n        /* \"#utility.yul\":10100:10101   */\n      dup2\n        /* \"#utility.yul\":10096:10108   */\n      add\n        /* \"#utility.yul\":10091:10108   */\n      swap1\n      pop\n        /* \"#utility.yul\":10066:10274   */\n      jump(tag_207)\n    tag_209:\n        /* \"#utility.yul\":10302:10308   */\n      dup7\n        /* \"#utility.yul\":10293:10300   */\n      dup4\n        /* \"#utility.yul\":10290:10309   */\n      lt\n        /* \"#utility.yul\":10287:10466   */\n      iszero\n      tag_210\n      jumpi\n        /* \"#utility.yul\":10360:10369   */\n      dup5\n        /* \"#utility.yul\":10355:10358   */\n      dup10\n        /* \"#utility.yul\":10351:10370   */\n      add\n        /* \"#utility.yul\":10345:10371   */\n      mload\n        /* \"#utility.yul\":10403:10451   */\n      tag_211\n        /* \"#utility.yul\":10445:10449   */\n      0x1f\n        /* \"#utility.yul\":10437:10443   */\n      dup10\n        /* \"#utility.yul\":10433:10450   */\n      and\n        /* \"#utility.yul\":10422:10431   */\n      dup3\n        /* \"#utility.yul\":10403:10451   */\n      tag_69\n      jump\t// in\n    tag_211:\n        /* \"#utility.yul\":10395:10401   */\n      dup4\n        /* \"#utility.yul\":10388:10452   */\n      sstore\n        /* \"#utility.yul\":10310:10466   */\n      pop\n        /* \"#utility.yul\":10287:10466   */\n    tag_210:\n        /* \"#utility.yul\":10512:10513   */\n      0x01\n        /* \"#utility.yul\":10508:10509   */\n      0x02\n        /* \"#utility.yul\":10500:10506   */\n      dup9\n        /* \"#utility.yul\":10496:10510   */\n      mul\n        /* \"#utility.yul\":10492:10514   */\n      add\n        /* \"#utility.yul\":10486:10490   */\n      dup9\n        /* \"#utility.yul\":10479:10515   */\n      sstore\n        /* \"#utility.yul\":9914:10525   */\n      pop\n      pop\n      pop\n        /* \"#utility.yul\":9877:10764   */\n    tag_202:\n      pop\n        /* \"#utility.yul\":9467:10770   */\n      pop\n      pop\n      pop\n        /* \"#utility.yul\":9375:10770   */\n      pop\n      pop\n      jump\t// out\n        /* \"#utility.yul\":10776:10935   */\n    tag_71:\n        /* \"#utility.yul\":10850:10861   */\n      0x00\n        /* \"#utility.yul\":10884:10890   */\n      dup3\n        /* \"#utility.yul\":10879:10882   */\n      dup3\n        /* \"#utility.yul\":10872:10891   */\n      mstore\n        /* \"#utility.yul\":10924:10928   */\n      0x20\n        /* \"#utility.yul\":10919:10922   */\n      dup3\n        /* \"#utility.yul\":10915:10929   */\n      add\n        /* \"#utility.yul\":10900:10929   */\n      swap1\n      pop\n        /* \"#utility.yul\":10776:10935   */\n      swap3\n      swap2\n      pop\n      pop\n      jump\t// out\n        /* \"#utility.yul\":10941:11298   */\n    tag_72:\n        /* \"#utility.yul\":11019:11022   */\n      0x00\n        /* \"#utility.yul\":11047:11086   */\n      tag_214\n        /* \"#utility.yul\":11080:11085   */\n      dup3\n        /* \"#utility.yul\":11047:11086   */\n      tag_29\n      jump\t// in\n    tag_214:\n        /* \"#utility.yul\":11102:11163   */\n      tag_215\n        /* \"#utility.yul\":11156:11162   */\n      dup2\n        /* \"#utility.yul\":11151:11154   */\n      dup6\n        /* \"#utility.yul\":11102:11163   */\n      tag_71\n      jump\t// in\n    tag_215:\n        /* \"#utility.yul\":11095:11163   */\n      swap4\n      pop\n        /* \"#utility.yul\":11172:11237   */\n      tag_216\n        /* \"#utility.yul\":11230:11236   */\n      dup2\n        /* \"#utility.yul\":11225:11228   */\n      dup6\n        /* \"#utility.yul\":11218:11222   */\n      0x20\n        /* \"#utility.yul\":11211:11216   */\n      dup7\n        /* \"#utility.yul\":11207:11223   */\n      add\n        /* \"#utility.yul\":11172:11237   */\n      tag_31\n      jump\t// in\n    tag_216:\n        /* \"#utility.yul\":11262:11291   */\n      tag_217\n        /* \"#utility.yul\":11284:11290   */\n      dup2\n        /* \"#utility.yul\":11262:11291   */\n      tag_32\n      jump\t// in\n    tag_217:\n        /* \"#utility.yul\":11257:11260   */\n      dup5\n        /* \"#utility.yul\":11253:11292   */\n      add\n        /* \"#utility.yul\":11246:11292   */\n      swap2\n      pop\n        /* \"#utility.yul\":11023:11298   */\n      pop\n        /* \"#utility.yul\":10941:11298   */\n      swap3\n      swap2\n      pop\n      pop\n      jump\t// out\n        /* \"#utility.yul\":11304:11412   */\n    tag_73:\n        /* \"#utility.yul\":11381:11405   */\n      tag_219\n        /* \"#utility.yul\":11399:11404   */\n      dup2\n        /* \"#utility.yul\":11381:11405   */\n      tag_34\n      jump\t// in\n    tag_219:\n        /* \"#utility.yul\":11376:11379   */\n      dup3\n        /* \"#utility.yul\":11369:11406   */\n      mstore\n        /* \"#utility.yul\":11304:11412   */\n      pop\n      pop\n      jump\t// out\n        /* \"#utility.yul\":11418:11526   */\n    tag_74:\n        /* \"#utility.yul\":11495:11519   */\n      tag_221\n        /* \"#utility.yul\":11513:11518   */\n      dup2\n        /* \"#utility.yul\":11495:11519   */\n      tag_37\n      jump\t// in\n    tag_221:\n        /* \"#utility.yul\":11490:11493   */\n      dup3\n        /* \"#utility.yul\":11483:11520   */\n      mstore\n        /* \"#utility.yul\":11418:11526   */\n      pop\n      pop\n      jump\t// out\n        /* \"#utility.yul\":11598:12382   */\n    tag_75:\n        /* \"#utility.yul\":11717:11720   */\n      0x00\n        /* \"#utility.yul\":11753:11757   */\n      0x60\n        /* \"#utility.yul\":11748:11751   */\n      dup4\n        /* \"#utility.yul\":11744:11758   */\n      add\n        /* \"#utility.yul\":11840:11844   */\n      0x00\n        /* \"#utility.yul\":11833:11838   */\n      dup4\n        /* \"#utility.yul\":11829:11845   */\n      add\n        /* \"#utility.yul\":11823:11846   */\n      mload\n        /* \"#utility.yul\":11893:11896   */\n      dup5\n        /* \"#utility.yul\":11887:11891   */\n      dup3\n        /* \"#utility.yul\":11883:11897   */\n      sub\n        /* \"#utility.yul\":11876:11880   */\n      0x00\n        /* \"#utility.yul\":11871:11874   */\n      dup7\n        /* \"#utility.yul\":11867:11881   */\n      add\n        /* \"#utility.yul\":11860:11898   */\n      mstore\n        /* \"#utility.yul\":11919:11992   */\n      tag_223\n        /* \"#utility.yul\":11987:11991   */\n      dup3\n        /* \"#utility.yul\":11973:11985   */\n      dup3\n        /* \"#utility.yul\":11919:11992   */\n      tag_72\n      jump\t// in\n    tag_223:\n        /* \"#utility.yul\":11911:11992   */\n      swap2\n      pop\n        /* \"#utility.yul\":11768:12003   */\n      pop\n        /* \"#utility.yul\":12084:12088   */\n      0x20\n        /* \"#utility.yul\":12077:12082   */\n      dup4\n        /* \"#utility.yul\":12073:12089   */\n      add\n        /* \"#utility.yul\":12067:12090   */\n      mload\n        /* \"#utility.yul\":12103:12166   */\n      tag_224\n        /* \"#utility.yul\":12160:12164   */\n      0x20\n        /* \"#utility.yul\":12155:12158   */\n      dup7\n        /* \"#utility.yul\":12151:12165   */\n      add\n        /* \"#utility.yul\":12137:12149   */\n      dup3\n        /* \"#utility.yul\":12103:12166   */\n      tag_73\n      jump\t// in\n    tag_224:\n        /* \"#utility.yul\":12013:12176   */\n      pop\n        /* \"#utility.yul\":12263:12267   */\n      0x40\n        /* \"#utility.yul\":12256:12261   */\n      dup4\n        /* \"#utility.yul\":12252:12268   */\n      add\n        /* \"#utility.yul\":12246:12269   */\n      mload\n        /* \"#utility.yul\":12282:12345   */\n      tag_225\n        /* \"#utility.yul\":12339:12343   */\n      0x40\n        /* \"#utility.yul\":12334:12337   */\n      dup7\n        /* \"#utility.yul\":12330:12344   */\n      add\n        /* \"#utility.yul\":12316:12328   */\n      dup3\n        /* \"#utility.yul\":12282:12345   */\n      tag_74\n      jump\t// in\n    tag_225:\n        /* \"#utility.yul\":12186:12355   */\n      pop\n        /* \"#utility.yul\":12372:12376   */\n      dup1\n        /* \"#utility.yul\":12365:12376   */\n      swap2\n      pop\n        /* \"#utility.yul\":11722:12382   */\n      pop\n        /* \"#utility.yul\":11598:12382   */\n      swap3\n      swap2\n      pop\n      pop\n      jump\t// out\n        /* \"#utility.yul\":12412:13223   */\n    tag_76:\n        /* \"#utility.yul\":12487:12490   */\n      0x00\n        /* \"#utility.yul\":12524:12529   */\n      dup2\n        /* \"#utility.yul\":12518:12530   */\n      sload\n        /* \"#utility.yul\":12553:12589   */\n      tag_227\n        /* \"#utility.yul\":12579:12588   */\n      dup2\n        /* \"#utility.yul\":12553:12589   */\n      tag_14\n      jump\t// in\n    tag_227:\n        /* \"#utility.yul\":12605:12666   */\n      tag_228\n        /* \"#utility.yul\":12659:12665   */\n      dup2\n        /* \"#utility.yul\":12654:12657   */\n      dup7\n        /* \"#utility.yul\":12605:12666   */\n      tag_71\n      jump\t// in\n    tag_228:\n        /* \"#utility.yul\":12598:12666   */\n      swap5\n      pop\n        /* \"#utility.yul\":12697:12698   */\n      0x01\n        /* \"#utility.yul\":12686:12695   */\n      dup3\n        /* \"#utility.yul\":12682:12699   */\n      and\n        /* \"#utility.yul\":12713:12714   */\n      0x00\n        /* \"#utility.yul\":12708:12872   */\n      dup2\n      eq\n      tag_230\n      jumpi\n        /* \"#utility.yul\":12886:12887   */\n      0x01\n        /* \"#utility.yul\":12881:13217   */\n      dup2\n      eq\n      tag_231\n      jumpi\n        /* \"#utility.yul\":12675:13217   */\n      jump(tag_229)\n        /* \"#utility.yul\":12708:12872   */\n    tag_230:\n        /* \"#utility.yul\":12792:12796   */\n      0xff\n        /* \"#utility.yul\":12788:12797   */\n      not\n        /* \"#utility.yul\":12777:12786   */\n      dup4\n        /* \"#utility.yul\":12773:12798   */\n      and\n        /* \"#utility.yul\":12768:12771   */\n      dup7\n        /* \"#utility.yul\":12761:12799   */\n      mstore\n        /* \"#utility.yul\":12852:12858   */\n      dup2\n        /* \"#utility.yul\":12845:12859   */\n      iszero\n        /* \"#utility.yul\":12838:12860   */\n      iszero\n        /* \"#utility.yul\":12832:12836   */\n      0x20\n        /* \"#utility.yul\":12828:12861   */\n      mul\n        /* \"#utility.yul\":12823:12826   */\n      dup7\n        /* \"#utility.yul\":12819:12862   */\n      add\n        /* \"#utility.yul\":12812:12862   */\n      swap4\n      pop\n        /* \"#utility.yul\":12708:12872   */\n      jump(tag_229)\n        /* \"#utility.yul\":12881:13217   */\n    tag_231:\n        /* \"#utility.yul\":12948:12986   */\n      tag_232\n        /* \"#utility.yul\":12980:12985   */\n      dup6\n        /* \"#utility.yul\":12948:12986   */\n      tag_56\n      jump\t// in\n    tag_232:\n        /* \"#utility.yul\":13008:13009   */\n      0x00\n        /* \"#utility.yul\":13022:13176   */\n    tag_233:\n        /* \"#utility.yul\":13036:13042   */\n      dup4\n        /* \"#utility.yul\":13033:13034   */\n      dup2\n        /* \"#utility.yul\":13030:13043   */\n      lt\n        /* \"#utility.yul\":13022:13176   */\n      iszero\n      tag_235\n      jumpi\n        /* \"#utility.yul\":13110:13117   */\n      dup2\n        /* \"#utility.yul\":13104:13118   */\n      sload\n        /* \"#utility.yul\":13100:13101   */\n      dup2\n        /* \"#utility.yul\":13095:13098   */\n      dup10\n        /* \"#utility.yul\":13091:13102   */\n      add\n        /* \"#utility.yul\":13084:13119   */\n      mstore\n        /* \"#utility.yul\":13160:13161   */\n      0x01\n        /* \"#utility.yul\":13151:13158   */\n      dup3\n        /* \"#utility.yul\":13147:13162   */\n      add\n        /* \"#utility.yul\":13136:13162   */\n      swap2\n      pop\n        /* \"#utility.yul\":13058:13062   */\n      0x20\n        /* \"#utility.yul\":13055:13056   */\n      dup2\n        /* \"#utility.yul\":13051:13063   */\n      add\n        /* \"#utility.yul\":13046:13063   */\n      swap1\n      pop\n        /* \"#utility.yul\":13022:13176   */\n      jump(tag_233)\n    tag_235:\n        /* \"#utility.yul\":13205:13206   */\n      dup1\n        /* \"#utility.yul\":13200:13203   */\n      dup9\n        /* \"#utility.yul\":13196:13207   */\n      add\n        /* \"#utility.yul\":13189:13207   */\n      swap6\n      pop\n        /* \"#utility.yul\":12888:13217   */\n      pop\n      pop\n        /* \"#utility.yul\":12675:13217   */\n    tag_229:\n      pop\n        /* \"#utility.yul\":12491:13223   */\n      pop\n      pop\n        /* \"#utility.yul\":12412:13223   */\n      swap3\n      swap2\n      pop\n      pop\n      jump\t// out\n        /* \"#utility.yul\":13229:13331   */\n    tag_77:\n        /* \"#utility.yul\":13271:13279   */\n      0x00\n        /* \"#utility.yul\":13318:13323   */\n      dup2\n        /* \"#utility.yul\":13315:13316   */\n      0x00\n        /* \"#utility.yul\":13311:13324   */\n      shr\n        /* \"#utility.yul\":13290:13324   */\n      swap1\n      pop\n        /* \"#utility.yul\":13229:13331   */\n      swap2\n      swap1\n      pop\n      jump\t// out\n        /* \"#utility.yul\":13337:13427   */\n    tag_78:\n        /* \"#utility.yul\":13387:13394   */\n      0x00\n        /* \"#utility.yul\":13416:13421   */\n      dup2\n        /* \"#utility.yul\":13405:13421   */\n      swap1\n      pop\n        /* \"#utility.yul\":13337:13427   */\n      swap2\n      swap1\n      pop\n      jump\t// out\n        /* \"#utility.yul\":13433:13599   */\n    tag_79:\n        /* \"#utility.yul\":13502:13507   */\n      0x00\n        /* \"#utility.yul\":13527:13593   */\n      tag_239\n        /* \"#utility.yul\":13558:13592   */\n      tag_240\n        /* \"#utility.yul\":13581:13591   */\n      dup4\n        /* \"#utility.yul\":13558:13592   */\n      tag_77\n      jump\t// in\n    tag_240:\n        /* \"#utility.yul\":13527:13593   */\n      tag_78\n      jump\t// in\n    tag_239:\n        /* \"#utility.yul\":13518:13593   */\n      swap1\n      pop\n        /* \"#utility.yul\":13433:13599   */\n      swap2\n      swap1\n      pop\n      jump\t// out\n        /* \"#utility.yul\":13605:13744   */\n    tag_80:\n        /* \"#utility.yul\":13655:13662   */\n      0x00\n        /* \"#utility.yul\":13695:13737   */\n      0xffffffffffffffffffffffffffffffffffffffff\n        /* \"#utility.yul\":13688:13693   */\n      dup3\n        /* \"#utility.yul\":13684:13738   */\n      and\n        /* \"#utility.yul\":13673:13738   */\n      swap1\n      pop\n        /* \"#utility.yul\":13605:13744   */\n      swap2\n      swap1\n      pop\n      jump\t// out\n        /* \"#utility.yul\":13750:13916   */\n    tag_81:\n        /* \"#utility.yul\":13819:13824   */\n      0x00\n        /* \"#utility.yul\":13844:13910   */\n      tag_243\n        /* \"#utility.yul\":13875:13909   */\n      tag_244\n        /* \"#utility.yul\":13898:13908   */\n      dup4\n        /* \"#utility.yul\":13875:13909   */\n      tag_77\n      jump\t// in\n    tag_244:\n        /* \"#utility.yul\":13844:13910   */\n      tag_80\n      jump\t// in\n    tag_243:\n        /* \"#utility.yul\":13835:13910   */\n      swap1\n      pop\n        /* \"#utility.yul\":13750:13916   */\n      swap2\n      swap1\n      pop\n      jump\t// out\n        /* \"#utility.yul\":13988:14946   */\n    tag_82:\n        /* \"#utility.yul\":14104:14107   */\n      0x00\n        /* \"#utility.yul\":14140:14144   */\n      0x60\n        /* \"#utility.yul\":14135:14138   */\n      dup4\n        /* \"#utility.yul\":14131:14145   */\n      add\n        /* \"#utility.yul\":14171:14172   */\n      0x00\n        /* \"#utility.yul\":14248:14252   */\n      dup1\n        /* \"#utility.yul\":14241:14246   */\n      dup5\n        /* \"#utility.yul\":14237:14253   */\n      add\n        /* \"#utility.yul\":14300:14303   */\n      dup6\n        /* \"#utility.yul\":14294:14298   */\n      dup4\n        /* \"#utility.yul\":14290:14304   */\n      sub\n        /* \"#utility.yul\":14283:14287   */\n      0x00\n        /* \"#utility.yul\":14278:14281   */\n      dup8\n        /* \"#utility.yul\":14274:14288   */\n      add\n        /* \"#utility.yul\":14267:14305   */\n      mstore\n        /* \"#utility.yul\":14326:14396   */\n      tag_246\n        /* \"#utility.yul\":14391:14395   */\n      dup4\n        /* \"#utility.yul\":14377:14389   */\n      dup3\n        /* \"#utility.yul\":14326:14396   */\n      tag_76\n      jump\t// in\n    tag_246:\n        /* \"#utility.yul\":14318:14396   */\n      swap3\n      pop\n        /* \"#utility.yul\":14182:14407   */\n      pop\n        /* \"#utility.yul\":14480:14484   */\n      0x01\n        /* \"#utility.yul\":14473:14478   */\n      dup5\n        /* \"#utility.yul\":14469:14485   */\n      add\n        /* \"#utility.yul\":14463:14486   */\n      sload\n        /* \"#utility.yul\":14450:14486   */\n      swap1\n      pop\n        /* \"#utility.yul\":14519:14574   */\n      tag_247\n        /* \"#utility.yul\":14564:14573   */\n      dup2\n        /* \"#utility.yul\":14519:14574   */\n      tag_79\n      jump\t// in\n    tag_247:\n        /* \"#utility.yul\":14587:14650   */\n      tag_248\n        /* \"#utility.yul\":14644:14648   */\n      0x20\n        /* \"#utility.yul\":14639:14642   */\n      dup8\n        /* \"#utility.yul\":14635:14649   */\n      add\n        /* \"#utility.yul\":14621:14633   */\n      dup3\n        /* \"#utility.yul\":14587:14650   */\n      tag_73\n      jump\t// in\n    tag_248:\n        /* \"#utility.yul\":14417:14660   */\n      pop\n        /* \"#utility.yul\":14739:14743   */\n      0x02\n        /* \"#utility.yul\":14732:14737   */\n      dup5\n        /* \"#utility.yul\":14728:14744   */\n      add\n        /* \"#utility.yul\":14722:14745   */\n      sload\n        /* \"#utility.yul\":14709:14745   */\n      swap1\n      pop\n        /* \"#utility.yul\":14778:14833   */\n      tag_249\n        /* \"#utility.yul\":14823:14832   */\n      dup2\n        /* \"#utility.yul\":14778:14833   */\n      tag_81\n      jump\t// in\n    tag_249:\n        /* \"#utility.yul\":14846:14909   */\n      tag_250\n        /* \"#utility.yul\":14903:14907   */\n      0x40\n        /* \"#utility.yul\":14898:14901   */\n      dup8\n        /* \"#utility.yul\":14894:14908   */\n      add\n        /* \"#utility.yul\":14880:14892   */\n      dup3\n        /* \"#utility.yul\":14846:14909   */\n      tag_74\n      jump\t// in\n    tag_250:\n        /* \"#utility.yul\":14670:14919   */\n      pop\n        /* \"#utility.yul\":14936:14940   */\n      dup2\n        /* \"#utility.yul\":14929:14940   */\n      swap3\n      pop\n        /* \"#utility.yul\":14109:14946   */\n      pop\n      pop\n        /* \"#utility.yul\":13988:14946   */\n      swap3\n      swap2\n      pop\n      pop\n      jump\t// out\n        /* \"#utility.yul\":14952:15801   */\n    tag_28:\n        /* \"#utility.yul\":15226:15230   */\n      0x00\n        /* \"#utility.yul\":15264:15267   */\n      0x80\n        /* \"#utility.yul\":15253:15262   */\n      dup3\n        /* \"#utility.yul\":15249:15268   */\n      add\n        /* \"#utility.yul\":15241:15268   */\n      swap1\n      pop\n        /* \"#utility.yul\":15314:15323   */\n      dup2\n        /* \"#utility.yul\":15308:15312   */\n      dup2\n        /* \"#utility.yul\":15304:15324   */\n      sub\n        /* \"#utility.yul\":15300:15301   */\n      0x00\n        /* \"#utility.yul\":15289:15298   */\n      dup4\n        /* \"#utility.yul\":15285:15302   */\n      add\n        /* \"#utility.yul\":15278:15325   */\n      mstore\n        /* \"#utility.yul\":15342:15450   */\n      tag_252\n        /* \"#utility.yul\":15445:15449   */\n      dup2\n        /* \"#utility.yul\":15436:15442   */\n      dup8\n        /* \"#utility.yul\":15342:15450   */\n      tag_75\n      jump\t// in\n    tag_252:\n        /* \"#utility.yul\":15334:15450   */\n      swap1\n      pop\n        /* \"#utility.yul\":15497:15506   */\n      dup2\n        /* \"#utility.yul\":15491:15495   */\n      dup2\n        /* \"#utility.yul\":15487:15507   */\n      sub\n        /* \"#utility.yul\":15482:15484   */\n      0x20\n        /* \"#utility.yul\":15471:15480   */\n      dup4\n        /* \"#utility.yul\":15467:15485   */\n      add\n        /* \"#utility.yul\":15460:15508   */\n      mstore\n        /* \"#utility.yul\":15525:15630   */\n      tag_253\n        /* \"#utility.yul\":15625:15629   */\n      dup2\n        /* \"#utility.yul\":15616:15622   */\n      dup7\n        /* \"#utility.yul\":15525:15630   */\n      tag_82\n      jump\t// in\n    tag_253:\n        /* \"#utility.yul\":15517:15630   */\n      swap1\n      pop\n        /* \"#utility.yul\":15640:15712   */\n      tag_254\n        /* \"#utility.yul\":15708:15710   */\n      0x40\n        /* \"#utility.yul\":15697:15706   */\n      dup4\n        /* \"#utility.yul\":15693:15711   */\n      add\n        /* \"#utility.yul\":15684:15690   */\n      dup6\n        /* \"#utility.yul\":15640:15712   */\n      tag_35\n      jump\t// in\n    tag_254:\n        /* \"#utility.yul\":15722:15794   */\n      tag_255\n        /* \"#utility.yul\":15790:15792   */\n      0x60\n        /* \"#utility.yul\":15779:15788   */\n      dup4\n        /* \"#utility.yul\":15775:15793   */\n      add\n        /* \"#utility.yul\":15766:15772   */\n      dup5\n        /* \"#utility.yul\":15722:15794   */\n      tag_35\n      jump\t// in\n    tag_255:\n        /* \"#utility.yul\":14952:15801   */\n      swap6\n      swap5\n      pop\n      pop\n      pop\n      pop\n      pop\n      jump\t// out\n\n    auxdata: 0xa2646970667358221220dafef8d681909273357faea4db4db790b37f3afabdbe59851cf39641f7ef768564736f6c63430008120033\n}\n",
				"bytecode": {
					"linkReferences": {},
					"object": "608060405234801561001057600080fd5b50610bc6806100206000396000f3fe608060405234801561001057600080fd5b50600436106100365760003560e01c80631de21b761461003b578063463bbb121461005b575b600080fd5b610043610077565b60405161005293929190610403565b60405180910390f35b610075600480360381019061007091906105e2565b610137565b005b600080600001805461008890610680565b80601f01602080910402602001604051908101604052809291908181526020018280546100b490610680565b80156101015780601f106100d657610100808354040283529160200191610101565b820191906000526020600020905b8154815290600101906020018083116100e457829003601f168201915b5050505050908060010154908060020160009054906101000a900473ffffffffffffffffffffffffffffffffffffffff16905083565b60008060405180606001604052908160008201805461015590610680565b80601f016020809104026020016040519081016040528092919081815260200182805461018190610680565b80156101ce5780601f106101a3576101008083540402835291602001916101ce565b820191906000526020600020905b8154815290600101906020018083116101b157829003601f168201915b50505050508152602001600182015481526020016002820160009054906101000a900473ffffffffffffffffffffffffffffffffffffffff1673ffffffffffffffffffffffffffffffffffffffff1673ffffffffffffffffffffffffffffffffffffffff1681525050905060405180606001604052808581526020018481526020018373ffffffffffffffffffffffffffffffffffffffff16815250600080820151816000019081610280919061085d565b506020820151816001015560408201518160020160006101000a81548173ffffffffffffffffffffffffffffffffffffffff021916908373ffffffffffffffffffffffffffffffffffffffff1602179055509050507f032523892b5c148afc3b7d70d5f8028d5d2091114003a2674c88e907fba08537816000424360405161030b9493929190610b3d565b60405180910390a150505050565b600081519050919050565b600082825260208201905092915050565b60005b83811015610353578082015181840152602081019050610338565b60008484015250505050565b6000601f19601f8301169050919050565b600061037b82610319565b6103858185610324565b9350610395818560208601610335565b61039e8161035f565b840191505092915050565b6000819050919050565b6103bc816103a9565b82525050565b600073ffffffffffffffffffffffffffffffffffffffff82169050919050565b60006103ed826103c2565b9050919050565b6103fd816103e2565b82525050565b6000606082019050818103600083015261041d8186610370565b905061042c60208301856103b3565b61043960408301846103f4565b949350505050565b6000604051905090565b600080fd5b600080fd5b600080fd5b600080fd5b7f4e487b7100000000000000000000000000000000000000000000000000000000600052604160045260246000fd5b6104978261035f565b810181811067ffffffffffffffff821117156104b6576104b561045f565b5b80604052505050565b60006104c9610441565b90506104d5828261048e565b919050565b600067ffffffffffffffff8211156104f5576104f461045f565b5b6104fe8261035f565b9050602081019050919050565b82818337600083830152505050565b600061052d610528846104da565b6104bf565b9050828152602081018484840111156105495761054861045a565b5b61055484828561050b565b509392505050565b600082601f83011261057157610570610455565b5b813561058184826020860161051a565b91505092915050565b610593816103a9565b811461059e57600080fd5b50565b6000813590506105b08161058a565b92915050565b6105bf816103e2565b81146105ca57600080fd5b50565b6000813590506105dc816105b6565b92915050565b6000806000606084860312156105fb576105fa61044b565b5b600084013567ffffffffffffffff81111561061957610618610450565b5b6106258682870161055c565b9350506020610636868287016105a1565b9250506040610647868287016105cd565b9150509250925092565b7f4e487b7100000000000000000000000000000000000000000000000000000000600052602260045260246000fd5b6000600282049050600182168061069857607f821691505b6020821081036106ab576106aa610651565b5b50919050565b60008190508160005260206000209050919050565b60006020601f8301049050919050565b600082821b905092915050565b6000600883026107137fffffffffffffffffffffffffffffffffffffffffffffffffffffffffffffffff826106d6565b61071d86836106d6565b95508019841693508086168417925050509392505050565b6000819050919050565b600061075a610755610750846103a9565b610735565b6103a9565b9050919050565b6000819050919050565b6107748361073f565b61078861078082610761565b8484546106e3565b825550505050565b600090565b61079d610790565b6107a881848461076b565b505050565b5b818110156107cc576107c1600082610795565b6001810190506107ae565b5050565b601f821115610811576107e2816106b1565b6107eb846106c6565b810160208510156107fa578190505b61080e610806856106c6565b8301826107ad565b50505b505050565b600082821c905092915050565b600061083460001984600802610816565b1980831691505092915050565b600061084d8383610823565b9150826002028217905092915050565b61086682610319565b67ffffffffffffffff81111561087f5761087e61045f565b5b6108898254610680565b6108948282856107d0565b600060209050601f8311600181146108c757600084156108b5578287015190505b6108bf8582610841565b865550610927565b601f1984166108d5866106b1565b60005b828110156108fd578489015182556001820191506020850194506020810190506108d8565b8683101561091a5784890151610916601f891682610823565b8355505b6001600288020188555050505b505050505050565b600082825260208201905092915050565b600061094b82610319565b610955818561092f565b9350610965818560208601610335565b61096e8161035f565b840191505092915050565b610982816103a9565b82525050565b610991816103e2565b82525050565b600060608301600083015184820360008601526109b48282610940565b91505060208301516109c96020860182610979565b5060408301516109dc6040860182610988565b508091505092915050565b600081546109f481610680565b6109fe818661092f565b94506001821660008114610a195760018114610a2f57610a62565b60ff198316865281151560200286019350610a62565b610a38856106b1565b60005b83811015610a5a57815481890152600182019150602081019050610a3b565b808801955050505b50505092915050565b60008160001c9050919050565b6000819050919050565b6000610a95610a9083610a6b565b610a78565b9050919050565b600073ffffffffffffffffffffffffffffffffffffffff82169050919050565b6000610acf610aca83610a6b565b610a9c565b9050919050565b60006060830160008084018583036000870152610af383826109e7565b92505060018401549050610b0681610a82565b610b136020870182610979565b5060028401549050610b2481610abc565b610b316040870182610988565b50819250505092915050565b60006080820190508181036000830152610b578187610997565b90508181036020830152610b6b8186610ad6565b9050610b7a60408301856103b3565b610b8760608301846103b3565b9594505050505056fea2646970667358221220dafef8d681909273357faea4db4db790b37f3afabdbe59851cf39641f7ef768564736f6c63430008120033",
					"opcodes": "PUSH1 0x80 PUSH1 0x40 MSTORE CALLVALUE DUP1 ISZERO PUSH2 0x10 JUMPI PUSH1 0x0 DUP1 REVERT JUMPDEST POP PUSH2 0xBC6 DUP1 PUSH2 0x20 PUSH1 0x0 CODECOPY PUSH1 0x0 RETURN INVALID PUSH1 0x80 PUSH1 0x40 MSTORE CALLVALUE DUP1 ISZERO PUSH2 0x10 JUMPI PUSH1 0x0 DUP1 REVERT JUMPDEST POP PUSH1 0x4 CALLDATASIZE LT PUSH2 0x36 JUMPI PUSH1 0x0 CALLDATALOAD PUSH1 0xE0 SHR DUP1 PUSH4 0x1DE21B76 EQ PUSH2 0x3B JUMPI DUP1 PUSH4 0x463BBB12 EQ PUSH2 0x5B JUMPI JUMPDEST PUSH1 0x0 DUP1 REVERT JUMPDEST PUSH2 0x43 PUSH2 0x77 JUMP JUMPDEST PUSH1 0x40 MLOAD PUSH2 0x52 SWAP4 SWAP3 SWAP2 SWAP1 PUSH2 0x403 JUMP JUMPDEST PUSH1 0x40 MLOAD DUP1 SWAP2 SUB SWAP1 RETURN JUMPDEST PUSH2 0x75 PUSH1 0x4 DUP1 CALLDATASIZE SUB DUP2 ADD SWAP1 PUSH2 0x70 SWAP2 SWAP1 PUSH2 0x5E2 JUMP JUMPDEST PUSH2 0x137 JUMP JUMPDEST STOP JUMPDEST PUSH1 0x0 DUP1 PUSH1 0x0 ADD DUP1 SLOAD PUSH2 0x88 SWAP1 PUSH2 0x680 JUMP JUMPDEST DUP1 PUSH1 0x1F ADD PUSH1 0x20 DUP1 SWAP2 DIV MUL PUSH1 0x20 ADD PUSH1 0x40 MLOAD SWAP1 DUP2 ADD PUSH1 0x40 MSTORE DUP1 SWAP3 SWAP2 SWAP1 DUP2 DUP2 MSTORE PUSH1 0x20 ADD DUP3 DUP1 SLOAD PUSH2 0xB4 SWAP1 PUSH2 0x680 JUMP JUMPDEST DUP1 ISZERO PUSH2 0x101 JUMPI DUP1 PUSH1 0x1F LT PUSH2 0xD6 JUMPI PUSH2 0x100 DUP1 DUP4 SLOAD DIV MUL DUP4 MSTORE SWAP2 PUSH1 0x20 ADD SWAP2 PUSH2 0x101 JUMP JUMPDEST DUP3 ADD SWAP2 SWAP1 PUSH1 0x0 MSTORE PUSH1 0x20 PUSH1 0x0 KECCAK256 SWAP1 JUMPDEST DUP2 SLOAD DUP2 MSTORE SWAP1 PUSH1 0x1 ADD SWAP1 PUSH1 0x20 ADD DUP1 DUP4 GT PUSH2 0xE4 JUMPI DUP3 SWAP1 SUB PUSH1 0x1F AND DUP3 ADD SWAP2 JUMPDEST POP POP POP POP POP SWAP1 DUP1 PUSH1 0x1 ADD SLOAD SWAP1 DUP1 PUSH1 0x2 ADD PUSH1 0x0 SWAP1 SLOAD SWAP1 PUSH2 0x100 EXP SWAP1 DIV PUSH20 0xFFFFFFFFFFFFFFFFFFFFFFFFFFFFFFFFFFFFFFFF AND SWAP1 POP DUP4 JUMP JUMPDEST PUSH1 0x0 DUP1 PUSH1 0x40 MLOAD DUP1 PUSH1 0x60 ADD PUSH1 0x40 MSTORE SWAP1 DUP2 PUSH1 0x0 DUP3 ADD DUP1 SLOAD PUSH2 0x155 SWAP1 PUSH2 0x680 JUMP JUMPDEST DUP1 PUSH1 0x1F ADD PUSH1 0x20 DUP1 SWAP2 DIV MUL PUSH1 0x20 ADD PUSH1 0x40 MLOAD SWAP1 DUP2 ADD PUSH1 0x40 MSTORE DUP1 SWAP3 SWAP2 SWAP1 DUP2 DUP2 MSTORE PUSH1 0x20 ADD DUP3 DUP1 SLOAD PUSH2 0x181 SWAP1 PUSH2 0x680 JUMP JUMPDEST DUP1 ISZERO PUSH2 0x1CE JUMPI DUP1 PUSH1 0x1F LT PUSH2 0x1A3 JUMPI PUSH2 0x100 DUP1 DUP4 SLOAD DIV MUL DUP4 MSTORE SWAP2 PUSH1 0x20 ADD SWAP2 PUSH2 0x1CE JUMP JUMPDEST DUP3 ADD SWAP2 SWAP1 PUSH1 0x0 MSTORE PUSH1 0x20 PUSH1 0x0 KECCAK256 SWAP1 JUMPDEST DUP2 SLOAD DUP2 MSTORE SWAP1 PUSH1 0x1 ADD SWAP1 PUSH1 0x20 ADD DUP1 DUP4 GT PUSH2 0x1B1 JUMPI DUP3 SWAP1 SUB PUSH1 0x1F AND DUP3 ADD SWAP2 JUMPDEST POP POP POP POP POP DUP2 MSTORE PUSH1 0x20 ADD PUSH1 0x1 DUP3 ADD SLOAD DUP2 MSTORE PUSH1 0x20 ADD PUSH1 0x2 DUP3 ADD PUSH1 0x0 SWAP1 SLOAD SWAP1 PUSH2 0x100 EXP SWAP1 DIV PUSH20 0xFFFFFFFFFFFFFFFFFFFFFFFFFFFFFFFFFFFFFFFF AND PUSH20 0xFFFFFFFFFFFFFFFFFFFFFFFFFFFFFFFFFFFFFFFF AND PUSH20 0xFFFFFFFFFFFFFFFFFFFFFFFFFFFFFFFFFFFFFFFF AND DUP2 MSTORE POP POP SWAP1 POP PUSH1 0x40 MLOAD DUP1 PUSH1 0x60 ADD PUSH1 0x40 MSTORE DUP1 DUP6 DUP2 MSTORE PUSH1 0x20 ADD DUP5 DUP2 MSTORE PUSH1 0x20 ADD DUP4 PUSH20 0xFFFFFFFFFFFFFFFFFFFFFFFFFFFFFFFFFFFFFFFF AND DUP2 MSTORE POP PUSH1 0x0 DUP1 DUP3 ADD MLOAD DUP2 PUSH1 0x0 ADD SWAP1 DUP2 PUSH2 0x280 SWAP2 SWAP1 PUSH2 0x85D JUMP JUMPDEST POP PUSH1 0x20 DUP3 ADD MLOAD DUP2 PUSH1 0x1 ADD SSTORE PUSH1 0x40 DUP3 ADD MLOAD DUP2 PUSH1 0x2 ADD PUSH1 0x0 PUSH2 0x100 EXP DUP2 SLOAD DUP2 PUSH20 0xFFFFFFFFFFFFFFFFFFFFFFFFFFFFFFFFFFFFFFFF MUL NOT AND SWAP1 DUP4 PUSH20 0xFFFFFFFFFFFFFFFFFFFFFFFFFFFFFFFFFFFFFFFF AND MUL OR SWAP1 SSTORE POP SWAP1 POP POP PUSH32 0x32523892B5C148AFC3B7D70D5F8028D5D2091114003A2674C88E907FBA08537 DUP2 PUSH1 0x0 TIMESTAMP NUMBER PUSH1 0x40 MLOAD PUSH2 0x30B SWAP5 SWAP4 SWAP3 SWAP2 SWAP1 PUSH2 0xB3D JUMP JUMPDEST PUSH1 0x40 MLOAD DUP1 SWAP2 SUB SWAP1 LOG1 POP POP POP POP JUMP JUMPDEST PUSH1 0x0 DUP2 MLOAD SWAP1 POP SWAP2 SWAP1 POP JUMP JUMPDEST PUSH1 0x0 DUP3 DUP3 MSTORE PUSH1 0x20 DUP3 ADD SWAP1 POP SWAP3 SWAP2 POP POP JUMP JUMPDEST PUSH1 0x0 JUMPDEST DUP4 DUP2 LT ISZERO PUSH2 0x353 JUMPI DUP1 DUP3 ADD MLOAD DUP2 DUP5 ADD MSTORE PUSH1 0x20 DUP2 ADD SWAP1 POP PUSH2 0x338 JUMP JUMPDEST PUSH1 0x0 DUP5 DUP5 ADD MSTORE POP POP POP POP JUMP JUMPDEST PUSH1 0x0 PUSH1 0x1F NOT PUSH1 0x1F DUP4 ADD AND SWAP1 POP SWAP2 SWAP1 POP JUMP JUMPDEST PUSH1 0x0 PUSH2 0x37B DUP3 PUSH2 0x319 JUMP JUMPDEST PUSH2 0x385 DUP2 DUP6 PUSH2 0x324 JUMP JUMPDEST SWAP4 POP PUSH2 0x395 DUP2 DUP6 PUSH1 0x20 DUP7 ADD PUSH2 0x335 JUMP JUMPDEST PUSH2 0x39E DUP2 PUSH2 0x35F JUMP JUMPDEST DUP5 ADD SWAP2 POP POP SWAP3 SWAP2 POP POP JUMP JUMPDEST PUSH1 0x0 DUP2 SWAP1 POP SWAP2 SWAP1 POP JUMP JUMPDEST PUSH2 0x3BC DUP2 PUSH2 0x3A9 JUMP JUMPDEST DUP3 MSTORE POP POP JUMP JUMPDEST PUSH1 0x0 PUSH20 0xFFFFFFFFFFFFFFFFFFFFFFFFFFFFFFFFFFFFFFFF DUP3 AND SWAP1 POP SWAP2 SWAP1 POP JUMP JUMPDEST PUSH1 0x0 PUSH2 0x3ED DUP3 PUSH2 0x3C2 JUMP JUMPDEST SWAP1 POP SWAP2 SWAP1 POP JUMP JUMPDEST PUSH2 0x3FD DUP2 PUSH2 0x3E2 JUMP JUMPDEST DUP3 MSTORE POP POP JUMP JUMPDEST PUSH1 0x0 PUSH1 0x60 DUP3 ADD SWAP1 POP DUP2 DUP2 SUB PUSH1 0x0 DUP4 ADD MSTORE PUSH2 0x41D DUP2 DUP7 PUSH2 0x370 JUMP JUMPDEST SWAP1 POP PUSH2 0x42C PUSH1 0x20 DUP4 ADD DUP6 PUSH2 0x3B3 JUMP JUMPDEST PUSH2 0x439 PUSH1 0x40 DUP4 ADD DUP5 PUSH2 0x3F4 JUMP JUMPDEST SWAP5 SWAP4 POP POP POP POP JUMP JUMPDEST PUSH1 0x0 PUSH1 0x40 MLOAD SWAP1 POP SWAP1 JUMP JUMPDEST PUSH1 0x0 DUP1 REVERT JUMPDEST PUSH1 0x0 DUP1 REVERT JUMPDEST PUSH1 0x0 DUP1 REVERT JUMPDEST PUSH1 0x0 DUP1 REVERT JUMPDEST PUSH32 0x4E487B7100000000000000000000000000000000000000000000000000000000 PUSH1 0x0 MSTORE PUSH1 0x41 PUSH1 0x4 MSTORE PUSH1 0x24 PUSH1 0x0 REVERT JUMPDEST PUSH2 0x497 DUP3 PUSH2 0x35F JUMP JUMPDEST DUP2 ADD DUP2 DUP2 LT PUSH8 0xFFFFFFFFFFFFFFFF DUP3 GT OR ISZERO PUSH2 0x4B6 JUMPI PUSH2 0x4B5 PUSH2 0x45F JUMP JUMPDEST JUMPDEST DUP1 PUSH1 0x40 MSTORE POP POP POP JUMP JUMPDEST PUSH1 0x0 PUSH2 0x4C9 PUSH2 0x441 JUMP JUMPDEST SWAP1 POP PUSH2 0x4D5 DUP3 DUP3 PUSH2 0x48E JUMP JUMPDEST SWAP2 SWAP1 POP JUMP JUMPDEST PUSH1 0x0 PUSH8 0xFFFFFFFFFFFFFFFF DUP3 GT ISZERO PUSH2 0x4F5 JUMPI PUSH2 0x4F4 PUSH2 0x45F JUMP JUMPDEST JUMPDEST PUSH2 0x4FE DUP3 PUSH2 0x35F JUMP JUMPDEST SWAP1 POP PUSH1 0x20 DUP2 ADD SWAP1 POP SWAP2 SWAP1 POP JUMP JUMPDEST DUP3 DUP2 DUP4 CALLDATACOPY PUSH1 0x0 DUP4 DUP4 ADD MSTORE POP POP POP JUMP JUMPDEST PUSH1 0x0 PUSH2 0x52D PUSH2 0x528 DUP5 PUSH2 0x4DA JUMP JUMPDEST PUSH2 0x4BF JUMP JUMPDEST SWAP1 POP DUP3 DUP2 MSTORE PUSH1 0x20 DUP2 ADD DUP5 DUP5 DUP5 ADD GT ISZERO PUSH2 0x549 JUMPI PUSH2 0x548 PUSH2 0x45A JUMP JUMPDEST JUMPDEST PUSH2 0x554 DUP5 DUP3 DUP6 PUSH2 0x50B JUMP JUMPDEST POP SWAP4 SWAP3 POP POP POP JUMP JUMPDEST PUSH1 0x0 DUP3 PUSH1 0x1F DUP4 ADD SLT PUSH2 0x571 JUMPI PUSH2 0x570 PUSH2 0x455 JUMP JUMPDEST JUMPDEST DUP2 CALLDATALOAD PUSH2 0x581 DUP5 DUP3 PUSH1 0x20 DUP7 ADD PUSH2 0x51A JUMP JUMPDEST SWAP2 POP POP SWAP3 SWAP2 POP POP JUMP JUMPDEST PUSH2 0x593 DUP2 PUSH2 0x3A9 JUMP JUMPDEST DUP2 EQ PUSH2 0x59E JUMPI PUSH1 0x0 DUP1 REVERT JUMPDEST POP JUMP JUMPDEST PUSH1 0x0 DUP2 CALLDATALOAD SWAP1 POP PUSH2 0x5B0 DUP2 PUSH2 0x58A JUMP JUMPDEST SWAP3 SWAP2 POP POP JUMP JUMPDEST PUSH2 0x5BF DUP2 PUSH2 0x3E2 JUMP JUMPDEST DUP2 EQ PUSH2 0x5CA JUMPI PUSH1 0x0 DUP1 REVERT JUMPDEST POP JUMP JUMPDEST PUSH1 0x0 DUP2 CALLDATALOAD SWAP1 POP PUSH2 0x5DC DUP2 PUSH2 0x5B6 JUMP JUMPDEST SWAP3 SWAP2 POP POP JUMP JUMPDEST PUSH1 0x0 DUP1 PUSH1 0x0 PUSH1 0x60 DUP5 DUP7 SUB SLT ISZERO PUSH2 0x5FB JUMPI PUSH2 0x5FA PUSH2 0x44B JUMP JUMPDEST JUMPDEST PUSH1 0x0 DUP5 ADD CALLDATALOAD PUSH8 0xFFFFFFFFFFFFFFFF DUP2 GT ISZERO PUSH2 0x619 JUMPI PUSH2 0x618 PUSH2 0x450 JUMP JUMPDEST JUMPDEST PUSH2 0x625 DUP7 DUP3 DUP8 ADD PUSH2 0x55C JUMP JUMPDEST SWAP4 POP POP PUSH1 0x20 PUSH2 0x636 DUP7 DUP3 DUP8 ADD PUSH2 0x5A1 JUMP JUMPDEST SWAP3 POP POP PUSH1 0x40 PUSH2 0x647 DUP7 DUP3 DUP8 ADD PUSH2 0x5CD JUMP JUMPDEST SWAP2 POP POP SWAP3 POP SWAP3 POP SWAP3 JUMP JUMPDEST PUSH32 0x4E487B7100000000000000000000000000000000000000000000000000000000 PUSH1 0x0 MSTORE PUSH1 0x22 PUSH1 0x4 MSTORE PUSH1 0x24 PUSH1 0x0 REVERT JUMPDEST PUSH1 0x0 PUSH1 0x2 DUP3 DIV SWAP1 POP PUSH1 0x1 DUP3 AND DUP1 PUSH2 0x698 JUMPI PUSH1 0x7F DUP3 AND SWAP2 POP JUMPDEST PUSH1 0x20 DUP3 LT DUP2 SUB PUSH2 0x6AB JUMPI PUSH2 0x6AA PUSH2 0x651 JUMP JUMPDEST JUMPDEST POP SWAP2 SWAP1 POP JUMP JUMPDEST PUSH1 0x0 DUP2 SWAP1 POP DUP2 PUSH1 0x0 MSTORE PUSH1 0x20 PUSH1 0x0 KECCAK256 SWAP1 POP SWAP2 SWAP1 POP JUMP JUMPDEST PUSH1 0x0 PUSH1 0x20 PUSH1 0x1F DUP4 ADD DIV SWAP1 POP SWAP2 SWAP1 POP JUMP JUMPDEST PUSH1 0x0 DUP3 DUP3 SHL SWAP1 POP SWAP3 SWAP2 POP POP JUMP JUMPDEST PUSH1 0x0 PUSH1 0x8 DUP4 MUL PUSH2 0x713 PUSH32 0xFFFFFFFFFFFFFFFFFFFFFFFFFFFFFFFFFFFFFFFFFFFFFFFFFFFFFFFFFFFFFFFF DUP3 PUSH2 0x6D6 JUMP JUMPDEST PUSH2 0x71D DUP7 DUP4 PUSH2 0x6D6 JUMP JUMPDEST SWAP6 POP DUP1 NOT DUP5 AND SWAP4 POP DUP1 DUP7 AND DUP5 OR SWAP3 POP POP POP SWAP4 SWAP3 POP POP POP JUMP JUMPDEST PUSH1 0x0 DUP2 SWAP1 POP SWAP2 SWAP1 POP JUMP JUMPDEST PUSH1 0x0 PUSH2 0x75A PUSH2 0x755 PUSH2 0x750 DUP5 PUSH2 0x3A9 JUMP JUMPDEST PUSH2 0x735 JUMP JUMPDEST PUSH2 0x3A9 JUMP JUMPDEST SWAP1 POP SWAP2 SWAP1 POP JUMP JUMPDEST PUSH1 0x0 DUP2 SWAP1 POP SWAP2 SWAP1 POP JUMP JUMPDEST PUSH2 0x774 DUP4 PUSH2 0x73F JUMP JUMPDEST PUSH2 0x788 PUSH2 0x780 DUP3 PUSH2 0x761 JUMP JUMPDEST DUP5 DUP5 SLOAD PUSH2 0x6E3 JUMP JUMPDEST DUP3 SSTORE POP POP POP POP JUMP JUMPDEST PUSH1 0x0 SWAP1 JUMP JUMPDEST PUSH2 0x79D PUSH2 0x790 JUMP JUMPDEST PUSH2 0x7A8 DUP2 DUP5 DUP5 PUSH2 0x76B JUMP JUMPDEST POP POP POP JUMP JUMPDEST JUMPDEST DUP2 DUP2 LT ISZERO PUSH2 0x7CC JUMPI PUSH2 0x7C1 PUSH1 0x0 DUP3 PUSH2 0x795 JUMP JUMPDEST PUSH1 0x1 DUP2 ADD SWAP1 POP PUSH2 0x7AE JUMP JUMPDEST POP POP JUMP JUMPDEST PUSH1 0x1F DUP3 GT ISZERO PUSH2 0x811 JUMPI PUSH2 0x7E2 DUP2 PUSH2 0x6B1 JUMP JUMPDEST PUSH2 0x7EB DUP5 PUSH2 0x6C6 JUMP JUMPDEST DUP2 ADD PUSH1 0x20 DUP6 LT ISZERO PUSH2 0x7FA JUMPI DUP2 SWAP1 POP JUMPDEST PUSH2 0x80E PUSH2 0x806 DUP6 PUSH2 0x6C6 JUMP JUMPDEST DUP4 ADD DUP3 PUSH2 0x7AD JUMP JUMPDEST POP POP JUMPDEST POP POP POP JUMP JUMPDEST PUSH1 0x0 DUP3 DUP3 SHR SWAP1 POP SWAP3 SWAP2 POP POP JUMP JUMPDEST PUSH1 0x0 PUSH2 0x834 PUSH1 0x0 NOT DUP5 PUSH1 0x8 MUL PUSH2 0x816 JUMP JUMPDEST NOT DUP1 DUP4 AND SWAP2 POP POP SWAP3 SWAP2 POP POP JUMP JUMPDEST PUSH1 0x0 PUSH2 0x84D DUP4 DUP4 PUSH2 0x823 JUMP JUMPDEST SWAP2 POP DUP3 PUSH1 0x2 MUL DUP3 OR SWAP1 POP SWAP3 SWAP2 POP POP JUMP JUMPDEST PUSH2 0x866 DUP3 PUSH2 0x319 JUMP JUMPDEST PUSH8 0xFFFFFFFFFFFFFFFF DUP2 GT ISZERO PUSH2 0x87F JUMPI PUSH2 0x87E PUSH2 0x45F JUMP JUMPDEST JUMPDEST PUSH2 0x889 DUP3 SLOAD PUSH2 0x680 JUMP JUMPDEST PUSH2 0x894 DUP3 DUP3 DUP6 PUSH2 0x7D0 JUMP JUMPDEST PUSH1 0x0 PUSH1 0x20 SWAP1 POP PUSH1 0x1F DUP4 GT PUSH1 0x1 DUP2 EQ PUSH2 0x8C7 JUMPI PUSH1 0x0 DUP5 ISZERO PUSH2 0x8B5 JUMPI DUP3 DUP8 ADD MLOAD SWAP1 POP JUMPDEST PUSH2 0x8BF DUP6 DUP3 PUSH2 0x841 JUMP JUMPDEST DUP7 SSTORE POP PUSH2 0x927 JUMP JUMPDEST PUSH1 0x1F NOT DUP5 AND PUSH2 0x8D5 DUP7 PUSH2 0x6B1 JUMP JUMPDEST PUSH1 0x0 JUMPDEST DUP3 DUP2 LT ISZERO PUSH2 0x8FD JUMPI DUP5 DUP10 ADD MLOAD DUP3 SSTORE PUSH1 0x1 DUP3 ADD SWAP2 POP PUSH1 0x20 DUP6 ADD SWAP5 POP PUSH1 0x20 DUP2 ADD SWAP1 POP PUSH2 0x8D8 JUMP JUMPDEST DUP7 DUP4 LT ISZERO PUSH2 0x91A JUMPI DUP5 DUP10 ADD MLOAD PUSH2 0x916 PUSH1 0x1F DUP10 AND DUP3 PUSH2 0x823 JUMP JUMPDEST DUP4 SSTORE POP JUMPDEST PUSH1 0x1 PUSH1 0x2 DUP9 MUL ADD DUP9 SSTORE POP POP POP JUMPDEST POP POP POP POP POP POP JUMP JUMPDEST PUSH1 0x0 DUP3 DUP3 MSTORE PUSH1 0x20 DUP3 ADD SWAP1 POP SWAP3 SWAP2 POP POP JUMP JUMPDEST PUSH1 0x0 PUSH2 0x94B DUP3 PUSH2 0x319 JUMP JUMPDEST PUSH2 0x955 DUP2 DUP6 PUSH2 0x92F JUMP JUMPDEST SWAP4 POP PUSH2 0x965 DUP2 DUP6 PUSH1 0x20 DUP7 ADD PUSH2 0x335 JUMP JUMPDEST PUSH2 0x96E DUP2 PUSH2 0x35F JUMP JUMPDEST DUP5 ADD SWAP2 POP POP SWAP3 SWAP2 POP POP JUMP JUMPDEST PUSH2 0x982 DUP2 PUSH2 0x3A9 JUMP JUMPDEST DUP3 MSTORE POP POP JUMP JUMPDEST PUSH2 0x991 DUP2 PUSH2 0x3E2 JUMP JUMPDEST DUP3 MSTORE POP POP JUMP JUMPDEST PUSH1 0x0 PUSH1 0x60 DUP4 ADD PUSH1 0x0 DUP4 ADD MLOAD DUP5 DUP3 SUB PUSH1 0x0 DUP7 ADD MSTORE PUSH2 0x9B4 DUP3 DUP3 PUSH2 0x940 JUMP JUMPDEST SWAP2 POP POP PUSH1 0x20 DUP4 ADD MLOAD PUSH2 0x9C9 PUSH1 0x20 DUP7 ADD DUP3 PUSH2 0x979 JUMP JUMPDEST POP PUSH1 0x40 DUP4 ADD MLOAD PUSH2 0x9DC PUSH1 0x40 DUP7 ADD DUP3 PUSH2 0x988 JUMP JUMPDEST POP DUP1 SWAP2 POP POP SWAP3 SWAP2 POP POP JUMP JUMPDEST PUSH1 0x0 DUP2 SLOAD PUSH2 0x9F4 DUP2 PUSH2 0x680 JUMP JUMPDEST PUSH2 0x9FE DUP2 DUP7 PUSH2 0x92F JUMP JUMPDEST SWAP5 POP PUSH1 0x1 DUP3 AND PUSH1 0x0 DUP2 EQ PUSH2 0xA19 JUMPI PUSH1 0x1 DUP2 EQ PUSH2 0xA2F JUMPI PUSH2 0xA62 JUMP JUMPDEST PUSH1 0xFF NOT DUP4 AND DUP7 MSTORE DUP2 ISZERO ISZERO PUSH1 0x20 MUL DUP7 ADD SWAP4 POP PUSH2 0xA62 JUMP JUMPDEST PUSH2 0xA38 DUP6 PUSH2 0x6B1 JUMP JUMPDEST PUSH1 0x0 JUMPDEST DUP4 DUP2 LT ISZERO PUSH2 0xA5A JUMPI DUP2 SLOAD DUP2 DUP10 ADD MSTORE PUSH1 0x1 DUP3 ADD SWAP2 POP PUSH1 0x20 DUP2 ADD SWAP1 POP PUSH2 0xA3B JUMP JUMPDEST DUP1 DUP9 ADD SWAP6 POP POP POP JUMPDEST POP POP POP SWAP3 SWAP2 POP POP JUMP JUMPDEST PUSH1 0x0 DUP2 PUSH1 0x0 SHR SWAP1 POP SWAP2 SWAP1 POP JUMP JUMPDEST PUSH1 0x0 DUP2 SWAP1 POP SWAP2 SWAP1 POP JUMP JUMPDEST PUSH1 0x0 PUSH2 0xA95 PUSH2 0xA90 DUP4 PUSH2 0xA6B JUMP JUMPDEST PUSH2 0xA78 JUMP JUMPDEST SWAP1 POP SWAP2 SWAP1 POP JUMP JUMPDEST PUSH1 0x0 PUSH20 0xFFFFFFFFFFFFFFFFFFFFFFFFFFFFFFFFFFFFFFFF DUP3 AND SWAP1 POP SWAP2 SWAP1 POP JUMP JUMPDEST PUSH1 0x0 PUSH2 0xACF PUSH2 0xACA DUP4 PUSH2 0xA6B JUMP JUMPDEST PUSH2 0xA9C JUMP JUMPDEST SWAP1 POP SWAP2 SWAP1 POP JUMP JUMPDEST PUSH1 0x0 PUSH1 0x60 DUP4 ADD PUSH1 0x0 DUP1 DUP5 ADD DUP6 DUP4 SUB PUSH1 0x0 DUP8 ADD MSTORE PUSH2 0xAF3 DUP4 DUP3 PUSH2 0x9E7 JUMP JUMPDEST SWAP3 POP POP PUSH1 0x1 DUP5 ADD SLOAD SWAP1 POP PUSH2 0xB06 DUP2 PUSH2 0xA82 JUMP JUMPDEST PUSH2 0xB13 PUSH1 0x20 DUP8 ADD DUP3 PUSH2 0x979 JUMP JUMPDEST POP PUSH1 0x2 DUP5 ADD SLOAD SWAP1 POP PUSH2 0xB24 DUP2 PUSH2 0xABC JUMP JUMPDEST PUSH2 0xB31 PUSH1 0x40 DUP8 ADD DUP3 PUSH2 0x988 JUMP JUMPDEST POP DUP2 SWAP3 POP POP POP SWAP3 SWAP2 POP POP JUMP JUMPDEST PUSH1 0x0 PUSH1 0x80 DUP3 ADD SWAP1 POP DUP2 DUP2 SUB PUSH1 0x0 DUP4 ADD MSTORE PUSH2 0xB57 DUP2 DUP8 PUSH2 0x997 JUMP JUMPDEST SWAP1 POP DUP2 DUP2 SUB PUSH1 0x20 DUP4 ADD MSTORE PUSH2 0xB6B DUP2 DUP7 PUSH2 0xAD6 JUMP JUMPDEST SWAP1 POP PUSH2 0xB7A PUSH1 0x40 DUP4 ADD DUP6 PUSH2 0x3B3 JUMP JUMPDEST PUSH2 0xB87 PUSH1 0x60 DUP4 ADD DUP5 PUSH2 0x3B3 JUMP JUMPDEST SWAP6 SWAP5 POP POP POP POP POP JUMP INVALID LOG2 PUSH5 0x6970667358 0x22 SLT KECCAK256 0xDA INVALID 0xF8 0xD6 DUP2 SWAP1 SWAP3 PUSH20 0x357FAEA4DB4DB790B37F3AFABDBE59851CF39641 0xF7 0xEF PUSH23 0x8564736F6C634300081200330000000000000000000000 "
				},
				"gasEstimates": {
					"creation": {
						"codeDepositCost": "602800",
						"executionCost": "638",
						"totalCost": "603438"
					},
					"external": {
						"P1()": "infinite",
						"setPersonInfo(string,uint256,address)": "infinite"
					}
				},
				"methodIdentifiers": {
					"P1()": "1de21b76",
					"setPersonInfo(string,uint256,address)": "463bbb12"
				}
			},
			"storageLayout": {
				"storage": [
					{
						"astId": 11,
						"contract": "contracts/10-8 Events3.sol:eventsLab",
						"label": "P1",
						"offset": 0,
						"slot": "0",
						"type": "t_struct(PersonInfo)8_storage"
					}
				],
				"types": {
					"t_address": {
						"encoding": "inplace",
						"label": "address",
						"numberOfBytes": "20"
					},
					"t_string_storage": {
						"encoding": "bytes",
						"label": "string",
						"numberOfBytes": "32"
					},
					"t_struct(PersonInfo)8_storage": {
						"encoding": "inplace",
						"label": "struct eventsLab.PersonInfo",
						"members": [
							{
								"astId": 3,
								"contract": "contracts/10-8 Events3.sol:eventsLab",
								"label": "name",
								"offset": 0,
								"slot": "0",
								"type": "t_string_storage"
							},
							{
								"astId": 5,
								"contract": "contracts/10-8 Events3.sol:eventsLab",
								"label": "age",
								"offset": 0,
								"slot": "1",
								"type": "t_uint256"
							},
							{
								"astId": 7,
								"contract": "contracts/10-8 Events3.sol:eventsLab",
								"label": "WalletAdr",
								"offset": 0,
								"slot": "2",
								"type": "t_address"
							}
						],
						"numberOfBytes": "96"
					},
					"t_uint256": {
						"encoding": "inplace",
						"label": "uint256",
						"numberOfBytes": "32"
					}
				}
			},
			"userdoc": {
				"kind": "user",
				"methods": {},
				"version": 1
			}
		}
	}
}