{
	"data": {
		"bytecode": {
			"linkReferences": {},
			"object": "608060405234801561001057600080fd5b506103d8806100206000396000f3fe608060405234801561001057600080fd5b506004361061004c5760003560e01c806338d94193146100515780636d4ce63c14610081578063a16d35981461009f578063c3344af8146100bd575b600080fd5b61006b60048036038101906100669190610222565b6100c7565b6040516100789190610268565b60405180910390f35b6100896100e2565b604051610096919061032e565b60405180910390f35b6100a761012d565b6040516100b49190610358565b60405180910390f35b6100c5610136565b005b600081600481106100d757600080fd5b016000915090505481565b6100ea6101c5565b6000600480602002604051908101604052809291908260048015610123576020028201915b81548152602001906001019080831161010f575b5050505050905090565b60006004905090565b7ffffffffffffffffffffffffffffffffffffffffffffffffffffffffffffffffb6000806004811061016b5761016a610373565b5b018190555060008060016004811061018657610185610373565b5b0181905550600560006002600481106101a2576101a1610373565b5b0181905550600a60006003600481106101be576101bd610373565b5b0181905550565b6040518060800160405280600490602082028036833780820191505090505090565b600080fd5b6000819050919050565b6101ff816101ec565b811461020a57600080fd5b50565b60008135905061021c816101f6565b92915050565b600060208284031215610238576102376101e7565b5b60006102468482850161020d565b91505092915050565b6000819050919050565b6102628161024f565b82525050565b600060208201905061027d6000830184610259565b92915050565b600060049050919050565b600081905092915050565b6000819050919050565b6102ac8161024f565b82525050565b60006102be83836102a3565b60208301905092915050565b6000602082019050919050565b6102e081610283565b6102ea818461028e565b92506102f582610299565b8060005b8381101561032657815161030d87826102b2565b9650610318836102ca565b9250506001810190506102f9565b505050505050565b600060808201905061034360008301846102d7565b92915050565b610352816101ec565b82525050565b600060208201905061036d6000830184610349565b92915050565b7f4e487b7100000000000000000000000000000000000000000000000000000000600052603260045260246000fdfea26469706673582212205bac8743f4101b3eb0fc5d069f0eb0090ece2fbbeacad46a85d601b5c53eba9f64736f6c63430008120033",
			"opcodes": "PUSH1 0x80 PUSH1 0x40 MSTORE CALLVALUE DUP1 ISZERO PUSH2 0x10 JUMPI PUSH1 0x0 DUP1 REVERT JUMPDEST POP PUSH2 0x3D8 DUP1 PUSH2 0x20 PUSH1 0x0 CODECOPY PUSH1 0x0 RETURN INVALID PUSH1 0x80 PUSH1 0x40 MSTORE CALLVALUE DUP1 ISZERO PUSH2 0x10 JUMPI PUSH1 0x0 DUP1 REVERT JUMPDEST POP PUSH1 0x4 CALLDATASIZE LT PUSH2 0x4C JUMPI PUSH1 0x0 CALLDATALOAD PUSH1 0xE0 SHR DUP1 PUSH4 0x38D94193 EQ PUSH2 0x51 JUMPI DUP1 PUSH4 0x6D4CE63C EQ PUSH2 0x81 JUMPI DUP1 PUSH4 0xA16D3598 EQ PUSH2 0x9F JUMPI DUP1 PUSH4 0xC3344AF8 EQ PUSH2 0xBD JUMPI JUMPDEST PUSH1 0x0 DUP1 REVERT JUMPDEST PUSH2 0x6B PUSH1 0x4 DUP1 CALLDATASIZE SUB DUP2 ADD SWAP1 PUSH2 0x66 SWAP2 SWAP1 PUSH2 0x222 JUMP JUMPDEST PUSH2 0xC7 JUMP JUMPDEST PUSH1 0x40 MLOAD PUSH2 0x78 SWAP2 SWAP1 PUSH2 0x268 JUMP JUMPDEST PUSH1 0x40 MLOAD DUP1 SWAP2 SUB SWAP1 RETURN JUMPDEST PUSH2 0x89 PUSH2 0xE2 JUMP JUMPDEST PUSH1 0x40 MLOAD PUSH2 0x96 SWAP2 SWAP1 PUSH2 0x32E JUMP JUMPDEST PUSH1 0x40 MLOAD DUP1 SWAP2 SUB SWAP1 RETURN JUMPDEST PUSH2 0xA7 PUSH2 0x12D JUMP JUMPDEST PUSH1 0x40 MLOAD PUSH2 0xB4 SWAP2 SWAP1 PUSH2 0x358 JUMP JUMPDEST PUSH1 0x40 MLOAD DUP1 SWAP2 SUB SWAP1 RETURN JUMPDEST PUSH2 0xC5 PUSH2 0x136 JUMP JUMPDEST STOP JUMPDEST PUSH1 0x0 DUP2 PUSH1 0x4 DUP2 LT PUSH2 0xD7 JUMPI PUSH1 0x0 DUP1 REVERT JUMPDEST ADD PUSH1 0x0 SWAP2 POP SWAP1 POP SLOAD DUP2 JUMP JUMPDEST PUSH2 0xEA PUSH2 0x1C5 JUMP JUMPDEST PUSH1 0x0 PUSH1 0x4 DUP1 PUSH1 0x20 MUL PUSH1 0x40 MLOAD SWAP1 DUP2 ADD PUSH1 0x40 MSTORE DUP1 SWAP3 SWAP2 SWAP1 DUP3 PUSH1 0x4 DUP1 ISZERO PUSH2 0x123 JUMPI PUSH1 0x20 MUL DUP3 ADD SWAP2 JUMPDEST DUP2 SLOAD DUP2 MSTORE PUSH1 0x20 ADD SWAP1 PUSH1 0x1 ADD SWAP1 DUP1 DUP4 GT PUSH2 0x10F JUMPI JUMPDEST POP POP POP POP POP SWAP1 POP SWAP1 JUMP JUMPDEST PUSH1 0x0 PUSH1 0x4 SWAP1 POP SWAP1 JUMP JUMPDEST PUSH32 0xFFFFFFFFFFFFFFFFFFFFFFFFFFFFFFFFFFFFFFFFFFFFFFFFFFFFFFFFFFFFFFFB PUSH1 0x0 DUP1 PUSH1 0x4 DUP2 LT PUSH2 0x16B JUMPI PUSH2 0x16A PUSH2 0x373 JUMP JUMPDEST JUMPDEST ADD DUP2 SWAP1 SSTORE POP PUSH1 0x0 DUP1 PUSH1 0x1 PUSH1 0x4 DUP2 LT PUSH2 0x186 JUMPI PUSH2 0x185 PUSH2 0x373 JUMP JUMPDEST JUMPDEST ADD DUP2 SWAP1 SSTORE POP PUSH1 0x5 PUSH1 0x0 PUSH1 0x2 PUSH1 0x4 DUP2 LT PUSH2 0x1A2 JUMPI PUSH2 0x1A1 PUSH2 0x373 JUMP JUMPDEST JUMPDEST ADD DUP2 SWAP1 SSTORE POP PUSH1 0xA PUSH1 0x0 PUSH1 0x3 PUSH1 0x4 DUP2 LT PUSH2 0x1BE JUMPI PUSH2 0x1BD PUSH2 0x373 JUMP JUMPDEST JUMPDEST ADD DUP2 SWAP1 SSTORE POP JUMP JUMPDEST PUSH1 0x40 MLOAD DUP1 PUSH1 0x80 ADD PUSH1 0x40 MSTORE DUP1 PUSH1 0x4 SWAP1 PUSH1 0x20 DUP3 MUL DUP1 CALLDATASIZE DUP4 CALLDATACOPY DUP1 DUP3 ADD SWAP2 POP POP SWAP1 POP POP SWAP1 JUMP JUMPDEST PUSH1 0x0 DUP1 REVERT JUMPDEST PUSH1 0x0 DUP2 SWAP1 POP SWAP2 SWAP1 POP JUMP JUMPDEST PUSH2 0x1FF DUP2 PUSH2 0x1EC JUMP JUMPDEST DUP2 EQ PUSH2 0x20A JUMPI PUSH1 0x0 DUP1 REVERT JUMPDEST POP JUMP JUMPDEST PUSH1 0x0 DUP2 CALLDATALOAD SWAP1 POP PUSH2 0x21C DUP2 PUSH2 0x1F6 JUMP JUMPDEST SWAP3 SWAP2 POP POP JUMP JUMPDEST PUSH1 0x0 PUSH1 0x20 DUP3 DUP5 SUB SLT ISZERO PUSH2 0x238 JUMPI PUSH2 0x237 PUSH2 0x1E7 JUMP JUMPDEST JUMPDEST PUSH1 0x0 PUSH2 0x246 DUP5 DUP3 DUP6 ADD PUSH2 0x20D JUMP JUMPDEST SWAP2 POP POP SWAP3 SWAP2 POP POP JUMP JUMPDEST PUSH1 0x0 DUP2 SWAP1 POP SWAP2 SWAP1 POP JUMP JUMPDEST PUSH2 0x262 DUP2 PUSH2 0x24F JUMP JUMPDEST DUP3 MSTORE POP POP JUMP JUMPDEST PUSH1 0x0 PUSH1 0x20 DUP3 ADD SWAP1 POP PUSH2 0x27D PUSH1 0x0 DUP4 ADD DUP5 PUSH2 0x259 JUMP JUMPDEST SWAP3 SWAP2 POP POP JUMP JUMPDEST PUSH1 0x0 PUSH1 0x4 SWAP1 POP SWAP2 SWAP1 POP JUMP JUMPDEST PUSH1 0x0 DUP2 SWAP1 POP SWAP3 SWAP2 POP POP JUMP JUMPDEST PUSH1 0x0 DUP2 SWAP1 POP SWAP2 SWAP1 POP JUMP JUMPDEST PUSH2 0x2AC DUP2 PUSH2 0x24F JUMP JUMPDEST DUP3 MSTORE POP POP JUMP JUMPDEST PUSH1 0x0 PUSH2 0x2BE DUP4 DUP4 PUSH2 0x2A3 JUMP JUMPDEST PUSH1 0x20 DUP4 ADD SWAP1 POP SWAP3 SWAP2 POP POP JUMP JUMPDEST PUSH1 0x0 PUSH1 0x20 DUP3 ADD SWAP1 POP SWAP2 SWAP1 POP JUMP JUMPDEST PUSH2 0x2E0 DUP2 PUSH2 0x283 JUMP JUMPDEST PUSH2 0x2EA DUP2 DUP5 PUSH2 0x28E JUMP JUMPDEST SWAP3 POP PUSH2 0x2F5 DUP3 PUSH2 0x299 JUMP JUMPDEST DUP1 PUSH1 0x0 JUMPDEST DUP4 DUP2 LT ISZERO PUSH2 0x326 JUMPI DUP2 MLOAD PUSH2 0x30D DUP8 DUP3 PUSH2 0x2B2 JUMP JUMPDEST SWAP7 POP PUSH2 0x318 DUP4 PUSH2 0x2CA JUMP JUMPDEST SWAP3 POP POP PUSH1 0x1 DUP2 ADD SWAP1 POP PUSH2 0x2F9 JUMP JUMPDEST POP POP POP POP POP POP JUMP JUMPDEST PUSH1 0x0 PUSH1 0x80 DUP3 ADD SWAP1 POP PUSH2 0x343 PUSH1 0x0 DUP4 ADD DUP5 PUSH2 0x2D7 JUMP JUMPDEST SWAP3 SWAP2 POP POP JUMP JUMPDEST PUSH2 0x352 DUP2 PUSH2 0x1EC JUMP JUMPDEST DUP3 MSTORE POP POP JUMP JUMPDEST PUSH1 0x0 PUSH1 0x20 DUP3 ADD SWAP1 POP PUSH2 0x36D PUSH1 0x0 DUP4 ADD DUP5 PUSH2 0x349 JUMP JUMPDEST SWAP3 SWAP2 POP POP JUMP JUMPDEST PUSH32 0x4E487B7100000000000000000000000000000000000000000000000000000000 PUSH1 0x0 MSTORE PUSH1 0x32 PUSH1 0x4 MSTORE PUSH1 0x24 PUSH1 0x0 REVERT INVALID LOG2 PUSH5 0x6970667358 0x22 SLT KECCAK256 JUMPDEST 0xAC DUP8 NUMBER DELEGATECALL LT SHL RETURNDATACOPY 0xB0 0xFC 0x5D MOD SWAP16 0xE 0xB0 MULMOD 0xE 0xCE 0x2F 0xBB 0xEA 0xCA 0xD4 PUSH11 0x85D601B5C53EBA9F64736F PUSH13 0x63430008120033000000000000 "
		},
		"gasEstimates": {
			"creation": {
				"codeDepositCost": "196800",
				"executionCost": "238",
				"totalCost": "197038"
			},
			"external": {
				"array(uint256)": "2709",
				"get()": "infinite",
				"getlength()": "359",
				"ipush()": "71660"
			}
		},
		"methodIdentifiers": {
			"array(uint256)": "38d94193",
			"get()": "6d4ce63c",
			"getlength()": "a16d3598",
			"ipush()": "c3344af8"
		}
	},
	"abi": [
		{
			"inputs": [
				{
					"internalType": "uint256",
					"name": "",
					"type": "uint256"
				}
			],
			"name": "array",
			"outputs": [
				{
					"internalType": "int256",
					"name": "",
					"type": "int256"
				}
			],
			"stateMutability": "view",
			"type": "function"
		},
		{
			"inputs": [],
			"name": "get",
			"outputs": [
				{
					"internalType": "int256[4]",
					"name": "",
					"type": "int256[4]"
				}
			],
			"stateMutability": "view",
			"type": "function"
		},
		{
			"inputs": [],
			"name": "getlength",
			"outputs": [
				{
					"internalType": "uint256",
					"name": "",
					"type": "uint256"
				}
			],
			"stateMutability": "view",
			"type": "function"
		},
		{
			"inputs": [],
			"name": "ipush",
			"outputs": [],
			"stateMutability": "nonpayable",
			"type": "function"
		}
	]
}