{
	"data": {
		"bytecode": {
			"linkReferences": {},
			"object": "608060405234801561001057600080fd5b5061046c806100206000396000f3fe608060405234801561001057600080fd5b506004361061002b5760003560e01c8063b59d797514610030575b600080fd5b61004a6004803603810190610045919061018e565b610060565b60405161005791906101ca565b60405180910390f35b60008060008060008512156100b4578492507f3f6fc8e51df0b7d30627e5aaad76e4b90168090dfa3756dee2ce3f122a580fd1836040516100a19190610268565b60405180910390a182935050505061014e565b60006002866100c391906102c5565b0361010d578491507f3f6fc8e51df0b7d30627e5aaad76e4b90168090dfa3756dee2ce3f122a580fd1826040516100fa9190610368565b60405180910390a181935050505061014e565b8490507f3f6fc8e51df0b7d30627e5aaad76e4b90168090dfa3756dee2ce3f122a580fd18160405161013f9190610408565b60405180910390a18093505050505b919050565b600080fd5b6000819050919050565b61016b81610158565b811461017657600080fd5b50565b60008135905061018881610162565b92915050565b6000602082840312156101a4576101a3610153565b5b60006101b284828501610179565b91505092915050565b6101c481610158565b82525050565b60006020820190506101df60008301846101bb565b92915050565b600082825260208201905092915050565b7f6e65676174697665206c6f63616c207661726961626c652072657475726e656460008201527f207468652076616c756500000000000000000000000000000000000000000000602082015250565b6000610252602a836101e5565b915061025d826101f6565b604082019050919050565b6000604082019050818103600083015261028181610245565b905061029060208301846101bb565b92915050565b7f4e487b7100000000000000000000000000000000000000000000000000000000600052601260045260246000fd5b60006102d082610158565b91506102db83610158565b9250826102eb576102ea610296565b5b828207905092915050565b7f706f7369746976654576656e206c6f63616c207661726961626c65207265747560008201527f726e6564207468652076616c7565000000000000000000000000000000000000602082015250565b6000610352602e836101e5565b915061035d826102f6565b604082019050919050565b6000604082019050818103600083015261038181610345565b905061039060208301846101bb565b92915050565b7f706f7369746976654f6464206c6f63616c207661726961626c6520726574757260008201527f6e6564207468652076616c756500000000000000000000000000000000000000602082015250565b60006103f2602d836101e5565b91506103fd82610396565b604082019050919050565b60006040820190508181036000830152610421816103e5565b905061043060208301846101bb565b9291505056fea2646970667358221220755e41ef6f7647e44b2cd3522d782e9abcfa9147df3b9d7e61ed4778854daeb964736f6c63430008120033",
			"opcodes": "PUSH1 0x80 PUSH1 0x40 MSTORE CALLVALUE DUP1 ISZERO PUSH2 0x10 JUMPI PUSH1 0x0 DUP1 REVERT JUMPDEST POP PUSH2 0x46C DUP1 PUSH2 0x20 PUSH1 0x0 CODECOPY PUSH1 0x0 RETURN INVALID PUSH1 0x80 PUSH1 0x40 MSTORE CALLVALUE DUP1 ISZERO PUSH2 0x10 JUMPI PUSH1 0x0 DUP1 REVERT JUMPDEST POP PUSH1 0x4 CALLDATASIZE LT PUSH2 0x2B JUMPI PUSH1 0x0 CALLDATALOAD PUSH1 0xE0 SHR DUP1 PUSH4 0xB59D7975 EQ PUSH2 0x30 JUMPI JUMPDEST PUSH1 0x0 DUP1 REVERT JUMPDEST PUSH2 0x4A PUSH1 0x4 DUP1 CALLDATASIZE SUB DUP2 ADD SWAP1 PUSH2 0x45 SWAP2 SWAP1 PUSH2 0x18E JUMP JUMPDEST PUSH2 0x60 JUMP JUMPDEST PUSH1 0x40 MLOAD PUSH2 0x57 SWAP2 SWAP1 PUSH2 0x1CA JUMP JUMPDEST PUSH1 0x40 MLOAD DUP1 SWAP2 SUB SWAP1 RETURN JUMPDEST PUSH1 0x0 DUP1 PUSH1 0x0 DUP1 PUSH1 0x0 DUP6 SLT ISZERO PUSH2 0xB4 JUMPI DUP5 SWAP3 POP PUSH32 0x3F6FC8E51DF0B7D30627E5AAAD76E4B90168090DFA3756DEE2CE3F122A580FD1 DUP4 PUSH1 0x40 MLOAD PUSH2 0xA1 SWAP2 SWAP1 PUSH2 0x268 JUMP JUMPDEST PUSH1 0x40 MLOAD DUP1 SWAP2 SUB SWAP1 LOG1 DUP3 SWAP4 POP POP POP POP PUSH2 0x14E JUMP JUMPDEST PUSH1 0x0 PUSH1 0x2 DUP7 PUSH2 0xC3 SWAP2 SWAP1 PUSH2 0x2C5 JUMP JUMPDEST SUB PUSH2 0x10D JUMPI DUP5 SWAP2 POP PUSH32 0x3F6FC8E51DF0B7D30627E5AAAD76E4B90168090DFA3756DEE2CE3F122A580FD1 DUP3 PUSH1 0x40 MLOAD PUSH2 0xFA SWAP2 SWAP1 PUSH2 0x368 JUMP JUMPDEST PUSH1 0x40 MLOAD DUP1 SWAP2 SUB SWAP1 LOG1 DUP2 SWAP4 POP POP POP POP PUSH2 0x14E JUMP JUMPDEST DUP5 SWAP1 POP PUSH32 0x3F6FC8E51DF0B7D30627E5AAAD76E4B90168090DFA3756DEE2CE3F122A580FD1 DUP2 PUSH1 0x40 MLOAD PUSH2 0x13F SWAP2 SWAP1 PUSH2 0x408 JUMP JUMPDEST PUSH1 0x40 MLOAD DUP1 SWAP2 SUB SWAP1 LOG1 DUP1 SWAP4 POP POP POP POP JUMPDEST SWAP2 SWAP1 POP JUMP JUMPDEST PUSH1 0x0 DUP1 REVERT JUMPDEST PUSH1 0x0 DUP2 SWAP1 POP SWAP2 SWAP1 POP JUMP JUMPDEST PUSH2 0x16B DUP2 PUSH2 0x158 JUMP JUMPDEST DUP2 EQ PUSH2 0x176 JUMPI PUSH1 0x0 DUP1 REVERT JUMPDEST POP JUMP JUMPDEST PUSH1 0x0 DUP2 CALLDATALOAD SWAP1 POP PUSH2 0x188 DUP2 PUSH2 0x162 JUMP JUMPDEST SWAP3 SWAP2 POP POP JUMP JUMPDEST PUSH1 0x0 PUSH1 0x20 DUP3 DUP5 SUB SLT ISZERO PUSH2 0x1A4 JUMPI PUSH2 0x1A3 PUSH2 0x153 JUMP JUMPDEST JUMPDEST PUSH1 0x0 PUSH2 0x1B2 DUP5 DUP3 DUP6 ADD PUSH2 0x179 JUMP JUMPDEST SWAP2 POP POP SWAP3 SWAP2 POP POP JUMP JUMPDEST PUSH2 0x1C4 DUP2 PUSH2 0x158 JUMP JUMPDEST DUP3 MSTORE POP POP JUMP JUMPDEST PUSH1 0x0 PUSH1 0x20 DUP3 ADD SWAP1 POP PUSH2 0x1DF PUSH1 0x0 DUP4 ADD DUP5 PUSH2 0x1BB JUMP JUMPDEST SWAP3 SWAP2 POP POP JUMP JUMPDEST PUSH1 0x0 DUP3 DUP3 MSTORE PUSH1 0x20 DUP3 ADD SWAP1 POP SWAP3 SWAP2 POP POP JUMP JUMPDEST PUSH32 0x6E65676174697665206C6F63616C207661726961626C652072657475726E6564 PUSH1 0x0 DUP3 ADD MSTORE PUSH32 0x207468652076616C756500000000000000000000000000000000000000000000 PUSH1 0x20 DUP3 ADD MSTORE POP JUMP JUMPDEST PUSH1 0x0 PUSH2 0x252 PUSH1 0x2A DUP4 PUSH2 0x1E5 JUMP JUMPDEST SWAP2 POP PUSH2 0x25D DUP3 PUSH2 0x1F6 JUMP JUMPDEST PUSH1 0x40 DUP3 ADD SWAP1 POP SWAP2 SWAP1 POP JUMP JUMPDEST PUSH1 0x0 PUSH1 0x40 DUP3 ADD SWAP1 POP DUP2 DUP2 SUB PUSH1 0x0 DUP4 ADD MSTORE PUSH2 0x281 DUP2 PUSH2 0x245 JUMP JUMPDEST SWAP1 POP PUSH2 0x290 PUSH1 0x20 DUP4 ADD DUP5 PUSH2 0x1BB JUMP JUMPDEST SWAP3 SWAP2 POP POP JUMP JUMPDEST PUSH32 0x4E487B7100000000000000000000000000000000000000000000000000000000 PUSH1 0x0 MSTORE PUSH1 0x12 PUSH1 0x4 MSTORE PUSH1 0x24 PUSH1 0x0 REVERT JUMPDEST PUSH1 0x0 PUSH2 0x2D0 DUP3 PUSH2 0x158 JUMP JUMPDEST SWAP2 POP PUSH2 0x2DB DUP4 PUSH2 0x158 JUMP JUMPDEST SWAP3 POP DUP3 PUSH2 0x2EB JUMPI PUSH2 0x2EA PUSH2 0x296 JUMP JUMPDEST JUMPDEST DUP3 DUP3 SMOD SWAP1 POP SWAP3 SWAP2 POP POP JUMP JUMPDEST PUSH32 0x706F7369746976654576656E206C6F63616C207661726961626C652072657475 PUSH1 0x0 DUP3 ADD MSTORE PUSH32 0x726E6564207468652076616C7565000000000000000000000000000000000000 PUSH1 0x20 DUP3 ADD MSTORE POP JUMP JUMPDEST PUSH1 0x0 PUSH2 0x352 PUSH1 0x2E DUP4 PUSH2 0x1E5 JUMP JUMPDEST SWAP2 POP PUSH2 0x35D DUP3 PUSH2 0x2F6 JUMP JUMPDEST PUSH1 0x40 DUP3 ADD SWAP1 POP SWAP2 SWAP1 POP JUMP JUMPDEST PUSH1 0x0 PUSH1 0x40 DUP3 ADD SWAP1 POP DUP2 DUP2 SUB PUSH1 0x0 DUP4 ADD MSTORE PUSH2 0x381 DUP2 PUSH2 0x345 JUMP JUMPDEST SWAP1 POP PUSH2 0x390 PUSH1 0x20 DUP4 ADD DUP5 PUSH2 0x1BB JUMP JUMPDEST SWAP3 SWAP2 POP POP JUMP JUMPDEST PUSH32 0x706F7369746976654F6464206C6F63616C207661726961626C65207265747572 PUSH1 0x0 DUP3 ADD MSTORE PUSH32 0x6E6564207468652076616C756500000000000000000000000000000000000000 PUSH1 0x20 DUP3 ADD MSTORE POP JUMP JUMPDEST PUSH1 0x0 PUSH2 0x3F2 PUSH1 0x2D DUP4 PUSH2 0x1E5 JUMP JUMPDEST SWAP2 POP PUSH2 0x3FD DUP3 PUSH2 0x396 JUMP JUMPDEST PUSH1 0x40 DUP3 ADD SWAP1 POP SWAP2 SWAP1 POP JUMP JUMPDEST PUSH1 0x0 PUSH1 0x40 DUP3 ADD SWAP1 POP DUP2 DUP2 SUB PUSH1 0x0 DUP4 ADD MSTORE PUSH2 0x421 DUP2 PUSH2 0x3E5 JUMP JUMPDEST SWAP1 POP PUSH2 0x430 PUSH1 0x20 DUP4 ADD DUP5 PUSH2 0x1BB JUMP JUMPDEST SWAP3 SWAP2 POP POP JUMP INVALID LOG2 PUSH5 0x6970667358 0x22 SLT KECCAK256 PUSH22 0x5E41EF6F7647E44B2CD3522D782E9ABCFA9147DF3B9D PUSH31 0x61ED4778854DAEB964736F6C63430008120033000000000000000000000000 "
		},
		"gasEstimates": {
			"creation": {
				"codeDepositCost": "226400",
				"executionCost": "269",
				"totalCost": "226669"
			},
			"external": {
				"numgive(int256)": "infinite"
			}
		},
		"methodIdentifiers": {
			"numgive(int256)": "b59d7975"
		}
	},
	"abi": [
		{
			"anonymous": false,
			"inputs": [
				{
					"indexed": false,
					"internalType": "string",
					"name": "message",
					"type": "string"
				},
				{
					"indexed": false,
					"internalType": "int256",
					"name": "value",
					"type": "int256"
				}
			],
			"name": "localVar",
			"type": "event"
		},
		{
			"inputs": [
				{
					"internalType": "int256",
					"name": "x",
					"type": "int256"
				}
			],
			"name": "numgive",
			"outputs": [
				{
					"internalType": "int256",
					"name": "y",
					"type": "int256"
				}
			],
			"stateMutability": "nonpayable",
			"type": "function"
		}
	]
}