{
	"data": {
		"bytecode": {
			"linkReferences": {},
			"object": "608060405234801561001057600080fd5b506102d4806100206000396000f3fe608060405234801561001057600080fd5b506004361061002b5760003560e01c8063cdab780714610030575b600080fd5b61004a60048036038101906100459190610105565b610060565b604051610057919061014d565b60405180910390f35b6000808290506000805b600a836100779190610197565b915081600a8261008791906101f7565b6100919190610239565b9050600a836100a0919061026d565b92506000830361006a578085036100bd57600193505050506100c5565b600093505050505b919050565b600080fd5b6000819050919050565b6100e2816100cf565b81146100ed57600080fd5b50565b6000813590506100ff816100d9565b92915050565b60006020828403121561011b5761011a6100ca565b5b6000610129848285016100f0565b91505092915050565b60008115159050919050565b61014781610132565b82525050565b6000602082019050610162600083018461013e565b92915050565b7f4e487b7100000000000000000000000000000000000000000000000000000000600052601260045260246000fd5b60006101a2826100cf565b91506101ad836100cf565b9250826101bd576101bc610168565b5b828206905092915050565b7f4e487b7100000000000000000000000000000000000000000000000000000000600052601160045260246000fd5b6000610202826100cf565b915061020d836100cf565b925082820261021b816100cf565b91508282048414831517610232576102316101c8565b5b5092915050565b6000610244826100cf565b915061024f836100cf565b9250828201905080821115610267576102666101c8565b5b92915050565b6000610278826100cf565b9150610283836100cf565b92508261029357610292610168565b5b82820490509291505056fea2646970667358221220655f58e976e0e5f02b755d0d60dce8c135d5a1f627d49186c70fcc33cc77cfc964736f6c63430008110033",
			"opcodes": "PUSH1 0x80 PUSH1 0x40 MSTORE CALLVALUE DUP1 ISZERO PUSH2 0x10 JUMPI PUSH1 0x0 DUP1 REVERT JUMPDEST POP PUSH2 0x2D4 DUP1 PUSH2 0x20 PUSH1 0x0 CODECOPY PUSH1 0x0 RETURN INVALID PUSH1 0x80 PUSH1 0x40 MSTORE CALLVALUE DUP1 ISZERO PUSH2 0x10 JUMPI PUSH1 0x0 DUP1 REVERT JUMPDEST POP PUSH1 0x4 CALLDATASIZE LT PUSH2 0x2B JUMPI PUSH1 0x0 CALLDATALOAD PUSH1 0xE0 SHR DUP1 PUSH4 0xCDAB7807 EQ PUSH2 0x30 JUMPI JUMPDEST PUSH1 0x0 DUP1 REVERT JUMPDEST PUSH2 0x4A PUSH1 0x4 DUP1 CALLDATASIZE SUB DUP2 ADD SWAP1 PUSH2 0x45 SWAP2 SWAP1 PUSH2 0x105 JUMP JUMPDEST PUSH2 0x60 JUMP JUMPDEST PUSH1 0x40 MLOAD PUSH2 0x57 SWAP2 SWAP1 PUSH2 0x14D JUMP JUMPDEST PUSH1 0x40 MLOAD DUP1 SWAP2 SUB SWAP1 RETURN JUMPDEST PUSH1 0x0 DUP1 DUP3 SWAP1 POP PUSH1 0x0 DUP1 JUMPDEST PUSH1 0xA DUP4 PUSH2 0x77 SWAP2 SWAP1 PUSH2 0x197 JUMP JUMPDEST SWAP2 POP DUP2 PUSH1 0xA DUP3 PUSH2 0x87 SWAP2 SWAP1 PUSH2 0x1F7 JUMP JUMPDEST PUSH2 0x91 SWAP2 SWAP1 PUSH2 0x239 JUMP JUMPDEST SWAP1 POP PUSH1 0xA DUP4 PUSH2 0xA0 SWAP2 SWAP1 PUSH2 0x26D JUMP JUMPDEST SWAP3 POP PUSH1 0x0 DUP4 SUB PUSH2 0x6A JUMPI DUP1 DUP6 SUB PUSH2 0xBD JUMPI PUSH1 0x1 SWAP4 POP POP POP POP PUSH2 0xC5 JUMP JUMPDEST PUSH1 0x0 SWAP4 POP POP POP POP JUMPDEST SWAP2 SWAP1 POP JUMP JUMPDEST PUSH1 0x0 DUP1 REVERT JUMPDEST PUSH1 0x0 DUP2 SWAP1 POP SWAP2 SWAP1 POP JUMP JUMPDEST PUSH2 0xE2 DUP2 PUSH2 0xCF JUMP JUMPDEST DUP2 EQ PUSH2 0xED JUMPI PUSH1 0x0 DUP1 REVERT JUMPDEST POP JUMP JUMPDEST PUSH1 0x0 DUP2 CALLDATALOAD SWAP1 POP PUSH2 0xFF DUP2 PUSH2 0xD9 JUMP JUMPDEST SWAP3 SWAP2 POP POP JUMP JUMPDEST PUSH1 0x0 PUSH1 0x20 DUP3 DUP5 SUB SLT ISZERO PUSH2 0x11B JUMPI PUSH2 0x11A PUSH2 0xCA JUMP JUMPDEST JUMPDEST PUSH1 0x0 PUSH2 0x129 DUP5 DUP3 DUP6 ADD PUSH2 0xF0 JUMP JUMPDEST SWAP2 POP POP SWAP3 SWAP2 POP POP JUMP JUMPDEST PUSH1 0x0 DUP2 ISZERO ISZERO SWAP1 POP SWAP2 SWAP1 POP JUMP JUMPDEST PUSH2 0x147 DUP2 PUSH2 0x132 JUMP JUMPDEST DUP3 MSTORE POP POP JUMP JUMPDEST PUSH1 0x0 PUSH1 0x20 DUP3 ADD SWAP1 POP PUSH2 0x162 PUSH1 0x0 DUP4 ADD DUP5 PUSH2 0x13E JUMP JUMPDEST SWAP3 SWAP2 POP POP JUMP JUMPDEST PUSH32 0x4E487B7100000000000000000000000000000000000000000000000000000000 PUSH1 0x0 MSTORE PUSH1 0x12 PUSH1 0x4 MSTORE PUSH1 0x24 PUSH1 0x0 REVERT JUMPDEST PUSH1 0x0 PUSH2 0x1A2 DUP3 PUSH2 0xCF JUMP JUMPDEST SWAP2 POP PUSH2 0x1AD DUP4 PUSH2 0xCF JUMP JUMPDEST SWAP3 POP DUP3 PUSH2 0x1BD JUMPI PUSH2 0x1BC PUSH2 0x168 JUMP JUMPDEST JUMPDEST DUP3 DUP3 MOD SWAP1 POP SWAP3 SWAP2 POP POP JUMP JUMPDEST PUSH32 0x4E487B7100000000000000000000000000000000000000000000000000000000 PUSH1 0x0 MSTORE PUSH1 0x11 PUSH1 0x4 MSTORE PUSH1 0x24 PUSH1 0x0 REVERT JUMPDEST PUSH1 0x0 PUSH2 0x202 DUP3 PUSH2 0xCF JUMP JUMPDEST SWAP2 POP PUSH2 0x20D DUP4 PUSH2 0xCF JUMP JUMPDEST SWAP3 POP DUP3 DUP3 MUL PUSH2 0x21B DUP2 PUSH2 0xCF JUMP JUMPDEST SWAP2 POP DUP3 DUP3 DIV DUP5 EQ DUP4 ISZERO OR PUSH2 0x232 JUMPI PUSH2 0x231 PUSH2 0x1C8 JUMP JUMPDEST JUMPDEST POP SWAP3 SWAP2 POP POP JUMP JUMPDEST PUSH1 0x0 PUSH2 0x244 DUP3 PUSH2 0xCF JUMP JUMPDEST SWAP2 POP PUSH2 0x24F DUP4 PUSH2 0xCF JUMP JUMPDEST SWAP3 POP DUP3 DUP3 ADD SWAP1 POP DUP1 DUP3 GT ISZERO PUSH2 0x267 JUMPI PUSH2 0x266 PUSH2 0x1C8 JUMP JUMPDEST JUMPDEST SWAP3 SWAP2 POP POP JUMP JUMPDEST PUSH1 0x0 PUSH2 0x278 DUP3 PUSH2 0xCF JUMP JUMPDEST SWAP2 POP PUSH2 0x283 DUP4 PUSH2 0xCF JUMP JUMPDEST SWAP3 POP DUP3 PUSH2 0x293 JUMPI PUSH2 0x292 PUSH2 0x168 JUMP JUMPDEST JUMPDEST DUP3 DUP3 DIV SWAP1 POP SWAP3 SWAP2 POP POP JUMP INVALID LOG2 PUSH5 0x6970667358 0x22 SLT KECCAK256 PUSH6 0x5F58E976E0E5 CREATE 0x2B PUSH22 0x5D0D60DCE8C135D5A1F627D49186C70FCC33CC77CFC9 PUSH5 0x736F6C6343 STOP ADDMOD GT STOP CALLER "
		},
		"gasEstimates": {
			"creation": {
				"codeDepositCost": "144800",
				"executionCost": "190",
				"totalCost": "144990"
			},
			"external": {
				"Palindrome(uint256)": "infinite"
			}
		},
		"methodIdentifiers": {
			"Palindrome(uint256)": "cdab7807"
		}
	},
	"abi": [
		{
			"inputs": [
				{
					"internalType": "uint256",
					"name": "input",
					"type": "uint256"
				}
			],
			"name": "Palindrome",
			"outputs": [
				{
					"internalType": "bool",
					"name": "",
					"type": "bool"
				}
			],
			"stateMutability": "pure",
			"type": "function"
		}
	]
}