{
	"data": {
		"bytecode": {
			"linkReferences": {},
			"object": "60806040526040518060800160405280600160ff168152602001600360ff168152602001600460ff168152602001600260ff168152506000906004610045929190610058565b5034801561005257600080fd5b506100ba565b826004810192821561008c579160200282015b8281111561008b578251829060ff1690559160200191906001019061006b565b5b509050610099919061009d565b5090565b5b808211156100b657600081600090555060010161009e565b5090565b610697806100c96000396000f3fe608060405234801561001057600080fd5b50600436106100625760003560e01c80634cad55b4146100675780636987b1fb1461008557806371e5ee5f146100b557806388046c6a146100e557806398ecfaed146101035780639dc0b4911461010d575b600080fd5b61006f610117565b60405161007c91906103e2565b60405180910390f35b61009f600480360381019061009a919061042e565b61014e565b6040516100ac91906103e2565b60405180910390f35b6100cf60048036038101906100ca919061042e565b610172565b6040516100dc91906103e2565b60405180910390f35b6100ed61018d565b6040516100fa9190610519565b60405180910390f35b61010b6101e5565b005b6101156101fa565b005b60006004600160048054905061012d919061056a565b8154811061013e5761013d61059e565b5b9060005260206000200154905090565b6004818154811061015e57600080fd5b906000526020600020016000915090505481565b6000816004811061018257600080fd5b016000915090505481565b606060048054806020026020016040519081016040528092919081815260200182805480156101db57602002820191906000526020600020905b8154815260200190600101908083116101c7575b5050505050905090565b600060049060046101f7929190610362565b50565b6102026101e5565b6000600490505b600081111561035f576000600190505b8181101561034a57600282036102c65760006004600260048054905061023f919061056a565b815481106102505761024f61059e565b5b90600052602060002001546004600160048054905061026f919061056a565b815481106102805761027f61059e565b5b906000526020600020015461029591906105cd565b9050600481908060018154018082558091505060019003906000526020600020016000909190919091505550610336565b60008082600481106102db576102da61059e565b5b015460006001846102ec919061056a565b600481106102fd576102fc61059e565b5b015461030991906105cd565b90506004819080600181540180825580915050600190039060005260206000200160009091909190915055505b60028161034391906105cd565b9050610219565b506002816103589190610630565b9050610209565b50565b82805482825590600052602060002090810192821561039b579182015b8281111561039a57825482559160010191906001019061037f565b5b5090506103a891906103ac565b5090565b5b808211156103c55760008160009055506001016103ad565b5090565b6000819050919050565b6103dc816103c9565b82525050565b60006020820190506103f760008301846103d3565b92915050565b600080fd5b61040b816103c9565b811461041657600080fd5b50565b60008135905061042881610402565b92915050565b600060208284031215610444576104436103fd565b5b600061045284828501610419565b91505092915050565b600081519050919050565b600082825260208201905092915050565b6000819050602082019050919050565b610490816103c9565b82525050565b60006104a28383610487565b60208301905092915050565b6000602082019050919050565b60006104c68261045b565b6104d08185610466565b93506104db83610477565b8060005b8381101561050c5781516104f38882610496565b97506104fe836104ae565b9250506001810190506104df565b5085935050505092915050565b6000602082019050818103600083015261053381846104bb565b905092915050565b7f4e487b7100000000000000000000000000000000000000000000000000000000600052601160045260246000fd5b6000610575826103c9565b9150610580836103c9565b92508282039050818111156105985761059761053b565b5b92915050565b7f4e487b7100000000000000000000000000000000000000000000000000000000600052603260045260246000fd5b60006105d8826103c9565b91506105e3836103c9565b92508282019050808211156105fb576105fa61053b565b5b92915050565b7f4e487b7100000000000000000000000000000000000000000000000000000000600052601260045260246000fd5b600061063b826103c9565b9150610646836103c9565b92508261065657610655610601565b5b82820490509291505056fea264697066735822122035243ca28665c2bf03a3877b51228a926db90ab80548c1a0951b9c249075b86964736f6c63430008120033",
			"opcodes": "PUSH1 0x80 PUSH1 0x40 MSTORE PUSH1 0x40 MLOAD DUP1 PUSH1 0x80 ADD PUSH1 0x40 MSTORE DUP1 PUSH1 0x1 PUSH1 0xFF AND DUP2 MSTORE PUSH1 0x20 ADD PUSH1 0x3 PUSH1 0xFF AND DUP2 MSTORE PUSH1 0x20 ADD PUSH1 0x4 PUSH1 0xFF AND DUP2 MSTORE PUSH1 0x20 ADD PUSH1 0x2 PUSH1 0xFF AND DUP2 MSTORE POP PUSH1 0x0 SWAP1 PUSH1 0x4 PUSH2 0x45 SWAP3 SWAP2 SWAP1 PUSH2 0x58 JUMP JUMPDEST POP CALLVALUE DUP1 ISZERO PUSH2 0x52 JUMPI PUSH1 0x0 DUP1 REVERT JUMPDEST POP PUSH2 0xBA JUMP JUMPDEST DUP3 PUSH1 0x4 DUP2 ADD SWAP3 DUP3 ISZERO PUSH2 0x8C JUMPI SWAP2 PUSH1 0x20 MUL DUP3 ADD JUMPDEST DUP3 DUP2 GT ISZERO PUSH2 0x8B JUMPI DUP3 MLOAD DUP3 SWAP1 PUSH1 0xFF AND SWAP1 SSTORE SWAP2 PUSH1 0x20 ADD SWAP2 SWAP1 PUSH1 0x1 ADD SWAP1 PUSH2 0x6B JUMP JUMPDEST JUMPDEST POP SWAP1 POP PUSH2 0x99 SWAP2 SWAP1 PUSH2 0x9D JUMP JUMPDEST POP SWAP1 JUMP JUMPDEST JUMPDEST DUP1 DUP3 GT ISZERO PUSH2 0xB6 JUMPI PUSH1 0x0 DUP2 PUSH1 0x0 SWAP1 SSTORE POP PUSH1 0x1 ADD PUSH2 0x9E JUMP JUMPDEST POP SWAP1 JUMP JUMPDEST PUSH2 0x697 DUP1 PUSH2 0xC9 PUSH1 0x0 CODECOPY PUSH1 0x0 RETURN INVALID PUSH1 0x80 PUSH1 0x40 MSTORE CALLVALUE DUP1 ISZERO PUSH2 0x10 JUMPI PUSH1 0x0 DUP1 REVERT JUMPDEST POP PUSH1 0x4 CALLDATASIZE LT PUSH2 0x62 JUMPI PUSH1 0x0 CALLDATALOAD PUSH1 0xE0 SHR DUP1 PUSH4 0x4CAD55B4 EQ PUSH2 0x67 JUMPI DUP1 PUSH4 0x6987B1FB EQ PUSH2 0x85 JUMPI DUP1 PUSH4 0x71E5EE5F EQ PUSH2 0xB5 JUMPI DUP1 PUSH4 0x88046C6A EQ PUSH2 0xE5 JUMPI DUP1 PUSH4 0x98ECFAED EQ PUSH2 0x103 JUMPI DUP1 PUSH4 0x9DC0B491 EQ PUSH2 0x10D JUMPI JUMPDEST PUSH1 0x0 DUP1 REVERT JUMPDEST PUSH2 0x6F PUSH2 0x117 JUMP JUMPDEST PUSH1 0x40 MLOAD PUSH2 0x7C SWAP2 SWAP1 PUSH2 0x3E2 JUMP JUMPDEST PUSH1 0x40 MLOAD DUP1 SWAP2 SUB SWAP1 RETURN JUMPDEST PUSH2 0x9F PUSH1 0x4 DUP1 CALLDATASIZE SUB DUP2 ADD SWAP1 PUSH2 0x9A SWAP2 SWAP1 PUSH2 0x42E JUMP JUMPDEST PUSH2 0x14E JUMP JUMPDEST PUSH1 0x40 MLOAD PUSH2 0xAC SWAP2 SWAP1 PUSH2 0x3E2 JUMP JUMPDEST PUSH1 0x40 MLOAD DUP1 SWAP2 SUB SWAP1 RETURN JUMPDEST PUSH2 0xCF PUSH1 0x4 DUP1 CALLDATASIZE SUB DUP2 ADD SWAP1 PUSH2 0xCA SWAP2 SWAP1 PUSH2 0x42E JUMP JUMPDEST PUSH2 0x172 JUMP JUMPDEST PUSH1 0x40 MLOAD PUSH2 0xDC SWAP2 SWAP1 PUSH2 0x3E2 JUMP JUMPDEST PUSH1 0x40 MLOAD DUP1 SWAP2 SUB SWAP1 RETURN JUMPDEST PUSH2 0xED PUSH2 0x18D JUMP JUMPDEST PUSH1 0x40 MLOAD PUSH2 0xFA SWAP2 SWAP1 PUSH2 0x519 JUMP JUMPDEST PUSH1 0x40 MLOAD DUP1 SWAP2 SUB SWAP1 RETURN JUMPDEST PUSH2 0x10B PUSH2 0x1E5 JUMP JUMPDEST STOP JUMPDEST PUSH2 0x115 PUSH2 0x1FA JUMP JUMPDEST STOP JUMPDEST PUSH1 0x0 PUSH1 0x4 PUSH1 0x1 PUSH1 0x4 DUP1 SLOAD SWAP1 POP PUSH2 0x12D SWAP2 SWAP1 PUSH2 0x56A JUMP JUMPDEST DUP2 SLOAD DUP2 LT PUSH2 0x13E JUMPI PUSH2 0x13D PUSH2 0x59E JUMP JUMPDEST JUMPDEST SWAP1 PUSH1 0x0 MSTORE PUSH1 0x20 PUSH1 0x0 KECCAK256 ADD SLOAD SWAP1 POP SWAP1 JUMP JUMPDEST PUSH1 0x4 DUP2 DUP2 SLOAD DUP2 LT PUSH2 0x15E JUMPI PUSH1 0x0 DUP1 REVERT JUMPDEST SWAP1 PUSH1 0x0 MSTORE PUSH1 0x20 PUSH1 0x0 KECCAK256 ADD PUSH1 0x0 SWAP2 POP SWAP1 POP SLOAD DUP2 JUMP JUMPDEST PUSH1 0x0 DUP2 PUSH1 0x4 DUP2 LT PUSH2 0x182 JUMPI PUSH1 0x0 DUP1 REVERT JUMPDEST ADD PUSH1 0x0 SWAP2 POP SWAP1 POP SLOAD DUP2 JUMP JUMPDEST PUSH1 0x60 PUSH1 0x4 DUP1 SLOAD DUP1 PUSH1 0x20 MUL PUSH1 0x20 ADD PUSH1 0x40 MLOAD SWAP1 DUP2 ADD PUSH1 0x40 MSTORE DUP1 SWAP3 SWAP2 SWAP1 DUP2 DUP2 MSTORE PUSH1 0x20 ADD DUP3 DUP1 SLOAD DUP1 ISZERO PUSH2 0x1DB JUMPI PUSH1 0x20 MUL DUP3 ADD SWAP2 SWAP1 PUSH1 0x0 MSTORE PUSH1 0x20 PUSH1 0x0 KECCAK256 SWAP1 JUMPDEST DUP2 SLOAD DUP2 MSTORE PUSH1 0x20 ADD SWAP1 PUSH1 0x1 ADD SWAP1 DUP1 DUP4 GT PUSH2 0x1C7 JUMPI JUMPDEST POP POP POP POP POP SWAP1 POP SWAP1 JUMP JUMPDEST PUSH1 0x0 PUSH1 0x4 SWAP1 PUSH1 0x4 PUSH2 0x1F7 SWAP3 SWAP2 SWAP1 PUSH2 0x362 JUMP JUMPDEST POP JUMP JUMPDEST PUSH2 0x202 PUSH2 0x1E5 JUMP JUMPDEST PUSH1 0x0 PUSH1 0x4 SWAP1 POP JUMPDEST PUSH1 0x0 DUP2 GT ISZERO PUSH2 0x35F JUMPI PUSH1 0x0 PUSH1 0x1 SWAP1 POP JUMPDEST DUP2 DUP2 LT ISZERO PUSH2 0x34A JUMPI PUSH1 0x2 DUP3 SUB PUSH2 0x2C6 JUMPI PUSH1 0x0 PUSH1 0x4 PUSH1 0x2 PUSH1 0x4 DUP1 SLOAD SWAP1 POP PUSH2 0x23F SWAP2 SWAP1 PUSH2 0x56A JUMP JUMPDEST DUP2 SLOAD DUP2 LT PUSH2 0x250 JUMPI PUSH2 0x24F PUSH2 0x59E JUMP JUMPDEST JUMPDEST SWAP1 PUSH1 0x0 MSTORE PUSH1 0x20 PUSH1 0x0 KECCAK256 ADD SLOAD PUSH1 0x4 PUSH1 0x1 PUSH1 0x4 DUP1 SLOAD SWAP1 POP PUSH2 0x26F SWAP2 SWAP1 PUSH2 0x56A JUMP JUMPDEST DUP2 SLOAD DUP2 LT PUSH2 0x280 JUMPI PUSH2 0x27F PUSH2 0x59E JUMP JUMPDEST JUMPDEST SWAP1 PUSH1 0x0 MSTORE PUSH1 0x20 PUSH1 0x0 KECCAK256 ADD SLOAD PUSH2 0x295 SWAP2 SWAP1 PUSH2 0x5CD JUMP JUMPDEST SWAP1 POP PUSH1 0x4 DUP2 SWAP1 DUP1 PUSH1 0x1 DUP2 SLOAD ADD DUP1 DUP3 SSTORE DUP1 SWAP2 POP POP PUSH1 0x1 SWAP1 SUB SWAP1 PUSH1 0x0 MSTORE PUSH1 0x20 PUSH1 0x0 KECCAK256 ADD PUSH1 0x0 SWAP1 SWAP2 SWAP1 SWAP2 SWAP1 SWAP2 POP SSTORE POP PUSH2 0x336 JUMP JUMPDEST PUSH1 0x0 DUP1 DUP3 PUSH1 0x4 DUP2 LT PUSH2 0x2DB JUMPI PUSH2 0x2DA PUSH2 0x59E JUMP JUMPDEST JUMPDEST ADD SLOAD PUSH1 0x0 PUSH1 0x1 DUP5 PUSH2 0x2EC SWAP2 SWAP1 PUSH2 0x56A JUMP JUMPDEST PUSH1 0x4 DUP2 LT PUSH2 0x2FD JUMPI PUSH2 0x2FC PUSH2 0x59E JUMP JUMPDEST JUMPDEST ADD SLOAD PUSH2 0x309 SWAP2 SWAP1 PUSH2 0x5CD JUMP JUMPDEST SWAP1 POP PUSH1 0x4 DUP2 SWAP1 DUP1 PUSH1 0x1 DUP2 SLOAD ADD DUP1 DUP3 SSTORE DUP1 SWAP2 POP POP PUSH1 0x1 SWAP1 SUB SWAP1 PUSH1 0x0 MSTORE PUSH1 0x20 PUSH1 0x0 KECCAK256 ADD PUSH1 0x0 SWAP1 SWAP2 SWAP1 SWAP2 SWAP1 SWAP2 POP SSTORE POP JUMPDEST PUSH1 0x2 DUP2 PUSH2 0x343 SWAP2 SWAP1 PUSH2 0x5CD JUMP JUMPDEST SWAP1 POP PUSH2 0x219 JUMP JUMPDEST POP PUSH1 0x2 DUP2 PUSH2 0x358 SWAP2 SWAP1 PUSH2 0x630 JUMP JUMPDEST SWAP1 POP PUSH2 0x209 JUMP JUMPDEST POP JUMP JUMPDEST DUP3 DUP1 SLOAD DUP3 DUP3 SSTORE SWAP1 PUSH1 0x0 MSTORE PUSH1 0x20 PUSH1 0x0 KECCAK256 SWAP1 DUP2 ADD SWAP3 DUP3 ISZERO PUSH2 0x39B JUMPI SWAP2 DUP3 ADD JUMPDEST DUP3 DUP2 GT ISZERO PUSH2 0x39A JUMPI DUP3 SLOAD DUP3 SSTORE SWAP2 PUSH1 0x1 ADD SWAP2 SWAP1 PUSH1 0x1 ADD SWAP1 PUSH2 0x37F JUMP JUMPDEST JUMPDEST POP SWAP1 POP PUSH2 0x3A8 SWAP2 SWAP1 PUSH2 0x3AC JUMP JUMPDEST POP SWAP1 JUMP JUMPDEST JUMPDEST DUP1 DUP3 GT ISZERO PUSH2 0x3C5 JUMPI PUSH1 0x0 DUP2 PUSH1 0x0 SWAP1 SSTORE POP PUSH1 0x1 ADD PUSH2 0x3AD JUMP JUMPDEST POP SWAP1 JUMP JUMPDEST PUSH1 0x0 DUP2 SWAP1 POP SWAP2 SWAP1 POP JUMP JUMPDEST PUSH2 0x3DC DUP2 PUSH2 0x3C9 JUMP JUMPDEST DUP3 MSTORE POP POP JUMP JUMPDEST PUSH1 0x0 PUSH1 0x20 DUP3 ADD SWAP1 POP PUSH2 0x3F7 PUSH1 0x0 DUP4 ADD DUP5 PUSH2 0x3D3 JUMP JUMPDEST SWAP3 SWAP2 POP POP JUMP JUMPDEST PUSH1 0x0 DUP1 REVERT JUMPDEST PUSH2 0x40B DUP2 PUSH2 0x3C9 JUMP JUMPDEST DUP2 EQ PUSH2 0x416 JUMPI PUSH1 0x0 DUP1 REVERT JUMPDEST POP JUMP JUMPDEST PUSH1 0x0 DUP2 CALLDATALOAD SWAP1 POP PUSH2 0x428 DUP2 PUSH2 0x402 JUMP JUMPDEST SWAP3 SWAP2 POP POP JUMP JUMPDEST PUSH1 0x0 PUSH1 0x20 DUP3 DUP5 SUB SLT ISZERO PUSH2 0x444 JUMPI PUSH2 0x443 PUSH2 0x3FD JUMP JUMPDEST JUMPDEST PUSH1 0x0 PUSH2 0x452 DUP5 DUP3 DUP6 ADD PUSH2 0x419 JUMP JUMPDEST SWAP2 POP POP SWAP3 SWAP2 POP POP JUMP JUMPDEST PUSH1 0x0 DUP2 MLOAD SWAP1 POP SWAP2 SWAP1 POP JUMP JUMPDEST PUSH1 0x0 DUP3 DUP3 MSTORE PUSH1 0x20 DUP3 ADD SWAP1 POP SWAP3 SWAP2 POP POP JUMP JUMPDEST PUSH1 0x0 DUP2 SWAP1 POP PUSH1 0x20 DUP3 ADD SWAP1 POP SWAP2 SWAP1 POP JUMP JUMPDEST PUSH2 0x490 DUP2 PUSH2 0x3C9 JUMP JUMPDEST DUP3 MSTORE POP POP JUMP JUMPDEST PUSH1 0x0 PUSH2 0x4A2 DUP4 DUP4 PUSH2 0x487 JUMP JUMPDEST PUSH1 0x20 DUP4 ADD SWAP1 POP SWAP3 SWAP2 POP POP JUMP JUMPDEST PUSH1 0x0 PUSH1 0x20 DUP3 ADD SWAP1 POP SWAP2 SWAP1 POP JUMP JUMPDEST PUSH1 0x0 PUSH2 0x4C6 DUP3 PUSH2 0x45B JUMP JUMPDEST PUSH2 0x4D0 DUP2 DUP6 PUSH2 0x466 JUMP JUMPDEST SWAP4 POP PUSH2 0x4DB DUP4 PUSH2 0x477 JUMP JUMPDEST DUP1 PUSH1 0x0 JUMPDEST DUP4 DUP2 LT ISZERO PUSH2 0x50C JUMPI DUP2 MLOAD PUSH2 0x4F3 DUP9 DUP3 PUSH2 0x496 JUMP JUMPDEST SWAP8 POP PUSH2 0x4FE DUP4 PUSH2 0x4AE JUMP JUMPDEST SWAP3 POP POP PUSH1 0x1 DUP2 ADD SWAP1 POP PUSH2 0x4DF JUMP JUMPDEST POP DUP6 SWAP4 POP POP POP POP SWAP3 SWAP2 POP POP JUMP JUMPDEST PUSH1 0x0 PUSH1 0x20 DUP3 ADD SWAP1 POP DUP2 DUP2 SUB PUSH1 0x0 DUP4 ADD MSTORE PUSH2 0x533 DUP2 DUP5 PUSH2 0x4BB JUMP JUMPDEST SWAP1 POP SWAP3 SWAP2 POP POP JUMP JUMPDEST PUSH32 0x4E487B7100000000000000000000000000000000000000000000000000000000 PUSH1 0x0 MSTORE PUSH1 0x11 PUSH1 0x4 MSTORE PUSH1 0x24 PUSH1 0x0 REVERT JUMPDEST PUSH1 0x0 PUSH2 0x575 DUP3 PUSH2 0x3C9 JUMP JUMPDEST SWAP2 POP PUSH2 0x580 DUP4 PUSH2 0x3C9 JUMP JUMPDEST SWAP3 POP DUP3 DUP3 SUB SWAP1 POP DUP2 DUP2 GT ISZERO PUSH2 0x598 JUMPI PUSH2 0x597 PUSH2 0x53B JUMP JUMPDEST JUMPDEST SWAP3 SWAP2 POP POP JUMP JUMPDEST PUSH32 0x4E487B7100000000000000000000000000000000000000000000000000000000 PUSH1 0x0 MSTORE PUSH1 0x32 PUSH1 0x4 MSTORE PUSH1 0x24 PUSH1 0x0 REVERT JUMPDEST PUSH1 0x0 PUSH2 0x5D8 DUP3 PUSH2 0x3C9 JUMP JUMPDEST SWAP2 POP PUSH2 0x5E3 DUP4 PUSH2 0x3C9 JUMP JUMPDEST SWAP3 POP DUP3 DUP3 ADD SWAP1 POP DUP1 DUP3 GT ISZERO PUSH2 0x5FB JUMPI PUSH2 0x5FA PUSH2 0x53B JUMP JUMPDEST JUMPDEST SWAP3 SWAP2 POP POP JUMP JUMPDEST PUSH32 0x4E487B7100000000000000000000000000000000000000000000000000000000 PUSH1 0x0 MSTORE PUSH1 0x12 PUSH1 0x4 MSTORE PUSH1 0x24 PUSH1 0x0 REVERT JUMPDEST PUSH1 0x0 PUSH2 0x63B DUP3 PUSH2 0x3C9 JUMP JUMPDEST SWAP2 POP PUSH2 0x646 DUP4 PUSH2 0x3C9 JUMP JUMPDEST SWAP3 POP DUP3 PUSH2 0x656 JUMPI PUSH2 0x655 PUSH2 0x601 JUMP JUMPDEST JUMPDEST DUP3 DUP3 DIV SWAP1 POP SWAP3 SWAP2 POP POP JUMP INVALID LOG2 PUSH5 0x6970667358 0x22 SLT KECCAK256 CALLDATALOAD 0x24 EXTCODECOPY LOG2 DUP7 PUSH6 0xC2BF03A3877B MLOAD 0x22 DUP11 SWAP3 PUSH14 0xB90AB80548C1A0951B9C249075B8 PUSH10 0x64736F6C634300081200 CALLER "
		},
		"gasEstimates": {
			"creation": {
				"codeDepositCost": "337400",
				"executionCost": "infinite",
				"totalCost": "infinite"
			},
			"external": {
				"RootItem()": "infinite",
				"arr(uint256)": "infinite",
				"arr1(uint256)": "infinite",
				"calculateSum()": "infinite",
				"copyItem()": "infinite",
				"returnArr()": "infinite"
			}
		},
		"methodIdentifiers": {
			"RootItem()": "4cad55b4",
			"arr(uint256)": "71e5ee5f",
			"arr1(uint256)": "6987b1fb",
			"calculateSum()": "9dc0b491",
			"copyItem()": "98ecfaed",
			"returnArr()": "88046c6a"
		}
	},
	"abi": [
		{
			"inputs": [],
			"name": "RootItem",
			"outputs": [
				{
					"internalType": "uint256",
					"name": "",
					"type": "uint256"
				}
			],
			"stateMutability": "view",
			"type": "function"
		},
		{
			"inputs": [
				{
					"internalType": "uint256",
					"name": "",
					"type": "uint256"
				}
			],
			"name": "arr",
			"outputs": [
				{
					"internalType": "uint256",
					"name": "",
					"type": "uint256"
				}
			],
			"stateMutability": "view",
			"type": "function"
		},
		{
			"inputs": [
				{
					"internalType": "uint256",
					"name": "",
					"type": "uint256"
				}
			],
			"name": "arr1",
			"outputs": [
				{
					"internalType": "uint256",
					"name": "",
					"type": "uint256"
				}
			],
			"stateMutability": "view",
			"type": "function"
		},
		{
			"inputs": [],
			"name": "calculateSum",
			"outputs": [],
			"stateMutability": "nonpayable",
			"type": "function"
		},
		{
			"inputs": [],
			"name": "copyItem",
			"outputs": [],
			"stateMutability": "nonpayable",
			"type": "function"
		},
		{
			"inputs": [],
			"name": "returnArr",
			"outputs": [
				{
					"internalType": "uint256[]",
					"name": "",
					"type": "uint256[]"
				}
			],
			"stateMutability": "view",
			"type": "function"
		}
	]
}