{
	"data": {
		"bytecode": {
			"linkReferences": {},
			"object": "608060405234801561001057600080fd5b506104ef806100206000396000f3fe608060405234801561001057600080fd5b506004361061004c5760003560e01c80631af77b50146100515780634e70b1dc1461006f578063919840ad1461008d578063d423740b14610097575b600080fd5b6100596100b3565b60405161006691906101e3565b60405180910390f35b610077610125565b6040516100849190610217565b60405180910390f35b61009561012b565b005b6100b160048036038101906100ac9190610263565b6101be565b005b60008060029050600191506000805414806100d057506001600054145b156100da57600091505b5b60026000546100ea91906102ee565b811161012157600081600054610100919061031f565b0361010e5760009150610121565b808061011990610350565b9150506100db565b5090565b60005481565b60006101356100b3565b9050801561017e577f6a5424eccee302c982a7528a658c1a101884e3e529baf914801f5e4f027f79a460005460016040516101719291906103f5565b60405180910390a16101bb565b7f6a5424eccee302c982a7528a658c1a101884e3e529baf914801f5e4f027f79a460005460006040516101b292919061047d565b60405180910390a15b50565b8060008190555050565b60008115159050919050565b6101dd816101c8565b82525050565b60006020820190506101f860008301846101d4565b92915050565b6000819050919050565b610211816101fe565b82525050565b600060208201905061022c6000830184610208565b92915050565b600080fd5b610240816101fe565b811461024b57600080fd5b50565b60008135905061025d81610237565b92915050565b60006020828403121561027957610278610232565b5b60006102878482850161024e565b91505092915050565b7f4e487b7100000000000000000000000000000000000000000000000000000000600052601260045260246000fd5b7f4e487b7100000000000000000000000000000000000000000000000000000000600052601160045260246000fd5b60006102f9826101fe565b9150610304836101fe565b92508261031457610313610290565b5b828204905092915050565b600061032a826101fe565b9150610335836101fe565b92508261034557610344610290565b5b828206905092915050565b600061035b826101fe565b91507fffffffffffffffffffffffffffffffffffffffffffffffffffffffffffffffff820361038d5761038c6102bf565b5b600182019050919050565b600082825260208201905092915050565b7f546865204e756d626572206973205072696d6500000000000000000000000000600082015250565b60006103df601383610398565b91506103ea826103a9565b602082019050919050565b6000606082019050818103600083015261040e816103d2565b905061041d6020830185610208565b61042a60408301846101d4565b9392505050565b7f546865204e756d626572206973206e6f74205072696d65000000000000000000600082015250565b6000610467601783610398565b915061047282610431565b602082019050919050565b600060608201905081810360008301526104968161045a565b90506104a56020830185610208565b6104b260408301846101d4565b939250505056fea264697066735822122016214dcd73c36f31d3e0f414dce3c1c5e3152560f7715f43257ef0f92af12a7964736f6c63430008120033",
			"opcodes": "PUSH1 0x80 PUSH1 0x40 MSTORE CALLVALUE DUP1 ISZERO PUSH2 0x10 JUMPI PUSH1 0x0 DUP1 REVERT JUMPDEST POP PUSH2 0x4EF DUP1 PUSH2 0x20 PUSH1 0x0 CODECOPY PUSH1 0x0 RETURN INVALID PUSH1 0x80 PUSH1 0x40 MSTORE CALLVALUE DUP1 ISZERO PUSH2 0x10 JUMPI PUSH1 0x0 DUP1 REVERT JUMPDEST POP PUSH1 0x4 CALLDATASIZE LT PUSH2 0x4C JUMPI PUSH1 0x0 CALLDATALOAD PUSH1 0xE0 SHR DUP1 PUSH4 0x1AF77B50 EQ PUSH2 0x51 JUMPI DUP1 PUSH4 0x4E70B1DC EQ PUSH2 0x6F JUMPI DUP1 PUSH4 0x919840AD EQ PUSH2 0x8D JUMPI DUP1 PUSH4 0xD423740B EQ PUSH2 0x97 JUMPI JUMPDEST PUSH1 0x0 DUP1 REVERT JUMPDEST PUSH2 0x59 PUSH2 0xB3 JUMP JUMPDEST PUSH1 0x40 MLOAD PUSH2 0x66 SWAP2 SWAP1 PUSH2 0x1E3 JUMP JUMPDEST PUSH1 0x40 MLOAD DUP1 SWAP2 SUB SWAP1 RETURN JUMPDEST PUSH2 0x77 PUSH2 0x125 JUMP JUMPDEST PUSH1 0x40 MLOAD PUSH2 0x84 SWAP2 SWAP1 PUSH2 0x217 JUMP JUMPDEST PUSH1 0x40 MLOAD DUP1 SWAP2 SUB SWAP1 RETURN JUMPDEST PUSH2 0x95 PUSH2 0x12B JUMP JUMPDEST STOP JUMPDEST PUSH2 0xB1 PUSH1 0x4 DUP1 CALLDATASIZE SUB DUP2 ADD SWAP1 PUSH2 0xAC SWAP2 SWAP1 PUSH2 0x263 JUMP JUMPDEST PUSH2 0x1BE JUMP JUMPDEST STOP JUMPDEST PUSH1 0x0 DUP1 PUSH1 0x2 SWAP1 POP PUSH1 0x1 SWAP2 POP PUSH1 0x0 DUP1 SLOAD EQ DUP1 PUSH2 0xD0 JUMPI POP PUSH1 0x1 PUSH1 0x0 SLOAD EQ JUMPDEST ISZERO PUSH2 0xDA JUMPI PUSH1 0x0 SWAP2 POP JUMPDEST JUMPDEST PUSH1 0x2 PUSH1 0x0 SLOAD PUSH2 0xEA SWAP2 SWAP1 PUSH2 0x2EE JUMP JUMPDEST DUP2 GT PUSH2 0x121 JUMPI PUSH1 0x0 DUP2 PUSH1 0x0 SLOAD PUSH2 0x100 SWAP2 SWAP1 PUSH2 0x31F JUMP JUMPDEST SUB PUSH2 0x10E JUMPI PUSH1 0x0 SWAP2 POP PUSH2 0x121 JUMP JUMPDEST DUP1 DUP1 PUSH2 0x119 SWAP1 PUSH2 0x350 JUMP JUMPDEST SWAP2 POP POP PUSH2 0xDB JUMP JUMPDEST POP SWAP1 JUMP JUMPDEST PUSH1 0x0 SLOAD DUP2 JUMP JUMPDEST PUSH1 0x0 PUSH2 0x135 PUSH2 0xB3 JUMP JUMPDEST SWAP1 POP DUP1 ISZERO PUSH2 0x17E JUMPI PUSH32 0x6A5424ECCEE302C982A7528A658C1A101884E3E529BAF914801F5E4F027F79A4 PUSH1 0x0 SLOAD PUSH1 0x1 PUSH1 0x40 MLOAD PUSH2 0x171 SWAP3 SWAP2 SWAP1 PUSH2 0x3F5 JUMP JUMPDEST PUSH1 0x40 MLOAD DUP1 SWAP2 SUB SWAP1 LOG1 PUSH2 0x1BB JUMP JUMPDEST PUSH32 0x6A5424ECCEE302C982A7528A658C1A101884E3E529BAF914801F5E4F027F79A4 PUSH1 0x0 SLOAD PUSH1 0x0 PUSH1 0x40 MLOAD PUSH2 0x1B2 SWAP3 SWAP2 SWAP1 PUSH2 0x47D JUMP JUMPDEST PUSH1 0x40 MLOAD DUP1 SWAP2 SUB SWAP1 LOG1 JUMPDEST POP JUMP JUMPDEST DUP1 PUSH1 0x0 DUP2 SWAP1 SSTORE POP POP JUMP JUMPDEST PUSH1 0x0 DUP2 ISZERO ISZERO SWAP1 POP SWAP2 SWAP1 POP JUMP JUMPDEST PUSH2 0x1DD DUP2 PUSH2 0x1C8 JUMP JUMPDEST DUP3 MSTORE POP POP JUMP JUMPDEST PUSH1 0x0 PUSH1 0x20 DUP3 ADD SWAP1 POP PUSH2 0x1F8 PUSH1 0x0 DUP4 ADD DUP5 PUSH2 0x1D4 JUMP JUMPDEST SWAP3 SWAP2 POP POP JUMP JUMPDEST PUSH1 0x0 DUP2 SWAP1 POP SWAP2 SWAP1 POP JUMP JUMPDEST PUSH2 0x211 DUP2 PUSH2 0x1FE JUMP JUMPDEST DUP3 MSTORE POP POP JUMP JUMPDEST PUSH1 0x0 PUSH1 0x20 DUP3 ADD SWAP1 POP PUSH2 0x22C PUSH1 0x0 DUP4 ADD DUP5 PUSH2 0x208 JUMP JUMPDEST SWAP3 SWAP2 POP POP JUMP JUMPDEST PUSH1 0x0 DUP1 REVERT JUMPDEST PUSH2 0x240 DUP2 PUSH2 0x1FE JUMP JUMPDEST DUP2 EQ PUSH2 0x24B JUMPI PUSH1 0x0 DUP1 REVERT JUMPDEST POP JUMP JUMPDEST PUSH1 0x0 DUP2 CALLDATALOAD SWAP1 POP PUSH2 0x25D DUP2 PUSH2 0x237 JUMP JUMPDEST SWAP3 SWAP2 POP POP JUMP JUMPDEST PUSH1 0x0 PUSH1 0x20 DUP3 DUP5 SUB SLT ISZERO PUSH2 0x279 JUMPI PUSH2 0x278 PUSH2 0x232 JUMP JUMPDEST JUMPDEST PUSH1 0x0 PUSH2 0x287 DUP5 DUP3 DUP6 ADD PUSH2 0x24E JUMP JUMPDEST SWAP2 POP POP SWAP3 SWAP2 POP POP JUMP JUMPDEST PUSH32 0x4E487B7100000000000000000000000000000000000000000000000000000000 PUSH1 0x0 MSTORE PUSH1 0x12 PUSH1 0x4 MSTORE PUSH1 0x24 PUSH1 0x0 REVERT JUMPDEST PUSH32 0x4E487B7100000000000000000000000000000000000000000000000000000000 PUSH1 0x0 MSTORE PUSH1 0x11 PUSH1 0x4 MSTORE PUSH1 0x24 PUSH1 0x0 REVERT JUMPDEST PUSH1 0x0 PUSH2 0x2F9 DUP3 PUSH2 0x1FE JUMP JUMPDEST SWAP2 POP PUSH2 0x304 DUP4 PUSH2 0x1FE JUMP JUMPDEST SWAP3 POP DUP3 PUSH2 0x314 JUMPI PUSH2 0x313 PUSH2 0x290 JUMP JUMPDEST JUMPDEST DUP3 DUP3 DIV SWAP1 POP SWAP3 SWAP2 POP POP JUMP JUMPDEST PUSH1 0x0 PUSH2 0x32A DUP3 PUSH2 0x1FE JUMP JUMPDEST SWAP2 POP PUSH2 0x335 DUP4 PUSH2 0x1FE JUMP JUMPDEST SWAP3 POP DUP3 PUSH2 0x345 JUMPI PUSH2 0x344 PUSH2 0x290 JUMP JUMPDEST JUMPDEST DUP3 DUP3 MOD SWAP1 POP SWAP3 SWAP2 POP POP JUMP JUMPDEST PUSH1 0x0 PUSH2 0x35B DUP3 PUSH2 0x1FE JUMP JUMPDEST SWAP2 POP PUSH32 0xFFFFFFFFFFFFFFFFFFFFFFFFFFFFFFFFFFFFFFFFFFFFFFFFFFFFFFFFFFFFFFFF DUP3 SUB PUSH2 0x38D JUMPI PUSH2 0x38C PUSH2 0x2BF JUMP JUMPDEST JUMPDEST PUSH1 0x1 DUP3 ADD SWAP1 POP SWAP2 SWAP1 POP JUMP JUMPDEST PUSH1 0x0 DUP3 DUP3 MSTORE PUSH1 0x20 DUP3 ADD SWAP1 POP SWAP3 SWAP2 POP POP JUMP JUMPDEST PUSH32 0x546865204E756D626572206973205072696D6500000000000000000000000000 PUSH1 0x0 DUP3 ADD MSTORE POP JUMP JUMPDEST PUSH1 0x0 PUSH2 0x3DF PUSH1 0x13 DUP4 PUSH2 0x398 JUMP JUMPDEST SWAP2 POP PUSH2 0x3EA DUP3 PUSH2 0x3A9 JUMP JUMPDEST PUSH1 0x20 DUP3 ADD SWAP1 POP SWAP2 SWAP1 POP JUMP JUMPDEST PUSH1 0x0 PUSH1 0x60 DUP3 ADD SWAP1 POP DUP2 DUP2 SUB PUSH1 0x0 DUP4 ADD MSTORE PUSH2 0x40E DUP2 PUSH2 0x3D2 JUMP JUMPDEST SWAP1 POP PUSH2 0x41D PUSH1 0x20 DUP4 ADD DUP6 PUSH2 0x208 JUMP JUMPDEST PUSH2 0x42A PUSH1 0x40 DUP4 ADD DUP5 PUSH2 0x1D4 JUMP JUMPDEST SWAP4 SWAP3 POP POP POP JUMP JUMPDEST PUSH32 0x546865204E756D626572206973206E6F74205072696D65000000000000000000 PUSH1 0x0 DUP3 ADD MSTORE POP JUMP JUMPDEST PUSH1 0x0 PUSH2 0x467 PUSH1 0x17 DUP4 PUSH2 0x398 JUMP JUMPDEST SWAP2 POP PUSH2 0x472 DUP3 PUSH2 0x431 JUMP JUMPDEST PUSH1 0x20 DUP3 ADD SWAP1 POP SWAP2 SWAP1 POP JUMP JUMPDEST PUSH1 0x0 PUSH1 0x60 DUP3 ADD SWAP1 POP DUP2 DUP2 SUB PUSH1 0x0 DUP4 ADD MSTORE PUSH2 0x496 DUP2 PUSH2 0x45A JUMP JUMPDEST SWAP1 POP PUSH2 0x4A5 PUSH1 0x20 DUP4 ADD DUP6 PUSH2 0x208 JUMP JUMPDEST PUSH2 0x4B2 PUSH1 0x40 DUP4 ADD DUP5 PUSH2 0x1D4 JUMP JUMPDEST SWAP4 SWAP3 POP POP POP JUMP INVALID LOG2 PUSH5 0x6970667358 0x22 SLT KECCAK256 AND 0x21 0x4D 0xCD PUSH20 0xC36F31D3E0F414DCE3C1C5E3152560F7715F4325 PUSH31 0xF0F92AF12A7964736F6C634300081200330000000000000000000000000000 "
		},
		"gasEstimates": {
			"creation": {
				"codeDepositCost": "252600",
				"executionCost": "294",
				"totalCost": "252894"
			},
			"external": {
				"PrimeChecker()": "infinite",
				"check()": "infinite",
				"num()": "2429",
				"setter(uint256)": "22564"
			}
		},
		"methodIdentifiers": {
			"PrimeChecker()": "1af77b50",
			"check()": "919840ad",
			"num()": "4e70b1dc",
			"setter(uint256)": "d423740b"
		}
	},
	"abi": [
		{
			"anonymous": false,
			"inputs": [
				{
					"indexed": false,
					"internalType": "string",
					"name": "message",
					"type": "string"
				},
				{
					"indexed": false,
					"internalType": "uint256",
					"name": "number",
					"type": "uint256"
				},
				{
					"indexed": false,
					"internalType": "bool",
					"name": "isPrime",
					"type": "bool"
				}
			],
			"name": "PrimeCheckerResult",
			"type": "event"
		},
		{
			"inputs": [],
			"name": "PrimeChecker",
			"outputs": [
				{
					"internalType": "bool",
					"name": "is_prime",
					"type": "bool"
				}
			],
			"stateMutability": "view",
			"type": "function"
		},
		{
			"inputs": [],
			"name": "check",
			"outputs": [],
			"stateMutability": "nonpayable",
			"type": "function"
		},
		{
			"inputs": [],
			"name": "num",
			"outputs": [
				{
					"internalType": "uint256",
					"name": "",
					"type": "uint256"
				}
			],
			"stateMutability": "view",
			"type": "function"
		},
		{
			"inputs": [
				{
					"internalType": "uint256",
					"name": "_inputNum",
					"type": "uint256"
				}
			],
			"name": "setter",
			"outputs": [],
			"stateMutability": "nonpayable",
			"type": "function"
		}
	]
}