{
	"data": {
		"bytecode": {
			"linkReferences": {},
			"object": "60806040523480156200001157600080fd5b5060405162000ef238038062000ef283398181016040528101906200003791906200022b565b8160008001819055508060006001019081620000549190620004d2565b505050620005b9565b6000604051905090565b600080fd5b600080fd5b6000819050919050565b620000868162000071565b81146200009257600080fd5b50565b600081519050620000a6816200007b565b92915050565b600080fd5b600080fd5b6000601f19601f8301169050919050565b7f4e487b7100000000000000000000000000000000000000000000000000000000600052604160045260246000fd5b6200010182620000b6565b810181811067ffffffffffffffff82111715620001235762000122620000c7565b5b80604052505050565b6000620001386200005d565b9050620001468282620000f6565b919050565b600067ffffffffffffffff821115620001695762000168620000c7565b5b6200017482620000b6565b9050602081019050919050565b60005b83811015620001a157808201518184015260208101905062000184565b60008484015250505050565b6000620001c4620001be846200014b565b6200012c565b905082815260208101848484011115620001e357620001e2620000b1565b5b620001f084828562000181565b509392505050565b600082601f83011262000210576200020f620000ac565b5b815162000222848260208601620001ad565b91505092915050565b6000806040838503121562000245576200024462000067565b5b6000620002558582860162000095565b925050602083015167ffffffffffffffff8111156200027957620002786200006c565b5b6200028785828601620001f8565b9150509250929050565b600081519050919050565b7f4e487b7100000000000000000000000000000000000000000000000000000000600052602260045260246000fd5b60006002820490506001821680620002e457607f821691505b602082108103620002fa57620002f96200029c565b5b50919050565b60008190508160005260206000209050919050565b60006020601f8301049050919050565b600082821b905092915050565b600060088302620003647fffffffffffffffffffffffffffffffffffffffffffffffffffffffffffffffff8262000325565b62000370868362000325565b95508019841693508086168417925050509392505050565b6000819050919050565b6000620003b3620003ad620003a78462000071565b62000388565b62000071565b9050919050565b6000819050919050565b620003cf8362000392565b620003e7620003de82620003ba565b84845462000332565b825550505050565b600090565b620003fe620003ef565b6200040b818484620003c4565b505050565b5b81811015620004335762000427600082620003f4565b60018101905062000411565b5050565b601f82111562000482576200044c8162000300565b620004578462000315565b8101602085101562000467578190505b6200047f620004768562000315565b83018262000410565b50505b505050565b600082821c905092915050565b6000620004a76000198460080262000487565b1980831691505092915050565b6000620004c2838362000494565b9150826002028217905092915050565b620004dd8262000291565b67ffffffffffffffff811115620004f957620004f8620000c7565b5b620005058254620002cb565b6200051282828562000437565b600060209050601f8311600181146200054a576000841562000535578287015190505b620005418582620004b4565b865550620005b1565b601f1984166200055a8662000300565b60005b8281101562000584578489015182556001820191506020850194506020810190506200055d565b86831015620005a45784890151620005a0601f89168262000494565b8355505b6001600288020188555050505b505050505050565b61092980620005c96000396000f3fe608060405234801561001057600080fd5b50600436106100625760003560e01c80636cc014de1461006757806378df125014610086578063a314150f146100a2578063a5d666a9146100c1578063a92b6d11146100e0578063bc647e54146100fc575b600080fd5b61006f610118565b60405161007d929190610414565b60405180910390f35b6100a0600480360381019061009b91906105b9565b6101b2565b005b6100aa6101d3565b6040516100b8929190610414565b60405180910390f35b6100c961026d565b6040516100d7929190610414565b60405180910390f35b6100fa60048036038101906100f591906105b9565b610307565b005b610116600480360381019061011191906105b9565b61034a565b005b600080600001549080600101805461012f90610644565b80601f016020809104026020016040519081016040528092919081815260200182805461015b90610644565b80156101a85780601f1061017d576101008083540402835291602001916101a8565b820191906000526020600020905b81548152906001019060200180831161018b57829003601f168201915b5050505050905082565b8160026000018190555080600260010190816101ce9190610821565b505050565b60028060000154908060010180546101ea90610644565b80601f016020809104026020016040519081016040528092919081815260200182805461021690610644565b80156102635780601f1061023857610100808354040283529160200191610263565b820191906000526020600020905b81548152906001019060200180831161024657829003601f168201915b5050505050905082565b600480600001549080600101805461028490610644565b80601f01602080910402602001604051908101604052809291908181526020018280546102b090610644565b80156102fd5780601f106102d2576101008083540402835291602001916102fd565b820191906000526020600020905b8154815290600101906020018083116102e057829003601f168201915b5050505050905082565b6000604051806040016040528084815260200183815250905080600080820151816000015560208201518160010190816103419190610821565b50905050505050565b8160046000018190555080600460010190816103669190610821565b505050565b6000819050919050565b61037e8161036b565b82525050565b600081519050919050565b600082825260208201905092915050565b60005b838110156103be5780820151818401526020810190506103a3565b60008484015250505050565b6000601f19601f8301169050919050565b60006103e682610384565b6103f0818561038f565b93506104008185602086016103a0565b610409816103ca565b840191505092915050565b60006040820190506104296000830185610375565b818103602083015261043b81846103db565b90509392505050565b6000604051905090565b600080fd5b600080fd5b6104618161036b565b811461046c57600080fd5b50565b60008135905061047e81610458565b92915050565b600080fd5b600080fd5b7f4e487b7100000000000000000000000000000000000000000000000000000000600052604160045260246000fd5b6104c6826103ca565b810181811067ffffffffffffffff821117156104e5576104e461048e565b5b80604052505050565b60006104f8610444565b905061050482826104bd565b919050565b600067ffffffffffffffff8211156105245761052361048e565b5b61052d826103ca565b9050602081019050919050565b82818337600083830152505050565b600061055c61055784610509565b6104ee565b90508281526020810184848401111561057857610577610489565b5b61058384828561053a565b509392505050565b600082601f8301126105a05761059f610484565b5b81356105b0848260208601610549565b91505092915050565b600080604083850312156105d0576105cf61044e565b5b60006105de8582860161046f565b925050602083013567ffffffffffffffff8111156105ff576105fe610453565b5b61060b8582860161058b565b9150509250929050565b7f4e487b7100000000000000000000000000000000000000000000000000000000600052602260045260246000fd5b6000600282049050600182168061065c57607f821691505b60208210810361066f5761066e610615565b5b50919050565b60008190508160005260206000209050919050565b60006020601f8301049050919050565b600082821b905092915050565b6000600883026106d77fffffffffffffffffffffffffffffffffffffffffffffffffffffffffffffffff8261069a565b6106e1868361069a565b95508019841693508086168417925050509392505050565b6000819050919050565b600061071e6107196107148461036b565b6106f9565b61036b565b9050919050565b6000819050919050565b61073883610703565b61074c61074482610725565b8484546106a7565b825550505050565b600090565b610761610754565b61076c81848461072f565b505050565b5b8181101561079057610785600082610759565b600181019050610772565b5050565b601f8211156107d5576107a681610675565b6107af8461068a565b810160208510156107be578190505b6107d26107ca8561068a565b830182610771565b50505b505050565b600082821c905092915050565b60006107f8600019846008026107da565b1980831691505092915050565b600061081183836107e7565b9150826002028217905092915050565b61082a82610384565b67ffffffffffffffff8111156108435761084261048e565b5b61084d8254610644565b610858828285610794565b600060209050601f83116001811461088b5760008415610879578287015190505b6108838582610805565b8655506108eb565b601f19841661089986610675565b60005b828110156108c15784890151825560018201915060208501945060208101905061089c565b868310156108de57848901516108da601f8916826107e7565b8355505b6001600288020188555050505b50505050505056fea26469706673582212202275bc0ede23ca9af2f4ec6ee43ccf8c258cea08163442087e43d5b331a584f364736f6c63430008110033",
			"opcodes": "PUSH1 0x80 PUSH1 0x40 MSTORE CALLVALUE DUP1 ISZERO PUSH3 0x11 JUMPI PUSH1 0x0 DUP1 REVERT JUMPDEST POP PUSH1 0x40 MLOAD PUSH3 0xEF2 CODESIZE SUB DUP1 PUSH3 0xEF2 DUP4 CODECOPY DUP2 DUP2 ADD PUSH1 0x40 MSTORE DUP2 ADD SWAP1 PUSH3 0x37 SWAP2 SWAP1 PUSH3 0x22B JUMP JUMPDEST DUP2 PUSH1 0x0 DUP1 ADD DUP2 SWAP1 SSTORE POP DUP1 PUSH1 0x0 PUSH1 0x1 ADD SWAP1 DUP2 PUSH3 0x54 SWAP2 SWAP1 PUSH3 0x4D2 JUMP JUMPDEST POP POP POP PUSH3 0x5B9 JUMP JUMPDEST PUSH1 0x0 PUSH1 0x40 MLOAD SWAP1 POP SWAP1 JUMP JUMPDEST PUSH1 0x0 DUP1 REVERT JUMPDEST PUSH1 0x0 DUP1 REVERT JUMPDEST PUSH1 0x0 DUP2 SWAP1 POP SWAP2 SWAP1 POP JUMP JUMPDEST PUSH3 0x86 DUP2 PUSH3 0x71 JUMP JUMPDEST DUP2 EQ PUSH3 0x92 JUMPI PUSH1 0x0 DUP1 REVERT JUMPDEST POP JUMP JUMPDEST PUSH1 0x0 DUP2 MLOAD SWAP1 POP PUSH3 0xA6 DUP2 PUSH3 0x7B JUMP JUMPDEST SWAP3 SWAP2 POP POP JUMP JUMPDEST PUSH1 0x0 DUP1 REVERT JUMPDEST PUSH1 0x0 DUP1 REVERT JUMPDEST PUSH1 0x0 PUSH1 0x1F NOT PUSH1 0x1F DUP4 ADD AND SWAP1 POP SWAP2 SWAP1 POP JUMP JUMPDEST PUSH32 0x4E487B7100000000000000000000000000000000000000000000000000000000 PUSH1 0x0 MSTORE PUSH1 0x41 PUSH1 0x4 MSTORE PUSH1 0x24 PUSH1 0x0 REVERT JUMPDEST PUSH3 0x101 DUP3 PUSH3 0xB6 JUMP JUMPDEST DUP2 ADD DUP2 DUP2 LT PUSH8 0xFFFFFFFFFFFFFFFF DUP3 GT OR ISZERO PUSH3 0x123 JUMPI PUSH3 0x122 PUSH3 0xC7 JUMP JUMPDEST JUMPDEST DUP1 PUSH1 0x40 MSTORE POP POP POP JUMP JUMPDEST PUSH1 0x0 PUSH3 0x138 PUSH3 0x5D JUMP JUMPDEST SWAP1 POP PUSH3 0x146 DUP3 DUP3 PUSH3 0xF6 JUMP JUMPDEST SWAP2 SWAP1 POP JUMP JUMPDEST PUSH1 0x0 PUSH8 0xFFFFFFFFFFFFFFFF DUP3 GT ISZERO PUSH3 0x169 JUMPI PUSH3 0x168 PUSH3 0xC7 JUMP JUMPDEST JUMPDEST PUSH3 0x174 DUP3 PUSH3 0xB6 JUMP JUMPDEST SWAP1 POP PUSH1 0x20 DUP2 ADD SWAP1 POP SWAP2 SWAP1 POP JUMP JUMPDEST PUSH1 0x0 JUMPDEST DUP4 DUP2 LT ISZERO PUSH3 0x1A1 JUMPI DUP1 DUP3 ADD MLOAD DUP2 DUP5 ADD MSTORE PUSH1 0x20 DUP2 ADD SWAP1 POP PUSH3 0x184 JUMP JUMPDEST PUSH1 0x0 DUP5 DUP5 ADD MSTORE POP POP POP POP JUMP JUMPDEST PUSH1 0x0 PUSH3 0x1C4 PUSH3 0x1BE DUP5 PUSH3 0x14B JUMP JUMPDEST PUSH3 0x12C JUMP JUMPDEST SWAP1 POP DUP3 DUP2 MSTORE PUSH1 0x20 DUP2 ADD DUP5 DUP5 DUP5 ADD GT ISZERO PUSH3 0x1E3 JUMPI PUSH3 0x1E2 PUSH3 0xB1 JUMP JUMPDEST JUMPDEST PUSH3 0x1F0 DUP5 DUP3 DUP6 PUSH3 0x181 JUMP JUMPDEST POP SWAP4 SWAP3 POP POP POP JUMP JUMPDEST PUSH1 0x0 DUP3 PUSH1 0x1F DUP4 ADD SLT PUSH3 0x210 JUMPI PUSH3 0x20F PUSH3 0xAC JUMP JUMPDEST JUMPDEST DUP2 MLOAD PUSH3 0x222 DUP5 DUP3 PUSH1 0x20 DUP7 ADD PUSH3 0x1AD JUMP JUMPDEST SWAP2 POP POP SWAP3 SWAP2 POP POP JUMP JUMPDEST PUSH1 0x0 DUP1 PUSH1 0x40 DUP4 DUP6 SUB SLT ISZERO PUSH3 0x245 JUMPI PUSH3 0x244 PUSH3 0x67 JUMP JUMPDEST JUMPDEST PUSH1 0x0 PUSH3 0x255 DUP6 DUP3 DUP7 ADD PUSH3 0x95 JUMP JUMPDEST SWAP3 POP POP PUSH1 0x20 DUP4 ADD MLOAD PUSH8 0xFFFFFFFFFFFFFFFF DUP2 GT ISZERO PUSH3 0x279 JUMPI PUSH3 0x278 PUSH3 0x6C JUMP JUMPDEST JUMPDEST PUSH3 0x287 DUP6 DUP3 DUP7 ADD PUSH3 0x1F8 JUMP JUMPDEST SWAP2 POP POP SWAP3 POP SWAP3 SWAP1 POP JUMP JUMPDEST PUSH1 0x0 DUP2 MLOAD SWAP1 POP SWAP2 SWAP1 POP JUMP JUMPDEST PUSH32 0x4E487B7100000000000000000000000000000000000000000000000000000000 PUSH1 0x0 MSTORE PUSH1 0x22 PUSH1 0x4 MSTORE PUSH1 0x24 PUSH1 0x0 REVERT JUMPDEST PUSH1 0x0 PUSH1 0x2 DUP3 DIV SWAP1 POP PUSH1 0x1 DUP3 AND DUP1 PUSH3 0x2E4 JUMPI PUSH1 0x7F DUP3 AND SWAP2 POP JUMPDEST PUSH1 0x20 DUP3 LT DUP2 SUB PUSH3 0x2FA JUMPI PUSH3 0x2F9 PUSH3 0x29C JUMP JUMPDEST JUMPDEST POP SWAP2 SWAP1 POP JUMP JUMPDEST PUSH1 0x0 DUP2 SWAP1 POP DUP2 PUSH1 0x0 MSTORE PUSH1 0x20 PUSH1 0x0 KECCAK256 SWAP1 POP SWAP2 SWAP1 POP JUMP JUMPDEST PUSH1 0x0 PUSH1 0x20 PUSH1 0x1F DUP4 ADD DIV SWAP1 POP SWAP2 SWAP1 POP JUMP JUMPDEST PUSH1 0x0 DUP3 DUP3 SHL SWAP1 POP SWAP3 SWAP2 POP POP JUMP JUMPDEST PUSH1 0x0 PUSH1 0x8 DUP4 MUL PUSH3 0x364 PUSH32 0xFFFFFFFFFFFFFFFFFFFFFFFFFFFFFFFFFFFFFFFFFFFFFFFFFFFFFFFFFFFFFFFF DUP3 PUSH3 0x325 JUMP JUMPDEST PUSH3 0x370 DUP7 DUP4 PUSH3 0x325 JUMP JUMPDEST SWAP6 POP DUP1 NOT DUP5 AND SWAP4 POP DUP1 DUP7 AND DUP5 OR SWAP3 POP POP POP SWAP4 SWAP3 POP POP POP JUMP JUMPDEST PUSH1 0x0 DUP2 SWAP1 POP SWAP2 SWAP1 POP JUMP JUMPDEST PUSH1 0x0 PUSH3 0x3B3 PUSH3 0x3AD PUSH3 0x3A7 DUP5 PUSH3 0x71 JUMP JUMPDEST PUSH3 0x388 JUMP JUMPDEST PUSH3 0x71 JUMP JUMPDEST SWAP1 POP SWAP2 SWAP1 POP JUMP JUMPDEST PUSH1 0x0 DUP2 SWAP1 POP SWAP2 SWAP1 POP JUMP JUMPDEST PUSH3 0x3CF DUP4 PUSH3 0x392 JUMP JUMPDEST PUSH3 0x3E7 PUSH3 0x3DE DUP3 PUSH3 0x3BA JUMP JUMPDEST DUP5 DUP5 SLOAD PUSH3 0x332 JUMP JUMPDEST DUP3 SSTORE POP POP POP POP JUMP JUMPDEST PUSH1 0x0 SWAP1 JUMP JUMPDEST PUSH3 0x3FE PUSH3 0x3EF JUMP JUMPDEST PUSH3 0x40B DUP2 DUP5 DUP5 PUSH3 0x3C4 JUMP JUMPDEST POP POP POP JUMP JUMPDEST JUMPDEST DUP2 DUP2 LT ISZERO PUSH3 0x433 JUMPI PUSH3 0x427 PUSH1 0x0 DUP3 PUSH3 0x3F4 JUMP JUMPDEST PUSH1 0x1 DUP2 ADD SWAP1 POP PUSH3 0x411 JUMP JUMPDEST POP POP JUMP JUMPDEST PUSH1 0x1F DUP3 GT ISZERO PUSH3 0x482 JUMPI PUSH3 0x44C DUP2 PUSH3 0x300 JUMP JUMPDEST PUSH3 0x457 DUP5 PUSH3 0x315 JUMP JUMPDEST DUP2 ADD PUSH1 0x20 DUP6 LT ISZERO PUSH3 0x467 JUMPI DUP2 SWAP1 POP JUMPDEST PUSH3 0x47F PUSH3 0x476 DUP6 PUSH3 0x315 JUMP JUMPDEST DUP4 ADD DUP3 PUSH3 0x410 JUMP JUMPDEST POP POP JUMPDEST POP POP POP JUMP JUMPDEST PUSH1 0x0 DUP3 DUP3 SHR SWAP1 POP SWAP3 SWAP2 POP POP JUMP JUMPDEST PUSH1 0x0 PUSH3 0x4A7 PUSH1 0x0 NOT DUP5 PUSH1 0x8 MUL PUSH3 0x487 JUMP JUMPDEST NOT DUP1 DUP4 AND SWAP2 POP POP SWAP3 SWAP2 POP POP JUMP JUMPDEST PUSH1 0x0 PUSH3 0x4C2 DUP4 DUP4 PUSH3 0x494 JUMP JUMPDEST SWAP2 POP DUP3 PUSH1 0x2 MUL DUP3 OR SWAP1 POP SWAP3 SWAP2 POP POP JUMP JUMPDEST PUSH3 0x4DD DUP3 PUSH3 0x291 JUMP JUMPDEST PUSH8 0xFFFFFFFFFFFFFFFF DUP2 GT ISZERO PUSH3 0x4F9 JUMPI PUSH3 0x4F8 PUSH3 0xC7 JUMP JUMPDEST JUMPDEST PUSH3 0x505 DUP3 SLOAD PUSH3 0x2CB JUMP JUMPDEST PUSH3 0x512 DUP3 DUP3 DUP6 PUSH3 0x437 JUMP JUMPDEST PUSH1 0x0 PUSH1 0x20 SWAP1 POP PUSH1 0x1F DUP4 GT PUSH1 0x1 DUP2 EQ PUSH3 0x54A JUMPI PUSH1 0x0 DUP5 ISZERO PUSH3 0x535 JUMPI DUP3 DUP8 ADD MLOAD SWAP1 POP JUMPDEST PUSH3 0x541 DUP6 DUP3 PUSH3 0x4B4 JUMP JUMPDEST DUP7 SSTORE POP PUSH3 0x5B1 JUMP JUMPDEST PUSH1 0x1F NOT DUP5 AND PUSH3 0x55A DUP7 PUSH3 0x300 JUMP JUMPDEST PUSH1 0x0 JUMPDEST DUP3 DUP2 LT ISZERO PUSH3 0x584 JUMPI DUP5 DUP10 ADD MLOAD DUP3 SSTORE PUSH1 0x1 DUP3 ADD SWAP2 POP PUSH1 0x20 DUP6 ADD SWAP5 POP PUSH1 0x20 DUP2 ADD SWAP1 POP PUSH3 0x55D JUMP JUMPDEST DUP7 DUP4 LT ISZERO PUSH3 0x5A4 JUMPI DUP5 DUP10 ADD MLOAD PUSH3 0x5A0 PUSH1 0x1F DUP10 AND DUP3 PUSH3 0x494 JUMP JUMPDEST DUP4 SSTORE POP JUMPDEST PUSH1 0x1 PUSH1 0x2 DUP9 MUL ADD DUP9 SSTORE POP POP POP JUMPDEST POP POP POP POP POP POP JUMP JUMPDEST PUSH2 0x929 DUP1 PUSH3 0x5C9 PUSH1 0x0 CODECOPY PUSH1 0x0 RETURN INVALID PUSH1 0x80 PUSH1 0x40 MSTORE CALLVALUE DUP1 ISZERO PUSH2 0x10 JUMPI PUSH1 0x0 DUP1 REVERT JUMPDEST POP PUSH1 0x4 CALLDATASIZE LT PUSH2 0x62 JUMPI PUSH1 0x0 CALLDATALOAD PUSH1 0xE0 SHR DUP1 PUSH4 0x6CC014DE EQ PUSH2 0x67 JUMPI DUP1 PUSH4 0x78DF1250 EQ PUSH2 0x86 JUMPI DUP1 PUSH4 0xA314150F EQ PUSH2 0xA2 JUMPI DUP1 PUSH4 0xA5D666A9 EQ PUSH2 0xC1 JUMPI DUP1 PUSH4 0xA92B6D11 EQ PUSH2 0xE0 JUMPI DUP1 PUSH4 0xBC647E54 EQ PUSH2 0xFC JUMPI JUMPDEST PUSH1 0x0 DUP1 REVERT JUMPDEST PUSH2 0x6F PUSH2 0x118 JUMP JUMPDEST PUSH1 0x40 MLOAD PUSH2 0x7D SWAP3 SWAP2 SWAP1 PUSH2 0x414 JUMP JUMPDEST PUSH1 0x40 MLOAD DUP1 SWAP2 SUB SWAP1 RETURN JUMPDEST PUSH2 0xA0 PUSH1 0x4 DUP1 CALLDATASIZE SUB DUP2 ADD SWAP1 PUSH2 0x9B SWAP2 SWAP1 PUSH2 0x5B9 JUMP JUMPDEST PUSH2 0x1B2 JUMP JUMPDEST STOP JUMPDEST PUSH2 0xAA PUSH2 0x1D3 JUMP JUMPDEST PUSH1 0x40 MLOAD PUSH2 0xB8 SWAP3 SWAP2 SWAP1 PUSH2 0x414 JUMP JUMPDEST PUSH1 0x40 MLOAD DUP1 SWAP2 SUB SWAP1 RETURN JUMPDEST PUSH2 0xC9 PUSH2 0x26D JUMP JUMPDEST PUSH1 0x40 MLOAD PUSH2 0xD7 SWAP3 SWAP2 SWAP1 PUSH2 0x414 JUMP JUMPDEST PUSH1 0x40 MLOAD DUP1 SWAP2 SUB SWAP1 RETURN JUMPDEST PUSH2 0xFA PUSH1 0x4 DUP1 CALLDATASIZE SUB DUP2 ADD SWAP1 PUSH2 0xF5 SWAP2 SWAP1 PUSH2 0x5B9 JUMP JUMPDEST PUSH2 0x307 JUMP JUMPDEST STOP JUMPDEST PUSH2 0x116 PUSH1 0x4 DUP1 CALLDATASIZE SUB DUP2 ADD SWAP1 PUSH2 0x111 SWAP2 SWAP1 PUSH2 0x5B9 JUMP JUMPDEST PUSH2 0x34A JUMP JUMPDEST STOP JUMPDEST PUSH1 0x0 DUP1 PUSH1 0x0 ADD SLOAD SWAP1 DUP1 PUSH1 0x1 ADD DUP1 SLOAD PUSH2 0x12F SWAP1 PUSH2 0x644 JUMP JUMPDEST DUP1 PUSH1 0x1F ADD PUSH1 0x20 DUP1 SWAP2 DIV MUL PUSH1 0x20 ADD PUSH1 0x40 MLOAD SWAP1 DUP2 ADD PUSH1 0x40 MSTORE DUP1 SWAP3 SWAP2 SWAP1 DUP2 DUP2 MSTORE PUSH1 0x20 ADD DUP3 DUP1 SLOAD PUSH2 0x15B SWAP1 PUSH2 0x644 JUMP JUMPDEST DUP1 ISZERO PUSH2 0x1A8 JUMPI DUP1 PUSH1 0x1F LT PUSH2 0x17D JUMPI PUSH2 0x100 DUP1 DUP4 SLOAD DIV MUL DUP4 MSTORE SWAP2 PUSH1 0x20 ADD SWAP2 PUSH2 0x1A8 JUMP JUMPDEST DUP3 ADD SWAP2 SWAP1 PUSH1 0x0 MSTORE PUSH1 0x20 PUSH1 0x0 KECCAK256 SWAP1 JUMPDEST DUP2 SLOAD DUP2 MSTORE SWAP1 PUSH1 0x1 ADD SWAP1 PUSH1 0x20 ADD DUP1 DUP4 GT PUSH2 0x18B JUMPI DUP3 SWAP1 SUB PUSH1 0x1F AND DUP3 ADD SWAP2 JUMPDEST POP POP POP POP POP SWAP1 POP DUP3 JUMP JUMPDEST DUP2 PUSH1 0x2 PUSH1 0x0 ADD DUP2 SWAP1 SSTORE POP DUP1 PUSH1 0x2 PUSH1 0x1 ADD SWAP1 DUP2 PUSH2 0x1CE SWAP2 SWAP1 PUSH2 0x821 JUMP JUMPDEST POP POP POP JUMP JUMPDEST PUSH1 0x2 DUP1 PUSH1 0x0 ADD SLOAD SWAP1 DUP1 PUSH1 0x1 ADD DUP1 SLOAD PUSH2 0x1EA SWAP1 PUSH2 0x644 JUMP JUMPDEST DUP1 PUSH1 0x1F ADD PUSH1 0x20 DUP1 SWAP2 DIV MUL PUSH1 0x20 ADD PUSH1 0x40 MLOAD SWAP1 DUP2 ADD PUSH1 0x40 MSTORE DUP1 SWAP3 SWAP2 SWAP1 DUP2 DUP2 MSTORE PUSH1 0x20 ADD DUP3 DUP1 SLOAD PUSH2 0x216 SWAP1 PUSH2 0x644 JUMP JUMPDEST DUP1 ISZERO PUSH2 0x263 JUMPI DUP1 PUSH1 0x1F LT PUSH2 0x238 JUMPI PUSH2 0x100 DUP1 DUP4 SLOAD DIV MUL DUP4 MSTORE SWAP2 PUSH1 0x20 ADD SWAP2 PUSH2 0x263 JUMP JUMPDEST DUP3 ADD SWAP2 SWAP1 PUSH1 0x0 MSTORE PUSH1 0x20 PUSH1 0x0 KECCAK256 SWAP1 JUMPDEST DUP2 SLOAD DUP2 MSTORE SWAP1 PUSH1 0x1 ADD SWAP1 PUSH1 0x20 ADD DUP1 DUP4 GT PUSH2 0x246 JUMPI DUP3 SWAP1 SUB PUSH1 0x1F AND DUP3 ADD SWAP2 JUMPDEST POP POP POP POP POP SWAP1 POP DUP3 JUMP JUMPDEST PUSH1 0x4 DUP1 PUSH1 0x0 ADD SLOAD SWAP1 DUP1 PUSH1 0x1 ADD DUP1 SLOAD PUSH2 0x284 SWAP1 PUSH2 0x644 JUMP JUMPDEST DUP1 PUSH1 0x1F ADD PUSH1 0x20 DUP1 SWAP2 DIV MUL PUSH1 0x20 ADD PUSH1 0x40 MLOAD SWAP1 DUP2 ADD PUSH1 0x40 MSTORE DUP1 SWAP3 SWAP2 SWAP1 DUP2 DUP2 MSTORE PUSH1 0x20 ADD DUP3 DUP1 SLOAD PUSH2 0x2B0 SWAP1 PUSH2 0x644 JUMP JUMPDEST DUP1 ISZERO PUSH2 0x2FD JUMPI DUP1 PUSH1 0x1F LT PUSH2 0x2D2 JUMPI PUSH2 0x100 DUP1 DUP4 SLOAD DIV MUL DUP4 MSTORE SWAP2 PUSH1 0x20 ADD SWAP2 PUSH2 0x2FD JUMP JUMPDEST DUP3 ADD SWAP2 SWAP1 PUSH1 0x0 MSTORE PUSH1 0x20 PUSH1 0x0 KECCAK256 SWAP1 JUMPDEST DUP2 SLOAD DUP2 MSTORE SWAP1 PUSH1 0x1 ADD SWAP1 PUSH1 0x20 ADD DUP1 DUP4 GT PUSH2 0x2E0 JUMPI DUP3 SWAP1 SUB PUSH1 0x1F AND DUP3 ADD SWAP2 JUMPDEST POP POP POP POP POP SWAP1 POP DUP3 JUMP JUMPDEST PUSH1 0x0 PUSH1 0x40 MLOAD DUP1 PUSH1 0x40 ADD PUSH1 0x40 MSTORE DUP1 DUP5 DUP2 MSTORE PUSH1 0x20 ADD DUP4 DUP2 MSTORE POP SWAP1 POP DUP1 PUSH1 0x0 DUP1 DUP3 ADD MLOAD DUP2 PUSH1 0x0 ADD SSTORE PUSH1 0x20 DUP3 ADD MLOAD DUP2 PUSH1 0x1 ADD SWAP1 DUP2 PUSH2 0x341 SWAP2 SWAP1 PUSH2 0x821 JUMP JUMPDEST POP SWAP1 POP POP POP POP POP JUMP JUMPDEST DUP2 PUSH1 0x4 PUSH1 0x0 ADD DUP2 SWAP1 SSTORE POP DUP1 PUSH1 0x4 PUSH1 0x1 ADD SWAP1 DUP2 PUSH2 0x366 SWAP2 SWAP1 PUSH2 0x821 JUMP JUMPDEST POP POP POP JUMP JUMPDEST PUSH1 0x0 DUP2 SWAP1 POP SWAP2 SWAP1 POP JUMP JUMPDEST PUSH2 0x37E DUP2 PUSH2 0x36B JUMP JUMPDEST DUP3 MSTORE POP POP JUMP JUMPDEST PUSH1 0x0 DUP2 MLOAD SWAP1 POP SWAP2 SWAP1 POP JUMP JUMPDEST PUSH1 0x0 DUP3 DUP3 MSTORE PUSH1 0x20 DUP3 ADD SWAP1 POP SWAP3 SWAP2 POP POP JUMP JUMPDEST PUSH1 0x0 JUMPDEST DUP4 DUP2 LT ISZERO PUSH2 0x3BE JUMPI DUP1 DUP3 ADD MLOAD DUP2 DUP5 ADD MSTORE PUSH1 0x20 DUP2 ADD SWAP1 POP PUSH2 0x3A3 JUMP JUMPDEST PUSH1 0x0 DUP5 DUP5 ADD MSTORE POP POP POP POP JUMP JUMPDEST PUSH1 0x0 PUSH1 0x1F NOT PUSH1 0x1F DUP4 ADD AND SWAP1 POP SWAP2 SWAP1 POP JUMP JUMPDEST PUSH1 0x0 PUSH2 0x3E6 DUP3 PUSH2 0x384 JUMP JUMPDEST PUSH2 0x3F0 DUP2 DUP6 PUSH2 0x38F JUMP JUMPDEST SWAP4 POP PUSH2 0x400 DUP2 DUP6 PUSH1 0x20 DUP7 ADD PUSH2 0x3A0 JUMP JUMPDEST PUSH2 0x409 DUP2 PUSH2 0x3CA JUMP JUMPDEST DUP5 ADD SWAP2 POP POP SWAP3 SWAP2 POP POP JUMP JUMPDEST PUSH1 0x0 PUSH1 0x40 DUP3 ADD SWAP1 POP PUSH2 0x429 PUSH1 0x0 DUP4 ADD DUP6 PUSH2 0x375 JUMP JUMPDEST DUP2 DUP2 SUB PUSH1 0x20 DUP4 ADD MSTORE PUSH2 0x43B DUP2 DUP5 PUSH2 0x3DB JUMP JUMPDEST SWAP1 POP SWAP4 SWAP3 POP POP POP JUMP JUMPDEST PUSH1 0x0 PUSH1 0x40 MLOAD SWAP1 POP SWAP1 JUMP JUMPDEST PUSH1 0x0 DUP1 REVERT JUMPDEST PUSH1 0x0 DUP1 REVERT JUMPDEST PUSH2 0x461 DUP2 PUSH2 0x36B JUMP JUMPDEST DUP2 EQ PUSH2 0x46C JUMPI PUSH1 0x0 DUP1 REVERT JUMPDEST POP JUMP JUMPDEST PUSH1 0x0 DUP2 CALLDATALOAD SWAP1 POP PUSH2 0x47E DUP2 PUSH2 0x458 JUMP JUMPDEST SWAP3 SWAP2 POP POP JUMP JUMPDEST PUSH1 0x0 DUP1 REVERT JUMPDEST PUSH1 0x0 DUP1 REVERT JUMPDEST PUSH32 0x4E487B7100000000000000000000000000000000000000000000000000000000 PUSH1 0x0 MSTORE PUSH1 0x41 PUSH1 0x4 MSTORE PUSH1 0x24 PUSH1 0x0 REVERT JUMPDEST PUSH2 0x4C6 DUP3 PUSH2 0x3CA JUMP JUMPDEST DUP2 ADD DUP2 DUP2 LT PUSH8 0xFFFFFFFFFFFFFFFF DUP3 GT OR ISZERO PUSH2 0x4E5 JUMPI PUSH2 0x4E4 PUSH2 0x48E JUMP JUMPDEST JUMPDEST DUP1 PUSH1 0x40 MSTORE POP POP POP JUMP JUMPDEST PUSH1 0x0 PUSH2 0x4F8 PUSH2 0x444 JUMP JUMPDEST SWAP1 POP PUSH2 0x504 DUP3 DUP3 PUSH2 0x4BD JUMP JUMPDEST SWAP2 SWAP1 POP JUMP JUMPDEST PUSH1 0x0 PUSH8 0xFFFFFFFFFFFFFFFF DUP3 GT ISZERO PUSH2 0x524 JUMPI PUSH2 0x523 PUSH2 0x48E JUMP JUMPDEST JUMPDEST PUSH2 0x52D DUP3 PUSH2 0x3CA JUMP JUMPDEST SWAP1 POP PUSH1 0x20 DUP2 ADD SWAP1 POP SWAP2 SWAP1 POP JUMP JUMPDEST DUP3 DUP2 DUP4 CALLDATACOPY PUSH1 0x0 DUP4 DUP4 ADD MSTORE POP POP POP JUMP JUMPDEST PUSH1 0x0 PUSH2 0x55C PUSH2 0x557 DUP5 PUSH2 0x509 JUMP JUMPDEST PUSH2 0x4EE JUMP JUMPDEST SWAP1 POP DUP3 DUP2 MSTORE PUSH1 0x20 DUP2 ADD DUP5 DUP5 DUP5 ADD GT ISZERO PUSH2 0x578 JUMPI PUSH2 0x577 PUSH2 0x489 JUMP JUMPDEST JUMPDEST PUSH2 0x583 DUP5 DUP3 DUP6 PUSH2 0x53A JUMP JUMPDEST POP SWAP4 SWAP3 POP POP POP JUMP JUMPDEST PUSH1 0x0 DUP3 PUSH1 0x1F DUP4 ADD SLT PUSH2 0x5A0 JUMPI PUSH2 0x59F PUSH2 0x484 JUMP JUMPDEST JUMPDEST DUP2 CALLDATALOAD PUSH2 0x5B0 DUP5 DUP3 PUSH1 0x20 DUP7 ADD PUSH2 0x549 JUMP JUMPDEST SWAP2 POP POP SWAP3 SWAP2 POP POP JUMP JUMPDEST PUSH1 0x0 DUP1 PUSH1 0x40 DUP4 DUP6 SUB SLT ISZERO PUSH2 0x5D0 JUMPI PUSH2 0x5CF PUSH2 0x44E JUMP JUMPDEST JUMPDEST PUSH1 0x0 PUSH2 0x5DE DUP6 DUP3 DUP7 ADD PUSH2 0x46F JUMP JUMPDEST SWAP3 POP POP PUSH1 0x20 DUP4 ADD CALLDATALOAD PUSH8 0xFFFFFFFFFFFFFFFF DUP2 GT ISZERO PUSH2 0x5FF JUMPI PUSH2 0x5FE PUSH2 0x453 JUMP JUMPDEST JUMPDEST PUSH2 0x60B DUP6 DUP3 DUP7 ADD PUSH2 0x58B JUMP JUMPDEST SWAP2 POP POP SWAP3 POP SWAP3 SWAP1 POP JUMP JUMPDEST PUSH32 0x4E487B7100000000000000000000000000000000000000000000000000000000 PUSH1 0x0 MSTORE PUSH1 0x22 PUSH1 0x4 MSTORE PUSH1 0x24 PUSH1 0x0 REVERT JUMPDEST PUSH1 0x0 PUSH1 0x2 DUP3 DIV SWAP1 POP PUSH1 0x1 DUP3 AND DUP1 PUSH2 0x65C JUMPI PUSH1 0x7F DUP3 AND SWAP2 POP JUMPDEST PUSH1 0x20 DUP3 LT DUP2 SUB PUSH2 0x66F JUMPI PUSH2 0x66E PUSH2 0x615 JUMP JUMPDEST JUMPDEST POP SWAP2 SWAP1 POP JUMP JUMPDEST PUSH1 0x0 DUP2 SWAP1 POP DUP2 PUSH1 0x0 MSTORE PUSH1 0x20 PUSH1 0x0 KECCAK256 SWAP1 POP SWAP2 SWAP1 POP JUMP JUMPDEST PUSH1 0x0 PUSH1 0x20 PUSH1 0x1F DUP4 ADD DIV SWAP1 POP SWAP2 SWAP1 POP JUMP JUMPDEST PUSH1 0x0 DUP3 DUP3 SHL SWAP1 POP SWAP3 SWAP2 POP POP JUMP JUMPDEST PUSH1 0x0 PUSH1 0x8 DUP4 MUL PUSH2 0x6D7 PUSH32 0xFFFFFFFFFFFFFFFFFFFFFFFFFFFFFFFFFFFFFFFFFFFFFFFFFFFFFFFFFFFFFFFF DUP3 PUSH2 0x69A JUMP JUMPDEST PUSH2 0x6E1 DUP7 DUP4 PUSH2 0x69A JUMP JUMPDEST SWAP6 POP DUP1 NOT DUP5 AND SWAP4 POP DUP1 DUP7 AND DUP5 OR SWAP3 POP POP POP SWAP4 SWAP3 POP POP POP JUMP JUMPDEST PUSH1 0x0 DUP2 SWAP1 POP SWAP2 SWAP1 POP JUMP JUMPDEST PUSH1 0x0 PUSH2 0x71E PUSH2 0x719 PUSH2 0x714 DUP5 PUSH2 0x36B JUMP JUMPDEST PUSH2 0x6F9 JUMP JUMPDEST PUSH2 0x36B JUMP JUMPDEST SWAP1 POP SWAP2 SWAP1 POP JUMP JUMPDEST PUSH1 0x0 DUP2 SWAP1 POP SWAP2 SWAP1 POP JUMP JUMPDEST PUSH2 0x738 DUP4 PUSH2 0x703 JUMP JUMPDEST PUSH2 0x74C PUSH2 0x744 DUP3 PUSH2 0x725 JUMP JUMPDEST DUP5 DUP5 SLOAD PUSH2 0x6A7 JUMP JUMPDEST DUP3 SSTORE POP POP POP POP JUMP JUMPDEST PUSH1 0x0 SWAP1 JUMP JUMPDEST PUSH2 0x761 PUSH2 0x754 JUMP JUMPDEST PUSH2 0x76C DUP2 DUP5 DUP5 PUSH2 0x72F JUMP JUMPDEST POP POP POP JUMP JUMPDEST JUMPDEST DUP2 DUP2 LT ISZERO PUSH2 0x790 JUMPI PUSH2 0x785 PUSH1 0x0 DUP3 PUSH2 0x759 JUMP JUMPDEST PUSH1 0x1 DUP2 ADD SWAP1 POP PUSH2 0x772 JUMP JUMPDEST POP POP JUMP JUMPDEST PUSH1 0x1F DUP3 GT ISZERO PUSH2 0x7D5 JUMPI PUSH2 0x7A6 DUP2 PUSH2 0x675 JUMP JUMPDEST PUSH2 0x7AF DUP5 PUSH2 0x68A JUMP JUMPDEST DUP2 ADD PUSH1 0x20 DUP6 LT ISZERO PUSH2 0x7BE JUMPI DUP2 SWAP1 POP JUMPDEST PUSH2 0x7D2 PUSH2 0x7CA DUP6 PUSH2 0x68A JUMP JUMPDEST DUP4 ADD DUP3 PUSH2 0x771 JUMP JUMPDEST POP POP JUMPDEST POP POP POP JUMP JUMPDEST PUSH1 0x0 DUP3 DUP3 SHR SWAP1 POP SWAP3 SWAP2 POP POP JUMP JUMPDEST PUSH1 0x0 PUSH2 0x7F8 PUSH1 0x0 NOT DUP5 PUSH1 0x8 MUL PUSH2 0x7DA JUMP JUMPDEST NOT DUP1 DUP4 AND SWAP2 POP POP SWAP3 SWAP2 POP POP JUMP JUMPDEST PUSH1 0x0 PUSH2 0x811 DUP4 DUP4 PUSH2 0x7E7 JUMP JUMPDEST SWAP2 POP DUP3 PUSH1 0x2 MUL DUP3 OR SWAP1 POP SWAP3 SWAP2 POP POP JUMP JUMPDEST PUSH2 0x82A DUP3 PUSH2 0x384 JUMP JUMPDEST PUSH8 0xFFFFFFFFFFFFFFFF DUP2 GT ISZERO PUSH2 0x843 JUMPI PUSH2 0x842 PUSH2 0x48E JUMP JUMPDEST JUMPDEST PUSH2 0x84D DUP3 SLOAD PUSH2 0x644 JUMP JUMPDEST PUSH2 0x858 DUP3 DUP3 DUP6 PUSH2 0x794 JUMP JUMPDEST PUSH1 0x0 PUSH1 0x20 SWAP1 POP PUSH1 0x1F DUP4 GT PUSH1 0x1 DUP2 EQ PUSH2 0x88B JUMPI PUSH1 0x0 DUP5 ISZERO PUSH2 0x879 JUMPI DUP3 DUP8 ADD MLOAD SWAP1 POP JUMPDEST PUSH2 0x883 DUP6 DUP3 PUSH2 0x805 JUMP JUMPDEST DUP7 SSTORE POP PUSH2 0x8EB JUMP JUMPDEST PUSH1 0x1F NOT DUP5 AND PUSH2 0x899 DUP7 PUSH2 0x675 JUMP JUMPDEST PUSH1 0x0 JUMPDEST DUP3 DUP2 LT ISZERO PUSH2 0x8C1 JUMPI DUP5 DUP10 ADD MLOAD DUP3 SSTORE PUSH1 0x1 DUP3 ADD SWAP2 POP PUSH1 0x20 DUP6 ADD SWAP5 POP PUSH1 0x20 DUP2 ADD SWAP1 POP PUSH2 0x89C JUMP JUMPDEST DUP7 DUP4 LT ISZERO PUSH2 0x8DE JUMPI DUP5 DUP10 ADD MLOAD PUSH2 0x8DA PUSH1 0x1F DUP10 AND DUP3 PUSH2 0x7E7 JUMP JUMPDEST DUP4 SSTORE POP JUMPDEST PUSH1 0x1 PUSH1 0x2 DUP9 MUL ADD DUP9 SSTORE POP POP POP JUMPDEST POP POP POP POP POP POP JUMP INVALID LOG2 PUSH5 0x6970667358 0x22 SLT KECCAK256 0x22 PUSH22 0xBC0EDE23CA9AF2F4EC6EE43CCF8C258CEA0816344208 PUSH31 0x43D5B331A584F364736F6C6343000811003300000000000000000000000000 "
		},
		"gasEstimates": {
			"creation": {
				"codeDepositCost": "469000",
				"executionCost": "infinite",
				"totalCost": "infinite"
			},
			"external": {
				"changeS1(uint256,string)": "infinite",
				"s1()": "infinite",
				"s2()": "infinite",
				"s3()": "infinite",
				"set_S2(uint256,string)": "infinite",
				"set_S3(uint256,string)": "infinite"
			}
		},
		"methodIdentifiers": {
			"changeS1(uint256,string)": "a92b6d11",
			"s1()": "6cc014de",
			"s2()": "a314150f",
			"s3()": "a5d666a9",
			"set_S2(uint256,string)": "78df1250",
			"set_S3(uint256,string)": "bc647e54"
		}
	},
	"abi": [
		{
			"inputs": [
				{
					"internalType": "uint256",
					"name": "_roll",
					"type": "uint256"
				},
				{
					"internalType": "string",
					"name": "_name",
					"type": "string"
				}
			],
			"stateMutability": "nonpayable",
			"type": "constructor"
		},
		{
			"inputs": [
				{
					"internalType": "uint256",
					"name": "_roll",
					"type": "uint256"
				},
				{
					"internalType": "string",
					"name": "_name",
					"type": "string"
				}
			],
			"name": "changeS1",
			"outputs": [],
			"stateMutability": "nonpayable",
			"type": "function"
		},
		{
			"inputs": [],
			"name": "s1",
			"outputs": [
				{
					"internalType": "uint256",
					"name": "roll",
					"type": "uint256"
				},
				{
					"internalType": "string",
					"name": "name",
					"type": "string"
				}
			],
			"stateMutability": "view",
			"type": "function"
		},
		{
			"inputs": [],
			"name": "s2",
			"outputs": [
				{
					"internalType": "uint256",
					"name": "roll",
					"type": "uint256"
				},
				{
					"internalType": "string",
					"name": "name",
					"type": "string"
				}
			],
			"stateMutability": "view",
			"type": "function"
		},
		{
			"inputs": [],
			"name": "s3",
			"outputs": [
				{
					"internalType": "uint256",
					"name": "roll",
					"type": "uint256"
				},
				{
					"internalType": "string",
					"name": "name",
					"type": "string"
				}
			],
			"stateMutability": "view",
			"type": "function"
		},
		{
			"inputs": [
				{
					"internalType": "uint256",
					"name": "_roll",
					"type": "uint256"
				},
				{
					"internalType": "string",
					"name": "_name",
					"type": "string"
				}
			],
			"name": "set_S2",
			"outputs": [],
			"stateMutability": "nonpayable",
			"type": "function"
		},
		{
			"inputs": [
				{
					"internalType": "uint256",
					"name": "_roll",
					"type": "uint256"
				},
				{
					"internalType": "string",
					"name": "_name",
					"type": "string"
				}
			],
			"name": "set_S3",
			"outputs": [],
			"stateMutability": "nonpayable",
			"type": "function"
		}
	]
}