{
	"data": {
		"bytecode": {
			"linkReferences": {},
			"object": "60806040526000805534801561001457600080fd5b50611acb806100246000396000f3fe608060405234801561001057600080fd5b50600436106100935760003560e01c80636c581256116100665780636c581256146101205780638f88708b1461013c578063ceea3c7814610171578063d6d9a024146101a6578063df93d8f0146101d657610093565b80630e0196a8146100985780632ddbd13a146100b65780633a82fd5e146100d45780633e71372614610104575b600080fd5b6100a06101f4565b6040516100ad9190610f0a565b60405180910390f35b6100be61039c565b6040516100cb9190610f34565b60405180910390f35b6100ee60048036038101906100e99190610f88565b6103a2565b6040516100fb9190610f34565b60405180910390f35b61011e6004803603810190610119919061114c565b6103ba565b005b61013a600480360381019061013591906111cf565b610483565b005b610156600480360381019061015191906112a9565b610602565b60405161016896959493929190611414565b60405180910390f35b61018b600480360381019061018691906112a9565b610810565b60405161019d96959493929190611414565b60405180910390f35b6101c060048036038101906101bb9190611483565b610976565b6040516101cd9190610f34565b60405180910390f35b6101de6109e2565b6040516101eb919061165e565b60405180910390f35b6101fc610dac565b6002600080600381111561021357610212611355565b5b600381111561022557610224611355565b5b815260200190815260200160002054816000600381111561024957610248611355565b5b6004811061025a57610259611680565b5b602002018181525050600260006001600381111561027b5761027a611355565b5b600381111561028d5761028c611355565b5b81526020019081526020016000205481600160038111156102b1576102b0611355565b5b600481106102c2576102c1611680565b5b60200201818152505060026000600260038111156102e3576102e2611355565b5b60038111156102f5576102f4611355565b5b815260200190815260200160002054816002600381111561031957610318611355565b5b6004811061032a57610329611680565b5b6020020181815250506002600060038081111561034a57610349611355565b5b600381111561035c5761035b611355565b5b8152602001908152602001600020548160038081111561037f5761037e611355565b5b600481106103905761038f611680565b5b60200201818152505090565b60005481565b60026020528060005260406000206000915090505481565b826001600086815260200190815260200160002060000190816103dd91906118bb565b50816001600086815260200190815260200160002060030160006101000a81548160ff0219169083600381111561041757610416611355565b5b0217905550806001600086815260200190815260200160002060030160016101000a81548160ff0219169083600381111561045557610454611355565b5b021790555061046381610976565b600160008681526020019081526020016000206004018190555050505050565b61048c82610976565b90506040518060c001604052808781526020018681526020018581526020018460038111156104be576104bd611355565b5b81526020018360038111156104d6576104d5611355565b5b81526020018281525060016000898152602001908152602001600020600082015181600001908161050791906118bb565b5060208201518160010155604082015181600201908161052791906118bb565b5060608201518160030160006101000a81548160ff0219169083600381111561055357610552611355565b5b021790555060808201518160030160016101000a81548160ff0219169083600381111561058357610582611355565b5b021790555060a08201518160040155905050600260008460038111156105ac576105ab611355565b5b60038111156105be576105bd611355565b5b815260200190815260200160002060008154809291906105dd906119bc565b91905055506000808154809291906105f4906119bc565b919050555050505050505050565b606060006060600080600080600160008981526020019081526020016000206040518060c001604052908160008201805461063c906116de565b80601f0160208091040260200160405190810160405280929190818152602001828054610668906116de565b80156106b55780601f1061068a576101008083540402835291602001916106b5565b820191906000526020600020905b81548152906001019060200180831161069857829003601f168201915b50505050508152602001600182015481526020016002820180546106d8906116de565b80601f0160208091040260200160405190810160405280929190818152602001828054610704906116de565b80156107515780601f1061072657610100808354040283529160200191610751565b820191906000526020600020905b81548152906001019060200180831161073457829003601f168201915b505050505081526020016003820160009054906101000a900460ff16600381111561077f5761077e611355565b5b600381111561079157610790611355565b5b81526020016003820160019054906101000a900460ff1660038111156107ba576107b9611355565b5b60038111156107cc576107cb611355565b5b81526020016004820154815250509050806000015181602001518260400151836060015184608001518560a001519650965096509650965096505091939550919395565b6001602052806000526040600020600091509050806000018054610833906116de565b80601f016020809104026020016040519081016040528092919081815260200182805461085f906116de565b80156108ac5780601f10610881576101008083540402835291602001916108ac565b820191906000526020600020905b81548152906001019060200180831161088f57829003601f168201915b5050505050908060010154908060020180546108c7906116de565b80601f01602080910402602001604051908101604052809291908181526020018280546108f3906116de565b80156109405780601f1061091557610100808354040283529160200191610940565b820191906000526020600020905b81548152906001019060200180831161092357829003601f168201915b5050505050908060030160009054906101000a900460ff16908060030160019054906101000a900460ff16908060040154905086565b60006001600381111561098c5761098b611355565b5b82600381111561099f5761099e611355565b5b14806109ce57506003808111156109b9576109b8611355565b5b8260038111156109cc576109cb611355565b5b145b156109dc57600090506109dd565b5b919050565b6109ea610dce565b6109f2610dce565b60005b600054811015610da45760016003811115610a1357610a12611355565b5b60016000600184610a249190611a04565b815260200190815260200160002060030160009054906101000a900460ff166003811115610a5557610a54611355565b5b148015610ab5575060006003811115610a7157610a70611355565b5b60016000600184610a829190611a04565b815260200190815260200160002060030160019054906101000a900460ff166003811115610ab357610ab2611355565b5b145b15610d915760005b6003811015610d8f576000821480610b1d575082600182610ade9190611a04565b60038110610aef57610aee611680565b5b602002015160a0015160016000600185610b099190611a04565b815260200190815260200160002060040154115b15610d7c576000600290505b81811115610b835783600182610b3f9190611a38565b60038110610b5057610b4f611680565b5b6020020151848260038110610b6857610b67611680565b5b60200201819052508080610b7b90611a6c565b915050610b29565b5060016000600184610b959190611a04565b81526020019081526020016000206040518060c0016040529081600082018054610bbe906116de565b80601f0160208091040260200160405190810160405280929190818152602001828054610bea906116de565b8015610c375780601f10610c0c57610100808354040283529160200191610c37565b820191906000526020600020905b815481529060010190602001808311610c1a57829003601f168201915b5050505050815260200160018201548152602001600282018054610c5a906116de565b80601f0160208091040260200160405190810160405280929190818152602001828054610c86906116de565b8015610cd35780601f10610ca857610100808354040283529160200191610cd3565b820191906000526020600020905b815481529060010190602001808311610cb657829003601f168201915b505050505081526020016003820160009054906101000a900460ff166003811115610d0157610d00611355565b5b6003811115610d1357610d12611355565b5b81526020016003820160019054906101000a900460ff166003811115610d3c57610d3b611355565b5b6003811115610d4e57610d4d611355565b5b8152602001600482015481525050838260038110610d6f57610d6e611680565b5b6020020181905250610d8f565b8080610d87906119bc565b915050610abd565b505b8080610d9c906119bc565b9150506109f5565b508091505090565b6040518060800160405280600490602082028036833780820191505090505090565b60405180606001604052806003905b610de5610dfb565b815260200190600190039081610ddd5790505090565b6040518060c0016040528060608152602001600081526020016060815260200160006003811115610e2f57610e2e611355565b5b815260200160006003811115610e4857610e47611355565b5b8152602001600081525090565b600060049050919050565b600081905092915050565b6000819050919050565b6000819050919050565b610e8881610e75565b82525050565b6000610e9a8383610e7f565b60208301905092915050565b6000602082019050919050565b610ebc81610e55565b610ec68184610e60565b9250610ed182610e6b565b8060005b83811015610f02578151610ee98782610e8e565b9650610ef483610ea6565b925050600181019050610ed5565b505050505050565b6000608082019050610f1f6000830184610eb3565b92915050565b610f2e81610e75565b82525050565b6000602082019050610f496000830184610f25565b92915050565b6000604051905090565b600080fd5b600080fd5b60048110610f7057600080fd5b50565b600081359050610f8281610f63565b92915050565b600060208284031215610f9e57610f9d610f59565b5b6000610fac84828501610f73565b91505092915050565b610fbe81610e75565b8114610fc957600080fd5b50565b600081359050610fdb81610fb5565b92915050565b600080fd5b600080fd5b6000601f19601f8301169050919050565b7f4e487b7100000000000000000000000000000000000000000000000000000000600052604160045260246000fd5b61103482610feb565b810181811067ffffffffffffffff8211171561105357611052610ffc565b5b80604052505050565b6000611066610f4f565b9050611072828261102b565b919050565b600067ffffffffffffffff82111561109257611091610ffc565b5b61109b82610feb565b9050602081019050919050565b82818337600083830152505050565b60006110ca6110c584611077565b61105c565b9050828152602081018484840111156110e6576110e5610fe6565b5b6110f18482856110a8565b509392505050565b600082601f83011261110e5761110d610fe1565b5b813561111e8482602086016110b7565b91505092915050565b6004811061113457600080fd5b50565b60008135905061114681611127565b92915050565b6000806000806080858703121561116657611165610f59565b5b600061117487828801610fcc565b945050602085013567ffffffffffffffff81111561119557611194610f5e565b5b6111a1878288016110f9565b93505060406111b287828801610f73565b92505060606111c387828801611137565b91505092959194509250565b600080600080600080600060e0888a0312156111ee576111ed610f59565b5b60006111fc8a828b01610fcc565b975050602088013567ffffffffffffffff81111561121d5761121c610f5e565b5b6112298a828b016110f9565b965050604061123a8a828b01610fcc565b955050606088013567ffffffffffffffff81111561125b5761125a610f5e565b5b6112678a828b016110f9565b94505060806112788a828b01610f73565b93505060a06112898a828b01611137565b92505060c061129a8a828b01610fcc565b91505092959891949750929550565b6000602082840312156112bf576112be610f59565b5b60006112cd84828501610fcc565b91505092915050565b600081519050919050565b600082825260208201905092915050565b60005b838110156113105780820151818401526020810190506112f5565b60008484015250505050565b6000611327826112d6565b61133181856112e1565b93506113418185602086016112f2565b61134a81610feb565b840191505092915050565b7f4e487b7100000000000000000000000000000000000000000000000000000000600052602160045260246000fd5b6004811061139557611394611355565b5b50565b60008190506113a682611384565b919050565b60006113b682611398565b9050919050565b6113c6816113ab565b82525050565b600481106113dd576113dc611355565b5b50565b60008190506113ee826113cc565b919050565b60006113fe826113e0565b9050919050565b61140e816113f3565b82525050565b600060c082019050818103600083015261142e818961131c565b905061143d6020830188610f25565b818103604083015261144f818761131c565b905061145e60608301866113bd565b61146b6080830185611405565b61147860a0830184610f25565b979650505050505050565b60006020828403121561149957611498610f59565b5b60006114a784828501611137565b91505092915050565b600060039050919050565b600081905092915050565b6000819050919050565b600082825260208201905092915050565b60006114ec826112d6565b6114f681856114d0565b93506115068185602086016112f2565b61150f81610feb565b840191505092915050565b611523816113ab565b82525050565b611532816113f3565b82525050565b600060c083016000830151848203600086015261155582826114e1565b915050602083015161156a6020860182610e7f565b506040830151848203604086015261158282826114e1565b9150506060830151611597606086018261151a565b5060808301516115aa6080860182611529565b5060a08301516115bd60a0860182610e7f565b508091505092915050565b60006115d48383611538565b905092915050565b6000602082019050919050565b60006115f4826114b0565b6115fe81856114bb565b935083602082028501611610856114c6565b8060005b8581101561164c578484038952815161162d85826115c8565b9450611638836115dc565b925060208a01995050600181019050611614565b50829750879550505050505092915050565b6000602082019050818103600083015261167881846115e9565b905092915050565b7f4e487b7100000000000000000000000000000000000000000000000000000000600052603260045260246000fd5b7f4e487b7100000000000000000000000000000000000000000000000000000000600052602260045260246000fd5b600060028204905060018216806116f657607f821691505b602082108103611709576117086116af565b5b50919050565b60008190508160005260206000209050919050565b60006020601f8301049050919050565b600082821b905092915050565b6000600883026117717fffffffffffffffffffffffffffffffffffffffffffffffffffffffffffffffff82611734565b61177b8683611734565b95508019841693508086168417925050509392505050565b6000819050919050565b60006117b86117b36117ae84610e75565b611793565b610e75565b9050919050565b6000819050919050565b6117d28361179d565b6117e66117de826117bf565b848454611741565b825550505050565b600090565b6117fb6117ee565b6118068184846117c9565b505050565b5b8181101561182a5761181f6000826117f3565b60018101905061180c565b5050565b601f82111561186f576118408161170f565b61184984611724565b81016020851015611858578190505b61186c61186485611724565b83018261180b565b50505b505050565b600082821c905092915050565b600061189260001984600802611874565b1980831691505092915050565b60006118ab8383611881565b9150826002028217905092915050565b6118c4826112d6565b67ffffffffffffffff8111156118dd576118dc610ffc565b5b6118e782546116de565b6118f282828561182e565b600060209050601f8311600181146119255760008415611913578287015190505b61191d858261189f565b865550611985565b601f1984166119338661170f565b60005b8281101561195b57848901518255600182019150602085019450602081019050611936565b868310156119785784890151611974601f891682611881565b8355505b6001600288020188555050505b505050505050565b7f4e487b7100000000000000000000000000000000000000000000000000000000600052601160045260246000fd5b60006119c782610e75565b91507fffffffffffffffffffffffffffffffffffffffffffffffffffffffffffffffff82036119f9576119f861198d565b5b600182019050919050565b6000611a0f82610e75565b9150611a1a83610e75565b9250828201905080821115611a3257611a3161198d565b5b92915050565b6000611a4382610e75565b9150611a4e83610e75565b9250828203905081811115611a6657611a6561198d565b5b92915050565b6000611a7782610e75565b915060008203611a8a57611a8961198d565b5b60018203905091905056fea2646970667358221220632131720d2164d83525d796846d4427f5fcfa21beff2133f7d4c0458a7b02ba64736f6c63430008120033",
			"opcodes": "PUSH1 0x80 PUSH1 0x40 MSTORE PUSH1 0x0 DUP1 SSTORE CALLVALUE DUP1 ISZERO PUSH2 0x14 JUMPI PUSH1 0x0 DUP1 REVERT JUMPDEST POP PUSH2 0x1ACB DUP1 PUSH2 0x24 PUSH1 0x0 CODECOPY PUSH1 0x0 RETURN INVALID PUSH1 0x80 PUSH1 0x40 MSTORE CALLVALUE DUP1 ISZERO PUSH2 0x10 JUMPI PUSH1 0x0 DUP1 REVERT JUMPDEST POP PUSH1 0x4 CALLDATASIZE LT PUSH2 0x93 JUMPI PUSH1 0x0 CALLDATALOAD PUSH1 0xE0 SHR DUP1 PUSH4 0x6C581256 GT PUSH2 0x66 JUMPI DUP1 PUSH4 0x6C581256 EQ PUSH2 0x120 JUMPI DUP1 PUSH4 0x8F88708B EQ PUSH2 0x13C JUMPI DUP1 PUSH4 0xCEEA3C78 EQ PUSH2 0x171 JUMPI DUP1 PUSH4 0xD6D9A024 EQ PUSH2 0x1A6 JUMPI DUP1 PUSH4 0xDF93D8F0 EQ PUSH2 0x1D6 JUMPI PUSH2 0x93 JUMP JUMPDEST DUP1 PUSH4 0xE0196A8 EQ PUSH2 0x98 JUMPI DUP1 PUSH4 0x2DDBD13A EQ PUSH2 0xB6 JUMPI DUP1 PUSH4 0x3A82FD5E EQ PUSH2 0xD4 JUMPI DUP1 PUSH4 0x3E713726 EQ PUSH2 0x104 JUMPI JUMPDEST PUSH1 0x0 DUP1 REVERT JUMPDEST PUSH2 0xA0 PUSH2 0x1F4 JUMP JUMPDEST PUSH1 0x40 MLOAD PUSH2 0xAD SWAP2 SWAP1 PUSH2 0xF0A JUMP JUMPDEST PUSH1 0x40 MLOAD DUP1 SWAP2 SUB SWAP1 RETURN JUMPDEST PUSH2 0xBE PUSH2 0x39C JUMP JUMPDEST PUSH1 0x40 MLOAD PUSH2 0xCB SWAP2 SWAP1 PUSH2 0xF34 JUMP JUMPDEST PUSH1 0x40 MLOAD DUP1 SWAP2 SUB SWAP1 RETURN JUMPDEST PUSH2 0xEE PUSH1 0x4 DUP1 CALLDATASIZE SUB DUP2 ADD SWAP1 PUSH2 0xE9 SWAP2 SWAP1 PUSH2 0xF88 JUMP JUMPDEST PUSH2 0x3A2 JUMP JUMPDEST PUSH1 0x40 MLOAD PUSH2 0xFB SWAP2 SWAP1 PUSH2 0xF34 JUMP JUMPDEST PUSH1 0x40 MLOAD DUP1 SWAP2 SUB SWAP1 RETURN JUMPDEST PUSH2 0x11E PUSH1 0x4 DUP1 CALLDATASIZE SUB DUP2 ADD SWAP1 PUSH2 0x119 SWAP2 SWAP1 PUSH2 0x114C JUMP JUMPDEST PUSH2 0x3BA JUMP JUMPDEST STOP JUMPDEST PUSH2 0x13A PUSH1 0x4 DUP1 CALLDATASIZE SUB DUP2 ADD SWAP1 PUSH2 0x135 SWAP2 SWAP1 PUSH2 0x11CF JUMP JUMPDEST PUSH2 0x483 JUMP JUMPDEST STOP JUMPDEST PUSH2 0x156 PUSH1 0x4 DUP1 CALLDATASIZE SUB DUP2 ADD SWAP1 PUSH2 0x151 SWAP2 SWAP1 PUSH2 0x12A9 JUMP JUMPDEST PUSH2 0x602 JUMP JUMPDEST PUSH1 0x40 MLOAD PUSH2 0x168 SWAP7 SWAP6 SWAP5 SWAP4 SWAP3 SWAP2 SWAP1 PUSH2 0x1414 JUMP JUMPDEST PUSH1 0x40 MLOAD DUP1 SWAP2 SUB SWAP1 RETURN JUMPDEST PUSH2 0x18B PUSH1 0x4 DUP1 CALLDATASIZE SUB DUP2 ADD SWAP1 PUSH2 0x186 SWAP2 SWAP1 PUSH2 0x12A9 JUMP JUMPDEST PUSH2 0x810 JUMP JUMPDEST PUSH1 0x40 MLOAD PUSH2 0x19D SWAP7 SWAP6 SWAP5 SWAP4 SWAP3 SWAP2 SWAP1 PUSH2 0x1414 JUMP JUMPDEST PUSH1 0x40 MLOAD DUP1 SWAP2 SUB SWAP1 RETURN JUMPDEST PUSH2 0x1C0 PUSH1 0x4 DUP1 CALLDATASIZE SUB DUP2 ADD SWAP1 PUSH2 0x1BB SWAP2 SWAP1 PUSH2 0x1483 JUMP JUMPDEST PUSH2 0x976 JUMP JUMPDEST PUSH1 0x40 MLOAD PUSH2 0x1CD SWAP2 SWAP1 PUSH2 0xF34 JUMP JUMPDEST PUSH1 0x40 MLOAD DUP1 SWAP2 SUB SWAP1 RETURN JUMPDEST PUSH2 0x1DE PUSH2 0x9E2 JUMP JUMPDEST PUSH1 0x40 MLOAD PUSH2 0x1EB SWAP2 SWAP1 PUSH2 0x165E JUMP JUMPDEST PUSH1 0x40 MLOAD DUP1 SWAP2 SUB SWAP1 RETURN JUMPDEST PUSH2 0x1FC PUSH2 0xDAC JUMP JUMPDEST PUSH1 0x2 PUSH1 0x0 DUP1 PUSH1 0x3 DUP2 GT ISZERO PUSH2 0x213 JUMPI PUSH2 0x212 PUSH2 0x1355 JUMP JUMPDEST JUMPDEST PUSH1 0x3 DUP2 GT ISZERO PUSH2 0x225 JUMPI PUSH2 0x224 PUSH2 0x1355 JUMP JUMPDEST JUMPDEST DUP2 MSTORE PUSH1 0x20 ADD SWAP1 DUP2 MSTORE PUSH1 0x20 ADD PUSH1 0x0 KECCAK256 SLOAD DUP2 PUSH1 0x0 PUSH1 0x3 DUP2 GT ISZERO PUSH2 0x249 JUMPI PUSH2 0x248 PUSH2 0x1355 JUMP JUMPDEST JUMPDEST PUSH1 0x4 DUP2 LT PUSH2 0x25A JUMPI PUSH2 0x259 PUSH2 0x1680 JUMP JUMPDEST JUMPDEST PUSH1 0x20 MUL ADD DUP2 DUP2 MSTORE POP POP PUSH1 0x2 PUSH1 0x0 PUSH1 0x1 PUSH1 0x3 DUP2 GT ISZERO PUSH2 0x27B JUMPI PUSH2 0x27A PUSH2 0x1355 JUMP JUMPDEST JUMPDEST PUSH1 0x3 DUP2 GT ISZERO PUSH2 0x28D JUMPI PUSH2 0x28C PUSH2 0x1355 JUMP JUMPDEST JUMPDEST DUP2 MSTORE PUSH1 0x20 ADD SWAP1 DUP2 MSTORE PUSH1 0x20 ADD PUSH1 0x0 KECCAK256 SLOAD DUP2 PUSH1 0x1 PUSH1 0x3 DUP2 GT ISZERO PUSH2 0x2B1 JUMPI PUSH2 0x2B0 PUSH2 0x1355 JUMP JUMPDEST JUMPDEST PUSH1 0x4 DUP2 LT PUSH2 0x2C2 JUMPI PUSH2 0x2C1 PUSH2 0x1680 JUMP JUMPDEST JUMPDEST PUSH1 0x20 MUL ADD DUP2 DUP2 MSTORE POP POP PUSH1 0x2 PUSH1 0x0 PUSH1 0x2 PUSH1 0x3 DUP2 GT ISZERO PUSH2 0x2E3 JUMPI PUSH2 0x2E2 PUSH2 0x1355 JUMP JUMPDEST JUMPDEST PUSH1 0x3 DUP2 GT ISZERO PUSH2 0x2F5 JUMPI PUSH2 0x2F4 PUSH2 0x1355 JUMP JUMPDEST JUMPDEST DUP2 MSTORE PUSH1 0x20 ADD SWAP1 DUP2 MSTORE PUSH1 0x20 ADD PUSH1 0x0 KECCAK256 SLOAD DUP2 PUSH1 0x2 PUSH1 0x3 DUP2 GT ISZERO PUSH2 0x319 JUMPI PUSH2 0x318 PUSH2 0x1355 JUMP JUMPDEST JUMPDEST PUSH1 0x4 DUP2 LT PUSH2 0x32A JUMPI PUSH2 0x329 PUSH2 0x1680 JUMP JUMPDEST JUMPDEST PUSH1 0x20 MUL ADD DUP2 DUP2 MSTORE POP POP PUSH1 0x2 PUSH1 0x0 PUSH1 0x3 DUP1 DUP2 GT ISZERO PUSH2 0x34A JUMPI PUSH2 0x349 PUSH2 0x1355 JUMP JUMPDEST JUMPDEST PUSH1 0x3 DUP2 GT ISZERO PUSH2 0x35C JUMPI PUSH2 0x35B PUSH2 0x1355 JUMP JUMPDEST JUMPDEST DUP2 MSTORE PUSH1 0x20 ADD SWAP1 DUP2 MSTORE PUSH1 0x20 ADD PUSH1 0x0 KECCAK256 SLOAD DUP2 PUSH1 0x3 DUP1 DUP2 GT ISZERO PUSH2 0x37F JUMPI PUSH2 0x37E PUSH2 0x1355 JUMP JUMPDEST JUMPDEST PUSH1 0x4 DUP2 LT PUSH2 0x390 JUMPI PUSH2 0x38F PUSH2 0x1680 JUMP JUMPDEST JUMPDEST PUSH1 0x20 MUL ADD DUP2 DUP2 MSTORE POP POP SWAP1 JUMP JUMPDEST PUSH1 0x0 SLOAD DUP2 JUMP JUMPDEST PUSH1 0x2 PUSH1 0x20 MSTORE DUP1 PUSH1 0x0 MSTORE PUSH1 0x40 PUSH1 0x0 KECCAK256 PUSH1 0x0 SWAP2 POP SWAP1 POP SLOAD DUP2 JUMP JUMPDEST DUP3 PUSH1 0x1 PUSH1 0x0 DUP7 DUP2 MSTORE PUSH1 0x20 ADD SWAP1 DUP2 MSTORE PUSH1 0x20 ADD PUSH1 0x0 KECCAK256 PUSH1 0x0 ADD SWAP1 DUP2 PUSH2 0x3DD SWAP2 SWAP1 PUSH2 0x18BB JUMP JUMPDEST POP DUP2 PUSH1 0x1 PUSH1 0x0 DUP7 DUP2 MSTORE PUSH1 0x20 ADD SWAP1 DUP2 MSTORE PUSH1 0x20 ADD PUSH1 0x0 KECCAK256 PUSH1 0x3 ADD PUSH1 0x0 PUSH2 0x100 EXP DUP2 SLOAD DUP2 PUSH1 0xFF MUL NOT AND SWAP1 DUP4 PUSH1 0x3 DUP2 GT ISZERO PUSH2 0x417 JUMPI PUSH2 0x416 PUSH2 0x1355 JUMP JUMPDEST JUMPDEST MUL OR SWAP1 SSTORE POP DUP1 PUSH1 0x1 PUSH1 0x0 DUP7 DUP2 MSTORE PUSH1 0x20 ADD SWAP1 DUP2 MSTORE PUSH1 0x20 ADD PUSH1 0x0 KECCAK256 PUSH1 0x3 ADD PUSH1 0x1 PUSH2 0x100 EXP DUP2 SLOAD DUP2 PUSH1 0xFF MUL NOT AND SWAP1 DUP4 PUSH1 0x3 DUP2 GT ISZERO PUSH2 0x455 JUMPI PUSH2 0x454 PUSH2 0x1355 JUMP JUMPDEST JUMPDEST MUL OR SWAP1 SSTORE POP PUSH2 0x463 DUP2 PUSH2 0x976 JUMP JUMPDEST PUSH1 0x1 PUSH1 0x0 DUP7 DUP2 MSTORE PUSH1 0x20 ADD SWAP1 DUP2 MSTORE PUSH1 0x20 ADD PUSH1 0x0 KECCAK256 PUSH1 0x4 ADD DUP2 SWAP1 SSTORE POP POP POP POP POP JUMP JUMPDEST PUSH2 0x48C DUP3 PUSH2 0x976 JUMP JUMPDEST SWAP1 POP PUSH1 0x40 MLOAD DUP1 PUSH1 0xC0 ADD PUSH1 0x40 MSTORE DUP1 DUP8 DUP2 MSTORE PUSH1 0x20 ADD DUP7 DUP2 MSTORE PUSH1 0x20 ADD DUP6 DUP2 MSTORE PUSH1 0x20 ADD DUP5 PUSH1 0x3 DUP2 GT ISZERO PUSH2 0x4BE JUMPI PUSH2 0x4BD PUSH2 0x1355 JUMP JUMPDEST JUMPDEST DUP2 MSTORE PUSH1 0x20 ADD DUP4 PUSH1 0x3 DUP2 GT ISZERO PUSH2 0x4D6 JUMPI PUSH2 0x4D5 PUSH2 0x1355 JUMP JUMPDEST JUMPDEST DUP2 MSTORE PUSH1 0x20 ADD DUP3 DUP2 MSTORE POP PUSH1 0x1 PUSH1 0x0 DUP10 DUP2 MSTORE PUSH1 0x20 ADD SWAP1 DUP2 MSTORE PUSH1 0x20 ADD PUSH1 0x0 KECCAK256 PUSH1 0x0 DUP3 ADD MLOAD DUP2 PUSH1 0x0 ADD SWAP1 DUP2 PUSH2 0x507 SWAP2 SWAP1 PUSH2 0x18BB JUMP JUMPDEST POP PUSH1 0x20 DUP3 ADD MLOAD DUP2 PUSH1 0x1 ADD SSTORE PUSH1 0x40 DUP3 ADD MLOAD DUP2 PUSH1 0x2 ADD SWAP1 DUP2 PUSH2 0x527 SWAP2 SWAP1 PUSH2 0x18BB JUMP JUMPDEST POP PUSH1 0x60 DUP3 ADD MLOAD DUP2 PUSH1 0x3 ADD PUSH1 0x0 PUSH2 0x100 EXP DUP2 SLOAD DUP2 PUSH1 0xFF MUL NOT AND SWAP1 DUP4 PUSH1 0x3 DUP2 GT ISZERO PUSH2 0x553 JUMPI PUSH2 0x552 PUSH2 0x1355 JUMP JUMPDEST JUMPDEST MUL OR SWAP1 SSTORE POP PUSH1 0x80 DUP3 ADD MLOAD DUP2 PUSH1 0x3 ADD PUSH1 0x1 PUSH2 0x100 EXP DUP2 SLOAD DUP2 PUSH1 0xFF MUL NOT AND SWAP1 DUP4 PUSH1 0x3 DUP2 GT ISZERO PUSH2 0x583 JUMPI PUSH2 0x582 PUSH2 0x1355 JUMP JUMPDEST JUMPDEST MUL OR SWAP1 SSTORE POP PUSH1 0xA0 DUP3 ADD MLOAD DUP2 PUSH1 0x4 ADD SSTORE SWAP1 POP POP PUSH1 0x2 PUSH1 0x0 DUP5 PUSH1 0x3 DUP2 GT ISZERO PUSH2 0x5AC JUMPI PUSH2 0x5AB PUSH2 0x1355 JUMP JUMPDEST JUMPDEST PUSH1 0x3 DUP2 GT ISZERO PUSH2 0x5BE JUMPI PUSH2 0x5BD PUSH2 0x1355 JUMP JUMPDEST JUMPDEST DUP2 MSTORE PUSH1 0x20 ADD SWAP1 DUP2 MSTORE PUSH1 0x20 ADD PUSH1 0x0 KECCAK256 PUSH1 0x0 DUP2 SLOAD DUP1 SWAP3 SWAP2 SWAP1 PUSH2 0x5DD SWAP1 PUSH2 0x19BC JUMP JUMPDEST SWAP2 SWAP1 POP SSTORE POP PUSH1 0x0 DUP1 DUP2 SLOAD DUP1 SWAP3 SWAP2 SWAP1 PUSH2 0x5F4 SWAP1 PUSH2 0x19BC JUMP JUMPDEST SWAP2 SWAP1 POP SSTORE POP POP POP POP POP POP POP POP JUMP JUMPDEST PUSH1 0x60 PUSH1 0x0 PUSH1 0x60 PUSH1 0x0 DUP1 PUSH1 0x0 DUP1 PUSH1 0x1 PUSH1 0x0 DUP10 DUP2 MSTORE PUSH1 0x20 ADD SWAP1 DUP2 MSTORE PUSH1 0x20 ADD PUSH1 0x0 KECCAK256 PUSH1 0x40 MLOAD DUP1 PUSH1 0xC0 ADD PUSH1 0x40 MSTORE SWAP1 DUP2 PUSH1 0x0 DUP3 ADD DUP1 SLOAD PUSH2 0x63C SWAP1 PUSH2 0x16DE JUMP JUMPDEST DUP1 PUSH1 0x1F ADD PUSH1 0x20 DUP1 SWAP2 DIV MUL PUSH1 0x20 ADD PUSH1 0x40 MLOAD SWAP1 DUP2 ADD PUSH1 0x40 MSTORE DUP1 SWAP3 SWAP2 SWAP1 DUP2 DUP2 MSTORE PUSH1 0x20 ADD DUP3 DUP1 SLOAD PUSH2 0x668 SWAP1 PUSH2 0x16DE JUMP JUMPDEST DUP1 ISZERO PUSH2 0x6B5 JUMPI DUP1 PUSH1 0x1F LT PUSH2 0x68A JUMPI PUSH2 0x100 DUP1 DUP4 SLOAD DIV MUL DUP4 MSTORE SWAP2 PUSH1 0x20 ADD SWAP2 PUSH2 0x6B5 JUMP JUMPDEST DUP3 ADD SWAP2 SWAP1 PUSH1 0x0 MSTORE PUSH1 0x20 PUSH1 0x0 KECCAK256 SWAP1 JUMPDEST DUP2 SLOAD DUP2 MSTORE SWAP1 PUSH1 0x1 ADD SWAP1 PUSH1 0x20 ADD DUP1 DUP4 GT PUSH2 0x698 JUMPI DUP3 SWAP1 SUB PUSH1 0x1F AND DUP3 ADD SWAP2 JUMPDEST POP POP POP POP POP DUP2 MSTORE PUSH1 0x20 ADD PUSH1 0x1 DUP3 ADD SLOAD DUP2 MSTORE PUSH1 0x20 ADD PUSH1 0x2 DUP3 ADD DUP1 SLOAD PUSH2 0x6D8 SWAP1 PUSH2 0x16DE JUMP JUMPDEST DUP1 PUSH1 0x1F ADD PUSH1 0x20 DUP1 SWAP2 DIV MUL PUSH1 0x20 ADD PUSH1 0x40 MLOAD SWAP1 DUP2 ADD PUSH1 0x40 MSTORE DUP1 SWAP3 SWAP2 SWAP1 DUP2 DUP2 MSTORE PUSH1 0x20 ADD DUP3 DUP1 SLOAD PUSH2 0x704 SWAP1 PUSH2 0x16DE JUMP JUMPDEST DUP1 ISZERO PUSH2 0x751 JUMPI DUP1 PUSH1 0x1F LT PUSH2 0x726 JUMPI PUSH2 0x100 DUP1 DUP4 SLOAD DIV MUL DUP4 MSTORE SWAP2 PUSH1 0x20 ADD SWAP2 PUSH2 0x751 JUMP JUMPDEST DUP3 ADD SWAP2 SWAP1 PUSH1 0x0 MSTORE PUSH1 0x20 PUSH1 0x0 KECCAK256 SWAP1 JUMPDEST DUP2 SLOAD DUP2 MSTORE SWAP1 PUSH1 0x1 ADD SWAP1 PUSH1 0x20 ADD DUP1 DUP4 GT PUSH2 0x734 JUMPI DUP3 SWAP1 SUB PUSH1 0x1F AND DUP3 ADD SWAP2 JUMPDEST POP POP POP POP POP DUP2 MSTORE PUSH1 0x20 ADD PUSH1 0x3 DUP3 ADD PUSH1 0x0 SWAP1 SLOAD SWAP1 PUSH2 0x100 EXP SWAP1 DIV PUSH1 0xFF AND PUSH1 0x3 DUP2 GT ISZERO PUSH2 0x77F JUMPI PUSH2 0x77E PUSH2 0x1355 JUMP JUMPDEST JUMPDEST PUSH1 0x3 DUP2 GT ISZERO PUSH2 0x791 JUMPI PUSH2 0x790 PUSH2 0x1355 JUMP JUMPDEST JUMPDEST DUP2 MSTORE PUSH1 0x20 ADD PUSH1 0x3 DUP3 ADD PUSH1 0x1 SWAP1 SLOAD SWAP1 PUSH2 0x100 EXP SWAP1 DIV PUSH1 0xFF AND PUSH1 0x3 DUP2 GT ISZERO PUSH2 0x7BA JUMPI PUSH2 0x7B9 PUSH2 0x1355 JUMP JUMPDEST JUMPDEST PUSH1 0x3 DUP2 GT ISZERO PUSH2 0x7CC JUMPI PUSH2 0x7CB PUSH2 0x1355 JUMP JUMPDEST JUMPDEST DUP2 MSTORE PUSH1 0x20 ADD PUSH1 0x4 DUP3 ADD SLOAD DUP2 MSTORE POP POP SWAP1 POP DUP1 PUSH1 0x0 ADD MLOAD DUP2 PUSH1 0x20 ADD MLOAD DUP3 PUSH1 0x40 ADD MLOAD DUP4 PUSH1 0x60 ADD MLOAD DUP5 PUSH1 0x80 ADD MLOAD DUP6 PUSH1 0xA0 ADD MLOAD SWAP7 POP SWAP7 POP SWAP7 POP SWAP7 POP SWAP7 POP SWAP7 POP POP SWAP2 SWAP4 SWAP6 POP SWAP2 SWAP4 SWAP6 JUMP JUMPDEST PUSH1 0x1 PUSH1 0x20 MSTORE DUP1 PUSH1 0x0 MSTORE PUSH1 0x40 PUSH1 0x0 KECCAK256 PUSH1 0x0 SWAP2 POP SWAP1 POP DUP1 PUSH1 0x0 ADD DUP1 SLOAD PUSH2 0x833 SWAP1 PUSH2 0x16DE JUMP JUMPDEST DUP1 PUSH1 0x1F ADD PUSH1 0x20 DUP1 SWAP2 DIV MUL PUSH1 0x20 ADD PUSH1 0x40 MLOAD SWAP1 DUP2 ADD PUSH1 0x40 MSTORE DUP1 SWAP3 SWAP2 SWAP1 DUP2 DUP2 MSTORE PUSH1 0x20 ADD DUP3 DUP1 SLOAD PUSH2 0x85F SWAP1 PUSH2 0x16DE JUMP JUMPDEST DUP1 ISZERO PUSH2 0x8AC JUMPI DUP1 PUSH1 0x1F LT PUSH2 0x881 JUMPI PUSH2 0x100 DUP1 DUP4 SLOAD DIV MUL DUP4 MSTORE SWAP2 PUSH1 0x20 ADD SWAP2 PUSH2 0x8AC JUMP JUMPDEST DUP3 ADD SWAP2 SWAP1 PUSH1 0x0 MSTORE PUSH1 0x20 PUSH1 0x0 KECCAK256 SWAP1 JUMPDEST DUP2 SLOAD DUP2 MSTORE SWAP1 PUSH1 0x1 ADD SWAP1 PUSH1 0x20 ADD DUP1 DUP4 GT PUSH2 0x88F JUMPI DUP3 SWAP1 SUB PUSH1 0x1F AND DUP3 ADD SWAP2 JUMPDEST POP POP POP POP POP SWAP1 DUP1 PUSH1 0x1 ADD SLOAD SWAP1 DUP1 PUSH1 0x2 ADD DUP1 SLOAD PUSH2 0x8C7 SWAP1 PUSH2 0x16DE JUMP JUMPDEST DUP1 PUSH1 0x1F ADD PUSH1 0x20 DUP1 SWAP2 DIV MUL PUSH1 0x20 ADD PUSH1 0x40 MLOAD SWAP1 DUP2 ADD PUSH1 0x40 MSTORE DUP1 SWAP3 SWAP2 SWAP1 DUP2 DUP2 MSTORE PUSH1 0x20 ADD DUP3 DUP1 SLOAD PUSH2 0x8F3 SWAP1 PUSH2 0x16DE JUMP JUMPDEST DUP1 ISZERO PUSH2 0x940 JUMPI DUP1 PUSH1 0x1F LT PUSH2 0x915 JUMPI PUSH2 0x100 DUP1 DUP4 SLOAD DIV MUL DUP4 MSTORE SWAP2 PUSH1 0x20 ADD SWAP2 PUSH2 0x940 JUMP JUMPDEST DUP3 ADD SWAP2 SWAP1 PUSH1 0x0 MSTORE PUSH1 0x20 PUSH1 0x0 KECCAK256 SWAP1 JUMPDEST DUP2 SLOAD DUP2 MSTORE SWAP1 PUSH1 0x1 ADD SWAP1 PUSH1 0x20 ADD DUP1 DUP4 GT PUSH2 0x923 JUMPI DUP3 SWAP1 SUB PUSH1 0x1F AND DUP3 ADD SWAP2 JUMPDEST POP POP POP POP POP SWAP1 DUP1 PUSH1 0x3 ADD PUSH1 0x0 SWAP1 SLOAD SWAP1 PUSH2 0x100 EXP SWAP1 DIV PUSH1 0xFF AND SWAP1 DUP1 PUSH1 0x3 ADD PUSH1 0x1 SWAP1 SLOAD SWAP1 PUSH2 0x100 EXP SWAP1 DIV PUSH1 0xFF AND SWAP1 DUP1 PUSH1 0x4 ADD SLOAD SWAP1 POP DUP7 JUMP JUMPDEST PUSH1 0x0 PUSH1 0x1 PUSH1 0x3 DUP2 GT ISZERO PUSH2 0x98C JUMPI PUSH2 0x98B PUSH2 0x1355 JUMP JUMPDEST JUMPDEST DUP3 PUSH1 0x3 DUP2 GT ISZERO PUSH2 0x99F JUMPI PUSH2 0x99E PUSH2 0x1355 JUMP JUMPDEST JUMPDEST EQ DUP1 PUSH2 0x9CE JUMPI POP PUSH1 0x3 DUP1 DUP2 GT ISZERO PUSH2 0x9B9 JUMPI PUSH2 0x9B8 PUSH2 0x1355 JUMP JUMPDEST JUMPDEST DUP3 PUSH1 0x3 DUP2 GT ISZERO PUSH2 0x9CC JUMPI PUSH2 0x9CB PUSH2 0x1355 JUMP JUMPDEST JUMPDEST EQ JUMPDEST ISZERO PUSH2 0x9DC JUMPI PUSH1 0x0 SWAP1 POP PUSH2 0x9DD JUMP JUMPDEST JUMPDEST SWAP2 SWAP1 POP JUMP JUMPDEST PUSH2 0x9EA PUSH2 0xDCE JUMP JUMPDEST PUSH2 0x9F2 PUSH2 0xDCE JUMP JUMPDEST PUSH1 0x0 JUMPDEST PUSH1 0x0 SLOAD DUP2 LT ISZERO PUSH2 0xDA4 JUMPI PUSH1 0x1 PUSH1 0x3 DUP2 GT ISZERO PUSH2 0xA13 JUMPI PUSH2 0xA12 PUSH2 0x1355 JUMP JUMPDEST JUMPDEST PUSH1 0x1 PUSH1 0x0 PUSH1 0x1 DUP5 PUSH2 0xA24 SWAP2 SWAP1 PUSH2 0x1A04 JUMP JUMPDEST DUP2 MSTORE PUSH1 0x20 ADD SWAP1 DUP2 MSTORE PUSH1 0x20 ADD PUSH1 0x0 KECCAK256 PUSH1 0x3 ADD PUSH1 0x0 SWAP1 SLOAD SWAP1 PUSH2 0x100 EXP SWAP1 DIV PUSH1 0xFF AND PUSH1 0x3 DUP2 GT ISZERO PUSH2 0xA55 JUMPI PUSH2 0xA54 PUSH2 0x1355 JUMP JUMPDEST JUMPDEST EQ DUP1 ISZERO PUSH2 0xAB5 JUMPI POP PUSH1 0x0 PUSH1 0x3 DUP2 GT ISZERO PUSH2 0xA71 JUMPI PUSH2 0xA70 PUSH2 0x1355 JUMP JUMPDEST JUMPDEST PUSH1 0x1 PUSH1 0x0 PUSH1 0x1 DUP5 PUSH2 0xA82 SWAP2 SWAP1 PUSH2 0x1A04 JUMP JUMPDEST DUP2 MSTORE PUSH1 0x20 ADD SWAP1 DUP2 MSTORE PUSH1 0x20 ADD PUSH1 0x0 KECCAK256 PUSH1 0x3 ADD PUSH1 0x1 SWAP1 SLOAD SWAP1 PUSH2 0x100 EXP SWAP1 DIV PUSH1 0xFF AND PUSH1 0x3 DUP2 GT ISZERO PUSH2 0xAB3 JUMPI PUSH2 0xAB2 PUSH2 0x1355 JUMP JUMPDEST JUMPDEST EQ JUMPDEST ISZERO PUSH2 0xD91 JUMPI PUSH1 0x0 JUMPDEST PUSH1 0x3 DUP2 LT ISZERO PUSH2 0xD8F JUMPI PUSH1 0x0 DUP3 EQ DUP1 PUSH2 0xB1D JUMPI POP DUP3 PUSH1 0x1 DUP3 PUSH2 0xADE SWAP2 SWAP1 PUSH2 0x1A04 JUMP JUMPDEST PUSH1 0x3 DUP2 LT PUSH2 0xAEF JUMPI PUSH2 0xAEE PUSH2 0x1680 JUMP JUMPDEST JUMPDEST PUSH1 0x20 MUL ADD MLOAD PUSH1 0xA0 ADD MLOAD PUSH1 0x1 PUSH1 0x0 PUSH1 0x1 DUP6 PUSH2 0xB09 SWAP2 SWAP1 PUSH2 0x1A04 JUMP JUMPDEST DUP2 MSTORE PUSH1 0x20 ADD SWAP1 DUP2 MSTORE PUSH1 0x20 ADD PUSH1 0x0 KECCAK256 PUSH1 0x4 ADD SLOAD GT JUMPDEST ISZERO PUSH2 0xD7C JUMPI PUSH1 0x0 PUSH1 0x2 SWAP1 POP JUMPDEST DUP2 DUP2 GT ISZERO PUSH2 0xB83 JUMPI DUP4 PUSH1 0x1 DUP3 PUSH2 0xB3F SWAP2 SWAP1 PUSH2 0x1A38 JUMP JUMPDEST PUSH1 0x3 DUP2 LT PUSH2 0xB50 JUMPI PUSH2 0xB4F PUSH2 0x1680 JUMP JUMPDEST JUMPDEST PUSH1 0x20 MUL ADD MLOAD DUP5 DUP3 PUSH1 0x3 DUP2 LT PUSH2 0xB68 JUMPI PUSH2 0xB67 PUSH2 0x1680 JUMP JUMPDEST JUMPDEST PUSH1 0x20 MUL ADD DUP2 SWAP1 MSTORE POP DUP1 DUP1 PUSH2 0xB7B SWAP1 PUSH2 0x1A6C JUMP JUMPDEST SWAP2 POP POP PUSH2 0xB29 JUMP JUMPDEST POP PUSH1 0x1 PUSH1 0x0 PUSH1 0x1 DUP5 PUSH2 0xB95 SWAP2 SWAP1 PUSH2 0x1A04 JUMP JUMPDEST DUP2 MSTORE PUSH1 0x20 ADD SWAP1 DUP2 MSTORE PUSH1 0x20 ADD PUSH1 0x0 KECCAK256 PUSH1 0x40 MLOAD DUP1 PUSH1 0xC0 ADD PUSH1 0x40 MSTORE SWAP1 DUP2 PUSH1 0x0 DUP3 ADD DUP1 SLOAD PUSH2 0xBBE SWAP1 PUSH2 0x16DE JUMP JUMPDEST DUP1 PUSH1 0x1F ADD PUSH1 0x20 DUP1 SWAP2 DIV MUL PUSH1 0x20 ADD PUSH1 0x40 MLOAD SWAP1 DUP2 ADD PUSH1 0x40 MSTORE DUP1 SWAP3 SWAP2 SWAP1 DUP2 DUP2 MSTORE PUSH1 0x20 ADD DUP3 DUP1 SLOAD PUSH2 0xBEA SWAP1 PUSH2 0x16DE JUMP JUMPDEST DUP1 ISZERO PUSH2 0xC37 JUMPI DUP1 PUSH1 0x1F LT PUSH2 0xC0C JUMPI PUSH2 0x100 DUP1 DUP4 SLOAD DIV MUL DUP4 MSTORE SWAP2 PUSH1 0x20 ADD SWAP2 PUSH2 0xC37 JUMP JUMPDEST DUP3 ADD SWAP2 SWAP1 PUSH1 0x0 MSTORE PUSH1 0x20 PUSH1 0x0 KECCAK256 SWAP1 JUMPDEST DUP2 SLOAD DUP2 MSTORE SWAP1 PUSH1 0x1 ADD SWAP1 PUSH1 0x20 ADD DUP1 DUP4 GT PUSH2 0xC1A JUMPI DUP3 SWAP1 SUB PUSH1 0x1F AND DUP3 ADD SWAP2 JUMPDEST POP POP POP POP POP DUP2 MSTORE PUSH1 0x20 ADD PUSH1 0x1 DUP3 ADD SLOAD DUP2 MSTORE PUSH1 0x20 ADD PUSH1 0x2 DUP3 ADD DUP1 SLOAD PUSH2 0xC5A SWAP1 PUSH2 0x16DE JUMP JUMPDEST DUP1 PUSH1 0x1F ADD PUSH1 0x20 DUP1 SWAP2 DIV MUL PUSH1 0x20 ADD PUSH1 0x40 MLOAD SWAP1 DUP2 ADD PUSH1 0x40 MSTORE DUP1 SWAP3 SWAP2 SWAP1 DUP2 DUP2 MSTORE PUSH1 0x20 ADD DUP3 DUP1 SLOAD PUSH2 0xC86 SWAP1 PUSH2 0x16DE JUMP JUMPDEST DUP1 ISZERO PUSH2 0xCD3 JUMPI DUP1 PUSH1 0x1F LT PUSH2 0xCA8 JUMPI PUSH2 0x100 DUP1 DUP4 SLOAD DIV MUL DUP4 MSTORE SWAP2 PUSH1 0x20 ADD SWAP2 PUSH2 0xCD3 JUMP JUMPDEST DUP3 ADD SWAP2 SWAP1 PUSH1 0x0 MSTORE PUSH1 0x20 PUSH1 0x0 KECCAK256 SWAP1 JUMPDEST DUP2 SLOAD DUP2 MSTORE SWAP1 PUSH1 0x1 ADD SWAP1 PUSH1 0x20 ADD DUP1 DUP4 GT PUSH2 0xCB6 JUMPI DUP3 SWAP1 SUB PUSH1 0x1F AND DUP3 ADD SWAP2 JUMPDEST POP POP POP POP POP DUP2 MSTORE PUSH1 0x20 ADD PUSH1 0x3 DUP3 ADD PUSH1 0x0 SWAP1 SLOAD SWAP1 PUSH2 0x100 EXP SWAP1 DIV PUSH1 0xFF AND PUSH1 0x3 DUP2 GT ISZERO PUSH2 0xD01 JUMPI PUSH2 0xD00 PUSH2 0x1355 JUMP JUMPDEST JUMPDEST PUSH1 0x3 DUP2 GT ISZERO PUSH2 0xD13 JUMPI PUSH2 0xD12 PUSH2 0x1355 JUMP JUMPDEST JUMPDEST DUP2 MSTORE PUSH1 0x20 ADD PUSH1 0x3 DUP3 ADD PUSH1 0x1 SWAP1 SLOAD SWAP1 PUSH2 0x100 EXP SWAP1 DIV PUSH1 0xFF AND PUSH1 0x3 DUP2 GT ISZERO PUSH2 0xD3C JUMPI PUSH2 0xD3B PUSH2 0x1355 JUMP JUMPDEST JUMPDEST PUSH1 0x3 DUP2 GT ISZERO PUSH2 0xD4E JUMPI PUSH2 0xD4D PUSH2 0x1355 JUMP JUMPDEST JUMPDEST DUP2 MSTORE PUSH1 0x20 ADD PUSH1 0x4 DUP3 ADD SLOAD DUP2 MSTORE POP POP DUP4 DUP3 PUSH1 0x3 DUP2 LT PUSH2 0xD6F JUMPI PUSH2 0xD6E PUSH2 0x1680 JUMP JUMPDEST JUMPDEST PUSH1 0x20 MUL ADD DUP2 SWAP1 MSTORE POP PUSH2 0xD8F JUMP JUMPDEST DUP1 DUP1 PUSH2 0xD87 SWAP1 PUSH2 0x19BC JUMP JUMPDEST SWAP2 POP POP PUSH2 0xABD JUMP JUMPDEST POP JUMPDEST DUP1 DUP1 PUSH2 0xD9C SWAP1 PUSH2 0x19BC JUMP JUMPDEST SWAP2 POP POP PUSH2 0x9F5 JUMP JUMPDEST POP DUP1 SWAP2 POP POP SWAP1 JUMP JUMPDEST PUSH1 0x40 MLOAD DUP1 PUSH1 0x80 ADD PUSH1 0x40 MSTORE DUP1 PUSH1 0x4 SWAP1 PUSH1 0x20 DUP3 MUL DUP1 CALLDATASIZE DUP4 CALLDATACOPY DUP1 DUP3 ADD SWAP2 POP POP SWAP1 POP POP SWAP1 JUMP JUMPDEST PUSH1 0x40 MLOAD DUP1 PUSH1 0x60 ADD PUSH1 0x40 MSTORE DUP1 PUSH1 0x3 SWAP1 JUMPDEST PUSH2 0xDE5 PUSH2 0xDFB JUMP JUMPDEST DUP2 MSTORE PUSH1 0x20 ADD SWAP1 PUSH1 0x1 SWAP1 SUB SWAP1 DUP2 PUSH2 0xDDD JUMPI SWAP1 POP POP SWAP1 JUMP JUMPDEST PUSH1 0x40 MLOAD DUP1 PUSH1 0xC0 ADD PUSH1 0x40 MSTORE DUP1 PUSH1 0x60 DUP2 MSTORE PUSH1 0x20 ADD PUSH1 0x0 DUP2 MSTORE PUSH1 0x20 ADD PUSH1 0x60 DUP2 MSTORE PUSH1 0x20 ADD PUSH1 0x0 PUSH1 0x3 DUP2 GT ISZERO PUSH2 0xE2F JUMPI PUSH2 0xE2E PUSH2 0x1355 JUMP JUMPDEST JUMPDEST DUP2 MSTORE PUSH1 0x20 ADD PUSH1 0x0 PUSH1 0x3 DUP2 GT ISZERO PUSH2 0xE48 JUMPI PUSH2 0xE47 PUSH2 0x1355 JUMP JUMPDEST JUMPDEST DUP2 MSTORE PUSH1 0x20 ADD PUSH1 0x0 DUP2 MSTORE POP SWAP1 JUMP JUMPDEST PUSH1 0x0 PUSH1 0x4 SWAP1 POP SWAP2 SWAP1 POP JUMP JUMPDEST PUSH1 0x0 DUP2 SWAP1 POP SWAP3 SWAP2 POP POP JUMP JUMPDEST PUSH1 0x0 DUP2 SWAP1 POP SWAP2 SWAP1 POP JUMP JUMPDEST PUSH1 0x0 DUP2 SWAP1 POP SWAP2 SWAP1 POP JUMP JUMPDEST PUSH2 0xE88 DUP2 PUSH2 0xE75 JUMP JUMPDEST DUP3 MSTORE POP POP JUMP JUMPDEST PUSH1 0x0 PUSH2 0xE9A DUP4 DUP4 PUSH2 0xE7F JUMP JUMPDEST PUSH1 0x20 DUP4 ADD SWAP1 POP SWAP3 SWAP2 POP POP JUMP JUMPDEST PUSH1 0x0 PUSH1 0x20 DUP3 ADD SWAP1 POP SWAP2 SWAP1 POP JUMP JUMPDEST PUSH2 0xEBC DUP2 PUSH2 0xE55 JUMP JUMPDEST PUSH2 0xEC6 DUP2 DUP5 PUSH2 0xE60 JUMP JUMPDEST SWAP3 POP PUSH2 0xED1 DUP3 PUSH2 0xE6B JUMP JUMPDEST DUP1 PUSH1 0x0 JUMPDEST DUP4 DUP2 LT ISZERO PUSH2 0xF02 JUMPI DUP2 MLOAD PUSH2 0xEE9 DUP8 DUP3 PUSH2 0xE8E JUMP JUMPDEST SWAP7 POP PUSH2 0xEF4 DUP4 PUSH2 0xEA6 JUMP JUMPDEST SWAP3 POP POP PUSH1 0x1 DUP2 ADD SWAP1 POP PUSH2 0xED5 JUMP JUMPDEST POP POP POP POP POP POP JUMP JUMPDEST PUSH1 0x0 PUSH1 0x80 DUP3 ADD SWAP1 POP PUSH2 0xF1F PUSH1 0x0 DUP4 ADD DUP5 PUSH2 0xEB3 JUMP JUMPDEST SWAP3 SWAP2 POP POP JUMP JUMPDEST PUSH2 0xF2E DUP2 PUSH2 0xE75 JUMP JUMPDEST DUP3 MSTORE POP POP JUMP JUMPDEST PUSH1 0x0 PUSH1 0x20 DUP3 ADD SWAP1 POP PUSH2 0xF49 PUSH1 0x0 DUP4 ADD DUP5 PUSH2 0xF25 JUMP JUMPDEST SWAP3 SWAP2 POP POP JUMP JUMPDEST PUSH1 0x0 PUSH1 0x40 MLOAD SWAP1 POP SWAP1 JUMP JUMPDEST PUSH1 0x0 DUP1 REVERT JUMPDEST PUSH1 0x0 DUP1 REVERT JUMPDEST PUSH1 0x4 DUP2 LT PUSH2 0xF70 JUMPI PUSH1 0x0 DUP1 REVERT JUMPDEST POP JUMP JUMPDEST PUSH1 0x0 DUP2 CALLDATALOAD SWAP1 POP PUSH2 0xF82 DUP2 PUSH2 0xF63 JUMP JUMPDEST SWAP3 SWAP2 POP POP JUMP JUMPDEST PUSH1 0x0 PUSH1 0x20 DUP3 DUP5 SUB SLT ISZERO PUSH2 0xF9E JUMPI PUSH2 0xF9D PUSH2 0xF59 JUMP JUMPDEST JUMPDEST PUSH1 0x0 PUSH2 0xFAC DUP5 DUP3 DUP6 ADD PUSH2 0xF73 JUMP JUMPDEST SWAP2 POP POP SWAP3 SWAP2 POP POP JUMP JUMPDEST PUSH2 0xFBE DUP2 PUSH2 0xE75 JUMP JUMPDEST DUP2 EQ PUSH2 0xFC9 JUMPI PUSH1 0x0 DUP1 REVERT JUMPDEST POP JUMP JUMPDEST PUSH1 0x0 DUP2 CALLDATALOAD SWAP1 POP PUSH2 0xFDB DUP2 PUSH2 0xFB5 JUMP JUMPDEST SWAP3 SWAP2 POP POP JUMP JUMPDEST PUSH1 0x0 DUP1 REVERT JUMPDEST PUSH1 0x0 DUP1 REVERT JUMPDEST PUSH1 0x0 PUSH1 0x1F NOT PUSH1 0x1F DUP4 ADD AND SWAP1 POP SWAP2 SWAP1 POP JUMP JUMPDEST PUSH32 0x4E487B7100000000000000000000000000000000000000000000000000000000 PUSH1 0x0 MSTORE PUSH1 0x41 PUSH1 0x4 MSTORE PUSH1 0x24 PUSH1 0x0 REVERT JUMPDEST PUSH2 0x1034 DUP3 PUSH2 0xFEB JUMP JUMPDEST DUP2 ADD DUP2 DUP2 LT PUSH8 0xFFFFFFFFFFFFFFFF DUP3 GT OR ISZERO PUSH2 0x1053 JUMPI PUSH2 0x1052 PUSH2 0xFFC JUMP JUMPDEST JUMPDEST DUP1 PUSH1 0x40 MSTORE POP POP POP JUMP JUMPDEST PUSH1 0x0 PUSH2 0x1066 PUSH2 0xF4F JUMP JUMPDEST SWAP1 POP PUSH2 0x1072 DUP3 DUP3 PUSH2 0x102B JUMP JUMPDEST SWAP2 SWAP1 POP JUMP JUMPDEST PUSH1 0x0 PUSH8 0xFFFFFFFFFFFFFFFF DUP3 GT ISZERO PUSH2 0x1092 JUMPI PUSH2 0x1091 PUSH2 0xFFC JUMP JUMPDEST JUMPDEST PUSH2 0x109B DUP3 PUSH2 0xFEB JUMP JUMPDEST SWAP1 POP PUSH1 0x20 DUP2 ADD SWAP1 POP SWAP2 SWAP1 POP JUMP JUMPDEST DUP3 DUP2 DUP4 CALLDATACOPY PUSH1 0x0 DUP4 DUP4 ADD MSTORE POP POP POP JUMP JUMPDEST PUSH1 0x0 PUSH2 0x10CA PUSH2 0x10C5 DUP5 PUSH2 0x1077 JUMP JUMPDEST PUSH2 0x105C JUMP JUMPDEST SWAP1 POP DUP3 DUP2 MSTORE PUSH1 0x20 DUP2 ADD DUP5 DUP5 DUP5 ADD GT ISZERO PUSH2 0x10E6 JUMPI PUSH2 0x10E5 PUSH2 0xFE6 JUMP JUMPDEST JUMPDEST PUSH2 0x10F1 DUP5 DUP3 DUP6 PUSH2 0x10A8 JUMP JUMPDEST POP SWAP4 SWAP3 POP POP POP JUMP JUMPDEST PUSH1 0x0 DUP3 PUSH1 0x1F DUP4 ADD SLT PUSH2 0x110E JUMPI PUSH2 0x110D PUSH2 0xFE1 JUMP JUMPDEST JUMPDEST DUP2 CALLDATALOAD PUSH2 0x111E DUP5 DUP3 PUSH1 0x20 DUP7 ADD PUSH2 0x10B7 JUMP JUMPDEST SWAP2 POP POP SWAP3 SWAP2 POP POP JUMP JUMPDEST PUSH1 0x4 DUP2 LT PUSH2 0x1134 JUMPI PUSH1 0x0 DUP1 REVERT JUMPDEST POP JUMP JUMPDEST PUSH1 0x0 DUP2 CALLDATALOAD SWAP1 POP PUSH2 0x1146 DUP2 PUSH2 0x1127 JUMP JUMPDEST SWAP3 SWAP2 POP POP JUMP JUMPDEST PUSH1 0x0 DUP1 PUSH1 0x0 DUP1 PUSH1 0x80 DUP6 DUP8 SUB SLT ISZERO PUSH2 0x1166 JUMPI PUSH2 0x1165 PUSH2 0xF59 JUMP JUMPDEST JUMPDEST PUSH1 0x0 PUSH2 0x1174 DUP8 DUP3 DUP9 ADD PUSH2 0xFCC JUMP JUMPDEST SWAP5 POP POP PUSH1 0x20 DUP6 ADD CALLDATALOAD PUSH8 0xFFFFFFFFFFFFFFFF DUP2 GT ISZERO PUSH2 0x1195 JUMPI PUSH2 0x1194 PUSH2 0xF5E JUMP JUMPDEST JUMPDEST PUSH2 0x11A1 DUP8 DUP3 DUP9 ADD PUSH2 0x10F9 JUMP JUMPDEST SWAP4 POP POP PUSH1 0x40 PUSH2 0x11B2 DUP8 DUP3 DUP9 ADD PUSH2 0xF73 JUMP JUMPDEST SWAP3 POP POP PUSH1 0x60 PUSH2 0x11C3 DUP8 DUP3 DUP9 ADD PUSH2 0x1137 JUMP JUMPDEST SWAP2 POP POP SWAP3 SWAP6 SWAP2 SWAP5 POP SWAP3 POP JUMP JUMPDEST PUSH1 0x0 DUP1 PUSH1 0x0 DUP1 PUSH1 0x0 DUP1 PUSH1 0x0 PUSH1 0xE0 DUP9 DUP11 SUB SLT ISZERO PUSH2 0x11EE JUMPI PUSH2 0x11ED PUSH2 0xF59 JUMP JUMPDEST JUMPDEST PUSH1 0x0 PUSH2 0x11FC DUP11 DUP3 DUP12 ADD PUSH2 0xFCC JUMP JUMPDEST SWAP8 POP POP PUSH1 0x20 DUP9 ADD CALLDATALOAD PUSH8 0xFFFFFFFFFFFFFFFF DUP2 GT ISZERO PUSH2 0x121D JUMPI PUSH2 0x121C PUSH2 0xF5E JUMP JUMPDEST JUMPDEST PUSH2 0x1229 DUP11 DUP3 DUP12 ADD PUSH2 0x10F9 JUMP JUMPDEST SWAP7 POP POP PUSH1 0x40 PUSH2 0x123A DUP11 DUP3 DUP12 ADD PUSH2 0xFCC JUMP JUMPDEST SWAP6 POP POP PUSH1 0x60 DUP9 ADD CALLDATALOAD PUSH8 0xFFFFFFFFFFFFFFFF DUP2 GT ISZERO PUSH2 0x125B JUMPI PUSH2 0x125A PUSH2 0xF5E JUMP JUMPDEST JUMPDEST PUSH2 0x1267 DUP11 DUP3 DUP12 ADD PUSH2 0x10F9 JUMP JUMPDEST SWAP5 POP POP PUSH1 0x80 PUSH2 0x1278 DUP11 DUP3 DUP12 ADD PUSH2 0xF73 JUMP JUMPDEST SWAP4 POP POP PUSH1 0xA0 PUSH2 0x1289 DUP11 DUP3 DUP12 ADD PUSH2 0x1137 JUMP JUMPDEST SWAP3 POP POP PUSH1 0xC0 PUSH2 0x129A DUP11 DUP3 DUP12 ADD PUSH2 0xFCC JUMP JUMPDEST SWAP2 POP POP SWAP3 SWAP6 SWAP9 SWAP2 SWAP5 SWAP8 POP SWAP3 SWAP6 POP JUMP JUMPDEST PUSH1 0x0 PUSH1 0x20 DUP3 DUP5 SUB SLT ISZERO PUSH2 0x12BF JUMPI PUSH2 0x12BE PUSH2 0xF59 JUMP JUMPDEST JUMPDEST PUSH1 0x0 PUSH2 0x12CD DUP5 DUP3 DUP6 ADD PUSH2 0xFCC JUMP JUMPDEST SWAP2 POP POP SWAP3 SWAP2 POP POP JUMP JUMPDEST PUSH1 0x0 DUP2 MLOAD SWAP1 POP SWAP2 SWAP1 POP JUMP JUMPDEST PUSH1 0x0 DUP3 DUP3 MSTORE PUSH1 0x20 DUP3 ADD SWAP1 POP SWAP3 SWAP2 POP POP JUMP JUMPDEST PUSH1 0x0 JUMPDEST DUP4 DUP2 LT ISZERO PUSH2 0x1310 JUMPI DUP1 DUP3 ADD MLOAD DUP2 DUP5 ADD MSTORE PUSH1 0x20 DUP2 ADD SWAP1 POP PUSH2 0x12F5 JUMP JUMPDEST PUSH1 0x0 DUP5 DUP5 ADD MSTORE POP POP POP POP JUMP JUMPDEST PUSH1 0x0 PUSH2 0x1327 DUP3 PUSH2 0x12D6 JUMP JUMPDEST PUSH2 0x1331 DUP2 DUP6 PUSH2 0x12E1 JUMP JUMPDEST SWAP4 POP PUSH2 0x1341 DUP2 DUP6 PUSH1 0x20 DUP7 ADD PUSH2 0x12F2 JUMP JUMPDEST PUSH2 0x134A DUP2 PUSH2 0xFEB JUMP JUMPDEST DUP5 ADD SWAP2 POP POP SWAP3 SWAP2 POP POP JUMP JUMPDEST PUSH32 0x4E487B7100000000000000000000000000000000000000000000000000000000 PUSH1 0x0 MSTORE PUSH1 0x21 PUSH1 0x4 MSTORE PUSH1 0x24 PUSH1 0x0 REVERT JUMPDEST PUSH1 0x4 DUP2 LT PUSH2 0x1395 JUMPI PUSH2 0x1394 PUSH2 0x1355 JUMP JUMPDEST JUMPDEST POP JUMP JUMPDEST PUSH1 0x0 DUP2 SWAP1 POP PUSH2 0x13A6 DUP3 PUSH2 0x1384 JUMP JUMPDEST SWAP2 SWAP1 POP JUMP JUMPDEST PUSH1 0x0 PUSH2 0x13B6 DUP3 PUSH2 0x1398 JUMP JUMPDEST SWAP1 POP SWAP2 SWAP1 POP JUMP JUMPDEST PUSH2 0x13C6 DUP2 PUSH2 0x13AB JUMP JUMPDEST DUP3 MSTORE POP POP JUMP JUMPDEST PUSH1 0x4 DUP2 LT PUSH2 0x13DD JUMPI PUSH2 0x13DC PUSH2 0x1355 JUMP JUMPDEST JUMPDEST POP JUMP JUMPDEST PUSH1 0x0 DUP2 SWAP1 POP PUSH2 0x13EE DUP3 PUSH2 0x13CC JUMP JUMPDEST SWAP2 SWAP1 POP JUMP JUMPDEST PUSH1 0x0 PUSH2 0x13FE DUP3 PUSH2 0x13E0 JUMP JUMPDEST SWAP1 POP SWAP2 SWAP1 POP JUMP JUMPDEST PUSH2 0x140E DUP2 PUSH2 0x13F3 JUMP JUMPDEST DUP3 MSTORE POP POP JUMP JUMPDEST PUSH1 0x0 PUSH1 0xC0 DUP3 ADD SWAP1 POP DUP2 DUP2 SUB PUSH1 0x0 DUP4 ADD MSTORE PUSH2 0x142E DUP2 DUP10 PUSH2 0x131C JUMP JUMPDEST SWAP1 POP PUSH2 0x143D PUSH1 0x20 DUP4 ADD DUP9 PUSH2 0xF25 JUMP JUMPDEST DUP2 DUP2 SUB PUSH1 0x40 DUP4 ADD MSTORE PUSH2 0x144F DUP2 DUP8 PUSH2 0x131C JUMP JUMPDEST SWAP1 POP PUSH2 0x145E PUSH1 0x60 DUP4 ADD DUP7 PUSH2 0x13BD JUMP JUMPDEST PUSH2 0x146B PUSH1 0x80 DUP4 ADD DUP6 PUSH2 0x1405 JUMP JUMPDEST PUSH2 0x1478 PUSH1 0xA0 DUP4 ADD DUP5 PUSH2 0xF25 JUMP JUMPDEST SWAP8 SWAP7 POP POP POP POP POP POP POP JUMP JUMPDEST PUSH1 0x0 PUSH1 0x20 DUP3 DUP5 SUB SLT ISZERO PUSH2 0x1499 JUMPI PUSH2 0x1498 PUSH2 0xF59 JUMP JUMPDEST JUMPDEST PUSH1 0x0 PUSH2 0x14A7 DUP5 DUP3 DUP6 ADD PUSH2 0x1137 JUMP JUMPDEST SWAP2 POP POP SWAP3 SWAP2 POP POP JUMP JUMPDEST PUSH1 0x0 PUSH1 0x3 SWAP1 POP SWAP2 SWAP1 POP JUMP JUMPDEST PUSH1 0x0 DUP2 SWAP1 POP SWAP3 SWAP2 POP POP JUMP JUMPDEST PUSH1 0x0 DUP2 SWAP1 POP SWAP2 SWAP1 POP JUMP JUMPDEST PUSH1 0x0 DUP3 DUP3 MSTORE PUSH1 0x20 DUP3 ADD SWAP1 POP SWAP3 SWAP2 POP POP JUMP JUMPDEST PUSH1 0x0 PUSH2 0x14EC DUP3 PUSH2 0x12D6 JUMP JUMPDEST PUSH2 0x14F6 DUP2 DUP6 PUSH2 0x14D0 JUMP JUMPDEST SWAP4 POP PUSH2 0x1506 DUP2 DUP6 PUSH1 0x20 DUP7 ADD PUSH2 0x12F2 JUMP JUMPDEST PUSH2 0x150F DUP2 PUSH2 0xFEB JUMP JUMPDEST DUP5 ADD SWAP2 POP POP SWAP3 SWAP2 POP POP JUMP JUMPDEST PUSH2 0x1523 DUP2 PUSH2 0x13AB JUMP JUMPDEST DUP3 MSTORE POP POP JUMP JUMPDEST PUSH2 0x1532 DUP2 PUSH2 0x13F3 JUMP JUMPDEST DUP3 MSTORE POP POP JUMP JUMPDEST PUSH1 0x0 PUSH1 0xC0 DUP4 ADD PUSH1 0x0 DUP4 ADD MLOAD DUP5 DUP3 SUB PUSH1 0x0 DUP7 ADD MSTORE PUSH2 0x1555 DUP3 DUP3 PUSH2 0x14E1 JUMP JUMPDEST SWAP2 POP POP PUSH1 0x20 DUP4 ADD MLOAD PUSH2 0x156A PUSH1 0x20 DUP7 ADD DUP3 PUSH2 0xE7F JUMP JUMPDEST POP PUSH1 0x40 DUP4 ADD MLOAD DUP5 DUP3 SUB PUSH1 0x40 DUP7 ADD MSTORE PUSH2 0x1582 DUP3 DUP3 PUSH2 0x14E1 JUMP JUMPDEST SWAP2 POP POP PUSH1 0x60 DUP4 ADD MLOAD PUSH2 0x1597 PUSH1 0x60 DUP7 ADD DUP3 PUSH2 0x151A JUMP JUMPDEST POP PUSH1 0x80 DUP4 ADD MLOAD PUSH2 0x15AA PUSH1 0x80 DUP7 ADD DUP3 PUSH2 0x1529 JUMP JUMPDEST POP PUSH1 0xA0 DUP4 ADD MLOAD PUSH2 0x15BD PUSH1 0xA0 DUP7 ADD DUP3 PUSH2 0xE7F JUMP JUMPDEST POP DUP1 SWAP2 POP POP SWAP3 SWAP2 POP POP JUMP JUMPDEST PUSH1 0x0 PUSH2 0x15D4 DUP4 DUP4 PUSH2 0x1538 JUMP JUMPDEST SWAP1 POP SWAP3 SWAP2 POP POP JUMP JUMPDEST PUSH1 0x0 PUSH1 0x20 DUP3 ADD SWAP1 POP SWAP2 SWAP1 POP JUMP JUMPDEST PUSH1 0x0 PUSH2 0x15F4 DUP3 PUSH2 0x14B0 JUMP JUMPDEST PUSH2 0x15FE DUP2 DUP6 PUSH2 0x14BB JUMP JUMPDEST SWAP4 POP DUP4 PUSH1 0x20 DUP3 MUL DUP6 ADD PUSH2 0x1610 DUP6 PUSH2 0x14C6 JUMP JUMPDEST DUP1 PUSH1 0x0 JUMPDEST DUP6 DUP2 LT ISZERO PUSH2 0x164C JUMPI DUP5 DUP5 SUB DUP10 MSTORE DUP2 MLOAD PUSH2 0x162D DUP6 DUP3 PUSH2 0x15C8 JUMP JUMPDEST SWAP5 POP PUSH2 0x1638 DUP4 PUSH2 0x15DC JUMP JUMPDEST SWAP3 POP PUSH1 0x20 DUP11 ADD SWAP10 POP POP PUSH1 0x1 DUP2 ADD SWAP1 POP PUSH2 0x1614 JUMP JUMPDEST POP DUP3 SWAP8 POP DUP8 SWAP6 POP POP POP POP POP POP SWAP3 SWAP2 POP POP JUMP JUMPDEST PUSH1 0x0 PUSH1 0x20 DUP3 ADD SWAP1 POP DUP2 DUP2 SUB PUSH1 0x0 DUP4 ADD MSTORE PUSH2 0x1678 DUP2 DUP5 PUSH2 0x15E9 JUMP JUMPDEST SWAP1 POP SWAP3 SWAP2 POP POP JUMP JUMPDEST PUSH32 0x4E487B7100000000000000000000000000000000000000000000000000000000 PUSH1 0x0 MSTORE PUSH1 0x32 PUSH1 0x4 MSTORE PUSH1 0x24 PUSH1 0x0 REVERT JUMPDEST PUSH32 0x4E487B7100000000000000000000000000000000000000000000000000000000 PUSH1 0x0 MSTORE PUSH1 0x22 PUSH1 0x4 MSTORE PUSH1 0x24 PUSH1 0x0 REVERT JUMPDEST PUSH1 0x0 PUSH1 0x2 DUP3 DIV SWAP1 POP PUSH1 0x1 DUP3 AND DUP1 PUSH2 0x16F6 JUMPI PUSH1 0x7F DUP3 AND SWAP2 POP JUMPDEST PUSH1 0x20 DUP3 LT DUP2 SUB PUSH2 0x1709 JUMPI PUSH2 0x1708 PUSH2 0x16AF JUMP JUMPDEST JUMPDEST POP SWAP2 SWAP1 POP JUMP JUMPDEST PUSH1 0x0 DUP2 SWAP1 POP DUP2 PUSH1 0x0 MSTORE PUSH1 0x20 PUSH1 0x0 KECCAK256 SWAP1 POP SWAP2 SWAP1 POP JUMP JUMPDEST PUSH1 0x0 PUSH1 0x20 PUSH1 0x1F DUP4 ADD DIV SWAP1 POP SWAP2 SWAP1 POP JUMP JUMPDEST PUSH1 0x0 DUP3 DUP3 SHL SWAP1 POP SWAP3 SWAP2 POP POP JUMP JUMPDEST PUSH1 0x0 PUSH1 0x8 DUP4 MUL PUSH2 0x1771 PUSH32 0xFFFFFFFFFFFFFFFFFFFFFFFFFFFFFFFFFFFFFFFFFFFFFFFFFFFFFFFFFFFFFFFF DUP3 PUSH2 0x1734 JUMP JUMPDEST PUSH2 0x177B DUP7 DUP4 PUSH2 0x1734 JUMP JUMPDEST SWAP6 POP DUP1 NOT DUP5 AND SWAP4 POP DUP1 DUP7 AND DUP5 OR SWAP3 POP POP POP SWAP4 SWAP3 POP POP POP JUMP JUMPDEST PUSH1 0x0 DUP2 SWAP1 POP SWAP2 SWAP1 POP JUMP JUMPDEST PUSH1 0x0 PUSH2 0x17B8 PUSH2 0x17B3 PUSH2 0x17AE DUP5 PUSH2 0xE75 JUMP JUMPDEST PUSH2 0x1793 JUMP JUMPDEST PUSH2 0xE75 JUMP JUMPDEST SWAP1 POP SWAP2 SWAP1 POP JUMP JUMPDEST PUSH1 0x0 DUP2 SWAP1 POP SWAP2 SWAP1 POP JUMP JUMPDEST PUSH2 0x17D2 DUP4 PUSH2 0x179D JUMP JUMPDEST PUSH2 0x17E6 PUSH2 0x17DE DUP3 PUSH2 0x17BF JUMP JUMPDEST DUP5 DUP5 SLOAD PUSH2 0x1741 JUMP JUMPDEST DUP3 SSTORE POP POP POP POP JUMP JUMPDEST PUSH1 0x0 SWAP1 JUMP JUMPDEST PUSH2 0x17FB PUSH2 0x17EE JUMP JUMPDEST PUSH2 0x1806 DUP2 DUP5 DUP5 PUSH2 0x17C9 JUMP JUMPDEST POP POP POP JUMP JUMPDEST JUMPDEST DUP2 DUP2 LT ISZERO PUSH2 0x182A JUMPI PUSH2 0x181F PUSH1 0x0 DUP3 PUSH2 0x17F3 JUMP JUMPDEST PUSH1 0x1 DUP2 ADD SWAP1 POP PUSH2 0x180C JUMP JUMPDEST POP POP JUMP JUMPDEST PUSH1 0x1F DUP3 GT ISZERO PUSH2 0x186F JUMPI PUSH2 0x1840 DUP2 PUSH2 0x170F JUMP JUMPDEST PUSH2 0x1849 DUP5 PUSH2 0x1724 JUMP JUMPDEST DUP2 ADD PUSH1 0x20 DUP6 LT ISZERO PUSH2 0x1858 JUMPI DUP2 SWAP1 POP JUMPDEST PUSH2 0x186C PUSH2 0x1864 DUP6 PUSH2 0x1724 JUMP JUMPDEST DUP4 ADD DUP3 PUSH2 0x180B JUMP JUMPDEST POP POP JUMPDEST POP POP POP JUMP JUMPDEST PUSH1 0x0 DUP3 DUP3 SHR SWAP1 POP SWAP3 SWAP2 POP POP JUMP JUMPDEST PUSH1 0x0 PUSH2 0x1892 PUSH1 0x0 NOT DUP5 PUSH1 0x8 MUL PUSH2 0x1874 JUMP JUMPDEST NOT DUP1 DUP4 AND SWAP2 POP POP SWAP3 SWAP2 POP POP JUMP JUMPDEST PUSH1 0x0 PUSH2 0x18AB DUP4 DUP4 PUSH2 0x1881 JUMP JUMPDEST SWAP2 POP DUP3 PUSH1 0x2 MUL DUP3 OR SWAP1 POP SWAP3 SWAP2 POP POP JUMP JUMPDEST PUSH2 0x18C4 DUP3 PUSH2 0x12D6 JUMP JUMPDEST PUSH8 0xFFFFFFFFFFFFFFFF DUP2 GT ISZERO PUSH2 0x18DD JUMPI PUSH2 0x18DC PUSH2 0xFFC JUMP JUMPDEST JUMPDEST PUSH2 0x18E7 DUP3 SLOAD PUSH2 0x16DE JUMP JUMPDEST PUSH2 0x18F2 DUP3 DUP3 DUP6 PUSH2 0x182E JUMP JUMPDEST PUSH1 0x0 PUSH1 0x20 SWAP1 POP PUSH1 0x1F DUP4 GT PUSH1 0x1 DUP2 EQ PUSH2 0x1925 JUMPI PUSH1 0x0 DUP5 ISZERO PUSH2 0x1913 JUMPI DUP3 DUP8 ADD MLOAD SWAP1 POP JUMPDEST PUSH2 0x191D DUP6 DUP3 PUSH2 0x189F JUMP JUMPDEST DUP7 SSTORE POP PUSH2 0x1985 JUMP JUMPDEST PUSH1 0x1F NOT DUP5 AND PUSH2 0x1933 DUP7 PUSH2 0x170F JUMP JUMPDEST PUSH1 0x0 JUMPDEST DUP3 DUP2 LT ISZERO PUSH2 0x195B JUMPI DUP5 DUP10 ADD MLOAD DUP3 SSTORE PUSH1 0x1 DUP3 ADD SWAP2 POP PUSH1 0x20 DUP6 ADD SWAP5 POP PUSH1 0x20 DUP2 ADD SWAP1 POP PUSH2 0x1936 JUMP JUMPDEST DUP7 DUP4 LT ISZERO PUSH2 0x1978 JUMPI DUP5 DUP10 ADD MLOAD PUSH2 0x1974 PUSH1 0x1F DUP10 AND DUP3 PUSH2 0x1881 JUMP JUMPDEST DUP4 SSTORE POP JUMPDEST PUSH1 0x1 PUSH1 0x2 DUP9 MUL ADD DUP9 SSTORE POP POP POP JUMPDEST POP POP POP POP POP POP JUMP JUMPDEST PUSH32 0x4E487B7100000000000000000000000000000000000000000000000000000000 PUSH1 0x0 MSTORE PUSH1 0x11 PUSH1 0x4 MSTORE PUSH1 0x24 PUSH1 0x0 REVERT JUMPDEST PUSH1 0x0 PUSH2 0x19C7 DUP3 PUSH2 0xE75 JUMP JUMPDEST SWAP2 POP PUSH32 0xFFFFFFFFFFFFFFFFFFFFFFFFFFFFFFFFFFFFFFFFFFFFFFFFFFFFFFFFFFFFFFFF DUP3 SUB PUSH2 0x19F9 JUMPI PUSH2 0x19F8 PUSH2 0x198D JUMP JUMPDEST JUMPDEST PUSH1 0x1 DUP3 ADD SWAP1 POP SWAP2 SWAP1 POP JUMP JUMPDEST PUSH1 0x0 PUSH2 0x1A0F DUP3 PUSH2 0xE75 JUMP JUMPDEST SWAP2 POP PUSH2 0x1A1A DUP4 PUSH2 0xE75 JUMP JUMPDEST SWAP3 POP DUP3 DUP3 ADD SWAP1 POP DUP1 DUP3 GT ISZERO PUSH2 0x1A32 JUMPI PUSH2 0x1A31 PUSH2 0x198D JUMP JUMPDEST JUMPDEST SWAP3 SWAP2 POP POP JUMP JUMPDEST PUSH1 0x0 PUSH2 0x1A43 DUP3 PUSH2 0xE75 JUMP JUMPDEST SWAP2 POP PUSH2 0x1A4E DUP4 PUSH2 0xE75 JUMP JUMPDEST SWAP3 POP DUP3 DUP3 SUB SWAP1 POP DUP2 DUP2 GT ISZERO PUSH2 0x1A66 JUMPI PUSH2 0x1A65 PUSH2 0x198D JUMP JUMPDEST JUMPDEST SWAP3 SWAP2 POP POP JUMP JUMPDEST PUSH1 0x0 PUSH2 0x1A77 DUP3 PUSH2 0xE75 JUMP JUMPDEST SWAP2 POP PUSH1 0x0 DUP3 SUB PUSH2 0x1A8A JUMPI PUSH2 0x1A89 PUSH2 0x198D JUMP JUMPDEST JUMPDEST PUSH1 0x1 DUP3 SUB SWAP1 POP SWAP2 SWAP1 POP JUMP INVALID LOG2 PUSH5 0x6970667358 0x22 SLT KECCAK256 PUSH4 0x2131720D 0x21 PUSH5 0xD83525D796 DUP5 PUSH14 0x4427F5FCFA21BEFF2133F7D4C045 DUP11 PUSH28 0x2BA64736F6C63430008120033000000000000000000000000000000 "
		},
		"gasEstimates": {
			"creation": {
				"codeDepositCost": "1371800",
				"executionCost": "6437",
				"totalCost": "1378237"
			},
			"external": {
				"CountByDepartment()": "infinite",
				"checkStatus(uint8)": "794",
				"count(uint8)": "2767",
				"register(uint256,string,uint256,string,uint8,uint8,uint256)": "infinite",
				"retrieve(uint256)": "infinite",
				"sortStudentsByMarks()": "infinite",
				"studentMap(uint256)": "infinite",
				"total()": "2452",
				"update(uint256,string,uint8,uint8)": "infinite"
			}
		},
		"methodIdentifiers": {
			"CountByDepartment()": "0e0196a8",
			"checkStatus(uint8)": "d6d9a024",
			"count(uint8)": "3a82fd5e",
			"register(uint256,string,uint256,string,uint8,uint8,uint256)": "6c581256",
			"retrieve(uint256)": "8f88708b",
			"sortStudentsByMarks()": "df93d8f0",
			"studentMap(uint256)": "ceea3c78",
			"total()": "2ddbd13a",
			"update(uint256,string,uint8,uint8)": "3e713726"
		}
	},
	"abi": [
		{
			"inputs": [],
			"name": "CountByDepartment",
			"outputs": [
				{
					"internalType": "uint256[4]",
					"name": "departmentCountsArray",
					"type": "uint256[4]"
				}
			],
			"stateMutability": "view",
			"type": "function"
		},
		{
			"inputs": [
				{
					"internalType": "enum Status",
					"name": "_status",
					"type": "uint8"
				}
			],
			"name": "checkStatus",
			"outputs": [
				{
					"internalType": "uint256",
					"name": "x",
					"type": "uint256"
				}
			],
			"stateMutability": "pure",
			"type": "function"
		},
		{
			"inputs": [
				{
					"internalType": "enum Department",
					"name": "",
					"type": "uint8"
				}
			],
			"name": "count",
			"outputs": [
				{
					"internalType": "uint256",
					"name": "",
					"type": "uint256"
				}
			],
			"stateMutability": "view",
			"type": "function"
		},
		{
			"inputs": [
				{
					"internalType": "uint256",
					"name": "StdRollNo",
					"type": "uint256"
				},
				{
					"internalType": "string",
					"name": "_name",
					"type": "string"
				},
				{
					"internalType": "uint256",
					"name": "_age",
					"type": "uint256"
				},
				{
					"internalType": "string",
					"name": "_regDate",
					"type": "string"
				},
				{
					"internalType": "enum Department",
					"name": "_department",
					"type": "uint8"
				},
				{
					"internalType": "enum Status",
					"name": "_status",
					"type": "uint8"
				},
				{
					"internalType": "uint256",
					"name": "_obtMarks",
					"type": "uint256"
				}
			],
			"name": "register",
			"outputs": [],
			"stateMutability": "nonpayable",
			"type": "function"
		},
		{
			"inputs": [
				{
					"internalType": "uint256",
					"name": "RollNo",
					"type": "uint256"
				}
			],
			"name": "retrieve",
			"outputs": [
				{
					"internalType": "string",
					"name": "",
					"type": "string"
				},
				{
					"internalType": "uint256",
					"name": "",
					"type": "uint256"
				},
				{
					"internalType": "string",
					"name": "",
					"type": "string"
				},
				{
					"internalType": "enum Department",
					"name": "",
					"type": "uint8"
				},
				{
					"internalType": "enum Status",
					"name": "",
					"type": "uint8"
				},
				{
					"internalType": "uint256",
					"name": "",
					"type": "uint256"
				}
			],
			"stateMutability": "view",
			"type": "function"
		},
		{
			"inputs": [],
			"name": "sortStudentsByMarks",
			"outputs": [
				{
					"components": [
						{
							"internalType": "string",
							"name": "name",
							"type": "string"
						},
						{
							"internalType": "uint256",
							"name": "age",
							"type": "uint256"
						},
						{
							"internalType": "string",
							"name": "registrationDate",
							"type": "string"
						},
						{
							"internalType": "enum Department",
							"name": "department",
							"type": "uint8"
						},
						{
							"internalType": "enum Status",
							"name": "status",
							"type": "uint8"
						},
						{
							"internalType": "uint256",
							"name": "obtainedMarks",
							"type": "uint256"
						}
					],
					"internalType": "struct Student[3]",
					"name": "sortedStudents",
					"type": "tuple[3]"
				}
			],
			"stateMutability": "view",
			"type": "function"
		},
		{
			"inputs": [
				{
					"internalType": "uint256",
					"name": "",
					"type": "uint256"
				}
			],
			"name": "studentMap",
			"outputs": [
				{
					"internalType": "string",
					"name": "name",
					"type": "string"
				},
				{
					"internalType": "uint256",
					"name": "age",
					"type": "uint256"
				},
				{
					"internalType": "string",
					"name": "registrationDate",
					"type": "string"
				},
				{
					"internalType": "enum Department",
					"name": "department",
					"type": "uint8"
				},
				{
					"internalType": "enum Status",
					"name": "status",
					"type": "uint8"
				},
				{
					"internalType": "uint256",
					"name": "obtainedMarks",
					"type": "uint256"
				}
			],
			"stateMutability": "view",
			"type": "function"
		},
		{
			"inputs": [],
			"name": "total",
			"outputs": [
				{
					"internalType": "uint256",
					"name": "",
					"type": "uint256"
				}
			],
			"stateMutability": "view",
			"type": "function"
		},
		{
			"inputs": [
				{
					"internalType": "uint256",
					"name": "RollNo",
					"type": "uint256"
				},
				{
					"internalType": "string",
					"name": "_name",
					"type": "string"
				},
				{
					"internalType": "enum Department",
					"name": "_department",
					"type": "uint8"
				},
				{
					"internalType": "enum Status",
					"name": "_status",
					"type": "uint8"
				}
			],
			"name": "update",
			"outputs": [],
			"stateMutability": "nonpayable",
			"type": "function"
		}
	]
}