{
	"data": {
		"bytecode": {
			"linkReferences": {},
			"object": "608060405234801561000f575f80fd5b50611ca28061001d5f395ff3fe608060405234801561000f575f80fd5b5060043610610091575f3560e01c80639205c66e116100645780639205c66e146101275780639e8038011461015c578063cf25823a14610191578063df93d8f0146101ad578063edb6f7e7146101cb57610091565b80630e0196a814610095578063712781f5146100b357806371e5ee5f146100d6578063743e87011461010b575b5f80fd5b61009d6101fb565b6040516100aa9190611052565b60405180910390f35b6100bb61039a565b6040516100cd969594939291906111bd565b60405180910390f35b6100f060048036038101906100eb919061125e565b610462565b604051610102969594939291906111bd565b60405180910390f35b610125600480360381019061012091906113fb565b610548565b005b610141600480360381019061013c919061125e565b6106a8565b604051610153969594939291906111bd565b60405180910390f35b6101766004803603810190610171919061125e565b61077e565b604051610188969594939291906111bd565b60405180910390f35b6101ab60048036038101906101a6919061148e565b6108b4565b005b6101b5610bb8565b6040516101c291906116e2565b60405180910390f35b6101e560048036038101906101e09190611702565b610eeb565b6040516101f2919061172d565b60405180910390f35b610203610f00565b60075f80600381111561021957610218611104565b5b600381111561022b5761022a611104565b5b81526020019081526020015f2054815f600381111561024d5761024c611104565b5b6004811061025e5761025d611746565b5b60200201818152505060075f6001600381111561027e5761027d611104565b5b60038111156102905761028f611104565b5b81526020019081526020015f205481600160038111156102b3576102b2611104565b5b600481106102c4576102c3611746565b5b60200201818152505060075f600260038111156102e4576102e3611104565b5b60038111156102f6576102f5611104565b5b81526020019081526020015f2054816002600381111561031957610318611104565b5b6004811061032a57610329611746565b5b60200201818152505060075f60038081111561034957610348611104565b5b600381111561035b5761035a611104565b5b81526020019081526020015f20548160038081111561037d5761037c611104565b5b6004811061038e5761038d611746565b5b60200201818152505090565b6002805f0180546103aa906117a0565b80601f01602080910402602001604051908101604052809291908181526020018280546103d6906117a0565b80156104215780601f106103f857610100808354040283529160200191610421565b820191905f5260205f20905b81548152906001019060200180831161040457829003601f168201915b505050505090806001015490806002015490806003015f9054906101000a900460ff16908060030160019054906101000a900460ff16908060040154905086565b60018181548110610471575f80fd5b905f5260205f2090600502015f91509050805f018054610490906117a0565b80601f01602080910402602001604051908101604052809291908181526020018280546104bc906117a0565b80156105075780601f106104de57610100808354040283529160200191610507565b820191905f5260205f20905b8154815290600101906020018083116104ea57829003601f168201915b505050505090806001015490806002015490806003015f9054906101000a900460ff16908060030160019054906101000a900460ff16908060040154905086565b5f805f8781526020019081526020015f20905084815f01908161056b919061196d565b5083816001018190555082816003015f6101000a81548160ff0219169083600381111561059b5761059a611104565b5b0217905550818160030160016101000a81548160ff021916908360038111156105c7576105c6611104565b5b0217905550600181908060018154018082558091505060019003905f5260205f2090600502015f909190919091505f8201815f0190816106079190611a51565b506001820154816001015560028201548160020155600382015f9054906101000a900460ff16816003015f6101000a81548160ff0219169083600381111561065257610651611104565b5b02179055506003820160019054906101000a900460ff168160030160016101000a81548160ff0219169083600381111561068f5761068e611104565b5b0217905550600482015481600401555050505050505050565b5f602052805f5260405f205f91509050805f0180546106c6906117a0565b80601f01602080910402602001604051908101604052809291908181526020018280546106f2906117a0565b801561073d5780601f106107145761010080835404028352916020019161073d565b820191905f5260205f20905b81548152906001019060200180831161072057829003601f168201915b505050505090806001015490806002015490806003015f9054906101000a900460ff16908060030160019054906101000a900460ff16908060040154905086565b60605f805f805f60018054905087106107cc576040517f08c379a00000000000000000000000000000000000000000000000000000000081526004016107c390611b80565b60405180910390fd5b5f805f8981526020019081526020015f209050805f0181600101548260020154836003015f9054906101000a900460ff168460030160019054906101000a900460ff168560040154858054610820906117a0565b80601f016020809104026020016040519081016040528092919081815260200182805461084c906117a0565b80156108975780601f1061086e57610100808354040283529160200191610897565b820191905f5260205f20905b81548152906001019060200180831161087a57829003601f168201915b505050505095509650965096509650965096505091939550919395565b600160038111156108c8576108c7611104565b5b8260038111156108db576108da611104565b5b148061090a57506003808111156108f5576108f4611104565b5b82600381111561090857610907611104565b5b145b15610913575f90505b5f6002905086815f019081610928919061196d565b5085816001018190555084816002018190555083816003015f6101000a81548160ff0219169083600381111561096157610960611104565b5b0217905550828160030160016101000a81548160ff0219169083600381111561098d5761098c611104565b5b0217905550818160040181905550600181908060018154018082558091505060019003905f5260205f2090600502015f909190919091505f8201815f0190816109d69190611a51565b506001820154816001015560028201548160020155600382015f9054906101000a900460ff16816003015f6101000a81548160ff02191690836003811115610a2157610a20611104565b5b02179055506003820160019054906101000a900460ff168160030160016101000a81548160ff02191690836003811115610a5e57610a5d611104565b5b02179055506004820154816004015550506040518060c00160405280888152602001878152602001868152602001856003811115610a9f57610a9e611104565b5b8152602001846003811115610ab757610ab6611104565b5b8152602001838152505f808a81526020019081526020015f205f820151815f019081610ae3919061196d565b5060208201518160010155604082015181600201556060820151816003015f6101000a81548160ff02191690836003811115610b2257610b21611104565b5b021790555060808201518160030160016101000a81548160ff02191690836003811115610b5257610b51611104565b5b021790555060a0820151816004015590505060075f856003811115610b7a57610b79611104565b5b6003811115610b8c57610b8b611104565b5b81526020019081526020015f205f815480929190610ba990611bcb565b91905055505050505050505050565b610bc0610f22565b610bc8610f22565b5f5b600180549050811015610ee35760016003811115610beb57610bea611104565b5b60018281548110610bff57610bfe611746565b5b905f5260205f2090600502016003015f9054906101000a900460ff166003811115610c2d57610c2c611104565b5b148015610c8d57505f6003811115610c4857610c47611104565b5b60018281548110610c5c57610c5b611746565b5b905f5260205f20906005020160030160019054906101000a900460ff166003811115610c8b57610c8a611104565b5b145b15610ed0575f5b6003811015610ece575f821480610ce85750828160038110610cb957610cb8611746565b5b602002015160a0015160018381548110610cd657610cd5611746565b5b905f5260205f20906005020160040154115b15610ebb575f600290505b81811115610d4d5783600182610d099190611c12565b60038110610d1a57610d19611746565b5b6020020151848260038110610d3257610d31611746565b5b60200201819052508080610d4590611c45565b915050610cf3565b5060018281548110610d6257610d61611746565b5b905f5260205f2090600502016040518060c00160405290815f82018054610d88906117a0565b80601f0160208091040260200160405190810160405280929190818152602001828054610db4906117a0565b8015610dff5780601f10610dd657610100808354040283529160200191610dff565b820191905f5260205f20905b815481529060010190602001808311610de257829003601f168201915b505050505081526020016001820154815260200160028201548152602001600382015f9054906101000a900460ff166003811115610e4057610e3f611104565b5b6003811115610e5257610e51611104565b5b81526020016003820160019054906101000a900460ff166003811115610e7b57610e7a611104565b5b6003811115610e8d57610e8c611104565b5b8152602001600482015481525050838260038110610eae57610ead611746565b5b6020020181905250610ece565b8080610ec690611bcb565b915050610c94565b505b8080610edb90611bcb565b915050610bca565b508091505090565b6007602052805f5260405f205f915090505481565b6040518060800160405280600490602082028036833780820191505090505090565b60405180606001604052806003905b610f39610f4f565b815260200190600190039081610f315790505090565b6040518060c00160405280606081526020015f81526020015f81526020015f6003811115610f8057610f7f611104565b5b81526020015f6003811115610f9857610f97611104565b5b81526020015f81525090565b5f60049050919050565b5f81905092915050565b5f819050919050565b5f819050919050565b610fd381610fc1565b82525050565b5f610fe48383610fca565b60208301905092915050565b5f602082019050919050565b61100581610fa4565b61100f8184610fae565b925061101a82610fb8565b805f5b8381101561104a5781516110318782610fd9565b965061103c83610ff0565b92505060018101905061101d565b505050505050565b5f6080820190506110655f830184610ffc565b92915050565b5f81519050919050565b5f82825260208201905092915050565b5f5b838110156110a2578082015181840152602081019050611087565b5f8484015250505050565b5f601f19601f8301169050919050565b5f6110c78261106b565b6110d18185611075565b93506110e1818560208601611085565b6110ea816110ad565b840191505092915050565b6110fe81610fc1565b82525050565b7f4e487b71000000000000000000000000000000000000000000000000000000005f52602160045260245ffd5b6004811061114257611141611104565b5b50565b5f81905061115282611131565b919050565b5f61116182611145565b9050919050565b61117181611157565b82525050565b6004811061118857611187611104565b5b50565b5f81905061119882611177565b919050565b5f6111a78261118b565b9050919050565b6111b78161119d565b82525050565b5f60c0820190508181035f8301526111d581896110bd565b90506111e460208301886110f5565b6111f160408301876110f5565b6111fe6060830186611168565b61120b60808301856111ae565b61121860a08301846110f5565b979650505050505050565b5f604051905090565b5f80fd5b5f80fd5b61123d81610fc1565b8114611247575f80fd5b50565b5f8135905061125881611234565b92915050565b5f602082840312156112735761127261122c565b5b5f6112808482850161124a565b91505092915050565b5f80fd5b5f80fd5b7f4e487b71000000000000000000000000000000000000000000000000000000005f52604160045260245ffd5b6112c7826110ad565b810181811067ffffffffffffffff821117156112e6576112e5611291565b5b80604052505050565b5f6112f8611223565b905061130482826112be565b919050565b5f67ffffffffffffffff82111561132357611322611291565b5b61132c826110ad565b9050602081019050919050565b828183375f83830152505050565b5f61135961135484611309565b6112ef565b9050828152602081018484840111156113755761137461128d565b5b611380848285611339565b509392505050565b5f82601f83011261139c5761139b611289565b5b81356113ac848260208601611347565b91505092915050565b600481106113c1575f80fd5b50565b5f813590506113d2816113b5565b92915050565b600481106113e4575f80fd5b50565b5f813590506113f5816113d8565b92915050565b5f805f805f60a086880312156114145761141361122c565b5b5f6114218882890161124a565b955050602086013567ffffffffffffffff81111561144257611441611230565b5b61144e88828901611388565b945050604061145f8882890161124a565b9350506060611470888289016113c4565b9250506080611481888289016113e7565b9150509295509295909350565b5f805f805f805f60e0888a0312156114a9576114a861122c565b5b5f6114b68a828b0161124a565b975050602088013567ffffffffffffffff8111156114d7576114d6611230565b5b6114e38a828b01611388565b96505060406114f48a828b0161124a565b95505060606115058a828b0161124a565b94505060806115168a828b016113c4565b93505060a06115278a828b016113e7565b92505060c06115388a828b0161124a565b91505092959891949750929550565b5f60039050919050565b5f81905092915050565b5f819050919050565b5f82825260208201905092915050565b5f61157e8261106b565b6115888185611564565b9350611598818560208601611085565b6115a1816110ad565b840191505092915050565b6115b581611157565b82525050565b6115c48161119d565b82525050565b5f60c083015f8301518482035f8601526115e48282611574565b91505060208301516115f96020860182610fca565b50604083015161160c6040860182610fca565b50606083015161161f60608601826115ac565b50608083015161163260808601826115bb565b5060a083015161164560a0860182610fca565b508091505092915050565b5f61165b83836115ca565b905092915050565b5f602082019050919050565b5f61167982611547565b6116838185611551565b9350836020820285016116958561155b565b805f5b858110156116d057848403895281516116b18582611650565b94506116bc83611663565b925060208a01995050600181019050611698565b50829750879550505050505092915050565b5f6020820190508181035f8301526116fa818461166f565b905092915050565b5f602082840312156117175761171661122c565b5b5f611724848285016113c4565b91505092915050565b5f6020820190506117405f8301846110f5565b92915050565b7f4e487b71000000000000000000000000000000000000000000000000000000005f52603260045260245ffd5b7f4e487b71000000000000000000000000000000000000000000000000000000005f52602260045260245ffd5b5f60028204905060018216806117b757607f821691505b6020821081036117ca576117c9611773565b5b50919050565b5f819050815f5260205f209050919050565b5f6020601f8301049050919050565b5f82821b905092915050565b5f6008830261182c7fffffffffffffffffffffffffffffffffffffffffffffffffffffffffffffffff826117f1565b61183686836117f1565b95508019841693508086168417925050509392505050565b5f819050919050565b5f61187161186c61186784610fc1565b61184e565b610fc1565b9050919050565b5f819050919050565b61188a83611857565b61189e61189682611878565b8484546117fd565b825550505050565b5f90565b6118b26118a6565b6118bd818484611881565b505050565b5b818110156118e0576118d55f826118aa565b6001810190506118c3565b5050565b601f821115611925576118f6816117d0565b6118ff846117e2565b8101602085101561190e578190505b61192261191a856117e2565b8301826118c2565b50505b505050565b5f82821c905092915050565b5f6119455f198460080261192a565b1980831691505092915050565b5f61195d8383611936565b9150826002028217905092915050565b6119768261106b565b67ffffffffffffffff81111561198f5761198e611291565b5b61199982546117a0565b6119a48282856118e4565b5f60209050601f8311600181146119d5575f84156119c3578287015190505b6119cd8582611952565b865550611a34565b601f1984166119e3866117d0565b5f5b82811015611a0a578489015182556001820191506020850194506020810190506119e5565b86831015611a275784890151611a23601f891682611936565b8355505b6001600288020188555050505b505050505050565b5f81549050611a4a816117a0565b9050919050565b818103611a5f575050611b34565b611a6882611a3c565b67ffffffffffffffff811115611a8157611a80611291565b5b611a8b82546117a0565b611a968282856118e4565b5f601f831160018114611ac3575f8415611ab1578287015490505b611abb8582611952565b865550611b2d565b601f198416611ad1876117d0565b9650611adc866117d0565b5f5b82811015611b0357848901548255600182019150600185019450602081019050611ade565b86831015611b205784890154611b1c601f891682611936565b8355505b6001600288020188555050505b5050505050505b565b7f496e76616c696420726f6c6c206e756d626572000000000000000000000000005f82015250565b5f611b6a601383611075565b9150611b7582611b36565b602082019050919050565b5f6020820190508181035f830152611b9781611b5e565b9050919050565b7f4e487b71000000000000000000000000000000000000000000000000000000005f52601160045260245ffd5b5f611bd582610fc1565b91507fffffffffffffffffffffffffffffffffffffffffffffffffffffffffffffffff8203611c0757611c06611b9e565b5b600182019050919050565b5f611c1c82610fc1565b9150611c2783610fc1565b9250828203905081811115611c3f57611c3e611b9e565b5b92915050565b5f611c4f82610fc1565b91505f8203611c6157611c60611b9e565b5b60018203905091905056fea264697066735822122061235c8bf570993eade9102f91fb5ae8ee94b5a85bf9d99440cceafc7684fe0864736f6c63430008150033",
			"opcodes": "PUSH1 0x80 PUSH1 0x40 MSTORE CALLVALUE DUP1 ISZERO PUSH2 0xF JUMPI PUSH0 DUP1 REVERT JUMPDEST POP PUSH2 0x1CA2 DUP1 PUSH2 0x1D PUSH0 CODECOPY PUSH0 RETURN INVALID PUSH1 0x80 PUSH1 0x40 MSTORE CALLVALUE DUP1 ISZERO PUSH2 0xF JUMPI PUSH0 DUP1 REVERT JUMPDEST POP PUSH1 0x4 CALLDATASIZE LT PUSH2 0x91 JUMPI PUSH0 CALLDATALOAD PUSH1 0xE0 SHR DUP1 PUSH4 0x9205C66E GT PUSH2 0x64 JUMPI DUP1 PUSH4 0x9205C66E EQ PUSH2 0x127 JUMPI DUP1 PUSH4 0x9E803801 EQ PUSH2 0x15C JUMPI DUP1 PUSH4 0xCF25823A EQ PUSH2 0x191 JUMPI DUP1 PUSH4 0xDF93D8F0 EQ PUSH2 0x1AD JUMPI DUP1 PUSH4 0xEDB6F7E7 EQ PUSH2 0x1CB JUMPI PUSH2 0x91 JUMP JUMPDEST DUP1 PUSH4 0xE0196A8 EQ PUSH2 0x95 JUMPI DUP1 PUSH4 0x712781F5 EQ PUSH2 0xB3 JUMPI DUP1 PUSH4 0x71E5EE5F EQ PUSH2 0xD6 JUMPI DUP1 PUSH4 0x743E8701 EQ PUSH2 0x10B JUMPI JUMPDEST PUSH0 DUP1 REVERT JUMPDEST PUSH2 0x9D PUSH2 0x1FB JUMP JUMPDEST PUSH1 0x40 MLOAD PUSH2 0xAA SWAP2 SWAP1 PUSH2 0x1052 JUMP JUMPDEST PUSH1 0x40 MLOAD DUP1 SWAP2 SUB SWAP1 RETURN JUMPDEST PUSH2 0xBB PUSH2 0x39A JUMP JUMPDEST PUSH1 0x40 MLOAD PUSH2 0xCD SWAP7 SWAP6 SWAP5 SWAP4 SWAP3 SWAP2 SWAP1 PUSH2 0x11BD JUMP JUMPDEST PUSH1 0x40 MLOAD DUP1 SWAP2 SUB SWAP1 RETURN JUMPDEST PUSH2 0xF0 PUSH1 0x4 DUP1 CALLDATASIZE SUB DUP2 ADD SWAP1 PUSH2 0xEB SWAP2 SWAP1 PUSH2 0x125E JUMP JUMPDEST PUSH2 0x462 JUMP JUMPDEST PUSH1 0x40 MLOAD PUSH2 0x102 SWAP7 SWAP6 SWAP5 SWAP4 SWAP3 SWAP2 SWAP1 PUSH2 0x11BD JUMP JUMPDEST PUSH1 0x40 MLOAD DUP1 SWAP2 SUB SWAP1 RETURN JUMPDEST PUSH2 0x125 PUSH1 0x4 DUP1 CALLDATASIZE SUB DUP2 ADD SWAP1 PUSH2 0x120 SWAP2 SWAP1 PUSH2 0x13FB JUMP JUMPDEST PUSH2 0x548 JUMP JUMPDEST STOP JUMPDEST PUSH2 0x141 PUSH1 0x4 DUP1 CALLDATASIZE SUB DUP2 ADD SWAP1 PUSH2 0x13C SWAP2 SWAP1 PUSH2 0x125E JUMP JUMPDEST PUSH2 0x6A8 JUMP JUMPDEST PUSH1 0x40 MLOAD PUSH2 0x153 SWAP7 SWAP6 SWAP5 SWAP4 SWAP3 SWAP2 SWAP1 PUSH2 0x11BD JUMP JUMPDEST PUSH1 0x40 MLOAD DUP1 SWAP2 SUB SWAP1 RETURN JUMPDEST PUSH2 0x176 PUSH1 0x4 DUP1 CALLDATASIZE SUB DUP2 ADD SWAP1 PUSH2 0x171 SWAP2 SWAP1 PUSH2 0x125E JUMP JUMPDEST PUSH2 0x77E JUMP JUMPDEST PUSH1 0x40 MLOAD PUSH2 0x188 SWAP7 SWAP6 SWAP5 SWAP4 SWAP3 SWAP2 SWAP1 PUSH2 0x11BD JUMP JUMPDEST PUSH1 0x40 MLOAD DUP1 SWAP2 SUB SWAP1 RETURN JUMPDEST PUSH2 0x1AB PUSH1 0x4 DUP1 CALLDATASIZE SUB DUP2 ADD SWAP1 PUSH2 0x1A6 SWAP2 SWAP1 PUSH2 0x148E JUMP JUMPDEST PUSH2 0x8B4 JUMP JUMPDEST STOP JUMPDEST PUSH2 0x1B5 PUSH2 0xBB8 JUMP JUMPDEST PUSH1 0x40 MLOAD PUSH2 0x1C2 SWAP2 SWAP1 PUSH2 0x16E2 JUMP JUMPDEST PUSH1 0x40 MLOAD DUP1 SWAP2 SUB SWAP1 RETURN JUMPDEST PUSH2 0x1E5 PUSH1 0x4 DUP1 CALLDATASIZE SUB DUP2 ADD SWAP1 PUSH2 0x1E0 SWAP2 SWAP1 PUSH2 0x1702 JUMP JUMPDEST PUSH2 0xEEB JUMP JUMPDEST PUSH1 0x40 MLOAD PUSH2 0x1F2 SWAP2 SWAP1 PUSH2 0x172D JUMP JUMPDEST PUSH1 0x40 MLOAD DUP1 SWAP2 SUB SWAP1 RETURN JUMPDEST PUSH2 0x203 PUSH2 0xF00 JUMP JUMPDEST PUSH1 0x7 PUSH0 DUP1 PUSH1 0x3 DUP2 GT ISZERO PUSH2 0x219 JUMPI PUSH2 0x218 PUSH2 0x1104 JUMP JUMPDEST JUMPDEST PUSH1 0x3 DUP2 GT ISZERO PUSH2 0x22B JUMPI PUSH2 0x22A PUSH2 0x1104 JUMP JUMPDEST JUMPDEST DUP2 MSTORE PUSH1 0x20 ADD SWAP1 DUP2 MSTORE PUSH1 0x20 ADD PUSH0 KECCAK256 SLOAD DUP2 PUSH0 PUSH1 0x3 DUP2 GT ISZERO PUSH2 0x24D JUMPI PUSH2 0x24C PUSH2 0x1104 JUMP JUMPDEST JUMPDEST PUSH1 0x4 DUP2 LT PUSH2 0x25E JUMPI PUSH2 0x25D PUSH2 0x1746 JUMP JUMPDEST JUMPDEST PUSH1 0x20 MUL ADD DUP2 DUP2 MSTORE POP POP PUSH1 0x7 PUSH0 PUSH1 0x1 PUSH1 0x3 DUP2 GT ISZERO PUSH2 0x27E JUMPI PUSH2 0x27D PUSH2 0x1104 JUMP JUMPDEST JUMPDEST PUSH1 0x3 DUP2 GT ISZERO PUSH2 0x290 JUMPI PUSH2 0x28F PUSH2 0x1104 JUMP JUMPDEST JUMPDEST DUP2 MSTORE PUSH1 0x20 ADD SWAP1 DUP2 MSTORE PUSH1 0x20 ADD PUSH0 KECCAK256 SLOAD DUP2 PUSH1 0x1 PUSH1 0x3 DUP2 GT ISZERO PUSH2 0x2B3 JUMPI PUSH2 0x2B2 PUSH2 0x1104 JUMP JUMPDEST JUMPDEST PUSH1 0x4 DUP2 LT PUSH2 0x2C4 JUMPI PUSH2 0x2C3 PUSH2 0x1746 JUMP JUMPDEST JUMPDEST PUSH1 0x20 MUL ADD DUP2 DUP2 MSTORE POP POP PUSH1 0x7 PUSH0 PUSH1 0x2 PUSH1 0x3 DUP2 GT ISZERO PUSH2 0x2E4 JUMPI PUSH2 0x2E3 PUSH2 0x1104 JUMP JUMPDEST JUMPDEST PUSH1 0x3 DUP2 GT ISZERO PUSH2 0x2F6 JUMPI PUSH2 0x2F5 PUSH2 0x1104 JUMP JUMPDEST JUMPDEST DUP2 MSTORE PUSH1 0x20 ADD SWAP1 DUP2 MSTORE PUSH1 0x20 ADD PUSH0 KECCAK256 SLOAD DUP2 PUSH1 0x2 PUSH1 0x3 DUP2 GT ISZERO PUSH2 0x319 JUMPI PUSH2 0x318 PUSH2 0x1104 JUMP JUMPDEST JUMPDEST PUSH1 0x4 DUP2 LT PUSH2 0x32A JUMPI PUSH2 0x329 PUSH2 0x1746 JUMP JUMPDEST JUMPDEST PUSH1 0x20 MUL ADD DUP2 DUP2 MSTORE POP POP PUSH1 0x7 PUSH0 PUSH1 0x3 DUP1 DUP2 GT ISZERO PUSH2 0x349 JUMPI PUSH2 0x348 PUSH2 0x1104 JUMP JUMPDEST JUMPDEST PUSH1 0x3 DUP2 GT ISZERO PUSH2 0x35B JUMPI PUSH2 0x35A PUSH2 0x1104 JUMP JUMPDEST JUMPDEST DUP2 MSTORE PUSH1 0x20 ADD SWAP1 DUP2 MSTORE PUSH1 0x20 ADD PUSH0 KECCAK256 SLOAD DUP2 PUSH1 0x3 DUP1 DUP2 GT ISZERO PUSH2 0x37D JUMPI PUSH2 0x37C PUSH2 0x1104 JUMP JUMPDEST JUMPDEST PUSH1 0x4 DUP2 LT PUSH2 0x38E JUMPI PUSH2 0x38D PUSH2 0x1746 JUMP JUMPDEST JUMPDEST PUSH1 0x20 MUL ADD DUP2 DUP2 MSTORE POP POP SWAP1 JUMP JUMPDEST PUSH1 0x2 DUP1 PUSH0 ADD DUP1 SLOAD PUSH2 0x3AA SWAP1 PUSH2 0x17A0 JUMP JUMPDEST DUP1 PUSH1 0x1F ADD PUSH1 0x20 DUP1 SWAP2 DIV MUL PUSH1 0x20 ADD PUSH1 0x40 MLOAD SWAP1 DUP2 ADD PUSH1 0x40 MSTORE DUP1 SWAP3 SWAP2 SWAP1 DUP2 DUP2 MSTORE PUSH1 0x20 ADD DUP3 DUP1 SLOAD PUSH2 0x3D6 SWAP1 PUSH2 0x17A0 JUMP JUMPDEST DUP1 ISZERO PUSH2 0x421 JUMPI DUP1 PUSH1 0x1F LT PUSH2 0x3F8 JUMPI PUSH2 0x100 DUP1 DUP4 SLOAD DIV MUL DUP4 MSTORE SWAP2 PUSH1 0x20 ADD SWAP2 PUSH2 0x421 JUMP JUMPDEST DUP3 ADD SWAP2 SWAP1 PUSH0 MSTORE PUSH1 0x20 PUSH0 KECCAK256 SWAP1 JUMPDEST DUP2 SLOAD DUP2 MSTORE SWAP1 PUSH1 0x1 ADD SWAP1 PUSH1 0x20 ADD DUP1 DUP4 GT PUSH2 0x404 JUMPI DUP3 SWAP1 SUB PUSH1 0x1F AND DUP3 ADD SWAP2 JUMPDEST POP POP POP POP POP SWAP1 DUP1 PUSH1 0x1 ADD SLOAD SWAP1 DUP1 PUSH1 0x2 ADD SLOAD SWAP1 DUP1 PUSH1 0x3 ADD PUSH0 SWAP1 SLOAD SWAP1 PUSH2 0x100 EXP SWAP1 DIV PUSH1 0xFF AND SWAP1 DUP1 PUSH1 0x3 ADD PUSH1 0x1 SWAP1 SLOAD SWAP1 PUSH2 0x100 EXP SWAP1 DIV PUSH1 0xFF AND SWAP1 DUP1 PUSH1 0x4 ADD SLOAD SWAP1 POP DUP7 JUMP JUMPDEST PUSH1 0x1 DUP2 DUP2 SLOAD DUP2 LT PUSH2 0x471 JUMPI PUSH0 DUP1 REVERT JUMPDEST SWAP1 PUSH0 MSTORE PUSH1 0x20 PUSH0 KECCAK256 SWAP1 PUSH1 0x5 MUL ADD PUSH0 SWAP2 POP SWAP1 POP DUP1 PUSH0 ADD DUP1 SLOAD PUSH2 0x490 SWAP1 PUSH2 0x17A0 JUMP JUMPDEST DUP1 PUSH1 0x1F ADD PUSH1 0x20 DUP1 SWAP2 DIV MUL PUSH1 0x20 ADD PUSH1 0x40 MLOAD SWAP1 DUP2 ADD PUSH1 0x40 MSTORE DUP1 SWAP3 SWAP2 SWAP1 DUP2 DUP2 MSTORE PUSH1 0x20 ADD DUP3 DUP1 SLOAD PUSH2 0x4BC SWAP1 PUSH2 0x17A0 JUMP JUMPDEST DUP1 ISZERO PUSH2 0x507 JUMPI DUP1 PUSH1 0x1F LT PUSH2 0x4DE JUMPI PUSH2 0x100 DUP1 DUP4 SLOAD DIV MUL DUP4 MSTORE SWAP2 PUSH1 0x20 ADD SWAP2 PUSH2 0x507 JUMP JUMPDEST DUP3 ADD SWAP2 SWAP1 PUSH0 MSTORE PUSH1 0x20 PUSH0 KECCAK256 SWAP1 JUMPDEST DUP2 SLOAD DUP2 MSTORE SWAP1 PUSH1 0x1 ADD SWAP1 PUSH1 0x20 ADD DUP1 DUP4 GT PUSH2 0x4EA JUMPI DUP3 SWAP1 SUB PUSH1 0x1F AND DUP3 ADD SWAP2 JUMPDEST POP POP POP POP POP SWAP1 DUP1 PUSH1 0x1 ADD SLOAD SWAP1 DUP1 PUSH1 0x2 ADD SLOAD SWAP1 DUP1 PUSH1 0x3 ADD PUSH0 SWAP1 SLOAD SWAP1 PUSH2 0x100 EXP SWAP1 DIV PUSH1 0xFF AND SWAP1 DUP1 PUSH1 0x3 ADD PUSH1 0x1 SWAP1 SLOAD SWAP1 PUSH2 0x100 EXP SWAP1 DIV PUSH1 0xFF AND SWAP1 DUP1 PUSH1 0x4 ADD SLOAD SWAP1 POP DUP7 JUMP JUMPDEST PUSH0 DUP1 PUSH0 DUP8 DUP2 MSTORE PUSH1 0x20 ADD SWAP1 DUP2 MSTORE PUSH1 0x20 ADD PUSH0 KECCAK256 SWAP1 POP DUP5 DUP2 PUSH0 ADD SWAP1 DUP2 PUSH2 0x56B SWAP2 SWAP1 PUSH2 0x196D JUMP JUMPDEST POP DUP4 DUP2 PUSH1 0x1 ADD DUP2 SWAP1 SSTORE POP DUP3 DUP2 PUSH1 0x3 ADD PUSH0 PUSH2 0x100 EXP DUP2 SLOAD DUP2 PUSH1 0xFF MUL NOT AND SWAP1 DUP4 PUSH1 0x3 DUP2 GT ISZERO PUSH2 0x59B JUMPI PUSH2 0x59A PUSH2 0x1104 JUMP JUMPDEST JUMPDEST MUL OR SWAP1 SSTORE POP DUP2 DUP2 PUSH1 0x3 ADD PUSH1 0x1 PUSH2 0x100 EXP DUP2 SLOAD DUP2 PUSH1 0xFF MUL NOT AND SWAP1 DUP4 PUSH1 0x3 DUP2 GT ISZERO PUSH2 0x5C7 JUMPI PUSH2 0x5C6 PUSH2 0x1104 JUMP JUMPDEST JUMPDEST MUL OR SWAP1 SSTORE POP PUSH1 0x1 DUP2 SWAP1 DUP1 PUSH1 0x1 DUP2 SLOAD ADD DUP1 DUP3 SSTORE DUP1 SWAP2 POP POP PUSH1 0x1 SWAP1 SUB SWAP1 PUSH0 MSTORE PUSH1 0x20 PUSH0 KECCAK256 SWAP1 PUSH1 0x5 MUL ADD PUSH0 SWAP1 SWAP2 SWAP1 SWAP2 SWAP1 SWAP2 POP PUSH0 DUP3 ADD DUP2 PUSH0 ADD SWAP1 DUP2 PUSH2 0x607 SWAP2 SWAP1 PUSH2 0x1A51 JUMP JUMPDEST POP PUSH1 0x1 DUP3 ADD SLOAD DUP2 PUSH1 0x1 ADD SSTORE PUSH1 0x2 DUP3 ADD SLOAD DUP2 PUSH1 0x2 ADD SSTORE PUSH1 0x3 DUP3 ADD PUSH0 SWAP1 SLOAD SWAP1 PUSH2 0x100 EXP SWAP1 DIV PUSH1 0xFF AND DUP2 PUSH1 0x3 ADD PUSH0 PUSH2 0x100 EXP DUP2 SLOAD DUP2 PUSH1 0xFF MUL NOT AND SWAP1 DUP4 PUSH1 0x3 DUP2 GT ISZERO PUSH2 0x652 JUMPI PUSH2 0x651 PUSH2 0x1104 JUMP JUMPDEST JUMPDEST MUL OR SWAP1 SSTORE POP PUSH1 0x3 DUP3 ADD PUSH1 0x1 SWAP1 SLOAD SWAP1 PUSH2 0x100 EXP SWAP1 DIV PUSH1 0xFF AND DUP2 PUSH1 0x3 ADD PUSH1 0x1 PUSH2 0x100 EXP DUP2 SLOAD DUP2 PUSH1 0xFF MUL NOT AND SWAP1 DUP4 PUSH1 0x3 DUP2 GT ISZERO PUSH2 0x68F JUMPI PUSH2 0x68E PUSH2 0x1104 JUMP JUMPDEST JUMPDEST MUL OR SWAP1 SSTORE POP PUSH1 0x4 DUP3 ADD SLOAD DUP2 PUSH1 0x4 ADD SSTORE POP POP POP POP POP POP POP POP JUMP JUMPDEST PUSH0 PUSH1 0x20 MSTORE DUP1 PUSH0 MSTORE PUSH1 0x40 PUSH0 KECCAK256 PUSH0 SWAP2 POP SWAP1 POP DUP1 PUSH0 ADD DUP1 SLOAD PUSH2 0x6C6 SWAP1 PUSH2 0x17A0 JUMP JUMPDEST DUP1 PUSH1 0x1F ADD PUSH1 0x20 DUP1 SWAP2 DIV MUL PUSH1 0x20 ADD PUSH1 0x40 MLOAD SWAP1 DUP2 ADD PUSH1 0x40 MSTORE DUP1 SWAP3 SWAP2 SWAP1 DUP2 DUP2 MSTORE PUSH1 0x20 ADD DUP3 DUP1 SLOAD PUSH2 0x6F2 SWAP1 PUSH2 0x17A0 JUMP JUMPDEST DUP1 ISZERO PUSH2 0x73D JUMPI DUP1 PUSH1 0x1F LT PUSH2 0x714 JUMPI PUSH2 0x100 DUP1 DUP4 SLOAD DIV MUL DUP4 MSTORE SWAP2 PUSH1 0x20 ADD SWAP2 PUSH2 0x73D JUMP JUMPDEST DUP3 ADD SWAP2 SWAP1 PUSH0 MSTORE PUSH1 0x20 PUSH0 KECCAK256 SWAP1 JUMPDEST DUP2 SLOAD DUP2 MSTORE SWAP1 PUSH1 0x1 ADD SWAP1 PUSH1 0x20 ADD DUP1 DUP4 GT PUSH2 0x720 JUMPI DUP3 SWAP1 SUB PUSH1 0x1F AND DUP3 ADD SWAP2 JUMPDEST POP POP POP POP POP SWAP1 DUP1 PUSH1 0x1 ADD SLOAD SWAP1 DUP1 PUSH1 0x2 ADD SLOAD SWAP1 DUP1 PUSH1 0x3 ADD PUSH0 SWAP1 SLOAD SWAP1 PUSH2 0x100 EXP SWAP1 DIV PUSH1 0xFF AND SWAP1 DUP1 PUSH1 0x3 ADD PUSH1 0x1 SWAP1 SLOAD SWAP1 PUSH2 0x100 EXP SWAP1 DIV PUSH1 0xFF AND SWAP1 DUP1 PUSH1 0x4 ADD SLOAD SWAP1 POP DUP7 JUMP JUMPDEST PUSH1 0x60 PUSH0 DUP1 PUSH0 DUP1 PUSH0 PUSH1 0x1 DUP1 SLOAD SWAP1 POP DUP8 LT PUSH2 0x7CC JUMPI PUSH1 0x40 MLOAD PUSH32 0x8C379A000000000000000000000000000000000000000000000000000000000 DUP2 MSTORE PUSH1 0x4 ADD PUSH2 0x7C3 SWAP1 PUSH2 0x1B80 JUMP JUMPDEST PUSH1 0x40 MLOAD DUP1 SWAP2 SUB SWAP1 REVERT JUMPDEST PUSH0 DUP1 PUSH0 DUP10 DUP2 MSTORE PUSH1 0x20 ADD SWAP1 DUP2 MSTORE PUSH1 0x20 ADD PUSH0 KECCAK256 SWAP1 POP DUP1 PUSH0 ADD DUP2 PUSH1 0x1 ADD SLOAD DUP3 PUSH1 0x2 ADD SLOAD DUP4 PUSH1 0x3 ADD PUSH0 SWAP1 SLOAD SWAP1 PUSH2 0x100 EXP SWAP1 DIV PUSH1 0xFF AND DUP5 PUSH1 0x3 ADD PUSH1 0x1 SWAP1 SLOAD SWAP1 PUSH2 0x100 EXP SWAP1 DIV PUSH1 0xFF AND DUP6 PUSH1 0x4 ADD SLOAD DUP6 DUP1 SLOAD PUSH2 0x820 SWAP1 PUSH2 0x17A0 JUMP JUMPDEST DUP1 PUSH1 0x1F ADD PUSH1 0x20 DUP1 SWAP2 DIV MUL PUSH1 0x20 ADD PUSH1 0x40 MLOAD SWAP1 DUP2 ADD PUSH1 0x40 MSTORE DUP1 SWAP3 SWAP2 SWAP1 DUP2 DUP2 MSTORE PUSH1 0x20 ADD DUP3 DUP1 SLOAD PUSH2 0x84C SWAP1 PUSH2 0x17A0 JUMP JUMPDEST DUP1 ISZERO PUSH2 0x897 JUMPI DUP1 PUSH1 0x1F LT PUSH2 0x86E JUMPI PUSH2 0x100 DUP1 DUP4 SLOAD DIV MUL DUP4 MSTORE SWAP2 PUSH1 0x20 ADD SWAP2 PUSH2 0x897 JUMP JUMPDEST DUP3 ADD SWAP2 SWAP1 PUSH0 MSTORE PUSH1 0x20 PUSH0 KECCAK256 SWAP1 JUMPDEST DUP2 SLOAD DUP2 MSTORE SWAP1 PUSH1 0x1 ADD SWAP1 PUSH1 0x20 ADD DUP1 DUP4 GT PUSH2 0x87A JUMPI DUP3 SWAP1 SUB PUSH1 0x1F AND DUP3 ADD SWAP2 JUMPDEST POP POP POP POP POP SWAP6 POP SWAP7 POP SWAP7 POP SWAP7 POP SWAP7 POP SWAP7 POP SWAP7 POP POP SWAP2 SWAP4 SWAP6 POP SWAP2 SWAP4 SWAP6 JUMP JUMPDEST PUSH1 0x1 PUSH1 0x3 DUP2 GT ISZERO PUSH2 0x8C8 JUMPI PUSH2 0x8C7 PUSH2 0x1104 JUMP JUMPDEST JUMPDEST DUP3 PUSH1 0x3 DUP2 GT ISZERO PUSH2 0x8DB JUMPI PUSH2 0x8DA PUSH2 0x1104 JUMP JUMPDEST JUMPDEST EQ DUP1 PUSH2 0x90A JUMPI POP PUSH1 0x3 DUP1 DUP2 GT ISZERO PUSH2 0x8F5 JUMPI PUSH2 0x8F4 PUSH2 0x1104 JUMP JUMPDEST JUMPDEST DUP3 PUSH1 0x3 DUP2 GT ISZERO PUSH2 0x908 JUMPI PUSH2 0x907 PUSH2 0x1104 JUMP JUMPDEST JUMPDEST EQ JUMPDEST ISZERO PUSH2 0x913 JUMPI PUSH0 SWAP1 POP JUMPDEST PUSH0 PUSH1 0x2 SWAP1 POP DUP7 DUP2 PUSH0 ADD SWAP1 DUP2 PUSH2 0x928 SWAP2 SWAP1 PUSH2 0x196D JUMP JUMPDEST POP DUP6 DUP2 PUSH1 0x1 ADD DUP2 SWAP1 SSTORE POP DUP5 DUP2 PUSH1 0x2 ADD DUP2 SWAP1 SSTORE POP DUP4 DUP2 PUSH1 0x3 ADD PUSH0 PUSH2 0x100 EXP DUP2 SLOAD DUP2 PUSH1 0xFF MUL NOT AND SWAP1 DUP4 PUSH1 0x3 DUP2 GT ISZERO PUSH2 0x961 JUMPI PUSH2 0x960 PUSH2 0x1104 JUMP JUMPDEST JUMPDEST MUL OR SWAP1 SSTORE POP DUP3 DUP2 PUSH1 0x3 ADD PUSH1 0x1 PUSH2 0x100 EXP DUP2 SLOAD DUP2 PUSH1 0xFF MUL NOT AND SWAP1 DUP4 PUSH1 0x3 DUP2 GT ISZERO PUSH2 0x98D JUMPI PUSH2 0x98C PUSH2 0x1104 JUMP JUMPDEST JUMPDEST MUL OR SWAP1 SSTORE POP DUP2 DUP2 PUSH1 0x4 ADD DUP2 SWAP1 SSTORE POP PUSH1 0x1 DUP2 SWAP1 DUP1 PUSH1 0x1 DUP2 SLOAD ADD DUP1 DUP3 SSTORE DUP1 SWAP2 POP POP PUSH1 0x1 SWAP1 SUB SWAP1 PUSH0 MSTORE PUSH1 0x20 PUSH0 KECCAK256 SWAP1 PUSH1 0x5 MUL ADD PUSH0 SWAP1 SWAP2 SWAP1 SWAP2 SWAP1 SWAP2 POP PUSH0 DUP3 ADD DUP2 PUSH0 ADD SWAP1 DUP2 PUSH2 0x9D6 SWAP2 SWAP1 PUSH2 0x1A51 JUMP JUMPDEST POP PUSH1 0x1 DUP3 ADD SLOAD DUP2 PUSH1 0x1 ADD SSTORE PUSH1 0x2 DUP3 ADD SLOAD DUP2 PUSH1 0x2 ADD SSTORE PUSH1 0x3 DUP3 ADD PUSH0 SWAP1 SLOAD SWAP1 PUSH2 0x100 EXP SWAP1 DIV PUSH1 0xFF AND DUP2 PUSH1 0x3 ADD PUSH0 PUSH2 0x100 EXP DUP2 SLOAD DUP2 PUSH1 0xFF MUL NOT AND SWAP1 DUP4 PUSH1 0x3 DUP2 GT ISZERO PUSH2 0xA21 JUMPI PUSH2 0xA20 PUSH2 0x1104 JUMP JUMPDEST JUMPDEST MUL OR SWAP1 SSTORE POP PUSH1 0x3 DUP3 ADD PUSH1 0x1 SWAP1 SLOAD SWAP1 PUSH2 0x100 EXP SWAP1 DIV PUSH1 0xFF AND DUP2 PUSH1 0x3 ADD PUSH1 0x1 PUSH2 0x100 EXP DUP2 SLOAD DUP2 PUSH1 0xFF MUL NOT AND SWAP1 DUP4 PUSH1 0x3 DUP2 GT ISZERO PUSH2 0xA5E JUMPI PUSH2 0xA5D PUSH2 0x1104 JUMP JUMPDEST JUMPDEST MUL OR SWAP1 SSTORE POP PUSH1 0x4 DUP3 ADD SLOAD DUP2 PUSH1 0x4 ADD SSTORE POP POP PUSH1 0x40 MLOAD DUP1 PUSH1 0xC0 ADD PUSH1 0x40 MSTORE DUP1 DUP9 DUP2 MSTORE PUSH1 0x20 ADD DUP8 DUP2 MSTORE PUSH1 0x20 ADD DUP7 DUP2 MSTORE PUSH1 0x20 ADD DUP6 PUSH1 0x3 DUP2 GT ISZERO PUSH2 0xA9F JUMPI PUSH2 0xA9E PUSH2 0x1104 JUMP JUMPDEST JUMPDEST DUP2 MSTORE PUSH1 0x20 ADD DUP5 PUSH1 0x3 DUP2 GT ISZERO PUSH2 0xAB7 JUMPI PUSH2 0xAB6 PUSH2 0x1104 JUMP JUMPDEST JUMPDEST DUP2 MSTORE PUSH1 0x20 ADD DUP4 DUP2 MSTORE POP PUSH0 DUP1 DUP11 DUP2 MSTORE PUSH1 0x20 ADD SWAP1 DUP2 MSTORE PUSH1 0x20 ADD PUSH0 KECCAK256 PUSH0 DUP3 ADD MLOAD DUP2 PUSH0 ADD SWAP1 DUP2 PUSH2 0xAE3 SWAP2 SWAP1 PUSH2 0x196D JUMP JUMPDEST POP PUSH1 0x20 DUP3 ADD MLOAD DUP2 PUSH1 0x1 ADD SSTORE PUSH1 0x40 DUP3 ADD MLOAD DUP2 PUSH1 0x2 ADD SSTORE PUSH1 0x60 DUP3 ADD MLOAD DUP2 PUSH1 0x3 ADD PUSH0 PUSH2 0x100 EXP DUP2 SLOAD DUP2 PUSH1 0xFF MUL NOT AND SWAP1 DUP4 PUSH1 0x3 DUP2 GT ISZERO PUSH2 0xB22 JUMPI PUSH2 0xB21 PUSH2 0x1104 JUMP JUMPDEST JUMPDEST MUL OR SWAP1 SSTORE POP PUSH1 0x80 DUP3 ADD MLOAD DUP2 PUSH1 0x3 ADD PUSH1 0x1 PUSH2 0x100 EXP DUP2 SLOAD DUP2 PUSH1 0xFF MUL NOT AND SWAP1 DUP4 PUSH1 0x3 DUP2 GT ISZERO PUSH2 0xB52 JUMPI PUSH2 0xB51 PUSH2 0x1104 JUMP JUMPDEST JUMPDEST MUL OR SWAP1 SSTORE POP PUSH1 0xA0 DUP3 ADD MLOAD DUP2 PUSH1 0x4 ADD SSTORE SWAP1 POP POP PUSH1 0x7 PUSH0 DUP6 PUSH1 0x3 DUP2 GT ISZERO PUSH2 0xB7A JUMPI PUSH2 0xB79 PUSH2 0x1104 JUMP JUMPDEST JUMPDEST PUSH1 0x3 DUP2 GT ISZERO PUSH2 0xB8C JUMPI PUSH2 0xB8B PUSH2 0x1104 JUMP JUMPDEST JUMPDEST DUP2 MSTORE PUSH1 0x20 ADD SWAP1 DUP2 MSTORE PUSH1 0x20 ADD PUSH0 KECCAK256 PUSH0 DUP2 SLOAD DUP1 SWAP3 SWAP2 SWAP1 PUSH2 0xBA9 SWAP1 PUSH2 0x1BCB JUMP JUMPDEST SWAP2 SWAP1 POP SSTORE POP POP POP POP POP POP POP POP POP JUMP JUMPDEST PUSH2 0xBC0 PUSH2 0xF22 JUMP JUMPDEST PUSH2 0xBC8 PUSH2 0xF22 JUMP JUMPDEST PUSH0 JUMPDEST PUSH1 0x1 DUP1 SLOAD SWAP1 POP DUP2 LT ISZERO PUSH2 0xEE3 JUMPI PUSH1 0x1 PUSH1 0x3 DUP2 GT ISZERO PUSH2 0xBEB JUMPI PUSH2 0xBEA PUSH2 0x1104 JUMP JUMPDEST JUMPDEST PUSH1 0x1 DUP3 DUP2 SLOAD DUP2 LT PUSH2 0xBFF JUMPI PUSH2 0xBFE PUSH2 0x1746 JUMP JUMPDEST JUMPDEST SWAP1 PUSH0 MSTORE PUSH1 0x20 PUSH0 KECCAK256 SWAP1 PUSH1 0x5 MUL ADD PUSH1 0x3 ADD PUSH0 SWAP1 SLOAD SWAP1 PUSH2 0x100 EXP SWAP1 DIV PUSH1 0xFF AND PUSH1 0x3 DUP2 GT ISZERO PUSH2 0xC2D JUMPI PUSH2 0xC2C PUSH2 0x1104 JUMP JUMPDEST JUMPDEST EQ DUP1 ISZERO PUSH2 0xC8D JUMPI POP PUSH0 PUSH1 0x3 DUP2 GT ISZERO PUSH2 0xC48 JUMPI PUSH2 0xC47 PUSH2 0x1104 JUMP JUMPDEST JUMPDEST PUSH1 0x1 DUP3 DUP2 SLOAD DUP2 LT PUSH2 0xC5C JUMPI PUSH2 0xC5B PUSH2 0x1746 JUMP JUMPDEST JUMPDEST SWAP1 PUSH0 MSTORE PUSH1 0x20 PUSH0 KECCAK256 SWAP1 PUSH1 0x5 MUL ADD PUSH1 0x3 ADD PUSH1 0x1 SWAP1 SLOAD SWAP1 PUSH2 0x100 EXP SWAP1 DIV PUSH1 0xFF AND PUSH1 0x3 DUP2 GT ISZERO PUSH2 0xC8B JUMPI PUSH2 0xC8A PUSH2 0x1104 JUMP JUMPDEST JUMPDEST EQ JUMPDEST ISZERO PUSH2 0xED0 JUMPI PUSH0 JUMPDEST PUSH1 0x3 DUP2 LT ISZERO PUSH2 0xECE JUMPI PUSH0 DUP3 EQ DUP1 PUSH2 0xCE8 JUMPI POP DUP3 DUP2 PUSH1 0x3 DUP2 LT PUSH2 0xCB9 JUMPI PUSH2 0xCB8 PUSH2 0x1746 JUMP JUMPDEST JUMPDEST PUSH1 0x20 MUL ADD MLOAD PUSH1 0xA0 ADD MLOAD PUSH1 0x1 DUP4 DUP2 SLOAD DUP2 LT PUSH2 0xCD6 JUMPI PUSH2 0xCD5 PUSH2 0x1746 JUMP JUMPDEST JUMPDEST SWAP1 PUSH0 MSTORE PUSH1 0x20 PUSH0 KECCAK256 SWAP1 PUSH1 0x5 MUL ADD PUSH1 0x4 ADD SLOAD GT JUMPDEST ISZERO PUSH2 0xEBB JUMPI PUSH0 PUSH1 0x2 SWAP1 POP JUMPDEST DUP2 DUP2 GT ISZERO PUSH2 0xD4D JUMPI DUP4 PUSH1 0x1 DUP3 PUSH2 0xD09 SWAP2 SWAP1 PUSH2 0x1C12 JUMP JUMPDEST PUSH1 0x3 DUP2 LT PUSH2 0xD1A JUMPI PUSH2 0xD19 PUSH2 0x1746 JUMP JUMPDEST JUMPDEST PUSH1 0x20 MUL ADD MLOAD DUP5 DUP3 PUSH1 0x3 DUP2 LT PUSH2 0xD32 JUMPI PUSH2 0xD31 PUSH2 0x1746 JUMP JUMPDEST JUMPDEST PUSH1 0x20 MUL ADD DUP2 SWAP1 MSTORE POP DUP1 DUP1 PUSH2 0xD45 SWAP1 PUSH2 0x1C45 JUMP JUMPDEST SWAP2 POP POP PUSH2 0xCF3 JUMP JUMPDEST POP PUSH1 0x1 DUP3 DUP2 SLOAD DUP2 LT PUSH2 0xD62 JUMPI PUSH2 0xD61 PUSH2 0x1746 JUMP JUMPDEST JUMPDEST SWAP1 PUSH0 MSTORE PUSH1 0x20 PUSH0 KECCAK256 SWAP1 PUSH1 0x5 MUL ADD PUSH1 0x40 MLOAD DUP1 PUSH1 0xC0 ADD PUSH1 0x40 MSTORE SWAP1 DUP2 PUSH0 DUP3 ADD DUP1 SLOAD PUSH2 0xD88 SWAP1 PUSH2 0x17A0 JUMP JUMPDEST DUP1 PUSH1 0x1F ADD PUSH1 0x20 DUP1 SWAP2 DIV MUL PUSH1 0x20 ADD PUSH1 0x40 MLOAD SWAP1 DUP2 ADD PUSH1 0x40 MSTORE DUP1 SWAP3 SWAP2 SWAP1 DUP2 DUP2 MSTORE PUSH1 0x20 ADD DUP3 DUP1 SLOAD PUSH2 0xDB4 SWAP1 PUSH2 0x17A0 JUMP JUMPDEST DUP1 ISZERO PUSH2 0xDFF JUMPI DUP1 PUSH1 0x1F LT PUSH2 0xDD6 JUMPI PUSH2 0x100 DUP1 DUP4 SLOAD DIV MUL DUP4 MSTORE SWAP2 PUSH1 0x20 ADD SWAP2 PUSH2 0xDFF JUMP JUMPDEST DUP3 ADD SWAP2 SWAP1 PUSH0 MSTORE PUSH1 0x20 PUSH0 KECCAK256 SWAP1 JUMPDEST DUP2 SLOAD DUP2 MSTORE SWAP1 PUSH1 0x1 ADD SWAP1 PUSH1 0x20 ADD DUP1 DUP4 GT PUSH2 0xDE2 JUMPI DUP3 SWAP1 SUB PUSH1 0x1F AND DUP3 ADD SWAP2 JUMPDEST POP POP POP POP POP DUP2 MSTORE PUSH1 0x20 ADD PUSH1 0x1 DUP3 ADD SLOAD DUP2 MSTORE PUSH1 0x20 ADD PUSH1 0x2 DUP3 ADD SLOAD DUP2 MSTORE PUSH1 0x20 ADD PUSH1 0x3 DUP3 ADD PUSH0 SWAP1 SLOAD SWAP1 PUSH2 0x100 EXP SWAP1 DIV PUSH1 0xFF AND PUSH1 0x3 DUP2 GT ISZERO PUSH2 0xE40 JUMPI PUSH2 0xE3F PUSH2 0x1104 JUMP JUMPDEST JUMPDEST PUSH1 0x3 DUP2 GT ISZERO PUSH2 0xE52 JUMPI PUSH2 0xE51 PUSH2 0x1104 JUMP JUMPDEST JUMPDEST DUP2 MSTORE PUSH1 0x20 ADD PUSH1 0x3 DUP3 ADD PUSH1 0x1 SWAP1 SLOAD SWAP1 PUSH2 0x100 EXP SWAP1 DIV PUSH1 0xFF AND PUSH1 0x3 DUP2 GT ISZERO PUSH2 0xE7B JUMPI PUSH2 0xE7A PUSH2 0x1104 JUMP JUMPDEST JUMPDEST PUSH1 0x3 DUP2 GT ISZERO PUSH2 0xE8D JUMPI PUSH2 0xE8C PUSH2 0x1104 JUMP JUMPDEST JUMPDEST DUP2 MSTORE PUSH1 0x20 ADD PUSH1 0x4 DUP3 ADD SLOAD DUP2 MSTORE POP POP DUP4 DUP3 PUSH1 0x3 DUP2 LT PUSH2 0xEAE JUMPI PUSH2 0xEAD PUSH2 0x1746 JUMP JUMPDEST JUMPDEST PUSH1 0x20 MUL ADD DUP2 SWAP1 MSTORE POP PUSH2 0xECE JUMP JUMPDEST DUP1 DUP1 PUSH2 0xEC6 SWAP1 PUSH2 0x1BCB JUMP JUMPDEST SWAP2 POP POP PUSH2 0xC94 JUMP JUMPDEST POP JUMPDEST DUP1 DUP1 PUSH2 0xEDB SWAP1 PUSH2 0x1BCB JUMP JUMPDEST SWAP2 POP POP PUSH2 0xBCA JUMP JUMPDEST POP DUP1 SWAP2 POP POP SWAP1 JUMP JUMPDEST PUSH1 0x7 PUSH1 0x20 MSTORE DUP1 PUSH0 MSTORE PUSH1 0x40 PUSH0 KECCAK256 PUSH0 SWAP2 POP SWAP1 POP SLOAD DUP2 JUMP JUMPDEST PUSH1 0x40 MLOAD DUP1 PUSH1 0x80 ADD PUSH1 0x40 MSTORE DUP1 PUSH1 0x4 SWAP1 PUSH1 0x20 DUP3 MUL DUP1 CALLDATASIZE DUP4 CALLDATACOPY DUP1 DUP3 ADD SWAP2 POP POP SWAP1 POP POP SWAP1 JUMP JUMPDEST PUSH1 0x40 MLOAD DUP1 PUSH1 0x60 ADD PUSH1 0x40 MSTORE DUP1 PUSH1 0x3 SWAP1 JUMPDEST PUSH2 0xF39 PUSH2 0xF4F JUMP JUMPDEST DUP2 MSTORE PUSH1 0x20 ADD SWAP1 PUSH1 0x1 SWAP1 SUB SWAP1 DUP2 PUSH2 0xF31 JUMPI SWAP1 POP POP SWAP1 JUMP JUMPDEST PUSH1 0x40 MLOAD DUP1 PUSH1 0xC0 ADD PUSH1 0x40 MSTORE DUP1 PUSH1 0x60 DUP2 MSTORE PUSH1 0x20 ADD PUSH0 DUP2 MSTORE PUSH1 0x20 ADD PUSH0 DUP2 MSTORE PUSH1 0x20 ADD PUSH0 PUSH1 0x3 DUP2 GT ISZERO PUSH2 0xF80 JUMPI PUSH2 0xF7F PUSH2 0x1104 JUMP JUMPDEST JUMPDEST DUP2 MSTORE PUSH1 0x20 ADD PUSH0 PUSH1 0x3 DUP2 GT ISZERO PUSH2 0xF98 JUMPI PUSH2 0xF97 PUSH2 0x1104 JUMP JUMPDEST JUMPDEST DUP2 MSTORE PUSH1 0x20 ADD PUSH0 DUP2 MSTORE POP SWAP1 JUMP JUMPDEST PUSH0 PUSH1 0x4 SWAP1 POP SWAP2 SWAP1 POP JUMP JUMPDEST PUSH0 DUP2 SWAP1 POP SWAP3 SWAP2 POP POP JUMP JUMPDEST PUSH0 DUP2 SWAP1 POP SWAP2 SWAP1 POP JUMP JUMPDEST PUSH0 DUP2 SWAP1 POP SWAP2 SWAP1 POP JUMP JUMPDEST PUSH2 0xFD3 DUP2 PUSH2 0xFC1 JUMP JUMPDEST DUP3 MSTORE POP POP JUMP JUMPDEST PUSH0 PUSH2 0xFE4 DUP4 DUP4 PUSH2 0xFCA JUMP JUMPDEST PUSH1 0x20 DUP4 ADD SWAP1 POP SWAP3 SWAP2 POP POP JUMP JUMPDEST PUSH0 PUSH1 0x20 DUP3 ADD SWAP1 POP SWAP2 SWAP1 POP JUMP JUMPDEST PUSH2 0x1005 DUP2 PUSH2 0xFA4 JUMP JUMPDEST PUSH2 0x100F DUP2 DUP5 PUSH2 0xFAE JUMP JUMPDEST SWAP3 POP PUSH2 0x101A DUP3 PUSH2 0xFB8 JUMP JUMPDEST DUP1 PUSH0 JUMPDEST DUP4 DUP2 LT ISZERO PUSH2 0x104A JUMPI DUP2 MLOAD PUSH2 0x1031 DUP8 DUP3 PUSH2 0xFD9 JUMP JUMPDEST SWAP7 POP PUSH2 0x103C DUP4 PUSH2 0xFF0 JUMP JUMPDEST SWAP3 POP POP PUSH1 0x1 DUP2 ADD SWAP1 POP PUSH2 0x101D JUMP JUMPDEST POP POP POP POP POP POP JUMP JUMPDEST PUSH0 PUSH1 0x80 DUP3 ADD SWAP1 POP PUSH2 0x1065 PUSH0 DUP4 ADD DUP5 PUSH2 0xFFC JUMP JUMPDEST SWAP3 SWAP2 POP POP JUMP JUMPDEST PUSH0 DUP2 MLOAD SWAP1 POP SWAP2 SWAP1 POP JUMP JUMPDEST PUSH0 DUP3 DUP3 MSTORE PUSH1 0x20 DUP3 ADD SWAP1 POP SWAP3 SWAP2 POP POP JUMP JUMPDEST PUSH0 JUMPDEST DUP4 DUP2 LT ISZERO PUSH2 0x10A2 JUMPI DUP1 DUP3 ADD MLOAD DUP2 DUP5 ADD MSTORE PUSH1 0x20 DUP2 ADD SWAP1 POP PUSH2 0x1087 JUMP JUMPDEST PUSH0 DUP5 DUP5 ADD MSTORE POP POP POP POP JUMP JUMPDEST PUSH0 PUSH1 0x1F NOT PUSH1 0x1F DUP4 ADD AND SWAP1 POP SWAP2 SWAP1 POP JUMP JUMPDEST PUSH0 PUSH2 0x10C7 DUP3 PUSH2 0x106B JUMP JUMPDEST PUSH2 0x10D1 DUP2 DUP6 PUSH2 0x1075 JUMP JUMPDEST SWAP4 POP PUSH2 0x10E1 DUP2 DUP6 PUSH1 0x20 DUP7 ADD PUSH2 0x1085 JUMP JUMPDEST PUSH2 0x10EA DUP2 PUSH2 0x10AD JUMP JUMPDEST DUP5 ADD SWAP2 POP POP SWAP3 SWAP2 POP POP JUMP JUMPDEST PUSH2 0x10FE DUP2 PUSH2 0xFC1 JUMP JUMPDEST DUP3 MSTORE POP POP JUMP JUMPDEST PUSH32 0x4E487B7100000000000000000000000000000000000000000000000000000000 PUSH0 MSTORE PUSH1 0x21 PUSH1 0x4 MSTORE PUSH1 0x24 PUSH0 REVERT JUMPDEST PUSH1 0x4 DUP2 LT PUSH2 0x1142 JUMPI PUSH2 0x1141 PUSH2 0x1104 JUMP JUMPDEST JUMPDEST POP JUMP JUMPDEST PUSH0 DUP2 SWAP1 POP PUSH2 0x1152 DUP3 PUSH2 0x1131 JUMP JUMPDEST SWAP2 SWAP1 POP JUMP JUMPDEST PUSH0 PUSH2 0x1161 DUP3 PUSH2 0x1145 JUMP JUMPDEST SWAP1 POP SWAP2 SWAP1 POP JUMP JUMPDEST PUSH2 0x1171 DUP2 PUSH2 0x1157 JUMP JUMPDEST DUP3 MSTORE POP POP JUMP JUMPDEST PUSH1 0x4 DUP2 LT PUSH2 0x1188 JUMPI PUSH2 0x1187 PUSH2 0x1104 JUMP JUMPDEST JUMPDEST POP JUMP JUMPDEST PUSH0 DUP2 SWAP1 POP PUSH2 0x1198 DUP3 PUSH2 0x1177 JUMP JUMPDEST SWAP2 SWAP1 POP JUMP JUMPDEST PUSH0 PUSH2 0x11A7 DUP3 PUSH2 0x118B JUMP JUMPDEST SWAP1 POP SWAP2 SWAP1 POP JUMP JUMPDEST PUSH2 0x11B7 DUP2 PUSH2 0x119D JUMP JUMPDEST DUP3 MSTORE POP POP JUMP JUMPDEST PUSH0 PUSH1 0xC0 DUP3 ADD SWAP1 POP DUP2 DUP2 SUB PUSH0 DUP4 ADD MSTORE PUSH2 0x11D5 DUP2 DUP10 PUSH2 0x10BD JUMP JUMPDEST SWAP1 POP PUSH2 0x11E4 PUSH1 0x20 DUP4 ADD DUP9 PUSH2 0x10F5 JUMP JUMPDEST PUSH2 0x11F1 PUSH1 0x40 DUP4 ADD DUP8 PUSH2 0x10F5 JUMP JUMPDEST PUSH2 0x11FE PUSH1 0x60 DUP4 ADD DUP7 PUSH2 0x1168 JUMP JUMPDEST PUSH2 0x120B PUSH1 0x80 DUP4 ADD DUP6 PUSH2 0x11AE JUMP JUMPDEST PUSH2 0x1218 PUSH1 0xA0 DUP4 ADD DUP5 PUSH2 0x10F5 JUMP JUMPDEST SWAP8 SWAP7 POP POP POP POP POP POP POP JUMP JUMPDEST PUSH0 PUSH1 0x40 MLOAD SWAP1 POP SWAP1 JUMP JUMPDEST PUSH0 DUP1 REVERT JUMPDEST PUSH0 DUP1 REVERT JUMPDEST PUSH2 0x123D DUP2 PUSH2 0xFC1 JUMP JUMPDEST DUP2 EQ PUSH2 0x1247 JUMPI PUSH0 DUP1 REVERT JUMPDEST POP JUMP JUMPDEST PUSH0 DUP2 CALLDATALOAD SWAP1 POP PUSH2 0x1258 DUP2 PUSH2 0x1234 JUMP JUMPDEST SWAP3 SWAP2 POP POP JUMP JUMPDEST PUSH0 PUSH1 0x20 DUP3 DUP5 SUB SLT ISZERO PUSH2 0x1273 JUMPI PUSH2 0x1272 PUSH2 0x122C JUMP JUMPDEST JUMPDEST PUSH0 PUSH2 0x1280 DUP5 DUP3 DUP6 ADD PUSH2 0x124A JUMP JUMPDEST SWAP2 POP POP SWAP3 SWAP2 POP POP JUMP JUMPDEST PUSH0 DUP1 REVERT JUMPDEST PUSH0 DUP1 REVERT JUMPDEST PUSH32 0x4E487B7100000000000000000000000000000000000000000000000000000000 PUSH0 MSTORE PUSH1 0x41 PUSH1 0x4 MSTORE PUSH1 0x24 PUSH0 REVERT JUMPDEST PUSH2 0x12C7 DUP3 PUSH2 0x10AD JUMP JUMPDEST DUP2 ADD DUP2 DUP2 LT PUSH8 0xFFFFFFFFFFFFFFFF DUP3 GT OR ISZERO PUSH2 0x12E6 JUMPI PUSH2 0x12E5 PUSH2 0x1291 JUMP JUMPDEST JUMPDEST DUP1 PUSH1 0x40 MSTORE POP POP POP JUMP JUMPDEST PUSH0 PUSH2 0x12F8 PUSH2 0x1223 JUMP JUMPDEST SWAP1 POP PUSH2 0x1304 DUP3 DUP3 PUSH2 0x12BE JUMP JUMPDEST SWAP2 SWAP1 POP JUMP JUMPDEST PUSH0 PUSH8 0xFFFFFFFFFFFFFFFF DUP3 GT ISZERO PUSH2 0x1323 JUMPI PUSH2 0x1322 PUSH2 0x1291 JUMP JUMPDEST JUMPDEST PUSH2 0x132C DUP3 PUSH2 0x10AD JUMP JUMPDEST SWAP1 POP PUSH1 0x20 DUP2 ADD SWAP1 POP SWAP2 SWAP1 POP JUMP JUMPDEST DUP3 DUP2 DUP4 CALLDATACOPY PUSH0 DUP4 DUP4 ADD MSTORE POP POP POP JUMP JUMPDEST PUSH0 PUSH2 0x1359 PUSH2 0x1354 DUP5 PUSH2 0x1309 JUMP JUMPDEST PUSH2 0x12EF JUMP JUMPDEST SWAP1 POP DUP3 DUP2 MSTORE PUSH1 0x20 DUP2 ADD DUP5 DUP5 DUP5 ADD GT ISZERO PUSH2 0x1375 JUMPI PUSH2 0x1374 PUSH2 0x128D JUMP JUMPDEST JUMPDEST PUSH2 0x1380 DUP5 DUP3 DUP6 PUSH2 0x1339 JUMP JUMPDEST POP SWAP4 SWAP3 POP POP POP JUMP JUMPDEST PUSH0 DUP3 PUSH1 0x1F DUP4 ADD SLT PUSH2 0x139C JUMPI PUSH2 0x139B PUSH2 0x1289 JUMP JUMPDEST JUMPDEST DUP2 CALLDATALOAD PUSH2 0x13AC DUP5 DUP3 PUSH1 0x20 DUP7 ADD PUSH2 0x1347 JUMP JUMPDEST SWAP2 POP POP SWAP3 SWAP2 POP POP JUMP JUMPDEST PUSH1 0x4 DUP2 LT PUSH2 0x13C1 JUMPI PUSH0 DUP1 REVERT JUMPDEST POP JUMP JUMPDEST PUSH0 DUP2 CALLDATALOAD SWAP1 POP PUSH2 0x13D2 DUP2 PUSH2 0x13B5 JUMP JUMPDEST SWAP3 SWAP2 POP POP JUMP JUMPDEST PUSH1 0x4 DUP2 LT PUSH2 0x13E4 JUMPI PUSH0 DUP1 REVERT JUMPDEST POP JUMP JUMPDEST PUSH0 DUP2 CALLDATALOAD SWAP1 POP PUSH2 0x13F5 DUP2 PUSH2 0x13D8 JUMP JUMPDEST SWAP3 SWAP2 POP POP JUMP JUMPDEST PUSH0 DUP1 PUSH0 DUP1 PUSH0 PUSH1 0xA0 DUP7 DUP9 SUB SLT ISZERO PUSH2 0x1414 JUMPI PUSH2 0x1413 PUSH2 0x122C JUMP JUMPDEST JUMPDEST PUSH0 PUSH2 0x1421 DUP9 DUP3 DUP10 ADD PUSH2 0x124A JUMP JUMPDEST SWAP6 POP POP PUSH1 0x20 DUP7 ADD CALLDATALOAD PUSH8 0xFFFFFFFFFFFFFFFF DUP2 GT ISZERO PUSH2 0x1442 JUMPI PUSH2 0x1441 PUSH2 0x1230 JUMP JUMPDEST JUMPDEST PUSH2 0x144E DUP9 DUP3 DUP10 ADD PUSH2 0x1388 JUMP JUMPDEST SWAP5 POP POP PUSH1 0x40 PUSH2 0x145F DUP9 DUP3 DUP10 ADD PUSH2 0x124A JUMP JUMPDEST SWAP4 POP POP PUSH1 0x60 PUSH2 0x1470 DUP9 DUP3 DUP10 ADD PUSH2 0x13C4 JUMP JUMPDEST SWAP3 POP POP PUSH1 0x80 PUSH2 0x1481 DUP9 DUP3 DUP10 ADD PUSH2 0x13E7 JUMP JUMPDEST SWAP2 POP POP SWAP3 SWAP6 POP SWAP3 SWAP6 SWAP1 SWAP4 POP JUMP JUMPDEST PUSH0 DUP1 PUSH0 DUP1 PUSH0 DUP1 PUSH0 PUSH1 0xE0 DUP9 DUP11 SUB SLT ISZERO PUSH2 0x14A9 JUMPI PUSH2 0x14A8 PUSH2 0x122C JUMP JUMPDEST JUMPDEST PUSH0 PUSH2 0x14B6 DUP11 DUP3 DUP12 ADD PUSH2 0x124A JUMP JUMPDEST SWAP8 POP POP PUSH1 0x20 DUP9 ADD CALLDATALOAD PUSH8 0xFFFFFFFFFFFFFFFF DUP2 GT ISZERO PUSH2 0x14D7 JUMPI PUSH2 0x14D6 PUSH2 0x1230 JUMP JUMPDEST JUMPDEST PUSH2 0x14E3 DUP11 DUP3 DUP12 ADD PUSH2 0x1388 JUMP JUMPDEST SWAP7 POP POP PUSH1 0x40 PUSH2 0x14F4 DUP11 DUP3 DUP12 ADD PUSH2 0x124A JUMP JUMPDEST SWAP6 POP POP PUSH1 0x60 PUSH2 0x1505 DUP11 DUP3 DUP12 ADD PUSH2 0x124A JUMP JUMPDEST SWAP5 POP POP PUSH1 0x80 PUSH2 0x1516 DUP11 DUP3 DUP12 ADD PUSH2 0x13C4 JUMP JUMPDEST SWAP4 POP POP PUSH1 0xA0 PUSH2 0x1527 DUP11 DUP3 DUP12 ADD PUSH2 0x13E7 JUMP JUMPDEST SWAP3 POP POP PUSH1 0xC0 PUSH2 0x1538 DUP11 DUP3 DUP12 ADD PUSH2 0x124A JUMP JUMPDEST SWAP2 POP POP SWAP3 SWAP6 SWAP9 SWAP2 SWAP5 SWAP8 POP SWAP3 SWAP6 POP JUMP JUMPDEST PUSH0 PUSH1 0x3 SWAP1 POP SWAP2 SWAP1 POP JUMP JUMPDEST PUSH0 DUP2 SWAP1 POP SWAP3 SWAP2 POP POP JUMP JUMPDEST PUSH0 DUP2 SWAP1 POP SWAP2 SWAP1 POP JUMP JUMPDEST PUSH0 DUP3 DUP3 MSTORE PUSH1 0x20 DUP3 ADD SWAP1 POP SWAP3 SWAP2 POP POP JUMP JUMPDEST PUSH0 PUSH2 0x157E DUP3 PUSH2 0x106B JUMP JUMPDEST PUSH2 0x1588 DUP2 DUP6 PUSH2 0x1564 JUMP JUMPDEST SWAP4 POP PUSH2 0x1598 DUP2 DUP6 PUSH1 0x20 DUP7 ADD PUSH2 0x1085 JUMP JUMPDEST PUSH2 0x15A1 DUP2 PUSH2 0x10AD JUMP JUMPDEST DUP5 ADD SWAP2 POP POP SWAP3 SWAP2 POP POP JUMP JUMPDEST PUSH2 0x15B5 DUP2 PUSH2 0x1157 JUMP JUMPDEST DUP3 MSTORE POP POP JUMP JUMPDEST PUSH2 0x15C4 DUP2 PUSH2 0x119D JUMP JUMPDEST DUP3 MSTORE POP POP JUMP JUMPDEST PUSH0 PUSH1 0xC0 DUP4 ADD PUSH0 DUP4 ADD MLOAD DUP5 DUP3 SUB PUSH0 DUP7 ADD MSTORE PUSH2 0x15E4 DUP3 DUP3 PUSH2 0x1574 JUMP JUMPDEST SWAP2 POP POP PUSH1 0x20 DUP4 ADD MLOAD PUSH2 0x15F9 PUSH1 0x20 DUP7 ADD DUP3 PUSH2 0xFCA JUMP JUMPDEST POP PUSH1 0x40 DUP4 ADD MLOAD PUSH2 0x160C PUSH1 0x40 DUP7 ADD DUP3 PUSH2 0xFCA JUMP JUMPDEST POP PUSH1 0x60 DUP4 ADD MLOAD PUSH2 0x161F PUSH1 0x60 DUP7 ADD DUP3 PUSH2 0x15AC JUMP JUMPDEST POP PUSH1 0x80 DUP4 ADD MLOAD PUSH2 0x1632 PUSH1 0x80 DUP7 ADD DUP3 PUSH2 0x15BB JUMP JUMPDEST POP PUSH1 0xA0 DUP4 ADD MLOAD PUSH2 0x1645 PUSH1 0xA0 DUP7 ADD DUP3 PUSH2 0xFCA JUMP JUMPDEST POP DUP1 SWAP2 POP POP SWAP3 SWAP2 POP POP JUMP JUMPDEST PUSH0 PUSH2 0x165B DUP4 DUP4 PUSH2 0x15CA JUMP JUMPDEST SWAP1 POP SWAP3 SWAP2 POP POP JUMP JUMPDEST PUSH0 PUSH1 0x20 DUP3 ADD SWAP1 POP SWAP2 SWAP1 POP JUMP JUMPDEST PUSH0 PUSH2 0x1679 DUP3 PUSH2 0x1547 JUMP JUMPDEST PUSH2 0x1683 DUP2 DUP6 PUSH2 0x1551 JUMP JUMPDEST SWAP4 POP DUP4 PUSH1 0x20 DUP3 MUL DUP6 ADD PUSH2 0x1695 DUP6 PUSH2 0x155B JUMP JUMPDEST DUP1 PUSH0 JUMPDEST DUP6 DUP2 LT ISZERO PUSH2 0x16D0 JUMPI DUP5 DUP5 SUB DUP10 MSTORE DUP2 MLOAD PUSH2 0x16B1 DUP6 DUP3 PUSH2 0x1650 JUMP JUMPDEST SWAP5 POP PUSH2 0x16BC DUP4 PUSH2 0x1663 JUMP JUMPDEST SWAP3 POP PUSH1 0x20 DUP11 ADD SWAP10 POP POP PUSH1 0x1 DUP2 ADD SWAP1 POP PUSH2 0x1698 JUMP JUMPDEST POP DUP3 SWAP8 POP DUP8 SWAP6 POP POP POP POP POP POP SWAP3 SWAP2 POP POP JUMP JUMPDEST PUSH0 PUSH1 0x20 DUP3 ADD SWAP1 POP DUP2 DUP2 SUB PUSH0 DUP4 ADD MSTORE PUSH2 0x16FA DUP2 DUP5 PUSH2 0x166F JUMP JUMPDEST SWAP1 POP SWAP3 SWAP2 POP POP JUMP JUMPDEST PUSH0 PUSH1 0x20 DUP3 DUP5 SUB SLT ISZERO PUSH2 0x1717 JUMPI PUSH2 0x1716 PUSH2 0x122C JUMP JUMPDEST JUMPDEST PUSH0 PUSH2 0x1724 DUP5 DUP3 DUP6 ADD PUSH2 0x13C4 JUMP JUMPDEST SWAP2 POP POP SWAP3 SWAP2 POP POP JUMP JUMPDEST PUSH0 PUSH1 0x20 DUP3 ADD SWAP1 POP PUSH2 0x1740 PUSH0 DUP4 ADD DUP5 PUSH2 0x10F5 JUMP JUMPDEST SWAP3 SWAP2 POP POP JUMP JUMPDEST PUSH32 0x4E487B7100000000000000000000000000000000000000000000000000000000 PUSH0 MSTORE PUSH1 0x32 PUSH1 0x4 MSTORE PUSH1 0x24 PUSH0 REVERT JUMPDEST PUSH32 0x4E487B7100000000000000000000000000000000000000000000000000000000 PUSH0 MSTORE PUSH1 0x22 PUSH1 0x4 MSTORE PUSH1 0x24 PUSH0 REVERT JUMPDEST PUSH0 PUSH1 0x2 DUP3 DIV SWAP1 POP PUSH1 0x1 DUP3 AND DUP1 PUSH2 0x17B7 JUMPI PUSH1 0x7F DUP3 AND SWAP2 POP JUMPDEST PUSH1 0x20 DUP3 LT DUP2 SUB PUSH2 0x17CA JUMPI PUSH2 0x17C9 PUSH2 0x1773 JUMP JUMPDEST JUMPDEST POP SWAP2 SWAP1 POP JUMP JUMPDEST PUSH0 DUP2 SWAP1 POP DUP2 PUSH0 MSTORE PUSH1 0x20 PUSH0 KECCAK256 SWAP1 POP SWAP2 SWAP1 POP JUMP JUMPDEST PUSH0 PUSH1 0x20 PUSH1 0x1F DUP4 ADD DIV SWAP1 POP SWAP2 SWAP1 POP JUMP JUMPDEST PUSH0 DUP3 DUP3 SHL SWAP1 POP SWAP3 SWAP2 POP POP JUMP JUMPDEST PUSH0 PUSH1 0x8 DUP4 MUL PUSH2 0x182C PUSH32 0xFFFFFFFFFFFFFFFFFFFFFFFFFFFFFFFFFFFFFFFFFFFFFFFFFFFFFFFFFFFFFFFF DUP3 PUSH2 0x17F1 JUMP JUMPDEST PUSH2 0x1836 DUP7 DUP4 PUSH2 0x17F1 JUMP JUMPDEST SWAP6 POP DUP1 NOT DUP5 AND SWAP4 POP DUP1 DUP7 AND DUP5 OR SWAP3 POP POP POP SWAP4 SWAP3 POP POP POP JUMP JUMPDEST PUSH0 DUP2 SWAP1 POP SWAP2 SWAP1 POP JUMP JUMPDEST PUSH0 PUSH2 0x1871 PUSH2 0x186C PUSH2 0x1867 DUP5 PUSH2 0xFC1 JUMP JUMPDEST PUSH2 0x184E JUMP JUMPDEST PUSH2 0xFC1 JUMP JUMPDEST SWAP1 POP SWAP2 SWAP1 POP JUMP JUMPDEST PUSH0 DUP2 SWAP1 POP SWAP2 SWAP1 POP JUMP JUMPDEST PUSH2 0x188A DUP4 PUSH2 0x1857 JUMP JUMPDEST PUSH2 0x189E PUSH2 0x1896 DUP3 PUSH2 0x1878 JUMP JUMPDEST DUP5 DUP5 SLOAD PUSH2 0x17FD JUMP JUMPDEST DUP3 SSTORE POP POP POP POP JUMP JUMPDEST PUSH0 SWAP1 JUMP JUMPDEST PUSH2 0x18B2 PUSH2 0x18A6 JUMP JUMPDEST PUSH2 0x18BD DUP2 DUP5 DUP5 PUSH2 0x1881 JUMP JUMPDEST POP POP POP JUMP JUMPDEST JUMPDEST DUP2 DUP2 LT ISZERO PUSH2 0x18E0 JUMPI PUSH2 0x18D5 PUSH0 DUP3 PUSH2 0x18AA JUMP JUMPDEST PUSH1 0x1 DUP2 ADD SWAP1 POP PUSH2 0x18C3 JUMP JUMPDEST POP POP JUMP JUMPDEST PUSH1 0x1F DUP3 GT ISZERO PUSH2 0x1925 JUMPI PUSH2 0x18F6 DUP2 PUSH2 0x17D0 JUMP JUMPDEST PUSH2 0x18FF DUP5 PUSH2 0x17E2 JUMP JUMPDEST DUP2 ADD PUSH1 0x20 DUP6 LT ISZERO PUSH2 0x190E JUMPI DUP2 SWAP1 POP JUMPDEST PUSH2 0x1922 PUSH2 0x191A DUP6 PUSH2 0x17E2 JUMP JUMPDEST DUP4 ADD DUP3 PUSH2 0x18C2 JUMP JUMPDEST POP POP JUMPDEST POP POP POP JUMP JUMPDEST PUSH0 DUP3 DUP3 SHR SWAP1 POP SWAP3 SWAP2 POP POP JUMP JUMPDEST PUSH0 PUSH2 0x1945 PUSH0 NOT DUP5 PUSH1 0x8 MUL PUSH2 0x192A JUMP JUMPDEST NOT DUP1 DUP4 AND SWAP2 POP POP SWAP3 SWAP2 POP POP JUMP JUMPDEST PUSH0 PUSH2 0x195D DUP4 DUP4 PUSH2 0x1936 JUMP JUMPDEST SWAP2 POP DUP3 PUSH1 0x2 MUL DUP3 OR SWAP1 POP SWAP3 SWAP2 POP POP JUMP JUMPDEST PUSH2 0x1976 DUP3 PUSH2 0x106B JUMP JUMPDEST PUSH8 0xFFFFFFFFFFFFFFFF DUP2 GT ISZERO PUSH2 0x198F JUMPI PUSH2 0x198E PUSH2 0x1291 JUMP JUMPDEST JUMPDEST PUSH2 0x1999 DUP3 SLOAD PUSH2 0x17A0 JUMP JUMPDEST PUSH2 0x19A4 DUP3 DUP3 DUP6 PUSH2 0x18E4 JUMP JUMPDEST PUSH0 PUSH1 0x20 SWAP1 POP PUSH1 0x1F DUP4 GT PUSH1 0x1 DUP2 EQ PUSH2 0x19D5 JUMPI PUSH0 DUP5 ISZERO PUSH2 0x19C3 JUMPI DUP3 DUP8 ADD MLOAD SWAP1 POP JUMPDEST PUSH2 0x19CD DUP6 DUP3 PUSH2 0x1952 JUMP JUMPDEST DUP7 SSTORE POP PUSH2 0x1A34 JUMP JUMPDEST PUSH1 0x1F NOT DUP5 AND PUSH2 0x19E3 DUP7 PUSH2 0x17D0 JUMP JUMPDEST PUSH0 JUMPDEST DUP3 DUP2 LT ISZERO PUSH2 0x1A0A JUMPI DUP5 DUP10 ADD MLOAD DUP3 SSTORE PUSH1 0x1 DUP3 ADD SWAP2 POP PUSH1 0x20 DUP6 ADD SWAP5 POP PUSH1 0x20 DUP2 ADD SWAP1 POP PUSH2 0x19E5 JUMP JUMPDEST DUP7 DUP4 LT ISZERO PUSH2 0x1A27 JUMPI DUP5 DUP10 ADD MLOAD PUSH2 0x1A23 PUSH1 0x1F DUP10 AND DUP3 PUSH2 0x1936 JUMP JUMPDEST DUP4 SSTORE POP JUMPDEST PUSH1 0x1 PUSH1 0x2 DUP9 MUL ADD DUP9 SSTORE POP POP POP JUMPDEST POP POP POP POP POP POP JUMP JUMPDEST PUSH0 DUP2 SLOAD SWAP1 POP PUSH2 0x1A4A DUP2 PUSH2 0x17A0 JUMP JUMPDEST SWAP1 POP SWAP2 SWAP1 POP JUMP JUMPDEST DUP2 DUP2 SUB PUSH2 0x1A5F JUMPI POP POP PUSH2 0x1B34 JUMP JUMPDEST PUSH2 0x1A68 DUP3 PUSH2 0x1A3C JUMP JUMPDEST PUSH8 0xFFFFFFFFFFFFFFFF DUP2 GT ISZERO PUSH2 0x1A81 JUMPI PUSH2 0x1A80 PUSH2 0x1291 JUMP JUMPDEST JUMPDEST PUSH2 0x1A8B DUP3 SLOAD PUSH2 0x17A0 JUMP JUMPDEST PUSH2 0x1A96 DUP3 DUP3 DUP6 PUSH2 0x18E4 JUMP JUMPDEST PUSH0 PUSH1 0x1F DUP4 GT PUSH1 0x1 DUP2 EQ PUSH2 0x1AC3 JUMPI PUSH0 DUP5 ISZERO PUSH2 0x1AB1 JUMPI DUP3 DUP8 ADD SLOAD SWAP1 POP JUMPDEST PUSH2 0x1ABB DUP6 DUP3 PUSH2 0x1952 JUMP JUMPDEST DUP7 SSTORE POP PUSH2 0x1B2D JUMP JUMPDEST PUSH1 0x1F NOT DUP5 AND PUSH2 0x1AD1 DUP8 PUSH2 0x17D0 JUMP JUMPDEST SWAP7 POP PUSH2 0x1ADC DUP7 PUSH2 0x17D0 JUMP JUMPDEST PUSH0 JUMPDEST DUP3 DUP2 LT ISZERO PUSH2 0x1B03 JUMPI DUP5 DUP10 ADD SLOAD DUP3 SSTORE PUSH1 0x1 DUP3 ADD SWAP2 POP PUSH1 0x1 DUP6 ADD SWAP5 POP PUSH1 0x20 DUP2 ADD SWAP1 POP PUSH2 0x1ADE JUMP JUMPDEST DUP7 DUP4 LT ISZERO PUSH2 0x1B20 JUMPI DUP5 DUP10 ADD SLOAD PUSH2 0x1B1C PUSH1 0x1F DUP10 AND DUP3 PUSH2 0x1936 JUMP JUMPDEST DUP4 SSTORE POP JUMPDEST PUSH1 0x1 PUSH1 0x2 DUP9 MUL ADD DUP9 SSTORE POP POP POP JUMPDEST POP POP POP POP POP POP JUMPDEST JUMP JUMPDEST PUSH32 0x496E76616C696420726F6C6C206E756D62657200000000000000000000000000 PUSH0 DUP3 ADD MSTORE POP JUMP JUMPDEST PUSH0 PUSH2 0x1B6A PUSH1 0x13 DUP4 PUSH2 0x1075 JUMP JUMPDEST SWAP2 POP PUSH2 0x1B75 DUP3 PUSH2 0x1B36 JUMP JUMPDEST PUSH1 0x20 DUP3 ADD SWAP1 POP SWAP2 SWAP1 POP JUMP JUMPDEST PUSH0 PUSH1 0x20 DUP3 ADD SWAP1 POP DUP2 DUP2 SUB PUSH0 DUP4 ADD MSTORE PUSH2 0x1B97 DUP2 PUSH2 0x1B5E JUMP JUMPDEST SWAP1 POP SWAP2 SWAP1 POP JUMP JUMPDEST PUSH32 0x4E487B7100000000000000000000000000000000000000000000000000000000 PUSH0 MSTORE PUSH1 0x11 PUSH1 0x4 MSTORE PUSH1 0x24 PUSH0 REVERT JUMPDEST PUSH0 PUSH2 0x1BD5 DUP3 PUSH2 0xFC1 JUMP JUMPDEST SWAP2 POP PUSH32 0xFFFFFFFFFFFFFFFFFFFFFFFFFFFFFFFFFFFFFFFFFFFFFFFFFFFFFFFFFFFFFFFF DUP3 SUB PUSH2 0x1C07 JUMPI PUSH2 0x1C06 PUSH2 0x1B9E JUMP JUMPDEST JUMPDEST PUSH1 0x1 DUP3 ADD SWAP1 POP SWAP2 SWAP1 POP JUMP JUMPDEST PUSH0 PUSH2 0x1C1C DUP3 PUSH2 0xFC1 JUMP JUMPDEST SWAP2 POP PUSH2 0x1C27 DUP4 PUSH2 0xFC1 JUMP JUMPDEST SWAP3 POP DUP3 DUP3 SUB SWAP1 POP DUP2 DUP2 GT ISZERO PUSH2 0x1C3F JUMPI PUSH2 0x1C3E PUSH2 0x1B9E JUMP JUMPDEST JUMPDEST SWAP3 SWAP2 POP POP JUMP JUMPDEST PUSH0 PUSH2 0x1C4F DUP3 PUSH2 0xFC1 JUMP JUMPDEST SWAP2 POP PUSH0 DUP3 SUB PUSH2 0x1C61 JUMPI PUSH2 0x1C60 PUSH2 0x1B9E JUMP JUMPDEST JUMPDEST PUSH1 0x1 DUP3 SUB SWAP1 POP SWAP2 SWAP1 POP JUMP INVALID LOG2 PUSH5 0x6970667358 0x22 SLT KECCAK256 PUSH2 0x235C DUP12 CREATE2 PUSH17 0x993EADE9102F91FB5AE8EE94B5A85BF9D9 SWAP5 BLOCKHASH 0xCC 0xEA 0xFC PUSH23 0x84FE0864736F6C63430008150033000000000000000000 "
		},
		"gasEstimates": {
			"creation": {
				"codeDepositCost": "1466000",
				"executionCost": "1532",
				"totalCost": "1467532"
			},
			"external": {
				"CountByDepartment()": "infinite",
				"_localvar()": "infinite",
				"arr(uint256)": "infinite",
				"counts(uint8)": "2800",
				"registration(uint256,string,uint256,uint256,uint8,uint8,uint256)": "infinite",
				"retrive(uint256)": "infinite",
				"sortStudentsByMarks()": "infinite",
				"stdinfo(uint256)": "infinite",
				"update(uint256,string,uint256,uint8,uint8)": "infinite"
			}
		},
		"methodIdentifiers": {
			"CountByDepartment()": "0e0196a8",
			"_localvar()": "712781f5",
			"arr(uint256)": "71e5ee5f",
			"counts(uint8)": "edb6f7e7",
			"registration(uint256,string,uint256,uint256,uint8,uint8,uint256)": "cf25823a",
			"retrive(uint256)": "9e803801",
			"sortStudentsByMarks()": "df93d8f0",
			"stdinfo(uint256)": "9205c66e",
			"update(uint256,string,uint256,uint8,uint8)": "743e8701"
		}
	},
	"abi": [
		{
			"inputs": [],
			"name": "CountByDepartment",
			"outputs": [
				{
					"internalType": "uint256[4]",
					"name": "departmentCountsArray",
					"type": "uint256[4]"
				}
			],
			"stateMutability": "view",
			"type": "function"
		},
		{
			"inputs": [],
			"name": "_localvar",
			"outputs": [
				{
					"internalType": "string",
					"name": "name",
					"type": "string"
				},
				{
					"internalType": "uint256",
					"name": "age",
					"type": "uint256"
				},
				{
					"internalType": "uint256",
					"name": "registrationDate",
					"type": "uint256"
				},
				{
					"internalType": "enum studentRegistration.Department",
					"name": "department",
					"type": "uint8"
				},
				{
					"internalType": "enum studentRegistration.status",
					"name": "Status",
					"type": "uint8"
				},
				{
					"internalType": "uint256",
					"name": "ObtainedMarks",
					"type": "uint256"
				}
			],
			"stateMutability": "view",
			"type": "function"
		},
		{
			"inputs": [
				{
					"internalType": "uint256",
					"name": "",
					"type": "uint256"
				}
			],
			"name": "arr",
			"outputs": [
				{
					"internalType": "string",
					"name": "name",
					"type": "string"
				},
				{
					"internalType": "uint256",
					"name": "age",
					"type": "uint256"
				},
				{
					"internalType": "uint256",
					"name": "registrationDate",
					"type": "uint256"
				},
				{
					"internalType": "enum studentRegistration.Department",
					"name": "department",
					"type": "uint8"
				},
				{
					"internalType": "enum studentRegistration.status",
					"name": "Status",
					"type": "uint8"
				},
				{
					"internalType": "uint256",
					"name": "ObtainedMarks",
					"type": "uint256"
				}
			],
			"stateMutability": "view",
			"type": "function"
		},
		{
			"inputs": [
				{
					"internalType": "enum studentRegistration.Department",
					"name": "",
					"type": "uint8"
				}
			],
			"name": "counts",
			"outputs": [
				{
					"internalType": "uint256",
					"name": "",
					"type": "uint256"
				}
			],
			"stateMutability": "view",
			"type": "function"
		},
		{
			"inputs": [
				{
					"internalType": "uint256",
					"name": "_rollno",
					"type": "uint256"
				},
				{
					"internalType": "string",
					"name": "_name",
					"type": "string"
				},
				{
					"internalType": "uint256",
					"name": "_age",
					"type": "uint256"
				},
				{
					"internalType": "uint256",
					"name": "_registrationDate",
					"type": "uint256"
				},
				{
					"internalType": "enum studentRegistration.Department",
					"name": "_department",
					"type": "uint8"
				},
				{
					"internalType": "enum studentRegistration.status",
					"name": "_status",
					"type": "uint8"
				},
				{
					"internalType": "uint256",
					"name": "_obtainedMarks",
					"type": "uint256"
				}
			],
			"name": "registration",
			"outputs": [],
			"stateMutability": "nonpayable",
			"type": "function"
		},
		{
			"inputs": [
				{
					"internalType": "uint256",
					"name": "rollno",
					"type": "uint256"
				}
			],
			"name": "retrive",
			"outputs": [
				{
					"internalType": "string",
					"name": "_name",
					"type": "string"
				},
				{
					"internalType": "uint256",
					"name": "_age",
					"type": "uint256"
				},
				{
					"internalType": "uint256",
					"name": "_registrationDate",
					"type": "uint256"
				},
				{
					"internalType": "enum studentRegistration.Department",
					"name": "_department",
					"type": "uint8"
				},
				{
					"internalType": "enum studentRegistration.status",
					"name": "_status",
					"type": "uint8"
				},
				{
					"internalType": "uint256",
					"name": "_obtainedMarks",
					"type": "uint256"
				}
			],
			"stateMutability": "view",
			"type": "function"
		},
		{
			"inputs": [],
			"name": "sortStudentsByMarks",
			"outputs": [
				{
					"components": [
						{
							"internalType": "string",
							"name": "name",
							"type": "string"
						},
						{
							"internalType": "uint256",
							"name": "age",
							"type": "uint256"
						},
						{
							"internalType": "uint256",
							"name": "registrationDate",
							"type": "uint256"
						},
						{
							"internalType": "enum studentRegistration.Department",
							"name": "department",
							"type": "uint8"
						},
						{
							"internalType": "enum studentRegistration.status",
							"name": "Status",
							"type": "uint8"
						},
						{
							"internalType": "uint256",
							"name": "ObtainedMarks",
							"type": "uint256"
						}
					],
					"internalType": "struct studentRegistration.student[3]",
					"name": "sortedStudents",
					"type": "tuple[3]"
				}
			],
			"stateMutability": "view",
			"type": "function"
		},
		{
			"inputs": [
				{
					"internalType": "uint256",
					"name": "",
					"type": "uint256"
				}
			],
			"name": "stdinfo",
			"outputs": [
				{
					"internalType": "string",
					"name": "name",
					"type": "string"
				},
				{
					"internalType": "uint256",
					"name": "age",
					"type": "uint256"
				},
				{
					"internalType": "uint256",
					"name": "registrationDate",
					"type": "uint256"
				},
				{
					"internalType": "enum studentRegistration.Department",
					"name": "department",
					"type": "uint8"
				},
				{
					"internalType": "enum studentRegistration.status",
					"name": "Status",
					"type": "uint8"
				},
				{
					"internalType": "uint256",
					"name": "ObtainedMarks",
					"type": "uint256"
				}
			],
			"stateMutability": "view",
			"type": "function"
		},
		{
			"inputs": [
				{
					"internalType": "uint256",
					"name": "rollno",
					"type": "uint256"
				},
				{
					"internalType": "string",
					"name": "_name",
					"type": "string"
				},
				{
					"internalType": "uint256",
					"name": "_age",
					"type": "uint256"
				},
				{
					"internalType": "enum studentRegistration.Department",
					"name": "_department",
					"type": "uint8"
				},
				{
					"internalType": "enum studentRegistration.status",
					"name": "_status",
					"type": "uint8"
				}
			],
			"name": "update",
			"outputs": [],
			"stateMutability": "nonpayable",
			"type": "function"
		}
	]
}